:020000040000FA
:10000000380A0020F1000000F5000000D5000000D3
:1000100000000000000000000000000000000000E0
:10002000000000000000000000000000F9000000D7
:100030000000000000000000FB000000FD000000C8
:10004000FF000000FF000000FF000000FF000000B4
:10005000FF000000FF000000FF000000FF000000A4
:1000600015170000FF000000FF000000FF00000067
:10007000D5170000E5170000FF000000FF0000009A
:10008000FF000000FF000000FF000000FF00000074
:10009000FF000000FF000000FF000000FF00000064
:1000A000FF000000FF000000FF000000FF00000054
:1000B000FF000000FF000000FF000000FF00000044
:1000C0000348854600F08AFA0048004725390000B9
:1000D000380A002004207146084202D0EFF309805C
:1000E00001E0EFF308807146004A10473D0F000021
:1000F00003480047FEE7FEE7FEE7FEE7FEE7FEE710
:10010000C100000030B50B4601460020202201242A
:1001100009E00D46D5409D4205D31D469540491B3B
:100120002546954040191546521E002DF1DC30BD84
:1001300070B500242546002801DA01244042002938
:1001400001DA01254942FFF7DDFFAC4200D0404211
:10015000002C00D0494270BD03460B439B0703D0DF
:1001600009E008C9121F08C0042AFAD203E00B787C
:100170000370401C491C521EF9D27047D2B201E0F4
:100180000270401C491EFBD270470022F6E710B5F2
:1001900013460A4604461946FFF7F0FF204610BDF5
:1001A00010B5044605E00B780370401C002B00D00E
:1001B000491C521EF7D2204610BD421C0178401C3B
:1001C0000029FBD1801A70470321001D401E0378CF
:1001D00012021A43491EF9D51046704703460322FE
:1001E0000870000A491C521EFAD518467047F0B52F
:1001F0001FB40646002082B00546402401910090BD
:100200001BE0019922460F46304600F009FA049A95
:10021000059B801A994110D310461946224600F0DA
:10022000EFF9361A8F410197224601200021009FE5
:1002300000F0E6F938184D4100902046641E002871
:10024000DFDC019B00982946324607B0F0BD000074
:10025000F0B507460846584087B0C00F04904800E4
:100260000E46590040084908BC1A884105D2384654
:1002700031461E4617460B460246580040081043BA
:100280004CD0300D039040055900400D490D0590AC
:10029000401A0290402872DA18030121000B090568
:1002A0000843019004980092002805D00199524219
:1002B0000020884100920190029840210A1A019979
:1002C000009800F09DF905460C466B4607CB00F000
:1002D000B8F9C0197141039A0E0D0023D717564083
:1002E0001A467A40164344D0049A002A2DD0029A26
:1002F000012A039A15DC1205C01A91410126360520
:10030000001C7141D20F059ED20700930192029604
:100310002A46234600F0B5F907B0F0BD384631460D
:10032000FAE71605224A0F46B218C01AB741012152
:100330000905001C4F4100187F41114618187941EA
:10034000E20F10436D19644113E0E2076D08154395
:100350006408C2071443039A01261205C01A91418A
:100360003605001C7141CE07400830434908C018CB
:1003700051412A46234600F077F9CDE7FFE704987C
:1003800001224000C117121A00238B410498314604
:10039000C417381AA141EEE730B40124E4076340E2
:1003A00030BC55E730B40124E407614030BC4FE76E
:1003B0000000E0FFF0B51FB488B00B990998002445
:1003C00048400999C00F490049080991C0070B9995
:1003D0000090490049080B9109990898A6460843DE
:1003E0001CD00B990A98084318D0099801244000A2
:1003F000420D4800410D099824050003000B2043DD
:1004000009900B980003000B20430B9050181C49D7
:100410004018002201901446104605E000200146D5
:100420000DB0F0BD032801DA034600E003239C462B
:10043000C11A0AAE0AE05F0008ADED5B4F00F75B42
:100440007D430027AA187C41491C5B1E6145F2DDF3
:10045000410004AB5A522104120C0A43240C401CE4
:100460000828DFDB01980290009970460191009006
:10047000059B049A0799069800F003F9D0E700005D
:100480000DFCFFFFF0B50C465C4085B0E40FE407BF
:1004900003944C000026640859009446490802461B
:1004A0000296224321D062460A431ED06200570DB5
:1004B0004A000E032303550D012402462C4924054E
:1004C000781B1B0B360B40182343264361460090D4
:1004D0001C46501AB44103D30098401C009002E01F
:1004E000921800985B41002803DA0020014605B00D
:1004F000F0BD0020012109050746864611E064464B
:100500001D46141BB54106D36546521BB3417446C4
:1005100007430C43A646CD074008490828439218D4
:100520005B4105460D43EAD11046184313D060469F
:10053000194650407140084306D06046101AB34136
:1005400006D20122002306E000220123DB0702E09D
:100550000122D2435310009874460105381C6141B2
:10056000029C039D0019694100F07EF8BFE700007E
:10057000FD0300004A0009030123090B1B05194371
:100580000A4B10B5520D9A4202DA0020014610BD06
:10059000064B34339A4203DC9A1A00F041F810BD3E
:1005A000034BD21800F02CF810BD0000FF03000030
:1005B000CDFBFFFF10B5002904DB0124E407404216
:1005C0008C412146002B04DB1C460123DB075242F1
:1005D000A341994200D1904210BD0000064C012574
:1005E000064E05E0E36807CC2B430C3C98471034DB
:1005F000B442F7D3FFF768FD883D0000A83D000036
:1006000010B5202A04DB0146203A9140002010BD9D
:10061000914020239C1A0346E3401943904010BDAB
:1006200010B5202A04DB0846203AD040002110BD36
:100630000B46D340D0402024A21A914008431946CB
:1006400010BD10B5202A06DBCB170846203A104112
:10065000C1170B4306E00B461341D0402024A21AD9
:1006600091400843194610BD10B5002B08DA00244C
:10067000401C614192185B411A4301D1400840007F
:1006800010BDF0B51FB482B005460C0003D008467B
:1006900001F0A0F902E001F09DF92030024600903F
:1006A00021462846FFF7ACFF049B059A04460F46F7
:1006B00018431143084314D0184610431BD0009828
:1006C00040210A1A18460599FFF7AAFF05460E466B
:1006D000009A05990498FFF793FF084305D001207D
:1006E00004E02046394607B0F0BD0020C11705439D
:1006F0000E432C43374300990E986305401A790541
:10070000E40A00220C43FD0A0A3002D5002001460B
:10071000E9E70105101969410C9C0D9D001969411B
:10072000FFF7A2FFDFE700000248016AC2011143A0
:100730000162704700020050C10F8A00044951183D
:100740004A68C306DB0E0120984002434A607047A6
:1007500000020050F3B585B00C46FFF7E5FF0598A1
:1007600000287148016813D0042211430160102051
:1007700000F0A6F90120C00403906C480190042009
:1007800002906B486B49201888420ED800271CE065
:1007900089088900491C0160012000F091F90020BE
:1007A0000390654801900220EAE7644863492018F5
:1007B0004942884202D80127640006E060482118B7
:1007C000404281427BD20327A4000025ED43029ED4
:1007D00022E031460198FFF795FC5A4984464118BA
:1007E0005948814217D2534B02215B1C5048624644
:1007F0004A43401C1018984209D8A24201D9101B44
:1008000000E0A01AA84202D2050000910BD04F4888
:10081000491C8142EAD9761C212EDAD9002604959A
:10082000F643029D51E00398B9030143012072028F
:100830008002101A01430098801E01433A48016269
:10084000042000F03DF9791C714331E029460198FC
:10085000FFF758FC3B49844641183B48814233D25C
:10086000344B02215B1C324862464A43401C10183C
:10087000984225D8A24201D9101B00E0A01AB0422C
:100880001ED2049A06460091904219D10399B803EA
:10089000084301216A028902511A08430099891EFE
:1008A000084321490862042000F00AF9791C6943D1
:1008B0000198FFF727FC0099484307B0F0BD06E018
:1008C0002248491C8142CED96D1C212DBED90598E4
:1008D00000280FD01E4914480162042000F0F0F8EF
:1008E0001CA0006800901048016A0013014203D068
:1008F0000020E2E71849EEE7080301D50B4800E0C5
:100900000D488A03D9D40A04920F6B469B5CCA0532
:100910008904D20DC90E891C8008921C594350438A
:10092000FFF7F0FB8000C8E7000200500080510193
:10093000FF1E0AFAFFE0F505001BB700800F05FD5A
:10094000C08782FEFF95E7FFBF77CC000102000061
:1009500018440800010202041640000004498207FE
:100960000A6801D09208920002430A6070470000B2
:100970000002005008B511A0006800901048016AFC
:100980000013014201D0002008BD080301D50D4825
:1009900000E00D488A03F7D40A04920F6B469B5C73
:1009A000CA058904D20DC90E891C8008921C5943BE
:1009B0005043FFF7A7FB800008BD000001020204BE
:1009C0000002005000805101001BB700F8B51D4D1A
:1009D0000446EE68102006401B48844202D84010AE
:1009E000844200D204462868042738432860102037
:1009F00000F066F82869072108432861A869000902
:100A00000001A86128688007800F01280ED06100CE
:100A10007804FFF79FFEEE6804461020064001218F
:100A2000022000F013F8002E06D008E0610000203C
:100A3000FFF790FE0446F2E72868B8432860600894
:100A4000F8BD00000002005080F0FA0210B5074A1D
:100A500093691B091B010B4393611169C908C90004
:100A60000143116100F0AEFD10BD00000002005016
:100A700070B5430E1B070DD043009B0F0F4C9B001E
:100A80001B191C68C5002D0FC601F60EB540AC43FE
:100A90000C431C60830A1906090E0DD00103074C94
:100AA000890F8900083409190C688005DBB2C00E73
:100AB00083409C4314430C6070BD00001002005042
:100AC00010B504460749084B05E00A46491E002AAE
:100AD00001DC002010BDDA6820469043F5D10120EA
:100AE00010BD000080F5200000020050002803D057
:100AF000012803D000207047024870470148A83001
:100B000070470000580400207CB559203C4D162247
:100B1000882128602A6029602B68002BF9D000F01A
:100B200095F938A305221421414800F043FA00F05A
:100B300083F9002860D03FA3052218213C4800F02B
:100B400039FA05223DA31921394800F033FA00F0A3
:100B500093F9009048A305221E21354800F02AFA97
:100B600000F09EF9009051A305222121304800F0A9
:100B700021FA0320000500F071F9009058A3052226
:100B800024212B4800F016FA624800F067F9009023
:100B900061A305222621264800F00CFA00242046F5
:100BA00000F09CF9019069A305222D2100942048B2
:100BB00000F000FA641CE4B2032CF0D300242046B9
:100BC00000F07CF901906FA30522332100941848AE
:100BD00000F0F0F9641CE4B2042CF0D300F05AF9F0
:100BE000009076A305223921114800F0E3F900F0C6
:100BF00003F9002028607CBD05227DA31621A3E710
:100C0000000100502020426F6F74204D6F646520FA
:100C10002E2E2E2E2E2E2E2E2E2E2E2E2E2E2E2EF4
:100C20002E2E2E2E2E2E2E2E2E2E2E2E2E2000004E
:100C3000583D00005B4C44524F4D5D002020574111
:100C4000524E494E473A2054686520647269766571
:100C5000722073616D706C6520636F6465206D75C3
:100C60007374206578656375746520696E204150E2
:100C7000206D6F64652100002020436F6D70616EF0
:100C800079204944202E2E2E2E2E2E2E2E2E2E2E24
:100C90002E2E2E2E2E2E2E2E2E2E2E2E2E2E2E2E74
:100CA0002E205B3078253038785D0000202050728F
:100CB0006F64756374204944202E2E2E2E2E2E2E06
:100CC0002E2E2E2E2E2E2E2E2E2E2E2E2E2E2E2E44
:100CD0002E2E2E2E2E205B3078253038785D0000A9
:100CE00020205573657220436F6E6669672030203F
:100CF0002E2E2E2E2E2E2E2E2E2E2E2E2E2E2E2E14
:100D00002E2E2E2E2E2E2E2E2E205B307825303895
:100D1000785D000004003000202055736572204388
:100D20006F6E6669672031202E2E2E2E2E2E2E2ECF
:100D30002E2E2E2E2E2E2E2E2E2E2E2E2E2E2E2ED3
:100D40002E205B3078253038785D00002020556EED
:100D500069717565204944202564202E2E2E2E2E83
:100D60002E2E2E2E2E2E2E2E2E2E2E2E2E2E2E2EA3
:100D70002E2E2E2E2E2E205B3078253038785D0AD0
:100D8000000000002020556E697175652043757361
:100D9000746F6D6572204944202564202E2E2E2EFE
:100DA0002E2E2E2E2E2E2E2E2E2E2E2E2E2E205B44
:100DB0003078253038785D0A00000000202044613A
:100DC000746120466C6173682042617365204164E0
:100DD0006472657373202E2E2E2E2E2E2E2E2E2E06
:100DE0002E2E2E2E2E205B3078253038785D0A008E
:100DF0005B4150524F4D5D0002480168490849006F
:100E00000160704700C000500A492222CA60486051
:100E1000012008610869C007FCD10868400606D5B2
:100E200008684022104308600020C043704700203B
:100E30007047000000C0005003480068800701D5DB
:100E4000012070470020704700C000500248016830
:100E5000012211430160704700C000500549002283
:100E6000CA604860012008610869C007FCD1886831
:100E70007047000000C0005005480B21C1600021F0
:100E80004160012101610169C907FCD18068704797
:100E900000C00050014840697047000000C0005089
:100EA00005480C21C16004214160012101610169F3
:100EB000C907FCD18068704700C000500649042271
:100EC000CA60800010304860012008610869C007CE
:100ED000FCD188687047000000C00050054904221A
:100EE000CA6080004860012008610869C007FCD121
:100EF0008868704700C00050054A2123D3605060C5
:100F00009160012010611069C007FCD1704700009A
:100F100000C00050F0B5002301273C469C400C4225
:100F200008D005685C000326A640B5431646A640D7
:100F3000354305605B1C082BEFD3F0BD044603A0CE
:100F400000F026FD204602F033FEFEE7496E204801
:100F5000617264204661756C742048616E646C65D2
:100F6000720A000003490020496A002900D10120CB
:100F7000704700004042005003490020896A002960
:100F800000D10120704700004042005010B50146DA
:100F900007220448FFF704F902480021C17181606B
:100FA00010BD00002807002001498860704700003C
:100FB000280700200FB4F8B5204D164628460F46E6
:100FC00000240C38FFF7F9F8002833D028460C38F5
:100FD0008068B0422EDB002E2CDB1949B000095886
:100FE0003B4618A0069A00F0D3FCFF2101312846A9
:100FF000FFF7CBF80AAA2846099900F0D9FC401956
:10100000401B2946FF2803DD0846FFF7D6F80124D8
:101010002846FFF7D2F8FF2800D1012429460DA069
:1010200000F0B6FC002C02D00BA000F0B1FC0CA02C
:1010300000F0AEFCF8BC08BC04B018473407002030
:10104000400000205B25735D202573282564293A24
:101050002000000025730000202E2E2E000000002E
:101060000D0A000070B5374800F08EFA364C204665
:10107000FFF762FB354D2846FFF75EFB012100229A
:1010800049072046FFF7F4FC002220212846FFF7FD
:10109000EFFCA006416B07229206114341632D4CE1
:1010A0002B48A0602068000A0002C01C2060206855
:1010B000000A0002C01C20602068FF210904884348
:1010C00003210904401820606068C008C000001DAA
:1010D0006060606870218843403060606068090328
:1010E00088430121890440186060A06840004008DE
:1010F000A060A06840004008A060A06840004008D0
:10110000A0600121204600F065F80221204600F091
:1011100061F81021204600F05DF80121204600F022
:1011200061F80221204600F05DF81021204600F011
:1011300059F80948E060002161622061A162E06124
:10114000616370BD140000041400C0A7160040E6DF
:101150009900090000000440FFFF0000F7B50F46AA
:101160000E490D4E0C7864216043FEF7CBFF0C4D09
:1011700080B26862204678436421FEF7C3FF80B2E4
:10118000A8620299204648436421FEF7BBFF306005
:1011900080B26863FEBD00003C00002022000020F9
:1011A0000000044010B50A4B0A28187001D20A202A
:1011B0001870D8799979020258790A4301021C798A
:1011C000D8789B78000221431843FFF7C7FF10BD72
:1011D000220000200248C2690A43C2617047000031
:1011E0004000044030B500221046012423468340CD
:1011F0000B4203D085002346AB401A43401C06280F
:10120000F4D3024988681043886030BD0000044070
:1012100010B50021E12000F0FFF80021E22000F0ED
:10122000FBF810BD10B57021272000F0F5F810BDB7
:1012300000B539A003C887B00090019138A00068BC
:10124000049038A003C80391029038A0006805906C
:1012500037A0006806905A21532000F0DDF8A52140
:10126000532000F0D9F820213D2000F0D5F80021CE
:10127000FC2000F0D1F80021E12000F0CDF80021A1
:10128000E22000F0C9F87021272000F0C5F8012104
:10129000222000F0C1F80321232000F0BDF84E21E8
:1012A000252000F0B9F81021312000F0B5F8052212
:1012B0002049302000F09AF805221E492A2000F02B
:1012C00095F8052269463F2000F090F8062202A911
:1012D0003A2000F08BF8012205A9392000F086F8A9
:1012E000032204A93E2000F081F8032206A93B2036
:1012F00000F07CF800213C2000F08EF83F212620F1
:1013000000F08AF80021242000F086F80021212036
:1013100000F082F807B000BD0A6D679C460000002F
:10132000F6375D004521EFAC5A5000000100000087
:101330000BDF0200683D0000F8B50E460B4F0021A0
:101340001546396100F0B0F8002404E002F0CAFC50
:101350003055641CE4B2AC42F8D301222021044889
:10136000FFF7D8FD01203861F8BD000000420050B1
:101370000040005010B50021FC2000F04DF88F21F6
:10138000202000F049F80021FD2000F045F8C82099
:1013900002F0BBFA10BD70B50D460646002402F0FF
:1013A0007BFC002813D12A463146A02000F01EF80D
:1013B0000021FD2000F030F83C2002F0A6FA641C69
:1013C000E4B2152CF8D30021FC2000F025F870BD04
:1013D00010B50021FC2000F01FF88E21202000F025
:1013E0001BF80A2002F091FA10BD0000F8B50E4675
:1013F000084F0021154639610C4600F07FF804E0E3
:10140000305D00F07BF8641CE4B2AC42F8D30120FC
:101410003861F8BD0042005070B50546094C002007
:101420000E462061012002F070FA284600F066F8AE
:10143000304600F063F8012002F067FA01202061D5
:1014400070BD00000042005010B504490020086241
:10145000012211460248FFF75DFD10BD0042005019
:10146000404000500148006AC0B27047004200503E
:1014700001490020086270470042005001490120E4
:1014800008627047004200500249002800D0012045
:1014900008627047004200500248016AC943016275
:1014A0007047000000420050F8B50024114E054678
:1014B0002746F761012002F028FA280602D501200C
:1014C000706100E077616806050E0120F06102F0AE
:1014D0001CFA012002F019FA641CE4B2082CE8D3CB
:1014E000002220210448FFF715FDF761012002F0DA
:1014F0000CFAF8BD0042005000400050F8B500243E
:101500000F4E05462746F761012002F0FEF9280636
:1015100002D50120706100E077616806050E0120A8
:10152000F06102F0F2F9012002F0EFF9641CE4B27C
:10153000082CE8D3F761012002F0E7F9F8BD0000BC
:101540000042005010B559200D4C16228821206011
:10155000226021602368002BF9D00420FFF7FEF9F8
:101560001020FFF7ADFA00210720FFF76FFA0548BA
:10157000FFF72CFA00F026F80020206010BD0000D4
:101580000001005080F0FA02010E8A0005210907CF
:1015900051188B680122824013438B608868904306
:1015A0008860704706498A691202FCD408600A28DC
:1015B00004D188690002FCD40D2008607047000047
:1015C00000000540F8B522A00068224E0090316A64
:1015D0003013214C214D014201D0002118E00803B5
:1015E00001D5204600E028468A0301D501460FE0D8
:1015F0000A04920F6B469A5CCB058904DB0DC90E79
:10160000891C80089B1C51435843FEF77BFD8100D9
:10161000134F396030694007400F12D0022812D0B2
:10162000032812D02046B1690907090F491CFEF7AB
:1016300069FD0C4978604A108018FEF763FDB860B8
:10164000F8BD2846EFE70846EDE70748EBE700005E
:10165000010202040002005000805101001BB7008B
:101660005C00002040420F00102700000F4A104984
:101670009042486901D1000A00E0000B4007400F8A
:1016800006D001280ED002280ED00A480068704704
:1016900008688007800F012802D00120C00370472E
:1016A00005487047054870470548EFE700000140CE
:1016B0000002005058000020001BB7001027000057
:1016C00060000020F8B513460F460646FFF7CEFF30
:1016D000044600254008984201D2022010E0012172
:1016E00049068C4202D30325A40805E0012109061E
:1016F0008C4201D30125044619462046FEF702FD1F
:101700002F43376070606D1C684301462046FEF72A
:10171000F9FCF8BD10B5154B01201870597800225E
:10172000491CC9B259700A2901D35A709870D978E6
:10173000491CC9B2D970642901D3DA70187159797A
:10174000FF24491CC9B2F5345971A14201D35A7121
:10175000987119897D24491C89B2E4001981A1423C
:1017600001D31A8198720249886010BD4A04002092
:101770000000014010B50C211148FEF706FD11488C
:10178000FFF702FF104C2046FEF7D6FF072100228C
:1017900009022046FFF76CF9A1060C4C7D22D2000D
:1017A0002046FFF78FFF206861030843206048153B
:1017B00007490860206889050843206010BD0000C3
:1017C0004A04002002000004020080AE0000014034
:1017D00000E100E010B5024800F054F810BD000030
:1017E0005804002010B5024800F04CF810BD00006D
:1017F0000005002042688A434260704742680A43FD
:101800004260704770B51B4E0D460446716900205A
:1018100089010322890F2063E260A06000291FD0A4
:1018200001291FD0022901D313480068B1690905B5
:10183000090F491CFEF766FC0646002D19D0680802
:1018400080192946FEF75EFC0C49801E88420CD99F
:10185000E80080192946FEF755FC0009801E07E0C4
:101860000748E3E7FFF786F8E0E7032109070843A5
:10187000606270BD0002005058000020FFFF0000B1
:10188000001BB70070B504460068C0690025C0059C
:10189000002817DB1AE00068E28AA168C0B2885409
:1018A000E18A491C8AB2E282E1898A4200D3E58258
:1018B000628B8A4202D2618B491C6183616A002972
:1018C00000D088472068C169C907E4D12068C16990
:1018D000890511D5A18A00290FD0628A6168895CC7
:1018E0000160608A401C80B26082A189884200D376
:1018F0006582A08A401EA08270BD0221FFF77AFF98
:1019000070BD000016491548086008462830486038
:101910004030886040208881C88100200882488249
:10192000C882088348838882C861086248620D4A79
:10193000A8310A600A4628324A60FF3201328A60C2
:10194000FF2201328A81CA8108824882C8820883C4
:1019500048838882C8610862486270470000054079
:10196000580400200000154010B5084C01228021C9
:101970002046FFF7CFFA012210212046FFF7CAFACE
:10198000012220212046FFF7C5FA10BD004000507B
:101990000FB410B503A9044B044A029800F0FAF8FA
:1019A00010BC08BC04B018471939000068000020BA
:1019B00037B514460846064B6A46214600F0EAF859
:1019C00004466946002000F081FC20463EBD000030
:1019D000CD2200002021020C01D010211046020A65
:1019E00001D010460839020901D01046091F8208AB
:1019F00001D01046891E420801D0881E7047081A7F
:101A0000704730B47446641E2578641CAB4200D223
:101A10001D46635D5B00E31830BC184702E008C850
:101A2000121F08C1002AFAD170477047002001E058
:101A300001C1121F002AFBD170470000F0B51FB48E
:101A400084B007980699020D014314D04A484B49C7
:101A50001018484305140F9801280E981CD0281A16
:101A6000401C0024464E47490094019102900028F2
:101A700014DA474227E00F98012443A3012808D035
:101A8000002104980F9A84600360C260416009B02D
:101A9000F0BD0E98C143F4E74042E2E7074612E08A
:101AA000F80707D02246334601990098FEF782FCDA
:101AB000019100902246334610461946FEF77AFC03
:101AC00004460E467F10002FEAD10298019B0028A1
:101AD000009A0799069802DAFEF76CFC01E0FEF71F
:101AE000D1FC04460E460022284BFEF763FD03D8C6
:101AF0000020C043014607E00022254B2046314626
:101B0000FEF7A6FBFEF736FD102409E0002C0ADBE9
:101B10000A220023FEF76BFB059B30321A55641E28
:101B200002460A43F2D11122641C059B121B1C19A8
:101B30000F9B012B03D0012308430ED10AE0084379
:101B400004D011200E9000200F9084E70E98151AF3
:101B50006D1E0BE00E98824202DD00236D1C03E037
:101B6000824201DA00236D1E002BEED004980F99FB
:101B70008260C16030C08AE701FCFFFF104D0000A9
:101B8000000024400000F03F300000000000F0435F
:101B90000000E03FFFB597B00646002518E2252873
:101BA00077D100242746FD49049400E00443761CC5
:101BB00032780120203A90400842F7D130782A2824
:101BC0000ED00222307801463039092916D80499FE
:101BD0000A235943303940181443761C0490F1E726
:101BE000189802C804911890002904DA01204003D3
:101BF00004434842049002200443761C30782E2887
:101C000014D1042004437078761C2A2809D118982E
:101C1000761C80C8189009E00A214F43303FC7194D
:101C2000761C3078014630390929F5D930786C288E
:101C300010D006DC4C281AD068280ED06A2817D19C
:101C400004E0742813D07A2812D110E00120400556
:101C500004430CE00121090501E0032109050C43BF
:101C60007178814203D1012000052418761C761C6E
:101C70003078119066280BD013DC58287DD009DC11
:101C800000287BD04528F6D04628F4D047281AD122
:101C9000A5E118E0632835D0642870D0652812D1FA
:101CA0009DE170286CD008DC6728F1D069287BD0D2
:101CB0006E280DD06F2806D1BAE073282ED0752873
:101CC00071D0782859D01A9A199990476D1C7EE1E5
:101CD0006002400F022809D003280DD0042818986C
:101CE00001680DD00D60001D189070E11898EA177A
:101CF00001680D604A60F6E7189801680D80F2E708
:101D00000D70F0E718986A4601781172001D18905E
:101D10000020507202A80090012005E0189802C827
:101D2000189000200091C04361070DD5002101E00B
:101D30000199491C0191B94212DA8142F8DB009AFB
:101D4000515C0029F4D10BE0002101E00199491C0C
:101D500001918142FADB019A0099895C0029F5D151
:101D6000019904981A9B471A21463846199A00F09F
:101D700097FA0199401945180BE04FE02CE113E068
:101D80004EE0009800990078491C00911A9A199920
:101D900090470198401E0190401CF2D121463846E0
:101DA0001A9B199A10E137E00A2000210090019156
:101DB0006002410F022907D0189A01CA1892C2176F
:101DC0009446032908D00AE01898C01DC108C9002C
:101DD00005C91891944607E000B2C2179446042939
:101DE00002D140B2C1178C4600226146944506DA02
:101DF0000A460021404291418C462D2102E02105F6
:101E000004D52B216A461173012103E0E10701D0BB
:101E10002021F7E7029155E00A200AE0102008E0AF
:101E2000102000900021042004430191082703E0C2
:101E300008200021019100906002410F022907D083
:101E4000189A01CA189200229446032908D008E083
:101E50001898C01DC108C90005C91891944603E02F
:101E600080B2042900D1C0B200210291210729D5F6
:101E70001199702906D0009A1021019B4A401A43FB
:101E800005D00EE040216A461173012108E0614649
:101E9000014306D030216A46117311995173022112
:101EA0000291009A0821019B4A401A430AD16146D7
:101EB000014301D1610705D530216A461173012123
:101EC0007F1E02911199582904D035A10E910DA9B8
:101ED0000D910DE037A1F9E76146019B009AFEF7ED
:101EE00086F90E9B8C469B5C0D9A521E0D921370C8
:101EF00061460143F0D10D9805A9081A20300190E0
:101F0000600703D501200004844300E00127019805
:101F1000874201DD381A00E0002001990090411845
:101F2000029809180498401A0490E00306D4214648
:101F30001A9B199A049800F0B3F94519002706E096
:101F400003A81A9AC05D199990476D1C7F1C0298CE
:101F50008742F5DBE0030CD521461A9B199A0498B9
:101F600000F09EF9451904E01A9A3020199990471B
:101F70006D1C0099481E00900029F5DC08E00D98C2
:101F80000D990078491C0D911A9A199990476D1C6A
:101F90000199481E01900029F1DC63E10928010044
:101FA00030313233343536373839616263646566CF
:101FB0000000000030313233343536373839414291
:101FC000434445460000000000F05AF94519761CCC
:101FD0003078002800D0E2E528461BB0F0BD60074D
:101FE00000D406271898C01DC108C90048680A68AF
:101FF0000831C30FDB071891190001D09CA108E03C
:10200000210501D59BA104E0E10701D09AA100E0E0
:102010009AA1430011985B08109165280CD006DC4A
:10202000452809D046281DD0472841D141E06628DF
:1020300018D067283CD13CE00021112F01DB112092
:1020400000E0781C0191009008A911A8FFF7F6FCA8
:10205000139905910021119A15927F1C12980197EE
:10206000009150E00120C00703900120019008A9D1
:10207000009711A8FFF7E2FC139A14990592002229
:10208000119B009212981593059A0192002901D094
:10209000104602E0791C40180190381A01D50198C9
:1020A00004E04042401E0090781C0190C01B02904A
:1020B00043E0012F00DA01270021112F01DD11205B
:1020C00000E038460191009008A911A8FFF7B6FC7E
:1020D00013990591119A0021129815920091019778
:1020E00021070CD40599B94201DB019900E0019167
:1020F000012904DD159A491E515C302906D0B842E9
:1021000001DA011D05DA0121029115E00199491E4C
:10211000EDE7002805DC0099411800910199091AA2
:1021200003E0019A411C914200DD01910099401A9F
:10213000401C02900120C0070390200706D402999A
:102140000198814202DB0020C043029000206946D2
:10215000C87707AF012103980337C907884224D005
:10216000022011902B201290039800280CDA404294
:1021700003902D20129007E00A210398FDF7C2FF7B
:1021800030317F1E039039701199481E119000293B
:10219000F2DC03980028EFD1791E1298087030788D
:1021A000202108404530BF1E387006A8C01BC01D46
:1021B000039010980078002800D001200199411860
:1021C0000298C0170918039809180498401A401E6D
:1021D0000490E00306D421461A9B199A049800F053
:1021E0005FF8451910980078002803D01A9A1999B9
:1021F00090476D1CE00324D521461A9B199A049838
:1022000000F04EF845191CE00098002807DB009903
:102210000598884203DD1598405C199901E01999E9
:1022200030201A9A904700986D1C401C009002982C
:10223000401E0290002804D11A9A2E201999904726
:102240006D1C0199481E01900029DDDC05E03878FD
:102250001A9A7F1C199990476D1C0399481E039088
:102260000029F4DC21461A9B199A0498ACE6000078
:102270002D0000002B0000002000000000000000E6
:10228000F8B5044600251E461746880404D405E028
:1022900039462020B0476D1C641EF9D52846F8BD8C
:1022A000FFB50446002581B01E46C80301D530277E
:1022B00000E02027880404D505E038460399B0479C
:1022C0006D1C641EF9D5284605B0F0BD0A68531C84
:1022D0000B60107070470000F8B5074600203A7890
:1022E0000146F22A4ED17A78102A4BD8531C05E0C9
:1022F0003C1864786118401CC9B2C0B28342F7D858
:10230000B81C105C88423DD11021EA48FDF73DFF22
:10231000E94804260168BB780A46B2430092E74ABE
:1023200000245278E34D572B75D02CDC092B55D067
:1023300009DC1A461300FFF764FB097E4D84ADC229
:102340003E11FD807E00532B76D00BDC352B19D04F
:10235000502B72D0512B71D0522B13D10022114629
:1023600006200DE1542B6AD0552B69D0562B09D18C
:10237000D249642A06D80A32D0B24870642801D300
:1023800064204870F8BD602BFCD00BDC1E46CB49A6
:10239000583E09783300FFF734FB07EFEEEDECEB26
:1023A000EAE94E00722BEDD009DC612BEAD0702BEC
:1023B00010D0712BE6D1002211460520E0E0732BEE
:1023C0007DD07E2BDED0B92BDCD1CA0778D049086E
:1023D000490092E0002211460120D1E0F87801285E
:1023E00004D0022805D0032806D007E0FFF746F8FE
:1023F00004E0FFF73DF801E0FFF74EF8F820287001
:1024000002246C70B8780126A870FFF72BF800281A
:1024100002D0EE7001E0FAE0EC700424002006E047
:102420002A18295D52788918401C2955C0B269784C
:10243000491C8142F4D836E159E09EE026E0A2E052
:10244000DEE00446C80721D000F07EFF2068B043DC
:102450002060000796D500F0FDFEF82028700920C6
:1024600068700220A870E81C082100F005FD0B240C
:10247000002106E06A18285D52788018491C28550A
:10248000C9B26878401C8842F4D82AE0002211467C
:10249000022075E00446C80729D000F055FF2068E7
:1024A000B04320600007D5D500F0C2FEF8202870A8
:1024B000092068700320A870E81C082101E04DE0A5
:1024C00019E000F0D9FC0B24002106E06A18285D11
:1024D00052788018491C2855C9B26878401C884237
:1024E000F4D8641C2146734800F030F9DBE0002288
:1024F0001146032044E0012211430160F8212970B4
:102500000B216970B921A97000780524C107C90F92
:10251000E9700007C00F2871681D082100F0ACFCAD
:1025200000212A192023505C002801D0FF2800D167
:10253000535400E016E0491CC9B20829F3D3002027
:10254000083406E02A18295D52788918401C29555C
:10255000C0B26978491C8142F4D8C2E70022114612
:1025600004200DE000221146072009E07DE073E021
:102570006FE062E05AE056E04FE00022114608208A
:1025800001F004F8F8BD04460A070820002A06DB1B
:10259000014331430020216000F0A2FE05E08143A9
:1025A000B1430143216000F0E3FEF82028700A21C6
:1025B00069700120A870207804240007C00FE8701B
:1025C000281D082100F058FC00212A192023505C06
:1025D000002801D0FF2800D15354491CC9B2082952
:1025E000F5D30020083406E02A18295D52788918AE
:1025F000401C2955C0B26978491C8142F4D870E763
:102600000099016000F0A0FE00F012FEF8BD314319
:102610000160002000F064FEF8BD28480A2AFBD3C0
:102620000A3A4270F8BD00F0ADFBF8BD00990160B8
:1026300000F08AFE00F00EFEF8BD204A642906D89C
:102640000A31C8B21070642801D364201070107869
:1026500008E000F0B1FBF8BD18480A2901D30A3997
:1026600001700078FEF79EFDF8BDFEF715FFF8201B
:10267000287002246C7009200126A870FEF7F2FE73
:10268000002801D0EE7000E0EC700424002006E089
:102690002A18295D52788918401C2955C0B26978DA
:1026A000491C8142F4D8002CDED0611C014800F0A6
:1026B0004DF8F8BD050100202C000020220000206C
:1026C00010B508490020087010210748FDF75DFD8E
:1026D000054810211030FDF758FDFEF7A9FDFEF763
:1026E00049FE10BD2A000020F500002010B5154C51
:1026F000207800281AD001F0CFFA102811D0202815
:1027000006D040280DD010210F48FEF744FE10BD22
:10271000FEF77EFDFEF786FD00202070FEF72AFE04
:1027200010BDFEF775FDFEF77DFD10BD06481021BA
:10273000103801F095FA0028F7D003481038FFF759
:10274000CBFD10BD2A0000200501002070B50C460D
:102750000546FEF73DFE064B012119701021054884
:10276000FDF713FD224629460248FDF7F5FC70BD32
:102770002A0000200501002070B500260F4B8C2494
:102780001E7013E002781D786A401A705E70401C5B
:102790001A78D50702D05208624000E052081A7039
:1027A0005A78521CD2B25A70082AF1D30A46491EEE
:1027B000C9B2002AE6D1187870BD000008000020D8
:1027C000F0B5134D00242C701BE004782E78521CB9
:1027D000744092B2401C2C709A4201D30022C01A5D
:1027E00000246C708C262C78E70702D064087440B3
:1027F00000E064082C706C78641CE4B26C70082CE7
:10280000F1D30C46491E89B2002CDED12878F0BDE8
:1028100008000020F0B587B000260446032000968B
:10282000019602960002039625186B88FB49D81C76
:10283000C005C00D0F78FA4A205C791E1268412845
:102840007ED020DC35287CD00FDC122859D03128EE
:1028500078D0332877D034282DD1F8206B461870E3
:102860005F7034209870032011E236286CD037282E
:102870006BD038281FD1F8206A4610705770382066
:1028800090700320FEE0E64904270968B9436428F4
:1028900078D012DC542876D0572875D0622874D0AE
:1028A000632808D11B1DD805C00DDE49225C0A70C3
:1028B000205CFEF777FC07B0F0BD65287ED0662867
:1028C0007DD0F028F7D1002069460490087C1107DC
:1028D000C90FC90108435107C90F89010843694657
:1028E0000874FEF7BFFD002800D001206946497C2E
:1028F000022208436946487404A9F02000F046FE0D
:10290000D9E70C33D805C00D275C742005902B2F18
:10291000D1DCC54801680822114301605921162203
:102920008823C24801600260036000680028F8D074
:10293000FEF78CFA002F13D1B8480A21417005E048
:1029400076E1FFE0B1E0D3E020E143E10026700250
:1029500000F048FDB148761C4078F6B28642F6D3C6
:102960006888AE490D30C005C00D205C0026000708
:10297000000F48800D2148430A30C0B204908008FF
:1029800006902DE0DBE192E1C3E1C7E1059839460D
:102990004143B00009188C466988021D8A18D20587
:1029A000D20DA35C421D8A18D205D20DA25C120280
:1029B0001A43831DCB18DB05DB0D01E0C6E1D1E135
:1029C000C01D0818C005C00DE35C205C1B04010697
:1029D00013431943604600F056FD761C0698F6B284
:1029E000B042D3D80498800731D0049905988A085A
:1029F000784392008018049B002184469E07084675
:102A0000B60F1FE0002804D0012809D0022817D1F2
:102A10000EE06B88111D5918C905C90D615C0FE0E6
:102A20006B889B185B1DDB05DB0DE35C1B0206E07E
:102A30006B889B189B1DDB05DB0DE35C1B041943B6
:102A4000401CC0B28642DDD8604600F01CFDFEF797
:102A5000D3F9764900200860734801680822914341
:102A600001606E4801224770411C122046E76B88C6
:102A7000371DDB19DB05DB0DE35C1354401C761CB2
:102A8000C0B2F6B28E42F2DB002106E05418135CAD
:102A900064781B19491C1354C9B253785B1C8B42D0
:102AA000F4D8401CC1B2104630E1F8206A461070DC
:102AB00057703120907003200AE06B88371DDB19B6
:102AC000DB05DB0DE35C1354401C761CC0B2F6B290
:102AD0008E42F2DB002106E05418135C64781B1967
:102AE000491C1354C9B253785B1C8B42F4D8D8E705
:102AF000F8206B4618705F703320987003200BE04D
:102B00006B88371DDB19DB05DB0DE75C6B461F545B
:102B1000401C761CC0B2F6B28E42F1DB002106E00A
:102B20005D181C5C6D786419491C1C54C9B25C7832
:102B3000641C8C42F4D8401CC1B2D00700D0BAE665
:102B40001846E3E0F8206B4618705F7035209870E7
:102B500003200BE06B88371DDB19DB05DB0DE75C21
:102B60006B461F54401C761CC0B2F6B28E42F1DB9D
:102B7000002106E05D181C5C6D786419491C1C542A
:102B8000C9B25C78641C8C42F4D8D4E7F8206B4658
:102B900018705F703620987003200BE06B88371D2B
:102BA000DB19DB05DB0DE75C6B461F54401C761C14
:102BB000C0B2F6B28E42F1DB002106E05D181C5C6B
:102BC0006D786419491C1C54C9B25C78641C8C4231
:102BD000F4D8B0E7F8206B4618705F703720987013
:102BE00003200BE06B88371DDB19DB05DB0DE75C91
:102BF0006B461F54401C761CC0B2F6B28E42F1DB0D
:102C0000002106E05D181C5C6D786419491C1C5499
:102C1000C9B25C78641C8C42F4D88CE73000002088
:102C20002C0000202200002000C0005000010050B5
:102C3000F8206A46107057704120907003200AE017
:102C40006B88371DDB19DB05DB0DE35C1354401C7F
:102C5000761CC0B2F6B28E42F2DB002106E05418B8
:102C6000135C64781B19491C1354C9B253785B1C5C
:102C70008B42F4D815E76B88371DDB19DB05DB0DBC
:102C8000E75C6B461F54401C761CC0B2F6B28E4205
:102C9000F1DB002106E05D181C5C6D786419491CAD
:102CA0001C54C9B25C78641C8C42F4D843E7334CA2
:102CB000100706D4082002433A43226000F044FB88
:102CC00005E008208243BA43226000F051FBF8215E
:102CD0006D4629700A2201216A70A970217801A825
:102CE0000907C90FE970082100F0C6F80C2106E0B9
:102CF000AA19685C52788018761C6854F6B2684647
:102D00004078401CB042F3D86846491CFFF71EFDCE
:102D1000D1E51A483A430260002020E017480160DC
:102D2000981DC005C00D225C581DC005C00D215C5A
:102D30001B1DD805C00D205C00F0A0FABBE51B1DD3
:102D4000D805C00D215C0E484170B4E50B48016008
:102D500000F0FAFA6888001DC005C00D205C00F084
:102D6000BFFAA8E51B1DD805C00D205C0109CFD115
:102D70000007000FFEF788FB9DE500002C000020F7
:102D80002200002010B50A494878401CC0B24870A3
:102D90000A2801D300204870C0B24100054B4018FA
:102DA000C1188A784978185C00F068FA10BD0000F4
:102DB0000C0000202D3D000010B50949487800287E
:102DC00001D0401E00E009204870C0B24100054B10
:102DD0004018C1188A784978185C00F04FFA10BD85
:102DE0000C0000202D3D0000F8B500201F4D74267A
:102DF0002C2759221623287088211D480260036061
:102E0000016000680028F8D0FEF720F800240CE0EC
:102E100020467043686000F02FFBA860401C06D07D
:102E20002878401C641C2870E4B2BC42F0D3FDF743
:102E3000E3FF0F4800210160092068700B48103043
:102E4000016081801038C17072210A48FDF79DF938
:102E5000064808211630FDF798F90448502116302D
:102E600001703221417000F083FAF8BD0C0000209F
:102E7000000100508300002010B5082903D80A463D
:102E80000149FDF769F910BD83000020F0B5E54860
:102E900085B00078000705D5E3494879002803D0BC
:102EA000401E487105B0F0BDE04AD379D01C0290B5
:102EB000002B04D1437A047A18022043F2D0DB4A73
:102EC000DA4857789678D578947A537A0078127AD7
:102ED0001B0200071343000F009303280AD00428A5
:102EE0007ED00528DED1D048401CFDF76DF90028C2
:102EF00077D040E1CC48401CFDF766F9CA49401C38
:102F0000491CFDF76BF90190C848C84900794B7816
:102F1000C11A4A421B028742019802930AD2002931
:102F200000DA1146484300020099FDF7EBF80299D8
:102F3000411809E0002900DA1146484300020099CF
:102F4000FDF7E0F80299091AB74F20464843103FB1
:102F50006421FDF7D7F8F860B889394680B2163198
:102F600048800390B148B149334640798E78811B3F
:102F70004A4236028342019809D2002900DA1146FA
:102F8000484300020099FDF7BDF8811908E00029C7
:102F900000DA1146484300020099FDF7B3F8311AF0
:102FA000204648436421FDF7ADF8F860B8899E4992
:102FB00080B2891D888002909C499C48CB7880799A
:102FC0001E02C11A4A42854201980BD2002900DA3A
:102FD0001146484300020099FDF794F881190AE070
:102FE00032E0A3E0002900DA1146484300020099CC
:102FF000FDF788F8311A204648436421FDF782F82E
:10300000F860B88982B28848801DC280029903980E
:10301000FEF7A4F8844D681CFDF7D6F8834C617A5E
:10302000227A09021143884208D3691C0020FDF767
:10303000D5F8E079002805D0401EE071E07900283D
:1030400000D02FE720786AE077480078002876489B
:103050004DD0401CFDF7B8F8002804D07249401E3E
:10306000491CFDF7BBF87048401CFDF7ADF8019016
:1030700078430102081A0099FDF744F801462046FA
:1030800048436421FDF73EF8674F80B2BF1D0290B0
:103090007880019870430102081A0099FDF732F810
:1030A00060436421FDF72EF886B2BE800198684324
:1030B0000102081A0099FDF725F860436421FDF725
:1030C00021F839461639C86082B2FA803146029832
:1030D000FEF744F8781FFDF777F854494A7A0B7ADF
:1030E00011021943884208D2002806D011E0401C82
:1030F000FDF76AF84C49401CB2E74B4801780029BB
:1031000011D0002101704949C879002805D0401E1E
:10311000C8714648C079002893D144480078000916
:1031200000F03AF9BEE601210170F2E76743380288
:10313000C01B6421FCF7E6FF87B23B486643801D55
:1031400047803002801B6421FCF7DCFF86B23648E2
:103150006543801D86802802401B6421FCF7D2FF56
:10316000314982B21039C86008461630C2803146F3
:103170003846FDF7F3FF2D4D2B4E687A297A04026D
:10318000103E0C4330461130F460FDF71DF8A042AC
:1031900024D12879AC7A60430102081A6421FCF733
:1031A000B1FF80B237461637019078806879604366
:1031B0000102081A6421FCF7A5FF80B20090B880D4
:1031C000A87960430102081A6421FCF79BFF82B2D0
:1031D000F060FA8000990198FDF7C0FF124C601C66
:1031E000FCF7F2FF611C401CFCF7F8FF0246697A0D
:1031F000287A090201430298437A077A1802384371
:103200000918F1608A4208D3611C0020FCF7E6FF30
:10321000E879002804D0401EE871E879002881D1BF
:1032200028787CE72C0000201C0000206C00002087
:1032300010B507490878CA1E401CC0B20870127841
:10324000904201D300200870C0B200F049F810BDD0
:103250000F00002010B508490878002801D0401E52
:1032600004E00548C01E00780028F8D10870C0B2FC
:1032700000F036F810BD00000F00002010B5074C1C
:103280000023E371E3722373054B000258800902A7
:1032900099801202DA80FDF761FF10BD6C000020FA
:1032A0002200002010B50D494A7A13071B0F421C5B
:1032B000934204D108460D2217380A3105E00D2249
:1032C00050434118054817311738FCF745FF0349AB
:1032D0000A22881AFCF740FF10BD0000830000207E
:1032E00070B5174D002604462E70691C3046FCF759
:1032F00075FF28466E7110380078002807D02946DF
:103300000D39401E844208DD0870C4B206E0002278
:1033100011461046FDF722FF70BD0C70214609488A
:1033200000F068F807490D220A3108462138FCF7F9
:1033300013FF04490A22881AFCF70EFF70BD000033
:103340001C0000208300002010B5074909204870A8
:10335000064808220168114301600348C01C007838
:10336000FFF7BEFF10BD00000C0000202C00002065
:1033700010B5074808220168914301600020054903
:103380000246C871C87208730146FDF7E7FE10BD1A
:103390002C0000206C00002070B50F4C0025064664
:1033A0002570611C2846FCF719FF322060710B481C
:1033B000007841070A480DD58178491CC9B281704F
:1033C000042903D83046FFF76DFF70BD8570FFF705
:1033D0002FFF70BD8570F5E71C0000202C00002039
:1033E0000C0000201B2110B58902401800F022FAC1
:1033F00010BD0000F8B574240F4606462C2900D3F2
:1034000000275921162288231A48016002600360B0
:1034100000680028F8D0FDF719FD00256743A800D3
:1034200000900024381800F027F80346009882190D
:10343000E1001846C8401055641CE4B2042CF7D3D0
:103440006D1CADB21C2DEAD33846703000F014F874
:1034500002460020C3001146D94033186033401C97
:1034600080B219740228F5D3FDF7C6FC014800218B
:103470000160F8BD000100501B2110B58902401801
:1034800000F0DCF910BD1B2210B59202801800F08C
:10349000D9F910BD10B5C12189000248FCF775FEAD
:1034A00010BD000016010020F8B500206946087024
:1034B0002A4F032000023C186946012000F0C6F99B
:1034C00000284AD068462188007878542088012353
:1034D000401C80B25B022080984201D300202080F3
:1034E000628880B2801AC005C00D0528E4D9B95C95
:1034F000552905D1511CC905C90D795CAA2906D0E9
:10350000521C62806088C005C00D6080D4E7911CA9
:10351000C905C90D7D5C2E1DB042F3D3D019E91C3D
:10352000FFF74EF96188ED1C4A19D205D20DBA5C3D
:10353000904209D0491C6180FF2109A302229331E6
:103540001148FDF737FDDDE70448FFF763F96088B0
:103550008019C005C00D6080D4E7F8BD16010020B9
:103560005B4552524F525D20202072656D6F74652D
:1035700020636F6E74726F6C20636865636B206587
:1035800072726F72210D0A004B3D0000F7B50446C0
:1035900082B0FF211A481646002501310090FCF741
:1035A000F4FD0098552101701548AA21401C0170B6
:1035B0001349701C891C0870481C0470114F0424A6
:1035C0000AE00398415D3819FF30FF300230641C77
:1035D0006D1C0170E4B2EDB2B542F2D3361DF1B20A
:1035E0000098FFF7C9F83919FF31FF31023108702F
:1035F000641CE2B20120009900F04EF905B0F0BD64
:1036000016030020160100207047000070B5044624
:103610002A4900012A4D401868600068804762000E
:103620000521A3180026287000286868027930D088
:10363000052A01D2017170BD0A2A02D2521C027100
:1036400070BD6200817AA418641C002904D1012194
:103650008172E0B200F0E0F8686801890029EFD0DB
:10366000C2888A4207D2521C92B2C2808A42E7D1F3
:10367000DB1CD8B20AE0C17A0029E1D0027B521CDF
:10368000D2B202738A42DBD30673E0B200F0C4F810
:1036900070BD052A01D901710CE0002A02D0521E2A
:1036A000027107E0817A012904D186729B1CD8B28D
:1036B00000F0B2F86868C680067370BD1C04002074
:1036C00034000020074A917AD07A814201D100204B
:1036D0007047505C491CC9B291720A29F8D3002185
:1036E000917270473C04002010B500F047F8FDF7D8
:1036F0000BFAFEF739F9FDF7A7FE00F005F8FDF724
:10370000B1FCFEF737F810BD10B500F015F8084C05
:10371000032202212046FDF7FDFB0322042120465F
:10372000FDF7F8FB034801214162816210BD0000F2
:10373000C04000504042005030B50D480022827217
:103740000346C2726424203B02731146022508011D
:10375000C018048105718272491CC272C9B2027319
:103760000229F4D3034818600348186130BD0000F3
:103770003C040020650F0000790F000070B5FEF7D3
:10378000C1F81A4D2846FCF7D7FF01246406002231
:1037900021462846FDF76CF9164A154850609002FC
:1037A000FDF7F2FEE12149021348FEF72BF86D1CEC
:1037B0002846FCF7C1FF002221462846FDF758F9AC
:1037C00030200521090788632012FDF7DDFE0B4C30
:1037D0004B2109022046FEF715F8616813221143B8
:1037E0006160012006494003086070BD103D80A75C
:1037F0000303000040000050000005400000154099
:1038000000E100E010B500242046FFF7FFFE641C35
:10381000E4B2022CF8D310BD0549CA7A8854C87A9C
:10382000401CC0B2C8720A2801D30020C872704779
:103830003C04002010B5FDF7E7FA10BD10B5FDF708
:103840000DFB10BD10B5FDF757FB10BD10B5FDF712
:103850004DF900281FD00246012080F31088538BB9
:10386000002080F31088002B15D0148B93681B5D0B
:103870000B70012181F31088118B491C89B21183CF
:10388000D389994200D31083508B401E508300206F
:1038900080F31088012010BDF8B515460E46FDF7DF
:1038A00025F9040030D0E069002800D080470020CE
:1038B00024E0A289012181F31088A18A6B46198036
:1038C000002181F3108819888A42F3D9315C238A58
:1038D0006268D154012181F31088218A491C89B280
:1038E0002182A289914201D300212182A18A491C0F
:1038F000A182002181F31088401C80B2A842D8D355
:1039000002212068FDF77AFFF8BD002101E0491C83
:10391000C9B28142FBD3704700B50346FDF742FEB2
:10392000184600BD1FB50024FDF70CFE73A0FDF77F
:103930002DFB0520FDF738FBFFF7D6FE714872A37B
:1039400000680090052252217348FDF733FB73A3F2
:10395000052254217048FDF72DFBFEF7B1FEFFF75D
:1039600053FEFFF797FDFFF73FFA6E46002500F084
:1039700073F9007800281AD000F06EF905707248CB
:10398000641C4078E4B2322805D303213238FCF7B6
:10399000CFFB0A3006E03221081A0621FCF7C8FBEB
:1039A0000A21081AA04202DA0024FFF76FFA00F099
:1039B00053F98078002808D000F04EF98570FFF7A1
:1039C00021FFFFF771FDFEF791FE00F045F9007948
:1039D000002802D000F040F9057100F03DF980792F
:1039E000002802D000F038F9857100F035F9807AAE
:1039F000002806D000F030F9857254484168491C0F
:103A00004160FFF75FFE0028B1D00300FDF7F9FF2A
:103A100007050A061B541F5B0500A8E705224CA3F7
:103A2000A5214CE0FDF71EFD002801D04BA000E0D1
:103A30004BA000904BA30522A9213748FDF7BAFA05
:103A4000FDF72AFD93E7052249A3AE2137E04CA3F9
:103A50000522B1213048FDF7ADFA3C480078002836
:103A600027D14A48009501950295039500780007F3
:103A70001FD50027FFF7DCFBF8216A4611700921EA
:103A8000517003219170F01C0821FFF7F5F90B210B
:103A900006E0F219705C527880187F1C7054FFB2F7
:103AA00068464078401CB842F3D86846491CFEF787
:103AB0004DFE264805705AE7052235A3CA2116484F
:103AC000FDF778FA53E736A30522CE211248FDF719
:103AD00071FA1E49012008702C490868020705D5B3
:103AE000082290430860FFF743FC40E70822104398
:103AF000042290430860FFF727FC38E76C616D7083
:103B00000000000060000020204350552040202588
:103B100064487A0D0A000000283D00002B2D2D2D51
:103B20002D2D2D2D2D2D2D2D2D2D2D2D2D2D2D2DC5
:103B30002D2D2D2D2D2D2D2D2D2D2D2D2D2D2D2DB5
:103B40002D2D2B200000000022000020000000206E
:103B5000414343204B455920757000006F6E0000B3
:103B60006F66660072656C61792025730000000045
:103B7000414343204B455920646F776E000000009D
:103B80004C4544204B455920757000002C00002006
:103B90004C4544204B455920646F776E000000006F
:103BA0004C4544204B4559206C6F6E670000000067
:103BB00010B50446016810A0FDF7EAFE11A0616887
:103BC000FDF7E6FE12A0A168FDF7E2FE13A0E16892
:103BD000FDF7DEFE14A02169FDF7DAFE15A061698C
:103BE000FDF7D6FE16A0A169FDF7D2FE17A0E16988
:103BF000FDF7CEFE10BD0000723020203D20307851
:103C000025780A00723120203D20307825780A007E
:103C1000723220203D20307825780A00723320202F
:103C20003D20307825780A00723132203D203078EE
:103C300025780A006C7220203D20307825780A0013
:103C4000706320203D20307825780A007073722040
:103C50003D20307825780A00004870474A0400204B
:103C600070B50C46054600F017F8400612D5002145
:103C7000FC20FDF7D1FB224629466120FDF75CFBC5
:103C8000FDF7C6FAFDF7CEFA0021FD20FDF7C4FBD3
:103C9000012070BD002070BD10B5072000F004F8B1
:103CA0007021084010BD000070B50C4C0021054685
:103CB00021610120FFF729FE2846FDF7F5FB00F002
:103CC00011F80546012220210548FDF723F90120BE
:103CD000FFF71BFE01212161284670BD0042005004
:103CE00000400050F8B500240E4E25460127002064
:103CF000F0610120FFF709FE6006040EF761012064
:103D0000FFF703FE7069002800D03C436D1CEDB244
:103D1000082DECD30020F0610120FFF7F6FD2046CE
:103D2000F8BD0000004200506D61696E00FFFFFFAA
:103D300000FF000000FFFF000000FFFFFF00FFFF8B
:103D4000FF0000FF800080FFFF80006170705F75E2
:103D50006172745F70726F00454550524F4D5F49FC
:103D60006E69744861726400CCCCCCCCCC0000008D
:103D7000696E660064626700656D670077726E0049
:103D80006572720063727400A83D0000000000209C
:103D90006C0000001C1A0000143E00006C000020A3
:103DA000CC0900002C1A00000000000000000000F8
:103DB0000000000000000000000000000000000003
:103DC00000000000000000000000000000000000F3
:103DD00000000000000000000000000000000000E3
:103DE0000000000000000000783D0000843D00005D
:103DF000803D00007C3D0000703D0000743D0000EF
:103E0000008051010080510100000000000000000E
:043E100000000000AE
:04000005000000F106
:00000001FF
