:020000040000FA
:1000000080030020F1000000F5000000D500000092
:1000100000000000000000000000000000000000E0
:10002000000000000000000000000000F9000000D7
:100030000000000000000000FB000000FD000000C8
:10004000FF000000FF000000FF000000FF000000B4
:10005000FF000000FF000000FF000000FF000000A4
:10006000150F0000FF000000FF000000FF0000006F
:10007000FF000000D50F0000FF000000FF0000009F
:10008000FF000000FF000000FF000000FF00000074
:10009000FF000000FF000000FF000000FF00000064
:1000A000FF000000FF000000FF000000FF00000054
:1000B000FF000000FF000000FF000000FF00000044
:1000C0000348854600F050FA00480047311C000004
:1000D0008003002004207146084202D0EFF309801B
:1000E00001E0EFF308807146004A1047A10A0000C2
:1000F00003480047FEE7FEE7FEE7FEE7FEE7FEE710
:10010000C100000030B50B4601460020202201242A
:1001100009E00D46D5409D4205D31D469540491B3B
:100120002546954040191546521E002DF1DC30BD84
:10013000D2B201E00270401C491EFBD2704700227F
:10014000F6E710B513460A4604461946FFF7F0FFD6
:10015000204610BD10B5044605E00B780370401C26
:10016000002B00D0491C521EF7D2204610BD421C65
:100170000178401C0029FBD1801A7047F0B51FB4EC
:100180000646002082B005464024019100901BE005
:10019000019922460F46304600F008FA049A059B62
:1001A000801A994110D310461946224600F0EEF904
:1001B000361A8F410197224601200021009F00F04E
:1001C000E5F938184D4100902046641E0028DFDC18
:1001D000019B00982946324607B0F0BDF0B50746AE
:1001E0000846584087B0C00F049048000E4659009A
:1001F00040084908BC1A884105D2384631461E4697
:1002000017460B4602465800400810434CD0300DAC
:10021000039040055900400D490D0590401A029089
:10022000402872DA18030121000B090508430190E8
:1002300004980092002805D001995242002088417C
:1002400000920190029840210A1A0199009800F04A
:100250009DF905460C466B4607CB00F0B8F9C0196E
:100260007141039A0E0D0023D71756401A467A4063
:10027000164344D0049A002A2DD0029A012A039AE8
:1002800015DC1205C01A914101263605001C71418A
:10029000D20F059ED2070093019202962A4623466A
:1002A00000F0B5F907B0F0BD38463146FAE716055B
:1002B000224A0F46B218C01AB74101210905001C95
:1002C0004F4100187F41114618187941E20F104341
:1002D0006D19644113E0E2076D0815436408C20715
:1002E0001443039A01261205C01A91413605001CD9
:1002F0007141CE07400830434908C01851412A4691
:10030000234600F077F9CDE7FFE70498012240008B
:10031000C117121A00238B4104983146C417381AAA
:10032000A141EEE730B40124E407634030BC55E757
:1003300030B40124E407614030BC4FE70000E0FF27
:10034000F0B51FB488B00B9909980024484009996A
:10035000C00F490049080991C0070B990090490056
:1003600049080B9109990898A64608431CD00B9997
:100370000A98084318D0099801244000420D48000B
:10038000410D099824050003000B204309900B98A8
:100390000003000B20430B9050181C49401800220A
:1003A00001901446104605E0002001460DB0F0BD56
:1003B000032801DA034600E003239C46C11A0AAE73
:1003C0000AE05F0008ADED5B4F00F75B7D4300275F
:1003D000AA187C41491C5B1E6145F2DD410004AB5B
:1003E0005A522104120C0A43240C401C0828DFDB5B
:1003F000019802900099704601910090059B049A23
:100400000799069800F003F9D0E700000DFCFFFF04
:10041000F0B50C465C4085B0E40FE40703944C0053
:100420000026640859009446490802460296224371
:1004300021D062460A431ED06200570D4A000E03C7
:100440002303550D012402462C492405781B1B0B60
:10045000360B401823432643614600901C46501A31
:10046000B44103D30098401C009002E09218009819
:100470005B41002803DA0020014605B0F0BD0020F2
:10048000012109050746864611E064461D46141BF6
:10049000B54106D36546521BB341744607430C432E
:1004A000A646CD0740084908284392185B410546F7
:1004B0000D43EAD11046184313D060461946504008
:1004C0007140084306D06046101AB34106D201229B
:1004D000002306E000220123DB0702E00122D243D1
:1004E0005310009874460105381C6141029C039D1D
:1004F0000019694100F07EF8BFE70000FD0300002D
:100500004A0009030123090B1B0519430A4B10B5C7
:10051000520D9A4202DA0020014610BD064B3433D8
:100520009A4203DC9A1A00F041F810BD034BD2182E
:1005300000F02CF810BD0000FF030000CDFBFFFF12
:1005400010B5002904DB0124E40740428C41214618
:10055000002B04DB1C460123DB075242A3419942D6
:1005600000D1904210BD0000064C0125064E05E06A
:10057000E36807CC2B430C3C98471034B442F7D3C4
:10058000FFF7A2FD881F0000A81F000010B5202A59
:1005900004DB0146203A9140002010BD9140202309
:1005A0009C1A0346E3401943904010BD10B5202A21
:1005B00004DB0846203AD040002110BD0B46D34052
:1005C000D0402024A21A91400843194610BD10B50E
:1005D000202A06DBCB170846203A1041C1170B43EF
:1005E00006E00B461341D0402024A21A9140084354
:1005F000194610BD10B5002B08DA0024401C6141DB
:1006000092185B411A4301D14008400010BDF0B57B
:100610001FB482B005460C0003D0084600F0A4FDCC
:1006200002E000F0A1FD203002460090214628465D
:10063000FFF7ACFF049B059A04460F46184311438D
:10064000084314D0184610431BD0009840210A1AC2
:1006500018460599FFF7AAFF05460E46009A059928
:100660000498FFF793FF084305D0012004E02046DB
:10067000394607B0F0BD0020C11705430E432C4397
:10068000374300990E986305401A7905E40A002261
:100690000C43FD0A0A3002D500200146E9E70105B6
:1006A000101969410C9C0D9D00196941FFF7A2FFCB
:1006B000DFE700000248016AC2011143016270478E
:1006C00000020050C10F8A00044951184A68C3064D
:1006D000DB0E0120984002434A6070470002005040
:1006E000F3B585B00C46FFF7E5FF05980028714883
:1006F000016813D0042211430160102000F0A6F914
:100700000120C00403906C480190042002906B48C3
:100710006B49201888420ED800271CE08908890000
:10072000491C0160012000F091F900200390654808
:1007300001900220EAE76448634920184942884250
:1007400002D80127640006E0604821184042814237
:100750007BD20327A4000025ED43029E22E0314610
:100760000198FFF7CFFC5A49844641185948814205
:1007700017D2534B02215B1C504862464A43401C2F
:100780001018984209D8A24201D9101B00E0A01A03
:10079000A84202D2050000910BD04F48491C81426B
:1007A000EAD9761C212EDAD900260495F643029D5B
:1007B00051E00398B9030143012072028002101A2C
:1007C00001430098801E01433A480162042000F072
:1007D0003DF9791C714331E029460198FFF792FCFD
:1007E0003B49844641183B48814233D2344B022175
:1007F0005B1C324862464A43401C1018984225D878
:10080000A24201D9101B00E0A01AB0421ED2049AE5
:1008100006460091904219D10399B803084301217B
:100820006A028902511A08430099891E0843214926
:100830000862042000F00AF9791C69430198FFF767
:1008400061FC0099484307B0F0BD06E02248491C0E
:100850008142CED96D1C212DBED9059800280FD01C
:100860001E4914480162042000F0F0F81CA0006842
:1008700000901048016A0013014203D00020E2E713
:100880001849EEE7080301D50B4800E00D488A033C
:10089000D9D40A04920F6B469B5CCA058904D20D19
:1008A000C90E891C8008921C59435043FFF72AFC4B
:1008B0008000C8E70002005000805101FF1E0AFAC4
:1008C000FFE0F505001BB700800F05FDC08782FE25
:1008D000FF95E7FFBF77CC00010200001844080035
:1008E0000102020416400000044982070A6801D090
:1008F0009208920002430A60704700000002005014
:1009000008B511A0006800901048016A0013014268
:1009100001D0002008BD080301D50D4800E00D48B6
:100920008A03F7D40A04920F6B469B5CCA058904BC
:10093000D20DC90E891C8008921C59435043FFF701
:10094000E1FB800008BD000001020204000200502B
:1009500000805101001BB700F8B51D4D0446EE683C
:10096000102006401B48844202D84010844200D226
:1009700004462868042738432860102000F066F8F1
:100980002869072108432861A86900090001A861B6
:1009900028688007800F01280ED061007804FFF7D7
:1009A0009FFEEE680446102006400121022000F060
:1009B00013F8002E06D008E061000020FFF790FE3B
:1009C0000446F2E72868B84328606008F8BD0000D4
:1009D0000002005080F0FA0210B5074A93691B0923
:1009E0001B010B4393611169C908C90001431161DF
:1009F00000F0E8F910BD00000002005070B5430E91
:100A00001B070DD043009B0F0F4C9B001B191C684C
:100A1000C5002D0FC601F60EB540AC430C431C605B
:100A2000830A1906090E0DD00103074C890F8900AE
:100A3000083409190C688005DBB2C00E83409C4362
:100A400014430C6070BD00001002005010B5044645
:100A50000749084B05E00A46491E002A01DC002030
:100A600010BDDA6820469043F5D1012010BD00008A
:100A700080F5200000020050F0B5002301273C461D
:100A80009C400C4208D005685C000326A640B54394
:100A90001646A640354305605B1C082BEFD3F0BD1E
:100AA000044603A000F03EFB204601F005FAFEE7F5
:100AB000496E2048617264204661756C74204861FB
:100AC0006E646C65720A000003490020496A0029BF
:100AD00000D101207047000040420050034900202F
:100AE000896A002900D1012070470000404200506F
:100AF00010B5014607220448FFF72CFB02480021ED
:100B0000C171816010BD000074000020014988603F
:100B100070470000740000200FB4F8B5204D164651
:100B200028460F4600240C38FFF721FB002833D05D
:100B300028460C388068B0422EDB002E2CDB194989
:100B4000B00009583B4618A0069A00F0EBFAFF21C6
:100B500001312846FFF7F3FA0AAA2846099900F05E
:100B6000F1FA4019401B2946FF2803DD0846FFF72C
:100B7000FEFA01242846FFF7FAFAFF2800D10124E3
:100B800029460DA000F0CEFA002C02D00BA000F0F8
:100B9000C9FA0CA000F0C6FAF8BC08BC04B01847AB
:100BA000800000200C0000205B25735D2025732849
:100BB0002564293A2000000025730000202E2E2EE7
:100BC000000000000D0A000070B53A4800F0DCF8A3
:100BD000394C2046FFF776FD384D2846FFF772FD69
:100BE0000121002249072046FFF708FF00222021AB
:100BF0002846FFF703FFA006416B07229206114328
:100C000041632F4C0920A0609020A0600003A060E9
:100C10002068000A0002C01C20606068C008C00094
:100C2000001D60602068000A0002C01C206060682F
:100C300070218843403060602068FF2109048843A8
:100C40000321090440182060606891128843012143
:100C5000890440186060A16850010143A160A16847
:100C60000143A160A1680143A1600121204600F079
:100C70002FF80221204600F02BF81021204600F02A
:100C800027F80121204600F02BF80221204600F031
:100C900027F81021204600F023F87D20C000606274
:100CA0000848E0600849A162206108496163E06189
:100CB00070BD0000140000041400C0A7160040E638
:100CC00000000440FFFF0000204E000050C3000061
:100CD0000248C2690A43C2617047000040000440F4
:100CE00030B5002210460124234683400B4203D036
:100CF00085002346AB401A43401C0628F4D3024922
:100D000088681043886030BD0000044010B501229F
:100D100011460348FFF7B0FE02490020086210BDEB
:100D200040400050004200500148006AC0B2704785
:100D3000004200500248016AC94301627047000046
:100D40000042005010B559200D4C16228821206019
:100D5000226021602368002BF9D00420FFF7C4FD36
:100D60001020FFF773FE00210720FFF735FE05482E
:100D7000FFF7F2FD00F026F80020206010BD000013
:100D80000001005080F0FA02010E8A0005210907D7
:100D900051188B680122824013438B60886890430E
:100DA0008860704706498A691202FCD408600A28E4
:100DB00004D188690002FCD40D200860704700004F
:100DC00000000540F8B522A00068224E0090316A6C
:100DD0003013214C214D014201D0002118E00803BD
:100DE00001D5204600E028468A0301D501460FE0E0
:100DF0000A04920F6B469A5CCB058904DB0DC90E81
:100E0000891C80089B1C51435843FFF77BF98100E4
:100E1000134F396030694007400F12D0022812D0BA
:100E2000032812D02046B1690907090F491CFFF7B2
:100E300069F90C4978604A108018FFF763F9B860C7
:100E4000F8BD2846EFE70846EDE70748EBE7000066
:100E5000010202040002005000805101001BB70093
:100E60002800002040420F00102700000F4A1049C0
:100E70009042486901D1000A00E0000B4007400F92
:100E800006D001280ED002280ED00A48006870470C
:100E900008688007800F012802D00120C003704736
:100EA00005487047054870470548EFE700000140D6
:100EB0000002005024000020001BB7001027000093
:100EC0002C000020F8B513460F460646FFF7CEFF6C
:100ED000044600254008984201D2022010E001217A
:100EE00049068C4202D30325A40805E00121090626
:100EF0008C4201D30125044619462046FFF702F92A
:100F00002F43376070606D1C684301462046FFF731
:100F1000F9F8F8BD10B5154B01201870597800226A
:100F2000491CC9B259700A2901D35A709870D978EE
:100F3000491CC9B2D970642901D3DA701871597982
:100F4000FF24491CC9B2F5345971A14201D35A7129
:100F5000987119897D24491C89B2E4001981A14244
:100F600001D31A8198720249886010BD6600002082
:100F70000000014010B50C211148FFF7E0F81148BE
:100F8000FFF702FF104C2046FFF79CFB07210022D1
:100F900009022046FFF732FDA1060C4C7D22D2004B
:100FA0002046FFF78FFF2068610308432060481543
:100FB00007490860206889050843206010BD0000CB
:100FC0006600002002000004020080AE0000014024
:100FD00000E100E00749FF20CB69DA0502D404E014
:100FE0000868C0B2CA69D207FAD19A0500D508606C
:100FF000704700000000154070B51B4E0D460446BA
:101000007169002089010322890F2063E260A060DA
:1010100000291FD001291FD0022901D313480068DD
:10102000B1690905090F491CFFF76CF80646002D48
:1010300019D0680880192946FFF764F80C49801E0A
:1010400088420CD9E80080192946FFF75BF80009AF
:10105000801E07E00748E3E7FFF752FCE0E70321C3
:1010600009070843606270BD0002005024000020A0
:10107000FFFF0000001BB70070B51A4D2846FFF7B0
:1010800021FB01246406002221462846FFF7B6FC16
:10109000164A154850609002FFF776FEE12149029A
:1010A0001348FFF7A9FF6D1C2846FFF70BFB002232
:1010B00021462846FFF7A2FC302005210907886356
:1010C0002012FFF761FE0B4C4B2109022046FFF76F
:1010D00093FF6168132211436160012006494003B8
:1010E000086070BD103D80A7030300004000005061
:1010F000000005400000154000E100E010B5084C7C
:10110000012280212046FFF7B7FC01221021204652
:10111000FFF7B2FC012220212046FFF7ADFC10BDF5
:10112000004000500FB410B503A9044B044A0298C4
:1011300000F008F910BC08BC04B01847251C0000DA
:101140003400002037B514460846064B6A4621464F
:1011500000F0F8F804466946002000F08FFC2046B5
:101160003EBD00007D1A00002021020C01D010219C
:101170001046020A01D010460839020901D0104673
:10118000091F820801D01046891E420801D0881E1E
:101190007047081A704730B47446641E2578641C82
:1011A000AB4200D21D46635D5B00E31830BC1847BC
:1011B00002E008C8121F08C1002AFAD17047704720
:1011C000002001E001C1121F002AFBD1704700007E
:1011D000F0B51FB486B00998089A030D00210243A8
:1011E00014D05148514A1818504305141198012839
:1011F00010981AD0281A401C00264D4F4D490096D1
:1012000001910490002812DA444211E0119801245F
:1012100049A3012801D11098C1430698119A84600E
:101220000360C26041600BB0F0BD4042E4E7044699
:10123000210500203F4A001C51410391029012E019
:10124000E00707D032463B4601990098FFF778F84F
:101250000191009032463B4610461946FFF770F860
:1012600006460F466410002CEAD10498039B002820
:10127000029A0999089806DAFFF762F8019B009A2A
:10128000FFF75EF805E0FFF7C3F8019B009AFFF750
:10129000BFF804460E460022284BFFF751F903D849
:1012A0000020C043014607E00022254B204631467E
:1012B000FEF794FFFFF724F9102409E0002C0ADB65
:1012C0000A220023FEF75AFF079B30321A55641E8C
:1012D00002460A43F2D11122641C079B121B1C19FF
:1012E000119B012B03D0012308430ED10AE00843D0
:1012F00004D0112010900020119077E71098151A53
:101300006D1E0BE01098824202DD00236D1C03E08D
:10131000824201DA00236D1E002BEED0069811994F
:101320008260C16030C07EE701FCFFFF104D00000D
:10133000000014400000F03F300000000000F043C7
:101340000000E03FFFB597B00646002518E22528CB
:1013500077D100242746FD49049400E00443761C1D
:1013600032780120203A90400842F7D130782A287C
:101370000ED00222307801463039092916D8049956
:101380000A235943303940181443761C0490F1E77E
:10139000189802C804911890002904DA012040032B
:1013A00004434842049002200443761C30782E28DF
:1013B00014D1042004437078761C2A2809D1189887
:1013C000761C80C8189009E00A214F43303FC719A6
:1013D000761C3078014630390929F5D930786C28E7
:1013E00010D006DC4C281AD068280ED06A2817D1F5
:1013F00004E0742813D07A2812D110E001204005AF
:1014000004430CE00121090501E0032109050C4317
:101410007178814203D1012000052418761C761CC6
:101420003078119066280BD013DC58287DD009DC69
:1014300000287BD04528F6D04628F4D047281AD17A
:10144000A5E118E0632835D0642870D0652812D152
:101450009DE170286CD008DC6728F1D069287BD02A
:101460006E280DD06F2806D1BAE073282ED07528CB
:1014700071D0782859D01A9A199990476D1C7EE13D
:101480006002400F022809D003280DD004281898C4
:1014900001680DD00D60001D189070E11898EA17D2
:1014A00001680D604A60F6E7189801680D80F2E760
:1014B0000D70F0E718986A4601781172001D1890B7
:1014C0000020507202A80090012005E0189802C880
:1014D000189000200091C04361070DD5002101E064
:1014E0000199491C0191B94212DA8142F8DB009A54
:1014F000515C0029F4D10BE0002101E00199491C65
:1015000001918142FADB019A0099895C0029F5D1A9
:10151000019904981A9B471A21463846199A00F0F7
:1015200097FA0199401945180BE04FE02CE113E0C0
:101530004EE0009800990078491C00911A9A199978
:1015400090470198401E0190401CF2D12146384638
:101550001A9B199A10E137E00A20002100900191AE
:101560006002410F022907D0189A01CA1892C217C7
:101570009446032908D00AE01898C01DC108C90084
:1015800005C91891944607E000B2C2179446042991
:1015900002D140B2C1178C4600226146944506DA5A
:1015A0000A460021404291418C462D2102E021054E
:1015B00004D52B216A461173012103E0E10701D014
:1015C0002021F7E7029155E00A200AE0102008E008
:1015D000102000900021042004430191082703E01B
:1015E00008200021019100906002410F022907D0DC
:1015F000189A01CA189200229446032908D008E0DC
:101600001898C01DC108C90005C91891944603E087
:1016100080B2042900D1C0B200210291210729D54E
:101620001199702906D0009A1021019B4A401A4353
:1016300005D00EE040216A461173012108E06146A1
:10164000014306D030216A4611731199517302216A
:101650000291009A0821019B4A401A430AD161462F
:10166000014301D1610705D530216A46117301217B
:101670007F1E02911199582904D035A10E910DA910
:101680000D910DE037A1F9E76146019B009AFEF745
:1016900075FD0E9B8C469B5C0D9A521E0D9213702D
:1016A00061460143F0D10D9805A9081A2030019038
:1016B000600703D501200004844300E0012701985E
:1016C000874201DD381A00E000200199009041189E
:1016D000029809180498401A0490E00306D42146A1
:1016E0001A9B199A049800F0B3F94519002706E0EF
:1016F00003A81A9AC05D199990476D1C7F1C029827
:101700008742F5DBE0030CD521461A9B199A049811
:1017100000F09EF9451904E01A9A30201999904773
:101720006D1C0099481E00900029F5DC08E00D981A
:101730000D990078491C0D911A9A199990476D1CC2
:101740000199481E01900029F1DC63E1092801009C
:101750003031323334353637383961626364656627
:1017600000000000303132333435363738394142E9
:10177000434445460000000000F05AF94519761C24
:101780003078002800D0E2E528461BB0F0BD6007A5
:1017900000D406271898C01DC108C90048680A6807
:1017A0000831C30FDB071891190001D09CA108E094
:1017B000210501D59BA104E0E10701D09AA100E039
:1017C0009AA1430011985B08109165280CD006DCA3
:1017D000452809D046281DD0472841D141E0662838
:1017E00018D067283CD13CE00021112F01DB1120EB
:1017F00000E0781C0191009008A911A8FFF7E8FC0F
:10180000139905910021119A15927F1C1298019746
:10181000009150E00120C00703900120019008A929
:10182000009711A8FFF7D4FC139A1499059200228F
:10183000119B009212981593059A0192002901D0EC
:10184000104602E0791C40180190381A01D5019821
:1018500004E04042401E0090781C0190C01B0290A2
:1018600043E0012F00DA01270021112F01DD1120B3
:1018700000E038460191009008A911A8FFF7A8FCE4
:1018800013990591119A00211298159200910197D0
:1018900021070CD40599B94201DB019900E00191BF
:1018A000012904DD159A491E515C302906D0B84241
:1018B00001DA011D05DA0121029115E00199491EA5
:1018C000EDE7002805DC0099411800910199091AFB
:1018D00003E0019A411C914200DD01910099401AF8
:1018E000401C02900120C0070390200706D40299F3
:1018F0000198814202DB0020C0430290002069462B
:10190000C87707AF012103980337C907884224D05D
:10191000022011902B201290039800280CDA4042EC
:1019200003902D20129007E00A210398FEF7EAFBAE
:1019300030317F1E039039701199481E1190002993
:10194000F2DC03980028EFD1791E129808703078E5
:10195000202108404530BF1E387006A8C01BC01D9E
:10196000039010980078002800D0012001994118B8
:101970000298C0170918039809180498401A401EC5
:101980000490E00306D421461A9B199A049800F0AB
:101990005FF8451910980078002803D01A9A199911
:1019A00090476D1CE00324D521461A9B199A049890
:1019B00000F04EF845191CE00098002807DB00995C
:1019C0000598884203DD1598405C199901E0199942
:1019D00030201A9A904700986D1C401C0090029885
:1019E000401E0290002804D11A9A2E20199990477F
:1019F0006D1C0199481E01900029DDDC05E0387856
:101A00001A9A7F1C199990476D1C0399481E0390E0
:101A10000029F4DC21461A9B199A0498ACE60000D0
:101A20002D0000002B00000020000000000000003E
:101A3000F8B5044600251E461746880404D405E080
:101A400039462020B0476D1C641EF9D52846F8BDE4
:101A5000FFB50446002581B01E46C80301D53027D6
:101A600000E02027880404D505E038460399B047F4
:101A70006D1C641EF9D5284605B0F0BD0A68531CDC
:101A80000B6010707047000070B504462A490001D1
:101A90002A4D401868600068804762000521A3183D
:101AA0000026287000286868027930D0052A01D203
:101AB000017170BD0A2A02D2521C027170BD62000F
:101AC000817AA418641C002904D101218172E0B23A
:101AD00000F09AF8686801890029EFD0C2888A422C
:101AE00007D2521C92B2C2808A42E7D1DB1CD8B224
:101AF0000AE0C17A0029E1D0027B521CD2B2027303
:101B00008A42DBD30673E0B200F07EF870BD052A8E
:101B100001D901710CE0002A02D0521E027107E0C7
:101B2000817A012904D186729B1CD8B200F06CF82E
:101B30006868C680067370BD38000020040000206D
:101B4000074A917AD07A814201D100207047505CD7
:101B5000491CC9B291720A29F8D3002191727047C9
:101B60005800002010B5FFF7C9FAFFF7CFF800F0D2
:101B700007F8FFF729F8FFF7FDF9FFF77DFA10BD29
:101B800010B500F015F8084C032202212046FEF79C
:101B900073FF032204212046FEF76EFF0348012154
:101BA0004162816210BD0000C040005040420050C0
:101BB00030B50D48002282720346C2726424203B75
:101BC0000273114602250801C01804810571827252
:101BD000491CC272C9B202730229F4D303481860C7
:101BE0000348186130BD000058000020C90A0000F9
:101BF000DD0A000010B500242046FFF745FF641CF5
:101C0000E4B2022CF8D310BD0549CA7A8854C87AC8
:101C1000401CC0B2C8720A2801D30020C8727047A5
:101C20005800002000B50346FFF7BCF8184600BD79
:101C30009EB0FFF787F8FFF795FF5AA0FEF758FF11
:101C40000520FEF763FF594859A30068009005225C
:101C500052215B48FEF760FF5AA3052254215848E1
:101C6000FEF75AFF57A3052255215548FEF754FFAA
:101C7000722000905EA3052257215148FEF74CFFC9
:101C8000082000905FA3052258214D48FEF744FF2D
:101C90000A2000905FA3052259214948FEF73CFF26
:101CA0000D2000905FA305225A214548FEF734FF1E
:101CB0000320009060A305225B214148FEF72CFF22
:101CC000002001A904460854401C7228FBD300F0F0
:101CD00047F90078002802D000F042F9047000F0C3
:101CE0003FF98078002804D000F03AF98470FFF7BB
:101CF00081FF00F035F90079002802D000F030F9BA
:101D0000047100F02DF98079002802D000F028F944
:101D1000847100F025F9807A00280DD000F020F9B8
:101D200049498472086849A3401C08600090052254
:101D300092212348FEF7F0FEFFF702FF0028C6D0ED
:101D40000300FFF728FA07050A061B231F270500D3
:101D5000BDE7052241A39D211FE0FEF7E5FF002816
:101D600001D041A000E041A0009041A30522A121A3
:101D70001348FEF7D1FEFEF7DDFFA8E705223FA3DB
:101D8000A6210AE0052241A3A92106E0052242A3DB
:101D9000AC2102E0052244A3AF210948FEF7BCFEB6
:101DA00095E700006C616D70000000002C000020C1
:101DB000204350552040202564487A0D0A00000039
:101DC000681F00002B2D2D2D2D2D2D2D2D2D2D2D72
:101DD0002D2D2D2D2D2D2D2D2D2D2D2D2D2D2D2D33
:101DE0002D2D2D2D2D2D2D2D2D2D2B2000000000E6
:101DF00064656661756C742073697A653A20256440
:101E000000000000646F6D652073697A653A2025D3
:101E1000640000006865616465722073697A653AE0
:101E2000202564007375626D6F64652073697A653F
:101E30003A20256400000000636F6C6F72207369A4
:101E40007A653A2025640000000000204920616D79
:101E500020616C69766520256400000041434320C1
:101E60004B455920757000006F6E00006F6666006C
:101E700072656C61792025730000000041434320A6
:101E80004B455920646F776E000000004C4544209C
:101E90004B455920757000004C4544204B45592056
:101EA000646F776E000000004C4544204B4559207C
:101EB0006C6F6E670000000010B50446016810A04A
:101EC000FFF730F911A06168FFF72CF912A0A168A3
:101ED000FFF728F913A0E168FFF724F914A021699E
:101EE000FFF720F915A06169FFF71CF916A0A16999
:101EF000FFF718F917A0E169FFF714F910BD00000A
:101F0000723020203D20307825780A007231202060
:101F10003D20307825780A00723220203D2030782C
:101F200025780A00723320203D20307825780A0079
:101F3000723132203D20307825780A006C722020E2
:101F40003D20307825780A00706320203D203078CD
:101F500025780A00707372203D20307825780A00B9
:101F600000487047660000206D61696E0000000047
:101F7000696E660064626700656D670077726E0067
:101F80006572720063727400A81F000000000020D8
:101F900038000000B0110000E01F000038000020F1
:101FA00048030000C0110000000000000000000015
:101FB00000000000781F0000841F0000801F000048
:101FC0007C1F0000701F0000741F00000080510182
:101FD000008051010000000000000000000000002F
:04000005000000F106
:00000001FF
