:020000040000FA
:10000000280A0020F1000000F5000000D5000000E3
:1000100000000000000000000000000000000000E0
:10002000000000000000000000000000F9000000D7
:100030000000000000000000FB000000FD000000C8
:10004000FF000000FF000000FF000000FF000000B4
:10005000FF000000FF000000FF000000FF000000A4
:1000600011170000FF000000FF000000FF0000006B
:10007000D1170000E1170000FF000000FF000000A2
:10008000FF000000FF000000FF000000FF00000074
:10009000FF000000FF000000FF000000FF00000064
:1000A000FF000000FF000000FF000000FF00000054
:1000B000FF000000FF000000FF000000FF00000044
:1000C0000348854600F08AFA0048004721380000BE
:1000D000280A002004207146084202D0EFF309806C
:1000E00001E0EFF308807146004A10473D0F000021
:1000F00003480047FEE7FEE7FEE7FEE7FEE7FEE710
:10010000C100000030B50B4601460020202201242A
:1001100009E00D46D5409D4205D31D469540491B3B
:100120002546954040191546521E002DF1DC30BD84
:1001300070B500242546002801DA01244042002938
:1001400001DA01254942FFF7DDFFAC4200D0404211
:10015000002C00D0494270BD03460B439B0703D0DF
:1001600009E008C9121F08C0042AFAD203E00B787C
:100170000370401C491C521EF9D27047D2B201E0F4
:100180000270401C491EFBD270470022F6E710B5F2
:1001900013460A4604461946FFF7F0FF204610BDF5
:1001A00010B5044605E00B780370401C002B00D00E
:1001B000491C521EF7D2204610BD421C0178401C3B
:1001C0000029FBD1801A70470321001D401E0378CF
:1001D00012021A43491EF9D51046704703460322FE
:1001E0000870000A491C521EFAD518467047F0B52F
:1001F0001FB40646002082B00546402401910090BD
:100200001BE0019922460F46304600F009FA049A95
:10021000059B801A994110D310461946224600F0DA
:10022000EFF9361A8F410197224601200021009FE5
:1002300000F0E6F938184D4100902046641E002871
:10024000DFDC019B00982946324607B0F0BD000074
:10025000F0B507460846584087B0C00F04904800E4
:100260000E46590040084908BC1A884105D2384654
:1002700031461E4617460B460246580040081043BA
:100280004CD0300D039040055900400D490D0590AC
:10029000401A0290402872DA18030121000B090568
:1002A0000843019004980092002805D00199524219
:1002B0000020884100920190029840210A1A019979
:1002C000009800F09DF905460C466B4607CB00F000
:1002D000B8F9C0197141039A0E0D0023D717564083
:1002E0001A467A40164344D0049A002A2DD0029A26
:1002F000012A039A15DC1205C01A91410126360520
:10030000001C7141D20F059ED20700930192029604
:100310002A46234600F0B5F907B0F0BD384631460D
:10032000FAE71605224A0F46B218C01AB741012152
:100330000905001C4F4100187F41114618187941EA
:10034000E20F10436D19644113E0E2076D08154395
:100350006408C2071443039A01261205C01A91418A
:100360003605001C7141CE07400830434908C018CB
:1003700051412A46234600F077F9CDE7FFE704987C
:1003800001224000C117121A00238B410498314604
:10039000C417381AA141EEE730B40124E4076340E2
:1003A00030BC55E730B40124E407614030BC4FE76E
:1003B0000000E0FFF0B51FB488B00B990998002445
:1003C00048400999C00F490049080991C0070B9995
:1003D0000090490049080B9109990898A6460843DE
:1003E0001CD00B990A98084318D0099801244000A2
:1003F000420D4800410D099824050003000B2043DD
:1004000009900B980003000B20430B9050181C49D7
:100410004018002201901446104605E000200146D5
:100420000DB0F0BD032801DA034600E003239C462B
:10043000C11A0AAE0AE05F0008ADED5B4F00F75B42
:100440007D430027AA187C41491C5B1E6145F2DDF3
:10045000410004AB5A522104120C0A43240C401CE4
:100460000828DFDB01980290009970460191009006
:10047000059B049A0799069800F003F9D0E700005D
:100480000DFCFFFFF0B50C465C4085B0E40FE407BF
:1004900003944C000026640859009446490802461B
:1004A0000296224321D062460A431ED06200570DB5
:1004B0004A000E032303550D012402462C4924054E
:1004C000781B1B0B360B40182343264361460090D4
:1004D0001C46501AB44103D30098401C009002E01F
:1004E000921800985B41002803DA0020014605B00D
:1004F000F0BD0020012109050746864611E064464B
:100500001D46141BB54106D36546521BB3417446C4
:1005100007430C43A646CD074008490828439218D4
:100520005B4105460D43EAD11046184313D060469F
:10053000194650407140084306D06046101AB34136
:1005400006D20122002306E000220123DB0702E09D
:100550000122D2435310009874460105381C6141B2
:10056000029C039D0019694100F07EF8BFE700007E
:10057000FD0300004A0009030123090B1B05194371
:100580000A4B10B5520D9A4202DA0020014610BD06
:10059000064B34339A4203DC9A1A00F041F810BD3E
:1005A000034BD21800F02CF810BD0000FF03000030
:1005B000CDFBFFFF10B5002904DB0124E407404216
:1005C0008C412146002B04DB1C460123DB075242F1
:1005D000A341994200D1904210BD0000064C012574
:1005E000064E05E0E36807CC2B430C3C98471034DB
:1005F000B442F7D3FFF768FD943C0000B43C000020
:1006000010B5202A04DB0146203A9140002010BD9D
:10061000914020239C1A0346E3401943904010BDAB
:1006200010B5202A04DB0846203AD040002110BD36
:100630000B46D340D0402024A21A914008431946CB
:1006400010BD10B5202A06DBCB170846203A104112
:10065000C1170B4306E00B461341D0402024A21AD9
:1006600091400843194610BD10B5002B08DA00244C
:10067000401C614192185B411A4301D1400840007F
:1006800010BDF0B51FB482B005460C0003D008467B
:1006900001F09EF902E001F09BF920300246009043
:1006A00021462846FFF7ACFF049B059A04460F46F7
:1006B00018431143084314D0184610431BD0009828
:1006C00040210A1A18460599FFF7AAFF05460E466B
:1006D000009A05990498FFF793FF084305D001207D
:1006E00004E02046394607B0F0BD0020C11705439D
:1006F0000E432C43374300990E986305401A790541
:10070000E40A00220C43FD0A0A3002D5002001460B
:10071000E9E70105101969410C9C0D9D001969411B
:10072000FFF7A2FFDFE700000248016AC2011143A0
:100730000162704700020050C10F8A00044951183D
:100740004A68C306DB0E0120984002434A607047A6
:1007500000020050F3B585B00C46FFF7E5FF0598A1
:1007600000287148016813D0042211430160102051
:1007700000F0A6F90120C00403906C480190042009
:1007800002906B486B49201888420ED800271CE065
:1007900089088900491C0160012000F091F90020BE
:1007A0000390654801900220EAE7644863492018F5
:1007B0004942884202D80127640006E060482118B7
:1007C000404281427BD20327A4000025ED43029ED4
:1007D00022E031460198FFF795FC5A4984464118BA
:1007E0005948814217D2534B02215B1C5048624644
:1007F0004A43401C1018984209D8A24201D9101B44
:1008000000E0A01AA84202D2050000910BD04F4888
:10081000491C8142EAD9761C212EDAD9002604959A
:10082000F643029D51E00398B9030143012072028F
:100830008002101A01430098801E01433A48016269
:10084000042000F03DF9791C714331E029460198FC
:10085000FFF758FC3B49844641183B48814233D25C
:10086000344B02215B1C324862464A43401C10183C
:10087000984225D8A24201D9101B00E0A01AB0422C
:100880001ED2049A06460091904219D10399B803EA
:10089000084301216A028902511A08430099891EFE
:1008A000084321490862042000F00AF9791C6943D1
:1008B0000198FFF727FC0099484307B0F0BD06E018
:1008C0002248491C8142CED96D1C212DBED90598E4
:1008D00000280FD01E4914480162042000F0F0F8EF
:1008E0001CA0006800901048016A0013014203D068
:1008F0000020E2E71849EEE7080301D50B4800E0C5
:100900000D488A03D9D40A04920F6B469B5CCA0532
:100910008904D20DC90E891C8008921C594350438A
:10092000FFF7F0FB8000C8E7000200500080510193
:10093000FF1E0AFAFFE0F505001BB700800F05FD5A
:10094000C08782FEFF95E7FFBF77CC000102000061
:1009500018440800010202041640000004498207FE
:100960000A6801D09208920002430A6070470000B2
:100970000002005008B511A0006800901048016AFC
:100980000013014201D0002008BD080301D50D4825
:1009900000E00D488A03F7D40A04920F6B469B5C73
:1009A000CA058904D20DC90E891C8008921C5943BE
:1009B0005043FFF7A7FB800008BD000001020204BE
:1009C0000002005000805101001BB700F8B51D4D1A
:1009D0000446EE68102006401B48844202D84010AE
:1009E000844200D204462868042738432860102037
:1009F00000F066F82869072108432861A869000902
:100A00000001A86128688007800F01280ED06100CE
:100A10007804FFF79FFEEE6804461020064001218F
:100A2000022000F013F8002E06D008E0610000203C
:100A3000FFF790FE0446F2E72868B8432860600894
:100A4000F8BD00000002005080F0FA0210B5074A1D
:100A500093691B091B010B4393611169C908C90004
:100A60000143116100F0ACFD10BD00000002005018
:100A700070B5430E1B070DD043009B0F0F4C9B001E
:100A80001B191C68C5002D0FC601F60EB540AC43FE
:100A90000C431C60830A1906090E0DD00103074C94
:100AA000890F8900083409190C688005DBB2C00E73
:100AB00083409C4314430C6070BD00001002005042
:100AC00010B504460749084B05E00A46491E002AAE
:100AD00001DC002010BDDA6820469043F5D10120EA
:100AE00010BD000080F5200000020050002803D057
:100AF000012803D000207047024870470148A83001
:100B0000704700004C0400207CB559203C4D162253
:100B1000882128602A6029602B68002BF9D000F01A
:100B200095F938A305221421414800F03FFA00F05E
:100B300083F9002860D03FA3052218213C4800F02B
:100B400035FA05223DA31921394800F02FFA00F0AB
:100B500093F9009048A305221E21354800F026FA9B
:100B600000F09EF9009051A305222121304800F0A9
:100B70001DFA0320000500F071F9009058A305222A
:100B800024212B4800F012FA624800F067F9009027
:100B900061A305222621264800F008FA00242046F9
:100BA00000F09CF9019069A305222D2100942048B2
:100BB00000F0FCF9641CE4B2032CF0D300242046BE
:100BC00000F07CF901906FA30522332100941848AE
:100BD00000F0ECF9641CE4B2042CF0D300F05AF9F4
:100BE000009076A305223921114800F0DFF900F0CA
:100BF00003F9002028607CBD05227DA31621A3E710
:100C0000000100502020426F6F74204D6F646520FA
:100C10002E2E2E2E2E2E2E2E2E2E2E2E2E2E2E2EF4
:100C20002E2E2E2E2E2E2E2E2E2E2E2E2E2000004E
:100C3000643C00005B4C44524F4D5D002020574106
:100C4000524E494E473A2054686520647269766571
:100C5000722073616D706C6520636F6465206D75C3
:100C60007374206578656375746520696E204150E2
:100C7000206D6F64652100002020436F6D70616EF0
:100C800079204944202E2E2E2E2E2E2E2E2E2E2E24
:100C90002E2E2E2E2E2E2E2E2E2E2E2E2E2E2E2E74
:100CA0002E205B3078253038785D0000202050728F
:100CB0006F64756374204944202E2E2E2E2E2E2E06
:100CC0002E2E2E2E2E2E2E2E2E2E2E2E2E2E2E2E44
:100CD0002E2E2E2E2E205B3078253038785D0000A9
:100CE00020205573657220436F6E6669672030203F
:100CF0002E2E2E2E2E2E2E2E2E2E2E2E2E2E2E2E14
:100D00002E2E2E2E2E2E2E2E2E205B307825303895
:100D1000785D000004003000202055736572204388
:100D20006F6E6669672031202E2E2E2E2E2E2E2ECF
:100D30002E2E2E2E2E2E2E2E2E2E2E2E2E2E2E2ED3
:100D40002E205B3078253038785D00002020556EED
:100D500069717565204944202564202E2E2E2E2E83
:100D60002E2E2E2E2E2E2E2E2E2E2E2E2E2E2E2EA3
:100D70002E2E2E2E2E2E205B3078253038785D0AD0
:100D8000000000002020556E697175652043757361
:100D9000746F6D6572204944202564202E2E2E2EFE
:100DA0002E2E2E2E2E2E2E2E2E2E2E2E2E2E205B44
:100DB0003078253038785D0A00000000202044613A
:100DC000746120466C6173682042617365204164E0
:100DD0006472657373202E2E2E2E2E2E2E2E2E2E06
:100DE0002E2E2E2E2E205B3078253038785D0A008E
:100DF0005B4150524F4D5D0002480168490849006F
:100E00000160704700C000500A492222CA60486051
:100E1000012008610869C007FCD10868400606D5B2
:100E200008684022104308600020C043704700203B
:100E30007047000000C0005003480068800701D5DB
:100E4000012070470020704700C000500248016830
:100E5000012211430160704700C000500549002283
:100E6000CA604860012008610869C007FCD1886831
:100E70007047000000C0005005480B21C1600021F0
:100E80004160012101610169C907FCD18068704797
:100E900000C00050014840697047000000C0005089
:100EA00005480C21C16004214160012101610169F3
:100EB000C907FCD18068704700C000500649042271
:100EC000CA60800010304860012008610869C007CE
:100ED000FCD188687047000000C00050054904221A
:100EE000CA6080004860012008610869C007FCD121
:100EF0008868704700C00050054A2123D3605060C5
:100F00009160012010611069C007FCD1704700009A
:100F100000C00050F0B5002301273C469C400C4225
:100F200008D005685C000326A640B5431646A640D7
:100F3000354305605B1C082BEFD3F0BD044603A0CE
:100F400000F024FD204602F0B9FDFEE7496E20487E
:100F5000617264204661756C742048616E646C65D2
:100F6000720A000003490020496A002900D10120CB
:100F7000704700004042005003490020896A002960
:100F800000D10120704700004042005010B50722F8
:100F900004A10548FFF704F903480021C1718160ED
:100FA00010BD0000000000001C0700200FB4F8B5C1
:100FB000204D164628460F4600240C38FFF7FDF852
:100FC000002833D028460C388068B0422EDB002E33
:100FD0002CDB1949B00009583B4618A0069A00F0CE
:100FE000D5FCFF2101312846FFF7CFF80AAA284691
:100FF000099900F0DBFC4019401B2946FF2803DD5E
:101000000846FFF7DAF801242846FFF7D6F8FF284C
:1010100000D1012429460DA000F0B8FC002C02D01C
:101020000BA000F0B3FC0CA000F0B0FCF8BC08BCB6
:1010300004B0184728070020340000205B25735DAA
:10104000202573282564293A20000000257300001C
:10105000202E2E2E000000000D0A000070B537482B
:1010600000F090FA364C2046FFF766FB354D2846D7
:10107000FFF762FB0121002249072046FFF7F8FC39
:10108000002220212846FFF7F3FCA006416B07222F
:101090009206114341632D4C2B48A0602068000A42
:1010A0000002C01C20606068C008C000001D6060B5
:1010B0002068000A0002C01C20606068702188431C
:1010C000403060602068FF2109048843032109043F
:1010D00040182060606891128843012189044018FB
:1010E0006060A16850010143A160A1680143A16053
:1010F000A1680143A1600121204600F069F80221A6
:10110000204600F065F81021204600F061F801212A
:10111000204600F065F80221204600F061F8102119
:10112000204600F05DF80A4860620A48E0600A491B
:10113000A162206109496163E06170BD140000048F
:101140001400C0A7160040E6990009000000044002
:1011500010270000FFFF0000204E000050C30000D9
:10116000F8B50F460C4916460C7864216043FEF72B
:10117000C9FF0A4D80B2A862204678436421FEF779
:10118000C1FF80B26862204670436421FEF7BAFF57
:1011900080B26863F8BD00001A000020000004401F
:1011A00010B50A4B0A28187001D20A201870D87995
:1011B0009979020258790A4301021C79D8789B7800
:1011C000000221431843FFF7CBFF10BD1A00002097
:1011D0000248C2690A43C2617047000040000440EF
:1011E00030B5002210460124234683400B4203D031
:1011F00085002346AB401A43401C0628F4D302491D
:1012000088681043886030BD0000044010B500219C
:10121000E12000F0FFF80021E22000F0FBF810BD13
:1012200010B57021272000F0F5F810BD00B539A0E9
:1012300003C887B00090019138A00068049038A0DE
:1012400003C80391029038A00068059037A0006899
:1012500006905A21532000F0DDF8A521532000F01C
:10126000D9F820213D2000F0D5F80021FC2000F025
:10127000D1F80021E12000F0CDF80021E22000F0BB
:10128000C9F87021272000F0C5F80121222000F0C4
:10129000C1F80321232000F0BDF84E21252000F0E5
:1012A000B9F81021312000F0B5F80522204930208E
:1012B00000F09AF805221E492A2000F095F8052230
:1012C00069463F2000F090F8062202A93A2000F07B
:1012D0008BF8012205A9392000F086F8032204A921
:1012E0003E2000F081F8032206A93B2000F07CF8A4
:1012F00000213C2000F08EF83F21262000F08AF8E3
:101300000021242000F086F80021212000F082F83E
:1013100007B000BD0A6D679C46000000F6375D000F
:101320004521EFAC5A500000010000000BDF020025
:10133000743C0000F8B50E460B4F0021154639618C
:1013400000F0B0F8002404E002F052FC3055641CB8
:10135000E4B2AC42F8D3012220210448FFF7DAFDC1
:1013600001203861F8BD00000042005000400050EC
:1013700010B50021FC2000F04DF88F21202000F056
:1013800049F80021FD2000F045F8C82002F03BFAA2
:1013900010BD70B50D460646002402F003FC00287F
:1013A00013D12A463146A02000F01EF80021FD206E
:1013B00000F030F83C2002F026FA641CE4B2152C50
:1013C000F8D30021FC2000F025F870BD10B50021F5
:1013D000FC2000F01FF88E21202000F01BF80A20CE
:1013E00002F011FA10BD0000F8B50E46084F0021BA
:1013F000154639610C4600F07FF804E0305D00F0DE
:101400007BF8641CE4B2AC42F8D301203861F8BD2B
:101410000042005070B50546094C00200E46206180
:10142000012002F0F0F9284600F066F8304600F09E
:1014300063F8012002F0E7F90120206170BD00008F
:101440000042005010B5012211460348FFF762FD2B
:1014500002490020086210BD404000500042005088
:101460000148006AC0B270470042005001490020A4
:10147000086270470042005001490120086270472D
:10148000004200500249002800D001200862704745
:10149000004200500248016AC943016270470000DF
:1014A00000420050F8B50024114E05462746F7616A
:1014B000012002F0A8F9280602D50120706100E0A1
:1014C00077616806050E0120F06102F09CF90120A9
:1014D00002F099F9641CE4B2082CE8D30022202120
:1014E0000448FFF717FDF761012002F08CF9F8BD01
:1014F0000042005000400050F8B500240F4E054651
:101500002746F761012002F07EF9280602D5012066
:10151000706100E077616806050E0120F06102F05D
:1015200072F9012002F06FF9641CE4B2082CE8D3D0
:10153000F761012002F067F9F8BD00000042005099
:1015400010B559200D4C16228821206022602160A0
:101550002368002BF9D00420FFF700FA1020FFF7D2
:10156000AFFA00210720FFF771FA0548FFF72EFABE
:1015700000F026F80020206010BD0000000100509F
:1015800080F0FA02010E8A000521090751188B68C4
:101590000122824013438B608868904388607047C3
:1015A00006498A691202FCD408600A2804D18869B5
:1015B0000002FCD40D2008607047000000000540C8
:1015C000F8B522A00068224E0090316A3013214CF9
:1015D000214D014201D0002118E0080301D5204629
:1015E00000E028468A0301D501460FE00A04920F65
:1015F0006B469A5CCB058904DB0DC90E891C8008FB
:101600009B1C51435843FEF77DFD8100134F396009
:1016100030694007400F12D0022812D0032812D0A0
:101620002046B1690907090F491CFEF76BFD0C49FB
:1016300078604A108018FEF765FDB860F8BD28464E
:10164000EFE70846EDE70748EBE700000102020478
:101650000002005000805101001BB7005000002024
:1016600040420F00102700000F4A1049904248697D
:1016700001D1000A00E0000B4007400F06D001280E
:101680000ED002280ED00A4800687047086880070C
:10169000800F012802D00120C00370470548704721
:1016A000054870470548EFE7000001400002005080
:1016B0004C000020001BB700102700005400002041
:1016C000F8B513460F460646FFF7CEFF0446002541
:1016D0004008984201D2022010E0012149068C42C4
:1016E00002D30325A40805E0012109068C4201D399
:1016F0000125044619462046FEF704FD2F433760B6
:1017000070606D1C684301462046FEF7FBFCF8BD87
:1017100010B5154B0120187059780022491CC9B228
:1017200059700A2901D35A709870D978491CC9B2E6
:10173000D970642901D3DA7018715979FF24491CD2
:10174000C9B2F5345971A14201D35A7198711989FE
:101750007D24491C89B2E4001981A14201D31A8178
:1017600098720249886010BD3E04002000000140CC
:1017700010B50C211148FEF708FD1148FFF702FFD4
:10178000104C2046FEF7D8FF072100220902204610
:10179000FFF76EF9A1060C4C7D22D2002046FFF720
:1017A0008FFF2068610308432060481507490860DF
:1017B000206889050843206010BD00003E04002019
:1017C00002000004020080AE0000014000E100E0E1
:1017D00010B5024800F054F810BD00004C04002081
:1017E00010B5024800F04CF810BD0000F4040020D1
:1017F00042688A434260704742680A4342607047C9
:1018000070B51B4E0D460446716900208901032204
:10181000890F2063E260A06000291FD001291FD03A
:10182000022901D313480068B1690905090F491C51
:10183000FEF768FC0646002D19D068088019294675
:10184000FEF760FC0C49801E88420CD9E800801924
:101850002946FEF757FC0009801E07E00748E3E72A
:10186000FFF788F8E0E7032109070843606270BDCD
:10187000000200504C000020FFFF0000001BB700DA
:1018800070B504460068C0690025C005002817DB54
:101890001AE00068E28AA168C0B28854E18A491C53
:1018A0008AB2E282E1898A4200D3E582628B8A426F
:1018B00002D2618B491C6183616A002900D088478C
:1018C0002068C169C907E4D12068C169890511D5BB
:1018D000A18A00290FD0628A6168895C0160608AF0
:1018E000401C80B26082A189884200D36582A08AB0
:1018F000401EA08270BD0221FFF77AFF70BD00007C
:10190000164915480860084628304860403088600D
:1019100040208881C881002008824882C8820883CC
:1019200048838882C861086248620D4AA8310A600B
:101930000A4628324A60FF3201328A60FF220132B1
:101940008A81CA8108824882C88208834883888243
:10195000C861086248627047000005404C040020DE
:101960000000154010B5084C012280212046FFF7E9
:10197000D1FA012210212046FFF7CCFA01222021C2
:101980002046FFF7C7FA10BD004000500FB410B555
:1019900003A9044B044A029800F008F910BC08BCE3
:1019A00004B01847153800005C00002037B5144615
:1019B0000846064B6A46214600F0F8F80446694698
:1019C000002000F08FFC20463EBD0000E522000014
:1019D0002021020C01D010211046020A01D010462D
:1019E0000839020901D01046091F820801D01046AB
:1019F000891E420801D0881E7047081A704730B40B
:101A00007446641E2578641CAB4200D21D46635D9B
:101A10005B00E31830BC184702E008C8121F08C179
:101A2000002AFAD170477047002001E001C1121F5F
:101A3000002AFBD170470000F0B51FB486B00998AA
:101A4000089A030D0021024314D05148514A181836
:101A5000504305141198012810981AD0281A401CD8
:101A600000264D4F4D49009601910490002812DA4E
:101A7000444211E01198012449A3012801D1109892
:101A8000C1430698119A84600360C26041600BB044
:101A9000F0BD4042E4E70446210500203F4A001C17
:101AA00051410391029012E0E00707D032463B46D5
:101AB00001990098FEF77EFC0191009032463B466A
:101AC00010461946FEF776FC06460F466410002CB9
:101AD000EAD10498039B0028029A0999089806DA2B
:101AE000FEF768FC019B009AFEF764FC05E0FEF738
:101AF000C9FC019B009AFEF7C5FC04460E46002275
:101B0000284BFEF757FD03D80020C043014607E0ED
:101B10000022254B20463146FEF79AFBFEF72AFDB0
:101B2000102409E0002C0ADB0A220023FEF75FFBE9
:101B3000079B30321A55641E02460A43F2D1112225
:101B4000641C079B121B1C19119B012B03D0012342
:101B500008430ED10AE0084304D011201090002061
:101B6000119077E71098151A6D1E0BE010988242BD
:101B700002DD00236D1C03E0824201DA00236D1EAA
:101B8000002BEED0069811998260C16030C07EE7CC
:101B900001FCFFFF104D0000000014400000F03F6A
:101BA000300000000000F0430000E03FFFB597B0B8
:101BB0000646002518E2252877D100242746FD494E
:101BC000049400E00443761C32780120203A9040CF
:101BD0000842F7D130782A280ED002223078014608
:101BE0003039092916D804990A2359433039401845
:101BF0001443761C0490F1E7189802C804911890D9
:101C0000002904DA012040030443484204900220E2
:101C10000443761C30782E2814D1042004437078B5
:101C2000761C2A2809D11898761C80C8189009E0DB
:101C30000A214F43303FC719761C307801463039AE
:101C40000929F5D930786C2810D006DC4C281AD038
:101C500068280ED06A2817D104E0742813D07A2897
:101C600012D110E00120400504430CE001210905D8
:101C700001E0032109050C437178814203D1012061
:101C800000052418761C761C3078119066280BD03D
:101C900013DC58287DD009DC00287BD04528F6D0FD
:101CA0004628F4D047281AD1A5E118E0632835D09A
:101CB000642870D0652812D19DE170286CD008DCB2
:101CC0006728F1D069287BD06E280DD06F2806D107
:101CD000BAE073282ED0752871D0782859D01A9A76
:101CE000199990476D1C7EE16002400F022809D0CF
:101CF00003280DD00428189801680DD00D60001D30
:101D0000189070E11898EA1701680D604A60F6E7CC
:101D1000189801680D80F2E70D70F0E718986A4690
:101D200001781172001D18900020507202A80090D6
:101D3000012005E0189802C8189000200091C043C7
:101D400061070DD5002101E00199491C0191B942BB
:101D500012DA8142F8DB009A515C0029F4D10BE0E1
:101D6000002101E00199491C01918142FADB019AAD
:101D70000099895C0029F5D1019904981A9B471AAA
:101D800021463846199A00F097FA019940194518EA
:101D90000BE04FE02CE113E04EE000980099007852
:101DA000491C00911A9A199990470198401E019078
:101DB000401CF2D1214638461A9B199A10E137E0AF
:101DC0000A200021009001916002410F022907D0F2
:101DD000189A01CA1892C2179446032908D00AE03B
:101DE0001898C01DC108C90005C91891944607E09C
:101DF00000B2C2179446042902D140B2C1178C46E2
:101E000000226146944506DA0A460021404291418B
:101E10008C462D2102E0210504D52B216A46117341
:101E2000012103E0E10701D02021F7E7029155E00D
:101E30000A200AE0102008E0102000900021042071
:101E400004430191082703E008200021019100903C
:101E50006002410F022907D0189A01CA1892002285
:101E60009446032908D008E01898C01DC108C9008D
:101E700005C91891944603E080B2042900D1C0B28C
:101E800000210291210729D51199702906D0009AC5
:101E90001021019B4A401A4305D00EE040216A46BA
:101EA0001173012108E06146014306D030216A46E2
:101EB00011731199517302210291009A0821019B1B
:101EC0004A401A430AD16146014301D1610705D551
:101ED00030216A46117301217F1E02911199582900
:101EE00004D035A10E910DA90D910DE037A1F9E7B0
:101EF0006146019B009AFEF77AF90E9B8C469B5C2B
:101F00000D9A521E0D92137061460143F0D10D9847
:101F100005A9081A20300190600703D501200004AC
:101F2000844300E001270198874201DD381A00E070
:101F30000020019900904118029809180498401A4D
:101F40000490E00306D421461A9B199A049800F0E5
:101F5000B3F94519002706E003A81A9AC05D19993C
:101F600090476D1C7F1C02988742F5DBE0030CD57F
:101F700021461A9B199A049800F09EF9451904E02D
:101F80001A9A3020199990476D1C0099481E0090AC
:101F90000029F5DC08E00D980D990078491C0D9199
:101FA0001A9A199990476D1C0199481E01900029B1
:101FB000F1DC63E109280100303132333435363742
:101FC0003839616263646566000000003031323385
:101FD0003435363738394142434445460000000025
:101FE00000F05AF94519761C3078002800D0E2E557
:101FF00028461BB0F0BD600700D406271898C01D06
:10200000C108C90048680A680831C30FDB07189186
:10201000190001D09CA108E0210501D59BA104E095
:10202000E10701D09AA100E09AA1430011985B0852
:10203000109165280CD006DC452809D046281DD013
:10204000472841D141E0662818D067283CD13CE0C0
:102050000021112F01DB112000E0781C019100907C
:1020600008A911A8FFF7E8FC139905910021119A1E
:1020700015927F1C12980197009150E00120C00733
:1020800003900120019008A9009711A8FFF7D4FC44
:10209000139A149905920022119B0092129815939D
:1020A000059A0192002901D0104602E0791C4018DF
:1020B0000190381A01D5019804E04042401E00907A
:1020C000781C0190C01B029043E0012F00DA012729
:1020D0000021112F01DD112000E038460191009010
:1020E00008A911A8FFF7A8FC13990591119A0021DE
:1020F000129815920091019721070CD40599B942C5
:1021000001DB019900E00191012904DD159A491EC6
:10211000515C302906D0B84201DA011D05DA0121EF
:10212000029115E00199491EEDE7002805DC0099B0
:10213000411800910199091A03E0019A411C91424A
:1021400000DD01910099401A401C02900120C00757
:102150000390200706D402990198814202DB0020F7
:10216000C043029000206946C87707AF0121039859
:102170000337C907884224D0022011902B201290E7
:10218000039800280CDA404203902D20129007E0BB
:102190000A210398FDF7B6FF30317F1E0390397096
:1021A0001199481E11900029F2DC03980028EFD104
:1021B000791E129808703078202108404530BF1EE3
:1021C000387006A8C01BC01D039010980078002826
:1021D00000D00120019941180298C01709180398EE
:1021E00009180498401A401E0490E00306D42146C2
:1021F0001A9B199A049800F05FF845191098007816
:10220000002803D01A9A199990476D1CE00324D531
:1022100021461A9B199A049800F04EF845191CE0C3
:102220000098002807DB00990598884203DD15987F
:10223000405C199901E0199930201A9A904700984A
:102240006D1C401C00900298401E0290002804D192
:102250001A9A2E20199990476D1C0199481E0190D9
:102260000029DDDC05E038781A9A7F1C199990471F
:102270006D1C0399481E03900029F4DC21461A9B2B
:10228000199A0498ACE600002D0000002B00000015
:102290002000000000000000F8B5044600251E469E
:1022A0001746880404D405E039462020B0476D1C49
:1022B000641EF9D52846F8BDFFB50446002581B057
:1022C0001E46C80301D5302700E02027880404D526
:1022D00005E038460399B0476D1C641EF9D52846C1
:1022E00005B0F0BD0A68531C0B6010707047000009
:1022F000F8B5074600203A780146F22A4ED17A789E
:10230000102A4BD8531C05E03C1864786118401C17
:10231000C9B2C0B28342F7D8B81C105C88423DD124
:102320001021EB48FDF731FFEA4804260168BB782D
:102330000A46B2430092E84A00245278E44D572BF3
:1023400075D02CDC092B55D009DC1A461300FFF799
:1023500056FB097E4D84ADC23E11FD807E00532B9D
:1023600076D00BDC352B19D0502B72D0512B71D07D
:10237000522B13D10022114606200DE1542B6AD0B6
:10238000552B69D0562B09D1D349642A06D80A3275
:10239000D0B24870642801D364204870F8BD602B27
:1023A000FCD00BDC1E46CC49583E09783300FFF7C1
:1023B00026FB07EFEEEDECEBEAE94E00722BEDD0D9
:1023C00009DC612BEAD0702B10D0712BE6D10022F2
:1023D00011460520E0E0732B7DD07E2BDED0B92B9B
:1023E000DCD1CA0778D04908490092E000221146A2
:1023F0000120D1E0F878012804D0022805D0032874
:1024000006D007E0FFF738F804E0FFF72FF801E007
:10241000FFF740F8F820287002246C70B878012685
:10242000A870FFF71DF8002802D0EE7001E0FBE075
:10243000EC700424002006E02A18295D52788918DF
:10244000401C2955C0B26978491C8142F4D838E152
:1024500059E09EE026E0A2E0DFE00446C80721D074
:1024600000F05AFF2068B0432060000796D500F0C6
:10247000E1FEF8202870092068700220A870E81C8E
:10248000082100F0F1FC0B24002106E06A18285D09
:1024900052788018491C2855C9B26878401C884277
:1024A000F4D82AE000221146022075E00446C8074D
:1024B00029D000F031FF2068B04320600007D5D557
:1024C00000F0A6FEF8202870092068700320A8708C
:1024D000E81C082101E04DE019E000F0C5FC0B24E8
:1024E000002106E06A18285D52788018491C28559A
:1024F000C9B26878401C8842F4D8641C21467448EC
:1025000000F032F9DDE000221146032044E0012210
:1025100011430160F82129700B216970B921A9705C
:1025200000780524C107C90FE9700007C00F2871A2
:10253000681D082100F098FC00212A192023505C16
:10254000002801D0FF2800D1535400E016E0491CB8
:10255000C9B20829F3D30020083406E02A18295DFF
:1025600052788918401C2955C0B26978491C8142AB
:10257000F4D8C2E70022114604200DE000221146E3
:10258000072009E07FE075E071E064E05CE058E07E
:1025900051E000221146082000F076FFF8BD044605
:1025A0000A070820002A07DB01433143216000218C
:1025B000084600F061FE05E08143B143014321601C
:1025C00000F0B6FEF82028700A2169700120A8707A
:1025D000207804240007C00FE870281D082100F0AF
:1025E00043FC00212A192023505C002801D0FF2839
:1025F00000D15354491CC9B20829F5D3002008342E
:1026000006E02A18295D52788918401C2955C0B265
:102610006978491C8142F4D86FE70099016000F0A5
:102620007BFE00F0F5FDF8BD314301600021084656
:1026300000F022FEF8BD28480A2AFBD30A3A42706D
:10264000F8BD00F0ADFBF8BD0099016000F064FE3C
:1026500000F0F0FDF8BD204A642906D80A31C8B25E
:102660001070642801D364201070107808E000F026
:10267000B1FBF8BD18480A2901D30A390170007866
:10268000FEF78EFDF8BDFEF705FFF8202870022446
:102690006C7009200126A870FEF7E2FE002801D028
:1026A000EE7000E0EC700424002006E02A18295D9A
:1026B00052788918401C2955C0B26978491C81425A
:1026C000F4D8002CDED0611C014800F04DF8F8BDB4
:1026D000F9000020240000201A00002010B508494D
:1026E0000020087010210748FDF74FFD0548102114
:1026F0001030FDF74AFDFEF799FDFEF739FE10BDDB
:1027000022000020E900002010B5154C2078002898
:102710001AD001F047FA102811D0202806D04028FE
:102720000DD010210F48FEF734FE10BDFEF76EFDF0
:10273000FEF776FD00202070FEF71AFE10BDFEF7B2
:1027400065FDFEF76DFD10BD06481021103801F043
:102750000DFA0028F7D003481038FFF7C9FD10BD67
:1027600022000020F900002070B50C460546FEF757
:102770002DFE064B0121197010210548FDF705FDBE
:10278000224629460248FDF7E7FC70BD22000020E2
:10279000F900002070B500260F4B8C241E7013E04A
:1027A00002781D786A401A705E70401C1A78D5074E
:1027B00002D05208624000E052081A705A78521C47
:1027C000D2B25A70082AF1D30A46491EC9B2002A69
:1027D000E6D1187870BD000008000020F0B5134D58
:1027E00000242C701BE004782E78521C744092B2A6
:1027F000401C2C709A4201D30022C01A00246C7035
:102800008C262C78E70702D06408744000E0640846
:102810002C706C78641CE4B26C70082CF1D30C46FC
:10282000491E89B2002CDED12878F0BD08000020B6
:10283000F0B587B00024054603200094019402946B
:10284000000203942E187388FA49D81CC005C00DE5
:102850000F78F94A285C791E126841287ED020DC66
:1028600035287CD00FDC122859D0312878D0332875
:1028700077D034282DD1F8206B4618705F70342043
:10288000987003200FE236286CD037286BD0382898
:102890001FD1F8206A4610705770382090700320BE
:1028A000FCE0E54904270968B943642878D012DCC4
:1028B000542876D0572875D0622874D0632808D160
:1028C0001B1DD805C00DDD492A5C0A70285CFEF787
:1028D00067FC07B0F0BD65287ED066287DD0F02863
:1028E000F7D1002069460490087C1107C90FC9017F
:1028F00008435107C90F8901084369460874FEF768
:10290000AFFD002800D001206946497C022208431F
:102910006946487404A9F02000F0B6FDD9E70C33ED
:10292000D805C00D2C5C742005902B2CD1DCC4483C
:102930000168082211430160592116228823C148E9
:1029400001600260036000680028F8D0FEF77EFA9C
:10295000002C13D1B7480A21417005E074E1FDE075
:10296000AFE0D1E01EE141E10027780200F0FAFC7F
:10297000B0487F1C4078FFB28742F6D37088AD49DB
:102980000D30C005C00D285C00270007000F4880EF
:102990000D2148430A30C0B20490800806902BE015
:1029A000DAE190E1C1E1C6E10598B900604343185E
:1029B0007088391D4118C905C90D6A5C791D411817
:1029C000C905C90D695C09021143BA1D8218D205F7
:1029D000D20DAA5C120401E0C5E1D1E10A43F91D60
:1029E0004018C005C00D285C01061143184600F0D0
:1029F000C7FC7F1C0698FFB2B842D5D80498800760
:102A000031D0049905988A08604392008018049B8D
:102A1000002184469F070846BF0F1FE0002804D00E
:102A2000012809D0022817D10EE07388111D59180A
:102A3000C905C90D695C0FE073889B185B1DDB0538
:102A4000DB0DEB5C1B0206E073889B189B1DDB050E
:102A5000DB0DEB5C1B041943401CC0B28742DDD880
:102A6000604600F08DFCFEF7C7F97649002008604B
:102A7000734801680822914301606E480122447046
:102A8000411C122048E77388271DDB19DB05DB0D8D
:102A9000EB5C1354401C641CC0B2E4B28C42F2DB09
:102AA000002106E05418135C64781B19491C135468
:102AB000C9B253785B1C8B42F4D8401CC1B210469B
:102AC00030E1F8206A461070577031209070032072
:102AD0000AE07388271DDB19DB05DB0DEB5C135463
:102AE000401C641CC0B2E4B28C42F2DB002106E060
:102AF0005418135C64781B19491C1354C9B25378D9
:102B00005B1C8B42F4D8D8E7F8206B4618705F70D6
:102B10003320987003200BE07388271DDB19DB0539
:102B2000DB0DEF5C6B461F54401C641CC0B2E4B26A
:102B30008C42F1DB002106E05D181C5C6D786419A5
:102B4000491C1C54C9B25C78641C8C42F4D8401CEB
:102B5000C1B2D00700D0BCE61846E3E0F8206B46CF
:102B600018705F703520987003200BE07388271D64
:102B7000DB19DB05DB0DEF5C6B461F54401C641C4E
:102B8000C0B2E4B28C42F1DB002106E05D181C5CAF
:102B90006D786419491C1C54C9B25C78641C8C4261
:102BA000F4D8D4E7F8206B4618705F703620987020
:102BB00003200BE07388271DDB19DB05DB0DEF5CC1
:102BC0006B461F54401C641CC0B2E4B28C42F1DB63
:102BD000002106E05D181C5C6D786419491C1C54CA
:102BE000C9B25C78641C8C42F4D8B0E7F8206B461C
:102BF00018705F703720987003200BE07388271DD2
:102C0000DB19DB05DB0DEF5C6B461F54401C641CBD
:102C1000C0B2E4B28C42F1DB002106E05D181C5C1E
:102C20006D786419491C1C54C9B25C78641C8C42D0
:102C3000F4D88CE728000020240000201A0000208F
:102C400000C0005000010050F8206A461070577014
:102C50004120907003200AE07388271DDB19DB05F3
:102C6000DB0DEB5C1354401C641CC0B2E4B28C421C
:102C7000F2DB002106E05418135C64781B19491C30
:102C80001354C9B253785B1C8B42F4D815E7738890
:102C9000271DDB19DB05DB0DEF5C6B461F54401C69
:102CA000641CC0B2E4B28C42F1DB002106E05D1886
:102CB0001C5C6D786419491C1C54C9B25C78641C96
:102CC0008C42F4D843E7344D100706D40820024361
:102CD0003A432A6000F020FB05E008208243BA4313
:102CE0002A6000F025FBF8216E4631700A2201218E
:102CF0007270B170297801A80907C90FF170082115
:102D000000F0B2F80C2106E03219705C527880189D
:102D1000641C7054E4B268464078401CA042F3D86A
:102D20006846491CFFF720FDD3E51B483A430021C4
:102D30000260084621E018480160981DC005C00DDA
:102D40002A5C581DC005C00D295C1B1DD805C00D8F
:102D5000285C00F07FFABCE51B1DD805C00D295C7E
:102D60000E484170B5E50C48016000F0D5FA708856
:102D70000021001DC005C00D285C00F07DFAA8E50B
:102D80001B1DD805C00D285C0109CDD10007000F1F
:102D9000FEF778FB9DE50000240000201A000020CB
:102DA00010B50A494878401CC0B248700A2801D3BF
:102DB00000204870C0B24100054B4018C1188A7805
:102DC0004978185C00F046FA10BD00000C000020A5
:102DD000393C000010B509494878002801D0401E50
:102DE00000E009204870C0B24100054B4018C118EE
:102DF0008A784978185C00F02DFA10BD0C0000208C
:102E0000393C0000F8B50024154F74253C702C2681
:102E10002046684300F0ADFAFF2806D03878641CDD
:102E2000401CE4B23870B442F2D309200C497870E7
:102E300008310020086088800839887072210948AC
:102E4000FDF7A3F9064808210E30FDF79EF9044866
:102E500050210E3001703221417000F069FAF8BD46
:102E60000C0000207700002010B5082903D80A467E
:102E70000149FDF771F910BD77000020F0B5E24976
:102E800085B04879002803D0401E487105B0F0BDD8
:102E9000DE4DEA79E81C0490002A04D1427A037AD4
:102EA00010021843F2D02878D84C000762780392B9
:102EB000A2780292A27A637AE778267A12021A43FB
:102EC000000F641C009203280AD004287ED0052835
:102ED000DCD1CD48401CFDF777F9002877D047E1D9
:102EE000C948401CFDF770F9C749401C491CFDF753
:102EF00075F90190C548C54900794B78039DC11A01
:102F00004A421B028542019803930AD2002900DA43
:102F10001146484300020099FDF7F4F8039941185F
:102F200009E0002900DA1146484300020099FDF744
:102F3000E9F80399091AB44D30464843083D642125
:102F4000FDF7E0F8686028468088294680B20E3197
:102F500048800390AD48AD4940798D78029B411B74
:102F60004A422D028342019809D2002900DA114613
:102F7000484300020099FDF7C5F8411908E000290F
:102F800000DA1146484300020099FDF7BBF8291A00
:102F90009D4D30464843083D6421FDF7B3F8686015
:102FA00028468088294680B20E318880974D02904D
:102FB0003B462946A879CF78C11B4A423F0283424B
:102FC00001980CD2002900DA114601E039E0A6E0B0
:102FD000484300020099FDF795F8C11908E000295F
:102FE00000DA1146484300020099FDF78BF8391AC0
:102FF000854F30464843083F6421FDF783F87860E9
:103000003846808882B238460E30C28002990398D2
:10301000FEF7A6F87C4E701CFDF7D6F8617A227A8E
:1030200009021143EDE0711C0020FDF7D7F867E0BD
:10303000E879002800D029E72878000900F086F90F
:1030400024E77148007800286F485FD0401CFDF7E6
:10305000BBF8002804D06C49401E491CFDF7BEF89F
:103060006948401CFDF7B0F80399019048430102FC
:10307000081A0099FDF746F8014630464843642196
:10308000FDF740F8604980B2891D0390488002999D
:10309000019848430102081A0099FDF733F870437C
:1030A0006421FDF72FF8584980B2891D029088806D
:1030B000019878430102081A0099FDF723F870433C
:1030C0006421FDF71FF8504982B20839486008466C
:1030D0000E30C28002990398FEF742F84A48401C1D
:1030E000FDF772F8617A227A09021143884201D20F
:1030F00000289DD14448017800290DD0002101709D
:10310000E879002898D0401EE87191E7401CFDF74F
:103110005BF83D49401CA0E70121017088E7039856
:1031200070430102081A6421FCF7ECFF364980B2B3
:10313000891D01904880029870430102081A642199
:10314000FCF7E0FF304980B2891D0090888077430A
:103150003802C01B6421FCF7D5FF2B4982B2083925
:10316000486008460E30C28000990198FDF7F8FFCC
:10317000607A254F0602217A083F0E43384609300F
:103180007E60FDF721F8B04228D128792E7A70436D
:103190000102081A6421FCF7B5FF80B239460E31EE
:1031A00001904880687970430102081A6421FCF795
:1031B000A9FF80B239460E3100908880A87970430B
:1031C0000102081A6421FCF79DFF82B2786038463C
:1031D0000E30C28000990198FDF7C2FF0A4E701CA4
:1031E000FCF7F2FF711C401CFCF7F8FF617A237AB0
:1031F0000A0204991A434B7A0C7A19022143511896
:10320000796088428AD30EE7140000206000002015
:1032100010B507490878401CC0B208702C2801D3AB
:1032200000200870C0B2012100F026F810BD000097
:103230000E00002010B506490878002801D0401E75
:1032400000E02B200870C0B2022100F015F810BD7C
:103250000E00002070B514460D46064600F068F8D2
:10326000044B30025880290299802202DA80FDF74F
:1032700077FF70BD1A000020F8B5254E00270D46D7
:1032800004463770711C3846FCF7A8FFB01F7771F1
:103290002B2C03D92B2101700C4600E004701D4833
:1032A000002D027804D0012D05D0022D12D022E08D
:1032B000FF2A1BD01FE00020FF2A1CD1002C15D0B4
:1032C000641CE4B22C2C00D30024401CC0B22C2877
:1032D000F2D310E00020FF2A0DD1002C06D0641E8E
:1032E000401CC0B2E4B22C28F5D304E00022114601
:1032F0001046FDF735FF07490D220A3108462138EF
:10330000FCF72AFF03490A22881AFCF725FFF8BDBB
:10331000140000207700002010B5044909204870EF
:10332000881C00780021FFF7A7FF10BD0C000020CB
:1033300010B5002004490246C871C87208730146DE
:10334000FDF70EFF10BD00006000002010B5044C1A
:1033500000202070611CFCF741FF3220607110BD1D
:10336000140000201B2110B58902401800F0E0F97C
:1033700010BD1B2110B58902401800F0DDF910BD09
:103380001B2210B59202801800F0DAF910BD00007F
:1033900010B5C12189000248FCF7F7FE10BD0000FE
:1033A0000A010020F8B50020694608702A4F032062
:1033B00000023C186946012000F0C6F900284AD0F6
:1033C000684621880078785420880123401C80B208
:1033D0005B022080984201D300202080628880B266
:1033E000801AC005C00D0528E4D9B95C552905D15E
:1033F000511CC905C90D795CAA2906D0521C6280EE
:103400006088C005C00D6080D4E7911CC905C90D56
:103410007D5C2E1DB042F3D3D019E91CFFF7DEF915
:103420006188ED1C4A19D205D20DBA5C904209D0D0
:10343000491C6180FF2109A3022290311148FDF748
:10344000B5FDDDE70448FFF7F3F960888019C00592
:10345000C00D6080D4E7F8BD0A0100205B455252E0
:103460004F525D20202072656D6F746520636F6E12
:1034700074726F6C20636865636B206572726F7223
:10348000210D0A00573C0000F7B5044682B0FF2129
:103490001A481646002501310090FCF776FE009888
:1034A000552101701548AA21401C01701349701C58
:1034B000891C0870481C0470114F04240AE003980A
:1034C000415D3819FF30FF300230641C6D1C017003
:1034D000E4B2EDB2B542F2D3361DF1B20098FFF777
:1034E00059F93919FF31FF3102310870641CE2B219
:1034F0000120009900F04EF905B0F0BD0A0300204C
:103500000A0100207047000070B504462A490001F6
:103510002A4D401868600068804762000521A318A2
:103520000026287000286868027930D0052A01D268
:10353000017170BD0A2A02D2521C027170BD620074
:10354000817AA418641C002904D101218172E0B29F
:1035500000F0E0F8686801890029EFD0C2888A424B
:1035600007D2521C92B2C2808A42E7D1DB1CD8B289
:103570000AE0C17A0029E1D0027B521CD2B2027368
:103580008A42DBD30673E0B200F0C4F870BD052AAE
:1035900001D901710CE0002A02D0521E027107E02D
:1035A000817A012904D186729B1CD8B200F0B2F84E
:1035B0006868C680067370BD100400202C000020CF
:1035C000074A917AD07A814201D100207047505C3D
:1035D000491CC9B291720A29F8D30021917270472F
:1035E0003004002010B500F047F8FDF78DFAFEF723
:1035F000B9F9FDF727FF00F005F8FDF72FFDFEF7FD
:10360000B7F810BD10B500F015F8084C03220221E0
:103610002046FDF77FFC032204212046FDF77AFCBB
:10362000034801214162816210BD0000C04000508A
:103630004042005030B50D48002282720346C272EB
:103640006424203B0273114602250801C01804813E
:1036500005718272491CC272C9B202730229F4D385
:10366000034818600348186130BD00003004002092
:10367000650F0000790F000070B5FEF741F91A4D93
:103680002846FDF759F80124640600222146284601
:10369000FDF7EEF9164A154850609002FDF772FFEB
:1036A000E12149021348FEF7ABF86D1C2846FDF7EF
:1036B00043F8002221462846FDF7DAF9302005219B
:1036C000090788632012FDF75DFF0B4C4B210902AF
:1036D0002046FEF795F861681322114361600120CE
:1036E00006494003086070BD103D80A70303000039
:1036F00040000050000005400000154000E100E0DF
:1037000010B500242046FFF7FFFE641CE4B2022C33
:10371000F8D310BD0549CA7A8854C87A401CC0B293
:10372000C8720A2801D30020C872704730040020F4
:1037300010B5FDF769FB10BD10B5FDF78FFB10BD8F
:1037400010B5FDF7D9FB10BD10B5FDF7CFF9002876
:103750001FD00246012080F31088538B002080F395
:103760001088002B15D0148B93681B5D0B70012102
:1037700081F31088118B491C89B21183D389994236
:1037800000D31083508B401E5083002080F310889C
:10379000012010BDF8B515460E46FDF7A7F9040047
:1037A00030D0E069002800D08047002024E0A289C2
:1037B000012181F31088A18A6B461980002181F3D1
:1037C000108819888A42F3D9315C238A6268D154FF
:1037D000012181F31088218A491C89B22182A289A2
:1037E000914201D300212182A18A491CA18200219A
:1037F00081F31088401C80B2A842D8D302212068EF
:10380000FDF7FAFFF8BD002101E0491CC9B2814271
:10381000FBD3704700B50346FDF7C2FE184600BD56
:103820001FB50024FDF78CFEFDF7B0FBFFF7DAFEB5
:10383000734874A300680090052252217548FDF773
:10384000B5FB75A3052254217248FDF7AFFBFEF7C7
:1038500045FFFFF757FEFFF79BFDFFF7D3FA6E46D4
:10386000002500F07FF9007800281AD000F07AF9DE
:1038700005707448641C4078E4B2322805D30321F3
:103880003238FCF755FC0A3006E03221081A0621CE
:10389000FCF74EFC0A21081AA04202DA0024FFF7C6
:1038A000EDFA00F05FF98078002808D000F05AF9AE
:1038B0008570FFF725FFFFF775FDFEF725FF00F088
:1038C00051F90079002802D000F04CF9057100F0A0
:1038D00049F98079002802D000F044F9857100F0A0
:1038E00041F9807A00280DD000F03CF956498572E4
:1038F000486856A3401C486000900522972145481F
:10390000FDF754FBFFF75CFE0028AAD00300FEF78A
:1039100076F807050A061B541F5B0500A1E7052280
:103920004EA3A5214CE0FDF79BFD002801D04EA041
:1039300000E04EA000904EA30522A9213548FDF7D6
:1039400035FBFDF7A7FD8CE705224CA3AE2137E040
:103950004EA30522B1212F48FDF728FB3A480078F5
:10396000002827D14C4800950195029503950078D1
:1039700000071FD50027FFF74BFCF8216A4611709E
:103980000921517003219170F01C0821FFF76CFA96
:103990000B2106E0F219705C527880187F1C70547D
:1039A000FFB268464078401CB842F3D86846491CCC
:1039B000FEF7DAFE2448057053E7052237A3CA2133
:1039C0001448FDF7F3FA4CE738A30522CE2111483D
:1039D000FDF7ECFA1C49012008702F49086802071E
:1039E00005D5082290430860FFF7A2FC39E70822BA
:1039F0001043042290430860FFF78EFC31E700007B
:103A000054000020204350552040202564487A0D62
:103A10000A000000343C00002B2D2D2D2D2D2D2DC6
:103A20002D2D2D2D2D2D2D2D2D2D2D2D2D2D2D2DC6
:103A30002D2D2D2D2D2D2D2D2D2D2D2D2D2D2B20C5
:103A4000000000001A000020000000204920616DE5
:103A500020616C69766520256400000041434320A5
:103A60004B455920757000006F6E00006F66660050
:103A700072656C617920257300000000414343208A
:103A80004B455920646F776E000000004C45442080
:103A90004B45592075700000240000204C454420FF
:103AA0004B455920646F776E000000004C45442060
:103AB0004B4559206C6F6E670000000010B504463E
:103AC000016810A0FDF762FF11A06168FDF75EFFBD
:103AD00012A0A168FDF75AFF13A0E168FDF756FF99
:103AE00014A02169FDF752FF15A06169FDF74EFF93
:103AF00016A0A169FDF74AFF17A0E169FDF746FF8F
:103B000010BD0000723020203D20307825780A005A
:103B1000723120203D20307825780A007232202032
:103B20003D20307825780A00723320203D203078FF
:103B300025780A00723132203D20307825780A003D
:103B40006C7220203D20307825780A007063202098
:103B50003D20307825780A00707372203D2030783F
:103B600025780A00004870473E04002070B50C46D6
:103B7000054600F017F8400612D50021FC20FDF79D
:103B800049FC224629466120FDF7D4FBFDF73EFBA8
:103B9000FDF746FB0021FD20FDF73CFC012070BD38
:103BA000002070BD10B5072000F004F87021084017
:103BB00010BD000070B50C4C0021054621610120AC
:103BC000FFF721FE2846FDF76DFC00F011F80546D1
:103BD000012220210548FDF79DF90120FFF713FE82
:103BE00001212161284670BD004200500040005074
:103BF000F8B500240E4E254601270020F061012073
:103C0000FFF701FE6006040EF7610120FFF7FBFDE0
:103C10007069002800D03C436D1CEDB2082DECD338
:103C20000020F0610120FFF7EEFD2046F8BD000006
:103C3000004200506D61696E00FFFFFF00FF000051
:103C400000FFFF000000FFFFFF00FFFFFF0000FF7D
:103C5000800080FFFF80006170705F756172745F2B
:103C600070726F00454550524F4D5F496E69744800
:103C700061726400CCCCCCCCCC000000696E6600D4
:103C800064626700656D670077726E00657272002E
:103C900063727400B43C000000000020600000006B
:103CA000181A0000143D000060000020C809000040
:103CB000281A0000000000000000000000000000C2
:103CC00000000000000000000000000000000000F4
:103CD00000000000000000000000000000000000E4
:103CE0000000000000000000843C0000903C000048
:103CF0008C3C0000883C00007C3C0000803C0000C4
:103D0000008051010080510100000000000000000F
:043D100000000000AF
:04000005000000F106
:00000001FF
