:020000040000FA
:10000000200A0020F1000000F5000000D5000000EB
:1000100000000000000000000000000000000000E0
:10002000000000000000000000000000F9000000D7
:100030000000000000000000FB000000FD000000C8
:10004000FF000000FF000000FF000000FF000000B4
:10005000FF000000FF000000FF000000FF000000A4
:100060000D170000FF000000FF000000FF0000006F
:10007000FF000000FF000000FF000000FF00000084
:10008000FF000000FF000000FF000000FF00000074
:10009000FF000000FF000000FF000000FF00000064
:1000A000FF000000FF000000FF000000FF00000054
:1000B000FF000000FF000000FF000000FF00000044
:1000C0000348854600F08AFA00480047853700005B
:1000D000200A002004207146084202D0EFF3098074
:1000E00001E0EFF308807146004A10473D0F000021
:1000F00003480047FEE7FEE7FEE7FEE7FEE7FEE710
:10010000C100000030B50B4601460020202201242A
:1001100009E00D46D5409D4205D31D469540491B3B
:100120002546954040191546521E002DF1DC30BD84
:1001300070B500242546002801DA01244042002938
:1001400001DA01254942FFF7DDFFAC4200D0404211
:10015000002C00D0494270BD03460B439B0703D0DF
:1001600009E008C9121F08C0042AFAD203E00B787C
:100170000370401C491C521EF9D27047D2B201E0F4
:100180000270401C491EFBD270470022F6E710B5F2
:1001900013460A4604461946FFF7F0FF204610BDF5
:1001A00010B5044605E00B780370401C002B00D00E
:1001B000491C521EF7D2204610BD421C0178401C3B
:1001C0000029FBD1801A70470321001D401E0378CF
:1001D00012021A43491EF9D51046704703460322FE
:1001E0000870000A491C521EFAD518467047F0B52F
:1001F0001FB40646002082B00546402401910090BD
:100200001BE0019922460F46304600F009FA049A95
:10021000059B801A994110D310461946224600F0DA
:10022000EFF9361A8F410197224601200021009FE5
:1002300000F0E6F938184D4100902046641E002871
:10024000DFDC019B00982946324607B0F0BD000074
:10025000F0B507460846584087B0C00F04904800E4
:100260000E46590040084908BC1A884105D2384654
:1002700031461E4617460B460246580040081043BA
:100280004CD0300D039040055900400D490D0590AC
:10029000401A0290402872DA18030121000B090568
:1002A0000843019004980092002805D00199524219
:1002B0000020884100920190029840210A1A019979
:1002C000009800F09DF905460C466B4607CB00F000
:1002D000B8F9C0197141039A0E0D0023D717564083
:1002E0001A467A40164344D0049A002A2DD0029A26
:1002F000012A039A15DC1205C01A91410126360520
:10030000001C7141D20F059ED20700930192029604
:100310002A46234600F0B5F907B0F0BD384631460D
:10032000FAE71605224A0F46B218C01AB741012152
:100330000905001C4F4100187F41114618187941EA
:10034000E20F10436D19644113E0E2076D08154395
:100350006408C2071443039A01261205C01A91418A
:100360003605001C7141CE07400830434908C018CB
:1003700051412A46234600F077F9CDE7FFE704987C
:1003800001224000C117121A00238B410498314604
:10039000C417381AA141EEE730B40124E4076340E2
:1003A00030BC55E730B40124E407614030BC4FE76E
:1003B0000000E0FFF0B51FB488B00B990998002445
:1003C00048400999C00F490049080991C0070B9995
:1003D0000090490049080B9109990898A6460843DE
:1003E0001CD00B990A98084318D0099801244000A2
:1003F000420D4800410D099824050003000B2043DD
:1004000009900B980003000B20430B9050181C49D7
:100410004018002201901446104605E000200146D5
:100420000DB0F0BD032801DA034600E003239C462B
:10043000C11A0AAE0AE05F0008ADED5B4F00F75B42
:100440007D430027AA187C41491C5B1E6145F2DDF3
:10045000410004AB5A522104120C0A43240C401CE4
:100460000828DFDB01980290009970460191009006
:10047000059B049A0799069800F003F9D0E700005D
:100480000DFCFFFFF0B50C465C4085B0E40FE407BF
:1004900003944C000026640859009446490802461B
:1004A0000296224321D062460A431ED06200570DB5
:1004B0004A000E032303550D012402462C4924054E
:1004C000781B1B0B360B40182343264361460090D4
:1004D0001C46501AB44103D30098401C009002E01F
:1004E000921800985B41002803DA0020014605B00D
:1004F000F0BD0020012109050746864611E064464B
:100500001D46141BB54106D36546521BB3417446C4
:1005100007430C43A646CD074008490828439218D4
:100520005B4105460D43EAD11046184313D060469F
:10053000194650407140084306D06046101AB34136
:1005400006D20122002306E000220123DB0702E09D
:100550000122D2435310009874460105381C6141B2
:10056000029C039D0019694100F07EF8BFE700007E
:10057000FD0300004A0009030123090B1B05194371
:100580000A4B10B5520D9A4202DA0020014610BD06
:10059000064B34339A4203DC9A1A00F041F810BD3E
:1005A000034BD21800F02CF810BD0000FF03000030
:1005B000CDFBFFFF10B5002904DB0124E407404216
:1005C0008C412146002B04DB1C460123DB075242F1
:1005D000A341994200D1904210BD0000064C012574
:1005E000064E05E0E36807CC2B430C3C98471034DB
:1005F000B442F7D3FFF768FDD83B0000F83B00009A
:1006000010B5202A04DB0146203A9140002010BD9D
:10061000914020239C1A0346E3401943904010BDAB
:1006200010B5202A04DB0846203AD040002110BD36
:100630000B46D340D0402024A21A914008431946CB
:1006400010BD10B5202A06DBCB170846203A104112
:10065000C1170B4306E00B461341D0402024A21AD9
:1006600091400843194610BD10B5002B08DA00244C
:10067000401C614192185B411A4301D1400840007F
:1006800010BDF0B51FB482B005460C0003D008467B
:1006900001F048F902E001F045F9203002460090EF
:1006A00021462846FFF7ACFF049B059A04460F46F7
:1006B00018431143084314D0184610431BD0009828
:1006C00040210A1A18460599FFF7AAFF05460E466B
:1006D000009A05990498FFF793FF084305D001207D
:1006E00004E02046394607B0F0BD0020C11705439D
:1006F0000E432C43374300990E986305401A790541
:10070000E40A00220C43FD0A0A3002D5002001460B
:10071000E9E70105101969410C9C0D9D001969411B
:10072000FFF7A2FFDFE700000248016AC2011143A0
:100730000162704700020050C10F8A00044951183D
:100740004A68C306DB0E0120984002434A607047A6
:1007500000020050F3B585B00C46FFF7E5FF0598A1
:1007600000287148016813D0042211430160102051
:1007700000F0A6F90120C00403906C480190042009
:1007800002906B486B49201888420ED800271CE065
:1007900089088900491C0160012000F091F90020BE
:1007A0000390654801900220EAE7644863492018F5
:1007B0004942884202D80127640006E060482118B7
:1007C000404281427BD20327A4000025ED43029ED4
:1007D00022E031460198FFF795FC5A4984464118BA
:1007E0005948814217D2534B02215B1C5048624644
:1007F0004A43401C1018984209D8A24201D9101B44
:1008000000E0A01AA84202D2050000910BD04F4888
:10081000491C8142EAD9761C212EDAD9002604959A
:10082000F643029D51E00398B9030143012072028F
:100830008002101A01430098801E01433A48016269
:10084000042000F03DF9791C714331E029460198FC
:10085000FFF758FC3B49844641183B48814233D25C
:10086000344B02215B1C324862464A43401C10183C
:10087000984225D8A24201D9101B00E0A01AB0422C
:100880001ED2049A06460091904219D10399B803EA
:10089000084301216A028902511A08430099891EFE
:1008A000084321490862042000F00AF9791C6943D1
:1008B0000198FFF727FC0099484307B0F0BD06E018
:1008C0002248491C8142CED96D1C212DBED90598E4
:1008D00000280FD01E4914480162042000F0F0F8EF
:1008E0001CA0006800901048016A0013014203D068
:1008F0000020E2E71849EEE7080301D50B4800E0C5
:100900000D488A03D9D40A04920F6B469B5CCA0532
:100910008904D20DC90E891C8008921C594350438A
:10092000FFF7F0FB8000C8E7000200500080510193
:10093000FF1E0AFAFFE0F505001BB700800F05FD5A
:10094000C08782FEFF95E7FFBF77CC000102000061
:1009500018440800010202041640000004498207FE
:100960000A6801D09208920002430A6070470000B2
:100970000002005008B511A0006800901048016AFC
:100980000013014201D0002008BD080301D50D4825
:1009900000E00D488A03F7D40A04920F6B469B5C73
:1009A000CA058904D20DC90E891C8008921C5943BE
:1009B0005043FFF7A7FB800008BD000001020204BE
:1009C0000002005000805101001BB700F8B51D4D1A
:1009D0000446EE68102006401B48844202D84010AE
:1009E000844200D204462868042738432860102037
:1009F00000F066F82869072108432861A869000902
:100A00000001A86128688007800F01280ED06100CE
:100A10007804FFF79FFEEE6804461020064001218F
:100A2000022000F013F8002E06D008E0610000203C
:100A3000FFF790FE0446F2E72868B8432860600894
:100A4000F8BD00000002005080F0FA0210B5074A1D
:100A500093691B091B010B4393611169C908C90004
:100A60000143116100F0AAFD10BD0000000200501A
:100A700070B5430E1B070DD043009B0F0F4C9B001E
:100A80001B191C68C5002D0FC601F60EB540AC43FE
:100A90000C431C60830A1906090E0DD00103074C94
:100AA000890F8900083409190C688005DBB2C00E73
:100AB00083409C4314430C6070BD00001002005042
:100AC00010B504460749084B05E00A46491E002AAE
:100AD00001DC002010BDDA6820469043F5D10120EA
:100AE00010BD000080F5200000020050002803D057
:100AF000012803D000207047024870470148A83001
:100B000070470000440400207CB559203C4D16225B
:100B1000882128602A6029602B68002BF9D000F01A
:100B200095F938A305221321414800F043FA00F05B
:100B300083F9002860D03FA3052217213C4800F02C
:100B400039FA05223DA31821394800F033FA00F0A4
:100B500093F9009048A305221D21354800F02AFA98
:100B600000F09EF9009051A305222021304800F0AA
:100B700021FA0320000500F071F9009058A3052226
:100B800023212B4800F016FA624800F067F9009024
:100B900061A305222521264800F00CFA00242046F6
:100BA00000F09CF9019069A305222C2100942048B3
:100BB00000F000FA641CE4B2032CF0D300242046B9
:100BC00000F07CF901906FA30522322100941848AF
:100BD00000F0F0F9641CE4B2042CF0D300F05AF9F0
:100BE000009076A305223821114800F0E3F900F0C7
:100BF00003F9002028607CBD05227DA31521A3E711
:100C0000000100502020426F6F74204D6F646520FA
:100C10002E2E2E2E2E2E2E2E2E2E2E2E2E2E2E2EF4
:100C20002E2E2E2E2E2E2E2E2E2E2E2E2E2000004E
:100C3000A83B00005B4C44524F4D5D0020205741C3
:100C4000524E494E473A2054686520647269766571
:100C5000722073616D706C6520636F6465206D75C3
:100C60007374206578656375746520696E204150E2
:100C7000206D6F64652100002020436F6D70616EF0
:100C800079204944202E2E2E2E2E2E2E2E2E2E2E24
:100C90002E2E2E2E2E2E2E2E2E2E2E2E2E2E2E2E74
:100CA0002E205B3078253038785D0000202050728F
:100CB0006F64756374204944202E2E2E2E2E2E2E06
:100CC0002E2E2E2E2E2E2E2E2E2E2E2E2E2E2E2E44
:100CD0002E2E2E2E2E205B3078253038785D0000A9
:100CE00020205573657220436F6E6669672030203F
:100CF0002E2E2E2E2E2E2E2E2E2E2E2E2E2E2E2E14
:100D00002E2E2E2E2E2E2E2E2E205B307825303895
:100D1000785D000004003000202055736572204388
:100D20006F6E6669672031202E2E2E2E2E2E2E2ECF
:100D30002E2E2E2E2E2E2E2E2E2E2E2E2E2E2E2ED3
:100D40002E205B3078253038785D00002020556EED
:100D500069717565204944202564202E2E2E2E2E83
:100D60002E2E2E2E2E2E2E2E2E2E2E2E2E2E2E2EA3
:100D70002E2E2E2E2E2E205B3078253038785D0AD0
:100D8000000000002020556E697175652043757361
:100D9000746F6D6572204944202564202E2E2E2EFE
:100DA0002E2E2E2E2E2E2E2E2E2E2E2E2E2E205B44
:100DB0003078253038785D0A00000000202044613A
:100DC000746120466C6173682042617365204164E0
:100DD0006472657373202E2E2E2E2E2E2E2E2E2E06
:100DE0002E2E2E2E2E205B3078253038785D0A008E
:100DF0005B4150524F4D5D0002480168490849006F
:100E00000160704700C000500A492222CA60486051
:100E1000012008610869C007FCD10868400606D5B2
:100E200008684022104308600020C043704700203B
:100E30007047000000C0005003480068800701D5DB
:100E4000012070470020704700C000500248016830
:100E5000012211430160704700C000500549002283
:100E6000CA604860012008610869C007FCD1886831
:100E70007047000000C0005005480B21C1600021F0
:100E80004160012101610169C907FCD18068704797
:100E900000C00050014840697047000000C0005089
:100EA00005480C21C16004214160012101610169F3
:100EB000C907FCD18068704700C000500649042271
:100EC000CA60800010304860012008610869C007CE
:100ED000FCD188687047000000C00050054904221A
:100EE000CA6080004860012008610869C007FCD121
:100EF0008868704700C00050054A2123D3605060C5
:100F00009160012010611069C007FCD1704700009A
:100F100000C00050F0B5002301273C469C400C4225
:100F200008D005685C000326A640B5431646A640D7
:100F3000354305605B1C082BEFD3F0BD044603A0CE
:100F400000F0CEFC204602F05BFDFEE7496E204833
:100F5000617264204661756C742048616E646C65D2
:100F6000720A000003490020496A002900D10120CB
:100F7000704700004042005003490020896A002960
:100F800000D10120704700004042005010B50146DA
:100F900007220448FFF704F902480021C17181606B
:100FA00010BD000014070020014988607047000050
:100FB000140700200FB4F8B5204D164628460F46FA
:100FC00000240C38FFF7F9F8002833D028460C38F5
:100FD0008068B0422EDB002E2CDB1949B000095886
:100FE0003B4618A0069A00F07BFCFF210131284601
:100FF000FFF7CBF80AAA2846099900F081FC4019AE
:10100000401B2946FF2803DD0846FFF7D6F80124D8
:101010002846FFF7D2F8FF2800D1012429460DA069
:1010200000F05EFC002C02D00BA000F059FC0CA0DC
:1010300000F056FCF8BC08BC04B01847200700209C
:101040002C0000205B25735D202573282564293A38
:101050002000000025730000202E2E2E000000002E
:101060000D0A000070B5374800F08AFA364C204669
:10107000FFF762FB354D2846FFF75EFB012100229A
:1010800049072046FFF7F4FC002220212846FFF7FD
:10109000EFFCA006416B07229206114341632D4CE1
:1010A0002B48A0602068000A0002C01C2060606815
:1010B000C008C000001D60602068000A0002C01C5B
:1010C0002060606870218843403060602068FF21A4
:1010D00009048843032109044018206060689112C4
:1010E00088430121890440186060A16850010143D0
:1010F000A160A1680143A160A1680143A160012131
:10110000204600F069F80221204600F065F8102121
:10111000204600F061F80121204600F065F8022128
:10112000204600F061F81021204600F05DF80A48E2
:1011300060620A48E0600A49A1622061094961636E
:10114000E06170BD140000041400C0A7160040E662
:10115000990009000000044010270000FFFF000074
:10116000204E000050C30000F8B50F460C4916464B
:101170000C7864216043FEF7C5FF0A4D80B2A86277
:10118000204678436421FEF7BDFF80B268622046A6
:1011900070436421FEF7B6FF80B26863F8BD0000BB
:1011A000120000200000044010B50A4B0A281870F5
:1011B00001D20A201870D8799979020258790A4325
:1011C00001021C79D8789B78000221431843FFF76D
:1011D000CBFF10BD120000200248C2690A43C26161
:1011E000704700004000044030B500221046012442
:1011F000234683400B4203D085002346AB401A436D
:10120000401C0628F4D3024988681043886030BD2A
:101210000000044010B50021E12000F0F9F80021A1
:10122000E22000F0F5F810BD10B57021272000F085
:10123000EFF810BD00B539A003C887B00090019148
:1012400038A00068049038A003C80391029038A029
:101250000068059037A0006806905A21532000F0DE
:10126000D7F8A521532000F0D3F820213D2000F02D
:10127000CFF80021FC2000F0CBF80021E12000F0A5
:10128000C7F80021E22000F0C3F87021272000F009
:10129000BFF80121222000F0BBF80321232000F039
:1012A000B7F84E21252000F0B3F81021312000F0CE
:1012B000AFF805222049302000F094F805221E499D
:1012C0002A2000F08FF8052269463F2000F08AF8B6
:1012D000062202A93A2000F085F8012205A939204A
:1012E00000F080F8032204A93E2000F07BF80322DE
:1012F00006A93B2000F076F800213C2000F088F899
:101300003F21262000F084F80021242000F080F8FE
:101310000021212000F07CF807B000BD0A6D679C19
:1013200046000000F6375D004521EFAC5A50000042
:10133000010000000BDF0200B83B0000F8B50E46CC
:101340000B4F00211546396100F0AAF8002404E093
:1013500002F0F0FB3055641CE4B2AC42F8D3012239
:1013600020210448FFF7D6FD01203861F8BD0000B8
:10137000004200500040005010B50021FC2000F059
:1013800047F88F21202000F043F80021FD2000F0D5
:101390003FF8C82002F0E9F910BD70B50C460546CB
:1013A00002F0A2FB00280FD122462946A02000F01F
:1013B00019F80021FD2000F02BF80A2002F0D5F9E1
:1013C0000021FC2000F024F870BD10B50021FC20A5
:1013D00000F01EF88E21202000F01AF80A2002F0FA
:1013E000C4F910BDF8B50E46084F00211546396105
:1013F0000C4600F07FF804E0305D00F07BF8641CE0
:10140000E4B2AC42F8D301203861F8BD004200508C
:1014100070B50546094C00200E462061012002F0FF
:10142000A4F9284600F066F8304600F063F8012081
:1014300002F09BF90120206170BD000000420050C5
:1014400010B5012211460348FFF764FD0249002050
:10145000086210BD40400050004200500148006A40
:10146000C0B2704700420050014900200862704736
:1014700000420050014901200862704700420050BC
:101480000249002800D00120086270470042005045
:101490000248016AC94301627047000000420050DF
:1014A000F8B50024114E05462746F761012002F0E9
:1014B0005CF9280602D50120706100E077616806BA
:1014C000050E0120F06102F050F9012002F04DF903
:1014D000641CE4B2082CE8D3002220210448FFF762
:1014E00019FDF761012002F040F9F8BD00420050FB
:1014F00000400050F8B500240F4E05462746F7611E
:10150000012002F032F9280602D50120706100E0C6
:1015100077616806050E0120F06102F026F90120CE
:1015200002F023F9641CE4B2082CE8D3F76101202F
:1015300002F01BF9F8BD00000042005010B5592020
:101540000D4C162288212060226021602368002B28
:10155000F9D00420FFF702FA1020FFF7B1FA0021BA
:101560000720FFF773FA0548FFF730FA00F026F876
:101570000020206010BD00000001005080F0FA0241
:10158000010E8A000521090751188B68012282404B
:1015900013438B60886890438860704706498A6966
:1015A0001202FCD408600A2804D188690002FCD425
:1015B0000D2008607047000000000540F8B522A02B
:1015C0000068224E0090316A3013214C214D0142B7
:1015D00001D0002118E0080301D5204600E028468C
:1015E0008A0301D501460FE00A04920F6B469A5C0C
:1015F000CB058904DB0DC90E891C80089B1C514357
:101600005843FEF77FFD8100134F39603069400772
:10161000400F12D0022812D0032812D02046B16900
:101620000907090F491CFEF76DFD0C4978604A1047
:101630008018FEF767FDB860F8BD2846EFE708465A
:10164000EDE70748EBE7000001020204000200504A
:1016500000805101001BB7004800002040420F00ED
:10166000102700000F4A10499042486901D1000A32
:1016700000E0000B4007400F06D001280ED00228E2
:101680000ED00A480068704708688007800F01285C
:1016900002D00120C00370470548704705487047D5
:1016A0000548EFE700000140000200504400002020
:1016B000001BB700102700004C000020F8B51346AF
:1016C0000F460646FFF7CEFF044600254008984225
:1016D00001D2022010E0012149068C4202D30325E9
:1016E000A40805E0012109068C4201D30125044626
:1016F00019462046FEF706FD2F43376070606D1CCB
:10170000684301462046FEF7FDFCF8BD10B5154BB9
:101710000120187059780022491CC9B259700A2951
:1017200001D35A709870D978491CC9B2D97064290C
:1017300001D3DA7018715979FF24491CC9B2F53404
:101740005971A14201D35A71987119897D24491C9C
:1017500089B2E4001981A14201D31A819872024929
:10176000886010BD360400200000014010B50C2137
:101770001148FEF70AFD1148FFF702FF104C204602
:10178000FEF7DAFF0721002209022046FFF770F971
:10179000A1060C4C7D22D2002046FFF78FFF206867
:1017A00061030843206048150749086020688905DF
:1017B0000843206010BD0000360400200200000431
:1017C000020080AE0000014000E100E042680A43F0
:1017D0004260704770B51B4E0D460446716900208B
:1017E00089010322890F2063E260A06000291FD0D5
:1017F00001291FD0022901D313480068B1690905E6
:10180000090F491CFEF77EFC0646002D19D068081A
:1018100080192946FEF776FC0C49801E88420CD9B7
:10182000E80080192946FEF76DFC0009801E07E0DC
:101830000748E3E7FFF79EF8E0E7032109070843BD
:10184000606270BD0002005044000020FFFF0000F5
:10185000001BB70016491548086008462830486044
:101860004030886040208881C881002008824882FA
:10187000C882088348838882C861086248620D4A2A
:10188000A8310A600A4628324A60FF3201328A6073
:10189000FF2201328A81CA8108824882C882088375
:1018A00048838882C861086248627047000005402A
:1018B000440400200000154010B5084C012280218E
:1018C0002046FFF727FB012210212046FFF722FBCD
:1018D000012220212046FFF71DFB10BD00400050D3
:1018E0000FB410B503A9044B044A029800F008F99C
:1018F00010BC08BC04B01847793700005400002021
:1019000037B514460846064B6A46214600F0F8F8FB
:1019100004466946002000F08FFC20463EBD0000D2
:10192000392200002021020C01D010211046020AA9
:1019300001D010460839020901D01046091F82085B
:1019400001D01046891E420801D0881E7047081A2F
:10195000704730B47446641E2578641CAB4200D2D4
:101960001D46635D5B00E31830BC184702E008C801
:10197000121F08C1002AFAD170477047002001E009
:1019800001C1121F002AFBD170470000F0B51FB43F
:1019900086B00998089A030D0021024314D05148DB
:1019A000514A1818504305141198012810981AD05C
:1019B000281A401C00264D4F4D4900960191049075
:1019C000002812DA444211E01198012449A30128A9
:1019D00001D11098C1430698119A84600360C260D7
:1019E00041600BB0F0BD4042E4E704462105002011
:1019F0003F4A001C51410391029012E0E00707D0DA
:101A000032463B4601990098FEF7D4FC01910090C4
:101A100032463B4610461946FEF7CCFC06460F46BA
:101A20006410002CEAD10498039B0028029A0999BB
:101A3000089806DAFEF7BEFC019B009AFEF7BAFC96
:101A400005E0FEF71FFD019B009AFEF71BFD044613
:101A50000E460022284BFEF7ADFD03D80020C04300
:101A6000014607E00022254B20463146FEF7F0FBF9
:101A7000FEF780FD102409E0002C0ADB0A22002377
:101A8000FEF7B5FB079B30321A55641E02460A4327
:101A9000F2D11122641C079B121B1C19119B012BF4
:101AA00003D0012308430ED10AE0084304D01120DB
:101AB00010900020119077E71098151A6D1E0BE01A
:101AC0001098824202DD00236D1C03E0824201DA9D
:101AD00000236D1E002BEED0069811998260C16024
:101AE00030C07EE701FCFFFF104D000000001440F5
:101AF0000000F03F300000000000F0430000E03F35
:101B0000FFB597B00646002518E2252877D10024B6
:101B10002746FD49049400E00443761C32780120F6
:101B2000203A90400842F7D130782A280ED002227D
:101B3000307801463039092916D804990A235943C7
:101B4000303940181443761C0490F1E7189802C805
:101B500004911890002904DA01204003044348420C
:101B6000049002200443761C30782E2814D10420DF
:101B700004437078761C2A2809D11898761C80C8EE
:101B8000189009E00A214F43303FC719761C30787E
:101B9000014630390929F5D930786C2810D006DC97
:101BA0004C281AD068280ED06A2817D104E074286F
:101BB00013D07A2812D110E00120400504430CE034
:101BC0000121090501E0032109050C4371788142D7
:101BD00003D1012000052418761C761C3078119062
:101BE00066280BD013DC58287DD009DC00287BD078
:101BF0004528F6D04628F4D047281AD1A5E118E0A8
:101C0000632835D0642870D0652812D19DE17028F2
:101C10006CD008DC6728F1D069287BD06E280DD005
:101C20006F2806D1BAE073282ED0752871D0782895
:101C300059D01A9A199990476D1C7EE16002400FA5
:101C4000022809D003280DD00428189801680DD067
:101C50000D60001D189070E11898EA1701680D607A
:101C60004A60F6E7189801680D80F2E70D70F0E71A
:101C700018986A4601781172001D18900020507261
:101C800002A80090012005E0189802C818900020D2
:101C90000091C04361070DD5002101E00199491C65
:101CA0000191B94212DA8142F8DB009A515C0029B5
:101CB000F4D10BE0002101E00199491C019181421E
:101CC000FADB019A0099895C0029F5D10199049801
:101CD0001A9B471A21463846199A00F097FA01993B
:101CE000401945180BE04FE02CE113E04EE000985E
:101CF00000990078491C00911A9A19999047019807
:101D0000401E0190401CF2D1214638461A9B199A78
:101D100010E137E00A200021009001916002410F9C
:101D2000022907D0189A01CA1892C21794460329AB
:101D300008D00AE01898C01DC108C90005C918914B
:101D4000944607E000B2C2179446042902D140B27B
:101D5000C1178C4600226146944506DA0A460021E6
:101D6000404291418C462D2102E0210504D52B21D2
:101D70006A461173012103E0E10701D02021F7E752
:101D8000029155E00A200AE0102008E0102000909F
:101D90000021042004430191082703E008200021CA
:101DA000019100906002410F022907D0189A01CAE0
:101DB000189200229446032908D008E01898C01D04
:101DC000C108C90005C91891944603E080B20429EE
:101DD00000D1C0B200210291210729D511997029A3
:101DE00006D0009A1021019B4A401A4305D00EE00C
:101DF00040216A461173012108E06146014306D083
:101E000030216A4611731199517302210291009A8F
:101E10000821019B4A401A430AD16146014301D17E
:101E2000610705D530216A46117301217F1E029199
:101E30001199582904D035A10E910DA90D910DE0ED
:101E400037A1F9E76146019B009AFEF7D0F90E9B96
:101E50008C469B5C0D9A521E0D9213706146014395
:101E6000F0D10D9805A9081A20300190600703D51C
:101E700001200004844300E001270198874201DD2E
:101E8000381A00E0002001990090411802980918C2
:101E90000498401A0490E00306D421461A9B199A2C
:101EA000049800F0B3F94519002706E003A81A9A30
:101EB000C05D199990476D1C7F1C02988742F5DB25
:101EC000E0030CD521461A9B199A049800F09EF95C
:101ED000451904E01A9A3020199990476D1C009911
:101EE000481E00900029F5DC08E00D980D99007857
:101EF000491C0D911A9A199990476D1C0199481E19
:101F000001900029F1DC63E109280100303132330E
:101F10003435363738396162636465660000000025
:101F2000303132333435363738394142434445460F
:101F30000000000000F05AF94519761C307800289E
:101F400000D0E2E528461BB0F0BD600700D40627AC
:101F50001898C01DC108C90048680A680831C30F35
:101F6000DB071891190001D09CA108E0210501D5DB
:101F70009BA104E0E10701D09AA100E09AA14300EF
:101F800011985B08109165280CD006DC452809D013
:101F900046281DD0472841D141E0662818D067283F
:101FA0003CD13CE00021112F01DB112000E0781C26
:101FB0000191009008A911A8FFF7E8FC1399059179
:101FC0000021119A15927F1C12980197009150E000
:101FD0000120C00703900120019008A9009711A8D3
:101FE000FFF7D4FC139A149905920022119B0092DA
:101FF00012981593059A0192002901D0104602E02B
:10200000791C40180190381A01D5019804E040422B
:10201000401E0090781C0190C01B029043E0012FED
:1020200000DA01270021112F01DD112000E03846E0
:102030000191009008A911A8FFF7A8FC1399059138
:10204000119A0021129815920091019721070CD442
:102050000599B94201DB019900E00191012904DDF4
:10206000159A491E515C302906D0B84201DA011D8B
:1020700005DA0121029115E00199491EEDE70028DA
:1020800005DC0099411800910199091A03E0019AB1
:10209000411C914200DD01910099401A401C0290C0
:1020A0000120C0070390200706D4029901988142BD
:1020B00002DB0020C043029000206946C87707AFCA
:1020C000012103980337C907884224D002201190C8
:1020D0002B201290039800280CDA404203902D2008
:1020E000129007E00A210398FEF70CF830317F1EAA
:1020F000039039701199481E11900029F2DC039861
:102100000028EFD1791E12980870307820210840FD
:102110004530BF1E387006A8C01BC01D0390109824
:102120000078002800D00120019941180298C017BA
:102130000918039809180498401A401E0490E003F7
:1021400006D421461A9B199A049800F05FF84519A5
:1021500010980078002803D01A9A199990476D1C9E
:10216000E00324D521461A9B199A049800F04EF8F2
:1021700045191CE00098002807DB00990598884263
:1021800003DD1598405C199901E0199930201A9ADD
:10219000904700986D1C401C00900298401E0290D1
:1021A000002804D11A9A2E20199990476D1C019984
:1021B000481E01900029DDDC05E038781A9A7F1C62
:1021C000199990476D1C0399481E03900029F4DC6F
:1021D00021461A9B199A0498ACE600002D000000D5
:1021E0002B0000002000000000000000F8B50446AD
:1021F00000251E461746880404D405E039462020F1
:10220000B0476D1C641EF9D52846F8BDFFB50446DD
:10221000002581B01E46C80301D5302700E02027E5
:10222000880404D505E038460399B0476D1C641E48
:10223000F9D5284605B0F0BD0A68531C0B60107034
:1022400070470000F8B5074600203A780146F22AA8
:102250004ED17A78102A4BD8531C05E03C1864788C
:102260006118401CC9B2C0B28342F7D8B81C105CD8
:1022700088423DD11021EB48FDF787FFEA4804264C
:102280000168BB780A46B2430092E84A00245278BB
:10229000E44D572B75D02CDC092B55D009DC1A46A0
:1022A0001300FFF756FB097E4D84ADC23E11FD8041
:1022B0007E00532B76D00BDC352B19D0502B72D0EF
:1022C000512B71D0522B13D10022114606200DE163
:1022D000542B6AD0552B69D0562B09D1D349642A87
:1022E00006D80A32D0B24870642801D364204870FE
:1022F000F8BD602BFCD00BDC1E46CC49583E09785B
:102300003300FFF726FB07EFEEEDECEBEAE94E00BA
:10231000722BEDD009DC612BEAD0702B10D0712B21
:10232000E6D1002211460520E0E0732B7DD07E2B04
:10233000DED0B92BDCD1CA0778D04908490092E039
:10234000002211460120D1E0F878012804D00228AB
:1023500005D0032806D007E0FFF78CF804E0FFF76C
:1023600083F801E0FFF794F8F820287002246C70DD
:10237000B8780126A870FFF771F8002802D0EE7037
:1023800001E0FBE0EC700424002006E02A18295D3F
:1023900052788918401C2955C0B26978491C81427D
:1023A000F4D838E159E09EE026E0A2E0DFE0044600
:1023B000C80721D000F062FF2068B043206000070A
:1023C00096D500F0E9FEF8202870092068700220F8
:1023D000A870E81C082100F0F9FC0B24002106E09D
:1023E0006A18285D52788018491C2855C9B2687847
:1023F000401C8842F4D82AE000221146022075E0F1
:102400000446C80729D000F039FF2068B043206097
:102410000007D5D500F0AEFEF820287009206870BE
:102420000320A870E81C082101E04DE019E000F04D
:10243000CDFC0B24002106E06A18285D5278801834
:10244000491C2855C9B26878401C8842F4D8641CDD
:102450002146744800F032F9DDE0002211460320E5
:1024600044E0012211430160F82129700B216970B9
:10247000B921A97000780524C107C90FE9700007C8
:10248000C00F2871681D082100F0A0FC00212A1946
:102490002023505C002801D0FF2800D1535400E0D5
:1024A00016E0491CC9B20829F3D30020083406E01D
:1024B0002A18295D52788918401C2955C0B26978BC
:1024C000491C8142F4D8C2E70022114604200DE0E5
:1024D00000221146072009E07FE075E071E064E02A
:1024E0005CE058E051E000221146082000F07EFF39
:1024F000F8BD04460A070820002A07DB01433143E0
:1025000021600021084600F069FE05E08143B143E7
:102510000143216000F0BEFEF82028700A21697096
:102520000120A870207804240007C00FE870281D3F
:10253000082100F04BFC00212A192023505C0028C0
:1025400001D0FF2800D15354491CC9B20829F5D342
:102550000020083406E02A18295D52788918401CAA
:102560002955C0B26978491C8142F4D86FE70099B7
:10257000016000F083FE00F0FDFDF8BD3143016015
:102580000021084600F02AFEF8BD28480A2AFBD39D
:102590000A3A4270F8BD00F0B5FBF8BD0099016041
:1025A00000F06CFE00F0F8FDF8BD204A642906D862
:1025B0000A31C8B21070642801D3642010701078FA
:1025C00008E000F0B9FBF8BD18480A2901D30A3920
:1025D00001700078FEF7E8FDF8BDFEF759FFF8201E
:1025E000287002246C7009200126A870FEF736FFBF
:1025F000002801D0EE7000E0EC700424002006E01A
:102600002A18295D52788918401C2955C0B269786A
:10261000491C8142F4D8002CDED0611C014800F036
:102620004DF8F8BDF10000201C0000201200002031
:1026300010B508490020087010210748FDF7A5FDD6
:10264000054810211030FDF7A0FDFEF7F3FDFEF761
:1026500093FE10BD1A000020E100002010B5154CBB
:10266000207800281AD001F03FFA102811D0202835
:1026700006D040280DD010210F48FEF78EFE10BD69
:10268000FEF7C8FDFEF7D0FD00202070FEF774FEB7
:1026900010BDFEF7BFFDFEF7C7FD10BD06481021B7
:1026A000103801F005FA0028F7D003481038FFF77A
:1026B000C9FD10BD1A000020F100002070B50D46C4
:1026C0000646FEF782FE0A4C0120207010210948C0
:1026D000FDF75BFD2A4631460648FDF73DFD10211A
:1026E0000448FEF75AFEFEF747FE0020207070BD3A
:1026F0001A000020F100002070B500260F4B8C243A
:102700001E7013E002781D786A401A705E70401CDB
:102710001A78D50702D05208624000E052081A70B9
:102720005A78521CD2B25A70082AF1D30A46491E6E
:10273000C9B2002AE6D1187870BD0000010000205F
:10274000F0B5134D00242C701BE004782E78521C39
:10275000744092B2401C2C709A4201D30022C01ADD
:1027600000246C708C262C78E70702D06408744033
:1027700000E064082C706C78641CE4B26C70082C67
:10278000F1D30C46491E89B2002CDED12878F0BD69
:1027900001000020F0B587B0002405460320009416
:1027A00001940294000203942E187388FA49D81CED
:1027B000C005C00D0F78F94A285C791E12684128BF
:1027C0007ED020DC35287CD00FDC122859D031286F
:1027D00078D0332877D034282DD1F8206B46187064
:1027E0005F703420987003200FE236286CD03728B1
:1027F0006BD038281FD1F8206A46107057703820E7
:1028000090700320FCE0E54904270968B943642877
:1028100078D012DC542876D0572875D0622874D02E
:10282000632808D11B1DD805C00DDD492A5C0A703C
:10283000285CFEF7B9FC07B0F0BD65287ED066289D
:102840007DD0F028F7D1002069460490087C11075C
:10285000C90FC90108435107C90F890108436946D7
:102860000874FEF7FBFD002800D001206946497C72
:10287000022208436946487404A9F02000F0B6FD1E
:10288000D9E70C33D805C00D2C5C742005902B2C97
:10289000D1DCC44801680822114301605921162285
:1028A0008823C14801600260036000680028F8D0F6
:1028B000FEF7CCFA002C13D1B7480A21417005E08D
:1028C00074E1FDE0AFE0D1E01EE141E100277802D4
:1028D00000F0FAFCB0487F1C4078FFB28742F6D384
:1028E0007088AD490D30C005C00D285C0027000779
:1028F000000F48800D2148430A30C0B20490800880
:1029000006902BE0DAE190E1C1E1C6E10598B9005B
:10291000604343187088391D4118C905C90D6A5CA8
:10292000791D4118C905C90D695C09021143BA1D19
:102930008218D205D20DAA5C120401E0C5E1D1E1F2
:102940000A43F91D4018C005C00D285C010611435B
:10295000184600F0C7FC7F1C0698FFB2B842D5D8D5
:102960000498800731D0049905988A086043920042
:102970008018049B002184469F070846BF0F1FE074
:10298000002804D0012809D0022817D10EE073884E
:10299000111D5918C905C90D695C0FE073889B1892
:1029A0005B1DDB05DB0DEB5C1B0206E073889B18EF
:1029B0009B1DDB05DB0DEB5C1B041943401CC0B207
:1029C0008742DDD8604600F08DFCFEF715FA7649A7
:1029D00000200860734801680822914301606E4836
:1029E00001224470411C122048E77388271DDB191F
:1029F000DB05DB0DEB5C1354401C641CC0B2E4B27D
:102A00008C42F2DB002106E05418135C64781B1939
:102A1000491C1354C9B253785B1C8B42F4D8401C38
:102A2000C1B2104630E1F8206A461070577031206C
:102A3000907003200AE07388271DDB19DB05DB0D8E
:102A4000EB5C1354401C641CC0B2E4B28C42F2DB59
:102A5000002106E05418135C64781B19491C1354B8
:102A6000C9B253785B1C8B42F4D8D8E7F8206B4688
:102A700018705F703320987003200BE07388271D57
:102A8000DB19DB05DB0DEF5C6B461F54401C641C3F
:102A9000C0B2E4B28C42F1DB002106E05D181C5CA0
:102AA0006D786419491C1C54C9B25C78641C8C4252
:102AB000F4D8401CC1B2D00700D0BCE61846E3E011
:102AC000F8206B4618705F703520987003200BE07B
:102AD0007388271DDB19DB05DB0DEF5C6B461F548C
:102AE000401C641CC0B2E4B28C42F1DB002106E061
:102AF0005D181C5C6D786419491C1C54C9B25C7863
:102B0000641C8C42F4D8D4E7F8206B4618705F70D0
:102B10003620987003200BE07388271DDB19DB0536
:102B2000DB0DEF5C6B461F54401C641CC0B2E4B26A
:102B30008C42F1DB002106E05D181C5C6D786419A5
:102B4000491C1C54C9B25C78641C8C42F4D8B0E7B0
:102B5000F8206B4618705F703720987003200BE0E8
:102B60007388271DDB19DB05DB0DEF5C6B461F54FB
:102B7000401C641CC0B2E4B28C42F1DB002106E0D0
:102B80005D181C5C6D786419491C1C54C9B25C78D2
:102B9000641C8C42F4D88CE7200000201C0000202C
:102BA0001200002000C0005000010050F8206A46CA
:102BB000107057704120907003200AE07388271D21
:102BC000DB19DB05DB0DEB5C1354401C641CC0B24D
:102BD000E4B28C42F2DB002106E05418135C647806
:102BE0001B19491C1354C9B253785B1C8B42F4D88F
:102BF00015E77388271DDB19DB05DB0DEF5C6B46E2
:102C00001F54401C641CC0B2E4B28C42F1DB0021B2
:102C100006E05D181C5C6D786419491C1C54C9B22F
:102C20005C78641C8C42F4D843E7344D100706D41A
:102C3000082002433A432A6000F020FB05E0082008
:102C40008243BA432A6000F025FBF8216E463170BA
:102C50000A2201217270B170297801A80907C90FF1
:102C6000F170082100F0B2F80C2106E03219705C16
:102C700052788018641C7054E4B268464078401C56
:102C8000A042F3D86846491CFFF718FDD3E51B485E
:102C90003A4300210260084621E018480160981D6F
:102CA000C005C00D2A5C581DC005C00D295C1B1D48
:102CB000D805C00D285C00F07FFABCE51B1DD805C7
:102CC000C00D295C0E484170B5E50C48016000F06C
:102CD000D5FA70880021001DC005C00D285C00F0E9
:102CE0007DFAA8E51B1DD805C00D285C0109CDD1D2
:102CF0000007000FFEF7C4FB9DE500001C0000204C
:102D00001200002010B50A494878401CC0B2487033
:102D10000A2801D300204870C0B24100054B40187A
:102D2000C1188A784978185C00F046FA10BD000096
:102D3000040000207D3B000010B5094948780028B8
:102D400001D0401E00E009204870C0B24100054B90
:102D50004018C1188A784978185C00F02DFA10BD27
:102D6000040000207D3B0000F8B50024154F7425B9
:102D70003C702C262046684300F0ADFAFF2806D0B0
:102D80003878641C401CE4B23870B442F2D3092095
:102D90000C497870083100200860888008398870F4
:102DA00072210948FDF7F1F9064808210E30FDF7B8
:102DB000ECF9044864210E3001703221417000F0BA
:102DC00069FAF8BD040000206F00002010B5082942
:102DD00003D80A460149FDF7BFF910BD6F00002076
:102DE000F0B5E24985B04879002803D0401E48710B
:102DF00005B0F0BDDE4DEA79E81C0490002A04D14C
:102E0000427A037A10021843F2D02878D84C00078F
:102E100062780392A2780292A27A637AE778267A9D
:102E200012021A43000F641C009203280AD00428DF
:102E30007ED00528DCD1CD48401CFDF7C5F900281F
:102E400077D047E1C948401CFDF7BEF9C749401C8F
:102E5000491CFDF7C3F90190C548C54900794B7875
:102E6000039DC11A4A421B028542019803930AD26C
:102E7000002900DA1146484300020099FDF742F9A3
:102E80000399411809E0002900DA1146484300027D
:102E90000099FDF737F90399091AB44D30464843B4
:102EA000083D6421FDF72EF9686028468088294690
:102EB00080B20E3148800390AD48AD4940798D789D
:102EC000029B411B4A422D028342019809D20029EC
:102ED00000DA1146484300020099FDF713F9411941
:102EE00008E0002900DA1146484300020099FDF786
:102EF00009F9291A9D4D30464843083D6421FDF7E4
:102F000001F9686028468088294680B20E318880A1
:102F1000974D02903B462946A879CF78C11B4A427B
:102F20003F02834201980CD2002900DA114601E0E9
:102F300039E0A6E0484300020099FDF7E3F8C11923
:102F400008E0002900DA1146484300020099FDF725
:102F5000D9F8391A854F30464843083F6421FDF7B8
:102F6000D1F878603846808882B238460E30C28008
:102F700002990398FEF7F8F87C4E701CFDF724F9CF
:102F8000617A227A09021143EDE0711C0020FDF7FD
:102F900025F967E0E879002800D029E728780009BA
:102FA00000F086F924E77148007800286F485FD068
:102FB000401CFDF709F9002804D06C49401E491C4B
:102FC000FDF70CF96948401CFDF7FEF803990190E4
:102FD00048430102081A0099FDF794F8014630466B
:102FE00048436421FDF78EF8604980B2891D039043
:102FF00048800299019848430102081A0099FDF798
:1030000081F870436421FDF77DF8584980B2891D2D
:1030100002908880019878430102081A0099FDF710
:1030200071F870436421FDF76DF8504982B2083998
:10303000486008460E30C28002990398FEF794F863
:103040004A48401CFDF7C0F8617A227A0902114310
:10305000884201D200289DD14448017800290DD032
:1030600000210170E879002898D0401EE87191E7AE
:10307000401CFDF7A9F83D49401CA0E70121017063
:1030800088E7039870430102081A6421FDF73AF8B3
:10309000364980B2891D0190488002987043010230
:1030A000081A6421FDF72EF8304980B2891D00907E
:1030B000888077433802C01B6421FDF723F82B4931
:1030C00082B20839486008460E30C28000990198E3
:1030D000FEF74AF8607A254F0602217A083F0E4330
:1030E000384609307E60FDF76FF8B04228D1287964
:1030F0002E7A70430102081A6421FDF703F880B2AA
:1031000039460E3101904880687970430102081AEF
:103110006421FCF7F7FF80B239460E3100908880B9
:10312000A87970430102081A6421FCF7EBFF82B210
:10313000786038460E30C28000990198FEF714F886
:103140000A4E701CFDF740F8711C401CFDF746F854
:10315000617A237A0A0204991A434B7A0C7A19028B
:1031600021435118796088428AD30EE70C00002071
:103170005800002010B507490878401CC0B20870FC
:103180002C2801D300200870C0B2012100F026F8DD
:1031900010BD00000600002010B506490878002880
:1031A00001D0401E00E02B200870C0B2022100F0C8
:1031B00015F810BD0600002070B514460D460646F1
:1031C00000F068F8044B30025880290299802202EE
:1031D000DA80FDF7C9FF70BD12000020F8B5254E5A
:1031E00000270D4604463770711C3846FCF7F6FF81
:1031F000B01F77712B2C03D92B2101700C4600E0F6
:1032000004701D48002D027804D0012D05D0022D38
:1032100012D022E0FF2A1BD01FE00020FF2A1CD181
:10322000002C15D0641CE4B22C2C00D30024401CCC
:10323000C0B22C28F2D310E00020FF2A0DD1002CC0
:1032400006D0641E401CC0B2E4B22C28F5D304E0C2
:10325000002211461046FDF787FF07490D220A316B
:1032600008462138FCF778FF03490A22881AFCF740
:1032700073FFF8BD0C0000206F00002010B504495A
:1032800009204870881C00780021FFF7A7FF10BDB7
:103290000400002010B5002004490246C871C8721D
:1032A00008730146FDF760FF10BD000058000020C4
:1032B00010B5044C00202070611CFCF78FFF3220F9
:1032C000607110BD0C0000201B2110B58902401850
:1032D00000F0E0F910BD1B2110B58902401800F084
:1032E000DDF910BD1B2210B59202801800F0DAF94A
:1032F00010BD000010B5C12189000248FCF745FF50
:1033000010BD000002010020F8B5002069460870D9
:103310002A4F032000023C186946012000F0C6F93C
:1033200000284AD0684621880078785420880123F4
:10333000401C80B25B022080984201D30020208094
:10334000628880B2801AC005C00D0528E4D9B95C36
:10335000552905D1511CC905C90D795CAA2906D08A
:10336000521C62806088C005C00D6080D4E7911C4B
:10337000C905C90D7D5C2E1DB042F3D3D019E91CDF
:10338000FFF7DEF96188ED1C4A19D205D20DBA5C4F
:10339000904209D0491C6180FF2109A302228E318D
:1033A0001148FDF707FEDDE70448FFF7F3F96088F1
:1033B0008019C005C00D6080D4E7F8BD020100206F
:1033C0005B4552524F525D20202072656D6F7465CF
:1033D00020636F6E74726F6C20636865636B206529
:1033E00072726F72210D0A009B3B0000F7B5044614
:1033F00082B0FF211A481646002501310090FCF7E3
:10340000C4FE0098552101701548AA21401C017086
:103410001349701C891C0870481C0470114F042447
:103420000AE00398415D3819FF30FF300230641C18
:103430006D1C0170E4B2EDB2B542F2D3361DF1B2AB
:103440000098FFF759F93919FF31FF31023108703F
:10345000641CE2B20120009900F04EF905B0F0BD05
:1034600002030020020100207047000070B50446EE
:103470002A4900012A4D40186860006880476200B0
:103480000521A3180026287000286868027930D02A
:10349000052A01D2017170BD0A2A02D2521C0271A2
:1034A00070BD6200817AA418641C002904D1012136
:1034B0008172E0B200F0E0F8686801890029EFD07D
:1034C000C2888A4207D2521C92B2C2808A42E7D195
:1034D000DB1CD8B20AE0C17A0029E1D0027B521C81
:1034E000D2B202738A42DBD30673E0B200F0C4F8B2
:1034F00070BD052A01D901710CE0002A02D0521ECC
:10350000027107E0817A012904D186729B1CD8B22E
:1035100000F0B2F86868C680067370BD0804002029
:1035200024000020074A917AD07A814201D10020FC
:103530007047505C491CC9B291720A29F8D3002126
:10354000917270472804002010B500F047F8FDF78D
:10355000DBFAFEF7B1F9FDF773FF00F005F8FDF7B0
:1035600081FDFEF703F910BD10B500F015F8084C09
:10357000032202212046FDF7CDFC03220421204630
:10358000FDF7C8FC034801214162816210BD0000C3
:10359000C04000504042005030B50D4800228272B9
:1035A0000346C2726424203B0273114602250801BF
:1035B000C018048105718272491CC272C9B20273BB
:1035C0000229F4D3034818600348186130BD000095
:1035D00028040020650F0000790F000070B5FEF789
:1035E00039F91A4D2846FDF7A7F801246406002290
:1035F00021462846FDF73CFA164A154850609002CD
:10360000FDF7BEFFE12149021348FEF7E3F86D1C08
:103610002846FDF791F8002221462846FDF728FAB2
:1036200030200521090788632012FDF7A9FF0B4C04
:103630004B2109022046FEF7CDF8616803221143B1
:103640006160012006494003086070BD103D80A7FD
:10365000030300004000005000000540000015403A
:1036600000E100E010B500242046FFF7FFFE641CD7
:10367000E4B2022CF8D310BD0549CA7A8854C87A3E
:10368000401CC0B2C8720A2801D30020C87270471B
:103690002804002010B5FDF7B7FB10BD10B5FDF7ED
:1036A000DDFB10BD10B5FDF727FC10BD10B5FDF713
:1036B0001DFA00281FD00246012080F31088538B8A
:1036C000002080F31088002B15D0148B93681B5DAD
:1036D0000B70012181F31088118B491C89B2118371
:1036E000D389994200D31083508B401E5083002011
:1036F00080F31088012010BDF8B515460E46FDF781
:10370000F5F9040030D0E069002800D0804700209F
:1037100024E0A289012181F31088A18A6B461980D7
:10372000002181F3108819888A42F3D9315C238AF9
:103730006268D154012181F31088218A491C89B221
:103740002182A289914201D300212182A18A491CB0
:10375000A182002181F31088401C80B2A842D8D3F6
:1037600002212068FEF732F8F8BD002101E0491C73
:10377000C9B28142FBD3704700B50346FDF70EFF87
:10378000184600BD1FB50024FDF7D8FE6FA0FDF759
:10379000FDFB0520FDF708FCFFF7D6FE6D486EA384
:1037A00000680090052252216F48FDF703FC6FA3CB
:1037B000052254216C48FDF7FDFBFEF739FFFFF7AA
:1037C00053FEFFF797FDFFF7CFFA0025724E00F08A
:1037D0006BF9007800281AD000F066F905706F4880
:1037E000641C4078E4B2322805D303213238FCF758
:1037F0009FFC0A3006E03221081A0621FCF798FCEB
:103800000A21081AA04202DA0024FFF7E9FA00F0C0
:103810004BF98078002806D000F046F98570FFF754
:1038200021FFFEF71BFF00F03FF90079002802D0CE
:1038300000F03AF9057100F037F98079002802D0DC
:1038400000F032F9857100F02FF9807A002802D05B
:1038500000F02AF98572FFF757FDFFF763FE002895
:10386000B5D00300FEF775F807050A061B511F586F
:103870000500ACE705224AA3A32149E0FDF7EEFDD0
:10388000002801D049A000E049A0009049A30522EA
:10389000A7213548FDF78EFBFDF7FAFD97E70522D6
:1038A00047A3AC2134E04AA30522AF212E48FDF7FF
:1038B00081FB3078002826D1484800950195029573
:1038C0000395007800071ED50027FFF753FCF82169
:1038D0006846017009214170032181700821C01CD4
:1038E000FFF774FA0B21684606E0C319425C5B7867
:1038F000D2187F1C4254FFB24278521CBA42F4D80C
:10390000491CFEF7DBFE357061E7052234A3C821B0
:103910001548FDF74FFB5AE735A30522CC21124885
:10392000FDF748FB01202D4930700868020705D5D6
:10393000082290430860FFF7ADFC48E708221043D7
:10394000042290430860FFF799FC40E76C616D70BA
:10395000000000004C00002020435055204020254E
:1039600064487A0D0A000000783B00002B2D2D2DB5
:103970002D2D2D2D2D2D2D2D2D2D2D2D2D2D2D2D77
:103980002D2D2D2D2D2D2D2D2D2D2D2D2D2D2D2D67
:103990002D2D2B2000000000000000201200002030
:1039A000414343204B455920757000006F6E000065
:1039B0006F66660072656C617920257300000000F7
:1039C000414343204B455920646F776E000000004F
:1039D0004C4544204B455920757000001C000020C8
:1039E0004C4544204B455920646F776E0000000021
:1039F0004C4544204B4559206C6F6E670000000019
:103A000010B50446016810A0FDF76AFF11A06168B7
:103A1000FDF766FF12A0A168FDF762FF13A0E16841
:103A2000FDF75EFF14A02169FDF75AFF15A061693B
:103A3000FDF756FF16A0A169FDF752FF17A0E16937
:103A4000FDF74EFF10BD0000723020203D20307881
:103A500025780A00723120203D20307825780A0030
:103A6000723220203D20307825780A0072332020E1
:103A70003D20307825780A00723132203D203078A0
:103A800025780A006C7220203D20307825780A00C5
:103A9000706320203D20307825780A0070737220F2
:103AA0003D20307825780A00004870473604002011
:103AB00070B50C46054600F017F8400612D50021F7
:103AC000FC20FDF7A5FC224629466120FDF736FCC7
:103AD000FDF7A0FBFDF7A8FB0021FD20FDF798FCFA
:103AE000012070BD002070BD10B5072000F004F863
:103AF0007021084010BD000070B50C4C0021054637
:103B000021610120FFF731FE2846FDF7C9FC00F0D6
:103B100011F80546012220210548FDF7FBF9012097
:103B2000FFF723FE01212161284670BD00420050AD
:103B300000400050F8B500240E4E25460127002015
:103B4000F0610120FFF711FE6006040EF76101200D
:103B5000FFF70BFE7069002800D03C436D1CEDB2EE
:103B6000082DECD30020F0610120FFF7FEFD204678
:103B7000F8BD0000004200506D61696E00FFFFFF5C
:103B800000FF000000FFFF000000FFFFFF00FFFF3D
:103B9000FF0000FF800080FFFF80006170705F7594
:103BA0006172745F70726F00454550524F4D5F49AE
:103BB0006E69744861726400CCCCCCCCCC0000003F
:103BC000696E660064626700656D670077726E00FB
:103BD0006572720063727400F83B00000000002000
:103BE000580000006C190000503C000058000020F4
:103BF000C80900007C19000000000000000000005F
:103C000000000000000000000000000000000000B4
:103C100000000000000000000000000000000000A4
:103C200000000000C83B0000D43B0000D03B000077
:103C3000CC3B0000C03B0000C43B000000805101B1
:103C400000805101000000000000000000000000A2
:04000005000000F106
:00000001FF
