:020000040000FA
:10000000300A0020F1000000F5000000D5000000DB
:1000100000000000000000000000000000000000E0
:10002000000000000000000000000000F9000000D7
:100030000000000000000000FB000000FD000000C8
:10004000FF000000FF000000FF000000FF000000B4
:10005000FF000000FF000000FF000000FF000000A4
:10006000251B0000FF000000FF000000FF00000053
:10007000151C0000251C0000FF000000FF00000010
:10008000FF000000FF000000FF000000FF00000074
:10009000FF000000FF000000FF000000FF00000064
:1000A000FF000000FF000000FF000000FF00000054
:1000B000FF000000FF000000FF000000FF00000044
:1000C0000348854600F0EAFA00480047C14C0000AA
:1000D000300A002004207146084202D0EFF3098064
:1000E00001E0EFF308807146004A1047A5110000B7
:1000F00003480047FEE7FEE7FEE7FEE7FEE7FEE710
:10010000C100000030B50B4601460020202201242A
:1001100009E00D46D5409D4205D31D469540491B3B
:100120002546954040191546521E002DF1DC30BD84
:1001300070B500242546002801DA01244042002938
:1001400001DA01254942FFF7DDFFAC4200D0404211
:10015000002C00D0494270BD03460B439B0703D0DF
:1001600009E008C9121F08C0042AFAD203E00B787C
:100170000370401C491C521EF9D27047D2B201E0F4
:100180000270401C491EFBD270470022F6E710B5F2
:1001900013460A4604461946FFF7F0FF204610BDF5
:1001A00010B5044605E00B780370401C002B00D00E
:1001B000491C521EF7D2204610BD421C0178401C3B
:1001C0000029FBD1801A70470321001D401E0378CF
:1001D00012021A43491EF9D51046704703460322FE
:1001E0000870000A491C521EFAD5184670470000D4
:1001F000F0B50C465C4085B0E40FE40703944C0076
:100200000026640859009446490802460296224393
:1002100021D062460A431ED06200570D4A000E03E9
:100220002303550D012402462C492405781B1B0B82
:10023000360B401823432643614600901C46501A53
:10024000B44103D30098401C009002E0921800983B
:100250005B41002803DA0020014605B0F0BD002014
:10026000012109050746864611E064461D46141B18
:10027000B54106D36546521BB341744607430C4350
:10028000A646CD0740084908284392185B41054619
:100290000D43EAD11046184313D06046194650402A
:1002A0007140084306D06046101AB34106D20122BD
:1002B000002306E000220123DB0702E00122D243F3
:1002C0005310009874460105381C6141029C039D3F
:1002D0000019694100F034F8BFE70000FD03000099
:1002E000F0B51FB40646002082B0054640240191B7
:1002F00000901BE0019922460F46304600F0F0F9CD
:10030000049A059B801A994110D31046194622463B
:1003100000F0D6F9361A8F410197224601200021BC
:10032000009F00F0CDF938184D4100902046641E22
:100330000028DFDC019B00982946324607B0F0BD5B
:1003400010B5002B08DA0024401C614192185B4173
:100350001A4301D14008400010BDF0B51FB482B06F
:1003600005460C0003D0084601F0DAFD02E001F07A
:10037000D7FD2030024600902146284600F0A0F923
:10038000049B059A04460F4618431143084314D0B2
:10039000184610431BD0009840210A1A18460599A8
:1003A00000F09EF905460E46009A0599049800F063
:1003B00087F9084305D0012004E02046394607B0FC
:1003C000F0BD0020C11705430E432C43374300996D
:1003D0000E986305401A7905E40A00220C43FD0AD1
:1003E0000A3002D500200146E9E7010510196941EC
:1003F0000C9C0D9D00196941FFF7A2FFDFE700008B
:10040000F0B507460846584087B0C00F0490480032
:100410000E46590040084908BC1A884105D23846A2
:1004200031461E4617460B46024658004008104308
:100430004CD0300D039040055900400D490D0590FA
:10044000401A0290402872DA18030121000B0905B6
:100450000843019004980092002805D00199524267
:100460000020884100920190029840210A1A0199C7
:10047000009800F025F905460C466B4607CB00F0C6
:1004800040F9C0197141039A0E0D0023D717564049
:100490001A467A40164344D0049A002A2DD0029A74
:1004A000012A039A15DC1205C01A9141012636056E
:1004B000001C7141D20F059ED20700930192029653
:1004C0002A462346FFF749FF07B0F0BD38463146BC
:1004D000FAE71605224A0F46B218C01AB7410121A1
:1004E0000905001C4F4100187F4111461818794139
:1004F000E20F10436D19644113E0E2076D081543E4
:100500006408C2071443039A01261205C01A9141D8
:100510003605001C7141CE07400830434908C01819
:1005200051412A462346FFF70BFFCDE7FFE704982A
:1005300001224000C117121A00238B410498314652
:10054000C417381AA141EEE730B40124E407634030
:1005500030BC55E730B40124E407614030BC4FE7BC
:100560000000E0FFF0B51FB488B00B990998002493
:1005700048400999C00F490049080991C0070B99E3
:100580000090490049080B9109990898A64608432C
:100590001CD00B990A98084318D0099801244000F0
:1005A000420D4800410D099824050003000B20432B
:1005B00009900B980003000B20430B9050181C4926
:1005C0004018002201901446104605E00020014624
:1005D0000DB0F0BD032801DA034600E003239C467A
:1005E000C11A0AAE0AE05F0008ADED5B4F00F75B91
:1005F0007D430027AA187C41491C5B1E6145F2DD42
:10060000410004AB5A522104120C0A43240C401C32
:100610000828DFDB01980290009970460191009054
:10062000059B049A07990698FFF797FED0E700000C
:100630000DFCFFFF4A0009030123090B1B051943A9
:100640000A4B10B5520D9A4202DA0020014610BD45
:10065000064B34339A4203DC9A1A00F041F810BD7D
:10066000034BD21800F02CF810BD0000FF0300006F
:10067000CDFBFFFF10B5002904DB0124E407404255
:100680008C412146002B04DB1C460123DB07524230
:10069000A341994200D1904210BD0000064C0125B3
:1006A000064E05E0E36807CC2B430C3C984710341A
:1006B000B442F7D3FFF708FDCC510000EC51000025
:1006C00010B5202A04DB0146203A9140002010BDDD
:1006D000914020239C1A0346E3401943904010BDEB
:1006E00010B5202A04DB0846203AD040002110BD76
:1006F0000B46D340D0402024A21A9140084319460B
:1007000010BD10B5202A06DBCB170846203A104151
:10071000C1170B4306E00B461341D0402024A21A18
:1007200091400843194610BD0348006A012109049D
:10073000084301490862704700020050C10F890058
:10074000064A89184968C306DB0E01229A40114304
:10075000C20F9200014BD218516070470002005046
:10076000F3B58BB00C46FFF7DFFF0B98002810D1D4
:100770007F48006880088000401C7D490860012097
:1007800000F076FA002007907A480A90022006903E
:100790000FE077480068042108437549086010207D
:1007A00000F066FA0120C004079073480A90042004
:1007B00006907248844205D84010844202D9002035
:1007C000089014E06E48844206D84010844203D357
:1007D0000120089064000AE06A48844206D2401072
:1007E000844203D303200890A40000E0B0E000207E
:1007F000C0430490002002900390069E4CE03146D6
:100800000A98FFF77FFC07465F498F4243D95F484C
:10081000874240D20220099039E03D46099845437D
:100820005748854230D3400085422DD8A54201D992
:10083000281B00E0601B059004990598884223D28C
:1008400005980490029609980390049800281BD1FB
:1008500008988003079908430299891E49020843B2
:100860000399891E084342490862042000F000FAF7
:100870000898401C029A504301460A98FFF742FC30
:10088000039948430DB0F0BD0998401C09904049B8
:1008900009988842C1D9761C212EB0D904980190BC
:1008A0000020C0430490002002900390069E4CE07C
:1008B00031460A98FFF726FC07463348874243D95A
:1008C0003248874240D20220099039E009987843A3
:1008D00005462B48854230D3400085422DD8A5429D
:1008E00001D9281B00E0601B0590049905988842F7
:1008F00023D20598049002960998039001990498D0
:1009000088421AD108988003079908430299891EE2
:10091000490208430399891E0843154908620420C7
:1009200000F0A6F90898401C029A504301460A9824
:10093000FFF7E8FB03994843A4E70998401C099096
:10094000134909988842C1D9761C212EB0D900BF1D
:100950000B98002803D10F480549086202E00E48B1
:1009600003490862042000F083F900F06BF889E77E
:1009700000020050001BB7000080510100C2EB0BC9
:1009800000E1F50580F0FA02006A1800C0E1E40019
:100990000102000016400000184408008107890F7A
:1009A000002907D006490968890889000143044ADB
:1009B000116004E0024909680143014A116070476F
:1009C00000020050FEB5002002901AA000680090BE
:1009D0001948046A00132040002801D00020FEBD01
:1009E0000120C0042040002801D0144D00E0144D27
:1009F000012040042040002801D02846EFE70320D2
:100A000080032040800B69460A5C0192E005C00D1E
:100A1000861C1F2040022040400A871C019A7A430E
:100A20001146AA0872431046FFF76CFB8000029043
:100A30000298D4E701020204000200500080510134
:100A4000001BB700FEB5002002901AA000680090BD
:100A50001948046A00132040002801D00020FEBD80
:100A60000120C0042040002801D0144D00E0144DA6
:100A7000012040042040002801D02846EFE7032051
:100A800080032040800B69460A5C0192E005C00D9E
:100A9000861C1F2040022040400A871C019A7A438E
:100AA0001146AA0872431046FFF72CFB8000029003
:100AB0000298D4E7010202040002005000805101B4
:100AC000001BB700FEB5002002901AA0006800903D
:100AD0001948046A00132040002801D00020FEBD00
:100AE0000120C0042040002801D0144D00E0144D26
:100AF000012040042040002801D02846EFE70320D1
:100B000080032040800B69460A5C0192E005C00D1D
:100B1000861C1F2040022040400A871C019A7A430D
:100B20001146AA0872431046FFF7ECFA80000290C3
:100B30000298D4E701020204000200500080510133
:100B4000001BB70070B504462248C0681021084059
:100B500005462148844200D904462048844200D2F8
:100B600004461C480068042108431A490860102004
:100B700000F07EF81748006907210843154908610D
:100B800008468069000900018861084600688007FE
:100B9000800F012805D161000020FFF7E1FD044628
:100BA0000AE061000120C004FFF7DAFD04460948AD
:100BB000C0681021084005460121022000F010F80D
:100BC000002D05D1034800680421884301490860CD
:100BD000600870BD0002005080F0FA0240787D018C
:100BE00070B504460D460848806900090001284395
:100BF0000549886108460069C008C00020430861B3
:100C000000F0E6FE70BD000000020050F0B50B469B
:100C1000002100240025C600360F002E0FD046000C
:100C2000B60FB600114FF4192168C600370FC60180
:100C3000F60EB7400E46BE431E4331462160860382
:100C4000360E002E10D00603B60FB600074F083739
:100C5000F51929688603370E8605F60EB7400E464D
:100C6000BE43164331462960F0BD0000100200501B
:100C70000146074A05E01046521E002801DC00200C
:100C800070470448C06808408842F4D10120F7E763
:100C900080F52000000200500146002901D10448DF
:100CA0007047012901D10348FAE70020F8E7000066
:100CB00054040020FC040020064840681321084327
:100CC000044948600D2001218140034A116000BFA2
:100CD000704700000000154000E100E07CB500BF57
:100CE00000BF00BF592045490860162008608820D1
:100CF0000860084600680028F4D000BF00F0B2F990
:100D00003FA305221421494800F0C8FA00F09EF9DB
:100D1000002806D146A305221621444800F0BEFA59
:100D20000BE045A305221821404800F0B7FA44A380
:100D3000052219213D4800F0B1FA00F0B1F905464D
:100D40004EA305221E213948009500F0A7FA00F0B5
:100D5000C1F9054656A3052221213448009500F02B
:100D60009DFA0320000500F087F906465DA30522E1
:100D7000242100902D4800F091FA674800F07CF99A
:100D8000064666A3052226210090284800F086FA30
:100D900000240DE0204600F0C7F905466CA30522AB
:100DA0002D2122480195009400F078FA601CC4B20D
:100DB000032CEFDB00240DE0204600F09FF90546F0
:100DC00071A30522332119480195009400F066FAB9
:100DD000601CC4B2042CEFDB00F076F9054678A362
:100DE000052239211148009500F058FA00F002F967
:100DF00000BF00200149086000BF7CBD0001005019
:100E00002020426F6F74204D6F6465202E2E2E2E91
:100E10002E2E2E2E2E2E2E2E2E2E2E2E2E2E2E2EF2
:100E20002E2E2E2E2E2E2E2E2E2000009C51000017
:100E30005B4150524F4D5D005B4C44524F4D5D0045
:100E400020205741524E494E473A2054686520644D
:100E500072697665722073616D706C6520636F6472
:100E600065206D7573742065786563757465206998
:100E70006E204150206D6F64652100002020436F7B
:100E80006D70616E79204944202E2E2E2E2E2E2E2E
:100E90002E2E2E2E2E2E2E2E2E2E2E2E2E2E2E2E72
:100EA0002E2E2E2E2E205B3078253038785D0000D7
:100EB000202050726F64756374204944202E2E2EBA
:100EC0002E2E2E2E2E2E2E2E2E2E2E2E2E2E2E2E42
:100ED0002E2E2E2E2E2E2E2E2E205B3078253038C4
:100EE000785D000020205573657220436F6E66693F
:100EF000672030202E2E2E2E2E2E2E2E2E2E2E2EF3
:100F00002E2E2E2E2E2E2E2E2E2E2E2E2E205B30E0
:100F100078253038785D00000400300020205573BB
:100F2000657220436F6E6669672031202E2E2E2E4B
:100F30002E2E2E2E2E2E2E2E2E2E2E2E2E2E2E2ED1
:100F40002E2E2E2E2E205B3078253038785D000036
:100F50002020556E69717565204944202564202E36
:100F60002E2E2E2E2E2E2E2E2E2E2E2E2E2E2E2EA1
:100F70002E2E2E2E2E2E2E2E2E2E205B307825302D
:100F800038785D0A000000002020556E6971756593
:100F900020437573746F6D65722049442025642069
:100FA0002E2E2E2E2E2E2E2E2E2E2E2E2E2E2E2E61
:100FB0002E2E205B3078253038785D0A0000000046
:100FC00020204461746120466C6173682042617323
:100FD000652041646472657373202E2E2E2E2E2E92
:100FE0002E2E2E2E2E2E2E2E2E205B3078253038B3
:100FF000785D0A0003480068400840000149086025
:101000007047000000C00050014622200E4AD06008
:10101000104641600120106100BF0B480069C00705
:10102000C00F0028F9D1084800684022104000286D
:1010300007D0054800681043034A10600020C043F1
:1010400070470020FCE7000000C000500448006822
:1010500002210840002801D0012070470020FCE751
:1010600000C000500348006801210843014908609E
:101070007047000000C0005001460020074AD060C1
:10108000104641600120106100BF04480069C0079C
:10109000C00F0028F9D101488068704700C0005097
:1010A0000B200849C860002048600120086100BF8B
:1010B00004480069C007C00F0028F9D101488068C2
:1010C0007047000000C000500148406970470000B0
:1010D00000C000500C200849C8600420486001206E
:1010E000086100BF04480069C007C00F0028F9D19B
:1010F000014880687047000000C00050014604208D
:10110000084AD0608800103050600120106100BF94
:1011100004480069C007C00F0028F9D10148806861
:101120007047000000C0005001460420074AD0600C
:10113000880050600120106100BF04480069C007AA
:10114000C00F0028F9D101488068704700C00050E6
:101150002122074BDA601A465060916001221A6121
:1011600000BF034A1269D207D20F002AF9D1704793
:1011700000C0005070B5034600200FE001248440F9
:101180000C40002C09D01C6846000325B540AC4338
:1011900046001546B5402C431C60401C0828EDD382
:1011A00070BD0000044604A000F098FE204603F045
:1011B00011FF00BFFEE70000496E20486172642005
:1011C0004661756C742048616E646C65720A00003B
:1011D00010B51648FFF7B2FA00220121490613485C
:1011E000FFF714FD124813494860880200F0B6FB6F
:1011F000E1214902104800F025FD0C48401CFFF792
:101200009DFA0022012149060848401CFFF7FEFC18
:1012100030200521090788630120400400F09EFB6F
:101220004B210902054800F00DFD10BD103D80A7BF
:10123000030300004000005000000540000015407E
:1012400000200349496A002900D000E001207047CE
:101250004042005000200349896A002900D000E084
:10126000012070474042005010B5072204A10548F4
:10127000FEF796FF00200349C871886010BD00008A
:10128000000000002407002001488068704700002B
:101290002407002000487047240700200FB4FEB543
:1012A00007461546254C264600200290FFF7F2FF20
:1012B0000090FEF782FF002805D0FFF7E5FFA84267
:1012C00001DB002D03DAFEBC08BC04B01847A800FF
:1012D0001B4A11583A461BA0099B00F0FFFDFF2155
:1012E00001312046FEF751FF0CA801903046019ACB
:1012F0000B9900F003FE861900200190301BFF2897
:1013000005DD2046FEF759FF061901200290204610
:10131000FEF753FFFF2801D10120029021460DA0C6
:1013200000F0DCFD0298002802D00BA000F0D6FDF2
:101330000BA000F0D3FD00BFC5E700003007002080
:10134000380000205B25735D202573282564293A29
:101350002000000025730000202E2E2E000000002B
:101360000D0A000001494863704700000000044076
:1013700001494862704700000000044010B545482C
:1013800000F0ECFA4448FFF7D9F94448FFF7D6F9E2
:101390000022012149074048FFF738FC00222021A4
:1013A0003E48FFF733FC05200007406B0721890604
:1013B000084305210907486339483A4988600846C7
:1013C0000068000A0002C01C086008464068C008A7
:1013D000C000001D486008460068000A0002C01CEA
:1013E0000860084640687021884340302D494860B5
:1013F00008460068FF2109048843032109044018B6
:1014000028490860084640680721090488430121EB
:101410008904401823494860084680684000400815
:10142000490340181F49886008468068400040080A
:10143000490340181B4988600846806840004008FE
:1014400049034018174988600121164800F088F8C0
:101450000221144800F084F81021124800F080F8AE
:101460000121104800F084F802210E4800F080F8B5
:1014700010210C4800F07CF80B480A4948620B48E0
:10148000C8600B488862094808610A4848630748F1
:10149000C86110BD140000041400C0A7160040E687
:1014A000990009000000044010270000FFFF000021
:1014B000204E000050C30000F8B505460E46174602
:1014C00000242C4611480078444364212046FEF74E
:1014D00019FE0446A0B200F01BF834460B48007811
:1014E000444364212046FEF70DFE0446A0B2FFF7F8
:1014F0003FFF3C4605480078444364212046FEF700
:1015000001FE0446A0B2FFF72DFFF8BD1000002039
:1015100001498862704700000000044070B504462D
:101520000E48047000780A2802DA0A200B49087075
:101530000A4BDD799E792B0233431A46074B5D79BE
:101540001E792B0233431946044DEB78AD781B020C
:101550002B431846FFF7B0FF70BD000010000020BD
:10156000024AD2690A43014BDA61704740000440E5
:1015700030B504460022002009E0012383400B40DF
:10158000002B03D085000123AB401A43401C0628E2
:10159000F3D3034B9B681343014DAB6030BD000098
:1015A0000000044010B50021E12000F003F9002103
:1015B000E22000F0FFF810BD10B57021272000F0E8
:1015C000F9F810BD00B587B039A103C9069105909F
:1015D00039A00068049039A103C90391029039A091
:1015E0000068019038A00068009000F08BF95A2143
:1015F000532000F0DFF8A521532000F0DBF8202174
:101600003D2000F0D7F80021FC2000F0D3F80021A5
:10161000E12000F0CFF80021E22000F0CBF87021AB
:10162000272000F0C7F80121222000F0C3F8032191
:10163000232000F0BFF84E21252000F0BBF8102138
:10164000312000F0B7F805222049302000F096F84C
:1016500005221E492A2000F091F8052205A93F2005
:1016600000F08CF8062202A93A2000F087F8012247
:1016700001A9392000F082F8032204A93E2000F0DD
:101680007DF8032269463B2000F078F800213C20D9
:1016900000F090F83F21262000F08CF80021242053
:1016A00000F088F80021212000F084F807B000BD88
:1016B0000A6D679C46000000F6375D004521EFACDF
:1016C0005A500000010000000BDF0200AC51000086
:1016D000F8B507460D46164600200B490861384606
:1016E00000F0B0F8002404E003F01AFD2855601C57
:1016F000C4B2B442F8DB012220210448FFF73AFDCE
:10170000012001490861F8BD00420050004000502E
:1017100010B50021FC2000F04DF88F21202000F0B2
:1017200049F80021FD2000F045F8C82003F0B8FA80
:1017300010BD70B504460D4603F0CAFC00280FD159
:101740002A462146A02000F019F80021FD2000F0D3
:1017500031F80A2003F0A4FA0021FC2000F02AF856
:1017600070BD10B50021FC2000F024F88E2120204F
:1017700000F020F80A2003F093FA10BDF8B50746F0
:101780000D46164600200A4908610024384600F03C
:101790008DF800BF04E0285D00F088F8601CC4B23A
:1017A000B442F8DB0024012001490861F8BD0000C3
:1017B0000042005070B505460C46002008490861FB
:1017C000012003F06DFA284600F070F8204600F082
:1017D0006DF8012003F064FA01200149086170BD31
:1017E0000042005010B5012211460348FFF7C2FC29
:1017F00000F00AF810BD0000404000500148006AA7
:10180000C0B2704700420050002001490862704792
:101810000042005001200149086270470042005018
:1018200000B50246002A02D0FFF7F4FF01E0FFF7FF
:10183000EBFF00BD0248006AC043014908627047DF
:101840000042005070B5044600251CE000201549F8
:10185000C861012003F024FA80202040002803D032
:1018600001201049486102E000200E4948616006ED
:10187000040E01200B49C86103F012FA012003F0A5
:101880000FFA681CC5B2082DE0DB002220210648B3
:10189000FFF770FC00200349C861012003F000FA43
:1018A00070BD0000004200500040005070B504467A
:1018B00000251CE000201249C861012003F0F0F966
:1018C00080202040002803D001200D49486102E01B
:1018D00000200B4948616006040E01200849C861D8
:1018E00003F0DEF9012003F0DBF9681CC5B2082D16
:1018F000E0DB00200249C861012003F0D1F970BD8E
:10190000004200507047000010B500BF00BF00BF8C
:101910005920104908601620086088200860084691
:1019200000680028F4D000BF0420FFF737F810202B
:10193000FFF79EF900210720FFF752F90648FFF74D
:1019400001F900F045F800BF00200249086000BF1F
:1019500010BD00000001005080F0FA020B49020E99
:1019600092008958012282401143084A030E9B00CD
:10197000D1501146020E92008958012282409143B3
:10198000024A030E9B00D15070470000080000502F
:1019900000B50346184600F001F800BD00BF0B4932
:1019A00089690122D20511400029F8D10749086050
:1019B0000A280AD100BF054989690122D2051140D0
:1019C0000029F8D10D21014A11607047000005403F
:1019D00070B5FEF7F7FF164908601648006945071D
:1019E0006D0F002D01D1144C0DE0022D02D11048D5
:1019F000046808E0032D01D1104C04E0072D01D14B
:101A00000F4C00E00E4C0B4880690007000F411C92
:101A10002046FEF777FB0B4908600B490948006830
:101A20004A108018FEF76EFB0849086070BD000080
:101A30005800002000020050001BB70010270000D3
:101A4000008051015400002040420F005C00002043
:101A500002461448824206D11348406907231B02FC
:101A60001840010A05E01048406907231B0318408D
:101A7000010B00290AD10C4800688007800F01285B
:101A800001D10A4870470120C003FBE7012901D1B9
:101A90000748F7E7022902D106480068F2E706483E
:101AA0000068EFE70000014000020050001BB70093
:101AB000102700005400002050000020FEB505460D
:101AC0000F4616462846FFF7C3FF04460020019044
:101AD00000906008B04202D20220019013E0012081
:101AE0004006844203D303200090A40806E00120AE
:101AF0000006844202D3012000906408314620464B
:101B0000FEF700FB01900098384328600198686058
:101B1000009A521C0198504301462046FEF7F2FA03
:101B2000FEBD000001201E49087008464078401C98
:101B3000C0B248700A2803DB00204870012088707A
:101B40001748C078401CC0B21549C870642803DB30
:101B50000020C8700120087111484079401CC0B2B3
:101B60000F494871FF21F531884204DB00200C4900
:101B70004871012088710A480089401C80B20849D8
:101B800008817D21C900884204DB002004490881C6
:101B90000120887200BF01200249886000BF7047A1
:101BA000460400200000014010B503F067FA154814
:101BB000FFF7D4FE1448FEF7C1FD002207210902F9
:101BC0001148FFF723F87D22D2000121C9060F48F2
:101BD000FFF774FF00BF0D48006801214907084363
:101BE0000A49086000BF082001218140084A1160AD
:101BF00000BF00BF0548006891050843034908601D
:101C000000BF10BD02000004020080AE00000140D1
:101C100000E100E010B5024800F08CF810BD0000B3
:101C20005404002010B5024800F084F810BD0000F4
:101C3000FC04002042688A434260704742680A43BD
:101C400042607047FEB504460D4600270020019013
:101C500021484069032109060840060E0020206340
:101C60000320E0600020A060002E01D11B4F09E09E
:101C7000012E03D1FEF726FF074603E0022E01DB0B
:101C800017480768144880690F2109020840000AB4
:101C900001900199491C3846FEF734FA0746002D99
:101CA00018D06908C8192946FEF72CFA801E009042
:101CB0000C490098884208D9E900C8192946FEF75E
:101CC00021FA0009801E606204E0032109070098E0
:101CD00008436062FEBD000000020050001BB70018
:101CE00050000020FFFF000070B504460D460120A3
:101CF00000F04AF9668B002000F046F9002E01D171
:101D0000002070BD218BA068405C2870012000F08D
:101D10003BF9208B401C80B22083E189884201DBA3
:101D200000202083608B401E6083002000F02CF98F
:101D30000120E6E770B504462068C069FF21013143
:101D40000840002823D01BE020680068C5B2E18A63
:101D5000A0684554E08A401C80B2E082E189884254
:101D600001DB0020E082608BE189884202DA608B2F
:101D7000401C6083606A002802D02846616A884758
:101D80002068C069C007C00F0028DDD100BF2068EF
:101D9000C069012149020840002818D0A08A002803
:101DA00004D102212068FFF745FF10E0618A6068D6
:101DB000405C21680860608A401C80B26082A18912
:101DC000884201DB00206082A08A401EA08270BD94
:101DD000F8B504460E461746002529E00EE001201E
:101DE00000F0D2F8A18A0091002000F0CDF8A1897E
:101DF00068460088814200DD01E000BFEFE700BFD8
:101E0000705D228A61688854012000F0BDF8208A44
:101E1000401C80B22082A189884201DB0020208200
:101E2000A08A401CA082002000F0AEF8681C85B299
:101E3000BD42D3DB02212068FFF700FFF8BD0000A0
:101E400014481549086015484860154888604020C6
:101E50008881C881002008824882C882088348831C
:101E60008882C861086248620E480F4908600F48BE
:101E700048600F488860FF2001308881C8810020B9
:101E800008824882C882088348838882C8610862C1
:101E90004862704700000540540400207C04002084
:101EA000BC04002000001540FC0400202405002094
:101EB0002406002010B5012280210748FFF75AF9B7
:101EC000012210210448FFF755F901222021024880
:101ED000FFF750F910BD0000004000500FB410B5DE
:101EE00003A9044B044A029800F00CF910BC08BC8A
:101EF00004B01847B14C00006000002037B514460C
:101F00000846064B6A46214600F010FB0446694627
:101F1000002000F0CDFE20463EBD0000B12C0000A8
:101F20002021020C01D010211046020A01D01046D7
:101F30000839020901D01046091F820801D0104655
:101F4000891E420801D0881E7047081A704730B4B5
:101F50007446641E2578641CAB4204D3635D5B0049
:101F6000E31830BC18471D46F8E702E008C8121F06
:101F700008C1002AFAD170477047002001E001C172
:101F8000121F002AFBD1704780F3108870470000B1
:101F9000F0B51FB486B00998089A030D00210243DA
:101FA00014D05148514A181850430514119801286B
:101FB00010981AD0281A401C00264D4F4D49009603
:101FC00001910490002812DA444211E01198012492
:101FD00049A3012801D11098C1430698119A846041
:101FE0000360C26041600BB0F0BD4042E4E70446CC
:101FF000210500203F4A001C51410391029012E04C
:10200000E00707D032463B4601990098FEF7AAFA4E
:102010000191009032463B4610461946FEF7A2FA5F
:1020200006460F466410002CEAD10498039B002852
:10203000029A0999089806DAFEF794FA019B009A29
:10204000FEF790FA05E0FEF7D3F8019B009AFEF741
:10205000CFF804460E460022284BFEF70BFB03D8B0
:102060000020C043014607E00022254B20463146B0
:10207000FEF7C6F9FEF7DEFA102409E0002C0ADBB1
:102080000A220023FEF72CF9079B30321A55641EF2
:1020900002460A43F2D11122641C079B121B1C1931
:1020A000119B012B03D0012308430ED10AE0084302
:1020B00004D0112010900020119077E71098151A85
:1020C0006D1E0BE01098824202DD00236D1C03E0C0
:1020D000824201DA00236D1E002BEED00698119982
:1020E0008260C16030C07EE701FCFFFF104D000040
:1020F000000014400000F03F300000000000F043FA
:102100000000E03FFFB591B00F460546002606E00F
:1021100025280AD0149A139990476D1C761C2878AC
:102120000028F5D1304615B0F0BD002400940121FF
:10213000F34A029400E004436D1C2B780846203BD0
:1021400098401042F7D128782A280ED0022128780A
:102150000246303A092A15D8009A0A235A43303ADF
:1021600080180C436D1C0090F1E701CF009000280F
:1021700005DA012040030443009840420090022009
:1021800004436D1C28782E2815D104200443687858
:102190006D1C2A280AD101CF6D1C02900BE0029918
:1021A0000A225143303940186D1C029028780146AC
:1021B00030390929F3D928786C2810D006DC4C284E
:1021C0001AD068280ED06A2817D104E0742813D0DA
:1021D0007A2812D110E00120400504430CE00121CF
:1021E000090501E0032109050C436978814203D107
:1021F0000120000524186D1C6D1C287803906E28A2
:102200001ED00CDC632831D004DC00288AD058288A
:1022100011D1B2E064287BD069280CD178E0732812
:102220002DD004DC6F2870D0702804D1A7E0752869
:102230006CD078286BD0149A13999047761C62E082
:102240006002400F022807D003280AD0042838680B
:102250000AD006603F1D56E03868F11706604160FD
:10226000F8E738680680F5E70670F3E738786946DE
:1022700008740020487404A80390012003E0386823
:1022800003900020C0433F1D61070FD5002101E0EE
:102290000199491C029A0191914213DA8142F7DBBC
:1022A000019A0399895C0029F2D10BE0002101E039
:1022B0000199491C01918142FADB019A0399895CD9
:1022C0000029F5D101990098139A401A00902146EF
:1022D000149B00F0C1FC01998019461807E003988F
:1022E00003990078491C0391149A13999047019817
:1022F000401E0190401CF2D12146149B139A009875
:1023000000F08AFC86196D1C09E741E033E034E0F7
:102310000A200021049005916002410F022905D096
:1023200001CFC2179446032905D007E0FF1DFF081F
:10233000FF0003CF06E000B2C2179446042902D181
:1023400040B2C1178C4600226146944506DA0A461F
:102350000021404291418C462D2102E0210504D507
:102360002B216A461176012103E0E10701D02021EB
:10237000F7E7019154E00A200BE0102009E010205B
:10238000049000210420044308200591029003E0FA
:1023900008200021059104906002410F022905D018
:1023A00001CF00229446032906D006E0FF1DFF0856
:1023B000FF0003CF8C4603E080B2042900D1C0B2F5
:1023C0000021019121072BD50399702906D0049A89
:1023D0001021059B4A401A4305D00EE040216A4671
:1023E0001176012108E06146014306D030216A469A
:1023F00011760399517602210191049A0821059BD7
:102400004A401A430CD16146014301D1610707D507
:1024100030216A461176012101910299491E0291EB
:102420000399582904D037A103910FA90F910DE00A
:1024300039A1F9E76146059B049AFDF751FF039B1B
:102440008C469B5C0F9A521E0F921370614601439B
:10245000F0D10F9807A9081A20300390600704D51F
:10246000012000048443029801E0012002900399B6
:10247000884201DD401A00E00020411802900198D6
:1024800009180098401A0090E00306D42146149BD6
:10249000139A009800F0E0FB86190020049008E0F1
:1024A00006A9085C149A139990470498401C761C5E
:1024B000049001998842F3DBE0030CD52146149B7C
:1024C000139A009800F0C8FB861904E0149A302093
:1024D00013999047761C0299481E02900029F5DC5A
:1024E00008E00F980F990078491C0F91149A1399DE
:1024F0009047761C0399481E03900029F1DCFBE607
:1025000009280100303132333435363738396162C9
:10251000636465660000000030313233343536378D
:10252000383941424344454600000000FFB597B0AA
:102530000646002518E2252877D100242746FD49C4
:10254000049400E00443761C32780120203A904045
:102550000842F7D130782A280ED00222307801467E
:102560003039092916D804990A23594330394018BB
:102570001443761C0490F1E7189802C8049118904F
:10258000002904DA01204003044348420490022059
:102590000443761C30782E2814D10420044370782C
:1025A000761C2A2809D11898761C80C8189009E052
:1025B0000A214F43303FC719761C30780146303925
:1025C0000929F5D930786C2810D006DC4C281AD0AF
:1025D00068280ED06A2817D104E0742813D07A280E
:1025E00012D110E00120400504430CE0012109054F
:1025F00001E0032109050C437178814203D10120D8
:1026000000052418761C761C3078119066280BD0B3
:1026100013DC58287DD009DC00287BD04528F6D073
:102620004628F4D047281AD1A5E118E0632835D010
:10263000642870D0652812D19DE170286CD008DC28
:102640006728F1D069287BD06E280DD06F2806D17D
:10265000BAE073282ED0752871D0782859D01A9AEC
:10266000199990476D1C7EE16002400F022809D045
:1026700003280DD00428189801680DD00D60001DA6
:10268000189070E11898EA1701680D604A60F6E743
:10269000189801680D80F2E70D70F0E718986A4607
:1026A00001781172001D18900020507202A800904D
:1026B000012005E0189802C8189000200091C0433E
:1026C00061070DD5002101E00199491C0191B94232
:1026D00012DA8142F8DB009A515C0029F4D10BE058
:1026E000002101E00199491C01918142FADB019A24
:1026F0000099895C0029F5D1019904981A9B471A21
:1027000021463846199A00F0BDFA0199401945183A
:102710000BE04FE02CE113E04EE0009800990078C8
:10272000491C00911A9A199990470198401E0190EE
:10273000401CF2D1214638461A9B199A10E137E025
:102740000A200021009001916002410F022907D068
:10275000189A01CA1892C2179446032908D00AE0B1
:102760001898C01DC108C90005C91891944607E012
:1027700000B2C2179446042902D140B2C1178C4658
:1027800000226146944506DA0A4600214042914102
:102790008C462D2102E0210504D52B216A461173B8
:1027A000012103E0E10701D02021F7E7029155E084
:1027B0000A200AE0102008E01020009000210420E8
:1027C00004430191082703E00820002101910090B3
:1027D0006002410F022907D0189A01CA18920022FC
:1027E0009446032908D008E01898C01DC108C90004
:1027F00005C91891944603E080B2042900D1C0B203
:1028000000210291210729D51199702906D0009A3B
:102810001021019B4A401A4305D00EE040216A4630
:102820001173012108E06146014306D030216A4658
:1028300011731199517302210291009A0821019B91
:102840004A401A430AD16146014301D1610705D5C7
:1028500030216A46117301217F1E02911199582976
:1028600004D035A10E910DA90D910DE037A1F9E726
:102870006146019B009AFDF733FD0E9B8C469B5CE5
:102880000D9A521E0D92137061460143F0D10D98BE
:1028900005A9081A20300190600703D50120000423
:1028A000844300E001270198874201DD381A00E0E7
:1028B0000020019900904118029809180498401AC4
:1028C0000490E00306D421461A9B199A049800F05C
:1028D000D9F94519002706E003A81A9AC05D19998D
:1028E00090476D1C7F1C02988742F5DBE0030CD5F6
:1028F00021461A9B199A049800F0C4F9451904E07E
:102900001A9A3020199990476D1C0099481E009022
:102910000029F5DC08E00D980D990078491C0D910F
:102920001A9A199990476D1C0199481E0190002927
:10293000F1DC63E1092801003031323334353637B8
:1029400038396162636465660000000030313233FB
:10295000343536373839414243444546000000009B
:1029600000F06AF94519761C3078002800D0E2E5BD
:1029700028461BB0F0BD600700D406271898C01D7C
:10298000C108C90048680A680831C30FDB071891FD
:10299000190001D09CA108E0210501D59BA104E00C
:1029A000E10701D09AA100E09AA1430011985B08C9
:1029B000109165280CD006DC452809D046281DD08A
:1029C000472841D141E0662818D067283CD13CE037
:1029D0000021112F01DB112000E0781C01910090F3
:1029E00008A911A8FFF7D4FA139905910021119AAB
:1029F00015927F1C12980197009150E00120C007AA
:102A000003900120019008A9009711A8FFF7C0FAD0
:102A1000139A149905920022119B00921298159313
:102A2000059A0192002901D0104602E0791C401855
:102A30000190381A01D5019804E04042401E0090F0
:102A4000781C0190C01B029043E0012F00DA01279F
:102A50000021112F01DD112000E038460191009086
:102A600008A911A8FFF794FA13990591119A00216A
:102A7000129815920091019721070CD40599B9423B
:102A800001DB019900E00191012904DD159A491E3D
:102A9000515C302906D0B84201DA011D05DA012166
:102AA000029115E00199491EEDE7002805DC009927
:102AB000411800910199091A03E0019A411C9142C1
:102AC00000DD01910099401A401C02900120C007CE
:102AD0000390200706D402990198814202DB00206E
:102AE000C043029000206946C87707AF01210398D0
:102AF0000337C907884224D0022011902B2012905E
:102B0000039800280CDA404203902D20129007E031
:102B10000A210398FDF7F6FA30317F1E03903970D1
:102B20001199481E11900029F2DC03980028EFD17A
:102B3000791E129808703078202108404530BF1E59
:102B4000387006A8C01BC01D03901098007800289C
:102B500000D00120019941180298C0170918039864
:102B600009180498401A401E0490E00306D4214638
:102B70001A9B199A049800F085F845191098007866
:102B8000002803D01A9A199990476D1CE00324D5A8
:102B900021461A9B199A049800F074F845191CE014
:102BA0000098002807DB00990598884203DD1598F6
:102BB000405C199901E0199930201A9A90470098C1
:102BC0006D1C401C00900298401E0290002804D109
:102BD0001A9A2E20199990476D1C0199481E019050
:102BE0000029DDDC05E038781A9A7F1C1999904796
:102BF0006D1C0399481E03900029F4DC21461A9BA2
:102C0000199A0498ACE600002D0000002B0000008B
:102C10002000000000000000F8B5044600251E4614
:102C20001746880404D405E039462020B0476D1CBF
:102C3000641EF9D52846F8BDF8B5044600251E46A1
:102C40001746880404D405E039462020B0476D1C9F
:102C5000641EF9D52846F8BDFFB50446002581B0AD
:102C60001E46C80301D5302700E02027880404D57C
:102C700005E038460399B0476D1C641EF9D5284617
:102C800005B0F0BDFFB50446002581B01E46C8035F
:102C900001D5302700E02027880404D505E0384618
:102CA0000399B0476D1C641EF9D5284605B0F0BDE8
:102CB0000A68531C0B60107070470000F8B5064698
:102CC0000025002400273078F22800D0F8BD707865
:102CD000102800D9FAE7002505E0681C305CC0190F
:102CE000C7B2681CC5B27078401CA842F5DC707889
:102CF000801C305CB84200D0E8E71021F948FDF7AD
:102D000044FA0024B078572877D01EDC092846D032
:102D100008DC0300FFF71BF909423D91E4FDFCFBD1
:102D2000FAF94200532869D008DC352867D05028CA
:102D30007ED051287DD0522830D1C6E1542879D098
:102D4000552878D05628F7D15DE2602874D00FDC82
:102D50005838082822D243007B449B885B009F445C
:102D60006E0278027B0286029A029D02AB02E302A7
:102D700072287DD006DC61287BD070287AD071283B
:102D8000DAD19CE1732876D07E2875D0B928D3D1CA
:102D9000FAE000221146012001F0CEFDC7E2F078F2
:102DA000012802D1FEF736FD0AE0F078022802D1B0
:102DB000FEF72AFD04E0F078032801D1FEF73AFD82
:102DC000F8222046611CCCB2C6490A540222204691
:102DD000611CCCB2C3490A54B2782046611CCCB203
:102DE000C0490A54FEF70AFD002809D001222046F6
:102DF000611CCCB2BB490A5408E014E26CE1C2E0A9
:102E000002222046611CCCB2B6490A54002509E0D2
:102E1000B448015D0246681C105C0818114608554C
:102E2000681CC5B2AF484078401CA842F0DC7EE286
:102E300033E13EE160E1DBE177E2AB480078C007D7
:102E4000C00F002846D001F085FCA7480068042187
:102E50008843A5490860084600780007C00F00288D
:102E60003DD001F0D9FBF8222046611CCCB204E031
:102E700031E15BE217E139E155E29A490A5409224E
:102E80002046611CCCB297490A5402222046611C9C
:102E9000CCB294490A540819082101F08DF8204653
:102EA0000830C4B2002509E08E48015D0246681C66
:102EB000105C081811460855681CC5B2894840784E
:102EC000401CA842F0DC601CC4B22146854800F0DA
:102ED0008FFA04E000221146022001F02DFD26E2C7
:102EE00081480078C007C00F002846D001F032FCAE
:102EF0007D480068042188437B49086008460078C3
:102F00000007C00F00283DD004E0C0E0B9E0B2E007
:102F1000ABE0A4E001F06CFBF8222046611CCCB2CF
:102F200070490A5409222046611CCCB26D490A54EA
:102F300003222046611CCCB26A490A5408190821B0
:102F400001F03AF820460830C4B2002509E065488F
:102F5000015D0246681C105C081811460855681C83
:102F6000C5B260484078401CA842F0DC601CC4B286
:102F700021465C4800F03CFA04E0002211460320A0
:102F800001F0DAFCD3E1D2E157480078C007C00F66
:102F9000002806D0544800684008400052490860A4
:102FA00006E05148006840084000401C4E49086057
:102FB000F8222046611CCCB24A490A540B22204612
:102FC000611CCCB247490A54B9222046611CCCB2DC
:102FD00044490A5444480078C207D20F2046611C75
:102FE000CCB240490A54404800780007C20F20463E
:102FF000611CCCB23B490A540819082100F0DCFFDF
:1030000000250FE037480019405D002804D03548FE
:103010000019405DFF2803D1202032490919485585
:10302000681CC5B2082DEDDB20460830C4B200256F
:1030300009E02C48015D0246681C105C0818114626
:103040000855681CC5B227484078401CA842F0DCEF
:10305000601CC4B22146234800F0CAF967E100228F
:103060001146042001F068FC61E1002211460520B0
:1030700001F062FC5BE100221146062001F05CFCDD
:1030800055E100221146072001F056FC4FE10022D5
:103090001146082001F050FC49E1002211460820A9
:1030A00001F04AFC43E100221146012001F044FCFA
:1030B0003DE100221146022001F03EFC37E10022F2
:1030C0001146052001F038FC31E1002211460620AE
:1030D00001F032FC2BE12AE100221146032001F02D
:1030E0002BFC24E1010100202400002000221146D5
:1030F000042001F021FC1AE1924800780007C00F7B
:10310000002812D18F4800680821884308308D4973
:1031100008600846006804218843001D894908604A
:103120000021084601F0A6FA14E08648006808214C
:10313000884384490860084600680421884381491F
:103140000860084600680821884308307D49086007
:1031500001F00EFBF8222046611CCCB27A490A54D9
:103160000A222046611CCCB277490A54012220462B
:10317000611CCCB274490A54724800780007C20F2F
:103180002046611CCCB270490A540819082100F08D
:1031900013FF00250FE06C480019405D002804D0A3
:1031A00069480019405DFF2803D1202066490919AC
:1031B0004855681CC5B2082DEDDB20460830C4B266
:1031C000002509E06048015D0246681C105C081893
:1031D00011460855681CC5B25B484078401CA8429F
:1031E000F0DC601CC4B22146574800F001F99EE0B3
:1031F00054480068042188435249086001F0AAFA43
:1032000001F0F6F993E05148407864280ADC4F4811
:1032100040780A304D49487008464078642801DB00
:103220006420487083E04748006804218843001DFB
:10323000444908600021084601F01CFA77E0434841
:1032400040780A2804DB414840780A383F494870F2
:103250006DE000F015FE6AE03A48006804218843FA
:103260003849086001F076FA01F0D6F95FE0374896
:10327000007864280ADC354800780A303349087041
:1032800008460078642801DB642008702F4908781C
:10329000FEF744F94BE000F01BFE48E02B480078B5
:1032A0000A2804DB294800780A3828490870274989
:1032B0000878FEF733F93AE0FEF7BCFAF822204628
:1032C000611CCCB220490A5402222046611CCCB2B7
:1032D0001D490A5409222046611CCCB21A490A54DD
:1032E000FEF78CFA002806D001222046611CCCB2E1
:1032F00015490A5405E002222046611CCCB212494D
:103300000A54002509E01048015D0246681C105C63
:10331000081811460855681CC5B20B484078401C77
:10332000A842F0DC03E002E001E000E000BF00BFE3
:10333000002C05D0601CC4B22146034800F058F8A8
:1033400000BFC3E424000020010100201000002081
:1033500010B500200749087010210748FCF715FF39
:1033600010210648FCF711FFFEF72CF9FEF7D0F903
:1033700010BD000020000020F1000020010100200D
:1033800010B518480078002822D001F0A1FE1028BE
:1033900013D0202802D0402814D109E0FEF702F90A
:1033A000FEF70AF900200F490870FEF7B1F90EE0A8
:1033B000FEF7F8F8FEF700F909E0FEF7F3F8FEF77C
:1033C000FBF804E010210848FEF7B3F900BF08E05D
:1033D0001021064801F05EFE002802D00348FFF7E6
:1033E0006DFC10BD2000002001010020F100002034
:1033F00070B504460D46FEF7B4F901200A4908707D
:1034000010210A48FCF7C1FE2A4621460748FCF76E
:10341000A3FE10210548FEF78CF9FEF779F900208C
:103420000149087070BD000020000020010100204B
:1034300002460020184B187026E01078521C164BDC
:103440001B785840144B18700020144B187017E06C
:1034500011480078C007C00F002807D00E48007838
:1034600040108C2358400C4B187004E00A48007838
:103470004010094B187009480078401C074B187021
:10348000064800780828E3DB08464B1ED9B200281E
:10349000D3D10148007870470500002006000020C5
:1034A00030B5044600201C4D28702CE02078641CA8
:1034B000194D2D786840184D2870501C82B29A42E0
:1034C00001DB0022E41A0020144D287017E0124896
:1034D0000078C007C00F002807D00F4800784010C0
:1034E0008C2568400C4D287004E00B480078401093
:1034F000094D287009480078401C084D287007487D
:1035000000780828E3DB08464D1EA9B20028CDD17B
:103510000148007830BD00000500002006000020B2
:10352000F0B589B0064600250024002005900690DD
:10353000079008900320000230184088C01CC00586
:10354000C00D305C41287DD012DC35287BD008DCF2
:10355000122820D0312877D0332876D0342875D15E
:1035600037E3362873D0372872D03828F7D13DE1B9
:1035700064286ED008DC54286CD057286BD06228A1
:103580006AD06328EBD1FBE3652866D066287DD03E
:10359000F028E4D165E303200002301840880C30A5
:1035A000C005C00D305C04900020039002900027FD
:1035B00074200290052080020299FCF7A3FDC0B29E
:1035C00003900398401E0499884200DA2EE2F848DE
:1035D000006808210843F649086000BF00BF00BF2B
:1035E0005920F44908601621F248016088210160E1
:1035F00000680028F4D000BFFDF734FD04980028CF
:103600000DD10A20EC490870002404E0600201F0AA
:10361000CDF8601CC4B2E84800788442F6DB032091
:103620000002301840880D30C005C00D305C000726
:10363000000FE2490880084600780D2148430A300F
:10364000C7B20BE083E29DE112E153E1FEE3EEE15C
:1036500035E2DCE335E394E39FE3E3E3002441E078
:10366000029904984843A1004018019003200002E9
:1036700030184088001D0019C005C00D305C009056
:103680000320000230184088001D00E0DFE300192D
:10369000401CC005C00D305C00020099084300903A
:1036A0000320000230184088001D0019801CC0054E
:1036B000C00D305C00040099084300900320000214
:1036C00030184088001D0019C01CC005C00D305CBA
:1036D00000060099084300900099019801F076F8DF
:1036E000601CC4B2F917890FC9198910A142B7DC4F
:1036F0003846F917890F091889108900791A60D09E
:10370000F917890F091889108B00029A04995143FF
:103710005918019100200090002444E0002C04D0AE
:10372000012C13D0022C3BD125E03846F917890F24
:10373000091889108A000321090271184988091D96
:103740005118C905C90D715C009129E03846F91777
:10375000890F091889108A00032109027118498804
:10376000091D51180919C905C90D715C0902009A92
:103770001143009114E03846F917890F0918891090
:103780008A000321090271184988091D5118091975
:10379000C905C90D715C0904009A1143009100BF6D
:1037A00000BF601CC4B23846F917890F0918891088
:1037B0008900791AA142B1DC0099019801F006F85C
:1037C00000BFFDF717FC00BF00217A48016000BF71
:1037D000774800680821884375490860764904984D
:1037E00008700122122001F0A7F841E3F8222846D0
:1037F000691CCDB205A90A54714802782946681C93
:10380000C5B205A8425438222846691CCDB205A984
:103810000A5400240FE00320000230184088001DE5
:103820000019C005C00D325C2846691CCDB205A93F
:103830000A54601CC4B262480078401EA042EADC10
:10384000002409E005A8415D05AA601C105C081869
:1038500005A94855601CC4B26846407D401CA04282
:10386000F0DC681CC5B2294605A8FFF7C1FDFFE2E0
:10387000F8222846691CCDB205A90A54504802789E
:103880002846691CCDB205A90A5431222846691C74
:10389000CDB205A90A5400240FE00320000230181D
:1038A0004088001D0019C005C00D325C2846691C07
:1038B000CDB205A90A54601CC4B241480078401E2C
:1038C000A042EADC002409E005A8415D05AA601CCD
:1038D000105C081805A94855601CC4B26846407DB4
:1038E000401CA042F0DC681CC5B2294605A8FFF7C1
:1038F0007FFDBDE2F8222846691CCDB205A90A5415
:103900002F4802782846691CCDB205A90A543322F3
:103910002846691CCDB205A90A5400240FE00320F3
:10392000000230184088001D0019C005C00D325C2F
:103930002846691CCDB205A90A54601CC4B22048AF
:103940000078401EA042EADC002409E005A8415DA1
:1039500005AA601C105C081805A94855601CC4B273
:103960006846407D401CA042F0DC681CC5B215488A
:103970000078C007C00F002803D1294605A8FFF72B
:1039800037FD75E2F8222846691CCDB205A90A5414
:103990000B4802782846691CCDB205A90A54352285
:1039A0002846691CCDB205A90A5400241CE0000079
:1039B00000C00050000100502C0000202A00002010
:1039C0002800002024000020032000023018408836
:1039D000001D0019C005C00D325C2846691CCDB21F
:1039E00005A90A54601CC4B2FC480078401EA042DD
:1039F000EADC002409E005A8415D05AA601C105C12
:103A0000081805A94855601CC4B26846407D401C92
:103A1000A042F0DC681CC5B2F1480078C007C00FB6
:103A2000002803D1294605A8FFF7E2FC20E2F8228E
:103A30002846691CCDB205A90A54E84802782846F0
:103A4000691CCDB205A90A5436222846691CCDB29C
:103A500005A90A5400240FE0032000023018408812
:103A6000001D0019C005C00D325C2846691CCDB28E
:103A700005A90A54601CC4B2D8480078401EA04270
:103A8000EADC002409E005A8415D05AA601C105C81
:103A9000081805A94855601CC4B26846407D401C02
:103AA000A042F0DC681CC5B2CD480078C007C00F4A
:103AB000002803D1294605A8FFF79AFCD8E1F8228F
:103AC0002846691CCDB205A90A54C4480278284684
:103AD000691CCDB205A90A5437222946681CC5B213
:103AE00005A8425400240FE003200002301840884B
:103AF000001D0019C005C00D325C2846691CCDB2FE
:103B000005A90A54601CC4B2B4480078401EA04203
:103B1000EADC002409E005A8415D05AA601C105CF0
:103B2000081805A94855601CC4B26846407D401C71
:103B3000A042F0DC681CC5B2A9480078C007C00FDD
:103B4000002803D1294605A8FFF752FC90E1F8228E
:103B50002846691CCDB205A90A54A0480278284617
:103B6000691CCDB205A90A5441222846691CCDB270
:103B700005A90A5400240FE00320000230184088F1
:103B8000001D0019C005C00D325C2846691CCDB26D
:103B900005A90A54601CC4B290480078401EA04297
:103BA000EADC002409E005A8415D05AA601C105C60
:103BB000081805A94855601CC4B26846407D401CE1
:103BC000A042F0DC681CC5B2294605A8FFF710FC2E
:103BD0004EE1F8222846691CCDB205A90A547F4857
:103BE00002782846691CCDB205A90A543422284619
:103BF000691CCDB205A90A5400240FE0032000027D
:103C000030184088001D0019C005C00D325C2846E0
:103C1000691CCDB205A90A54601CC4B26F48007873
:103C2000401EA042EADC002409E005A8415D05AA87
:103C3000601C105C081805A94855601CC4B2684691
:103C4000407D401CA042F0DC681CC5B2644800788E
:103C5000C007C00F002803D1294605A8FFF7C8FBFD
:103C600006E10020049004906846007C5C490978D5
:103C70000907C90F002901D0802100E00021084375
:103C800069460874087C564909784907C90F002914
:103C900001D0402100E00021084369460874FDF787
:103CA000ADFD002801D0012000E000206946497CDC
:103CB000084369464874022204A9F02000F03CFE43
:103CC000D6E0474800780007C00F002810D14448CC
:103CD00000680821884308304149086008460068A8
:103CE00004218843001D3E49086000F033FD0DE0CB
:103CF0003B48006808218843394908600846006845
:103D0000042188433649086000F032FDF822284635
:103D1000691CCDB205A90A540A222846691CCDB2F5
:103D200005A90A5401222846691CCDB205A90A54E6
:103D30002B4800780007C20F2846691CCDB205A9A0
:103D40000A544819082100F037F928460830C5B24E
:103D5000002409E005A8415D05AA601C105C081854
:103D600005A94855601CC4B26846407D401CA0426D
:103D7000F0DC681CC5B2294605A8FFF739FB77E0DF
:103D800030E01748006804218843001D144908608A
:103D90000021084600F06EFC6AE01148006804212A
:103DA00088430F49086003231B02F3185B889B1D9F
:103DB000DB05DB0DF25C03231B02F3185B885B1D44
:103DC000DB05DB0DF15C03231B02F3185B881B1D75
:103DD000DB05DB0DF05C00F035FC49E0280000203D
:103DE000240000200320000230184088001DC00578
:103DF000C00D305C20490870032109027118498800
:103E0000091DC905C90D705CFDF788FB30E0032072
:103E1000000230184088001DC005C00D305C1649F6
:103E2000487025E01548006804218843134908605C
:103E300000F090FC0321090271184988091DC90589
:103E4000C90D705C002100F015FC11E00FE00320AB
:103E5000000230184088001DC005C00D375C3811C5
:103E6000002803D13807000FFDF7DAFC00E000BF9F
:103E700000BF09B0F0BD00001000002024000020A9
:103E800010B511480078401C0F49087008460078AA
:103E90000A2801DB002008700B4B1B785C001B1903
:103EA0000A4C1B199A78084B1B785C001B19074CAD
:103EB0001B195978044B1B785C001B19034CE05C00
:103EC00000F0C0FB10BD0000180000207151000080
:103ED00010B512480078002805D010480078401E20
:103EE0000E49087002E009200C4908700B4B1B7842
:103EF0005C001B190A4C1B199A78084B1B785C0054
:103F00001B19074C1B195978044B1B785C001B19B3
:103F1000034CE05C00F096FB10BD00001800002090
:103F20007151000070B500240026002500201C49B6
:103F300008707425294605208002FCF7E3F8C6B214
:103F400000BF0FE021466943084600F037FCFF2818
:103F500005D013480078401C1149087000E003E0C8
:103F6000601CC4B2B442EDDB00BF09200D490870EB
:103F700006210D48FCF709F90C4800210170722157
:103F80000B48FCF702F90B480021016041606420F6
:103F9000084908703220487000F0EAFB70BD00004C
:103FA0000F00002018000020080000200E00002054
:103FB0007F0000201000002070B505460C46082C3C
:103FC00001D9002570BD224602492846FCF7C4F8F5
:103FD00000BFF7E77F00002070B5FE484079002859
:103FE00005D0FC484079401EFA49487170BDFA4836
:103FF000C079002807D1F848017BC27A0802104333
:10400000002800D1F2E7F44800780007000F0328E9
:1040100004D004287ED005287DD120E2ED48401C44
:10402000FCF7D2F8441CEB49491C2046FCF7D6F8B3
:10403000E9484078E849097988422BDAE548401C8C
:10404000FCF7C2F80002E4490979E34A52788C1A75
:10405000002C01DB214600E0614205464D43DE486D
:10406000827A437A1002184301462846FCF74AF840
:10407000D949497809024018D8490860D649097ACF
:10408000D64A1268514308466421FCF73BF8D349ED
:1040900008602AE0CF48401CFCF796F80002CE49A1
:1040A0000979CD4A52788C1A002C01DB214600E0B8
:1040B000614205464D43C848827A437A100218434C
:1040C00001462846FCF71EF8C34949780902081A38
:1040D000C2490860C049097AC04A1268514308467B
:1040E0006421FCF70FF8BD490860BC480088BC4952
:1040F0004880B9488178407981422DDAB548401C22
:10410000FCF762F80002B4494A798978541A002C05
:1041100004DB01E0D7E05FE2214600E061420546B2
:104120004D43AD48827A437A10021843014628462F
:10413000FBF7E8FFA849897809024018A7490860F9
:10414000A549097AA54A1268514308466421FBF73C
:10415000D9FFA249086029E09E48401CFCF734F8CA
:1041600000029D494A798978541A002C01DB2146C6
:1041700000E0614205464D439748827A437A100237
:10418000184301462846FBF7BDFF93498978090289
:10419000081A924908609049097A904A1268514376
:1041A00008466421FBF7AEFF8C4908608B48008805
:1041B00081B28B4881808848C178807981422ADA2F
:1041C0008448401CFCF700F8000283498A79C978CA
:1041D000541A002C01DB214600E0614205464D43A4
:1041E0007D48827A437A1002184301462846FBF73D
:1041F00089FF7949C97809024018784908607649E9
:10420000097A764A1268514308466421FBF77AFF1F
:104210007249086029E06F48401CFBF7D5FF000297
:104220006D498A79C978541A002C01DB214600E0D7
:10423000614205464D436848827A437A100218432A
:1042400001462846FBF75EFF6349C9780902081A50
:10425000624908606049097A604A12685143084619
:104260006421FBF74FFF5D4908605C48008881B21C
:104270005B48C1800346DA8899885888FDF71CF9A5
:104280005448401CFBF7A0FF53498A7A4B7A11022D
:10429000194388420DD34F49491C0020FBF79EFF6C
:1042A0004D48C079002804D04B48C079401E4A4987
:1042B000C8714948C079002804D1474909780811D4
:1042C00000F066FA89E14348007800280AD14148A5
:1042D000401CFBF779FF441C3E49491C2046FBF774
:1042E0007DFF0FE03B48401CFBF76EFF002809D024
:1042F0003848401CFBF768FF441E3649491C2046DD
:10430000FBF76CFF3348401CFBF75EFF0102081A05
:1043100031494978484304462F48827A437A10024B
:10432000184301462046FBF7EDFE2C4908602A4958
:10433000097A2A4A1268514308466421FBF7E2FED3
:104340002649086008460088254948802148401CC5
:10435000FBF73AFF0102081A1F49897848430446CF
:104360001D48827A437A1002184301462046FBF723
:10437000C9FE1A4908601849097A184A1268514357
:1043800008466421FBF7BEFE144908600846008811
:1043900081B2134881800F48401CFBF715FF0102D2
:1043A000081A0D49C978484304460B48827A437A73
:1043B0001002184301462046FBF7A4FE0749086097
:1043C0000549097A054A1268514308466421FBF7FA
:1043D00099FE07E008000020680000201C00002073
:1043E000100000207E4908600846008881B27D48A0
:1043F000C1800346DA8899885888FDF75DF87A48C5
:10440000FBF7E2FE79498A7A4B7A11021943884216
:1044100004D27548FBF7D8FE002816D17248401E1A
:104420000078002804D101206F49491E08700CE073
:1044300000206D49491E08706C48C079002804D0DE
:104440006A48C079401E6949C8716848C079002827
:1044500004D166490978081100F09AF9BDE0FF24FB
:104460006148FBF7B1FE002837D1604949786143C4
:104470005E4A127A514308466421FBF743FE5849CD
:104480000860084600885749488058498978614340
:10449000564A127A514308466421FBF733FE5049CD
:1044A00008600846008881B24E4881804F49C9782B
:1044B00061434E4A127A514308466421FBF722FEBB
:1044C000474908600846008881B24648C1800346D3
:1044D000DA8899885888FCF7EFFF4448817A427A55
:1044E000080210433E4908603F48FBF76DFE3C4917
:1044F0000968884237D13D49097961433B4A127ABC
:10450000514308466421FBF7FDFD35490860084624
:10451000008834494880354949796143334A127AE1
:10452000514308466421FBF7EDFD2D49086008461C
:10453000008881B22B4881802C49897961432B4ABC
:10454000127A514308466421FBF7DCFD24490860D8
:104550000846008881B22348C1800346DA889988DA
:104560005888FCF7A9FF2048FBF72EFE451C1E4982
:104570002846FBF733FE0020194908601B48817A62
:10458000427A080210431649096841181748027B0D
:10459000C37A100218430818114908601248FBF743
:1045A00013FE0F49096888420CD30F490020FBF71E
:1045B00015FE0E48C079002804D00C48C079401E72
:1045C0000A49C8710948C079002804D10749097807
:1045D000081100F0DDF800E000BF00BF00BF05E5F6
:1045E0001C000020100000200900002068000020AE
:1045F00010B508480078401C064908700846007845
:104600002C2801D30020087002490878012100F00D
:1046100031F810BD0E00002010B5094800780028C0
:1046200005D007480078401E0549087002E02B209D
:104630000349087002490878022100F01BF810BDF8
:104640000E00002070B504460D46164600F090F8A6
:104650002002074948802902054881803102C18033
:104660000346DA8899885888FCF726FF70BD000059
:104670001000002070B504460D4600203049087037
:10468000491CFBF7ABFD00202D4948712B2C04D9A8
:104690002B202C4908702B2401E02A480470002D9F
:1046A00009D129480078FF283ED100221146104642
:1046B000FCF702FF38E0012D1BD1002600BF14E0FB
:1046C00021480078FF280DD1002C05D10022114689
:1046D0001046FCF7F1FE0AE0601CC4B22C2C02D399
:1046E000002400E003E0701CC6B22C2EE8D300BF0B
:1046F0001AE0022D18D1002600BF11E01248007800
:10470000FF280AD1002C02D0601EC4B206E00022AD
:1047100011461046FCF7D0FE04E003E0701CC6B260
:104720002C2EEBD300BF00BF0D2207490A310748EA
:10473000FBF712FD0A2204490548FBF70DFD70BD89
:10474000080000200E0000207F00002068000020EC
:104750007500002010B50920034908700349087846
:104760000021FFF787FF10BD180000200E00002079
:1047700010B500200549C87100210448C1720173B9
:10478000002211461046FCF797FE10BD680000207D
:1047900010B50446002004490870491CFBF71EFDB3
:1047A00032200149487110BD0800002010B50446B0
:1047B0001B218902601800F039FA10BD10B50446BB
:1047C0001B218902601800F037FA10BD70B504464D
:1047D0000D461B2189026018294600F033FA70BD8E
:1047E00010B5C12189000248FBF7CFFC10BD0000C5
:1047F0001201002038B5002000907FE069460120BA
:1048000000F028FA002878D0684601783D480288F0
:104810000088401C3B4B18803B4881541846008858
:1048200001214902884202D30021184601803548FF
:10483000008834494988401AC005C00D05285AD956
:10484000304840883049085C552849D12D48408877
:10485000401CC005C00D085CAA2841D129484088E9
:10486000801CC005C00D0C5C26480088254949887D
:10487000401AC105C90D201D814230D321494A8803
:104880004988214BC81801235B02E11CFEF708FE92
:104890001C4949880919C91CC905C90D1A4A515C26
:1048A00088420DD017484088401C81B2154841808D
:1048B00016A30222FF2190311E48FCF7EFFC0EE008
:1048C0001148FEF72DFE0F484188201D08180D499C
:1048D000488008464088C105C90D0A48418004E067
:1048E00008484088401C0749488006484088C00561
:1048F000C00D0449488001E0FFE700E07EE700BF0B
:1049000038BD000012040020120100205B45525205
:104910004F525D20202072656D6F746520636F6E4D
:1049200074726F6C20636865636B206572726F725E
:10493000210D0A008F510000F7B5074615460024E7
:104940000026FF2101311948FBF71FFC55222146A3
:10495000641C16484254AA222146641C4254681C16
:10496000C2B22146641C114842542146641C47547B
:1049700000BF08E00198825D2046611CCCB20B4963
:104980000A54701CC6B2AE42F4DB281DC1B20748FF
:10499000FEF74EFD2146621CD4B2044A5054224612
:1049A0000249012000F065F9FEBD0000120300205D
:1049B0007047000010B5044620014F4940184F4988
:1049C00008600968086880474D4908700846007803
:1049D000002863D0494800680079052804DA0520DA
:1049E00046490968087186E04448006800790A2849
:1049F00007DA424800680079401C4049096808719C
:104A000079E03E480068807A002809D101203B49BE
:104A10000968887261006118491CC8B200F0F6F894
:104A2000364800680089002865DD34480068C08881
:104A3000324909680989884213DA30480068C08819
:104A4000401C80B22D490968C8802C490968098931
:104A5000884250D161006118C91CC8B200F0D6F874
:104A600049E026480068C07A002844DD23480068F1
:104A7000007B401CC0B22149096808731F490968BE
:104A8000C97A884237DB00201C4909680873610035
:104A90006118491CC8B200F0B9F82CE0174800684A
:104AA0000079052804DD05201449096808711BE018
:104AB000124800680079002807D010480068007983
:104AC000401E0E49096808710EE00C480068807AA3
:104AD000012809D10020094909688872610061181C
:104AE000891CC8B200F092F8002004490968C88007
:104AF00002490968087310BD180400203000002026
:104B0000340000200B48807A0A4AD27A904201D1C0
:104B1000002070470748807A064A115C1046807A68
:104B2000401CC0B290720A2801DB00209072084637
:104B3000EFE700003804002010B500F053F8FCF750
:104B4000CDF8FDF7B7F9FCF74DFE00F005F8FCF7DE
:104B500015FCFDF729F810BD10B500F017F800F0AE
:104B600001F810BD10B5032202210648FCF702FB34
:104B7000032204210348FCF7FDFA012002494862A0
:104B8000886210BDC0400050404200500021114AD0
:104B90009172D1721173002014E0642102010E4B56
:104BA000D218118102210201D218117100210201D3
:104BB000D21891720201D218D1720201D218117367
:104BC000411CC8B20228E8DB0449034A11600449C9
:104BD00011617047380400201804002041120000C1
:104BE0005512000010B5FDF72BF9FCF7F1FAFCF7B0
:104BF00063F810BD10B5002404E02046FFF7DAFE8C
:104C0000601CC4B2022CF8DB10BD00000649C97A52
:104C1000054A50541146C97A491CC9B2D1720A29B1
:104C200001DB0021D17270473804002010B5044622
:104C30002046FCF7E9F910BD10B504462046FCF704
:104C40001BFA10BD70B504460D4629462046FCF7F8
:104C50007FFA70BD70B505460E462846FCF71CF875
:104C60000446002C00D170BD31462046FDF73CF8CB
:104C7000F9E7F8B505460E4617462846FCF70CF846
:104C80000446002C00D1F8BDE069002801D0E0699D
:104C900080473A4631462046FDF79AF800BFF2E7D2
:104CA000002100BF01E04A1CD1B28142FBDB70470A
:104CB00030B504460D462046FCF76AFE204630BD5E
:104CC0001FB50026FCF720FEFCF7CEFAFFF734FFF5
:104CD0009048006890A30522522100909248FCF76A
:104CE000DDFA92A3052254218F48FCF7D7FAFEF78C
:104CF0002FFBFFF75DFEFFF773FDFFF713F907E1E9
:104D000000F0C4F90078002825D000F0BFF9002198
:104D10000170701CC6B29048407832280DDB8E4975
:104D20004978084632380321FBF702FA0A30B042CC
:104D300011DA0026FFF750F90DE087494978322251
:104D4000501A0621FBF7F4F90A21081AB04202DAD8
:104D50000026FFF741F900F099F98078002809D082
:104D600000F094F900218170FFF744FFFFF742FD46
:104D7000FEF706FB00F08AF90079002803D000F066
:104D800085F90021017100F081F98079002803D0B4
:104D900000F07CF90021817100F078F9807A002818
:104DA00011D000F073F9002181726C480068401C3A
:104DB0006A4908600846006869A3052297210090A7
:104DC0005948FCF76BFAFFF79DFE0546002D96D07B
:104DD0002B00FDF7BCF8079C0C051E6D25749C008C
:104DE00063A30522A5215048FCF758FA8FE0FCF791
:104DF00005FD002801D061A000E061A0044661A388
:104E00000522A92100904848FCF748FAFCF712FD5A
:104E10007DE05FA30522AE214348FCF73FFA76E030
:104E20005FA30522B1214048FCF738FA5F480078BB
:104E3000002839D100900190029003905C480078DE
:104E40000007C00F00282ED000240027FFF7D0FB5A
:104E5000F8222146641C6846425409222146641CFB
:104E6000425403222146641C425469460819082111
:104E7000FFF7A2F8083400BF09E06846015D6A4602
:104E8000781C105C081869460855781CC7B268463B
:104E90004078401CB842F0DC601CC4B22146684631
:104EA000FEF7A6FA00BF00BF0020404908702EE0C0
:104EB00040A30522CA211C48FCF7F0F927E041A3D2
:104EC0000522CE211848FCF7E9F90120374908707E
:104ED000374800780007C00F002808D03448006821
:104EE0000821884332490860FFF742FC0EE0304851
:104EF00000680821884308302D490860084600688A
:104F0000042188432A490860FFF724FC00BF00BF42
:104F1000F6E6000054000020204350552040202594
:104F200064487A0D0A0000006C5100002B2D2D2DD5
:104F30002D2D2D2D2D2D2D2D2D2D2D2D2D2D2D2DA1
:104F40002D2D2D2D2D2D2D2D2D2D2D2D2D2D2D2D91
:104F50002D2D2B200000000010000020000000205C
:104F60004920616D20616C69766520256400000030
:104F7000414343204B455920757000006F6E00007F
:104F80006F66660072656C61792025730000000011
:104F9000414343204B455920646F776E0000000069
:104FA0004C4544204B4559207570000004000020FA
:104FB000240000204C4544204B455920646F776EF7
:104FC000000000004C4544204B4559206C6F6E6733
:104FD0000000000010B5044610A02168FCF77EFF19
:104FE00011A06168FCF77AFF12A0A168FCF776FFB8
:104FF00013A0E168FCF772FF14A02169FCF76EFFB3
:1050000015A06169FCF76AFF16A0A169FCF766FFAD
:1050100017A0E169FCF762FF10BD0000723020208C
:105020003D20307825780A00723120203D203078EC
:1050300025780A00723220203D20307825780A0039
:10504000723320203D20307825780A0072313220DA
:105050003D20307825780A006C7220203D20307881
:1050600025780A00706320203D20307825780A00DA
:10507000707372203D20307825780A0010B50C211D
:105080000148FBF782F810BD460400200048704735
:105090004604002070B504460D4600F019F8402182
:1050A0000840002812D00021FC20FCF783FB2A4690
:1050B00021466120FCF70CFBFCF774FAFCF77CFA44
:1050C0000021FD20FCF776FB012070BD0020FCE7ED
:1050D00010B5072000F004F87021084010BD000052
:1050E00070B5044600200C4908610120FFF7D8FD87
:1050F0002046FCF7A7FB00F013F80546012220210B
:105100000648FCF737F80120FFF7CAFD01200249E5
:105110000861284670BD0000004200500040005069
:1051200070B50024002514E000200F49C86101205B
:10513000FFF7B6FD6006040E01200B49C861FFF7BA
:10514000AFFD09484069002801D001200443681CD4
:10515000C5B2082DE8DB00200349C8610120FFF734
:105160009FFD204670BD0000004200506D61696ED9
:1051700000FFFFFF00FF000000FFFF000000FFFF37
:10518000FF00FFFFFF0000FF800080FFFF80006145
:1051900070705F756172745F70726F004545505238
:1051A0004F4D5F496E69744861726400CCCCCCCCC1
:1051B000CC000000696E660064626700656D670080
:1051C00077726E006572720063727400EC510000B9
:1051D00000000020680000006A1F00005452000018
:1051E00068000020C80900007A1F000000000000CD
:1051F00000000000000000000000000000000000AF
:10520000000000000000000000000000000000009E
:10521000000000000000000000000000000000008E
:1052200000000000BC510000C8510000C451000043
:10523000C0510000B4510000B8510000008051017D
:10524000000000000080510100000000000000008C
:04525000000000005A
:04000005000000F106
:00000001FF
