:042EFE004102260067
:102B470012000E123E0F123A04123E0B123C3C12B8
:102B570034999001E6E06060E4F0900226E004F02A
:102B67009000A4E0FFC394324027EF24CEFFE43463
:102B7700FFFE7C007D03121D8EEF240AFFE43EFE5C
:102B8700900226E0D39FEE6480F8748098402980F5
:102B9700229000A4E0FFC374329FFFE49400FE7C00
:102BA700007D06121D8EC3740A9FFF900226E0D394
:102BB7009F4005E4F0120C019001E8E06005E4F0A5
:102BC700123BEE9001EAE06008E4F01200261234AE
:102BD7004A9001ECE06002E4F09001EFE06002E46B
:102BE700F0123B9B900192EFF07003022B59E02407
:102BF700FC602B24036003022B59900223E0FF3073
:102C0700E30C54F7F054FBF0123BD3022B5990021C
:102C170023E04408F04404F0123C6C022B59123EA6
:042C270008022B591B
:013E0B002294
:013E0C002293
:013E0D002292
:013E0E002291
:063DDE009001E00220BB91
:063DE4009001E30220BB88
:0E3CF6009001E012209BE94A600312210A228D
:0E3D04009001E312209BE94A600312210A227B
:10397700EF4E602D9001D6EEF0A3EFF0AF05A3EC6C
:10398700F0A3EFF0AF03A3EAF0A3EFF0E4A3F0A3F3
:10399700F0A3F0A3F09001D5F09001D404F0123C0D
:0239A700F62206
:103C8300E49001D4F0123D047B007A007900123DE8
:043C9300DE023DE42C
:102D0E009001D4E07003022DC29001D8E0FEA3E042
:102D1E00FF4E7003022DC29001D5E07035D3EF94B3
:102D2E0000EE94005003022DC29001DCE475F00118
:102D3E00121E19FED39001D7E095F09001D6E09EB9
:102D4E005072123D04E49001DCF0A3F09001D50422
:102D5E00F0229001D5E06401705A9001DC75F0010B
:102D6E00121E19FED39001D9E095F09001D8E09E85
:102D7E0050429001DAE0FEA3E0FF9400EE94004092
:102D8E00259001DEE475F001121E19FCD3EF95F0CB
:102D9E00EE9C5005E49001D4F09001D4E0700790C1
:102DAE0001D8F0A3F022E49001DCF0A3F09001D55D
:052DBE00F0123CF622BA
:102F02004101510050015200000000000000000089
:102F1200000000000000005001410000000000001D
:102F220000000000000000000000480162000000F4
:052F320000000000009A
:103A0400E4900151F0FE7F10FD7B017A017952129E
:103A140021107E007F107D007B017A017941122103
:073A24001012260E023A52B7
:0A30080004F07B017A017941E0FD3C
:0B30120090019A1220BB90019DEDF090
:10301D00E4FFFE0000000FBF00010EEF64144E70C0
:10302D00F2123D129001517401F0E4FEFF00000018
:10303D00000FBF00010EEF64C84E70F190019A129F
:10304D00209B74019001416B7008E965827003EA61
:10305D00658360257E007F107D007B017A017941BB
:10306D0012211090019DE0FF7E0078417C017D01D1
:09307D0090019A12209B121CBB69
:013086002227
:061438009001931220BB9D
:10143E00E4900196F0A3F0A3F0A3F0121CE164F285
:10144E006003021BEA90019312209B900001121C74
:10145E00FAD394104003021BEAE4900197F0900136
:10146E009312209B900001121CFA2401FFE433FE1C
:10147E00900197E0FDC39FEE6480F874809850232E
:10148E00ED2401FFE433FE90019312209B8F828E98
:10149E0083121CFAFF900199E02FF0900197E0045F
:1014AE00F080BB90019312209B900001121CFAF564
:1014BE0082758300A3A3121CFAFF900199E06F605E
:1014CE0003021BEA7E007F107D007B017A017941C9
:1014DE00122110E4900198F090019312209B90003D
:1014EE0002121CFA1220E4154D0116450216F403E1
:1014FE0018D90418DB0518DD0618DF0718EE0815D5
:10150E00500918FD50191B51193952194853196AAF
:10151E00541AA0551AA6561AC5571ADD581AF0595C
:10152E001AF65A1AFC5B1B145C1B1A5D1B325E19F1
:10153E000C70192A7118D97317A3B900001BE10298
:10154E00190C90019312209B900003121CFAB40107
:10155E0005123E02802690019312209B90000312EA
:10156E001CFAB40205123E05801290019312209BC4
:10157E00900003121CFAB40303123E08900198E087
:10158E00FF04F074412FF582E43401F58374F8F012
:10159E00900198E0FF04F074412FF582E43401F5D8
:1015AE00837402F090019312209B900002121CFA99
:1015BE00FF900198E0FE04F074412EF582E43401B0
:1015CE00F583EFF0123DF0EF9001986013E0FF0409
:1015DE00F074412FF582E43401F5837401F080112B
:1015EE00E0FF04F074412FF582E43401F5837402B8
:1015FE00F0E4900197F0900142E02401FFE433FE05
:10160E00900197E0FDC39FEE6480F87480984003CC
:10161E00021BE174422DF582E43401F583E0FF9064
:10162E000198E02441F582E43401F583E02FF09037
:10163E000197E004F080BF900223E0FF20E0030258
:10164E00191B30E103021BE1123C09900198E0FFE7
:10165E0004F074412FF582E43401F58374F8F090B0
:10166E000198E0FF04F074412FF582E43401F58314
:10167E007409F0900198E0FF04F074412FF582E4B4
:10168E003401F5837402F0900198E02441F9E434BA
:10169E0001FA7B017D081239A9900198E02408F027
:1016AE00E4900197F0900142E02401FFE433FE90B4
:1016BE000197E0FDC39FEE6480F874809850247407
:1016CE00422DF582E43401F583E0FF900198E02489
:1016DE0041F582E43401F583E02FF0900197E004A8
:1016EE00F080C2021A96900223E0FF20E003021956
:1016FE004830E103021BE1123C54900198E0FF04D4
:10170E00F074412FF582E43401F58374F8F0900102
:10171E0098E0FF04F074412FF582E43401F58374F0
:10172E0009F0900198E0FF04F074412FF582E43443
:10173E0001F5837403F0900198E02441F9E434013B
:10174E00FA7B017D081239A9900198E02408F0E493
:10175E00900197F0900142E02401FFE433FE9001E6
:10176E0097E0FDC39FEE6480F87480985024744215
:10177E002DF582E43401F583E0FF900198E02441D9
:10178E00F582E43401F583E02FF0900197E004F048
:10179E0080C2021A96900223E030E00554FEF080DB
:1017AE0007900223E04401F0900198E0FF04F074EA
:1017BE00412FF582E43401F58374F8F0900198E03E
:1017CE00FF04F074412FF582E43401F583740BF0BD
:1017DE00900198E0FF04F074412FF582E43401F596
:1017EE008374B9F0900222E0FEA3E0FF5401FD9055
:1017FE000198E0FC04F074412CF582E43401F58389
:10180E00EDF0EEC313EF135401FF900198E0FE04C8
:10181E00F074412EF582E43401F583EFF0900198D7
:10182E00E02441F9E43401FA7B017D081239A9E480
:10183E00900197F0900197E0FFC394085040A3E009
:10184E00FE2441F582E43401F583E5822FF582E42E
:10185E003583F583E06003B4FF1C900197E0FF74BD
:10186E00412EF582E43401F583E5822FF582E435CD
:10187E0083F5837420F0900197E004F080B6900118
:10188E0098E02408F0E4900197F0900142E02401E2
:10189E00FFE433FE900197E0FDC39FEE6480F87481
:1018AE008098502474422DF582E43401F583E0FFD4
:1018BE00900198E02441F582E43401F583E02FF0A5
:1018CE00900197E004F080C2021A96807C804D80D1
:1018DE005A7B007A007900E490019EF07F078076B3
:1018EE007B007A007900E490019EF07F0880677B90
:1018FE00007A007900E490019EF07F0880587B000A
:10190E007A007900E490019EF07F0180497B007A95
:10191E00007900E490019EF07F02803A7B007A000D
:10192E007900E490019EF07F05802B7B007A007990
:10193E0000E490019EF07F06801C7B007A00790007
:10194E00E490019EF07F03800D7B007A007900E425
:10195E0090019EF07F04122968021BE1900223E0A1
:10196E00FF30E10E54FDF04408F04404F0123C6CDC
:10197E008010900223E054F7F054FBF04402F01272
:10198E003BD3900198E0FF04F074412FF582E434CC
:10199E0001F58374F8F0900198E0FF04F074412F84
:1019AE00F582E43401F583740AF0900198E0FF04A7
:1019BE00F074412FF582E43401F5837401F0900246
:1019CE0022E0C313A3E0135401FF900198E0FE043C
:1019DE00F074412EF582E43401F583EFF090019816
:1019EE00E02441F9E43401FA7B017D081239A9E4BF
:1019FE00900197F0900197E0FFC394085040A3E048
:101A0E00FE2441F582E43401F583E5822FF582E46C
:101A1E003583F583E06003B4FF1C900197E0FF74FB
:101A2E00412EF582E43401F583E5822FF582E4350B
:101A3E0083F5837420F0900197E004F080B6900156
:101A4E0098E02408F0E4900197F0900142E0240120
:101A5E00FFE433FE900197E0FDC39FEE6480F874BF
:101A6E008098502474422DF582E43401F583E0FF12
:101A7E00900198E02441F582E43401F583E02FF0E3
:101A8E00900197E004F080C2900198E012300802B5
:101A9E001BE1123C54021BE19000A4E0D39464407D
:101AAE0003021BE1E0240AF0E0C394645003021B1E
:101ABE00E17464F0021BE1900223E0FF30E2065471
:101ACE00FBF0021BE1900223E04404F0021BE190C4
:101ADE0000A4E0C3940A5003021BE1E024F6F002D6
:101AEE001BE112361D021BE1123C09021BE19000A4
:101AFE00A3E0D394645022E0240AF0E0C39464403F
:101B0E00187464F08013123536021BE19000A3E0C6
:101B1E00C3940A4004E024F6F09000A3E0FF123ACA
:101B2E009C021BE1123E08900198E0FF04F0744104
:101B3E002FF582E43401F58374F8F0900198E0FFFC
:101B4E0004F074412FF582E43401F5837402F090B1
:101B5E000198E0FF04F074412FF582E43401F5831F
:101B6E007409F0123DF0EF9001986013E0FF04F05D
:101B7E0074412FF582E43401F5837401F08011E095
:101B8E00FF04F074412FF582E43401F5837402F002
:101B9E00E4900197F0900142E02401FFE433FE90BF
:101BAE000197E0FDC39FEE6480F874809850247412
:101BBE00422DF582E43401F583E0FF900198E02494
:101BCE0041F582E43401F583E02FF0900197E004B3
:0C1BDE00F080C2900198E0600312300813
:011BEA0022D8
:10344A00900151E06031123D8CEF24F0601824D0D5
:10345A00601224207016123D55123DC9E4900151A4
:10346A00F0023A528000123D55023DC97B017A01B1
:10347A0079417D1002385C7B017A0179527D101204
:0F348A0039DBEF60097B017A0179521214382285
:102F37004101AA004101AB004101AF004101B000CE
:102F47004201AC00004101AE005001B10000000099
:0C2F57000000000000000000000000006E
:103C3C00E49001AAF0A3F09001AFF0FE7FA2FD7B0F
:083C4C00017A00790002211049
:1029680090019B1220BBE49001AAF0E0FE04F074F1
:10297800B12EF582E43401F5837455F09001AAE094
:10298800FE04F074B12EF582E43401F58374AAF0E4
:1029980090019EE004FE9001AAE0FD04F074B12DC0
:1029A800F582E43401F583EEF09001AAE0FE04F02C
:1029B80074B12EF582E43401F583EFF0E49001AFB1
:1029C800F090019EE0FF9001AFE0FEC39F502A9077
:1029D800019B12209B8E82758300121CFAFE9001C7
:1029E800AAE0FD04F074B12DF582E43401F583EE1C
:1029F800F09001AFE004F080C87B017A0179B1EF73
:102A08002404FD1233489001AAE0FE04F074B12EAC
:102A1800F582E43401F583EFF0E49001AFF0900122
:102A28009EE02405FFE433FE9001AFE0FDC39FEE76
:102A38006480F8748098501774B12DF582E43401DD
:102A4800F583E0FF123DB19001AFE004F080CF22A2
:100026009000A2E07003020C0014F09000A0E024FF
:10003600A0FFE433FEA3E0FBFDC3EF9DFFEE9400BB
:10004600FE7C007DA0121D8EEDC3940440D2740088
:100056002BF582E43400F583E064556003020BEC73
:100066009000A1E07A002401FFEA33FE7C007DA027
:10007600121DE374002DF58274003CF583E064AA3A
:100086006003020BECEB2402FFEA33FE7C007DA04A
:10009600121DE374002DF58274003CF583E0900197
:1000A600ABF09000A0E024A0FFE433CFC39BCF9A2F
:1000B600FE7C007DA0121DE39001ABE02404FFE46A
:1000C60033FEC3ED9FEE6480F8EC64809850030223
:1000D6000BF29000A1E0FF2400F9E43400FA7B0162
:1000E6009001ABE02403FD90019BEFF0A374A0F018
:1000F600123087AB079001ABE0FF9000A1E02FFF25
:10010600E433CF2403CF3400FE7C007DA0121DE330
:1001160074002DF58274003CF583E06B6003020BDE
:10012600ECE49001AAF0FE7F10FD7B017A01794193
:100136001221109000A1E0FB7A002403FFEA33FEAF
:100146007C007DA0121DE374002DF58274003CF541
:1001560083E01220E4018F1203863104603308E243
:1001660034054A35063436071E3702AC38080841CE
:1001760009D5540AC0570AD7620B3C630B62640B5D
:0901860084650BA86600000BD68D
:10018F00E4900193F0A3F0EB240CFFE43AFE7C0023
:10019F007DA0121DE374002DF58274003CF583E001
:1001AF00FF7E00900193EEF0A3EFF0C39410EE9456
:1001BF00004003020BD6900193E07002A3E0702879
:1001CF009001AE7410F0E4A3F09001AEE0FFA3E055
:1001DF00FEC39F5013EE75F080A4FFAEF0123D7872
:1001EF009001AFE004F080E19000A1E0240DFFE466
:1001FF0033FE7C007DA0121DE374002DF582740088
:10020F003CF583E0540FFF9001ACE4F0A3EFF0E472
:10021F009001AFF09001ACE0FEA3E0FF7C007D0DFC
:10022F00121D7CEF240AFFE43EFE9001AFE0FBC3FA
:05023F009FEC9E504BF6
:10024400900193E0FEA3E0FF7D72121D7CEBFD2F75
:10025400FFEC3EFEA3F0A3EFF0C006C0079000A1A0
:10026400E02404FFE433CF2DCF3CFE7DA0121DE338
:1002740074002DF58274003CF583E0FDD007D006B0
:03028400123D82A6
:100287009001AFE004F08094900193A3E09001AE59
:10029700F07B017A0179AE90019E7401F07F121212
:0202A7002968C4
:1002A900020BD69001AAE0FF04F074412FF582E415
:1002B9003401F58374F8F09001ABE0FF9001AAE0F6
:1002C900FE04F074412EF582E43401F583EFF090D9
:1002D90001AAE0FF04F074412FF582E43401F583AB
:1002E9007438F0E49001AFF09001ABE014FF900195
:1002F900AFE0FEC39F50409000A1E02404FDE43329
:10030900FCEE7E002DFFEE3CFE7C007DA0121DE37D
:1003190074002DF58274003CF583E0FF9001AAE09A
:10032900FE04F074412EF582E43401F583EFF09078
:1003390001AFE004F080B1E49001AFF0900142E038
:100349002401FFE433FE9001AFE0FDC39FEE64801A
:10035900F8748098502474422DF582E43401F583B1
:10036900E0FF9001AAE02441F582E43401F583E03D
:100379002FF09001AFE004F080C2020AAC9001AA0C
:10038900E0FF04F074412FF582E43401F58374F839
:10039900F09001ABE0FF9001AAE0FE04F074412E59
:1003A900F582E43401F583EFF09001AAE0FF04F04F
:1003B90074412FF582E43401F5837431F0E490013E
:1003C900AFF09001ABE014FF9001AFE0FEC39F5086
:1003D900409000A1E02404FDE433FCEE7E002DFFF3
:1003E900EE3CFE7C007DA0121DE374002DF58274A5
:1003F900003CF583E0FF9001AAE0FE04F074412E71
:10040900F582E43401F583EFF09001AFE004F08068
:10041900B1E49001AFF0900142E02401FFE433FE22
:100429009001AFE0FDC39FEE6480F874809850247A
:1004390074422DF582E43401F583E0FF9001AAE0CE
:100449002441F582E43401F583E02FF09001AFE017
:1004590004F080C2020AAC9001AAE0FF04F07441E2
:100469002FF582E43401F58374F8F09001ABE0FFD5
:100479009001AAE0FE04F074412EF582E43401F5FE
:1004890083EFF09001AAE0FF04F074412FF582E4B4
:100499003401F5837433F0E49001AFF09001ABE0DF
:1004A90014FF9001AFE0FEC39F50409000A1E024EB
:1004B90004FDE433FCEE7E002DFFEE3CFE7C007D66
:1004C900A0121DE374002DF58274003CF583E0FF52
:1004D9009001AAE0FE04F074412EF582E43401F59E
:1004E90083EFF09001AFE004F080B1E49001AFF048
:1004F900900142E02401FFE433FE9001AFE0FDC327
:100509009FEE6480F8748098502474422DF582E43B
:100519003401F583E0FF9001AAE02441F582E43437
:1005290001F583E02FF09001AFE004F080C2900163
:10053900AAE004F0900223E030E003020BD602099E
:10054900C99001AAE0FF04F074412FF582E4340157
:10055900F58374F8F09001ABE0FF9001AAE0FE0486
:10056900F074412EF582E43401F583EFF09001AA8D
:10057900E0FF04F074412FF582E43401F58374350A
:10058900F0E49001AFF09001ABE014FF9001AFE00F
:10059900FEC39F50409000A1E02404FDE433FCEE2B
:1005A9007E002DFFEE3CFE7C007DA0121DE3740051
:1005B9002DF58274003CF583E0FF9001AAE0FE046A
:1005C900F074412EF582E43401F583EFF09001AF28
:1005D900E004F080B1E49001AFF0900142E0240121
:1005E900FFE433FE9001AFE0FDC39FEE6480F87431
:1005F9008098502474422DF582E43401F583E0FF9C
:100609009001AAE02441F582E43401F583E02FF05A
:100619009001AFE004F080C29001AAE004F09002DA
:1006290023E030E003020BD60209C99001AAE0FFDA
:1006390004F074412FF582E43401F58374F8F090E5
:1006490001ABE0FF9001AAE0FE04F074412EF582AF
:10065900E43401F583EFF09001AAE0FF04F074415E
:100669002FF582E43401F5837436F0E49001AFF09C
:100679009001ABE014FF9001AFE0FEC39F504090A2
:1006890000A1E02404FDE433FCEE7E002DFFEE3CE6
:10069900FE7C007DA0121DE374002DF58274003CE0
:1006A900F583E0FF9001AAE0FE04F074412EF58283
:1006B900E43401F583EFF09001AFE004F080B1E498
:1006C9009001AFF0900142E02401FFE433FE900174
:1006D900AFE0FDC39FEE6480F874809850247442A3
:1006E9002DF582E43401F583E0FF9001AAE024416D
:1006F900F582E43401F583E02FF09001AFE004F0D6
:1007090080C29001AAE004F0900223E030E00302E5
:100719000BD60209C99001AAE0FF04F074412FF534
:1007290082E43401F58374F8F09001ABE0FF9001A5
:10073900AAE0FE04F074412EF582E43401F583EF5A
:10074900F09001AAE0FF04F074412FF582E434012E
:10075900F5837437F0E49001AFF09001ABE014FF3A
:100769009001AFE0FEC39F50409000A1E02404FD3A
:10077900E433FCEE7E002DFFEE3CFE7C007DA012F2
:100789001DE374002DF58274003CF583E0FF9001B0
:10079900AAE0FE04F074412EF582E43401F583EFFA
:1007A900F09001AFE004F080B1E49001AFF0900166
:1007B90042E02401FFE433FE9001AFE0FDC39FEE68
:1007C9006480F8748098502474422DF582E43401D1
:1007D900F583E0FF9001AAE02441F582E43401F5B4
:1007E90083E02FF09001AFE004F080C29001AAE00D
:1007F90004F0900223E030E003020BD60209C9900D
:1008090001AAE0FF04F074412FF582E43401F58375
:1008190074F8F09001ABE0FF9001AAE0FE04F074D7
:10082900412EF582E43401F583EFF09001AAE0FF4F
:1008390004F074412FF582E43401F5837441F0E446
:100849009001AFF09001ABE014FF9001AFE0FEC35F
:100859009F50409000A1E02404FDE433FCEE7E00AB
:100869002DFFEE3CFE7C007DA0121DE374002DF5EA
:100879008274003CF583E0FF9001AAE0FE04F07465
:10088900412EF582E43401F583EFF09001AFE004E5
:10089900F080B1E49001AFF0900142E02401FFE45F
:1008A90033FE9001AFE0FDC39FEE6480F874809839
:1008B900502474422DF582E43401F583E0FF900160
:1008C900AAE02441F582E43401F583E02FF0900198
:1008D900AFE004F080C2020AAC9001AAE0FF04F084
:1008E90074412FF582E43401F58374F8F09001AB7B
:1008F900E0FF9001AAE0FE04F074412EF582E43491
:1009090001F583EFF09001AAE0FF04F074412FF59F
:1009190082E43401F5837434F0E49001AFF090017E
:10092900ABE014FF9001AFE0FEC39F50409000A1DF
:10093900E02404FDE433FCEE7E002DFFEE3CFE7C5A
:10094900007DA0121DE374002DF58274003CF5832F
:10095900E0FF9001AAE0FE04F074412EF582E43430
:1009690001F583EFF09001AFE004F080B1E490016C
:10097900AFF0900142E02401FFE433FE9001AFE0C3
:10098900FDC39FEE6480F8748098502474422DF55D
:1009990082E43401F583E0FF9001AAE02441F58265
:1009A900E43401F583E02FF09001AFE004F080C258
:1009B9009001AAE004F0900223E030E003020BD694
:1009C9007B017A0179419001AA020AB8900223E0D9
:1009D900FF30E10B54FDF04404F0123C6C800D90A3
:1009E9000223E04402F054FBF0123BD39001AAE049
:1009F900FF04F074412FF582E43401F58374F8F0B3
:100A09009001AAE0FF04F074412FF582E43401F566
:100A190083740AF09001AAE0FF04F074412FF58273
:100A2900E43401F5837401F0900222E0C313A3E0DA
:100A3900135401FF9001AAE0FE04F074412EF582DF
:100A4900E43401F583EFF09001AAE02441F9E4349C
:100A590001FA7B017D081239A99001AAE02408F066
:100A6900E49001AFF0900142E02401FFE433FE90ED
:100A790001AFE0FDC39FEE6480F874809850247440
:100A8900422DF582E43401F583E0FF9001AAE024C8
:100A990041F582E43401F583E02FF09001AFE004E1
:100AA900F080C29001AAE004F07B017A017941E06B
:100AB900FD123012020BD6900223E030E20654FBFD
:100AC900F0020BD6900223E04404F0020BD690000A
:100AD900A1E0FB7A002404FFEA33FE7C007DA0122A
:100AE9001DE374002DF58274003CF583E0FFC00717
:100AF900EB2405FFEA33FE7C007DA0121DE37400A0
:100B09002DF58274003CF583E0FDC0059000A1E05D
:100B19002406FFE433FE7C007DA0121DE374002D42
:100B2900F58274003CF583E0FBD005D0071237D578
:100B3900020BD69000A1E02404FFE433FE7C007D83
:100B4900A0121DE374002DF58274003CF583E0FFCB
:100B59009000A3F0123A9C80749000A1E02404FF55
:100B6900E433FE7C007DA0121DE374002DF5827430
:100B7900003CF583E09000A4F080529000A1E024AD
:100B890004FFE433FE7C007DA0121DE374002DF503
:0F0B99008274003CF583E0FFE4FD12273C802EC0
:100BA8009000A1E02404FFE433FE7C007DA0121D28
:100BB800E374002DF58274003CF583E0900193F016
:0E0BC800E0FFC4540F7007EF540FFF123D966C
:100BD6009001ABE02404FF9000A1E02FF0E075F057
:100BE600A084E5F0F0229000A1E004F09000A1E0DE
:0B0BF60075F0A084E5F0F0020026225C
:1033480090019F1220BBAE05E4900224F0AF061E48
:10335800EF6040900224E0FF90019FE475F00112B5
:1033680020A4121CE16F900224F0E4A3F09002253F
:10337800E0C3940850D7900224E030E007C31364F8
:103388008CF08007900224E0C313F0900225E0043B
:09339800F080DA900224E0FF222B
:103087009001971220BBAE05E4900224F0AF061E14
:10309700EF6065900224E0FF900197E475F001125C
:1030A70020A4121CE16F900224F090019BE004F031
:1030B700A3E0FF90019BE0C39F4012E4F0EFFDE423
:1030C7009DFDE494009001988DF0121E19E4900282
:1030D70025F0900225E0C3940850B2900224E03016
:1030E700E007C313648CF08007900224E0C313F059
:0E30F700900225E004F080DA900224E0FF222F
:103B2700FFFFFF00FF000000FFFF000000FFFFFF97
:0E3B370000FFFFFF0000FF800080FFFF800006
:0F2F63004100AB004101240044012500000000A3
:103499009000AB7409F07E007F067D007B017A0104
:1034A900791E1221107E007F017D007B017A01794E
:1034B900361221107E007F727D007B017A0079AC83
:1034C9001221107E007F087D007B017A0079A3120A
:0F34D90021109000A37464F0A37432F0023BD36F
:103536009000ABE0600414F080069000AB7409F0D4
:103546009000ABE0FE75F003A42427F582E4343B3B
:10355600F583E493FFEE75F003A42428F582E434A2
:103566003BF583E493FD9000ABE075F003A42429BA
:0D357600F582E4343BF583E493FB0237D586
:10361D009000ABE004F0E0C3940A4002E4F09000A7
:10362D00ABE0FE75F003A42427F582E4343BF5836B
:10363D00E493FFEE75F003A42428F582E4343BF502
:10364D0083E493FD9000ABE075F003A42429F5828B
:0B365D00E4343BF583E493FB0237D517
:103C0900900136E0600414F080069001367410F0DB
:0A3C1900900136E0FF7D0202273C17
:103C5400900136E004F0E0C394114002E4F09001D6
:083C640036E0FF7D0102273C60
:1039A90090019A1220BBEDD39408400C7B007A0059
:1039B900790090019A0220BBAF057E0090019A120E
:1039C900209BA801AC02AD037B017A0079AC121CE3
:0239D900BB220F
:103C6C009000AB7409F0900223E04408F090013608
:073C7C00E0FFE4FD02273C1C
:103BD300900223E054F7F0E4900130F0900134F0C8
:0B3BE300A3F0FBFAFDFCFFFE022A58D5
:10329400900198EFF02401FFE433FE9000B5E05470
:1032A4000FB50714E4B50610900198F0E075F00D21
:1032B400A424B6F97400800D900198E075F00DA473
:1032C40024C3F9740035F0FA7B0178297C017D016F
:1032D4007E007F0D121CBB78377C017D017B017A57
:0A32E4000079AC7E007F0A021CBBDB
:10273C0090019BEDF090019AEFF0FBE490011EF0FC
:10274C00A312206100000000E4900123F0EBC3947D
:10275C001040089001367410F0800890019AE090B7
:10276C000136F090019BE0701A7B017A0079AC90F5
:10277C00019AE0FD1232EE9000ACE0F46003022806
:0B278C0015806F90019BE06401703C21
:10279700A3F0F07B017A0079AC90019AE0FD123248
:1027A700EE9000ACE0F4706690019AE0700280470A
:1027B70090019AE004F0E0C394114002E4F0900124
:0C27C7009CE004F0E0C3941140C9804283
:0827D30090019BE06402703AE2
:1027DB00A3F0F07B017A0079AC90019AE0FD123204
:1027EB00EE9000ACE0F4702290019AE0600414F0DB
:1027FB00800CE4FBFAFDFCFFFE122A58800C9001C2
:0A280B009CE004F0E0C3941140C902
:1028150090019AE0900136F09000B4E0700D7B01D4
:102825007A0079ACFD1232EE123BD378297C017D1A
:10283500017B017A0079B67E007F0D121CBB7837CB
:102845007C017D017B017A0079AC7E007F0A021C48
:01285500BBC7
:10381900900197EFF0E490011EF0A31220610000DF
:1038290000009001237432F0900223E030E21690F8
:103839000124E004F0E0D394045002800DE49001E7
:1038490024F0023C54E4900124F0900197E0FF1227
:0338590032942284
:1037D50090019AEFF0A3EDF0A3EBF0123BD390012B
:1037E5009AE09000A5F0A3E4F090019BE09000A77B
:1037F500F0A3E4F090019CE07F009000A9F0FAA30B
:10380500EFF0FB9000A5E0FEA3E0FFA3E0FCA3E042
:04381500FD022A582E
:100C0100900223E020E303021437900123E0600304
:100C110014F022900130E0700D900134E07002A3D5
:100C2100E07003021437900129E0540F24FC700393
:100C3100020FCF1470030211BD24026003021437A6
:100C410090011F12203DEF2401FFE43EFEE43DFD33
:100C5100E43CFC90011F12205590012DE0FF900112
:100C61002AE0FEC39F5064EEFDC3EF9DFFE49400B4
:100C7100FE123D61EE3395E0FDFCC004C005C006E7
:100C8100C007E4FF7E01FDFC90011F122049121EE6
:100C9100FCD003D002D001D000121EFCC006C00758
:100CA100900131E0FEA3E0FBAA06E4F9F8D007D0F9
:100CB10006121F87A804A905AA06AB0790012AE01E
:100CC1007F00FEE4FCFD121EE1806890012AE0FF36
:100CD10090012DE0C39FFFE49400FE123D61EE33CD
:100CE10095E0FDFCC004C005C006C007E4FF7E011D
:100CF100FDFC90011F122049121EFCD003D002D02E
:100D010001D000121EFCC006C007900131E0FEA315
:100D1100E0FBAA06E4F9F8D007D006121F87A80461
:100D2100A905AA06AB0790012AE07F00FEE4FCFDBD
:100D3100121EEE900125122055900133E0FFE4FCD4
:100D4100FDFE900125122049121EFCE47B64FAF994
:100D5100F8121F8790012512205590012512203D80
:100D61009000A5EEF0A3EFF090012EE0FF90012B93
:100D7100E0FEC39F5064EEFDC3EF9DFFE49400FECF
:100D8100123D61EE3395E0FDFCC004C005C006C014
:100D910007E4FF7E01FDFC90011F122049121EFC99
:100DA100D003D002D001D000121EFCC006C00790B3
:100DB1000131E0FEA3E0FBAA06E4F9F8D007D00672
:100DC100121F87A804A905AA06AB0790012BE07F93
:100DD10000FEE4FCFD121EE1806890012BE0FF9013
:100DE100012EE0C39FFFE49400FE123D61EE3395B6
:100DF100E0FDFCC004C005C006C007E4FF7E01FDA4
:100E0100FC90011F122049121EFCD003D002D00118
:100E1100D000121EFCC006C007900131E0FEA3E025
:100E2100FBAA06E4F9F8D007D006121F87A804A987
:100E310005AA06AB0790012BE07F00FEE4FCFD1242
:100E41001EEE900125122055900133E0FFE4FCFDD8
:100E5100FE900125122049121EFCE47B64FAF9F888
:100E6100121F8790012512205590012512203D90D7
:100E710000A7EEF0A3EFF090012FE0FF90012CE02E
:100E8100FEC39F5064EEFDC3EF9DFFE49400FE128C
:100E91003D61EE3395E0FDFCC004C005C006C0070E
:100EA100E4FF7E01FDFC90011F122049121EFCD0BF
:100EB10003D002D001D000121EFCC006C007900171
:100EC10031E0FEA3E0FBAA06E4F9F8D007D0061250
:100ED1001F87A804A905AA06AB0790012CE07F0093
:100EE100FEE4FCFD121EE1806890012CE0FF900100
:100EF1002FE0C39FFFE49400FE123D61EE3395E0C5
:100F0100FDFCC004C005C006C007E4FF7E01FDFC76
:100F110090011F122049121EFCD003D002D001D033
:100F210000121EFCC006C007900131E0FEA3E0FBE9
:100F3100AA06E4F9F8D007D006121F87A804A9056C
:100F4100AA06AB0790012CE07F00FEE4FCFD121E17
:100F5100EE900125122055900133E0FFE4FCFDFEE7
:100F6100900125122049121EFCE47B64FAF9F81263
:100F71001F8790012512205590012512203D9000D8
:100F8100A9EEF0FAA3EFF0FB9000A5E0FEA3E0FFCD
:100F9100A3E0FCA3E0FD122A58900131E0FEA3E09A
:100FA100FFE4FCFD90011F122049C31220194012D9
:100FB10090011F12206100000000900130E06002EA
:100FC10014F0900130E0600302143702142C9001F8
:100FD1001EE07012A312203DEF2401FFE43EFEE467
:100FE1003DFDE43C802190011F12203DEC4D4E4F10
:100FF100601C90011F12203DEF24FFFFEE34FFFE25
:10100100ED34FFFDEC34FFFC90011F122055E47F0D
:10101100FFFEFDFC90011F122049121EFCA804A92D
:1010210005AA06AB0790012AE0FFE4FCFDFE121EB3
:10103100FCC006C007900131E0FEA3E0FBAA06E474
:10104100F9F8D007D006121F87900125122055907C
:101051000133E0FFE4FCFDFE900125122049121E40
:10106100FCE47B64FAF9F8121F87900125122055E0
:1010710090012512203D9000A5EEF0A3EFF0E47F52
:10108100FFFEFDFC90011F122049121EFCA804A9BD
:1010910005AA06AB0790012BE0FFE4FCFDFE121E42
:1010A100FCC006C007900131E0FEA3E0FBAA06E404
:1010B100F9F8D007D006121F87900125122055900C
:1010C1000133E0FFE4FCFDFE900125122049121ED0
:1010D100FCE47B64FAF9F8121F8790012512205570
:1010E10090012512203D9000A7EEF0A3EFF0E47FE0
:1010F100FFFEFDFC90011F122049121EFCA804A94D
:1011010005AA06AB0790012CE0FFE4FCFDFE121ED0
:10111100FCC006C007900131E0FEA3E0FBAA06E493
:10112100F9F8D007D006121F87900125122055909B
:101131000133E0FFE4FCFDFE900125122049121E5F
:10114100FCE47B64FAF9F8121F87900125122055FF
:1011510090012512203D9000A9EEF0FAA3EFF0FBDB
:101161009000A5E0FEA3E0FFA3E0FCA3E0FD122AAE
:1011710058900131E0FEA3E0FFE4FCFD90011F1255
:101181002049C31220195011E4FFFEFDFC90011FFC
:10119100122049C3122019701790011EE070040437
:1011A100F0800DE490011EF0900130E0600214F037
:0C11B100900130E0600302143702142C9F
:1011BD00900193122061000000FFE4FFFEFDFC9002
:1011CD00011F122049C312201960030212B79001AA
:1011DD002AE0FFE4FCFDFE900193122049121EFC53
:1011ED00A804A905AA06AB07900133E0FFE4FCFDB6
:1011FD00FE121EFCE47B64FAF9F8121F879001259C
:10120D0012205590012512203D9000A5EEF0A3EF80
:10121D00F090012BE0FFE4FCFDFE900193122049BC
:10122D00121EFCA804A905AA06AB07900133E0FF26
:10123D00E4FCFDFE121EFCE47B64FAF9F8121F8734
:10124D0090012512205590012512203D9000A7EE0A
:10125D00F0A3EFF090012CE0FFE4FCFDFE90019374
:10126D00122049121EFCA804A905AA06AB0790017D
:10127D0033E0FFE4FCFDFE121EFCE47B64FAF9F89A
:10128D00121F8790012512205590012512203D90A7
:10129D0000A9EEF0FAA3EFF0FB9000A5E0FEA3E0AD
:1012AD00FFA3E0FCA3E0FD122A58900131E0FEA35C
:1012BD00E0FFE4FCFD900125122055900125122040
:1012CD003D90011F122049C312201960030213B96A
:1012DD0090012DE0FFE4FCFDFE90019312204912D8
:1012ED001EFCA804A905AA06AB07900133E0FFE494
:1012FD00FCFDFE121EFCE47B64FAF9F8121F8790C8
:10130D00012512205590012512203D9000A5EEF0EB
:10131D00A3EFF090012EE0FFE4FCFDFE900193128F
:10132D002049121EFCA804A905AA06AB079001339B
:10133D00E0FFE4FCFDFE121EFCE47B64FAF9F812FA
:10134D001F8790012512205590012512203D9000F8
:10135D00A7EEF0A3EFF090012FE0FFE4FCFDFE906F
:10136D000193122049121EFCA804A905AA06AB0779
:10137D00900133E0FFE4FCFDFE121EFCE47B64FAF9
:10138D00F9F8121F87900125122055900125122082
:10139D003D9000A9EEF0FAA3EFF0FB9000A5E0FE62
:1013AD00A3E0FFA3E0FCA3E0FD122A5890011F1259
:1013BD00203DEF2401FFE43EFEE43DFDE43CFC90C6
:1013CD00011F122055900125122061000000009090
:1013DD000125122049900134E0FEA3E0FF90013277
:1013ED00E02FFF900131E03EFEE4FCFD121EE19086
:1013FD00012512205590012512203D90011F12202C
:10140D0049C3122019401290011F122061000000E3
:10141D0000900130E0600214F0900130E0700B900C
:0A142D000129E0C4540FFF12381922
:011437002292
:013E0F002290
:0B32EE0090019D1220BB9001A0EDF0AC
:1032F900E4A3F0AF05EFC39411E49001A1F09001AC
:10330900A1E0FDC3947250369001A0E075F072A45B
:103319002400FFE5F03440FE7C00EF2DFFEC3EFE7B
:1033290012000390019D12209B9001A1E0F5827586
:0E3339008300EF121D5A9001A1E004F080C045
:013347002263
:0A3D7800E42FFFEE3440FE02379006
:0A3D8200E42FFFEE3440FE0231058D
:103CE400E42FFFEE3440FE9001F7E09001FDF00276
:023CF4002DC3DE
:013E1000228F
:013E1100228E
:10000E00123CAB123DA0123DF61233F8123B071212
:05001E003B45D2AF22BA
:042F72004100A20078
:103B4500E49000A2F0FE7FA2FD7B017A00790012CD
:0D3B550021107F007E4B7D007C000231724C
:0300230002374958
:10374900C0E0C083C082C0D075D000C007309827C0
:10375900C2989000A0E0FF04F074002FF582E434D1
:1037690000F583E599F09000A0E0C394A04002E43D
:10377900F09000A2E004F0309902C299D007D0D0AD
:07378900D082D083D0E032B2
:082F76004101F0004101F100EE
:103B0700123B7F5389F0438901538EF79001F0747C
:103B1700FAF0A374C4F0758CFAF58AD2A9D28C2274
:103B7F00E49001E7F09001E9F09001EDF0A3F090EF
:0C3B8F0001E8F09001EAF09001EFF02254
:03000B00022F873A
:102F8700C0E0C0F0C083C082C0D075D000C000C010
:102F9700069001F0E0F58CA3E0F58A9001E6740154
:102FA700F0A3E004F0C3940A4005E4F0A304F09012
:102FB70001E9E004F0C394644005E4F0A304F09051
:102FC70001EBE004F0C394F4748094814005E4F0CD
:102FD700A304F09001EDE475F001121E19FEC3E59C
:102FE700F094E8EE9403400A9001EDE4F0A3F0A317
:102FF70004F0D006D000D0D0D082D083D0F0D0E07B
:013007003296
:103A78000A6D679C46F6375D4521EFAC5A50010B3D
:103A8800DF020A6D679C46F6375D4521EFAC5A5058
:043A9800E10BDF025D
:082F7E004501FECCCCCCCCCC0B
:103CAB0053B3FE43B40153B3FD43B40253B1FE43CC
:033CBB00B2012231
:013E1200228D
:103B6200E4FEC290EF30E704D2808002C280EF25EB
:0C3B7200E0FFD290000EEEB408E8C29014
:013B7E002224
:043CBE00E4FD7FFCA6
:0F3CC200C29100123B62AF05123B6200D2912209
:0A38D6007B019001A97405F07F3F0B
:0638E0009001A61220BBBE
:1038E600C291E4FD123B629001A9E0FFEDC39F5037
:1038F600159001A612209B8D82758300121CFAFF7B
:08390600123B620D80E1D29139
:01390E002296
:103AE400E4FEC290EF30E704D2808002C280EF256A
:103AF400E0FFD290000EEEB408E843B10153B2FEE9
:023B0400C2906D
:013B0600229C
:103C2300E4FFFEC290EF25E0FFD290308003440111
:083C3300FF0EEEB408EDC29093
:013C3B002266
:103CD100C29100123AE4123C2353B1FE43B20100F7
:023CE100D2917E
:013CE30022BE
:06390F009001941220BBA0
:10391500C291123AE4E4FD900197E0FFEDC39F5098
:1039250015123C2390019412209B8D82758300EF24
:0E393500121D5A0D80E153B1FE43B201D29132
:013943002261
:0E3D1200123CBE7D8E7F20123CC200000022BB
:103A5200E4FEFD7FFC123CC27D8F7F20123CC2E45B
:103A6200FD7FFD123CC2E4FEFF000FBF00010EBE4F
:053A720013F7BF88F40A
:013A7700222C
:0A3D8C007F07123CD1EF5470FF22B4
:063DEA007F09123CD1220A
:073DC9007D707F27023CC260
:0C3D5500E4FD7FE1123CC27FE2023CC2B0
:0E3D2000AC07123CBEAF04AD077F25023CC2CB
:06385C00123D8CEF7038F4
:10386200900193F0A3F09001A9EDF07FA01238E04F
:10387200E4FD7FFD123CC2E4900193F0A3F00090BE
:103882000193E475F001121E19900193E07004A3F4
:08389200E064C870E9123CBEBD
:01389A00220B
:1039DB00AC05123D8CEF30E61D123CBE900197EC0E
:1039EB00F07F6112390F123D55123DC9E4FD7FFD89
:0939FB00123CC27F01227F002270
:10260E0078937C017D017BFF7A3A79787E007F0595
:10261E00121CBB78987C017D017BFF7A3A797D7E16
:10262E00007F03121CBB789B7C017D017BFF7A3AF5
:10263E0079807E007F06121CBB78A17C017D017B18
:10264E00FF7A3A79867E007F01121CBB78A27C014C
:10265E007D017BFF7A3A79877E007F03121CBB12C5
:10266E003E127D5A7F53123CC27DA57F53123CC24F
:10267E007D207F3D123CC2123CBE7FE1123CC27FE8
:10268E00E2123CC27D707F27123CC27D017F221276
:10269E003CC27D037F23123CC27D4E7F25123CC27D
:1026AE007D107F31123CC27B017A0179FE9001A927
:1026BE007405F07F301238E07B017A0179FE9001CB
:1026CE00A97405F07F2A1238E07A0179931238D670
:1026DE007B017A01799B9001A97406F07F3A12383A
:1026EE00E07B017A0179A19001A97401F07F391282
:1026FE0038E07B017A0179989001A97403F07F3E4E
:10270E001238E07B017A0179A29001A97403F07F5F
:10271E003B1238E0E4FD7F3C123CC27D3F7F261227
:0E272E003CC2E4FD7F24123CC27F21023CC26B
:052C2B009001C1EFF073
:102C3000E478C27C017D017BFF7A3A798AFE7F05C8
:102C4000121CBB78C77C017D017BFF7A3A798F7EAD
:102C5000007F03121CBB78CA7C017D017BFF7A3A9E
:102C600079927E007F06121CBB78D07C017D017BAF
:102C7000FF7A3A79987E007F01121CBB78D17C01E3
:102C80007D017BFF7A3A79997E007F03121CBB7D20
:102C90005A7F53123CC27DA57F53123CC27D207FD8
:102CA0003D123CC2123CBEE4FF000000000FEFB436
:102CB000DCF79001C1E0FD7F25123CC27D3F7F26FD
:102CC000123CC27A0179C21238D67B017A0179CAE4
:102CD0009001A97406F07F3A1238E07B017A0179FD
:102CE000D09001A97401F07F391238E07B017A019C
:102CF00079C79001A97403F07F3E1238E07B017A16
:0E2D00000179D19001A97403F07F3B0238E005
:1033F80053B1F743B20853B1EF43B21053B3FB4391
:10340800B40443DE01A2AF9209C2AF75C7AA75C75B
:103418005543910143C60875C7AA75C7555391FE10
:10342800A20992AF43DE2053DF3F43DF0153DFF9A8
:1034380075D1FF75D9FFD2DFE4FBFAFDFCFFFE0270
:023448002A5800
:10394400AD07AC06A2AF9209C2AF75C7AA75C75539
:10395400439101A20992AFECF5C5EDF5CDA2AF926A
:1039640009C2AF75C7AA75C7555391FEA20992AF94
:03397400D2DE227E
:0D3D2E00AD07AC06ECF5D5EDF5DDD2DE22DB
:0D3D3B00AD07AC06ECF5D2EDF5DAD2DE22D4
:102A580090019DEEF0A3EFF0A3ECF0A3EDF0A3EA54
:042A6800F0A3EBF0FC
:102A6C00A31220610000000090019DE0FEA3E0FF96
:102A7C00E4FCFD9001A31220559001A31220499073
:102A8C0000A3E0FFE4FCFDFE121EFC9001A312204B
:102A9C00559001A312203DE47B64FAF9F8121F87CC
:102AAC009001A31220559001A312203D123944909D
:102ABC00019FE0FEA3E0FFE4FCFD9001A312205572
:102ACC009001A31220499000A3E0FFE4FCFDFE124C
:102ADC001EFC9001A31220559001A312203DE47B13
:102AEC0064FAF9F8121F879001A31220559001A3E4
:102AFC0012203D123D2E9001A1E0FEA3E0FFE4FC6C
:102B0C00FDA31220559001A31220499000A3E0FFD1
:102B1C00E4FCFDFE121EFC9001A31220559001A3B3
:102B2C0012203DE47B64FAF9F8121F879001A3127E
:0B2B3C0020559001A312203D023D3BFC
:103A9C009000A3EFF0C3940A5003740AF09000A5B1
:103AAC00E0FEA3E0FFA3E0FCA3E0FDA3E0FAA3E0AB
:043ABC00FB022A5887
:093DA00053B3EF43B410023E05D9
:033E0200D2942235
:033E0500C2942242
:033E0800B294224F
:063DF000A294E433FF225F
:0A3D9600EF6003023E02123E052218
:013E1300228C
:10310500EFF5A6EEF5A7A2AF9209C2AF75C7AA75EE
:10311500C755439F01A20992AFA2AF9209C2AF75ED
:10312500C7AA75C75543A501A20992AF75AF21AFCF
:10313500058FAEA2AF9209C2AF75C7AA75C7554331
:10314500A401A20992AFA2AF9209C2AF75C7AA7531
:10315500C75553A5FEA20992AFA2AF9209C2AF759A
:0D316500C7AA75C755539FFEA20992AF225D
:103790008FA6EEF5A775AEFFA2AF9209C2AF75C7AF
:1037A000AA75C755439F01A20992AFA2AF9209C261
:1037B000AF75C7AA75C75543A501A20992AF75AFEA
:1037C00022A2AF9209C2AF75C7AA75C75543A4011B
:0537D000A20992AF22E6
:0C2DC3009001F8EEF0A3EFF0A31220BB8B
:102DCF009001F8E0FEA3E0F5A6EEF5A7A2AF9209F9
:102DDF00C2AF75C7AA75C755439F01A20992AFA28B
:102DEF00AF9209C2AF75C7AA75C75543A501A2090E
:102DFF0092AF75AF21E4FEFF9001FDE0FDC3EF9DA3
:102E0F00EE940050299001FA12209B8F828E83122C
:102E1F001CFAF5AEA2AF9209C2AF75C7AA75C75516
:102E2F0043A401A20992AF0FBF00010E80CAA2AF47
:102E3F009209C2AF75C7AA75C75553A5FEA20992CD
:102E4F00AFA2AF9209C2AF75C7AA75C755539FFE00
:042E5F00A20992AF83
:012E6300224C
:040003008F828E83D7
:03000700E493FF80
:01000A0022D3
:073DD000A2B0B3E433FF22AF
:073DD700A297B3E433FF22C1
:063DF6001233A1023D485A
:103C97007843E62438F8A607784306E6C3940A4033
:043CA70002E4F6221B
:103B9B007842E6FE08667002FF2274382EF8E6FFC4
:0B3BAB00784206E6C3940A4002E4F6EC
:013BB60022EC
:103BB7007844E6FE18667002FF2274382EF8E6FF96
:0B3BC700784406E6C3940A4002E4F6CE
:013BD20022D0
:0B3D6D00EF75F00BA4242AF8E6FF22FB
:103AC000EF75F00BA42428F8A60408A605AE03EFB2
:103AD00075F00BA4242BF8A606EF75F00BA4242C8C
:043AE000F8E4F622EE
:063DFC007843E618F622F0
:0D3D480043AC0153ADFE43B38053B37F2263
:1033A100E47842F608F608F6FFEF75F00BA424283E
:1033B100F87600087664EF75F00BA42425F8760200
:1033C100EF75F00BA4242AF8E4F6EF75F00BA424B2
:1033D1002BF8E4F6EF75F00BA4242CF8E4F60FEFCC
:1033E100B402C67BFF7A3D79D078221220927A3DD1
:0733F10079D7782D0220922C
:1024D100900194EFF0E075F00BA42422F9E4FAFBEB
:1024E10090021F1220BB1220C412210AEF700302B6
:1024F10025B090021F12209B900003121CFAFFC30B
:1025010094055008900003740502260AEFC3940A4B
:1025110050089000037401021D27900008121CFA54
:10252100701490000804121D5A900194E075F00394
:10253100A404FF123C9790021F12209B90000612E8
:102541001E2FFFAEF0D39400EE9400500302260D2F
:10255100900004121E2FC39FE5F09E5023900004AB
:10256100E475F001121E67FCE5F06F7002EC6E601D
:102571000302260D900194E075F003A42403802B3F
:10258100900009121CFAFFD39400500302260D900B
:10259100000A7401121D27C39F407190000AE412C2
:1025A1001D5A900194E075F003A404FF023C97903A
:1025B100021F12209B900003121CFAFFD3940540C6
:1025C1000A9000037405121D5A802BEF600A9000D7
:1025D1000374FF121D27801E900008121CFAB4011B
:1025E10015900008E4121D5A900194E075F003A4BF
:1025F1002402FF123C9790021F12209B900004E4DA
:0D260100F5F0121EB490000AE4121D5A22DA
:103BEE00E4900193F0900193E0FFC39402500B1206
:0A3BFE0024D1900193E004F080EB65
:013C08002299
:10389B0053B1BF53B2BF53B17F53B27F75985043EF
:1038AB008920438780438E1053C4DFAB07AA06A938
:1038BB0005A8047F407E427D0F7C00121F87EF041A
:0B38CB00F404F58DD28ED299D2AC220D
:1031720090019312205553B1BF53B2BF53B17F5345
:10318200B27F75985043878053C4F843C42090019E
:10319200931220497F407E427D0F7C00121F87C31D
:1031A20074FF9FFF74FF9EFEE49DFDE49CFC780883
:1031B20012202A8FC69001931220497F407E427DC1
:1031C2000F7C00121F87C374FF9FFF8FC543C40883
:0531D200D299D2AC22ED
:073DA9003098FDAF99C298AC
:013DB00022F0
:083DB100C2998F993099FD229F
:1032360090020312205553B1FB53B2FB53B3BF5355
:10324600B4BF75F85075C40853C4DF90020312204A
:10325600497F407E427D0F7C00121F87C374FF9F0B
:10326600FF74FF9EFEE49DFDE49CFC780812202A74
:103276008FC69002031220497F407E427D0F7C005C
:0E328600121F87C374FF9FFF8FC543C4082229
:073DB90030F8FDAF9AC2F8DB
:013DC00022E0
:083DC100C2F98F9A30F9FD22CE
:10366800900207122055538EF7438901D28CE4FF4C
:10367800FEFDFC900207122049C31220196029752B
:103688008A7E758CFF308DFDC28D90020712203D19
:10369800EF24FFFFEE34FFFEED34FFFDEC34FFFCBA
:0B36A80090020712205580C6C28C2241
:1036B30090020B122055538EF7438901D28CE4FFFD
:1036C300FEFDFC90020B122049C3122019602975DC
:1036D3008ACA758CFA308DFDC28D90020B12203D83
:1036E300EF24FFFFEE34FFFEED34FFFDEC34FFFC6F
:0B36F30090020B12205580C6C28C22F2
:1036FE0090020F122055538EEF438910D28EE4FFA5
:10370E00FEFDFC90020F122049C31220196029758C
:10371E008BEA758DCB308FFDC28F90020F12203D3C
:10372E00EF24FFFFEE34FFFEED34FFFDEC34FFFC23
:0B373E0090020F12205580C6C28E22A0
:1034E80090021312205553C9BF53C9DF43C910D2E4
:1034F800CAE4FFFEFDFC900213122049C3122019F2
:10350800602975CC3075CDF830CFFDC2CF9002134D
:1035180012203DEF24FFFFEE34FFFEED34FFFDECFB
:0E35280034FFFC90021312205580C6C2CA2246
:1035830090021712205575C40743C408E4FFFEFDDB
:10359300FC900217122049C3122019602C75C52C08
:1035A30075C6CFE5C430E4FB53C4EF900217122075
:1035B3003DEF24FFFFEE34FFFEED34FFFDEC34FF5F
:0D35C300FC90021712205580C353C4F7225C
:1035D00090021B12205575C40743C408E4FFFEFD8A
:1035E000FC90021B122049C3122019602C75C5D80B
:1035F00075C6FFE5C430E4FB53C4EF90021B1220F4
:103600003DEF24FFFFEE34FFFEED34FFFDEC34FF11
:0D361000FC90021B12205580C353C4F7220A
:102856000A3D3D3D3D3D3D3D3D3D3D3D3D3D3D3DD5
:102866003D3D3D3D3D3D3D3D3D3D3D3D3D3D3D3D92
:102876003D3D3D3D3D3D3D3D3D3D3D3D3D3D3D3D82
:102886003D3D3D3D3D3D3D3D3D3D3D3D3D3D3D3D72
:102896003D3D3D3D3D000A2A2020436F7079726917
:1028A6006768742863292032303135204E75766F7B
:1028B600746F6E20546563686E6F6C6F6779204322
:1028C6006F72702E20416C6C207269676874732079
:1028D60072657365727665642E2020000A2A2020B0
:1028E600436F6E7461637420452D4D61696C3A20A7
:1028F6004D6963726F432D38626974406E75766FE9
:10290600746F6E2E636F6D202020202020202020E3
:1029160020202020202020202020202020202020B1
:1029260020000A2A202044656D6F2056657273695F
:102936006F6E20203A202532642E2532642E2532F1
:1029460064000A2A202046696E697368656420441B
:10295600617465203A202532642E2532642E253294
:0229660064000B
:1031D7007BFF7A2879561221D77BFF7A28799C12B0
:1031E70021D77BFF7A2879E21221D77BFF7A2979C9
:1031F7002890016DE4F0A304F0E4A3F0A3F0A3F09A
:10320700A3F01221D77BFF7A29794890016D7407C3
:10321700F0A374DFF0A3E4F0A37405F0A3E4F0A334
:0F322700741FF01221D77BFF7A2879560221D726
:03000000022E6469
:102E6400787FE4F6D8FD9000007FFF7E03E4F0A3B2
:0A2E7400DFFCDEFA758144022EB97E
:102E7E00022B47E493A3F8E493A34003F68001F2F8
:102E8E0008DFF48029E493A3F85407240CC8C33355
:102E9E00C4540F4420C8834004F456800146F6DF24
:102EAE00E4800B0102040810204080902EFEE47E88
:102EBE00019360BCA3FF543F30E509541FFEE49319
:102ECE00A360010ECF54C025E060A840B8E493A3E0
:102EDE00FAE493A3F8E493A3C8C582C8CAC583CA0B
:102EEE00F0A3C8C582C8CAC583CADFE9DEE780BEC3
:012F8600004A
:101BEB00E709F608DFFA8046E709F208DFFA803EDC
:101BFB0088828C83E709F0A3DFFA8032E309F608C9
:101C0B00DFFA8078E309F208DFFA807088828C8330
:101C1B00E309F0A3DFFA806489828A83E0A3F608E4
:101C2B00DFFA805889828A83E0A3F208DFFA804CBE
:101C3B0080D280FA80C680D4806980F28033801095
:101C4B0080A680EA809A80A880DA80E280CA8033FE
:101C5B0089828A83ECFAE493A3C8C582C8CCC58376
:101C6B00CCF0A3C8C582C8CCC583CCDFE9DEE78046
:101C7B000D89828A83E493A3F608DFF9ECFAA9F0C5
:101C8B00EDFB2289828A83ECFAE0A3C8C582C8CC1B
:101C9B00C583CCF0A3C8C582C8CCC583CCDFEADE34
:101CAB00E880DB89828A83E493A3F208DFF980CC96
:101CBB0088F0EF60010E4E60C388F0ED2402B4048F
:101CCB000050B9F582EB2402B4040050AF23234536
:061CDB008223901C3B7304
:101CE100BB010689828A83E0225002E722BBFE0201
:091CF100E32289828A83E4932234
:101CFA00BB010CE58229F582E5833AF583E022509F
:101D0A0006E92582F8E622BBFE06E92582F8E222E8
:0D1D1A00E58229F582E5833AF583E4932202
:101D2700BB010FF8E58229F582E5833AF583E028C0
:101D3700F0225009C58229F8E58226F622BBFE0962
:101D4700C58229F8E22582F222F8EA2583F583E99C
:031D5700932822AC
:101D5A00F8BB010DE58229F582E5833AF583E8F0BF
:101D6A00225006E92582C8F622BBFE05E92582C86B
:021D7A00F22253
:101D7C00EF8DF0A4A8F0CF8CF0A428CE8DF0A42E7B
:021D8C00FE2235
:101D8E00BC000BBE0029EF8DF084FFADF022E4CC39
:101D9E00F875F008EF2FFFEE33FEEC33FCEE9DEC02
:101DAE00984005FCEE9DFE0FD5F0E9E4CEFD22ED48
:101DBE00F8F5F0EE8420D21CFEADF075F008EF2F92
:101DCE00FFED33FD4007985006D5F0F222C398FD83
:051DDE000FD5F0EA2220
:101DE300C2D5EC30E709B2D5E4C39DFDE49CFCEE1B
:101DF30030E715B2D5E4C39FFFE49EFE121D8EC3E8
:101E0300E49DFDE49CFC8003121D8E30D507C3E4E2
:061E13009FFFE49EFE2289
:101E1900C5F0F8A3E028F0C5F0F8E5821582700254
:061E29001583E038F022F1
:101E2F00BB0110E58229F582E5833AF583E0F5F0F1
:101E3F00A3E0225009E92582F886F008E622BBFECE
:101E4F000AE92582F8E2F5F008E222E5832AF58314
:081E5F00E993F5F0A3E99322D9
:101E6700BB010DC58229C582C5833AC583021E19E8
:101E77005011C58229F808E5F026F618F5F0E58235
:101E870036F622BBFE11C58229F808E225F0F5F0E7
:101E9700F218E23582F222F8E58229F582E5832AF3
:0D1EA700F58374019325F0F5F0E4933822E3
:101EB400F8BB0111E58229F582E5833AF583E8F060
:101EC400E5F0A3F0225009E92582C8F608A6F0221D
:0D1ED400BBFE09E92582C8F2E5F008F22204
:0D1EE100EF2BFFEE3AFEED39FDEC38FC2250
:0E1EEE00C3EF9BFFEE9AFEED99FDEC98FC22EF
:101EFC00E88FF0A4CC8BF0A42CFCE98EF0A42CFC85
:101F0C008AF0EDA42CFCEA8EF0A4CDA8F08BF0A402
:101F1C002DCC3825F0FDE98FF0A42CCD35F0FCEB61
:101F2C008EF0A4FEA9F0EB8FF0A4CFC5F02ECD3926
:0F1F3C00FEE43CFCEAA42DCE35F0FDE43CFC2293
:101F4B0075F008758200EF2FFFEE33FECD33CDCC4D
:101F5B0033CCC58233C5829BED9AEC99E5829840D0
:101F6B000CF582EE9BFEED9AFDEC99FC0FD5F0D6AD
:101F7B00E4CEFBE4CDFAE4CCF9A88222B800C1B9D7
:101F8B000059BA002DEC8BF084CFCECDFCE5F0CB15
:101F9B00F97818EF2FFFEE33FEED33FDEC33FCEB4E
:101FAB0033FB10D703994004EB99FB0FD8E5E4F909
:101FBB00FA227818EF2FFFEE33FEED33FDEC33FCF6
:101FCB00C933C910D7059BE99A4007EC9BFCE99AEA
:101FDB00F90FD8E0E4C9FAE4CCFB2275F010EF2F2F
:101FEB00FFEE33FEED33FDCC33CCC833C810D7072F
:101FFB009BEC9AE899400AED9BFDEC9AFCE899F86A
:0E200B000FD5F0DAE4CDFBE4CCFAE4C8F922FC
:10201900EB9FF5F0EA9E42F0E99D42F0E89C45F01D
:012029002294
:10202A00E8600FECC313FCED13FDEE13FEEF13FF94
:03203A00D8F122B8
:0C203D00E0FCA3E0FDA3E0FEA3E0FF2216
:0C204900E0F8A3E0F9A3E0FAA3E0FB221A
:0C205500ECF0A3EDF0A3EEF0A3EFF022FE
:10206100A8828583F0D083D0821220781220781242
:102071002078122078E473E493A3C583C5F0C58367
:10208100C8C582C8F0A3C583C5F0C583C8C582C8C9
:01209100222C
:09209200EBF608EAF608E9F62273
:09209B00E0FBA3E0FAA3E0F92246
:1020A400F8E0FBA3A3E0F925F0F0E58215827002C5
:0720B4001583E0FA38F02269
:0920BB00EBF0A3EAF0A3E9F02226
:1020C400BB010789828A8302209B5005E9F802211B
:1020D4004EBBFE05E9F802215789828A83022160FA
:1020E400D083D082F8E4937012740193700DA3A38B
:1020F40093F8740193F5828883E47374029368609F
:06210400EFA3A3A380DF9E
:06210A008A838982E47360
:10216C00E508246DF582E43401F583E0050822903E
:10217C00016A30070390016DE475F0011220A4028E
:10218C001CE12000E97F2ED2008018EF540F249020
:10219C00D43440D4FF30040BEF24BFB41A005003E6
:1021AC002461FFE50960021509050CE50C700205B8
:1021BC000B30070E90016AE475F0011220A4EF02B7
:1021CC00213C023A2B7403D2078003E4C207F508C2
:1021DC0090016A1220BBE4F509F50BF50CE50960DA
:1021EC00077F201221AF80F5750AFFC201C200C221
:1021FC0002C203C205C206C20812217BFF700D3059
:10220C0007057F001221C0AF0CAE0B22B4255FC2B4
:10221C00D5C20412217BFF24D0B40A00501A75F0E9
:10222C000A780930D50508B6FF0106C6A426F620A3
:10223C00D5047002D20380D924CFB41A00EF500415
:10224C00C2E5D2040223C1D20180C6D20080C0D222
:10225C000280BCD2D580BAD20580B47F201221AFC7
:10226C002002077401B5090040F112216CFF122104
:10227C00AF0221E9D208D206809512216CFB122103
:10228C006CFA12216CF94A4B700679927A247BFF16
:10229C0020022EE509602A7E008E82758300121CB6
:1022AC00FA60060EEE650A70F0C2D5EBC0E0EAC02B
:1022BC00E0E9C0E0EE122408D0E0F9D0E0FAD0E07A
:1022CC00FB121CE1FF60AAEBC0E0EAC0E0E9C0E051
:1022DC001221AFD0E02401F9D0E03400FAD0E0FBB9
:1022EC00E50A0460DCD50AD980877BFF7A2479045F
:1022FC00D202809C791080027908C206C20880083C
:10230C00D2D5790A8004790AC2D5E50A047002F59F
:10231C000AE4FAFDFEFF12216CFC7B08200113126B
:10232C00216CFD7B1030000A12216CFE12216CFF17
:10233C007B20EC3382D592D55013C3E43000069F3A
:10234C00FFE49EFEE42001039DFDE49CFCE4CBF83D
:10235C00C201EC700CCFCECDCCE824F8F870F38031
:10236C0017C3EF33FFEE33FEED33FDEC33FCEB33F1
:10237C00FB994002FB0FD8E9EB300105F8D0E0C423
:10238C0048B201C0E00AEC4D4E4F78207B0070C281
:10239C00EAB50A0040BCC0E012240AD0F0D0E0201C
:1023AC000104C4C0E0C4B201C0F0122198D0F0D531
:1023BC00F0EB0221E91220E4228653230058225725
:1023CC004C22534223044F230C44230C49226C43CC
:0823DC0023125522F64622F6F9
:1023E4004522F64724B250225B2D225F2E22822BF7
:1023F400226323228020249B2A221B480000227A65
:102404003F3F3F00790AA2D5200314300509B910D3
:10241400020404B9080104A2D520060250010420D4
:1024240002689202B509005034C0E07F20300319DD
:102434007F30A20272067205500F122461C202C2DA
:1024440006C205C2087F30800F300503E9C0E012E0
:1024540021AF300503D0E0F9D0E0B509CC30051741
:102464007F30B9100C1221AF7F583004077F788079
:1024740003B908031221AF3002057F2D0221AF7F7B
:10248400202008F87F2B2006F322920280CF286EAA
:10249400756C6C2900D20112216C3001F8C20178EC
:1024A4000930D50108F602221B2D50434958122148
:1024B4006C2403B405004001E49024AD931221A0E0
:0D24C400743A1221A0D2037509040223000E
:0C3D6100EE30E707C3E49FFFE49EFE2263
:10211000EF4E6012EF60010EEDBB010B89828A83E6
:10212000F0A3DFFCDEFA2289F05007F709DFFCA9F3
:0C213000F022BBFEFCF309DFFCA9F0224A
:10213C00BB010689828A83F0225002F722BBFE0182
:02214C00F3227C
:09214E00E6FB08E6FA08E6F922B6
:09215700E2FB08E2FA08E2F922B9
:0C216000E493FB740193FA740293F922DB
:103A2B00EFB40A07740D123A36740A309811A8993C
:103A3B00B8130CC2983098FDA899C298B811F630FB
:073A4B0099FDC299F59922D3
:00000001FF
