:042BE000410220008E
:102A190012386312397312363F1200221237BE126E
:102A2900335E9001E3E06060E4F0900220E004F09E
:102A39009000A4E0FFC394324027EF24CEFFE43492
:102A4900FFFE7C007D05121D41EF240AFFE43EFED6
:102A5900900220E0D39FEE6480F87480984029802A
:102A6900229000A4E0FFC374329FFFE49400FE7C2F
:102A7900007D0A121D41C3740A9FFF900220E0D312
:102A89009F4005E4F0120B9B9001E5E06002E4F041
:102A99009001E7E06008E4F012002612330F90017C
:102AA900E9E06002E4F09001ECE07003022A2BE413
:042AB900F0022A2BD2
:0100220022BB
:013970002234
:013971002233
:013972002232
:0C38CB009001DDEBF0A3EAF0A3E9F0228D
:0C38D7009001E0EBF0A3EAF0A3E9F0227E
:103875009001DDA3E0FAA3E0F94A6003121F9C2240
:103885009001E0A3E0FAA3E0F94A6003121F9C222D
:1035E400EF4E602D9001D3EEF0A3EFF0AF05A3EC06
:1035F400F0A3EFF0AF03A3EAF0A3EFF0E4A3F0A38A
:10360400F0A3F0A3F09001D2F09001D104F01238AD
:0236140075221D
:10000E00E49001D1F01238857B007A007900123825
:04001E00CB0238D702
:1028B9009001D1E0700302296D9001D5E0FEA3E0FB
:1028C900FF4E700302296D9001D2E07035D3EF9469
:1028D90000EE9400500302296D9001D9E475F001CE
:1028E900121DCCFED39001D4E095F09001D3E09E67
:1028F9005072123885E49001D9F0A3F09001D20406
:10290900F0229001D2E06401705A9001D975F0016A
:10291900121DCCFED39001D6E095F09001D5E09E32
:1029290050429001D7E0FEA3E0FF9400EE940040EE
:10293900259001DBE475F001121DCCFCD3EF95F075
:10294900EE9C5005E49001D1F09001D1E070079020
:1029590001D5F0A3F022E49001D9F0A3F09001D2BF
:05296900F01238752298
:102BE40041014F00500150000000000000000000AF
:102BF4000000000000000050013F00000000000041
:102C04000000000000000000000048016000000017
:052C14000000000000BB
:10363F00E490014FF0FE7F10FD7B017A017950126B
:10364F001FA27E007F107D007B017A01793F121F40
:07365F00A212249C02368D2B
:0A2CE20004F07B017A01793FE0FD68
:0E2CEC009001AEEBF0A3EAF0A3E9F0A3EDF047
:102CFA00E4FF000FEFB40AFA12389590014F7401FD
:102D0A00F0E4FF000FEFB40AFA9001AEE0FBA3E093
:102D1A00FAA3E0F9740190013F6B7008E9658270CB
:102D2A0003EA6583602A7E007F107D007B017A01B9
:102D3A00793F121FA29001B1E0FF7E00783F7C012B
:102D4A007D019001AEE0FBA3E0FAA3E0F9121CA119
:012D5A002256
:0B154C009001A7EBF0A3EAF0A3E9F088
:10155700E4A3F0A3F0A3F0A3F0121CC764F26003A6
:10156700021BD09001A7E0FBA3E0FAA3E0F99000EB
:1015770001121CE0D394104003021BD0E49001AB8E
:10158700F09001A7E0FBA3E0FAA3E0F990000112B5
:101597001CE02401FFE433FE9001ABE0FDC39FEEA6
:1015A7006480F8748098501DED2401FFE433FE8FAA
:1015B700828E83121CE0FF9001ADE02FF09001AB0B
:1015C700E004F080BC9001A7E0FBA3E0FAA3E0F9F8
:1015D700900001121CE0F582758300A3A3121CE0A2
:1015E700FF9001ADE06F6003021BD07E007F107D8E
:1015F700007B017A01793F121FA2E49001ACF090C1
:1016070001A7E0FBA3E0FAA3E0F9900002121CE0B7
:10161700121F76164B01182E0218DD031A73041ACF
:1016270082051A91061AA0081725091AAF501ACD74
:10163700511A91521ADC531AEF541ABE70198CB909
:1016470000001BC790021DE0FF20E003021ABE3016
:10165700E10854FDF0120003800A90021DE04402E5
:10166700F01238049001ACE0FF04F0743F2FF582CC
:10167700E43401F58374F8F09001ACE0FF04F074F2
:101687003F2FF582E43401F583740AF09001ACE052
:10169700FF04F0743F2FF582E43401F5837401F001
:1016A70090021CE0C313A3E0135401FF9001ACE0C8
:1016B700FE04F0743F2EF582E43401F583EFF090D9
:1016C70001ACE0243FF9E43401FA7B017D081235CF
:1016D700799001ACE02408F0E49001ABF090014070
:1016E700E02401FFE433FE9001ABE0FDC39FEE640D
:1016F70080F8748098502474402DF582E43401F505
:1017070083E0FF9001ACE0243FF582E43401F583E8
:10171700E02FF09001ABE004F080C2021BC0900103
:10172700A7E0FBA3E0FAA3E0F9900003121CE0B4E2
:10173700010512396780309001A7E0FBA3E0FAA307
:10174700E0F9900003121CE0B4020512396A801711
:101757009001A7E0FBA3E0FAA3E0F9900003121CB5
:10176700E0B4030312396D9001ACE0FF04F0743F5D
:101777002FF582E43401F58374F8F09001ACE0FFB3
:1017870004F0743F2FF582E43401F5837402F0907E
:1017970001A7E0FBA3E0FAA3E0F9900002121CE026
:1017A700FF9001ACE0FE04F0743F2EF582E43401B3
:1017B700F583EFF0123961EF9001AC6013E0FF049D
:1017C700F0743F2FF582E43401F5837401F0801142
:1017D700E0FF04F0743F2FF582E43401F5837402CF
:1017E700F0E49001ABF0900140E02401FFE433FE08
:1017F7009001ABE0FDC39FEE6480F87480984003CE
:10180700021BC774402DF582E43401F583E0FF9095
:1018170001ACE0243FF582E43401F583E02FF0903A
:1018270001ABE004F080BF90021DE0FF20E003025F
:101837001ACD30E103021BC71237D69001ACE0FF87
:1018470004F0743F2FF582E43401F58374F8F090C7
:1018570001ACE0FF04F0743F2FF582E43401F58317
:101867007409F09001ACE0FF04F0743F2FF582E4B7
:101877003401F5837402F09001ACE0243FF9E434BD
:1018870001FA7B017D081235799001ACE02408F05C
:10189700E49001ABF0900140E02401FFE433FE90B7
:1018A70001ABE0FDC39FEE6480F874809850247408
:1018B700402DF582E43401F583E0FF9001ACE0248C
:1018C7003FF582E43401F583E02FF09001ABE004AB
:1018D700F080C2021BC090021DE0FF20E003021A45
:1018E700DC30E103021BC71237EE9001ACE0FF04C6
:1018F700F0743F2FF582E43401F58374F8F090011A
:10190700ACE0FF04F0743F2FF582E43401F58374F3
:1019170009F09001ACE0FF04F0743F2FF582E43446
:1019270001F5837403F09001ACE0243FF9E434013E
:10193700FA7B017D081235799001ACE02408F0E4C8
:101947009001ABF0900140E02401FFE433FE9001E9
:10195700ABE0FDC39FEE6480F87480985024744018
:101967002DF582E43401F583E0FF9001ACE0243FDC
:10197700F582E43401F583E02FF09001ABE004F049
:1019870080C2021BC090021DE030E00554FEF080CB
:101997000790021DE04401F09001ACE0FF04F074F1
:1019A7003F2FF582E43401F58374F8F09001ACE041
:1019B700FF04F0743F2FF582E43401F583740BF0D4
:1019C7009001ACE0FF04F0743F2FF582E43401F599
:1019D7008374B9F090021CE0FEA3E0FF5401FD9070
:1019E70001ACE0FC04F0743F2CF582E43401F5838C
:1019F700EDF0EEC313EF135401FF9001ACE0FE04CA
:101A0700F0743F2EF582E43401F583EFF09001ACDA
:101A1700E0243FF9E43401FA7B017D08123579901F
:101A270001ACE02408F0E49001ABF0900140E02421
:101A370001FFE433FE9001ABE0FDC39FEE6480F845
:101A4700748098502474402DF582E43401F583E0C6
:101A5700FF9001ACE0243FF582E43401F583E02FE9
:101A6700F09001ABE004F080C2021BC07B007A005B
:101A77007900E49001B2F07F0480677B007A0079F7
:101A870000E49001B2F07F0580587B007A0079006E
:101A9700E49001B2F07F0680497B007A007900E488
:101AA7009001B2F07F08803A7B007A007900E490D9
:101AB70001B2F07F08802B7B007A007900E4900167
:101AC700B2F07F01801C7B007A007900E49001B2BC
:101AD700F07F02800D7B007A007900E49001B2F07C
:101AE7007F031226DC021BC790021DE0FF30E108CE
:101AF70054FDF0120003800A90021DE04402F01228
:101B070038049001ACE0FF04F0743F2FF582E43411
:101B170001F58374F8F09001ACE0FF04F0743F2FF7
:101B2700F582E43401F583740AF09001ACE0FF0418
:101B3700F0743F2FF582E43401F5837401F09002CD
:101B47001CE0C313A3E0135401FF9001ACE0FE04B3
:101B5700F0743F2EF582E43401F583EFF09001AC89
:101B6700E0243FF9E43401FA7B017D0812357990CE
:101B770001ACE02408F0E49001ABF0900140E024D0
:101B870001FFE433FE9001ABE0FDC39FEE6480F8F4
:101B9700748098502474402DF582E43401F583E075
:101BA700FF9001ACE0243FF582E43401F583E02F98
:101BB700F09001ABE004F080C29001ACE0122CE29F
:091BC7009001ACE06003122CE275
:011BD00022F2
:10330F0090014FE0603112390FEF24F0601824D094
:10331F006012242070161238E3123954E490014FD2
:10332F00F002368D80001238E30239547B017A01A6
:10333F00793F7D100234BC7B017A0179507D1012E8
:0F334F003616EF60097B017A01795012154C2276
:102C19004101900041019100410195004101960057
:102C29004201920000410194005001970000000008
:0C2C39000000000000000000000000008F
:1037BE00E4900190F0A3F0900195F0FE7FA2FD7BC6
:0837CE00017A007900021FA23C
:1026DC009001AFEBF0A3EAF0A3E9F0E4900190F0E5
:1026EC00E0FE04F074972EF582E43401F583745502
:1026FC00F0900190E0FE04F074972EF582E4340122
:10270C00F58374AAF09001B2E004FE900190E0FD14
:10271C0004F074972DF582E43401F583EEF090010A
:10272C0090E0FE04F074972EF582E43401F583EF0B
:10273C00F0E4900195F09001B2E0FF900195E0FE7D
:10274C00C39F502F9001AFE0FBA3E0FAA3E0F98EFA
:10275C0082758300121CE0FE900190E0FD04F07481
:10276C00972DF582E43401F583EEF0900195E004A9
:10277C00F080C37B017A017997EF2404FD122F219D
:10278C00900190E0FE04F074972EF582E43401F58C
:10279C0083EFF0E4900195F09001B2E02405FFE4A2
:1027AC0033FE900195E0FDC39FEE6480F874809831
:1027BC00501774972DF582E43401F583E0FF12393C
:0A27CC003C900195E004F080CF225C
:100026009000A2E07003020B9A14F09000A0E02466
:10003600A0FFE433FEA3E0FBFDC3EF9DFFEE9400BB
:10004600FE7C007DA0121D41EDC3940440D27400D5
:100056002BF582E43400F583E064556003020B86D9
:100066009000A1E07A002401FFEA33FE7C007DA027
:10007600121D9674002DF58274003CF583E064AA87
:100086006003020B86EB2402FFEA33FE7C007DA0B0
:10009600121D9674002DF58274003CF583E09001E4
:1000A60091F09000A0E024A0FFE433CFC39BCF9A49
:1000B600FE7C007DA0121D96900191E02404FFE4D1
:1000C60033FEC3ED9FEE6480F8EC64809850030223
:1000D6000B8C9000A1E0FF2400F9E43400FA7B01C8
:1000E600900191E02403FD9001AFEFF0A374A0F01E
:1000F600122B57AB07900191E0FF9000A1E02FFF74
:10010600E433CF2403CF3400FE7C007DA0121D967D
:1001160074002DF58274003CF583E06B6003020BDE
:1001260086E4900190F0FE7F10FD7B017A01793F15
:10013600121FA29000A1E0FB7A002403FFEA33FE1F
:100146007C007DA0121D9674002DF58274003CF58E
:1001560083E0121F76018912038031045A3308CCDA
:1001660034054435061E3607083702A63807F2411D
:1001760009BF540AA4620B08630B2E640B5065007A
:03018600000B70FB
:10018900E49001A7F0A3F0EB240CFFE43AFE7C0015
:100199007DA0121D9674002DF58274003CF583E054
:1001A900FF7E009001A7EEF0A3EFF0C39413EE9445
:1001B900004003020B709001A7E07002A3E07028D1
:1001C9009001947418F0E4A3F0900194E0FFA3E087
:1001D900FEC39F5013EE75F080A4FFAEF01238FBFA
:1001E900900195E004F080E19000A1E0240DFFE486
:1001F90033FE7C007DA0121D9674002DF5827400DB
:100209003CF583E0540FFF900192E4F0A3EFF0E492
:10021900900195F0900192E0FEA3E0FF7C007D0D36
:10022900121D2FEF240AFFE43EFE900195E0FBC367
:050239009FEC9E504BFC
:10023E009001A7E0FEA3E0FF7D72121D2FEBFD2FB4
:10024E00FFEC3EFEA3F0A3EFF0C006C0079000A1A6
:10025E00E02404FFE433CF2DCF3CFE7DA0121D968B
:10026E0074002DF58274003CF583E0FDD007D006B6
:03027E001239052D
:10028100900195E004F080949001A7A3E09001947F
:10029100F07B017A0179949001B27401F07F12121E
:0202A10026DC59
:1002A300020B70900190E0FF04F0743F2FF582E49D
:1002B3003401F58374F8F0900191E0FF900190E030
:1002C300FE04F0743F2EF582E43401F583EFF090E1
:1002D3000190E0FF04F0743F2FF582E43401F583CD
:1002E3007438F0E4900195F0900191E014FF9001CF
:1002F30095E0FEC39F50409000A1E02404FDE43349
:10030300FCEE7E002DFFEE3CFE7C007DA0121D96D0
:1003130074002DF58274003CF583E0FF900190E0BA
:10032300FE04F0743F2EF582E43401F583EFF09080
:100333000195E004F080B1E4900195F0900140E074
:100343002401FFE433FE900195E0FDC39FEE64803A
:10035300F8748098502474402DF582E43401F583B9
:10036300E0FF900190E0243FF582E43401F583E05F
:100373002FF0900195E004F080C2020A9090019062
:10038300E0FF04F0743F2FF582E43401F58374F841
:10039300F0900191E0FF900190E0FE04F0743F2E95
:1003A300F582E43401F583EFF0900190E0FF04F06F
:1003B300743F2FF582E43401F5837431F0E4900146
:1003C30095F0900191E014FF900195E0FEC39F50DA
:1003D300409000A1E02404FDE433FCEE7E002DFFF9
:1003E300EE3CFE7C007DA0121D9674002DF58274F8
:1003F300003CF583E0FF900190E0FE04F0743F2E93
:10040300F582E43401F583EFF0900195E004F08088
:10041300B1E4900195F0900140E02401FFE433FE44
:10042300900195E0FDC39FEE6480F874809850249A
:1004330074402DF582E43401F583E0FF900190E0F0
:10044300243FF582E43401F583E02FF0900195E039
:1004530004F080C2020A90900190E0FF04F0743F20
:100463002FF582E43401F58374F8F0900191E0FFF5
:10047300900190E0FE04F0743F2EF582E43401F520
:1004830083EFF0900190E0FF04F0743F2FF582E4D6
:100493003401F5837433F0E4900195F0900191E019
:1004A30014FF900195E0FEC39F50409000A1E0240B
:1004B30004FDE433FCEE7E002DFFEE3CFE7C007D6C
:1004C300A0121D9674002DF58274003CF583E0FFA5
:1004D300900190E0FE04F0743F2EF582E43401F5C0
:1004E30083EFF0900195E004F080B1E4900195F082
:1004F300900140E02401FFE433FE900195E0FDC349
:100503009FEE6480F8748098502474402DF582E443
:100513003401F583E0FF900190E0243FF582E43459
:1005230001F583E02FF0900195E004F080C2900183
:1005330090E004F090021DE030E003020B7002092A
:10054300B3900190E0FF04F0743F2FF582E434018F
:10055300F58374F8F0900191E0FF900190E0FE04C0
:10056300F0743F2EF582E43401F583EFF0900190AF
:10057300E0FF04F0743F2FF582E43401F583743512
:10058300F0E4900195F0900191E014FF900195E063
:10059300FEC39F50409000A1E02404FDE433FCEE31
:1005A3007E002DFFEE3CFE7C007DA0121D967400A4
:1005B3002DF58274003CF583E0FF900190E0FE048A
:1005C300F0743F2EF582E43401F583EFF09001954A
:1005D300E004F080B1E4900195F0900140E0240143
:1005E300FFE433FE900195E0FDC39FEE6480F87451
:1005F3008098502474402DF582E43401F583E0FFA4
:10060300900190E0243FF582E43401F583E02FF07C
:10061300900195E004F080C2020A90900190E0FFFF
:1006230004F0743F2FF582E43401F58374F8F090FD
:100633000191E0FF900190E0FE04F0743F2EF582FB
:10064300E43401F583EFF0900190E0FF04F0743F90
:100653002FF582E43401F5837436F0E4900195F0CC
:10066300900191E014FF900195E0FEC39F504090EC
:1006730000A1E02404FDE433FCEE7E002DFFEE3CFC
:10068300FE7C007DA0121D9674002DF58274003C43
:10069300F583E0FF900190E0FE04F0743F2EF582B5
:1006A300E43401F583EFF0900195E004F080B1E4C8
:1006B300900195F0900140E02401FFE433FE9001A6
:1006C30095E0FDC39FEE6480F874809850247440D5
:1006D3002DF582E43401F583E0FF900190E0243F9F
:1006E300F582E43401F583E02FF0900195E004F006
:1006F30080C2900190E004F090021DE030E003021C
:100703000B700209B3900190E0FF04F0743F2FF5E2
:1007130082E43401F58374F8F0900191E0FF9001D5
:1007230090E0FE04F0743F2EF582E43401F583EF8C
:10073300F0900190E0FF04F0743F2FF582E4340160
:10074300F5837437F0E4900195F0900191E014FF84
:10075300900195E0FEC39F50409000A1E02404FD6A
:10076300E433FCEE7E002DFFEE3CFE7C007DA01208
:100773001D9674002DF58274003CF583E0FF900113
:1007830090E0FE04F0743F2EF582E43401F583EF2C
:10079300F0900195E004F080B1E4900195F09001B0
:1007A30040E02401FFE433FE900195E0FDC39FEE9A
:1007B3006480F8748098502474402DF582E43401E9
:1007C300F583E0FF900190E0243FF582E43401F5E6
:1007D30083E02FF0900195E004F080C2900190E057
:1007E30004F090021DE030E003020B700209B390A5
:1007F3000190E0FF04F0743F2FF582E43401F583A8
:1008030074F8F0900191E0FF900190E0FE04F07421
:100813003F2EF582E43401F583EFF0900190E0FF81
:1008230004F0743F2FF582E43401F5837441F0E45E
:10083300900195F0900191E014FF900195E0FEC3C3
:100843009F50409000A1E02404FDE433FCEE7E00C1
:100853002DFFEE3CFE7C007DA0121D9674002DF54D
:100863008274003CF583E0FF900190E0FE04F07495
:100873003F2EF582E43401F583EFF0900195E00417
:10088300F080B1E4900195F0900140E02401FFE491
:1008930033FE900195E0FDC39FEE6480F874809869
:1008A300502474402DF582E43401F583E0FF900178
:1008B30090E0243FF582E43401F583E02FF09001CA
:1008C30095E004F080C2020A90900190E0FF04F0EA
:1008D300743F2FF582E43401F58374F8F0900191AD
:1008E300E0FF900190E0FE04F0743F2EF582E434C3
:1008F30001F583EFF0900190E0FF04F0743F2FF5D2
:1009030082E43401F5837434F0E4900195F09001AE
:1009130091E014FF900195E0FEC39F50409000A129
:10092300E02404FDE433FCEE7E002DFFEE3CFE7C70
:10093300007DA0121D9674002DF58274003CF58392
:10094300E0FF900190E0FE04F0743F2EF582E43462
:1009530001F583EFF0900195E004F080B1E490019C
:1009630095F0900140E02401FFE433FE900195E00F
:10097300FDC39FEE6480F8748098502474402DF575
:1009830082E43401F583E0FF900190E0243FF58297
:10099300E43401F583E02FF0900195E004F080C288
:1009A300900190E004F090021DE030E003020B7030
:1009B3007B017A01793F900190020A9C90021DE02D
:1009C300FF30E10854FDF0120003800A90021DE09D
:1009D3004402F0123804900190E0FF04F0743F2FBA
:1009E300F582E43401F58374F8F0900190E0FF049C
:1009F300F0743F2FF582E43401F583740AF090011B
:100A030090E0FF04F0743F2FF582E43401F5837422
:100A130001F090021CE0C313A3E0135401FF900103
:100A230090E0FE04F0743F2EF582E43401F583EF89
:100A3300F0900190E0243FF9E43401FA7B017D0852
:100A4300123579900190E02408F0E4900195F0903C
:100A53000140E02401FFE433FE900195E0FDC39FD4
:100A6300EE6480F8748098502474402DF582E43449
:100A730001F583E0FF900190E0243FF582E4340127
:100A8300F583E02FF0900195E004F080C29001908F
:100A9300E004F07B017A01793FE0FD122CEC020BBC
:100AA300709000A1E0FB7A002404FFEA33FE7C008F
:100AB3007DA0121D9674002DF58274003CF583E031
:100AC300FFC007EB2405FFEA33FE7C007DA0121D67
:100AD3009674002DF58274003CF583E0FDC005900B
:100AE30000A1E02406FFE433FE7C007DA0121D96E6
:100AF30074002DF58274003CF583E0FBD005D0072C
:100B030012343580689000A1E02404FFE433FE7CB6
:100B1300007DA0121D9674002DF58274003CF583B0
:100B2300E0FF9000A3F012377080429000A1E02410
:100B330004FFE433FE7C007DA0121D9674002DF5A6
:100B43008274003CF583E09000A4F080209000A123
:100B5300E02404FFE433FE7C007DA0121D967400A4
:100B63002DF58274003CF583E0FF122D5B9001911B
:100B7300E02404FF9000A1E02FF0E075F0A084E5ED
:100B8300F0F0229000A1E004F09000A1E075F0A045
:080B930084E5F0F002002622C7
:102F21009001B3EBF0A3EAF0A3E9F0AE05E490025F
:102F31001EF0AF061EEF604690021EE0FF9001B347
:102F4100E0FBA3E475F001121DE2A9F0FA121CC71F
:102F51006F90021EF0E4A3F090021FE0C3940850AA
:102F6100D190021EE030E007C313648CF08007901B
:102F7100021EE0C313F090021FE004F080DA900219
:042F81001EE0FF222D
:102B57009001ABEBF0A3EAF0A3E9F0AE05E4900235
:102B67001EF0AF061EEF606B90021EE0FF9001ABF8
:102B7700E0FBA3E475F001121DE2A9F0FA121CC7ED
:102B87006F90021EF09001AFE004F0A3E0FF900108
:102B9700AFE0C39F4012E4F0EFFDE49DFDE4940035
:102BA7009001AC8DF0121DCCE490021FF090021F33
:102BB700E0C3940850AC90021EE030E007C31364F2
:102BC7008CF0800790021EE0C313F090021FE00410
:092BD700F080DA90021EE0FF22FA
:072C45004401230000000020
:10335E007E007F067D007B017A01791D121FA27E01
:10336E00007F017D007B017A017934121FA27E005D
:10337E007F727D007B017A0079AB121FA27E007FE7
:10338E00087D007B017A0079A3121FA29000A3741E
:0B339E0064F0A37432F0E4FF022D5B2A
:1037D600900134E0600414F080069001347413F014
:0837E600900134E0FF022D5BAD
:1037EE00900134E004F0E0C394144002E4F0900140
:0637FE0034E0FF022D5B28
:103579009001AEEBF0A3EAF0A3E9F0EDD394084093
:103589000A9001AEE4F0A3F0A3F022AF057E00900B
:1035990001AEE0FBA3E0FAA3E0F8AC02AD037B01C6
:0835A9007A0079AB121CA1228B
:08000300900134E0FF022D5BC7
:10380400E490012EF0900132F0A3F0FBFAFDFCFFEE
:04381400FE02236528
:103158009001ABEFF02401FFE433FE9000B4E0549B
:103168000FB50714E4B506109001ABF0E075F00D4B
:10317800A424B5F97400800D9001ABE075F00DA49E
:1031880024C2F9740035F0FA7B0178277C017D01AF
:103198007E007F0D121CA178357C017D017B017AB0
:0A31A8000079AB7E007F0A021CA133
:102D5B009001AEEFF0FBE490011DF0A3121F4500B4
:102D6B000000009001227432F0EBC39413400890E2
:102D7B0001347413F080089001AEE0900134F07BC5
:102D8B00017A0079AB9001AEE0FD122F859000B374
:102D9B00E0700D7B017A0079ABFD122F85123804A0
:102DAB0078277C017D017B017A0079B57E007F0D50
:102DBB00121CA178357C017D017B017A0079AB7EF9
:062DCB00007F0A021CA1BA
:10378C00AB07E490011DF0A3121F4500000000E4FC
:09379C00900122F0AF0302315844
:103435009001ABEFF0A3EDF0A3EBF012380490018F
:10344500ABE09000A5F0A3E4F09001ACE09000A7FC
:10345500F0A3E4F09001ADE07F009000A9F0FAA39D
:10346500EFF0FB9000A5E0FEA3E0FFA3E0FCA3E0E6
:04347500FD022365CC
:100B9B00900122E0600314F02290012EE0700D9082
:100BAB000132E07002A3E0700302154B900127E0C5
:100BBB00540F24FC700302100C14700302127424E3
:100BCB0002600302154B90011EE0FCA3E0FDA3E0C5
:100BDB00FEA3E02401FFE43EFEE43DFDE43CFC907B
:100BEB00011E121F3990012BE0FF900128E0FEC37C
:100BFB009F5071EEFDC3EF9DFFE49400FE1238EFA2
:100C0B00EE3395E0FDFCC004C005C006C007E4FF51
:100C1B007E01FDFC90011EE0F8A3E0F9A3E0FAA32E
:100C2B00E0FB121DF8D003D002D001D000121DF84A
:100C3B00C006C00790012FE0FEA3E0FBAA06E4F973
:100C4B00F8D007D006121E83A804A905AA06AB0785
:100C5B00900128E0FEE4FCFD2BFFEA3EFEED39FDA2
:100C6B00EC388074900128E0FF90012BE0C39FFFCC
:100C7B00E49400FE1238EFEE3395E0FDFCC004C0A7
:100C8B0005C006C007E4FF7E01FDFC90011EE0F8E5
:100C9B00A3E0F9A3E0FAA3E0FB121DF8D003D00206
:100CAB00D001D000121DF8C006C00790012FE0FE46
:100CBB00A3E0FBAA06E4F9F8D007D006121E83A81E
:100CCB0004A905AA06AB07900128E0FEE4C39BFF2D
:100CDB00EE9AFEE499FDE498FC900123121F3990E3
:100CEB000131E0FFE4FCFDFE900123E0F8A3E0F905
:100CFB00A3E0FAA3E0FB121DF8E47B64FAF9F81207
:100D0B001E83900123121F39900123E0FCA3E0FD09
:100D1B00A3E0FEA3E0FF9000A5EEF0A3EFF090019F
:100D2B002CE0FF900129E0FEC39F5071EEFDC3EF55
:100D3B009DFFE49400FE1238EFEE3395E0FDFCC00E
:100D4B0004C005C006C007E4FF7E01FDFC90011E38
:100D5B00E0F8A3E0F9A3E0FAA3E0FB121DF8D0033F
:100D6B00D002D001D000121DF8C006C00790012F91
:100D7B00E0FEA3E0FBAA06E4F9F8D007D006121EAA
:100D8B0083A804A905AA06AB07900129E0FEE4FCA1
:100D9B00FD2BFFEA3EFEED39FDEC38807490012906
:100DAB00E0FF90012CE0C39FFFE49400FE1238EFAC
:100DBB00EE3395E0FDFCC004C005C006C007E4FFA0
:100DCB007E01FDFC90011EE0F8A3E0F9A3E0FAA37D
:100DDB00E0FB121DF8D003D002D001D000121DF899
:100DEB00C006C00790012FE0FEA3E0FBAA06E4F9C2
:100DFB00F8D007D006121E83A804A905AA06AB07D4
:100E0B00900129E0FEE4C39BFFEE9AFEE499FDE41A
:100E1B0098FC900123121F39900131E0FFE4FCFD97
:100E2B00FE900123E0F8A3E0F9A3E0FAA3E0FB12A4
:100E3B001DF8E47B64FAF9F8121E83900123121F4C
:100E4B0039900123E0FCA3E0FDA3E0FEA3E0FF90BB
:100E5B0000A7EEF0A3EFF090012DE0FF90012AE048
:100E6B00FEC39F5071EEFDC3EF9DFFE49400FE1295
:100E7B0038EFEE3395E0FDFCC004C005C006C0079B
:100E8B00E4FF7E01FDFC90011EE0F8A3E0F9A3E076
:100E9B00FAA3E0FB121DF8D003D002D001D0001250
:100EAB001DF8C006C00790012FE0FEA3E0FBAA06C9
:100EBB00E4F9F8D007D006121E83A804A905AA06E8
:100ECB00AB0790012AE0FEE4FCFD2BFFEA3EFEEDB2
:100EDB0039FDEC38807490012AE0FF90012DE0C3BE
:100EEB009FFFE49400FE1238EFEE3395E0FDFCC05B
:100EFB0004C005C006C007E4FF7E01FDFC90011E87
:100F0B00E0F8A3E0F9A3E0FAA3E0FB121DF8D0038D
:100F1B00D002D001D000121DF8C006C00790012FDF
:100F2B00E0FEA3E0FBAA06E4F9F8D007D006121EF8
:100F3B0083A804A905AA06AB0790012AE0FEE4C327
:100F4B009BFFEE9AFEE499FDE498FC900123121F9F
:100F5B0039900131E0FFE4FCFDFE900123E0F8A3A2
:100F6B00E0F9A3E0FAA3E0FB121DF8E47B64FAF9C5
:100F7B00F8121E83900123121F39900123A3A3E0C3
:100F8B00FEA3E0FF9000A9EEF0FAA3EFF0FB9000B8
:100F9B00A5E0FEA3E0FFA3E0FCA3E0FD1223659018
:100FAB00012FE0FEA3E0FFE4FCFD90011EE0F8A39F
:100FBB00E0F9A3E0FAA3E0FBC3121F154012900166
:100FCB001E121F450000000090012EE0600214F07D
:100FDB0090012EE0600302154B900132E07002A3EA
:100FEB00E0600E900133E024FFF0900132E034FF1B
:100FFB00F0900132E07002A3E0600302154B021582
:10100B004090011DE07018A3E0FCA3E0FDA3E0FEFF
:10101B00A3E02401FFE43EFEE43DFDE43C80299087
:10102B00011EE0FCA3E0FDA3E0FEA3E0FFEC4D4EB0
:10103B004F601C90011EA3A3A3E024FFFFEE34FF1F
:10104B00FEED34FFFDEC34FFFC90011E121F39E462
:10105B007FFFFEFDFC90011EE0F8A3E0F9A3E0FA90
:10106B00A3E0FB121DF8A804A905AA06AB07900183
:10107B0028E0FFE4FCFDFE121DF8C006C00790013E
:10108B002FE0FEA3E0FBAA06E4F9F8D007D0061286
:10109B001E83900123121F39900131E0FFE4FCFD08
:1010AB00FE900123E0F8A3E0F9A3E0FAA3E0FB1222
:1010BB001DF8E47B64FAF9F8121E83900123121FCA
:1010CB0039900123A3A3E0FEA3E0FF9000A5EEF06F
:1010DB00A3EFF0E47FFFFEFDFC90011EE0F8A3E020
:1010EB00F9A3E0FAA3E0FB121DF8A804A905AA06D0
:1010FB00AB07900129E0FFE4FCFDFE121DF8C006D2
:10110B00C00790012FE0FEA3E0FBAA06E4F9F8D09C
:10111B0007D006121E83900123121F39900131E074
:10112B00FFE4FCFDFE900123E0F8A3E0F9A3E0FA55
:10113B00A3E0FB121DF8E47B64FAF9F8121E83900E
:10114B000123121F39900123A3A3E0FEA3E0FF901C
:10115B0000A7EEF0A3EFF0E47FFFFEFDFC90011E75
:10116B00E0F8A3E0F9A3E0FAA3E0FB121DF8A80452
:10117B00A905AA06AB0790012AE0FFE4FCFDFE12CD
:10118B001DF8C006C00790012FE0FEA3E0FBAA06E6
:10119B00E4F9F8D007D006121E83900123121F39F1
:1011AB00900131E0FFE4FCFDFE900123E0F8A3E0A9
:1011BB00F9A3E0FAA3E0FB121DF8E47B64FAF9F85B
:1011CB00121E83900123121F39900123A3A3E0FE6B
:1011DB00A3E0FF9000A9EEF0FAA3EFF0FB9000A5BF
:1011EB00E0FEA3E0FFA3E0FCA3E0FD12236590016A
:1011FB002FE0FEA3E0FFE4FCFD90011EE0F8A3E06E
:10120B00F9A3E0FAA3E0FBC3121F155014E4FFFE91
:10121B00FDFC90011EE0F8A3A3A3E0C3121F157001
:10122B001790011DE0700404F0800DE490011DF097
:10123B0090012EE0600214F090012EE06003021585
:10124B004B900132E07002A3E0600E900133E0247A
:10125B00FFF0900132E034FFF0900132E07002A316
:09126B00E0600302154B0215407E
:101274009001A7121F45000000FFE4FFFEFDFC9053
:10128400011EE0F8A3E0F9A3E0FAA3E0FBC3121FF8
:1012940015600302139A900128E0FFE4FCFDFE9020
:1012A40001A7E0F8A3E0F9A3E0FAA3E0FB121DF81C
:1012B400A804A905AA06AB07900131E0FFE4FCFDF0
:1012C400FE121DF8E47B64FAF9F8121E83900123E0
:1012D400121F39900123A3A3E0FEA3E0FF9000A511
:1012E400EEF0A3EFF0900129E0FFE4FCFDFE900195
:1012F400A7E0F8A3E0F9A3E0FAA3E0FB121DF8A825
:1013040004A905AA06AB07900131E0FFE4FCFDFE49
:10131400121DF8E47B64FAF9F8121E83900123127B
:101324001F39900123A3A3E0FEA3E0FF9000A7EEE2
:10133400F0A3EFF090012AE0FFE4FCFDFE9001A78A
:10134400E0F8A3E0F9A3E0FAA3E0FB121DF8A80477
:10135400A905AA06AB07900131E0FFE4FCFDFE12EB
:101364001DF8E47B64FAF9F8121E83900123121F1E
:1013740039900123A3A3E0FEA3E0FF9000A9EEF0BF
:10138400FAA3EFF0FB9000A5E0FEA3E0FFA3E0FCCE
:10139400A3E0FD12236590012FE0FEA3E0FFE4FC2F
:1013A400FD90011EE0F8A3E0F9A3E0FAA3E0FBC37B
:1013B400121F1560030214BC90012BE0FFE4FCFD36
:1013C400FE9001A7E0F8A3E0F9A3E0FAA3E0FB1282
:1013D4001DF8A804A905AA06AB07900131E0FFE4B3
:1013E400FCFDFE121DF8E47B64FAF9F8121E8390EA
:1013F4000123121F39900123A3A3E0FEA3E0FF9071
:1014040000A5EEF0A3EFF090012CE0FFE4FCFDFE5C
:101414009001A7E0F8A3E0F9A3E0FAA3E0FB121D12
:10142400F8A804A905AA06AB07900131E0FFE4FC83
:10143400FDFE121DF8E47B64FAF9F8121E83900194
:1014440023121F39900123A3A3E0FEA3E0FF900021
:10145400A7EEF0A3EFF090012DE0FFE4FCFDFE9079
:1014640001A7E0F8A3E0F9A3E0FAA3E0FB121DF85A
:10147400A804A905AA06AB07900131E0FFE4FCFD2E
:10148400FE121DF8E47B64FAF9F8121E839001231E
:10149400121F39900123A3A3E0FEA3E0FF9000A94B
:1014A400EEF0FAA3EFF0FB9000A5E0FEA3E0FFA3AB
:1014B400E0FCA3E0FD12236590011EE0FCA3E0FD27
:1014C400A3E0FEA3E02401FFE43EFEE43DFDE43C92
:1014D400FC90011E121F39900132E0FEA3E0FF9040
:1014E4000130E02FFF90012FE03EFEE4FCFD90016F
:1014F4001EE0F8A3E0F9A3E0FAA3E0FBC3121F1572
:10150400401290011E121F450000000090012EE0C1
:10151400600214F090012EE0702D900132E0700210
:10152400A3E0600E900133E024FFF0900132E03438
:10153400FFF0900132E07002A3E0700B900127E00D
:07154400C4540FFF12378CA5
:01154B00227D
:013973002231
:0E2F85009001AFEBF0A3EAF0A3E9F0A3EDF0AA
:102F9300E4A3F0AF05EFC39414E49001B3F0900100
:102FA300B3E0FDC39472503B9001B2E075F072A49C
:102FB3002400FFE5F0343CFE7C00EF2DFFEC3EFEE9
:102FC30012392C9001AFE0FBA3E0FAA3E0F99001E2
:102FD300B3E0F582758300EF121D0D9001B3E00499
:032FE300F080BBC0
:012FE60022C8
:0A38FB00E42FFFEE343CFE0233F030
:0A390500E42FFFEE343CFE022EB466
:10385100E42FFFEE343CFE9001F4E09001FAF00217
:02386100296ECE
:013974002230
:01397500222F
:103863001238181239231232BD1236FA12371AD20D
:02387300AF2282
:042C4C004100A200A1
:10371A00E49000A2F0FE7FA2FD7B017A00790012FC
:0D372A001FA27F007E4B7D007C00022DD190
:030023000233A9FC
:1033A900C0E0C083C082C0D075D000C00730982764
:1033B900C2989000A0E0FF04F074002FF582E43475
:1033C90000F583E599F09000A0E0C394A04002E4E1
:1033D900F09000A2E004F0309902C299D007D0D051
:0733E900D082D083D0E03256
:082C50004101ED004101EE001D
:1036FA001237545389F0438901538EF79001ED74C0
:10370A00FAF0A374C4F0758CFAF58AD2A9D28C2285
:10375400E49001E4F09001E6F09001EAF0A3F09027
:0C37640001E5F09001E7F09001ECF0228C
:03000B00022C6163
:102C6100C0E0C0F0C083C082C0D075D000C000C039
:102C7100069001EDE0F58CA3E0F58A9001E3740183
:102C8100F0A3E004F0C3940A4005E4F0A304F0903B
:102C910001E6E004F0C394644005E4F0A304F0907D
:102CA10001E8E004F0C394F4748094814005E4F0F9
:102CB100A304F09001EAE475F001121DCCFEC3E516
:102CC100F094E8EE9403400A9001EAE4F0A3F0A343
:102CD10004F0D006D000D0D0D082D083D0F0D0E0A4
:012CE10032C0
:1036B3000A6D679C46F6375D4521EFAC5A50010B06
:1036C300DF020A6D679C46F6375D4521EFAC5A5021
:0436D300E10BDF0226
:082C58004501FBCCCCCCCCCC37
:1038180053B3FE43B40153B3FD43B40253B1FE4363
:03382800B20122C8
:01397600222E
:10373700E4FEC290EF30E704D2808002C280EF251A
:0C374700E0FFD290000EEEB408E8C29043
:013753002253
:04382B00E4FD7FFC3D
:0F382F00C29100123737AF0512373700D29122FE
:0A3479007B019001BD7405F07F3F58
:0B3483009001BAEBF0A3EAF0A3E9F01F
:10348E00C291E4FD1237379001BDE0FFEDC39F50AE
:10349E001A9001BAE0FBA3E0FAA3E0F98D827583DE
:0D34AE0000121CE0FF1237370D80DCD291B8
:0134BB0022EE
:1036D700E4FEC290EF30E704D2808002C280EF257B
:1036E700E0FFD290000EEEB408E843B10153B2FEFA
:0236F700C2907F
:0136F90022AE
:1037A500E4FFFEC290EF25E0FFD290308003440194
:0837B500FF0EEEB408EDC29016
:0137BD0022E9
:10383E00C291001236D71237A553B1FE43B2010022
:02384E00D29115
:013850002255
:0B34FF009001A8EBF0A3EAF0A3E9F0B5
:10350A00C2911236D7E4FD9001ABE0FFEDC39F50A4
:10351A001A1237A59001A8E0FBA3E0FAA3E0F98DFF
:10352A0082758300EF121D0D0D80DC53B1FE43B28C
:03353A0001D2912A
:01353D00226B
:0E38950012382B7D8E7F2012382F000000226B
:10368D00E4FEFD7FFC12382F7D8F7F2012382FE452
:10369D00FD7FFD12382FE4FEFF000FBF00010EBEAF
:0536AD0013F7BF88F4D3
:0136B20022F5
:0A390F007F0712383EEF5470FF22CC
:06395B007F0912383E2234
:073954007D707F2702382F70
:0C38E300E4FD7FE112382F7FE202382F55
:0E38A300AC0712382BAF04AD077F2502382F7B
:0634BC0012390FEF703C15
:1034C2009001A7F0A3F09001BDEDF07FA01234832C
:1034D200E4FD7FFD12382FE49001A7F0A3F00090E5
:1034E20001A8E004F070069001A7E004F09001A7A3
:0C34F200E07004A3E064C870E512382B01
:0134FE0022AB
:10361600AC0512390FEF30E61D12382B9001ABECDA
:10362600F07F611234FF1238E3123954E4FD7FFD56
:0936360012382F7F01227F0022CF
:10249C0078A77C017D017BFF7A3679B37E007F05BE
:1024AC00121CA178AC7C017D017BFF7A3679B87E59
:1024BC00007F03121CA178AF7C017D017BFF7A3673
:1024CC0079BB7E007F06121CA178B57C017D017B57
:1024DC00FF7A3679C17E007F01121CA178B67C018F
:1024EC007D017BFF7A3679C27E007F03121CA1121C
:1024FC0039767D5A7F5312382F7DA57F5312382F92
:10250C007D207F3D12382F12382B7FE112382F7F20
:10251C00E212382F7D707F2712382F7D017F221217
:10252C00382F7D037F2312382F7D4E7F2512382FB5
:10253C007D107F3112382F7B017A0179FB9001BD20
:10254C007405F07F301234837B017A0179FB9001A2
:10255C00BD7405F07F2A1234837A0179A71234797D
:10256C007B017A0179AF9001BD7406F07F3A123489
:10257C00837B017A0179B59001BD7401F07F39122A
:10258C0034837B017A0179AC9001BD7403F07F3EFA
:10259C001234837B017A0179B69001BD7403F07F0C
:1025AC003B123483E4FD7F3C12382F7D3F7F261293
:0E25BC00382FE4FD7F2412382F7F2102382FA4
:0527D6009001BEEFF0D0
:1027DB00E478BF7C017D017BFF7A3679C5FE7F05EE
:1027EB00121CA178C47C017D017BFF7A3679CA7EED
:1027FB00007F03121CA178C77C017D017BFF7A3619
:10280B0079CD7E007F06121CA178CD7C017D017BEA
:10281B00FF7A3679D37E007F01121CA178CE7C0122
:10282B007D017BFF7A3679D47E007F03121CA17D5C
:10283B005A7F5312382F7DA57F5312382F7D207F5F
:10284B003D12382F12382BE4FF000000000FEFB4BD
:10285B00DCF79001BEE0FD7F2512382F7D3F7F26F0
:10286B0012382F7A0179BF1234797B017A0179C73B
:10287B009001BD7406F07F3A1234837B017A0179A3
:10288B00CD9001BD7401F07F391234837B017A0145
:10289B0079C49001BD7403F07F3E1234837B017ABF
:0E28AB000179CE9001BD7403F07F3B023483AF
:1032BD0053B1F743B20853B1EF43B21053B3FB43CD
:1032CD00B40443DE01A2AF9209C2AF75C7AA75C798
:1032DD005543910143C60875C7AA75C7555391FE4D
:1032ED00A20992AF43DE2053DF3F43DF0153DFF9E5
:1032FD0075D1FF75D9FFD2DFE4FBFAFDFCFFFE02AD
:02330D00236536
:1035B100AD07AC06A2AF9209C2AF75C7AA75C755D0
:1035C100439101A20992AFECF5C5EDF5CDA2AF9201
:1035D10009C2AF75C7AA75C7555391FEA20992AF2B
:0335E100D2DE2215
:0D38B100AD07AC06ECF5D5EDF5DDD2DE225D
:0D38BE00AD07AC06ECF5D2EDF5DAD2DE2256
:102365009001AFEEF0A3EFF0A3ECF0A3EDF0A3EA3C
:04237500F0A3EBF0F6
:10237900A3121F45000000009001AFE0FEA3E0FF9B
:10238900E4FCFD9001B5121F399001B5E0F8A3E016
:10239900F9A3E0FAA3E0FB9000A3E0FFE4FCFDFE53
:1023A900121DF89001B5121F399001B5E0FCA3E0A8
:1023B900FDA3E0FEA3E0FFE47B64FAF9F8121E83B3
:1023C9009001B5121F399001B5E0FCA3E0FDA3E02F
:1023D900FEA3E0FF1235B19001B1E0FEA3E0FFE4F6
:1023E900FCFD9001B5121F399001B5E0F8A3E0F9A1
:1023F900A3E0FAA3E0FB9000A3E0FFE4FCFDFE12DA
:102409001DF89001B5121F399001B5E0FCA3E0FD5C
:10241900A3E0FEA3E0FFE47B64FAF9F8121E8390BF
:1024290001B5121F399001B5E0FCA3E0FDA3E0FE60
:10243900A3E0FF1238B19001B3E0FEA3E0FFE4FC92
:10244900FDA3121F399001B5E0F8A3E0F9A3E0FA62
:10245900A3E0FB9000A3E0FFE4FCFDFE121DF89051
:1024690001B5121F399001B5E0FCA3E0FDA3E0FE20
:10247900A3E0FFE47B64FAF9F8121E839001B51218
:102489001F399001B5E0FCA3E0FDA3E0FEA3E0FF46
:032499000238BE48
:103770009000A3EFF09000A5E0FEA3E0FFA3E0FC23
:0C378000A3E0FDA3E0FAA3E0FB02236538
:0939230053B3EF43B41002396AFA
:03396700D29422D5
:03396A00C29422E2
:03396D00B29422EF
:06396100A294E433FF22F2
:0A391900EF600302396712396A22D9
:01397700222D
:102EB400EFF5A6EEF5A7A2AF9209C2AF75C7AA7542
:102EC400C755439F01A20992AFA2AF9209C2AF7541
:102ED400C7AA75C75543A501A20992AF75AF21AF23
:102EE400058FAEA2AF9209C2AF75C7AA75C7554385
:102EF400A401A20992AFA2AF9209C2AF75C7AA7585
:102F0400C75553A5FEA20992AFA2AF9209C2AF75ED
:0D2F1400C7AA75C755539FFEA20992AF22B0
:1033F0008FA6EEF5A775AEFFA2AF9209C2AF75C753
:10340000AA75C755439F01A20992AFA2AF9209C204
:10341000AF75C7AA75C75543A501A20992AF75AF8D
:1034200022A2AF9209C2AF75C7AA75C75543A401BE
:05343000A20992AF2289
:10296E009001F5EEF0A3EFF0A3EBF0A3EAF0A3E9EC
:01297E00F068
:10297F009001F5E0FEA3E0F5A6EEF5A7A2AF920950
:10298F00C2AF75C7AA75C755439F01A20992AFA2DF
:10299F00AF9209C2AF75C7AA75C75543A501A20962
:1029AF0092AF75AF21E4FEFF9001FAE0FDC3EF9DFA
:1029BF00EE9400502E9001F7E0FBA3E0FAA3E0F9AC
:1029CF008F828E83121CE0F5AEA2AF9209C2AF7553
:1029DF00C7AA75C75543A401A20992AF0FBF000143
:1029EF000E80C5A2AF9209C2AF75C7AA75C755535E
:1029FF00A5FEA20992AFA2AF9209C2AF75C7AA7581
:092A0F00C755539FFEA20992AFC6
:012A1800229B
:04392C008F828E8375
:03393000E493FF1E
:013933002271
:10353E0053B1BF53B2BF53B17F53B27F759850434F
:10354E008920438780438E1053C4DFAB07AA06A998
:10355E0005A8047F407E427D0F7C00121E83EF047F
:0B356E00F404F58DD28ED299D2AC226D
:102DD1009001A7121F3953B1BF53B2BF53B17F53F3
:102DE100B27F75985043878053C4F843C420900143
:102DF100A7E0F8A3E0F9A3E0FAA3E0FB7F407E425D
:102E01007D0F7C00121E83C374FF9FFF74FF9EFE23
:102E1100E49DFDE49CFC7808121F268FC69001A753
:102E2100E0F8A3E0F9A3E0FAA3E0FB7F407E427D56
:102E31000F7C00121E83C374FF9FFF8FC543C4081C
:052E4100D299D2AC2281
:073934003098FDAF99C29825
:01393B002269
:08393C00C2998F993099FD2218
:102E4600900200121F3953B1FB53B2FB53B3BF5369
:102E5600B4BF75F85075C40853C4DF900200E0F89B
:102E6600A3E0F9A3E0FAA3E0FB7F407E427D0F7C5E
:102E760000121E83C374FF9FFF74FF9EFEE49DFD38
:102E8600E49CFC7808121F268FC6900200E0F8A387
:102E9600E0F9A3E0FAA3E0FB7F407E427D0F7C00D1
:0E2EA600121E83C374FF9FFF8FC543C4082212
:0739440030F8FDAF9AC2F854
:01394B002259
:08394C00C2F98F9A30F9FD2247
:1031B200900204121F39538EF7438901D28CE4FF27
:1031C200FEFDFC900204E0F8A3E0F9A3E0FAA3E01C
:1031D200FBC3121F15602F758A7E758CFF308DFD23
:1031E200C28D900204E0FCA3E0FDA3E0FEA3E02474
:1031F200FFFFEE34FFFEED34FFFDEC34FFFC9002E6
:0932020004121F3980B8C28C22AD
:10320B00900208121F39538EF7438901D28CE4FFC9
:10321B00FEFDFC900208E0F8A3E0F9A3E0FAA3E0BE
:10322B00FBC3121F15602F758ACA758CFA308DFD82
:10323B00C28D900208E0FCA3E0FDA3E0FEA3E02416
:10324B00FFFFEE34FFFEED34FFFDEC34FFFC90028C
:09325B0008121F3980B8C28C2250
:1032640090020C121F39538EEF438910D28EE4FF63
:10327400FEFDFC90020CE0F8A3E0F9A3E0FAA3E061
:10328400FBC3121F15602F758BEA758DCB308FFD34
:10329400C28F90020CE0FCA3E0FDA3E0FEA3E024B7
:1032A400FFFFEE34FFFEED34FFFDEC34FFFC900233
:0932B4000C121F3980B8C28E22F1
:10304600900210121F3953C9BF53C9DF43C910D2AA
:10305600CAE4FFFEFDFC900210E0F8A3E0F9A3E04D
:10306600FAA3E0FBC3121F15602F75CC3075CDF89F
:1030760030CFFDC2CF900210E0FCA3E0FDA3E0FE3E
:10308600A3E024FFFFEE34FFFEED34FFFDEC34FF3A
:0C309600FC900210121F3980B8C2CA2240
:1030A200900214121F3975C40743C408E4FFFEFDE1
:1030B200FC900214E0F8A3E0F9A3E0FAA3E0FBC35A
:1030C200121F15603275C52C75C6CFE5C430E4FBFE
:1030D20053C4EF900214E0FCA3E0FDA3E0FEA3E0E2
:1030E20024FFFFEE34FFFEED34FFFDEC34FFFC90D5
:0B30F2000214121F3980B553C4F722EE
:1030FD00900218121F3975C40743C408E4FFFEFD82
:10310D00FC900218E0F8A3E0F9A3E0FAA3E0FBC3FA
:10311D00121F15603275C5D875C6FFE5C430E4FBC6
:10312D0053C4EF900218E0FCA3E0FDA3E0FEA3E082
:10313D0024FFFFEE34FFFEED34FFFDEC34FFFC9079
:0B314D000218121F3980B553C4F7228E
:1025CA000A3D3D3D3D3D3D3D3D3D3D3D3D3D3D3D64
:1025DA003D3D3D3D3D3D3D3D3D3D3D3D3D3D3D3D21
:1025EA003D3D3D3D3D3D3D3D3D3D3D3D3D3D3D3D11
:1025FA003D3D3D3D3D3D3D3D3D3D3D3D3D3D3D3D01
:10260A003D3D3D3D3D000A2A2020436F70797269A5
:10261A006768742863292032303135204E75766F09
:10262A00746F6E20546563686E6F6C6F67792043B0
:10263A006F72702E20416C6C207269676874732007
:10264A0072657365727665642E2020000A2A20203E
:10265A00436F6E7461637420452D4D61696C3A2035
:10266A004D6963726F432D38626974406E75766F77
:10267A00746F6E2E636F6D20202020202020202072
:10268A002020202020202020202020202020202040
:10269A0020000A2A202044656D6F205665727369EE
:1026AA006F6E20203A202532642E2532642E253280
:1026BA0064000A2A202046696E69736865642044AA
:1026CA00617465203A202532642E2532642E253223
:0226DA0064009A
:102FE7007BFF7A2579CA12206B7BFF7A267910122C
:102FF700206B7BFF7A26795612206B7BFF7A267926
:103007009C90016BE4F0A304F0E4A3F0A3F0A3F019
:10301700A3F012206B7BFF7A2679BC90016B7407B3
:10302700F0A374DFF0A3E4F0A37405F0A3E4F0A326
:0F303700741FF012206B7BFF7A2579CA02206B81
:03000000022ABD14
:102ABD00787FE4F6D8FD9000007FFF7E03E4F0A35D
:0A2ACD00DFFCDEFA758121022B12F6
:102AD700022A19E493A3F8E493A34003F68001F2D2
:102AE70008DFF48029E493A3F85407240CC8C33300
:102AF700C4540F4420C8834004F456800146F6DFCF
:102B0700E4800B0102040810204080902BE0E47E53
:102B1700019360BCA3FF543F30E509541FFEE493C3
:102B2700A360010ECF54C025E060A840B8E493A38A
:102B3700FAE493A3F8E493A3C8C582C8CAC583CAB5
:102B4700F0A3C8C582C8CAC583CADFE9DEE780BE6D
:012C60000073
:101BD100E709F608DFFA8046E709F208DFFA803EF6
:101BE10088828C83E709F0A3DFFA8032E309F608E3
:101BF100DFFA8078E309F208DFFA807088828C834B
:101C0100E309F0A3DFFA806489828A83E0A3F608FE
:101C1100DFFA805889828A83E0A3F208DFFA804CD8
:101C210080D280FA80C680D4806980F280338010AF
:101C310080A680EA809A80A880DA80E280CA803318
:101C410089828A83ECFAE493A3C8C582C8CCC58390
:101C5100CCF0A3C8C582C8CCC583CCDFE9DEE78060
:101C61000D89828A83E493A3F608DFF9ECFAA9F0DF
:101C7100EDFB2289828A83ECFAE0A3C8C582C8CC35
:101C8100C583CCF0A3C8C582C8CCC583CCDFEADE4E
:101C9100E880DB89828A83E493A3F208DFF980CCB0
:101CA10088F0EF60010E4E60C388F0ED2402B404A9
:101CB1000050B9F582EB2402B4040050AF23234550
:061CC1008223901C217338
:101CC700BB010689828A83E0225002E722BBFE021B
:091CD700E32289828A83E493224E
:101CE000BB010CE58229F582E5833AF583E02250B9
:101CF00006E92582F8E622BBFE06E92582F8E22203
:0D1D0000E58229F582E5833AF583E493221C
:101D0D00F8BB010DE58229F582E5833AF583E8F00C
:101D1D00225006E92582C8F622BBFE05E92582C8B8
:021D2D00F222A0
:101D2F00EF8DF0A4A8F0CF8CF0A428CE8DF0A42EC8
:021D3F00FE2282
:101D4100BC000BBE0029EF8DF084FFADF022E4CC86
:101D5100F875F008EF2FFFEE33FEEC33FCEE9DEC4F
:101D6100984005FCEE9DFE0FD5F0E9E4CEFD22ED95
:101D7100F8F5F0EE8420D21CFEADF075F008EF2FDF
:101D8100FFED33FD4007985006D5F0F222C398FDD0
:051D91000FD5F0EA226D
:101D9600C2D5EC30E709B2D5E4C39DFDE49CFCEE68
:101DA60030E715B2D5E4C39FFFE49EFE121D41C382
:101DB600E49DFDE49CFC8003121D4130D507C3E47D
:061DC6009FFFE49EFE22D7
:101DCC00C5F0F8A3E028F0C5F0F8E58215827002A2
:061DDC001583E038F0223F
:101DE200A3F8E0C5F025F0F0E582158270021583B4
:061DF200E0C838F0E82211
:101DF800E88FF0A4CC8BF0A42CFCE98EF0A42CFC8A
:101E08008AF0EDA42CFCEA8EF0A4CDA8F08BF0A407
:101E18002DCC3825F0FDE98FF0A42CCD35F0FCEB66
:101E28008EF0A4FEA9F0EB8FF0A4CFC5F02ECD392B
:0F1E3800FEE43CFCEAA42DCE35F0FDE43CFC2298
:101E470075F008758200EF2FFFEE33FECD33CDCC52
:101E570033CCC58233C5829BED9AEC99E5829840D5
:101E67000CF582EE9BFEED9AFDEC99FC0FD5F0D6B2
:101E7700E4CEFBE4CDFAE4CCF9A88222B800C1B9DC
:101E87000059BA002DEC8BF084CFCECDFCE5F0CB1A
:101E9700F97818EF2FFFEE33FEED33FDEC33FCEB53
:101EA70033FB10D703994004EB99FB0FD8E5E4F90E
:101EB700FA227818EF2FFFEE33FEED33FDEC33FCFB
:101EC700C933C910D7059BE99A4007EC9BFCE99AEF
:101ED700F90FD8E0E4C9FAE4CCFB2275F010EF2F34
:101EE700FFEE33FEED33FDCC33CCC833C810D70734
:101EF7009BEC9AE899400AED9BFDEC9AFCE899F86F
:0E1F07000FD5F0DAE4CDFBE4CCFAE4C8F92201
:101F1500EB9FF5F0EA9E42F0E99D42F0E89C45F022
:011F25002299
:101F2600E8600FECC313FCED13FDEE13FEEF13FF99
:031F3600D8F122BD
:0C1F3900ECF0A3EDF0A3EEF0A3EFF0221B
:101F4500A8828583F0D083D082121F5C121F5C1299
:101F55001F5C121F5CE473E493A3C583C5F0C583BE
:101F6500C8C582C8F0A3C583C5F0C583C8C582C8E6
:011F75002249
:101F7600D083D082F8E4937012740193700DA3A3FA
:101F860093F8740193F5828883E47374029368600E
:061F9600EFA3A3A380DF0E
:061F9C008A838982E473D0
:10200000E508246BF582E43401F583E005082290AD
:10201000016830070390016BE475F001121FE002C4
:102020001CC72000E97F2ED2008018EF540F2490A7
:10203000D43440D4FF30040BEF24BFB41A00500353
:102040002461FFE50960021509050CE50C70020525
:102050000B30070E900168E475F001121FE0EF02EB
:102060001FCE0236667403D2078003E4C207F50868
:10207000900168121FF7E4F509F50BF50CE509600E
:10208000077F2012204380F5750AFFC201C200C2FB
:1020900002C203C205C206C20812200FFF700D3033
:1020A00007057F00122054AF0CAE0B22B4255FC28F
:1020B000D5C20412200FFF24D0B40A00501A75F0C4
:1020C0000A780930D50508B6FF0106C6A426F62011
:1020D000D5047002D20380D924CFB41A00EF500483
:1020E000C2E5D204022255D20180C6D20080C0D2FD
:1020F0000280BCD2D580BAD20580B47F20122043A2
:102100002002077401B5090040F1122000FF1220DF
:102110004302207DD208D2068095122000FB1220B7
:1021200000FA122000F94A4B700679267A237BFFC9
:1021300020022EE509602A7E008E82758300121C23
:10214000E060060EEE650A70F0C2D5EBC0E0EAC0B2
:10215000E0E9C0E0EE12229CD0E0F9D0E0FAD0E055
:10216000FB121CC7FF60AAEBC0E0EAC0E0E9C0E0D8
:10217000122043D0E02401F9D0E03400FAD0E0FB93
:10218000E50A0460DCD50AD980877BFF7A2279983A
:10219000D202809C791080027908C206C2088008A9
:1021A000D2D5790A8004790AC2D5E50A047002F50D
:1021B0000AE4FAFDFEFF122000FC7B082001131246
:1021C0002000FD7B1030000A122000FE122000FFCC
:1021D0007B20EC3382D592D55013C3E43000069FA8
:1021E000FFE49EFEE42001039DFDE49CFCE4CBF8AB
:1021F000C201EC700CCFCECDCCE824F8F870F3809F
:1022000017C3EF33FFEE33FEED33FDEC33FCEB335E
:10221000FB994002FB0FD8E9EB300105F8D0E0C490
:1022200048B201C0E00AEC4D4E4F78207B0070C2EE
:10223000EAB50A0040BCC0E012229ED0F0D0E020F7
:102240000104C4C0E0C4B201C0F012202CD0F0D50B
:10225000F0EB02207D121F76211A5321945820EBB7
:102260004C20E74221984F21A04421A0492100435E
:0822700021A655218A46218AAE
:1022780045218A4723465020EF2D20F32E21162B87
:1022880020F723211420232F2A20AF480000210EF5
:102298003F3F3F00790AA2D5200314300509B91041
:1022A800020404B9080104A2D52006025001042042
:1022B80002689202B509005034C0E07F203003194B
:1022C8007F30A20272067205500F1222F5C202C2B6
:1022D80006C205C2087F30800F300503E9C0E0124E
:1022E8002043300503D0E0F9D0E0B509CC3005171C
:1022F8007F30B9100C1220437F583004077F788054
:1023080003B908031220433002057F2D0220437FC2
:10231800202008F87F2B2006F322920280CF286E17
:10232800756C6C2900D2011220003001F8C20178C6
:102338000930D50108F60220AF2D50434958122024
:10234800002403B405004001E49023419312203493
:0D235800743A122034D20375090402219456
:0C38EF00EE30E707C3E49FFFE49EFE22DA
:101FA200EF4E6012EF60010EEDBB010B89828A8356
:101FB200F0A3DFFCDEFA2289F05007F709DFFCA963
:0C1FC200F022BBFEFCF309DFFCA9F022BA
:101FCE00BB010689828A83F0225002F722BBFE01F2
:021FDE00F322EC
:101FE000F8E0FBA3A3E0F925F0F0E582158270028A
:071FF0001583E0FA38F0222E
:091FF700EBF0A3EAF0A3E9F022EB
:10366600EFB40A07740D123671740A309811A899CE
:10367600B8130CC2983098FDA899C298B811F630C4
:0736860099FDC299F599229C
:00000001FF
