:042A2E004102200041
:102867001236AD1237BD1234891200221236081201
:1028770031AC9001E3E06060E4F0900220E004F006
:102887009000A4E0FFC394324027EF24CEFFE43446
:10289700FFFE7C007D05121B8FEF240AFFE43EFE3E
:1028A700900220E0D39FEE6480F8748098402980DE
:1028B700229000A4E0FFC374329FFFE49400FE7CE3
:1028C700007D0A121B8FC3740A9FFF900220E0D37A
:1028D7009F4005E4F0120AC49001E5E06002E4F0CD
:1028E7009001E7E06008E4F012002612315D9001E4
:1028F700E9E06002E4F09001ECE07003022879E47B
:04290700F002287939
:0100220022BB
:0137BA0022EC
:0137BB0022EB
:0137BC0022EA
:0C3715009001DDEBF0A3EAF0A3E9F02244
:0C3721009001E0EBF0A3EAF0A3E9F02235
:1036BF009001DDA3E0FAA3E0F94A6003121DEA22AC
:1036CF009001E0A3E0FAA3E0F94A6003121DEA2299
:10342E00EF4E602D9001D3EEF0A3EFF0AF05A3ECBD
:10343E00F0A3EFF0AF03A3EAF0A3EFF0E4A3F0A341
:10344E00F0A3F0A3F09001D2F09001D104F0123667
:02345E00BF228B
:10000E00E49001D1F01236CF7B007A0079001237DE
:04001E00150237216F
:102707009001D1E070030227BB9001D5E0FEA3E062
:10271700FF4E70030227BB9001D2E07035D3EF94D0
:1027270000EE940050030227BB9001D9E475F00135
:10273700121C1AFED39001D4E095F09001D3E09ECD
:1027470050721236CFE49001D9F0A3F09001D20471
:10275700F0229001D2E06401705A9001D975F0011E
:10276700121C1AFED39001D6E095F09001D5E09E99
:1027770050429001D7E0FEA3E0FF9400EE940040A2
:10278700259001DBE475F001121C1AFCD3EF95F0DC
:10279700EE9C5005E49001D1F09001D1E0700790D4
:1027A70001D5F0A3F022E49001D9F0A3F09001D273
:0527B700F01236BF2204
:102A320041014F0050015000000000000000000062
:102A42000000000000000050013F000000000000F4
:102A520000000000000000000000480160000000CB
:052A620000000000006F
:10348900E490014FF0FE7F10FD7B017A0179501223
:103499001DF07E007F107D007B017A01793F121DAE
:0734A900F01222EA0234D701
:0A2B300004F07B017A01793FE0FD1B
:0E2B3A009001AEEBF0A3EAF0A3E9F0A3EDF0FA
:102B4800E4FF000FEFB40AFA1236DF90014F740168
:102B5800F0E4FF000FEFB40AFA9001AEE0FBA3E047
:102B6800FAA3E0F9740190013F6B7008E96582707F
:102B780003EA6583602A7E007F107D007B017A016D
:102B8800793F121DF09001B1E0FF7E00783F7C0193
:102B98007D019001AEE0FBA3E0FAA3E0F9121AEF81
:012BA800220A
:0B1475009001A7EBF0A3EAF0A3E9F060
:10148000E4A3F0A3F0A3F0A3F0121B1564F2600331
:10149000021A1E9001A7E0FBA3E0FAA3E0F9900076
:1014A00001121B2ED394104003021A1EE49001ABCC
:1014B000F09001A7E0FBA3E0FAA3E0F9900001128D
:1014C0001B2E2401FFE433FE9001ABE0FDC39FEE31
:1014D0006480F8748098501DED2401FFE433FE8F82
:1014E000828E83121B2EFF9001ADE02FF09001AB96
:1014F000E004F080BC9001A7E0FBA3E0FAA3E0F9D0
:10150000900001121B2EF582758300A3A3121B2EDF
:10151000FF9001ADE06F6003021A1E7E007F107D18
:10152000007B017A01793F121DF0E49001ACF0904C
:1015300001A7E0FBA3E0FAA3E0F9900002121B2E42
:10154000244770030218EB24B8B409004003021AC0
:101550001590155F75F003A4C58325F0C58373024C
:10156000157A02176D02182C0219D80219E7021910
:10157000F6021A15021A0502166490021DE0FF20F9
:10158000E00302165430E10854FDF0120003800A13
:1015900090021DE04402F012364E9001ACE0FF04D0
:1015A000F0743F2FF582E43401F58374F8F0900174
:1015B000ACE0FF04F0743F2FF582E43401F583744E
:1015C0000AF09001ACE0FF04F0743F2FF582E434A0
:1015D00001F5837401F090021CE0C313A3E01354DF
:1015E00001FF9001ACE0FE04F0743F2EF582E4347C
:1015F00001F583EFF09001ACE0243FF9E43401FA07
:101600007B017D081233C39001ACE02408F0E49024
:1016100001ABF0900140E02401FFE433FE9001AB08
:10162000E0FDC39FEE6480F8748098502474402DD0
:10163000F582E43401F583E0FF9001ACE0243FF54E
:1016400082E43401F583E02FF09001ABE004F080F8
:10165000C20219CF7B007A007900E49001B2F07FDA
:1016600001021A129001A7E0FBA3E0FAA3E0F990AF
:101670000003121B2EB401051237B180309001A770
:10168000E0FBA3E0FAA3E0F9900003121B2EB402E2
:10169000051237B480179001A7E0FBA3E0FAA3E09E
:1016A000F9900003121B2EB403031237B79001AC5C
:1016B000E0FF04F0743F2FF582E43401F58374F801
:1016C000F09001ACE0FF04F0743F2FF582E43401A8
:1016D000F5837402F09001A7E0FBA3E0FAA3E0F920
:1016E000900002121B2EFF9001ACE0FE04F0743F4C
:1016F0002EF582E43401F583EFF01237ABEF900161
:10170000AC6013E0FF04F0743F2FF582E43401F580
:10171000837401F08011E0FF04F0743F2FF582E440
:101720003401F5837402F0E49001ABF0900140E0E5
:101730002401FFE433FE9001ABE0FDC39FEE648023
:10174000F87480984003021A1574402DF582E43431
:1017500001F583E0FF9001ACE0243FF582E4340121
:10176000F583E02FF09001ABE004F080BF90021D04
:10177000E0FF20E00302181C30E103021A151236C4
:10178000209001ACE0FF04F0743F2FF582E43401B7
:10179000F58374F8F09001ACE0FF04F0743F2FF58E
:1017A00082E43401F5837409F09001ACE0FF04F0A9
:1017B000743F2FF582E43401F5837402F09001AC9C
:1017C000E0243FF9E43401FA7B017D081233C39031
:1017D00001ACE02408F0E49001ABF0900140E0247B
:1017E00001FFE433FE9001ABE0FDC39FEE6480F89F
:1017F000748098502474402DF582E43401F583E020
:10180000FF9001ACE0243FF582E43401F583E02F42
:10181000F09001ABE004F080C20219CF7B007A00A7
:101820007900E49001B2F07F02021A1290021DE0EA
:10183000FF20E0030218DB30E103021A15123638EC
:101840009001ACE0FF04F0743F2FF582E43401F521
:101850008374F8F09001ACE0FF04F0743F2FF58240
:10186000E43401F5837409F09001ACE0FF04F074F6
:101870003F2FF582E43401F5837403F09001ACE06E
:10188000243FF9E43401FA7B017D081233C390014F
:10189000ACE02408F0E49001ABF0900140E02401BA
:1018A000FFE433FE9001ABE0FDC39FEE6480F8746B
:1018B0008098502474402DF582E43401F583E0FFD4
:1018C0009001ACE0243FF582E43401F583E02FF091
:1018D0009001ABE004F080C20219CF7B007A00795E
:1018E00000E49001B2F07F03021A1290021DE03072
:1018F000E00554FEF0800790021DE04401F09001E5
:10190000ACE0FF04F0743F2FF582E43401F58374FA
:10191000F8F09001ACE0FF04F0743F2FF582E4345E
:1019200001F583740BF09001ACE0FF04F0743F2FDD
:10193000F582E43401F58374B9F090021CE0FEA353
:10194000E0FF5401FD9001ACE0FC04F0743F2CF585
:1019500082E43401F583EDF0EEC313EF135401FF7D
:101960009001ACE0FE04F0743F2EF582E43401F502
:1019700083EFF09001ACE0243FF9E43401FA7B01FD
:101980007D081233C39001ACE02408F0E49001AB71
:10199000F0900140E02401FFE433FE9001ABE0FD54
:1019A000C39FEE6480F8748098502474402DF582B3
:1019B000E43401F583E0FF9001ACE0243FF582E4DC
:1019C0003401F583E02FF09001ABE004F080C29089
:1019D00001ACE0122B30803D7B007A007900E4906E
:1019E00001B2F07F04802B7B007A007900E4900143
:1019F000B2F07F05801C7B007A007900E49001B290
:101A0000F07F06800D7B007A007900E49001B2F04F
:0E1A10007F0812252A9001ACE06003122B30F3
:011A1E0022A5
:10315D0090014FE06031123759EF24F0601824D000
:10316D0060122420701612372D12379EE490014FF5
:10317D00F00234D7800012372D02379E7B017A0181
:10318D00793F7D100233067B017A0179507D101253
:0F319D003460EF60097B017A01795012147522BA
:102A6700410190004101910041019500410196000B
:102A770042019200004101940050019700000000BC
:0C2A870000000000000000000000000043
:10360800E4900190F0A3F0900195F0FE7FA2FD7B7D
:08361800017A007900021DF0A7
:10252A009001AFEBF0A3EAF0A3E9F0E4900190F098
:10253A00E0FE04F074972EF582E43401F5837455B5
:10254A00F0900190E0FE04F074972EF582E43401D5
:10255A00F58374AAF09001B2E004FE900190E0FDC8
:10256A0004F074972DF582E43401F583EEF09001BE
:10257A0090E0FE04F074972EF582E43401F583EFBF
:10258A00F0E4900195F09001B2E0FF900195E0FE31
:10259A00C39F502F9001AFE0FBA3E0FAA3E0F98EAE
:1025AA0082758300121B2EFE900190E0FD04F074E8
:1025BA00972DF582E43401F583EEF0900195E0045D
:1025CA00F080C37B017A017997EF2404FD122D6F05
:1025DA00900190E0FE04F074972EF582E43401F540
:1025EA0083EFF0E4900195F09001B2E02405FFE456
:1025FA0033FE900195E0FDC39FEE6480F8748098E5
:10260A00501774972DF582E43401F583E0FF1237F1
:0A261A0086900195E004F080CF22C5
:100026009000A2E07003020AC314F09000A0E0243E
:10003600A0FFE433FEA3E0FBFDC3EF9DFFEE9400BB
:10004600FE7C007DA0121B8FEDC3940440D2740089
:100056002BF582E43400F583E064556003020AAFB1
:100066009000A1E07A002401FFEA33FE7C007DA027
:10007600121BE474002DF58274003CF583E064AA3B
:100086006003020AAFEB2402FFEA33FE7C007DA088
:10009600121BE474002DF58274003CF583E0900198
:1000A60091F09000A0E024A0FFE433CFC39BCF9A49
:1000B600FE7C007DA0121BE4900191E02404FFE485
:1000C60033FEC3ED9FEE6480F8EC64809850030223
:1000D6000AB59000A1E0FF2400F9E43400FA7B01A0
:1000E600900191E02403FD9001AFEFF0A374A0F01E
:1000F6001229A5AB07900191E0FF9000A1E02FFF28
:10010600E433CF2403CF3400FE7C007DA0121BE431
:1001160074002DF58274003CF583E06B6003020ADF
:10012600AFE4900190F0FE7F10FD7B017A01793FEC
:10013600121DF09000A1E0FB7A002403FFEA33FED3
:100146007C007DA0121BE474002DF58274003CF542
:1001560083E0121DC4018612037D3104573308D58E
:1001660034054135061B3607053702A33807EF412C
:1001760009CD620A31630A57640A796500000A9953
:10018600E49001A7F0A3F0EB240CFFE43AFE7C0018
:100196007DA0121BE474002DF58274003CF583E00B
:1001A600FF7E009001A7EEF0A3EFF0C39413EE9448
:1001B600004003020A999001A7E07002A3E07028AC
:1001C6009001947418F0E4A3F0900194E0FFA3E08A
:1001D600FEC39F5013EE75F080A4FFAEF0123745B4
:1001E600900195E004F080E19000A1E0240DFFE489
:1001F60033FE7C007DA0121BE474002DF582740092
:100206003CF583E0540FFF900192E4F0A3EFF0E495
:10021600900195F0900192E0FEA3E0FF7C007D0D39
:10022600121B7DEF240AFFE43EFE900195E0FBC31E
:050236009FEC9E504BFF
:10023B009001A7E0FEA3E0FF7D72121B7DEBFD2F6B
:10024B00FFEC3EFEA3F0A3EFF0C006C0079000A1A9
:10025B00E02404FFE433CF2DCF3CFE7DA0121BE442
:10026B0074002DF58274003CF583E0FDD007D006B9
:03027B0012374FE8
:10027E00900195E004F080949001A7A3E090019482
:10028E00F07B017A0179949001B27401F07F121221
:02029E00252A0F
:1002A000020A99900190E0FF04F0743F2FF582E478
:1002B0003401F58374F8F0900191E0FF900190E033
:1002C000FE04F0743F2EF582E43401F583EFF090E4
:1002D0000190E0FF04F0743F2FF582E43401F583D0
:1002E0007438F0E4900195F0900191E014FF9001D2
:1002F00095E0FEC39F50409000A1E02404FDE4334C
:10030000FCEE7E002DFFEE3CFE7C007DA0121BE487
:1003100074002DF58274003CF583E0FF900190E0BD
:10032000FE04F0743F2EF582E43401F583EFF09083
:100330000195E004F080B1E4900195F0900140E077
:100340002401FFE433FE900195E0FDC39FEE64803D
:10035000F8748098502474402DF582E43401F583BC
:10036000E0FF900190E0243FF582E43401F583E062
:100370002FF0900195E004F080C20208C690019031
:10038000E0FF04F0743F2FF582E43401F58374F844
:10039000F0900191E0FF900190E0FE04F0743F2E98
:1003A000F582E43401F583EFF0900190E0FF04F072
:1003B000743F2FF582E43401F5837431F0E4900149
:1003C00095F0900191E014FF900195E0FEC39F50DD
:1003D000409000A1E02404FDE433FCEE7E002DFFFC
:1003E000EE3CFE7C007DA0121BE474002DF58274AF
:1003F000003CF583E0FF900190E0FE04F0743F2E96
:10040000F582E43401F583EFF0900195E004F0808B
:10041000B1E4900195F0900140E02401FFE433FE47
:10042000900195E0FDC39FEE6480F874809850249D
:1004300074402DF582E43401F583E0FF900190E0F3
:10044000243FF582E43401F583E02FF0900195E03C
:1004500004F080C20208C6900190E0FF04F0743FEF
:100460002FF582E43401F58374F8F0900191E0FFF8
:10047000900190E0FE04F0743F2EF582E43401F523
:1004800083EFF0900190E0FF04F0743F2FF582E4D9
:100490003401F5837433F0E4900195F0900191E01C
:1004A00014FF900195E0FEC39F50409000A1E0240E
:1004B00004FDE433FCEE7E002DFFEE3CFE7C007D6F
:1004C000A0121BE474002DF58274003CF583E0FF5C
:1004D000900190E0FE04F0743F2EF582E43401F5C3
:1004E00083EFF0900195E004F080B1E4900195F085
:1004F000900140E02401FFE433FE900195E0FDC34C
:100500009FEE6480F8748098502474402DF582E446
:100510003401F583E0FF900190E0243FF582E4345C
:1005200001F583E02FF0900195E004F080C2900186
:1005300090E004F090021DE030E003020A99020905
:10054000BC900190E0FF04F0743F2FF582E4340189
:10055000F58374F8F0900191E0FF900190E0FE04C3
:10056000F0743F2EF582E43401F583EFF0900190B2
:10057000E0FF04F0743F2FF582E43401F583743515
:10058000F0E4900195F0900191E014FF900195E066
:10059000FEC39F50409000A1E02404FDE433FCEE34
:1005A0007E002DFFEE3CFE7C007DA0121BE474005B
:1005B0002DF58274003CF583E0FF900190E0FE048D
:1005C000F0743F2EF582E43401F583EFF09001954D
:1005D000E004F080B1E4900195F0900140E0240146
:1005E000FFE433FE900195E0FDC39FEE6480F87454
:1005F0008098502474402DF582E43401F583E0FFA7
:10060000900190E0243FF582E43401F583E02FF07F
:10061000900195E004F080C20208C6900190E0FFCE
:1006200004F0743F2FF582E43401F58374F8F09000
:100630000191E0FF900190E0FE04F0743F2EF582FE
:10064000E43401F583EFF0900190E0FF04F0743F93
:100650002FF582E43401F5837436F0E4900195F0CF
:10066000900191E014FF900195E0FEC39F504090EF
:1006700000A1E02404FDE433FCEE7E002DFFEE3CFF
:10068000FE7C007DA0121BE474002DF58274003CFA
:10069000F583E0FF900190E0FE04F0743F2EF582B8
:1006A000E43401F583EFF0900195E004F080B1E4CB
:1006B000900195F0900140E02401FFE433FE9001A9
:1006C00095E0FDC39FEE6480F874809850247440D8
:1006D0002DF582E43401F583E0FF900190E0243FA2
:1006E000F582E43401F583E02FF0900195E004F009
:1006F00080C2900190E004F090021DE030E003021F
:100700000A990209BC900190E0FF04F0743F2FF5B4
:1007100082E43401F58374F8F0900191E0FF9001D8
:1007200090E0FE04F0743F2EF582E43401F583EF8F
:10073000F0900190E0FF04F0743F2FF582E4340163
:10074000F5837437F0E4900195F0900191E014FF87
:10075000900195E0FEC39F50409000A1E02404FD6D
:10076000E433FCEE7E002DFFEE3CFE7C007DA0120B
:100770001BE474002DF58274003CF583E0FF9001CA
:1007800090E0FE04F0743F2EF582E43401F583EF2F
:10079000F0900195E004F080B1E4900195F09001B3
:1007A00040E02401FFE433FE900195E0FDC39FEE9D
:1007B0006480F8748098502474402DF582E43401EC
:1007C000F583E0FF900190E0243FF582E43401F5E9
:1007D00083E02FF0900195E004F080C2900190E05A
:1007E00004F090021DE030E003020A990209BC9077
:1007F0000190E0FF04F0743F2FF582E43401F583AB
:1008000074F8F0900191E0FF900190E0FE04F07424
:100810003F2EF582E43401F583EFF0900190E0FF84
:1008200004F0743F2FF582E43401F5837441F0E461
:10083000900195F0900191E014FF900195E0FEC3C6
:100840009F50409000A1E02404FDE433FCEE7E00C4
:100850002DFFEE3CFE7C007DA0121BE474002DF504
:100860008274003CF583E0FF900190E0FE04F07498
:100870003F2EF582E43401F583EFF0900195E0041A
:10088000F080B1E4900195F0900140E02401FFE494
:1008900033FE900195E0FDC39FEE6480F87480986C
:1008A000502474402DF582E43401F583E0FF90017B
:1008B00090E0243FF582E43401F583E02FF09001CD
:1008C00095E004F080C2900190E004F07B017A0191
:1008D000793F0209C5900190E0FF04F0743F2FF5C5
:1008E00082E43401F58374F8F0900191E0FF900107
:1008F00090E0FE04F0743F2EF582E43401F583EFBE
:10090000F0900190E0FF04F0743F2FF582E4340191
:10091000F5837434F0E4900195F0900191E014FFB8
:10092000900195E0FEC39F50409000A1E02404FD9B
:10093000E433FCEE7E002DFFEE3CFE7C007DA01239
:100940001BE474002DF58274003CF583E0FF9001F8
:1009500090E0FE04F0743F2EF582E43401F583EF5D
:10096000F0900195E004F080B1E4900195F09001E1
:1009700040E02401FFE433FE900195E0FDC39FEECB
:100980006480F8748098502474402DF582E434011A
:10099000F583E0FF900190E0243FF582E43401F517
:1009A00083E02FF0900195E004F080C2900190E088
:1009B00004F090021DE030E003020A997B017A0105
:1009C000793F900190E0FD122B3A020A999000A124
:1009D000E0FB7A002404FFEA33FE7C007DA0121BBA
:1009E000E474002DF58274003CF583E0FFC007EB52
:1009F0002405FFEA33FE7C007DA0121BE474002D69
:100A0000F58274003CF583E0FDC0059000A1E02470
:100A100006FFE433FE7C007DA0121BE474002DF57C
:100A20008274003CF583E0FBD005D00712327F8052
:100A3000689000A1E02404FFE433FE7C007DA01256
:100A40001BE474002DF58274003CF583E0FF9000F8
:100A5000A3F01235BA80429000A1E02404FFE433F1
:100A6000FE7C007DA0121BE474002DF58274003C16
:100A7000F583E09000A4F080209000A1E02404FF22
:100A8000E433FE7C007DA0121BE474002DF582741B
:100A9000003CF583E0FF122BA9900191E02404FFB4
:100AA0009000A1E02FF0E075F0A084E5F0F0229036
:100AB00000A1E004F09000A1E075F0A084E5F0F062
:040AC00002002622E8
:102D6F009001B3EBF0A3EAF0A3E9F0AE05E4900213
:102D7F001EF0AF061EEF604690021EE0FF9001B3FB
:102D8F00E0FBA3E475F001121C30A9F0FA121B1539
:102D9F006F90021EF0E4A3F090021FE0C39408505E
:102DAF00D190021EE030E007C313648CF0800790CF
:102DBF00021EE0C313F090021FE004F080DA9002CD
:042DCF001EE0FF22E1
:1029A5009001ABEBF0A3EAF0A3E9F0AE05E49002E9
:1029B5001EF0AF061EEF606B90021EE0FF9001ABAC
:1029C500E0FBA3E475F001121C30A9F0FA121B1507
:1029D5006F90021EF09001AFE004F0A3E0FF9001BC
:1029E500AFE0C39F4012E4F0EFFDE49DFDE49400E9
:1029F5009001AC8DF0121C1AE490021FF090021F9A
:102A0500E0C3940850AC90021EE030E007C31364A5
:102A15008CF0800790021EE0C313F090021FE004C3
:092A2500F080DA90021EE0FF22AD
:072A930044012300000000D4
:1031AC007E007F067D007B017A01791D121DF07E69
:1031BC00007F017D007B017A017934121DF07E00C5
:1031CC007F727D007B017A0079AB121DF07E007F4F
:1031DC00087D007B017A0079A3121DF09000A37486
:0731EC0064F0E4FF022BA9CF
:10362000900134E0600414F080069001347413F0CB
:08363000900134E0FF022BA918
:10363800900134E004F0E0C394144002E4F09001F7
:0636480034E0FF022BA993
:1033C3009001AEEBF0A3EAF0A3E9F0EDD39408404B
:1033D3000A9001AEE4F0A3F0A3F022AF057E0090C3
:1033E30001AEE0FBA3E0FAA3E0F8AC02AD037B017E
:0833F3007A0079AB121AEF22F7
:08000300900134E0FF022BA97B
:10364E00E490012EF0900132F0A3F0FBFAFDFCFFA6
:04365E00FE0221B394
:102FA6009001ABEFF02401FFE433FE9000B4E0544F
:102FB6000FB50714E4B506109001ABF0E075F00DFF
:102FC600A424B5F97400800D9001ABE075F00DA452
:102FD60024C2F9740035F0FA7B0178277C017D0163
:102FE6007E007F0D121AEF78357C017D017B017A18
:0A2FF6000079AB7E007F0A021AEF9B
:102BA9009001AEEFF0FBE490011DF0A3121D93001C
:102BB9000000009001227432F0EBC3941340089096
:102BC90001347413F080089001AEE0900134F07B79
:102BD900017A0079AB9001AEE0FD122DD39000B3DC
:102BE900E0700D7B017A0079ABFD122DD312364EC0
:102BF90078277C017D017B017A0079B57E007F0D04
:102C0900121AEF78357C017D017B017A0079AB7E60
:062C1900007F0A021AEF21
:1035D600AB07E490011DF0A3121D9300000000E468
:0935E600900122F0AF03022FA6B0
:10327F009001ABEFF0A3EDF0A3EBF012364E9001FF
:10328F00ABE09000A5F0A3E4F09001ACE09000A7B4
:10329F00F0A3E4F09001ADE07F009000A9F0FAA355
:1032AF00EFF0FB9000A5E0FEA3E0FFA3E0FCA3E09E
:0432BF00FD0221B338
:100AC400900122E0600314F02290012EE0700D905A
:100AD4000132E07002A3E07003021474900127E075
:100AE400540F24FC7003020F3514700302119D246B
:100AF40002600302147490011EE0FCA3E0FDA3E075
:100B0400FEA3E02401FFE43EFEE43DFDE43CFC9052
:100B1400011E121D8790012BE0FF900128E0FEC307
:100B24009F5071EEFDC3EF9DFFE49400FE12373930
:100B3400EE3395E0FDFCC004C005C006C007E4FF29
:100B44007E01FDFC90011EE0F8A3E0F9A3E0FAA306
:100B5400E0FB121C46D003D002D001D000121C4688
:100B6400C006C00790012FE0FEA3E0FBAA06E4F94B
:100B7400F8D007D006121CD1A804A905AA06AB0711
:100B8400900128E0FEE4FCFD2BFFEA3EFEED39FD7A
:100B9400EC388074900128E0FF90012BE0C39FFFA4
:100BA400E49400FE123739EE3395E0FDFCC004C036
:100BB40005C006C007E4FF7E01FDFC90011EE0F8BD
:100BC400A3E0F9A3E0FAA3E0FB121C46D003D00291
:100BD400D001D000121C46C006C00790012FE0FED1
:100BE400A3E0FBAA06E4F9F8D007D006121CD1A8AA
:100BF40004A905AA06AB07900128E0FEE4C39BFF05
:100C0400EE9AFEE499FDE498FC900123121D87906E
:100C14000131E0FFE4FCFDFE900123E0F8A3E0F9DC
:100C2400A3E0FAA3E0FB121C46E47B64FAF9F81291
:100C34001CD1900123121D87900123E0FCA3E0FD49
:100C4400A3E0FEA3E0FF9000A5EEF0A3EFF0900177
:100C54002CE0FF900129E0FEC39F5071EEFDC3EF2D
:100C64009DFFE49400FE123739EE3395E0FDFCC09D
:100C740004C005C006C007E4FF7E01FDFC90011E10
:100C8400E0F8A3E0F9A3E0FAA3E0FB121C46D003CA
:100C9400D002D001D000121C46C006C00790012F1C
:100CA400E0FEA3E0FBAA06E4F9F8D007D006121C84
:100CB400D1A804A905AA06AB07900129E0FEE4FC2B
:100CC400FD2BFFEA3EFEED39FDEC388074900129DE
:100CD400E0FF90012CE0C39FFFE49400FE1237393B
:100CE400EE3395E0FDFCC004C005C006C007E4FF78
:100CF4007E01FDFC90011EE0F8A3E0F9A3E0FAA355
:100D0400E0FB121C46D003D002D001D000121C46D6
:100D1400C006C00790012FE0FEA3E0FBAA06E4F999
:100D2400F8D007D006121CD1A804A905AA06AB075F
:100D3400900129E0FEE4C39BFFEE9AFEE499FDE4F2
:100D440098FC900123121D87900131E0FFE4FCFD23
:100D5400FE900123E0F8A3E0F9A3E0FAA3E0FB127C
:100D64001C46E47B64FAF9F8121CD1900123121D8D
:100D740087900123E0FCA3E0FDA3E0FEA3E0FF9045
:100D840000A7EEF0A3EFF090012DE0FF90012AE020
:100D9400FEC39F5071EEFDC3EF9DFFE49400FE126D
:100DA4003739EE3395E0FDFCC004C005C006C0072A
:100DB400E4FF7E01FDFC90011EE0F8A3E0F9A3E04E
:100DC400FAA3E0FB121C46D003D002D001D00012DB
:100DD4001C46C006C00790012FE0FEA3E0FBAA0654
:100DE400E4F9F8D007D006121CD1A804A905AA0674
:100DF400AB0790012AE0FEE4FCFD2BFFEA3EFEED8A
:100E040039FDEC38807490012AE0FF90012DE0C395
:100E14009FFFE49400FE123739EE3395E0FDFCC0E9
:100E240004C005C006C007E4FF7E01FDFC90011E5E
:100E3400E0F8A3E0F9A3E0FAA3E0FB121C46D00318
:100E4400D002D001D000121C46C006C00790012F6A
:100E5400E0FEA3E0FBAA06E4F9F8D007D006121CD2
:100E6400D1A804A905AA06AB0790012AE0FEE4C3B1
:100E74009BFFEE9AFEE499FDE498FC900123121D79
:100E840087900131E0FFE4FCFDFE900123E0F8A32C
:100E9400E0F9A3E0FAA3E0FB121C46E47B64FAF950
:100EA400F8121CD1900123121D87900123A3A3E003
:100EB400FEA3E0FF9000A9EEF0FAA3EFF0FB900090
:100EC400A5E0FEA3E0FFA3E0FCA3E0FD1221B390A4
:100ED400012FE0FEA3E0FFE4FCFD90011EE0F8A377
:100EE400E0F9A3E0FAA3E0FBC3121D6340129001F2
:100EF4001E121D930000000090012EE0600214F009
:100F040090012EE06003021474900132E07002A399
:100F1400E0600E900133E024FFF0900132E034FFF2
:100F2400F0900132E07002A3E06003021474021432
:100F34006990011DE07018A3E0FCA3E0FDA3E0FEAE
:100F4400A3E02401FFE43EFEE43DFDE43C8029905F
:100F5400011EE0FCA3E0FDA3E0FEA3E0FFEC4D4E88
:100F64004F601C90011EA3A3A3E024FFFFEE34FFF7
:100F7400FEED34FFFDEC34FFFC90011E121D87E4EE
:100F84007FFFFEFDFC90011EE0F8A3E0F9A3E0FA68
:100F9400A3E0FB121C46A804A905AA06AB0790010E
:100FA40028E0FFE4FCFDFE121C46C006C0079001C9
:100FB4002FE0FEA3E0FBAA06E4F9F8D007D006125E
:100FC4001CD1900123121D87900131E0FFE4FCFD48
:100FD400FE900123E0F8A3E0F9A3E0FAA3E0FB12FA
:100FE4001C46E47B64FAF9F8121CD1900123121D0B
:100FF40087900123A3A3E0FEA3E0FF9000A5EEF0F9
:10100400A3EFF0E47FFFFEFDFC90011EE0F8A3E0F7
:10101400F9A3E0FAA3E0FB121C46A804A905AA065A
:10102400AB07900129E0FFE4FCFDFE121C46C0065C
:10103400C00790012FE0FEA3E0FBAA06E4F9F8D074
:1010440007D006121CD1900123121D87900131E0B4
:10105400FFE4FCFDFE900123E0F8A3E0F9A3E0FA2D
:10106400A3E0FB121C46E47B64FAF9F8121CD1904D
:101074000123121D87900123A3A3E0FEA3E0FF90A8
:1010840000A7EEF0A3EFF0E47FFFFEFDFC90011E4D
:10109400E0F8A3E0F9A3E0FAA3E0FB121C46A804DD
:1010A400A905AA06AB0790012AE0FFE4FCFDFE12A5
:1010B4001C46C006C00790012FE0FEA3E0FBAA0671
:1010C400E4F9F8D007D006121CD1900123121D8731
:1010D400900131E0FFE4FCFDFE900123E0F8A3E081
:1010E400F9A3E0FAA3E0FB121C46E47B64FAF9F8E6
:1010F400121CD1900123121D87900123A3A3E0FEAB
:10110400A3E0FF9000A9EEF0FAA3EFF0FB9000A596
:10111400E0FEA3E0FFA3E0FCA3E0FD1221B39001F5
:101124002FE0FEA3E0FFE4FCFD90011EE0F8A3E045
:10113400F9A3E0FAA3E0FBC3121D635014E4FFFE1D
:10114400FDFC90011EE0F8A3A3A3E0C3121D63708D
:101154001790011DE0700404F0800DE490011DF06F
:1011640090012EE0600214F090012EE0600302145E
:1011740074900132E07002A3E0600E900133E02429
:10118400FFF0900132E034FFF0900132E07002A3EE
:09119400E0600302147402146906
:10119D009001A7121D93000000FFE4FFFEFDFC90DF
:1011AD00011EE0F8A3E0F9A3E0FAA3E0FBC3121DD2
:1011BD006360030212C3900128E0FFE4FCFDFE9082
:1011CD0001A7E0F8A3E0F9A3E0FAA3E0FB121C46A7
:1011DD00A804A905AA06AB07900131E0FFE4FCFDC8
:1011ED00FE121C46E47B64FAF9F8121CD19001231F
:1011FD00121D87900123A3A3E0FEA3E0FF9000A59D
:10120D00EEF0A3EFF0900129E0FFE4FCFDFE90016C
:10121D00A7E0F8A3E0F9A3E0FAA3E0FB121C46A8AF
:10122D0004A905AA06AB07900131E0FFE4FCFDFE21
:10123D00121C46E47B64FAF9F8121CD190012312BA
:10124D001D87900123A3A3E0FEA3E0FF9000A7EE6E
:10125D00F0A3EFF090012AE0FFE4FCFDFE9001A762
:10126D00E0F8A3E0F9A3E0FAA3E0FB121C46A80402
:10127D00A905AA06AB07900131E0FFE4FCFDFE12C3
:10128D001C46E47B64FAF9F8121CD1900123121D5F
:10129D0087900123A3A3E0FEA3E0FF9000A9EEF049
:1012AD00FAA3EFF0FB9000A5E0FEA3E0FFA3E0FCA6
:1012BD00A3E0FD1221B390012FE0FEA3E0FFE4FCBB
:1012CD00FD90011EE0F8A3E0F9A3E0FAA3E0FBC353
:1012DD00121D6360030213E590012BE0FFE4FCFD9A
:1012ED00FE9001A7E0F8A3E0F9A3E0FAA3E0FB125A
:1012FD001C46A804A905AA06AB07900131E0FFE43E
:10130D00FCFDFE121C46E47B64FAF9F8121CD19028
:10131D000123121D87900123A3A3E0FEA3E0FF90FC
:10132D0000A5EEF0A3EFF090012CE0FFE4FCFDFE34
:10133D009001A7E0F8A3E0F9A3E0FAA3E0FB121CEB
:10134D0046A804A905AA06AB07900131E0FFE4FC0D
:10135D00FDFE121C46E47B64FAF9F8121CD19001D3
:10136D0023121D87900123A3A3E0FEA3E0FF9000AD
:10137D00A7EEF0A3EFF090012DE0FFE4FCFDFE9051
:10138D0001A7E0F8A3E0F9A3E0FAA3E0FB121C46E5
:10139D00A804A905AA06AB07900131E0FFE4FCFD06
:1013AD00FE121C46E47B64FAF9F8121CD19001235D
:1013BD00121D87900123A3A3E0FEA3E0FF9000A9D7
:1013CD00EEF0FAA3EFF0FB9000A5E0FEA3E0FFA383
:1013DD00E0FCA3E0FD1221B390011EE0FCA3E0FDB3
:1013ED00A3E0FEA3E02401FFE43EFEE43DFDE43C6A
:1013FD00FC90011E121D87900132E0FEA3E0FF90CC
:10140D000130E02FFF90012FE03EFEE4FCFD900146
:10141D001EE0F8A3E0F9A3E0FAA3E0FBC3121D63FD
:10142D00401290011E121D930000000090012EE04D
:10143D00600214F090012EE0702D900132E07002E8
:10144D00A3E0600E900133E024FFF0900132E03410
:10145D00FFF0900132E07002A3E0700B900127E0E5
:07146D00C4540FFF1235D635
:011474002255
:0137BD0022E9
:0E2DD3009001AFEBF0A3EAF0A3E9F0A3EDF05E
:102DE100E4A3F0AF05EFC39414E49001B3F09001B4
:102DF100B3E0FDC39472503B9001B2E075F072A450
:102E01002400FFE5F0343CFE7C00EF2DFFEC3EFE9C
:102E11001237769001AFE0FBA3E0FAA3E0F990014D
:102E2100B3E0F582758300EF121B5B9001B3E00400
:032E3100F080BB73
:012E3400227B
:0A374500E42FFFEE343CFE02323A9E
:0A374F00E42FFFEE343CFE022D02D1
:10369B00E42FFFEE343CFE9001F4E09001FAF002CF
:0236AB0027BC3A
:0137BE0022E8
:0137BF0022E7
:1036AD0012366212376D12310B123544123564D257
:0236BD00AF223A
:042A9A004100A20055
:10356400E49000A2F0FE7FA2FD7B017A00790012B4
:0D3574001DF07F007E4B7D007C00022C1FAF
:030023000231F3B4
:1031F300C0E0C083C082C0D075D000C0073098271C
:10320300C2989000A0E0FF04F074002FF582E4342C
:1032130000F583E599F09000A0E0C394A04002E498
:10322300F09000A2E004F0309902C299D007D0D008
:07323300D082D083D0E0320D
:082A9E004101ED004101EE00D1
:1035440012359E5389F0438901538EF79001ED742F
:10355400FAF0A374C4F0758CFAF58AD2A9D28C223D
:10359E00E49001E4F09001E6F09001EAF0A3F090DF
:0C35AE0001E5F09001E7F09001ECF02244
:03000B00022AAF17
:102AAF00C0E0C0F0C083C082C0D075D000C000C0ED
:102ABF00069001EDE0F58CA3E0F58A9001E3740137
:102ACF00F0A3E004F0C3940A4005E4F0A304F090EF
:102ADF0001E6E004F0C394644005E4F0A304F09031
:102AEF0001E8E004F0C394F4748094814005E4F0AD
:102AFF00A304F09001EAE475F001121C1AFEC3E57D
:102B0F00F094E8EE9403400A9001EAE4F0A3F0A3F6
:102B1F0004F0D006D000D0D0D082D083D0F0D0E057
:012B2F003273
:1034FD000A6D679C46F6375D4521EFAC5A50010BBE
:10350D00DF020A6D679C46F6375D4521EFAC5A50D8
:04351D00E10BDF02DD
:082AA6004501FBCCCCCCCCCCEB
:1036620053B3FE43B40153B3FD43B40253B1FE431B
:03367200B2012280
:0137C00022E6
:10358100E4FEC290EF30E704D2808002C280EF25D2
:0C359100E0FFD290000EEEB408E8C290FB
:01359D00220B
:04367500E4FD7FFCF5
:0F367900C29100123581AF0512358100D2912226
:0A32C3007B019001BD7405F07F3F10
:0B32CD009001BAEBF0A3EAF0A3E9F0D7
:1032D800C291E4FD1235819001BDE0FFEDC39F501E
:1032E8001A9001BAE0FBA3E0FAA3E0F98D82758396
:0D32F80000121B2EFF1235810D80DCD291DB
:0133050022A5
:10352100E4FEC290EF30E704D2808002C280EF2532
:10353100E0FFD290000EEEB408E843B10153B2FEB1
:02354100C29036
:013543002265
:1035EF00E4FFFEC290EF25E0FFD29030800344014C
:0835FF00FF0EEEB408EDC290CE
:0136070022A0
:10368800C291001235211235EF53B1FE43B2010049
:02369800D291CD
:01369A00220D
:0B3349009001A8EBF0A3EAF0A3E9F06C
:10335400C291123521E4FD9001ABE0FFEDC39F5013
:103364001A1235EF9001A8E0FBA3E0FAA3E0F98D6F
:1033740082758300EF121B5B0D80DC53B1FE43B2F8
:0333840001D291E2
:013387002223
:0E36DF001236757D8E7F201236790000002293
:1034D700E4FEFD7FFC1236797D8F7F20123679E47A
:1034E700FD7FFD123679E4FEFF000FBF00010EBE1F
:0534F70013F7BF88F48B
:0134FC0022AD
:0A3759007F07123688EF5470FF223C
:0637A5007F0912368822A4
:07379E007D707F27023679E0
:0C372D00E4FD7FE11236797FE20236797C
:0E36ED00AC07123675AF04AD077F25023679A3
:06330600123759EF703C84
:10330C009001A7F0A3F09001BDEDF07FA01232CD9B
:10331C00E4FD7FFD123679E49001A7F0A3F0009054
:10332C0001A8E004F070069001A7E004F09001A75A
:0C333C00E07004A3E064C870E512367570
:013348002262
:10346000AC05123759EF30E61D1236759001ABEC02
:10347000F07F6112334912372D12379EE4FD7FFD34
:093480001236797F01227F00223F
:1022EA0078A77C017D017BFF7A3479FD7E007F052A
:1022FA00121AEF78AC7C017D017BFF7A3579027E78
:10230A00007F03121AEF78AF7C017D017BFF7A35DB
:10231A0079057E007F06121AEF78B57C017D017B74
:10232A00FF7A35790B7E007F01121AEF78B67C01AD
:10233A007D017BFF7A35790C7E007F03121AEF123A
:10234A0037C07D5A7F531236797DA57F531236796D
:10235A007D207F3D1236791236757FE11236797FFC
:10236A00E21236797D707F271236797D017F22123B
:10237A0036797D037F231236797D4E7F2512367991
:10238A007D107F311236797B017A0179FB9001BD8C
:10239A007405F07F301232CD7B017A0179FB90010E
:1023AA00BD7405F07F2A1232CD7A0179A71232C3A1
:1023BA007B017A0179AF9001BD7406F07F3A12323F
:1023CA00CD7B017A0179B59001BD7401F07F391294
:1023DA0032CD7B017A0179AC9001BD7403F07F3E66
:1023EA001232CD7B017A0179B69001BD7403F07F78
:1023FA003B1232CDE4FD7F3C1236797D3F7F2612B7
:0E240A003679E4FD7F241236797F210236797F
:052624009001BEEFF083
:10262900E478BF7C017D017BFF7A35790FFE7F0558
:10263900121AEF78C47C017D017BFF7A3579147E0B
:10264900007F03121AEF78C77C017D017BFF7A3581
:1026590079177E007F06121AEF78CD7C017D017B08
:10266900FF7A35791D7E007F01121AEF78CE7C0141
:102679007D017BFF7A35791E7E007F03121AEF7D7B
:102689005A7F531236797DA57F531236797D207F83
:102699003D123679123675E4FF000000000FEFB4E1
:1026A900DCF79001BEE0FD7F251236797D3F7F265C
:1026B9001236797A0179BF1232C37B017A0179C75F
:1026C9009001BD7406F07F3A1232CD7B017A01790F
:1026D900CD9001BD7401F07F391232CD7B017A01B1
:1026E90079C49001BD7403F07F3E1232CD7B017A2B
:0E26F9000179CE9001BD7403F07F3B0232CD1B
:10310B0053B1F743B20853B1EF43B21053B3FB4380
:10311B00B40443DE01A2AF9209C2AF75C7AA75C74B
:10312B005543910143C60875C7AA75C7555391FE00
:10313B00A20992AF43DE2053DF3F43DF0153DFF998
:10314B0075D1FF75D9FFD2DFE4FBFAFDFCFFFE0260
:02315B0021B39E
:1033FB00AD07AC06A2AF9209C2AF75C7AA75C75588
:10340B00439101A20992AFECF5C5EDF5CDA2AF92B8
:10341B0009C2AF75C7AA75C7555391FEA20992AFE2
:03342B00D2DE22CC
:0D36FB00AD07AC06ECF5D5EDF5DDD2DE2215
:0D370800AD07AC06ECF5D2EDF5DAD2DE220D
:1021B3009001AFEEF0A3EFF0A3ECF0A3EDF0A3EAF0
:0421C300F0A3EBF0AA
:1021C700A3121D93000000009001AFE0FEA3E0FF03
:1021D700E4FCFD9001B5121D879001B5E0F8A3E07E
:1021E700F9A3E0FAA3E0FB9000A3E0FFE4FCFDFE07
:1021F700121C469001B5121D879001B5E0FCA3E0C3
:10220700FDA3E0FEA3E0FFE47B64FAF9F8121CD11A
:102217009001B5121D879001B5E0FCA3E0FDA3E096
:10222700FEA3E0FF1233FB9001B1E0FEA3E0FFE461
:10223700FCFD9001B5121D879001B5E0F8A3E0F908
:10224700A3E0FAA3E0FB9000A3E0FFE4FCFDFE128D
:102257001C469001B5121D879001B5E0FCA3E0FD77
:10226700A3E0FEA3E0FFE47B64FAF9F8121CD19027
:1022770001B5121D879001B5E0FCA3E0FDA3E0FEC8
:10228700A3E0FF1236FB9001B3E0FEA3E0FFE4FCFE
:10229700FDA3121D879001B5E0F8A3E0F9A3E0FACA
:1022A700A3E0FB9000A3E0FFE4FCFDFE121C4690B8
:1022B70001B5121D879001B5E0FCA3E0FDA3E0FE88
:1022C700A3E0FFE47B64FAF9F8121CD19001B51280
:1022D7001D879001B5E0FCA3E0FDA3E0FEA3E0FFAE
:0322E700023708B3
:1035BA009000A3EFF09000A5E0FEA3E0FFA3E0FCDB
:0C35CA00A3E0FDA3E0FAA3E0FB0221B3A4
:09376D0053B3EF43B4100237B46A
:0337B100D294228D
:0337B400C294229A
:0337B700B29422A7
:0637AB00A294E433FF22AA
:0A376300EF60030237B11237B42201
:0137C10022E5
:102D0200EFF5A6EEF5A7A2AF9209C2AF75C7AA75F5
:102D1200C755439F01A20992AFA2AF9209C2AF75F4
:102D2200C7AA75C75543A501A20992AF75AF21AFD6
:102D3200058FAEA2AF9209C2AF75C7AA75C7554338
:102D4200A401A20992AFA2AF9209C2AF75C7AA7538
:102D5200C75553A5FEA20992AFA2AF9209C2AF75A1
:0D2D6200C7AA75C755539FFEA20992AF2264
:10323A008FA6EEF5A775AEFFA2AF9209C2AF75C70A
:10324A00AA75C755439F01A20992AFA2AF9209C2BC
:10325A00AF75C7AA75C75543A501A20992AF75AF45
:10326A0022A2AF9209C2AF75C7AA75C75543A40176
:05327A00A20992AF2241
:1027BC009001F5EEF0A3EFF0A3EBF0A3EAF0A3E9A0
:0127CC00F01C
:1027CD009001F5E0FEA3E0F5A6EEF5A7A2AF920904
:1027DD00C2AF75C7AA75C755439F01A20992AFA293
:1027ED00AF9209C2AF75C7AA75C75543A501A20916
:1027FD0092AF75AF21E4FEFF9001FAE0FDC3EF9DAE
:10280D00EE9400502E9001F7E0FBA3E0FAA3E0F95F
:10281D008F828E83121B2EF5AEA2AF9209C2AF75B9
:10282D00C7AA75C75543A401A20992AF0FBF0001F6
:10283D000E80C5A2AF9209C2AF75C7AA75C7555311
:10284D00A5FEA20992AFA2AF9209C2AF75C7AA7534
:09285D00C755539FFEA20992AF7A
:01286600224F
:043776008F828E832D
:03377A00E493FFD6
:01377D002229
:1033880053B1BF53B2BF53B17F53B27F7598504307
:103398008920438780438E1053C4DFAB07AA06A950
:1033A80005A8047F407E427D0F7C00121CD1EF04EB
:0B33B800F404F58DD28ED299D2AC2225
:102C1F009001A7121D8753B1BF53B2BF53B17F535A
:102C2F00B27F75985043878053C4F843C4209001F6
:102C3F00A7E0F8A3E0F9A3E0FAA3E0FB7F407E4210
:102C4F007D0F7C00121CD1C374FF9FFF74FF9EFE8B
:102C5F00E49DFDE49CFC7808121D748FC69001A7BB
:102C6F00E0F8A3E0F9A3E0FAA3E0FB7F407E427D0A
:102C7F000F7C00121CD1C374FF9FFF8FC543C40884
:052C8F00D299D2AC2235
:07377E003098FDAF99C298DD
:013785002221
:08378600C2998F993099FD22D0
:102C9400900200121D8753B1FB53B2FB53B3BF53D1
:102CA400B4BF75F85075C40853C4DF900200E0F84F
:102CB400A3E0F9A3E0FAA3E0FB7F407E427D0F7C12
:102CC40000121CD1C374FF9FFF74FF9EFEE49DFDA0
:102CD400E49CFC7808121D748FC6900200E0F8A3EF
:102CE400E0F9A3E0FAA3E0FB7F407E427D0F7C0085
:0E2CF400121CD1C374FF9FFF8FC543C408227A
:07378E0030F8FDAF9AC2F80C
:013795002211
:08379600C2F98F9A30F9FD22FF
:10300000900204121D87538EF7438901D28CE4FF8E
:10301000FEFDFC900204E0F8A3E0F9A3E0FAA3E0CF
:10302000FBC3121D63602F758A7E758CFF308DFD8A
:10303000C28D900204E0FCA3E0FDA3E0FEA3E02427
:10304000FFFFEE34FFFEED34FFFDEC34FFFC900299
:0930500004121D8780B8C28C2215
:10305900900208121D87538EF7438901D28CE4FF31
:10306900FEFDFC900208E0F8A3E0F9A3E0FAA3E072
:10307900FBC3121D63602F758ACA758CFA308DFDEA
:10308900C28D900208E0FCA3E0FDA3E0FEA3E024CA
:10309900FFFFEE34FFFEED34FFFDEC34FFFC900240
:0930A90008121D8780B8C28C22B8
:1030B20090020C121D87538EEF438910D28EE4FFCB
:1030C200FEFDFC90020CE0F8A3E0F9A3E0FAA3E015
:1030D200FBC3121D63602F758BEA758DCB308FFD9C
:1030E200C28F90020CE0FCA3E0FDA3E0FEA3E0246B
:1030F200FFFFEE34FFFEED34FFFDEC34FFFC9002E7
:093102000C121D8780B8C28E2258
:102E9400900210121D8753C9BF53C9DF43C910D212
:102EA400CAE4FFFEFDFC900210E0F8A3E0F9A3E001
:102EB400FAA3E0FBC3121D63602F75CC3075CDF807
:102EC40030CFFDC2CF900210E0FCA3E0FDA3E0FEF2
:102ED400A3E024FFFFEE34FFFEED34FFFDEC34FFEE
:0C2EE400FC900210121D8780B8C2CA22A8
:102EF000900214121D8775C40743C408E4FFFEFD49
:102F0000FC900214E0F8A3E0F9A3E0FAA3E0FBC30D
:102F1000121D63603275C52C75C6CFE5C430E4FB65
:102F200053C4EF900214E0FCA3E0FDA3E0FEA3E095
:102F300024FFFFEE34FFFEED34FFFDEC34FFFC9088
:0B2F40000214121D8780B553C4F72255
:102F4B00900218121D8775C40743C408E4FFFEFDE9
:102F5B00FC900218E0F8A3E0F9A3E0FAA3E0FBC3AE
:102F6B00121D63603275C5D875C6FFE5C430E4FB2E
:102F7B0053C4EF900218E0FCA3E0FDA3E0FEA3E036
:102F8B0024FFFFEE34FFFEED34FFFDEC34FFFC902D
:0B2F9B000218121D8780B553C4F722F6
:102418000A3D3D3D3D3D3D3D3D3D3D3D3D3D3D3D17
:102428003D3D3D3D3D3D3D3D3D3D3D3D3D3D3D3DD4
:102438003D3D3D3D3D3D3D3D3D3D3D3D3D3D3D3DC4
:102448003D3D3D3D3D3D3D3D3D3D3D3D3D3D3D3DB4
:102458003D3D3D3D3D000A2A2020436F7079726959
:102468006768742863292032303135204E75766FBD
:10247800746F6E20546563686E6F6C6F6779204364
:102488006F72702E20416C6C2072696768747320BB
:1024980072657365727665642E2020000A2A2020F2
:1024A800436F6E7461637420452D4D61696C3A20E9
:1024B8004D6963726F432D38626974406E75766F2B
:1024C800746F6E2E636F6D20202020202020202026
:1024D80020202020202020202020202020202020F4
:1024E80020000A2A202044656D6F205665727369A2
:1024F8006F6E20203A202532642E2532642E253234
:1025080064000A2A202046696E697368656420445D
:10251800617465203A202532642E2532642E2532D6
:0225280064004D
:102E35007BFF7A247918121EB97BFF7A24795E12FA
:102E45001EB97BFF7A2479A4121EB97BFF7A2479F7
:102E5500EA90016BE4F0A304F0E4A3F0A3F0A3F07F
:102E6500A3F0121EB97BFF7A25790A90016B7407CE
:102E7500F0A374DFF0A3E4F0A37405F0A3E4F0A3DA
:0F2E8500741FF0121EB97BFF7A247918021EB950
:0300000002290BC7
:10290B00787FE4F6D8FD9000007FFF7E03E4F0A310
:0A291B00DFFCDEFA7581210229605D
:10292500022867E493A3F8E493A34003F68001F239
:1029350008DFF48029E493A3F85407240CC8C333B3
:10294500C4540F4420C8834004F456800146F6DF82
:10295500E4800B0102040810204080902A2EE47EBA
:10296500019360BCA3FF543F30E509541FFEE49377
:10297500A360010ECF54C025E060A840B8E493A33E
:10298500FAE493A3F8E493A3C8C582C8CAC583CA69
:10299500F0A3C8C582C8CAC583CADFE9DEE780BE21
:012AAE000027
:101A1F00E709F608DFFA8046E709F208DFFA803EA9
:101A2F0088828C83E709F0A3DFFA8032E309F60896
:101A3F00DFFA8078E309F208DFFA807088828C83FE
:101A4F00E309F0A3DFFA806489828A83E0A3F608B2
:101A5F00DFFA805889828A83E0A3F208DFFA804C8C
:101A6F0080D280FA80C680D4806980F28033801063
:101A7F0080A680EA809A80A880DA80E280CA8033CC
:101A8F0089828A83ECFAE493A3C8C582C8CCC58344
:101A9F00CCF0A3C8C582C8CCC583CCDFE9DEE78014
:101AAF000D89828A83E493A3F608DFF9ECFAA9F093
:101ABF00EDFB2289828A83ECFAE0A3C8C582C8CCE9
:101ACF00C583CCF0A3C8C582C8CCC583CCDFEADE02
:101ADF00E880DB89828A83E493A3F208DFF980CC64
:101AEF0088F0EF60010E4E60C388F0ED2402B4045D
:101AFF000050B9F582EB2402B4040050AF23234504
:061B0F008223901A6F739F
:101B1500BB010689828A83E0225002E722BBFE02CE
:091B2500E32289828A83E4932201
:101B2E00BB010CE58229F582E5833AF583E022506C
:101B3E0006E92582F8E622BBFE06E92582F8E222B6
:0D1B4E00E58229F582E5833AF583E49322D0
:101B5B00F8BB010DE58229F582E5833AF583E8F0C0
:101B6B00225006E92582C8F622BBFE05E92582C86C
:021B7B00F22254
:101B7D00EF8DF0A4A8F0CF8CF0A428CE8DF0A42E7C
:021B8D00FE2236
:101B8F00BC000BBE0029EF8DF084FFADF022E4CC3A
:101B9F00F875F008EF2FFFEE33FEEC33FCEE9DEC03
:101BAF00984005FCEE9DFE0FD5F0E9E4CEFD22ED49
:101BBF00F8F5F0EE8420D21CFEADF075F008EF2F93
:101BCF00FFED33FD4007985006D5F0F222C398FD84
:051BDF000FD5F0EA2221
:101BE400C2D5EC30E709B2D5E4C39DFDE49CFCEE1C
:101BF40030E715B2D5E4C39FFFE49EFE121B8FC3EA
:101C0400E49DFDE49CFC8003121B8F30D507C3E4E4
:061C14009FFFE49EFE228A
:101C1A00C5F0F8A3E028F0C5F0F8E5821582700255
:061C2A001583E038F022F2
:101C3000A3F8E0C5F025F0F0E58215827002158367
:061C4000E0C838F0E822C4
:101C4600E88FF0A4CC8BF0A42CFCE98EF0A42CFC3D
:101C56008AF0EDA42CFCEA8EF0A4CDA8F08BF0A4BB
:101C66002DCC3825F0FDE98FF0A42CCD35F0FCEB1A
:101C76008EF0A4FEA9F0EB8FF0A4CFC5F02ECD39DF
:0F1C8600FEE43CFCEAA42DCE35F0FDE43CFC224C
:101C950075F008758200EF2FFFEE33FECD33CDCC06
:101CA50033CCC58233C5829BED9AEC99E582984089
:101CB5000CF582EE9BFEED9AFDEC99FC0FD5F0D666
:101CC500E4CEFBE4CDFAE4CCF9A88222B800C1B990
:101CD5000059BA002DEC8BF084CFCECDFCE5F0CBCE
:101CE500F97818EF2FFFEE33FEED33FDEC33FCEB07
:101CF50033FB10D703994004EB99FB0FD8E5E4F9C2
:101D0500FA227818EF2FFFEE33FEED33FDEC33FCAE
:101D1500C933C910D7059BE99A4007EC9BFCE99AA2
:101D2500F90FD8E0E4C9FAE4CCFB2275F010EF2FE7
:101D3500FFEE33FEED33FDCC33CCC833C810D707E7
:101D45009BEC9AE899400AED9BFDEC9AFCE899F822
:0E1D55000FD5F0DAE4CDFBE4CCFAE4C8F922B5
:101D6300EB9FF5F0EA9E42F0E99D42F0E89C45F0D6
:011D7300224D
:101D7400E8600FECC313FCED13FDEE13FEEF13FF4D
:031D8400D8F12271
:0C1D8700ECF0A3EDF0A3EEF0A3EFF022CF
:101D9300A8828583F0D083D082121DAA121DAA12B5
:101DA3001DAA121DAAE473E493A3C583C5F0C583DA
:101DB300C8C582C8F0A3C583C5F0C583C8C582C89A
:011DC30022FD
:101DC400D083D082F8E4937012740193700DA3A3AE
:101DD40093F8740193F5828883E4737402936860C2
:061DE400EFA3A3A380DFC2
:061DEA008A838982E47384
:101E4E00E508246BF582E43401F583E00508229061
:101E5E00016830070390016BE475F001121E2E022B
:101E6E001B152000E97F2ED2008018EF540F24900E
:101E7E00D43440D4FF30040BEF24BFB41A00500307
:101E8E002461FFE50960021509050CE50C700205D9
:101E9E000B30070E900168E475F001121E2EEF0252
:101EAE001E1C0234B07403D2078003E4C207F50887
:101EBE00900168121E45E4F509F50BF50CE5096075
:101ECE00077F20121E9180F5750AFFC201C200C263
:101EDE0002C203C205C206C208121E5DFF700D309B
:101EEE0007057F00121EA2AF0CAE0B22B4255FC2F7
:101EFE00D5C204121E5DFF24D0B40A00501A75F02C
:101F0E000A780930D50508B6FF0106C6A426F620C4
:101F1E00D5047002D20380D924CFB41A00EF500436
:101F2E00C2E5D2040220A3D20180C6D20080C0D264
:101F3E000280BCD2D580BAD20580B47F20121E9109
:101F4E002002077401B5090040F1121E4EFF121E49
:101F5E0091021ECBD208D2068095121E4EFB121E87
:101F6E004EFA121E4EF94A4B700679747A217BFF97
:101F7E0020022EE509602A7E008E82758300121BD8
:101F8E002E60060EEE650A70F0C2D5EBC0E0EAC018
:101F9E00E0E9C0E0EE1220EAD0E0F9D0E0FAD0E0BD
:101FAE00FB121B15FF60AAEBC0E0EAC0E0E9C0E03F
:101FBE00121E91D0E02401F9D0E03400FAD0E0FBFB
:101FCE00E50A0460DCD50AD980877BFF7A2079E6A2
:101FDE00D202809C791080027908C206C20880085D
:101FEE00D2D5790A8004790AC2D5E50A047002F5C1
:101FFE000AE4FAFDFEFF121E4EFC7B0820011312AE
:10200E001E4EFD7B1030000A121E4EFE121E4EFF9B
:10201E007B20EC3382D592D55013C3E43000069F5B
:10202E00FFE49EFEE42001039DFDE49CFCE4CBF85E
:10203E00C201EC700CCFCECDCCE824F8F870F38052
:10204E0017C3EF33FFEE33FEED33FDEC33FCEB3312
:10205E00FB994002FB0FD8E9EB300105F8D0E0C444
:10206E0048B201C0E00AEC4D4E4F78207B0070C2A2
:10207E00EAB50A0040BCC0E01220ECD0F0D0E0205F
:10208E000104C4C0E0C4B201C0F0121E7AD0F0D573
:10209E00F0EB021ECB121DC41F68531FE2581F39EE
:1020AE004C1F35421FE64F1FEE441FEE491F4E4395
:0820BE001FF4551FD8461FD87E
:1020C600451FD8472194501F3D2D1F412E1F642BBD
:1020D6001F45231F6220217D2A1EFD4800001F5C2C
:1020E6003F3F3F00790AA2D5200314300509B910F5
:1020F600020404B9080104A2D520060250010420F6
:1021060002689202B509005034C0E07F20300319FE
:102116007F30A20272067205500F122143C202C21C
:1021260006C205C2087F30800F300503E9C0E01201
:102136001E91300503D0E0F9D0E0B509CC30051783
:102146007F30B9100C121E917F583004077F7880BB
:1021560003B90803121E913002057F2D021E917FDE
:10216600202008F87F2B2006F322920280CF286ECB
:10217600756C6C2900D201121E4E3001F8C201782E
:102186000930D50108F6021EFD2D50434958121E8E
:102196004E2403B405004001E490218F93121E8261
:0D21A600743A121E82D203750904021FE272
:0C373900EE30E707C3E49FFFE49EFE2291
:101DF000EF4E6012EF60010EEDBB010B89828A830A
:101E0000F0A3DFFCDEFA2289F05007F709DFFCA916
:0C1E1000F022BBFEFCF309DFFCA9F0226D
:101E1C00BB010689828A83F0225002F722BBFE01A5
:021E2C00F3229F
:101E2E00F8E0FBA3A3E0F925F0F0E582158270023D
:071E3E001583E0FA38F022E1
:091E4500EBF0A3EAF0A3E9F0229E
:1034B000EFB40A07740D1234BB740A309811A8993E
:1034C000B8130CC2983098FDA899C298B811F6307C
:0734D00099FDC299F5992254
:00000001FF
