:042AE6004102140095
:10291C00E47F721236A11237A712348F12002212E2
:10292C00360E1231F79001E3E06060E4F09002148F
:10293C00E004F09000A4E0FFC394324027EF24CED3
:10294C00FFE434FFFE7C007D05121C21EF240AFFFE
:10295C00E43EFE900214E0D39FEE6480F8748098FD
:10296C00402980229000A4E0FFC374329FFFE494BE
:10297C0000FE7C007D0A121C21C3740A9FFF90028A
:10298C0014E0D39F4005E4F0120B569001E5E06093
:10299C0002E4F09001E7E06008E4F0120026123146
:1029AC00A89001E9E06002E4F09001ECE070030211
:0729BC002931E4F00229318A
:0100220022BB
:0137A4002202
:0137A5002201
:0137A6002200
:0C3709009001DDEBF0A3EAF0A3E9F02250
:0C3715009001E0EBF0A3EAF0A3E9F02241
:1036B3009001DDA3E0FAA3E0F94A6003121E7C2225
:1036C3009001E0A3E0FAA3E0F94A6003121E7C2212
:10343400EF4E602D9001D3EEF0A3EFF0AF05A3ECB7
:10344400F0A3EFF0AF03A3EAF0A3EFF0E4A3F0A33B
:10345400F0A3F0A3F09001D2F09001D104F0123661
:02346400B32291
:10000E00E49001D1F01236C37B007A0079001237EA
:04001E000902371587
:102867009001D1E0700302291B9001D5E0FEA3E09F
:10287700FF4E700302291B9001D2E07035D3EF940D
:1028870000EE9400500302291B9001D9E475F00172
:10289700121CACFED39001D4E095F09001D3E09EDA
:1028A70050721236C3E49001D9F0A3F09001D2041C
:1028B700F0229001D2E06401705A9001D975F001BD
:1028C700121CACFED39001D6E095F09001D5E09EA6
:1028D70050429001D7E0FEA3E0FF9400EE94004041
:1028E700259001DBE475F001121CACFCD3EF95F0E9
:1028F700EE9C5005E49001D1F09001D1E070079073
:1029070001D5F0A3F022E49001D9F0A3F09001D211
:05291700F01236B322AE
:102AEA0041014F00500150000000000000000000AA
:102AFA000000000000000050013F0000000000003C
:102B0A000000000000000000000048016000000012
:052B1A000000000000B6
:10348F00E490014FF0FE7F10FD7B017A017950121D
:10349F001E827E007F107D007B017A01793F121E14
:0734AF008212237C0234DDD0
:0A2BE80004F07B017A01793FE0FD63
:0E2BF2009001AEEBF0A3EAF0A3E9F0A3EDF042
:102C0000E4FF000FEFB40AFA1236D390014F7401BB
:102C1000F0E4FF000FEFB40AFA9001AEE0FBA3E08E
:102C2000FAA3E0F9740190013F6B7008E9658270C6
:102C300003EA6583602A7E007F107D007B017A01B4
:102C4000793F121E829001B1E0FF7E00783F7C0147
:102C50007D019001AEE0FBA3E0FAA3E0F9121B8135
:012C60002251
:0B1507009001A7EBF0A3EAF0A3E9F0CD
:10151200E4A3F0A3F0A3F0A3F0121BA764F260030C
:10152200021AB09001A7E0FBA3E0FAA3E0F9900051
:1015320001121BC0D394104003021AB0E49001AB15
:10154200F09001A7E0FBA3E0FAA3E0F990000112FA
:101552001BC02401FFE433FE9001ABE0FDC39FEE0C
:101562006480F8748098501DED2401FFE433FE8FEF
:10157200828E83121BC0FF9001ADE02FF09001AB71
:10158200E004F080BC9001A7E0FBA3E0FAA3E0F93D
:10159200900001121BC0F582758300A3A3121BC029
:1015A200FF9001ADE06F6003021AB07E007F107DF4
:1015B200007B017A01793F121E82E49001ACF09027
:1015C20001A7E0FBA3E0FAA3E0F9900002121BC01E
:1015D2002447700302197D24B8B409004003021A9B
:1015E200A79015F175F003A4C58325F0C583730296
:1015F200160C0217FF0218BE021A6A021A79021AA0
:1016020088021AA7021A970216F6900211E0FF202A
:10161200E0030216E630E10854FDF0120003800AEE
:10162200900211E04402F01236549001ACE0FF0443
:10163200F0743F2FF582E43401F58374F8F09001E1
:10164200ACE0FF04F0743F2FF582E43401F58374BB
:101652000AF09001ACE0FF04F0743F2FF582E4340D
:1016620001F5837401F0900210E0C313A3E0135458
:1016720001FF9001ACE0FE04F0743F2EF582E434E9
:1016820001F583EFF09001ACE0243FF9E43401FA74
:101692007B017D081233C99001ACE02408F0E4908C
:1016A20001ABF0900140E02401FFE433FE9001AB76
:1016B200E0FDC39FEE6480F8748098502474402D3E
:1016C200F582E43401F583E0FF9001ACE0243FF5BC
:1016D20082E43401F583E02FF09001ABE004F08066
:1016E200C2021A617B007A007900E49001B2F07FB5
:1016F20001021AA49001A7E0FBA3E0FAA3E0F9908B
:101702000003121BC0B4010512379B80309001A761
:10171200E0FBA3E0FAA3E0F9900003121BC0B402BD
:101722000512379E80179001A7E0FBA3E0FAA3E021
:10173200F9900003121BC0B403031237A19001AC4D
:10174200E0FF04F0743F2FF582E43401F58374F86E
:10175200F09001ACE0FF04F0743F2FF582E4340115
:10176200F5837402F09001A7E0FBA3E0FAA3E0F98D
:10177200900002121BC0FF9001ACE0FE04F0743F27
:101782002EF582E43401F583EFF0123795EF9001E4
:10179200AC6013E0FF04F0743F2FF582E43401F5EE
:1017A200837401F08011E0FF04F0743F2FF582E4AE
:1017B2003401F5837402F0E49001ABF0900140E053
:1017C2002401FFE433FE9001ABE0FDC39FEE648091
:1017D200F87480984003021AA774402DF582E4340D
:1017E20001F583E0FF9001ACE0243FF582E434018F
:1017F200F583E02FF09001ABE004F080BF9002117E
:10180200E0FF20E0030218AE30E103021AA712360D
:10181200269001ACE0FF04F0743F2FF582E434011E
:10182200F58374F8F09001ACE0FF04F0743F2FF5FB
:1018320082E43401F5837409F09001ACE0FF04F016
:10184200743F2FF582E43401F5837402F09001AC09
:10185200E0243FF9E43401FA7B017D081233C99098
:1018620001ACE02408F0E49001ABF0900140E024E8
:1018720001FFE433FE9001ABE0FDC39FEE6480F80C
:10188200748098502474402DF582E43401F583E08D
:10189200FF9001ACE0243FF582E43401F583E02FB0
:1018A200F09001ABE004F080C2021A617B007A0082
:1018B2007900E49001B2F07F02021AA4900211E0D2
:1018C200FF20E00302196D30E103021AA712363E2F
:1018D2009001ACE0FF04F0743F2FF582E43401F58F
:1018E2008374F8F09001ACE0FF04F0743F2FF582AE
:1018F200E43401F5837409F09001ACE0FF04F07464
:101902003F2FF582E43401F5837403F09001ACE0DB
:10191200243FF9E43401FA7B017D081233C99001B6
:10192200ACE02408F0E49001ABF0900140E0240127
:10193200FFE433FE9001ABE0FDC39FEE6480F874D8
:101942008098502474402DF582E43401F583E0FF41
:101952009001ACE0243FF582E43401F583E02FF0FE
:101962009001ABE004F080C2021A617B007A007938
:1019720000E49001B2F07F03021AA4900211E03059
:10198200E00554FEF08007900211E04401F090015E
:10199200ACE0FF04F0743F2FF582E43401F5837468
:1019A200F8F09001ACE0FF04F0743F2FF582E434CC
:1019B20001F583740BF09001ACE0FF04F0743F2F4B
:1019C200F582E43401F58374B9F0900210E0FEA3CD
:1019D200E0FF5401FD9001ACE0FC04F0743F2CF5F3
:1019E20082E43401F583EDF0EEC313EF135401FFEB
:1019F2009001ACE0FE04F0743F2EF582E43401F570
:101A020083EFF09001ACE0243FF9E43401FA7B016A
:101A12007D081233C99001ACE02408F0E49001ABD8
:101A2200F0900140E02401FFE433FE9001ABE0FDC1
:101A3200C39FEE6480F8748098502474402DF58220
:101A4200E43401F583E0FF9001ACE0243FF582E449
:101A52003401F583E02FF09001ABE004F080C290F6
:101A620001ACE0122BE8803D7B007A007900E49023
:101A720001B2F07F04802B7B007A007900E49001B0
:101A8200B2F07F05801C7B007A007900E49001B2FD
:101A9200F07F06800D7B007A007900E49001B2F0BD
:0E1AA2007F081225BC9001ACE06003122BE817
:011AB0002213
:1031A80090014FE06031123743EF24F0601824D0CB
:1031B800601224207016123721123788E490014FCC
:1031C800F00234DD80001237210237887B017A0152
:1031D800793F7D1002330C7B017A0179507D101202
:0F31E8003466EF60097B017A01795012150722D6
:102B1F004101900041019100410195004101960052
:102B2F004201920000410194005001970000000003
:0C2B3F000000000000000000000000008A
:10360E00E4900190F0A3F0900195F0FE7FA2FD7B77
:08361E00017A007900021E820E
:1025BC009001AFEBF0A3EAF0A3E9F0E4900190F006
:1025CC00E0FE04F074972EF582E43401F583745523
:1025DC00F0900190E0FE04F074972EF582E4340143
:1025EC00F58374AAF09001B2E004FE900190E0FD36
:1025FC0004F074972DF582E43401F583EEF090012C
:10260C0090E0FE04F074972EF582E43401F583EF2C
:10261C00F0E4900195F09001B2E0FF900195E0FE9E
:10262C00C39F502F9001AFE0FBA3E0FAA3E0F98E1B
:10263C0082758300121BC0FE900190E0FD04F074C3
:10264C00972DF582E43401F583EEF0900195E004CA
:10265C00F080C37B017A017997EF2404FD122DBA27
:10266C00900190E0FE04F074972EF582E43401F5AD
:10267C0083EFF0E4900195F09001B2E02405FFE4C3
:10268C0033FE900195E0FDC39FEE6480F874809852
:10269C00501774972DF582E43401F583E0FF12375F
:0A26AC0070900195E004F080CF2249
:100026009000A2E07003020B5514F09000A0E024AB
:10003600A0FFE433FEA3E0FBFDC3EF9DFFEE9400BB
:10004600FE7C007DA0121C21EDC3940440D27400F6
:100056002BF582E43400F583E064556003020B411E
:100066009000A1E07A002401FFEA33FE7C007DA027
:10007600121C7674002DF58274003CF583E064AAA8
:100086006003020B41EB2402FFEA33FE7C007DA0F5
:10009600121C7674002DF58274003CF583E0900105
:1000A60091F09000A0E024A0FFE433CFC39BCF9A49
:1000B600FE7C007DA0121C76900191E02404FFE4F2
:1000C60033FEC3ED9FEE6480F8EC64809850030223
:1000D6000B479000A1E0FF2400F9E43400FA7B010D
:1000E600900191E02403FD9001AFEFF0A374A0F01E
:1000F600122A5DAB07900191E0FF9000A1E02FFF6F
:10010600E433CF2403CF3400FE7C007DA0121C769E
:1001160074002DF58274003CF583E06B6003020BDE
:1001260041E4900190F0FE7F10FD7B017A01793F5A
:10013600121E829000A1E0FB7A002403FFEA33FE40
:100146007C007DA0121C7674002DF58274003CF5AF
:1001560083E0121E56018612040F3104E933096743
:100166003405D33506AD3607973703353808814150
:100176000A5F620AC3630AE9640B0B6500000B2B76
:10018600E49001A7F0A3F0EB240CFFE43AFE7C0018
:100196007DA0121C7674002DF58274003CF583E078
:1001A600FF7E009001A7EEF0A3EFF0C39413EE9448
:1001B600004003020B2B9001A7A3E004900195F0E9
:0901C600900195E0C39414502B44
:1001CF00C374B394ABFD74009400FCE075F072A49B
:1001DF002DFFE5F03CFE9001A9F0A3EFF0E4FD1236
:0301EF003739009D
:1001F200900195E004F080CCE4900195F090019597
:10020200E0FBC3940A50489001A7E0FEA3E0FF7C04
:10021200007D72121C0FEBFD2FFFEC3EFEC006C0EC
:10022200079000A1E02404FFE433CF2DCF3CFE7DF4
:10023200A0121C7674002DF58274003CF583E0FD5B
:10024200D007D006123739900195E004F080AE90C5
:1002520000A1E0240DFFE433FE7C007DA0121C7699
:1002620074002DF58274003CF583E0540FFF900179
:1002720092E4F0A3EFF0E4900196F0900196E0FF93
:10028200D3900193E09F900192E094005003020307
:1002920018E4900195F0900195E0FBC3940D506D28
:1002A2009001A7E0FEA3E0FF7C007D72121C0FEF1D
:1002B200240AFDE43EFC900196E0F975F00DA42DB0
:1002C200FFE5F03CFEEB7C002FFBEC3EFA9000A138
:1002D200E0240EFDE433FCE975F00DA42DFFE5F0FA
:1002E2003CFE900195E07C002FFFEC3EFE7DA012CB
:1002F2001C7674002DF58274003CF583E0FDAF039B
:10030200AE02123739900195E004F080899001968F
:10031200E004F002027D9001A7A3E0900194F07B3B
:10032200017A0179949001B27401F07F121225BC16
:10033200020B2B900190E0FF04F0743F2FF582E452
:100342003401F58374F8F0900191E0FF900190E0A0
:10035200FE04F0743F2EF582E43401F583EFF09051
:100362000190E0FF04F0743F2FF582E43401F5833D
:100372007438F0E4900195F0900191E014FF90013F
:1003820095E0FEC39F50409000A1E02404FDE433B9
:10039200FCEE7E002DFFEE3CFE7C007DA0121C7662
:1003A20074002DF58274003CF583E0FF900190E02B
:1003B200FE04F0743F2EF582E43401F583EFF090F1
:1003C2000195E004F080B1E4900195F0900140E0E5
:1003D2002401FFE433FE900195E0FDC39FEE6480AB
:1003E200F8748098502474402DF582E43401F5832A
:1003F200E0FF900190E0243FF582E43401F583E0D0
:100402002FF0900195E004F080C20209589001900B
:10041200E0FF04F0743F2FF582E43401F58374F8B1
:10042200F0900191E0FF900190E0FE04F0743F2E05
:10043200F582E43401F583EFF0900190E0FF04F0DF
:10044200743F2FF582E43401F5837431F0E49001B6
:1004520095F0900191E014FF900195E0FEC39F504A
:10046200409000A1E02404FDE433FCEE7E002DFF69
:10047200EE3CFE7C007DA0121C7674002DF5827489
:10048200003CF583E0FF900190E0FE04F0743F2E03
:10049200F582E43401F583EFF0900195E004F080F9
:1004A200B1E4900195F0900140E02401FFE433FEB5
:1004B200900195E0FDC39FEE6480F874809850240B
:1004C20074402DF582E43401F583E0FF900190E061
:1004D200243FF582E43401F583E02FF0900195E0AA
:1004E20004F080C2020958900190E0FF04F0743FCA
:1004F2002FF582E43401F58374F8F0900191E0FF66
:10050200900190E0FE04F0743F2EF582E43401F590
:1005120083EFF0900190E0FF04F0743F2FF582E446
:100522003401F5837433F0E4900195F0900191E089
:1005320014FF900195E0FEC39F50409000A1E0247B
:1005420004FDE433FCEE7E002DFFEE3CFE7C007DDC
:10055200A0121C7674002DF58274003CF583E0FF36
:10056200900190E0FE04F0743F2EF582E43401F530
:1005720083EFF0900195E004F080B1E4900195F0F2
:10058200900140E02401FFE433FE900195E0FDC3B9
:100592009FEE6480F8748098502474402DF582E4B4
:1005A2003401F583E0FF900190E0243FF582E434CA
:1005B20001F583E02FF0900195E004F080C29001F4
:1005C20090E004F0900211E030E003020B2B020AEB
:1005D2004E900190E0FF04F0743F2FF582E4340165
:1005E200F58374F8F0900191E0FF900190E0FE0431
:1005F200F0743F2EF582E43401F583EFF090019020
:10060200E0FF04F0743F2FF582E43401F583743582
:10061200F0E4900195F0900191E014FF900195E0D3
:10062200FEC39F50409000A1E02404FDE433FCEEA1
:100632007E002DFFEE3CFE7C007DA0121C76740035
:100642002DF58274003CF583E0FF900190E0FE04FA
:10065200F0743F2EF582E43401F583EFF0900195BA
:10066200E004F080B1E4900195F0900140E02401B3
:10067200FFE433FE900195E0FDC39FEE6480F874C1
:100682008098502474402DF582E43401F583E0FF14
:10069200900190E0243FF582E43401F583E02FF0ED
:1006A200900195E004F080C2020958900190E0FFA9
:1006B20004F0743F2FF582E43401F58374F8F0906E
:1006C2000191E0FF900190E0FE04F0743F2EF5826C
:1006D200E43401F583EFF0900190E0FF04F0743F01
:1006E2002FF582E43401F5837436F0E4900195F03D
:1006F200900191E014FF900195E0FEC39F5040905D
:1007020000A1E02404FDE433FCEE7E002DFFEE3C6C
:10071200FE7C007DA0121C7674002DF58274003CD4
:10072200F583E0FF900190E0FE04F0743F2EF58225
:10073200E43401F583EFF0900195E004F080B1E438
:10074200900195F0900140E02401FFE433FE900116
:1007520095E0FDC39FEE6480F87480985024744045
:100762002DF582E43401F583E0FF900190E0243F0F
:10077200F582E43401F583E02FF0900195E004F076
:1007820080C2900190E004F0900211E030E0030298
:100792000B2B020A4E900190E0FF04F0743F2FF5FC
:1007A20082E43401F58374F8F0900191E0FF900146
:1007B20090E0FE04F0743F2EF582E43401F583EFFD
:1007C200F0900190E0FF04F0743F2FF582E43401D1
:1007D200F5837437F0E4900195F0900191E014FFF5
:1007E200900195E0FEC39F50409000A1E02404FDDB
:1007F200E433FCEE7E002DFFEE3CFE7C007DA01279
:100802001C7674002DF58274003CF583E0FF9001A4
:1008120090E0FE04F0743F2EF582E43401F583EF9C
:10082200F0900195E004F080B1E4900195F0900120
:1008320040E02401FFE433FE900195E0FDC39FEE0A
:100842006480F8748098502474402DF582E4340159
:10085200F583E0FF900190E0243FF582E43401F556
:1008620083E02FF0900195E004F080C2900190E0C7
:1008720004F0900211E030E003020B2B020A4E90CA
:100882000190E0FF04F0743F2FF582E43401F58318
:1008920074F8F0900191E0FF900190E0FE04F07492
:1008A2003F2EF582E43401F583EFF0900190E0FFF2
:1008B20004F0743F2FF582E43401F5837441F0E4CF
:1008C200900195F0900191E014FF900195E0FEC334
:1008D2009F50409000A1E02404FDE433FCEE7E0032
:1008E2002DFFEE3CFE7C007DA0121C7674002DF5DF
:1008F2008274003CF583E0FF900190E0FE04F07406
:100902003F2EF582E43401F583EFF0900195E00487
:10091200F080B1E4900195F0900140E02401FFE401
:1009220033FE900195E0FDC39FEE6480F8748098D9
:10093200502474402DF582E43401F583E0FF9001E8
:1009420090E0243FF582E43401F583E02FF090013A
:1009520095E004F080C2900190E004F07B017A01FE
:10096200793F020A57900190E0FF04F0743F2FF59F
:1009720082E43401F58374F8F0900191E0FF900174
:1009820090E0FE04F0743F2EF582E43401F583EF2B
:10099200F0900190E0FF04F0743F2FF582E43401FF
:1009A200F5837434F0E4900195F0900191E014FF26
:1009B200900195E0FEC39F50409000A1E02404FD09
:1009C200E433FCEE7E002DFFEE3CFE7C007DA012A7
:1009D2001C7674002DF58274003CF583E0FF9001D3
:1009E20090E0FE04F0743F2EF582E43401F583EFCB
:1009F200F0900195E004F080B1E4900195F090014F
:100A020040E02401FFE433FE900195E0FDC39FEE38
:100A12006480F8748098502474402DF582E4340187
:100A2200F583E0FF900190E0243FF582E43401F584
:100A320083E02FF0900195E004F080C2900190E0F5
:100A420004F0900211E030E003020B2B7B017A01EB
:100A5200793F900190E0FD122BF2020B2B9000A146
:100A6200E0FB7A002404FFEA33FE7C007DA0121C26
:100A72007674002DF58274003CF583E0FFC007EB2D
:100A82002405FFEA33FE7C007DA0121C7674002D43
:100A9200F58274003CF583E0FDC0059000A1E024DE
:100AA20006FFE433FE7C007DA0121C7674002DF557
:100AB2008274003CF583E0FBD005D00712328580BA
:100AC200689000A1E02404FFE433FE7C007DA012C4
:100AD2001C7674002DF58274003CF583E0FF9000D3
:100AE200A3F01235C080429000A1E02404FFE43359
:100AF200FE7C007DA0121C7674002DF58274003CF1
:100B0200F583E09000A4F080209000A1E02404FF8F
:100B1200E433FE7C007DA0121C7674002DF58274F5
:100B2200003CF583E0FF122C61900191E02404FF68
:100B32009000A1E02FF0E075F0A084E5F0F02290A3
:100B420000A1E004F09000A1E075F0A084E5F0F0CF
:040B52000200262255
:102DBA009001B3EBF0A3EAF0A3E9F0AE05E49002C8
:102DCA0012F0AF061EEF6046900212E0FF9001B3C8
:102DDA00E0FBA3E475F001121CC2A9F0FA121BA7CA
:102DEA006F900212F0E4A3F0900213E0C39408502B
:102DFA00D1900212E030E007C313648CF080079090
:102E0A000212E0C313F0900213E004F080DA900299
:042E1A0012E0FF22A1
:102A5D009001ABEBF0A3EAF0A3E9F0AE05E4900230
:102A6D0012F0AF061EEF606B900212E0FF9001AB0B
:102A7D00E0FBA3E475F001121CC2A9F0FA121BA72A
:102A8D006F900212F09001AFE004F0A3E0FF90010F
:102A9D00AFE0C39F4012E4F0EFFDE49DFDE4940030
:102AAD009001AC8DF0121CACE4900213F090021367
:102ABD00E0C3940850AC900212E030E007C31364F9
:102ACD008CF08007900212E0C313F0900213E00423
:092ADD00F080DA900212E0FF2201
:072B4B00440123000000001B
:1031F7007E007F067D007B017A01791D121E827E8B
:10320700007F017D007B017A017934121E827E00E6
:103217007F727D007B017A0079AB121E827E007F70
:10322700087D007B017A0079A3121E829000A374A7
:0732370064F0E4FF022C61CA
:10362600900134E0600414F080069001347413F0C5
:08363600900134E0FF022C6159
:10363E00900134E004F0E0C394144002E4F09001F1
:06364E0034E0FF022C61D4
:1033C9009001AEEBF0A3EAF0A3E9F0EDD394084045
:1033D9000A9001AEE4F0A3F0A3F022AF057E0090BD
:1033E90001AEE0FBA3E0FAA3E0F8AC02AD037B0178
:0833F9007A0079AB121B81225E
:08000300900134E0FF022C61C2
:10365400E490012EF0900132F0A3F0FBFAFDFCFFA0
:04366400FE022245FB
:102FF1009001ABEFF02401FFE433FE9000B4E05404
:103001000FB50714E4B506109001ABF0E075F00DB3
:10301100A424B5F97400800D9001ABE075F00DA406
:1030210024C2F9740035F0FA7B0178277C017D0117
:103031007E007F0D121B8178357C017D017B017A39
:0A3041000079AB7E007F0A021B81BC
:102C61009001AEEFF0FBE490011DF0A3121E2500D0
:102C71000000009001227432F0EBC39413400890DD
:102C810001347413F080089001AEE0900134F07BC0
:102C9100017A0079AB9001AEE0FD122E1E9000B3D7
:102CA100E0700D7B017A0079ABFD122E1E123654B5
:102CB10078277C017D017B017A0079B57E007F0D4B
:102CC100121B8178357C017D017B017A0079AB7E15
:062CD100007F0A021B81D6
:1035DC00AB07E490011DF0A3121E2500000000E4CF
:0935EC00900122F0AF03022FF15F
:103285009001ABEFF0A3EDF0A3EBF01236549001F3
:10329500ABE09000A5F0A3E4F09001ACE09000A7AE
:1032A500F0A3E4F09001ADE07F009000A9F0FAA34F
:1032B500EFF0FB9000A5E0FEA3E0FFA3E0FCA3E098
:0432C500FD0222459F
:100B5600900122E0600314F02290012EE0700D90C7
:100B66000132E07002A3E07003021506900127E04F
:100B7600540F24FC7003020FC714700302122F24B3
:100B860002600302150690011EE0FCA3E0FDA3E04F
:100B9600FEA3E02401FFE43EFEE43DFDE43CFC90C0
:100BA600011E121E1990012BE0FF900128E0FEC3E2
:100BB6009F5071EEFDC3EF9DFFE49400FE12372DAA
:100BC600EE3395E0FDFCC004C005C006C007E4FF97
:100BD6007E01FDFC90011EE0F8A3E0F9A3E0FAA374
:100BE600E0FB121CD8D003D002D001D000121CD8D2
:100BF600C006C00790012FE0FEA3E0FBAA06E4F9B9
:100C0600F8D007D006121D63A804A905AA06AB07EB
:100C1600900128E0FEE4FCFD2BFFEA3EFEED39FDE7
:100C2600EC388074900128E0FF90012BE0C39FFF11
:100C3600E49400FE12372DEE3395E0FDFCC004C0AF
:100C460005C006C007E4FF7E01FDFC90011EE0F82A
:100C5600A3E0F9A3E0FAA3E0FB121CD8D003D0026C
:100C6600D001D000121CD8C006C00790012FE0FEAC
:100C7600A3E0FBAA06E4F9F8D007D006121D63A884
:100C860004A905AA06AB07900128E0FEE4C39BFF72
:100C9600EE9AFEE499FDE498FC900123121E199049
:100CA6000131E0FFE4FCFDFE900123E0F8A3E0F94A
:100CB600A3E0FAA3E0FB121CD8E47B64FAF9F8126D
:100CC6001D63900123121E19900123E0FCA3E0FD91
:100CD600A3E0FEA3E0FF9000A5EEF0A3EFF09001E5
:100CE6002CE0FF900129E0FEC39F5071EEFDC3EF9B
:100CF6009DFFE49400FE12372DEE3395E0FDFCC017
:100D060004C005C006C007E4FF7E01FDFC90011E7D
:100D1600E0F8A3E0F9A3E0FAA3E0FB121CD8D003A5
:100D2600D002D001D000121CD8C006C00790012FF7
:100D3600E0FEA3E0FBAA06E4F9F8D007D006121DF0
:100D460063A804A905AA06AB07900129E0FEE4FC06
:100D5600FD2BFFEA3EFEED39FDEC3880749001294B
:100D6600E0FF90012CE0C39FFFE49400FE12372DB4
:100D7600EE3395E0FDFCC004C005C006C007E4FFE5
:100D86007E01FDFC90011EE0F8A3E0F9A3E0FAA3C2
:100D9600E0FB121CD8D003D002D001D000121CD820
:100DA600C006C00790012FE0FEA3E0FBAA06E4F907
:100DB600F8D007D006121D63A804A905AA06AB073A
:100DC600900129E0FEE4C39BFFEE9AFEE499FDE460
:100DD60098FC900123121E19900131E0FFE4FCFDFE
:100DE600FE900123E0F8A3E0F9A3E0FAA3E0FB12EA
:100DF6001CD8E47B64FAF9F8121D63900123121ED5
:100E060019900123E0FCA3E0FDA3E0FEA3E0FF9020
:100E160000A7EEF0A3EFF090012DE0FF90012AE08D
:100E2600FEC39F5071EEFDC3EF9DFFE49400FE12DA
:100E3600372DEE3395E0FDFCC004C005C006C007A3
:100E4600E4FF7E01FDFC90011EE0F8A3E0F9A3E0BB
:100E5600FAA3E0FB121CD8D003D002D001D00012B6
:100E66001CD8C006C00790012FE0FEA3E0FBAA062F
:100E7600E4F9F8D007D006121D63A804A905AA064E
:100E8600AB0790012AE0FEE4FCFD2BFFEA3EFEEDF7
:100E960039FDEC38807490012AE0FF90012DE0C303
:100EA6009FFFE49400FE12372DEE3395E0FDFCC063
:100EB60004C005C006C007E4FF7E01FDFC90011ECC
:100EC600E0F8A3E0F9A3E0FAA3E0FB121CD8D003F4
:100ED600D002D001D000121CD8C006C00790012F46
:100EE600E0FEA3E0FBAA06E4F9F8D007D006121D3F
:100EF60063A804A905AA06AB0790012AE0FEE4C38D
:100F06009BFFEE9AFEE499FDE498FC900123121EE5
:100F160019900131E0FFE4FCFDFE900123E0F8A307
:100F2600E0F9A3E0FAA3E0FB121CD8E47B64FAF92B
:100F3600F8121D63900123121E19900123A3A3E04A
:100F4600FEA3E0FF9000A9EEF0FAA3EFF0FB9000FD
:100F5600A5E0FEA3E0FFA3E0FCA3E0FD122245907E
:100F6600012FE0FEA3E0FFE4FCFD90011EE0F8A3E4
:100F7600E0F9A3E0FAA3E0FBC3121DF540129001CD
:100F86001E121E250000000090012EE0600214F0E3
:100F960090012EE06003021506900132E07002A374
:100FA600E0600E900133E024FFF0900132E034FF60
:100FB600F0900132E07002A3E0600302150602140D
:100FC600FB90011DE07018A3E0FCA3E0FDA3E0FE8A
:100FD600A3E02401FFE43EFEE43DFDE43C802990CD
:100FE600011EE0FCA3E0FDA3E0FEA3E0FFEC4D4EF6
:100FF6004F601C90011EA3A3A3E024FFFFEE34FF65
:10100600FEED34FFFDEC34FFFC90011E121E19E4C8
:101016007FFFFEFDFC90011EE0F8A3E0F9A3E0FAD5
:10102600A3E0FB121CD8A804A905AA06AB079001E9
:1010360028E0FFE4FCFDFE121CD8C006C0079001A4
:101046002FE0FEA3E0FBAA06E4F9F8D007D00612CB
:101056001D63900123121E19900131E0FFE4FCFD8F
:10106600FE900123E0F8A3E0F9A3E0FAA3E0FB1267
:101076001CD8E47B64FAF9F8121D63900123121E52
:1010860019900123A3A3E0FEA3E0FF9000A5EEF0D4
:10109600A3EFF0E47FFFFEFDFC90011EE0F8A3E065
:1010A600F9A3E0FAA3E0FB121CD8A804A905AA0636
:1010B600AB07900129E0FFE4FCFDFE121CD8C00638
:1010C600C00790012FE0FEA3E0FBAA06E4F9F8D0E2
:1010D60007D006121D63900123121E19900131E0FC
:1010E600FFE4FCFDFE900123E0F8A3E0F9A3E0FA9B
:1010F600A3E0FB121CD8E47B64FAF9F8121D639096
:101106000123121E19900123A3A3E0FEA3E0FF9082
:1011160000A7EEF0A3EFF0E47FFFFEFDFC90011EBA
:10112600E0F8A3E0F9A3E0FAA3E0FB121CD8A804B8
:10113600A905AA06AB0790012AE0FFE4FCFDFE1212
:101146001CD8C006C00790012FE0FEA3E0FBAA064C
:10115600E4F9F8D007D006121D63900123121E1978
:10116600900131E0FFE4FCFDFE900123E0F8A3E0EE
:10117600F9A3E0FAA3E0FB121CD8E47B64FAF9F8C1
:10118600121D63900123121E19900123A3A3E0FEF2
:10119600A3E0FF9000A9EEF0FAA3EFF0FB9000A504
:1011A600E0FEA3E0FFA3E0FCA3E0FD1222459001D0
:1011B6002FE0FEA3E0FFE4FCFD90011EE0F8A3E0B3
:1011C600F9A3E0FAA3E0FBC3121DF55014E4FFFEF9
:1011D600FDFC90011EE0F8A3A3A3E0C3121DF57069
:1011E6001790011DE0700404F0800DE490011DF0DD
:1011F60090012EE0600214F090012EE060030215CB
:1012060006900132E07002A3E0600E900133E02404
:10121600FFF0900132E034FFF0900132E07002A35B
:09122600E060030215060214FB4E
:10122F009001A7121E25000000FFE4FFFEFDFC90B9
:10123F00011EE0F8A3E0F9A3E0FAA3E0FBC3121D3F
:10124F00F56003021355900128E0FFE4FCFDFE90CA
:10125F0001A7E0F8A3E0F9A3E0FAA3E0FB121CD882
:10126F00A804A905AA06AB07900131E0FFE4FCFD35
:10127F00FE121CD8E47B64FAF9F8121D6390012367
:10128F00121E19900123A3A3E0FEA3E0FF9000A577
:10129F00EEF0A3EFF0900129E0FFE4FCFDFE9001DA
:1012AF00A7E0F8A3E0F9A3E0FAA3E0FB121CD8A88B
:1012BF0004A905AA06AB07900131E0FFE4FCFDFE8F
:1012CF00121CD8E47B64FAF9F8121D639001231203
:1012DF001E19900123A3A3E0FEA3E0FF9000A7EE49
:1012EF00F0A3EFF090012AE0FFE4FCFDFE9001A7D0
:1012FF00E0F8A3E0F9A3E0FAA3E0FB121CD8A804DE
:10130F00A905AA06AB07900131E0FFE4FCFDFE1230
:10131F001CD8E47B64FAF9F8121D63900123121EA6
:10132F0019900123A3A3E0FEA3E0FF9000A9EEF024
:10133F00FAA3EFF0FB9000A5E0FEA3E0FFA3E0FC13
:10134F00A3E0FD12224590012FE0FEA3E0FFE4FC95
:10135F00FD90011EE0F8A3E0F9A3E0FAA3E0FBC3C0
:10136F00121DF5600302147790012BE0FFE4FCFDE2
:10137F00FE9001A7E0F8A3E0F9A3E0FAA3E0FB12C7
:10138F001CD8A804A905AA06AB07900131E0FFE419
:10139F00FCFDFE121CD8E47B64FAF9F8121D639071
:1013AF000123121E19900123A3A3E0FEA3E0FF90D7
:1013BF0000A5EEF0A3EFF090012CE0FFE4FCFDFEA2
:1013CF009001A7E0F8A3E0F9A3E0FAA3E0FB121C59
:1013DF00D8A804A905AA06AB07900131E0FFE4FCE9
:1013EF00FDFE121CD8E47B64FAF9F8121D6390011C
:1013FF0023121E19900123A3A3E0FEA3E0FF900088
:10140F00A7EEF0A3EFF090012DE0FFE4FCFDFE90BE
:10141F0001A7E0F8A3E0F9A3E0FAA3E0FB121CD8C0
:10142F00A804A905AA06AB07900131E0FFE4FCFD73
:10143F00FE121CD8E47B64FAF9F8121D63900123A5
:10144F00121E19900123A3A3E0FEA3E0FF9000A9B1
:10145F00EEF0FAA3EFF0FB9000A5E0FEA3E0FFA3F0
:10146F00E0FCA3E0FD12224590011EE0FCA3E0FD8D
:10147F00A3E0FEA3E02401FFE43EFEE43DFDE43CD7
:10148F00FC90011E121E19900132E0FEA3E0FF90A6
:10149F000130E02FFF90012FE03EFEE4FCFD9001B4
:1014AF001EE0F8A3E0F9A3E0FAA3E0FBC3121DF5D9
:1014BF00401290011E121E250000000090012EE028
:1014CF00600214F090012EE0702D900132E0700256
:1014DF00A3E0600E900133E024FFF0900132E0347E
:1014EF00FFF0900132E07002A3E0700B900127E053
:0714FF00C4540FFF1235DC9D
:0115060022C2
:0137A70022FF
:0E2E1E009001AFEBF0A3EAF0A3E9F0A3EDF012
:102E2C00E4A3F0AF05EFC39414E49001B3F0900168
:102E3C00B3E0FDC39472503B9001B2E075F072A404
:102E4C002400FFE5F0343CFE7C00EF2DFFEC3EFE51
:102E5C001237609001AFE0FBA3E0FAA3E0F9900118
:102E6C00B3E0F582758300EF121BED9001B3E00423
:032E7C00F080BB28
:012E7F002230
:0A373900E42FFFEE343CFE02279956
:0137A80022FE
:0137A90022FD
:1036A10012366812375712315612354A12356AD21C
:0236B100AF2246
:042B52004100A2009C
:10356A00E49000A2F0FE7FA2FD7B017A00790012AE
:0D357A001E827F007E4B7D007C00022CD75E
:0300230002323E68
:10323E00C0E0C083C082C0D075D000C007309827D0
:10324E00C2989000A0E0FF04F074002FF582E434E1
:10325E0000F583E599F09000A0E0C394A04002E44D
:10326E00F09000A2E004F0309902C299D007D0D0BD
:07327E00D082D083D0E032C2
:082B56004101ED004101EE0018
:10354A001235A45389F0438901538EF79001ED7423
:10355A00FAF0A374C4F0758CFAF58AD2A9D28C2237
:1035A400E49001E4F09001E6F09001EAF0A3F090D9
:0C35B40001E5F09001E7F09001ECF0223E
:03000B00022B675E
:102B6700C0E0C0F0C083C082C0D075D000C000C034
:102B7700069001EDE0F58CA3E0F58A9001E374017E
:102B8700F0A3E004F0C3940A4005E4F0A304F09036
:102B970001E6E004F0C394644005E4F0A304F09078
:102BA70001E8E004F0C394F4748094814005E4F0F4
:102BB700A304F09001EAE475F001121CACFEC3E532
:102BC700F094E8EE9403400A9001EAE4F0A3F0A33E
:102BD70004F0D006D000D0D0D082D083D0F0D0E09F
:012BE70032BB
:103503000A6D679C46F6375D4521EFAC5A50010BB7
:10351300DF020A6D679C46F6375D4521EFAC5A50D2
:04352300E10BDF02D7
:082B5E004501EFCCCCCCCCCC3E
:1036680053B3FE43B40153B3FD43B40253B1FE4315
:03367800B201227A
:0137AA0022FC
:10358700E4FEC290EF30E704D2808002C280EF25CC
:0C359700E0FFD290000EEEB408E8C290F5
:0135A3002205
:04367B00E4FD7FFCEF
:0F367F00C29100123587AF0512358700D2912214
:0A32C9007B019001BD7405F07F3F0A
:0B32D3009001BAEBF0A3EAF0A3E9F0D1
:1032DE00C291E4FD1235879001BDE0FFEDC39F5012
:1032EE001A9001BAE0FBA3E0FAA3E0F98D82758390
:0D32FE0000121BC0FF1235870D80DCD2913D
:01330B00229F
:10352700E4FEC290EF30E704D2808002C280EF252C
:10353700E0FFD290000EEEB408E843B10153B2FEAB
:02354700C29030
:01354900225F
:1035F500E4FFFEC290EF25E0FFD290308003440146
:08360500FF0EEEB408EDC290C7
:01360D00229A
:10368E00C291001235271235F553B1FE43B2010037
:02369E00D291C7
:0136A0002207
:0B334F009001A8EBF0A3EAF0A3E9F066
:10335A00C291123527E4FD9001ABE0FFEDC39F5007
:10336A001A1235F59001A8E0FBA3E0FAA3E0F98D63
:10337A0082758300EF121BED0D80DC53B1FE43B260
:03338A0001D291DC
:01338D00221D
:0E36D30012367B7D8E7F2012367F0000002293
:1034DD00E4FEFD7FFC12367F7D8F7F2012367FE468
:1034ED00FD7FFD12367FE4FEFF000FBF00010EBE13
:0534FD0013F7BF88F485
:0135020022A6
:0A3743007F0712368EEF5470FF224C
:06378F007F0912368E22B4
:073788007D707F2702367FF0
:0C372100E4FD7FE112367F7FE202367F7C
:0E36E100AC0712367BAF04AD077F2502367FA3
:06330C00123743EF703C94
:103312009001A7F0A3F09001BDEDF07FA01232D38F
:10332200E4FD7FFD12367FE49001A7F0A3F0009048
:1033320001A8E004F070069001A7E004F09001A754
:0C334200E07004A3E064C870E512367B64
:01334E00225C
:10346600AC05123743EF30E61D12367B9001ABEC0C
:10347600F07F6112334F123721123788E4FD7FFD4A
:0934860012367F7F01227F002233
:10237C0078A77C017D017BFF7A3579037E007F0590
:10238C00121B8178AC7C017D017BFF7A3579087E4C
:10239C00007F03121B8178AF7C017D017BFF7A35B6
:1023AC00790B7E007F06121B8178B57C017D017B49
:1023BC00FF7A3579117E007F01121B8178B67C0182
:1023CC007D017BFF7A3579127E007F03121B81120F
:1023DC0037AA7D5A7F5312367F7DA57F5312367FE5
:1023EC007D207F3D12367F12367B7FE112367F7F58
:1023FC00E212367F7D707F2712367F7D017F22129D
:10240C00367F7D037F2312367F7D4E7F2512367FEC
:10241C007D107F3112367F7B017A0179EF9001BDFF
:10242C007405F07F301232D37B017A0179EF900181
:10243C00BD7405F07F2A1232D37A0179A71232C902
:10244C007B017A0179AF9001BD7406F07F3A1232AC
:10245C00D37B017A0179B59001BD7401F07F3912FB
:10246C0032D37B017A0179AC9001BD7403F07F3ECD
:10247C001232D37B017A0179B69001BD7403F07FDF
:10248C003B1232D3E4FD7F3C12367F7D3F7F261218
:0E249C00367FE4FD7F2412367F7F2102367FDB
:0526B6009001BEEFF0F1
:1026BB00E478BF7C017D017BFF7A357915FE7F05C0
:1026CB00121B8178C47C017D017BFF7A35791A7EE0
:1026DB00007F03121B8178C77C017D017BFF7A355C
:1026EB00791D7E007F06121B8178CD7C017D017BDD
:1026FB00FF7A3579237E007F01121B8178CE7C0116
:10270B007D017BFF7A3579247E007F03121B817D4F
:10271B005A7F5312367F7DA57F5312367F7D207FE4
:10272B003D12367F12367BE4FF000000000FEFB442
:10273B00DCF79001BEE0FD7F2512367F7D3F7F26C3
:10274B0012367F7A0179BF1232C97B017A0179C7C0
:10275B009001BD7406F07F3A1232D37B017A017976
:10276B00CD9001BD7401F07F391232D37B017A0118
:10277B0079C49001BD7403F07F3E1232D37B017A92
:0E278B000179CE9001BD7403F07F3B0232D382
:1031560053B1F743B20853B1EF43B21053B3FB4335
:10316600B40443DE01A2AF9209C2AF75C7AA75C700
:103176005543910143C60875C7AA75C7555391FEB5
:10318600A20992AF43DE2053DF3F43DF0153DFF94D
:1031960075D1FF75D9FFD2DFE4FBFAFDFCFFFE0215
:0231A6002245C0
:10340100AD07AC06A2AF9209C2AF75C7AA75C75581
:10341100439101A20992AFECF5C5EDF5CDA2AF92B2
:1034210009C2AF75C7AA75C7555391FEA20992AFDC
:03343100D2DE22C6
:0D36EF00AD07AC06ECF5D5EDF5DDD2DE2221
:0D36FC00AD07AC06ECF5D2EDF5DAD2DE221A
:102245009001AFEEF0A3EFF0A3ECF0A3EDF0A3EA5D
:04225500F0A3EBF017
:10225900A3121E25000000009001AFE0FEA3E0FFDD
:10226900E4FCFD9001B5121E199001B5E0F8A3E058
:10227900F9A3E0FAA3E0FB9000A3E0FFE4FCFDFE74
:10228900121CD89001B5121E199001B5E0FCA3E00B
:10229900FDA3E0FEA3E0FFE47B64FAF9F8121D63F5
:1022A9009001B5121E199001B5E0FCA3E0FDA3E071
:1022B900FEA3E0FF1234019001B1E0FEA3E0FFE4C8
:1022C900FCFD9001B5121E199001B5E0F8A3E0F9E3
:1022D900A3E0FAA3E0FB9000A3E0FFE4FCFDFE12FB
:1022E9001CD89001B5121E199001B5E0FCA3E0FDC0
:1022F900A3E0FEA3E0FFE47B64FAF9F8121D639002
:1023090001B5121E199001B5E0FCA3E0FDA3E0FEA2
:10231900A3E0FF1236EF9001B3E0FEA3E0FFE4FC77
:10232900FDA3121E199001B5E0F8A3E0F9A3E0FAA4
:10233900A3E0FB9000A3E0FFE4FCFDFE121CD89093
:1023490001B5121E199001B5E0FCA3E0FDA3E0FE62
:10235900A3E0FFE47B64FAF9F8121D639001B5125A
:102369001E199001B5E0FCA3E0FDA3E0FEA3E0FF88
:032379000236FC2D
:1035C0009000A3EFF09000A5E0FEA3E0FFA3E0FCD5
:0C35D000A3E0FDA3E0FAA3E0FB0222450B
:0937570053B3EF43B41002379E96
:03379B00D29422A3
:03379E00C29422B0
:0337A100B29422BD
:06379500A294E433FF22C0
:0A374D00EF600302379B12379E2243
:0137AB0022FB
:10279900AB07AA06AC038CA6EAFFF5A775AEFFA2A4
:1027A900AF9209C2AF75C7AA75C755439F01A20960
:1027B90092AFA2AF9209C2AF75C7AA75C75543A513
:1027C90001A20992AF75AF22A2AF9209C2AF75C734
:1027D900AA75C75543A401A20992AF900215ECF05E
:1027E900C394805004E4F080069002157480F09040
:1027F9000215E0F5A68FA7A2AF9209C2AF75C7AAC5
:1028090075C755439F01A20992AFA2AF9209C2AF02
:1028190075C7AA75C75543A501A20992AF75AF211E
:10282900AF058FAEA2AF9209C2AF75C7AA75C755DA
:1028390043A401A20992AFA2AF9209C2AF75C7AA78
:1028490075C75553A5FEA20992AFA2AF9209C2AFAF
:0E28590075C7AA75C755539FFEA20992AF22FC
:043760008F828E8343
:03376400E493FFEC
:01376700223F
:10338E0053B1BF53B2BF53B17F53B27F7598504301
:10339E008920438780438E1053C4DFAB07AA06A94A
:1033AE0005A8047F407E427D0F7C00121D63EF0452
:0B33BE00F404F58DD28ED299D2AC221F
:102CD7009001A7121E1953B1BF53B2BF53B17F530F
:102CE700B27F75985043878053C4F843C42090013E
:102CF700A7E0F8A3E0F9A3E0FAA3E0FB7F407E4258
:102D07007D0F7C00121D63C374FF9FFF74FF9EFE3F
:102D1700E49DFDE49CFC7808121E068FC69001A76F
:102D2700E0F8A3E0F9A3E0FAA3E0FB7F407E427D51
:102D37000F7C00121D63C374FF9FFF8FC543C40838
:052D4700D299D2AC227C
:073768003098FDAF99C298F3
:01376F002237
:08377000C2998F993099FD22E6
:102D4C009001F4121E1953B1FB53B2FB53B3BF5392
:102D5C00B4BF75F85075C40853C4DF9001F4E0F8A3
:102D6C00A3E0F9A3E0FAA3E0FB7F407E427D0F7C59
:102D7C0000121D63C374FF9FFF74FF9EFEE49DFD54
:102D8C00E49CFC7808121E068FC69001F4E0F8A3B0
:102D9C00E0F9A3E0FAA3E0FB7F407E427D0F7C00CC
:0E2DAC00121D63C374FF9FFF8FC543C408222E
:0737780030F8FDAF9AC2F822
:01377F002227
:08378000C2F98F9A30F9FD2215
:10304B009001F8121E19538EF7438901D28CE4FFBD
:10305B00FEFDFC9001F8E0F8A3E0F9A3E0FAA3E091
:10306B00FBC3121DF5602F758A7E758CFF308DFDAD
:10307B00C28D9001F8E0FCA3E0FDA3E0FEA3E024E9
:10308B00FFFFEE34FFFEED34FFFDEC34FFFC90014F
:09309B00F8121E1980B8C28C2243
:1030A4009001FC121E19538EF7438901D28CE4FF60
:1030B400FEFDFC9001FCE0F8A3E0F9A3E0FAA3E034
:1030C400FBC3121DF5602F758ACA758CFA308DFD0D
:1030D400C28D9001FCE0FCA3E0FDA3E0FEA3E0248C
:1030E400FFFFEE34FFFEED34FFFDEC34FFFC9001F6
:0930F400FC121E1980B8C28C22E6
:1030FD00900200121E19538EEF438910D28EE4FFF9
:10310D00FEFDFC900200E0F8A3E0F9A3E0FAA3E0D5
:10311D00FBC3121DF5602F758BEA758DCB308FFDBE
:10312D00C28F900200E0FCA3E0FDA3E0FEA3E0242B
:10313D00FFFFEE34FFFEED34FFFDEC34FFFC90029B
:09314D0000121E1980B8C28E2286
:102EDF00900204121E1953C9BF53C9DF43C910D240
:102EEF00CAE4FFFEFDFC900204E0F8A3E0F9A3E0C2
:102EFF00FAA3E0FBC3121DF5602F75CC3075CDF82A
:102F0F0030CFFDC2CF900204E0FCA3E0FDA3E0FEB2
:102F1F00A3E024FFFFEE34FFFEED34FFFDEC34FFA2
:0C2F2F00FC900204121E1980B8C2CA22D5
:102F3B00900208121E1975C40743C408E4FFFEFD76
:102F4B00FC900208E0F8A3E0F9A3E0FAA3E0FBC3CE
:102F5B00121DF5603275C52C75C6CFE5C430E4FB88
:102F6B0053C4EF900208E0FCA3E0FDA3E0FEA3E056
:102F7B0024FFFFEE34FFFEED34FFFDEC34FFFC903D
:0B2F8B000208121E1980B553C4F72283
:102F960090020C121E1975C40743C408E4FFFEFD17
:102FA600FC90020CE0F8A3E0F9A3E0FAA3E0FBC36F
:102FB600121DF5603275C5D875C6FFE5C430E4FB51
:102FC60053C4EF90020CE0FCA3E0FDA3E0FEA3E0F7
:102FD60024FFFFEE34FFFEED34FFFDEC34FFFC90E2
:0B2FE600020C121E1980B553C4F72224
:1024AA000A3D3D3D3D3D3D3D3D3D3D3D3D3D3D3D85
:1024BA003D3D3D3D3D3D3D3D3D3D3D3D3D3D3D3D42
:1024CA003D3D3D3D3D3D3D3D3D3D3D3D3D3D3D3D32
:1024DA003D3D3D3D3D3D3D3D3D3D3D3D3D3D3D3D22
:1024EA003D3D3D3D3D000A2A2020436F70797269C7
:1024FA006768742863292032303135204E75766F2B
:10250A00746F6E20546563686E6F6C6F67792043D1
:10251A006F72702E20416C6C207269676874732028
:10252A0072657365727665642E2020000A2A20205F
:10253A00436F6E7461637420452D4D61696C3A2056
:10254A004D6963726F432D38626974406E75766F98
:10255A00746F6E2E636F6D20202020202020202093
:10256A002020202020202020202020202020202061
:10257A0020000A2A202044656D6F2056657273690F
:10258A006F6E20203A202532642E2532642E2532A1
:10259A0064000A2A202046696E69736865642044CB
:1025AA00617465203A202532642E2532642E253244
:0225BA006400BB
:102E80007BFF7A2479AA121F4B7BFF7A2479F012F8
:102E90001F4B7BFF7A257936121F4B7BFF7A2579F2
:102EA0007C90016BE4F0A304F0E4A3F0A3F0A3F0A2
:102EB000A3F0121F4B7BFF7A25799C90016B74075E
:102EC000F0A374DFF0A3E4F0A37405F0A3E4F0A38F
:0F2ED000741FF0121F4B7BFF7A2479AA021F4B4D
:030000000229C30F
:1029C300787FE4F6D8FD9000007FFF7E03E4F0A358
:0A29D300DFFCDEFA758121022A18EC
:1029DD0002291CE493A3F8E493A34003F68001F2CB
:1029ED0008DFF48029E493A3F85407240CC8C333FB
:1029FD00C4540F4420C8834004F456800146F6DFCA
:102A0D00E4800B0102040810204080902AE6E47E49
:102A1D00019360BCA3FF543F30E509541FFEE493BE
:102A2D00A360010ECF54C025E060A840B8E493A385
:102A3D00FAE493A3F8E493A3C8C582C8CAC583CAB0
:102A4D00F0A3C8C582C8CAC583CADFE9DEE780BE68
:012B6600006E
:101AB100E709F608DFFA8046E709F208DFFA803E17
:101AC10088828C83E709F0A3DFFA8032E309F60804
:101AD100DFFA8078E309F208DFFA807088828C836C
:101AE100E309F0A3DFFA806489828A83E0A3F60820
:101AF100DFFA805889828A83E0A3F208DFFA804CFA
:101B010080D280FA80C680D4806980F280338010D0
:101B110080A680EA809A80A880DA80E280CA803339
:101B210089828A83ECFAE493A3C8C582C8CCC583B1
:101B3100CCF0A3C8C582C8CCC583CCDFE9DEE78081
:101B41000D89828A83E493A3F608DFF9ECFAA9F000
:101B5100EDFB2289828A83ECFAE0A3C8C582C8CC56
:101B6100C583CCF0A3C8C582C8CCC583CCDFEADE6F
:101B7100E880DB89828A83E493A3F208DFF980CCD1
:101B810088F0EF60010E4E60C388F0ED2402B404CA
:101B91000050B9F582EB2402B4040050AF23234571
:061BA1008223901B01737A
:101BA700BB010689828A83E0225002E722BBFE023C
:091BB700E32289828A83E493226F
:101BC000BB010CE58229F582E5833AF583E02250DA
:101BD00006E92582F8E622BBFE06E92582F8E22224
:0D1BE000E58229F582E5833AF583E493223E
:101BED00F8BB010DE58229F582E5833AF583E8F02E
:101BFD00225006E92582C8F622BBFE05E92582C8DA
:021C0D00F222C1
:101C0F00EF8DF0A4A8F0CF8CF0A428CE8DF0A42EE9
:021C1F00FE22A3
:101C2100BC000BBE0029EF8DF084FFADF022E4CCA7
:101C3100F875F008EF2FFFEE33FEEC33FCEE9DEC70
:101C4100984005FCEE9DFE0FD5F0E9E4CEFD22EDB6
:101C5100F8F5F0EE8420D21CFEADF075F008EF2F00
:101C6100FFED33FD4007985006D5F0F222C398FDF1
:051C71000FD5F0EA228E
:101C7600C2D5EC30E709B2D5E4C39DFDE49CFCEE89
:101C860030E715B2D5E4C39FFFE49EFE121C21C3C4
:101C9600E49DFDE49CFC8003121C2130D507C3E4BF
:061CA6009FFFE49EFE22F8
:101CAC00C5F0F8A3E028F0C5F0F8E58215827002C3
:061CBC001583E038F02260
:101CC200A3F8E0C5F025F0F0E582158270021583D5
:061CD200E0C838F0E82232
:101CD800E88FF0A4CC8BF0A42CFCE98EF0A42CFCAB
:101CE8008AF0EDA42CFCEA8EF0A4CDA8F08BF0A429
:101CF8002DCC3825F0FDE98FF0A42CCD35F0FCEB88
:101D08008EF0A4FEA9F0EB8FF0A4CFC5F02ECD394C
:0F1D1800FEE43CFCEAA42DCE35F0FDE43CFC22B9
:101D270075F008758200EF2FFFEE33FECD33CDCC73
:101D370033CCC58233C5829BED9AEC99E5829840F6
:101D47000CF582EE9BFEED9AFDEC99FC0FD5F0D6D3
:101D5700E4CEFBE4CDFAE4CCF9A88222B800C1B9FD
:101D67000059BA002DEC8BF084CFCECDFCE5F0CB3B
:101D7700F97818EF2FFFEE33FEED33FDEC33FCEB74
:101D870033FB10D703994004EB99FB0FD8E5E4F92F
:101D9700FA227818EF2FFFEE33FEED33FDEC33FC1C
:101DA700C933C910D7059BE99A4007EC9BFCE99A10
:101DB700F90FD8E0E4C9FAE4CCFB2275F010EF2F55
:101DC700FFEE33FEED33FDCC33CCC833C810D70755
:101DD7009BEC9AE899400AED9BFDEC9AFCE899F890
:0E1DE7000FD5F0DAE4CDFBE4CCFAE4C8F92223
:101DF500EB9FF5F0EA9E42F0E99D42F0E89C45F044
:011E050022BA
:101E0600E8600FECC313FCED13FDEE13FEEF13FFBA
:031E1600D8F122DE
:0C1E1900ECF0A3EDF0A3EEF0A3EFF0223C
:101E2500A8828583F0D083D082121E3C121E3C12FC
:101E35001E3C121E3CE473E493A3C583C5F0C58321
:101E4500C8C582C8F0A3C583C5F0C583C8C582C807
:011E5500226A
:101E5600D083D082F8E4937012740193700DA3A31B
:101E660093F8740193F5828883E47374029368602F
:061E7600EFA3A3A380DF2F
:061E7C008A838982E473F1
:101EE000E508246BF582E43401F583E005082290CF
:101EF000016830070390016BE475F001121EC00207
:101F00001BA72000E97F2ED2008018EF540F2490E9
:101F1000D43440D4FF30040BEF24BFB41A00500374
:101F20002461FFE50960021509050CE50C70020546
:101F30000B30070E900168E475F001121EC0EF022D
:101F40001EAE0234B67403D2078003E4C207F5085C
:101F5000900168121ED7E4F509F50BF50CE5096050
:101F6000077F20121F2380F5750AFFC201C200C23D
:101F700002C203C205C206C208121EEFFF700D3076
:101F800007057F00121F34AF0CAE0B22B4255FC2D1
:101F9000D5C204121EEFFF24D0B40A00501A75F007
:101FA0000A780930D50508B6FF0106C6A426F62032
:101FB000D5047002D20380D924CFB41A00EF5004A4
:101FC000C2E5D204022135D20180C6D20080C0D23F
:101FD0000280BCD2D580BAD20580B47F20121F23E4
:101FE0002002077401B5090040F1121EE0FF121F24
:101FF00023021F5DD208D2068095121EE0FB121E3E
:10200000E0FA121EE0F94A4B700679067A227BFF4D
:1020100020022EE509602A7E008E82758300121B45
:10202000C060060EEE650A70F0C2D5EBC0E0EAC0F3
:10203000E0E9C0E0EE12217CD0E0F9D0E0FAD0E097
:10204000FB121BA7FF60AAEBC0E0EAC0E0E9C0E01A
:10205000121F23D0E02401F9D0E03400FAD0E0FBD5
:10206000E50A0460DCD50AD980877BFF7A2179787C
:10207000D202809C791080027908C206C2088008CA
:10208000D2D5790A8004790AC2D5E50A047002F52E
:102090000AE4FAFDFEFF121EE0FC7B082001131289
:1020A0001EE0FD7B1030000A121EE0FE121EE0FF53
:1020B0007B20EC3382D592D55013C3E43000069FC9
:1020C000FFE49EFEE42001039DFDE49CFCE4CBF8CC
:1020D000C201EC700CCFCECDCCE824F8F870F380C0
:1020E00017C3EF33FFEE33FEED33FDEC33FCEB3380
:1020F000FB994002FB0FD8E9EB300105F8D0E0C4B2
:1021000048B201C0E00AEC4D4E4F78207B0070C20F
:10211000EAB50A0040BCC0E012217ED0F0D0E02039
:102120000104C4C0E0C4B201C0F0121F0CD0F0D54D
:10213000F0EB021F5D121E561FFA532074581FCB7E
:102140004C1FC74220784F2080442080491FE04325
:08215000208655206A46206A32
:1021580045206A472226501FCF2D1FD32E1FF62B4E
:102168001FD7231FF420220F2A1F8F4800001FEEBD
:102178003F3F3F00790AA2D5200314300509B91062
:10218800020404B9080104A2D52006025001042063
:1021980002689202B509005034C0E07F203003196C
:1021A8007F30A20272067205500F1221D5C202C2F8
:1021B80006C205C2087F30800F300503E9C0E0126F
:1021C8001F23300503D0E0F9D0E0B509CC3005175E
:1021D8007F30B9100C121F237F583004077F788096
:1021E80003B90803121F233002057F2D021F237F26
:1021F800202008F87F2B2006F322920280CF286E39
:10220800756C6C2900D201121EE03001F8C2017809
:102218000930D50108F6021F8F2D50434958121E68
:10222800E02403B405004001E490222193121F1416
:0D223800743A121F14D203750904022074B9
:0C372D00EE30E707C3E49FFFE49EFE229D
:101E8200EF4E6012EF60010EEDBB010B89828A8377
:101E9200F0A3DFFCDEFA2289F05007F709DFFCA984
:0C1EA200F022BBFEFCF309DFFCA9F022DB
:101EAE00BB010689828A83F0225002F722BBFE0113
:021EBE00F3220D
:101EC000F8E0FBA3A3E0F925F0F0E58215827002AB
:071ED0001583E0FA38F0224F
:091ED700EBF0A3EAF0A3E9F0220C
:1034B600EFB40A07740D1234C1740A309811A89932
:1034C600B8130CC2983098FDA899C298B811F63076
:0734D60099FDC299F599224E
:00000001FF
