:103445001237981238AE1235861238AA12383F1242
:10345500361E1209639000B7E06005E4F0120026FD
:103465009000B9E06005E4F01233319000BBE060F4
:0D34750002E4F09000BEE060D9E4F080D5E4
:0138AA0022FB
:0138AB0022FA
:0138AC0022F9
:0138AD0022F8
:0C380F009000B0EBF0A3EAF0A3E9F02277
:0C381B009000B3EBF0A3EAF0A3E9F02268
:1037AA009000B0A3E0FAA3E0F94A60031220C42211
:1037BA009000B3A3E0FAA3E0F94A60031220C422FE
:10352B00EF4E602D9000A6EEF0A3EFF0AF05A3ECED
:10353B00F0A3EFF0AF03A3EAF0A3EFF0E4A3F0A343
:10354B00F0A3F0A3F09000A5F09000A404F01237C4
:02355B00AA22A2
:10373900E49000A4F01237BA7B007A0079001238BD
:043749000F02381B18
:102AA0009000A4E07003022B549000A8E0FEA3E085
:102AB000FF4E7003022B549000A5E07035D3EF94C5
:102AC00000EE94005003022B549000ACE475F0012A
:102AD000121EF4FED39000A7E095F09000A6E09EB1
:102AE00050721237BAE49000ACF0A3F09000A50445
:102AF000F0229000A5E06401705A9000AC75F001DE
:102B0000121EF4FED39000A9E095F09000A8E09E7C
:102B100050429000AAE0FEA3E0FF9400EE94004033
:102B2000259000AEE475F001121EF4FCD3EF95F091
:102B3000EE9C5005E49000A4F09000A4E070079093
:102B400000A8F0A3F022E49000ACF0A3F09000A560
:052B5000F01237AA227B
:102DFD004100100050001100000000000000000014
:102E0D000000000000000050000000000000000065
:102E1D00000000000000000000004800210000003C
:052E2D000000000000A0
:10358600E4900010F0FE7F10FD7B017A00791112A5
:1035960020CA7E007F107D007B017A007900122010
:0735A600CA1226830235D48E
:0A2D010004F07B017A007900E0FD88
:0E2D0B00900058EBF0A3EAF0A3E9F0A3EDF07E
:102D1900E4FF000000000FEFB478F71237D99000F4
:102D2900107401F0E4FF000000000FEFB478F79091
:102D39000058E0FBA3E0FAA3E0F974019000006BEE
:102D49007008E965827003EA6583602A7E007F1056
:102D59007D007B017A0079001220CA90005BE0FFB8
:102D69007E0078007C007D01900058E0FBA3E0FA2A
:062D7900A3E0F9121E3078
:012D7F002231
:0B17B600900051EBF0A3EAF0A3E9F073
:1017C100E4A3F0A3F0A3F0A3F0121E5664F26003A9
:1017D100021D5F900051E0FBA3E0FAA3E0F9900045
:1017E10001121E6FD394104003021D5FE490005557
:1017F100F0900051E0FBA3E0FAA3E0F990000112A0
:101801001E6F2401FFE433FE900055E0FDC39FEEFF
:101811006480F8748098501DED2401FFE433FE8F3D
:10182100828E83121E6FFF900057E02FF0900055BB
:10183100E004F080BC900051E0FBA3E0FAA3E0F9E2
:10184100900001121E6FF582758300A3A3121E6F13
:10185100FF900057E06F6003021D5F7E007F107DE7
:10186100007B017A0079001220CAE4900056F090C2
:101871000051E0FBA3E0FAA3E0F9900002121E6F11
:1018810024477003021C2C24B8B409004003021D34
:10189100569018A075F003A4C58325F0C583730283
:1018A10018BB021AAE021B6D021D19021D28021D72
:1018B10037021D56021D460219A59000F1E0FF20D6
:1018C100E00302199530E10854FDF0120003800A8B
:1018D1009000F1E04402F0123786900056E0FF04D8
:1018E100F074002FF582E43400F58374F8F0900071
:1018F10056E0FF04F074002FF582E43400F58374A0
:101901000AF0900056E0FF04F074002FF582E434F1
:1019110000F5837401F09000F0E0C313A3E01354C9
:1019210001FF900056E0FE04F074002EF582E434CD
:1019310000F583EFF0900056E02400F9E43400FA5A
:101941007B017D0812328B900056E02408F0E49070
:101951000055F0900001E02401FFE433FE900055B2
:10196100E0FDC39FEE6480F8748098502474012DCB
:10197100F582E43400F583E0FF900056E02400F5A1
:1019810082E43400F583E02FF0900055E004F0800C
:10199100C2021D107B007A007900E490005CF07FA8
:1019A10001021D53900051E0FBA3E0FAA3E0F9907E
:1019B1000003121E6FB401051238A180309000514E
:1019C100E0FBA3E0FAA3E0F9900003121E6FB4025A
:1019D100051238A48017900051E0FBA3E0FAA3E0C0
:1019E100F9900003121E6FB403031238A79000563A
:1019F100E0FF04F074002FF582E43400F58374F8FD
:101A0100F0900056E0FF04F074002FF582E43400FA
:101A1100F5837402F0900051E0FBA3E0FAA3E0F932
:101A2100900002121E6FFF900056E0FE04F0740059
:101A31002EF582E43400F583EFF012389BEF90002D
:101A4100566013E0FF04F074002FF582E43400F5D2
:101A5100837401F08011E0FF04F074002FF582E43B
:101A61003400F5837402F0E4900055F0900001E039
:101A71002401FFE433FE900055E0FDC39FEE648036
:101A8100F87480984003021D5674012DF582E434E8
:101A910000F583E0FF900056E02400F582E4340075
:101AA100F583E02FF0900055E004F080BF9000F145
:101AB100E0FF20E003021B5D30E103021D561237F7
:101AC1000B900056E0FF04F074002FF582E434001F
:101AD100F58374F8F0900056E0FF04F074002FF5E0
:101AE10082E43400F5837409F0900056E0FF04F0BD
:101AF10074002FF582E43400F5837402F0900056EF
:101B0100E02400F9E43400FA7B017D0812328B9065
:101B11000056E02408F0E4900055F0900001E02424
:101B210001FFE433FE900055E0FDC39FEE6480F8B1
:101B3100748098502474012DF582E43400F583E01B
:101B4100FF900056E02400F582E43400F583E02F95
:101B5100F0900055E004F080C2021D107B007A0075
:101B61007900E490005CF07F02021D539000F1E0E7
:101B7100FF20E003021C1C30E103021D5612372333
:101B8100900056E0FF04F074002FF582E43400F574
:101B91008374F8F0900056E0FF04F074002FF58292
:101BA100E43400F5837409F0900056E0FF04F0740A
:101BB100002FF582E43400F5837403F0900056E0C1
:101BC1002400F9E43400FA7B017D0812328B900085
:101BD10056E02408F0E4900055F0900001E0240163
:101BE100FFE433FE900055E0FDC39FEE6480F8747E
:101BF1008098502474012DF582E43400F583E0FFD0
:101C0100900056E02400F582E43400F583E02FF0E3
:101C1100900055E004F080C2021D107B007A00792B
:101C210000E490005CF07F03021D539000F1E0306E
:101C3100E00554FEF080079000F1E04401F09000CF
:101C410056E0FF04F074002FF582E43400F583744C
:101C5100F8F0900056E0FF04F074002FF582E434B0
:101C610000F583740BF0900056E0FF04F074002F30
:101C7100F582E43400F58374B9F09000F0E0FEA33E
:101C8100E0FF5401FD900056E0FC04F074002CF5D7
:101C910082E43400F583EDF0EEC313EF135401FF3A
:101CA100900056E0FE04F074002EF582E43400F555
:101CB10083EFF0900056E02400F9E43400FA7B0150
:101CC1007D0812328B900056E02408F0E490005514
:101CD100F0900001E02401FFE433FE900055E0FDA7
:101CE100C39FEE6480F8748098502474012DF582AE
:101CF100E43400F583E0FF900056E02400F582E42F
:101D01003400F583E02FF0900055E004F080C2909C
:101D11000056E0122D01803D7B007A007900E490AD
:101D2100005CF07F04802B7B007A007900E4900056
:101D31005CF07F05801C7B007A007900E490005CF8
:101D4100F07F06800D7B007A007900E490005CF062
:0E1D51007F081228C3900056E06003122D0197
:011D5F002261
:10333100900010E06031123849EF24F0601824D079
:1033410060122420701612382712388EE490001073
:10335100F00235D4800012382702388E7B017A00C2
:1033610079007D100233C37B017A0079117D10123F
:0F337100355DEF60097B017A0079111217B622E2
:102E320041007E0041007F0041008000500081007F
:0F2E420000000000000000000000000000000081
:0A383F00E490007EF0A3F0A3F02255
:1028C300900059EBF0A3EAF0A3E9F0E490007EF066
:1028D300E0FE04F074812EF582E43400F583745530
:1028E300F090007EE0FE04F074812EF582E4340063
:1028F300F58374AAF090005CE004FE90007EE0FD96
:1029030004F074812DF582E43400F583EEF0900039
:102913007EE0FE04F074812EF582E43400F583EF4B
:10292300F0E4900080F090005CE0FF900080E0FE17
:10293300C39F502F900059E0FBA3E0FAA3E0F98E68
:1029430082758300121E6FFE90007EE0FD04F0741A
:10295300812DF582E43400F583EEF0900080E004ED
:10296300F080C37B017A007981EF2404FD122F5696
:1029730090007EE0FE04F074812EF582E43400F5CD
:1029830083EFF0E4900080F090005CE02405FFE426
:1029930033FE900080E0FDC39FEE6480F87480985E
:1029A300501774812DF582E43400F583E0FF12386B
:0A29B30076900080E004F080CF224F
:100963009000F4E0700302110714F078A2E62480EB
:10097300FF08E6FEC3EF9E547FC3940440E2742253
:100983002EF8E6645560030210FBEE04547F242224
:10099300F8E664AA60030210FB78A3E6FF2402547E
:1009A3007F2422F8E690007FF0FB78A2E62480FD06
:1009B300E433FCC3ED9FFFEC9400FE7C007D8012CA
:1009C3001EBEEB2404FFE433FEC3ED9FEE6480F808
:1009D300EC64809850030210FE78A3E6FF2422F90A
:1009E300E4FAFBE02403FD900055EFF0A37480F0DC
:1009F300122BEF90007FE078A3262403547F242258
:100A0300F8E66F60030210FBE490007EF0FE7F10B7
:100A1300FD7B017A0079001220CA78A3E6FF240344
:100A2300547F2422F8E612209E0AEE310B93320CF7
:100A330038330F9C340CDD350D82360E27370A4BC5
:100A4300380ECC41000010EF90007EE0FE04F074FD
:100A5300002EF582E43400F58374F8F090007FE013
:100A6300FE90007EE0FD04F074002DF582E4340076
:100A7300F583EEF090007EE0FE04F074002EF58224
:100A8300E43400F5837438F0EF2404547F2422F80F
:100A9300E6FF90007EE0FE04F074002EF582E4345D
:100AA30000F583EFF0E4900080F0900001E0240172
:100AB300FFE433FE900080E0FDC39FEE6480F87492
:100AC3008098502474012DF582E43400F583E0FF0F
:100AD30090007EE02400F582E43400F583E02FF0FB
:100AE300900080E004F080C20210DE90007EE0FF00
:100AF30004F074002FF582E43400F58374F8F09069
:100B0300007FE0FF90007EE0FE04F074002EF5828B
:100B1300E43400F583EFF090007EE0FF04F074000E
:100B23002FF582E43400F5837431F078A3E62404CE
:100B3300547F2422F8E6FF90007EE0FE04F0740068
:100B43002EF582E43400F583EFF0E4900080F0901A
:100B53000001E02401FFE433FE900080E0FDC39F29
:100B6300EE6480F8748098502474012DF582E43487
:100B730000F583E0FF90007EE02400F582E434007A
:100B8300F583E02FF0900080E004F080C20210DED5
:100B930090007EE0FF04F074002FF582E43400F54A
:100BA3008374F8F090007FE0FF90007EE0FE04F095
:100BB30074002EF582E43400F583EFF090007EE0BC
:100BC300FF04F074002FF582E43400F5837432F0EF
:100BD30078A3E62404547F2422F8E6FF90007EE005
:100BE300FE04F074002EF582E43400F583EFF0E4A4
:100BF300900080F0900001E02401FFE433FE9000B8
:100C030080E0FDC39FEE6480F874809850247401E3
:100C13002DF582E43400F583E0FF90007EE02400AC
:100C2300F582E43400F583E02FF0900080E004F0D7
:100C330080C20210DE90007EE0FF04F074002FF506
:100C430082E43400F58374F8F090007FE0FF9000B5
:100C53007EE0FE04F074002EF582E43400F583EFA9
:100C6300F090007EE0FF04F074002FF582E434007E
:100C7300F5837433F078A3E62404547F2422F8E642
:100C8300FF90007EE0FE04F074002EF582E4340051
:100C9300F583EFF0E4900080F0900001E02401FF81
:100CA300E433FE900080E0FDC39FEE6480F874801F
:100CB30098502474012DF582E43400F583E0FF900D
:100CC300007EE02400F582E43400F583E02FF09009
:100CD3000080E004F080C20210DE90007EE0FF049A
:100CE300F074002FF582E43400F58374F8F090007B
:100CF3007FE0FF90007EE0FE04F074002EF582E4B6
:100D03003400F583EFF090007EE0FF04F074002FD1
:100D1300F582E43400F5837435F078A3E6240454B3
:100D23007F2422F8E6FF90007EE0FE04F074002E9C
:100D3300F582E43400F583EFF0E4900080F0900056
:100D430001E02401FFE433FE900080E0FDC39FEE49
:100D53006480F8748098502474012DF582E4340083
:100D6300F583E0FF90007EE02400F582E43400F593
:100D730083E02FF0900080E004F080C20210DE9048
:100D8300007EE0FF04F074002FF582E43400F58365
:100D930074F8F090007FE0FF90007EE0FE04F074B2
:100DA300002EF582E43400F583EFF090007EE0FF3F
:100DB30004F074002FF582E43400F5837436F07880
:100DC300A3E62404547F2422F8E6FF90007EE0FE8D
:100DD30004F074002EF582E43400F583EFF0E49020
:100DE3000080F0900001E02401FFE433FE900080D6
:100DF300E0FDC39FEE6480F8748098502474012D45
:100E0300F582E43400F583E0FF90007EE02400F5F2
:100E130082E43400F583E02FF0900080E004F0805A
:100E2300C20210DE90007EE0FF04F074002FF58212
:100E3300E43400F58374F8F090007FE0FF90007EC7
:100E4300E0FE04F074002EF582E43400F583EFF045
:100E530090007EE0FF04F074002FF582E43400F587
:100E6300837437F078A3E62404547F2422F8E6FF42
:100E730090007EE0FE04F074002EF582E43400F569
:100E830083EFF0E4900080F0900001E02401FFE4A0
:100E930033FE900080E0FDC39FEE6480F874809879
:100EA300502474012DF582E43400F583E0FF9000B3
:100EB3007EE02400F582E43400F583E02FF0900017
:100EC30080E004F080C20210DE90007EE0FF04F0B8
:100ED30074002FF582E43400F58374F8F090007FFA
:100EE300E0FF90007EE0FE04F074002EF582E4340F
:100EF30000F583EFF090007EE0FF04F074002FF51F
:100F030082E43400F5837441F078A3E6FF240454AB
:100F13007F2422F8E6FE90007EE0FD04F074002DAD
:100F2300F582E43400F583EEF024FC6007240370BB
:100F330022EF800378A3E62405547F2422F8E6FFFA
:100F430090007EE0FE04F074002EF582E43400F598
:100F530083EFF0E4900080F0900001E02401FFE4CF
:100F630033FE900080E0FDC39FEE6480F8748098A8
:100F7300502474012DF582E43400F583E0FF9000E2
:100F83007EE02400F582E43400F583E02FF0900046
:100F930080E004F080C20210DE90007EE0FF04F0E7
:100FA30074002FF582E43400F58374F8F090007F29
:100FB300E0FF90007EE0FE04F074002EF582E4343E
:100FC30000F583EFF090007EE0FF04F074002FF54E
:100FD30082E43400F5837434F078A3E6FF240454E8
:100FE3007F2422F8E6FE90007EE0FD04F074002DDD
:100FF300F582E43400F583EEF024FE601014603AC9
:101003001460302403600302109BEF802978A3E669
:10101300FF2405547F2422F8E6FE90007EE0FD04C1
:10102300F074002DF582E43400F583EEF064017072
:1010330067802B78A3E62405804478A3E6FF240584
:10104300547F2422F8E6FE90007EE0FD04F0740055
:101053002DF582E43400F583EEF06401703AEF2459
:1010630006547F2422F8E6FE90007EE0FD04F0742F
:10107300002DF582E43400F583EEF0EF2407547F6E
:101083002422F8E6FF90007EE0FE04F074002EF5C3
:1010930082E43400F583EFF0E4900080F0900001E7
:1010A300E02401FFE433FE900080E0FDC39FEE6483
:1010B30080F8748098502474012DF582E43400F58F
:1010C30083E0FF90007EE02400F582E43400F583A2
:1010D300E02FF0900080E004F080C290007EE004F6
:1010E300F07B017A007900E0FD122D0B90007FE088
:1010F300240478A326F6800378A30678A3E6547F16
:05110300F60209632261
:102F560090005DEBF0A3EAF0A3E9F0AE05E4900083
:102F6600F2F0AF061EEF60469000F2E0FF90005DC3
:102F7600E0FBA3E475F001121F0AA9F0FA121E562F
:102F86006F9000F2F0E4A3F09000F3E0C3940850D1
:102F9600D19000F2E030E007C313648CF080079014
:102FA60000F2E0C313F09000F3E004F080DA900042
:042FB600F2E0FF2224
:102BEF00900051EBF0A3EAF0A3E9F0AE05E49000FA
:102BFF00F2F0AF061EEF606B9000F2E0FF90005115
:102C0F00E0FBA3E475F001121F0AA9F0FA121E5699
:102C1F006F9000F2F0900055E004F0A3E0FF9000F9
:102C2F0055E0C39F4012E4F0EFFDE49DFDE49400F6
:102C3F009000528DF0121EF4E49000F3F09000F328
:102C4F00E0C3940850AC9000F2E030E007C3136487
:102C5F008CF080079000F2E0C313F09000F3E004D3
:092C6F00F080DA9000F2E0FF228F
:1011080020202020444F4D45000105FFFFFF00002F
:10111800000100C864000014FF0000000000010086
:10112800C86400002400FF000000000100C864003B
:10113800003400FF000000000100C8640000440003
:10114800FF000000000100C86400005400FF000018
:1011580000000100C86400006400FF0000000001F6
:1011680000C86400007400FF000000000100C864AB
:10117800000020202020204C5355000203A020F01E
:10118800FFA5000100C864000013FFA500A020F01F
:101198000100C8640000040000FF0000000100C84E
:1011A800640000040000FF0000000100C8640000A3
:1011B800040000FF0000000100C8640000040000F3
:1011C800FF0000000100C8640000040000FF0000E8
:1011D800000100C8640000040000FF0000000100D6
:1011E800C864000020202020584D4153000303FF0D
:1011F800000000FF000100C86400001300FF00FFAA
:10120800FFFF0100C864000023FFFFFFFF0000018B
:1012180000C8640000040000FF0000000400C86467
:101228000000040000FF0000000400C8640000047F
:101238000000FF0000000400C8640000040000FF74
:101248000000000400C8640000040000FF00000063
:101258000400C86400002020204D41524449000485
:1012680003FF000000FF000100646400001300FF9A
:1012780000A020F001006464000023A020F0FFFF1C
:101288000001006464000033FFFF00FF000001005C
:1012980064640000440000FF0000000400C864000B
:1012A80000540000FF0000000400C864000064004F
:1012B80000FF0000000400C8640000740000FF0084
:1012C80000000400C8640000202020464144453145
:1012D800000104FF00000000000100C864000013C2
:1012E80000FF00A020F001006464000023A020F0AB
:1012F800FFFF0001006464000033FFFF00FF0000EF
:10130800010064640000440000FF0000000400C8FD
:10131800640000540000FF0000000400C8640000DE
:10132800640000FF0000000400C8640000740000AE
:10133800FF0000000400C86400002020204641444B
:10134800453200010400FF000000000100C86400ED
:10135800001300FF00A020F001006464000023A037
:1013680020F0FFFF0001006464000033FFFF00FF6E
:101378000000010064640000440000FF0000000455
:1013880000C8640000540000FF0000000400C864A6
:101398000000640000FF0000000400C8640000743E
:1013A8000000FF0000000400C86400002020204660
:1013B800414445330001040000FF0000000100C85B
:1013C8006400001300FF00A020F001006464000026
:1013D80023A020F0FFFF0001006464000033FFFF3A
:1013E80000FF0000010064640000440000FF0000EA
:1013F800000400C8640000540000FF00000004005E
:10140800C8640000640000FF0000000400C8640015
:1014180000740000FF0000000400C86400002020E1
:10142800204641444534000104A020F0000000019A
:1014380000C86400001300FF00A020F001006464ED
:10144800000023A020F0FFFF0001006464000033C7
:10145800FFFF00FF0000010064640000440000FF7B
:101468000000000400C8640000540000FF000000F1
:101478000400C8640000640000FF0000000400C805
:10148800640000740000FF0000000400C86400004D
:101498002020204641444535000104FFA5000000F6
:1014A800000100C86400001300FF00A020F0010044
:1014B8006464000023A020F0FFFF000100646400C2
:1014C8000033FFFF00FF00000100646400004400D7
:1014D80000FF0000000400C8640000540000FF0082
:1014E80000000400C8640000640000FF000000045D
:1014F80000C8640000740000FF0000000400C86415
:1015080000002020534841525031000105FF0000DF
:101518000000000100646400641300FF00A020F0D4
:1015280001006464000023A020F0FFFF00010064B4
:1015380064000033FFFF00FF000001006464000046
:10154800440000FF0000000400C8640000540000CC
:10155800FF0000000400C8640000640000FF0000F1
:10156800000400C8640000740000FF0000000400CC
:10157800C864000020205348415250320001050041
:10158800FF000000000100646400641300FF00A075
:1015980020F001006464000023A020F0FFFF000198
:1015A800006464000033FFFF00FF00000100646472
:1015B8000000440000FF0000000400C8640000545C
:1015C8000000FF0000000400C8640000640000FF81
:1015D8000000000400C8640000740000FF00000060
:1015E8000400C864000020205348415250330001D1
:1015F800050000FF0000000100646400641300FFA0
:1016080000A020F001006464000023A020F0FFFF88
:101618000001006464000033FFFF00FF00000100C8
:1016280064640000440000FF0000000400C8640077
:1016380000540000FF0000000400C86400006400BB
:1016480000FF0000000400C8640000740000FF00F0
:1016580000000400C8640000202053484152503460
:10166800000105A020F0000000010064640064137C
:1016780000FF00A020F001006464000023A020F017
:10168800FFFF0001006464000033FFFF00FF00005B
:10169800010064640000440000FF0000000400C86A
:1016A800640000540000FF0000000400C86400004B
:1016B800640000FF0000000400C86400007400001B
:1016C800FF0000000400C864000020205348415275
:1016D8005035000105FFA50000000001006464000A
:1016E800641300FF00A020F001006464006423A0DC
:1016F80020F0FFFF0001006464006433FFFF00FF77
:101708000000010064640000440000FF00000004C1
:1017180000C8640000540000FF0000000400C86412
:101728000000640000FF0000000400C864000074AA
:101738000000FF0000000400C86400002047524178
:101748004449454E000703FF0000FF7F0001006485
:1017580064000013FF7F00FFFF00010064640000C5
:1017680023FFFF0000FF000100646400003300FF56
:101778000000FFFF0100646400004300FFFF000059
:10178800FF010064640000530000FF8B00FF0100AC
:1017980064640000638B00FFFF00000100646400C4
:0E17A80000730000FF0000000400C864000091
:0B2E510044006E000000004100720011
:10361E007E007F067D007B017A0079681220CA7ECB
:10362E00007F017D007B017A0079731220CAE4FFCE
:03363E000232361F
:10370B00900073E0600414F08006900073740EF068
:08371B00900073E0FF0232365A
:10372300900073E004F0E0C3940F4002E4F09000D3
:0637330073E0FF023236D4
:10328B00900058EBF0A3EAF0A3E9F0EDD3940840DB
:10329B000A900058E4F0A3F0A3F022AF057E00C023
:1032AB0006C007900073E075F072A42408F974113E
:1032BB0035F0FA7BFFC003C002900058E0FBA3E09F
:1032CB00FAA3E0F8AC02AD03D002D003D007D006CE
:0432DB00121E30226D
:08000300900073E0FF023236A9
:10378600E47814F67818F608F6FBFAFDFCFFFE025C
:02379600000E23
:102C7800900055EFF02401FFE433FE900073E0FD6F
:102C880075F072A42411F582E5F03411F583E4930C
:102C9800540F6F7001EE7015900055F0ED75F072DD
:102CA800A42412F9741135F0FA7BFF801590007393
:102CB800E075F072A4241FF9741135F0FA7BFF90C7
:102CC8000055E075F00DA429F9EA35F0FA780D7C85
:102CD800007D007E007F0D121E30900073E075F0BD
:102CE80072A42408F9741135F0FA7BFF78747C001B
:092CF8007D017E007F0A021E30FE
:10323600AB07E4900068F0A312206D000000009038
:10324600006D7432F0900073EBF0E075F072A42418
:1032560012F9741135F0FA7BFF780D7C007D007E43
:10326600007F0D121E30900073E075F072A42408E2
:10327600F9741135F0FA7BFF78747C007D017E00CD
:053286007F0A021E306A
:1036D900AB07E4900068F0A312206D00000000E43D
:0936E90090006DF0AF03022C7893
:1000260090006DE0600314F0227814E6700A7819E7
:10003600E618467003020962780DE6540F24FC7038
:100046000302048A1470030206CB24026003020929
:1000560062900069E0FCA3E0FDA3E0FEA3E02401BA
:10006600FFE43EFEE43DFDE43CFC900069122061A5
:100076007811E6FF780EE6FEC39F4003020135EED7
:10008600FDC3EF9DFFE49400FE123833EE3395E096
:10009600FDFCC004C005C006C007E4FF7E01FDFCF0
:1000A600900069E0F8A3E0F9A3E0FAA3E0FB121FD1
:1000B60020D003D002D001D000121F20C006C007F6
:1000C6007815E6FE08E6FBAA06E4F9F8D007D0069E
:1000D600121FABC004A905AA06AB07780EE6FEE41C
:1000E600FCFDD0002BFFEA3EFEED39FDEC38FC901E
:1000F600006E1220617817E6FFE4FCFDFE90006EAC
:10010600E0F8A3E0F9A3E0FAA3E0FB121F20E47BEA
:1001160064FAF9F8121FAB90006E12206190006E1F
:10012600E0FCA3E0FDA3E0FEA3E0FFE40201E0782B
:100136000EE6FF7811E6C39FFFE49400FE12383303
:10014600EE3395E0FDFCC004C005C006C007E4FF21
:100156007E01FDFC900069E0F8A3E0F9A3E0FAA3B4
:10016600E0FB121F20D003D002D001D000121F20C6
:10017600C006C0077815E6FE08E6FBAA06E4F9F80D
:10018600D007D006121FABC004A905AA06AB077894
:100196000EE6FEE4D000C39BFFEE9AFEE499FDE472
:1001A60098FC90006E1220617817E6FFE4FCFDFED5
:1001B60090006EE0F8A3E0F9A3E0FAA3E0FB121FBB
:1001C60020E47B64FAF9F8121FAB90006E122061EE
:1001D60090006EA3A3E0FEA3E0FF1234F87812E6C7
:1001E600FF780FE6FEC39F5071EEFDC3EF9DFFE45F
:1001F6009400FE123833EE3395E0FDFCC004C005D2
:10020600C006C007E4FF7E01FDFC900069E0F8A38C
:10021600E0F9A3E0FAA3E0FB121F20D003D002D03E
:1002260001D000121F20C006C0077815E6FE08E6BA
:10023600FBAA06E4F9F8D007D006121FABC004A942
:1002460005AA06AB07780FE6FEE4FCFDD0002BFFFF
:10025600EA3EFEED39FDEC388072780FE6FF781243
:10026600E6C39FFFE49400FE123833EE3395E0FDBB
:10027600FCC004C005C006C007E4FF7E01FDFC907B
:100286000069E0F8A3E0F9A3E0FAA3E0FB121F205F
:10029600D003D002D001D000121F20C006C00778BC
:1002A60015E6FE08E6FBAA06E4F9F8D007D0061222
:1002B6001FABC004A905AA06AB07780FE6FEE4D07B
:1002C60000C39BFFEE9AFEE499FDE498FC90006E55
:1002D6001220617817E6FFE4FCFDFE90006EE0F860
:1002E600A3E0F9A3E0FAA3E0FB121F20E47B64FA83
:1002F600F9F8121FAB90006E12206190006EA3A356
:10030600E0FEA3E0FF1237F57813E6FF7810E6FE6D
:10031600C39F5071EEFDC3EF9DFFE49400FE1238BB
:1003260033EE3395E0FDFCC004C005C006C007E40B
:10033600FF7E01FDFC900069E0F8A3E0F9A3E0FA76
:10034600A3E0FB121F20D003D002D001D000121F61
:1003560020C006C0077815E6FE08E6FBAA06E4F903
:10036600F8D007D006121FABC004A905AA06AB0732
:100376007810E6FEE4FCFDD0002BFFEA3EFEED39E8
:10038600FDEC3880727810E6FF7813E6C39FFFE431
:100396009400FE123833EE3395E0FDFCC004C00530
:1003A600C006C007E4FF7E01FDFC900069E0F8A3EB
:1003B600E0F9A3E0FAA3E0FB121F20D003D002D09D
:1003C60001D000121F20C006C0077815E6FE08E619
:1003D600FBAA06E4F9F8D007D006121FABC004A9A1
:1003E60005AA06AB077810E6FEE4D000C39BFFEE35
:1003F6009AFEE499FDE498FC90006E12206178174D
:10040600E6FFE4FCFDFE90006EE0F8A3E0F9A3E051
:10041600FAA3E0FB121F20E47B64FAF9F8121FAB83
:1004260090006E12206190006EA3A3E0FEA3E0FF91
:100436001238027815E6FE08E6FFE4FCFD90006936
:10044600E0F8A3E0F9A3E0FAA3E0FBC312203D40E5
:100456001090006912206D000000007814E660011B
:10046600167814E660030209627819E618466007F2
:1004760008E616187001167819E618466003020990
:1004860062020958900068E07018A3E0FCA3E0FD42
:10049600A3E0FEA3E02401FFE43EFEE43DFDE43CD0
:1004A6008029900069E0FCA3E0FDA3E0FEA3E0FF45
:1004B600EC4D4E4F601C900069A3A3A3E024FFFF00
:1004C600EE34FFFEED34FFFDEC34FFFC90006912C4
:1004D6002061E47FFFFEFDFC900069E0F8A3E0F9EF
:1004E600A3E0FAA3E0FB121F20C004A905AA06ABED
:1004F60007780EE6FFE4FCFDFED000121F20C006C2
:10050600C0077815E6FE08E6FBAA06E4F9F8D00768
:10051600D006121FAB90006E1220617817E6FFE43A
:10052600FCFDFE90006EE0F8A3E0F9A3E0FAA3E07C
:10053600FB121F20E47B64FAF9F8121FAB90006EE1
:1005460012206190006EE0FCA3E0FDA3E0FEA3E0B4
:10055600FFE41234F8E47FFFFEFDFC900069E0F84A
:10056600A3E0F9A3E0FAA3E0FB121F20C004A9054B
:10057600AA06AB07780FE6FFE4FCFDFED000121FCB
:1005860020C006C0077815E6FE08E6FBAA06E4F9D1
:10059600F8D007D006121FAB90006E1220617817B4
:1005A600E6FFE4FCFDFE90006EE0F8A3E0F9A3E0B0
:1005B600FAA3E0FB121F20E47B64FAF9F8121FABE2
:1005C60090006E12206190006EE0FCA3E0FDA3E0B7
:1005D600FEA3E0FFE41237F5E47FFFFEFDFC90008A
:1005E60069E0F8A3E0F9A3E0FAA3E0FB121F20C03C
:1005F60004A905AA06AB077810E6FFE4FCFDFED0C9
:1006060000121F20C006C0077815E6FE08E6FBAA02
:1006160006E4F9F8D007D006121FAB90006E122040
:10062600617817E6FFE4FCFDFE90006EE0F8A3E0BB
:10063600F9A3E0FAA3E0FB121F20E47B64FAF9F8C1
:10064600121FAB90006E12206190006EE0FCA3E0DA
:10065600FDA3E0FEA3E0FFE41238027815E6FE08EB
:10066600E6FFE4FCFD900069E0F8A3E0F9A3E0FAF8
:10067600A3E0FBC312203D5014E4FFFEFDFC9000F6
:1006860069E0F8A3A3A3E0C312203D7015900068AB
:10069600E0700404F0800BE4900068F07814E660E3
:1006A60001167814E660030209627819E6184660B6
:1006B6000708E616187001167819E6184660030250
:0506C600096202095861
:1006CB0090005112206D000000FFE4FFFEFDFC9036
:1006DB000069E0F8A3E0F9A3E0FAA3E0FBC3122062
:1006EB003D60030207DE780EE6FFE4FCFDFE9000A2
:1006FB0051E0F8A3E0F9A3E0FAA3E0FB121F20C03E
:10070B0004A905AA06AB077817E6FFE4FCFDFED0AB
:10071B0000121F20E47B64FAF9F8121FAB90006EF5
:10072B0012206190006EE0FCA3E0FDA3E0FEA3E0CD
:10073B00FFE41234F8780FE6FFE4FCFDFE90005165
:10074B00E0F8A3E0F9A3E0FAA3E0FB121F20C0043A
:10075B00A905AA06AB077817E6FFE4FCFDFED0005F
:10076B00121F20E47B64FAF9F8121FAB90006E1293
:10077B00206190006EE0FCA3E0FDA3E0FEA3E0FF90
:10078B00E41237F57810E6FFE4FCFDFE900051E033
:10079B00F8A3E0F9A3E0FAA3E0FB121F20C004A921
:1007AB0005AA06AB077817E6FFE4FCFDFED00012A6
:1007BB001F20E47B64FAF9F8121FAB90006E122035
:1007CB006190006EE0FCA3E0FDA3E0FEA3E0FFE47C
:1007DB001238027815E6FE08E6FFE4FCFD9000698E
:1007EB00E0F8A3E0F9A3E0FAA3E0FBC312203D601D
:1007FB00030208EC7811E6FFE4FCFDFE900051E0EB
:10080B00F8A3E0F9A3E0FAA3E0FB121F20C004A9B0
:10081B0005AA06AB077817E6FFE4FCFDFED0001235
:10082B001F20E47B64FAF9F8121FAB90006E1220C4
:10083B006190006EE0FCA3E0FDA3E0FEA3E0FFE40B
:10084B001234F87812E6FFE4FCFDFE900051E0F85C
:10085B00A3E0F9A3E0FAA3E0FB121F20C004A90553
:10086B00AA06AB077817E6FFE4FCFDFED000121FCB
:10087B0020E47B64FAF9F8121FAB90006E12206132
:10088B0090006EE0FCA3E0FDA3E0FEA3E0FFE4120A
:10089B0037F57813E6FFE4FCFDFE900051E0F8A37A
:1008AB00E0F9A3E0FAA3E0FB121F20C004A905AAFC
:1008BB0006AB077817E6FFE4FCFDFED000121F2005
:1008CB00E47B64FAF9F8121FAB90006E1220619072
:1008DB00006EE0FCA3E0FDA3E0FEA3E0FFE4123812
:1008EB0002900069E0FCA3E0FDA3E0FEA3E024017D
:1008FB00FFE43EFEE43DFDE43CFC90006912206108
:10090B007916E7781926FF19E71836FEE4FCFD90F7
:10091B000069E0F8A3E0F9A3E0FAA3E0FBC312201F
:10092B003D401090006912206D000000007814E625
:10093B006001167814E6701F7819E61846600708F0
:10094B00E616187001167819E61846700A780DE647
:07095B00C4540FFF1236D94E
:010962002272
:0138AE0022F7
:0F37CA009000CCEBF0A3EAF0A3E9F0A3EDF0221E
:0138AF0022F6
:0138B00022F5
:1037980012374D12385D1232DF1236641236A1D25A
:0237A800AF224E
:042E5C004100F4003D
:1036A100E49000F4F0FE7F82FDFB7A007922122083
:0C36B100CA7F6C7EB07D017C000234BD3D
:0300230002348222
:10348200C0E0C083C082C0D075D000C00030981B9D
:10349200C29878A2E6062422F8A69978A2E6C394F6
:1034A20080400276009000F4E004F0309902C29964
:0B34B200D000D0D0D082D083D0E03218
:082E60004100BF004100C00069
:103664001236BD5389F0438901538EF79000BF741D
:10367400FAF0A374C4F0758CFAF58AD2A9D28C221C
:1036BD00E49000B6F09000B8F09000BCF0A3F0904C
:0C36CD0000B7F09000B9F09000BEF022B1
:03000B00022D8043
:102D8000C0E0C0F0C083C082C0D075D000C000C019
:102D9000069000BFE0F58CA3E0F58A9000B6E00451
:102DA000F0C3940A4005E4F0A304F09000B8E004F6
:102DB000F0C394644005E4F0A304F09000BAE0048A
:102DC000F0C394F4748094814005E4F0A304F0907F
:102DD00000BCE475F001121EF4FEC3E5F094E8EEC9
:102DE0009403400A9000BCE4F0A3F0A304F0D006E2
:0D2DF000D000D0D0D082D083D0F0D0E0321F
:1035FA000A6D679C46F6375D4521EFAC5A50010BC0
:10360A00DF020A6D679C46F6375D4521EFAC5A50DA
:04361A00E10BDF02DF
:082E68004500C7CCCCCCCCCC5A
:10374D0053B3FE43B40153B3FD43B40253B1FE432F
:03375D00B2012294
:0138B10022F4
:10368400E4FEC290EF30E704D2808002C280EF25CE
:0C369400E0FFD290000EEEB408E8C290F7
:0136A0002207
:04376000E4FD7FFC09
:0F376400C29100123684AF0512368400D2912232
:0A3380007B019000677405F07F3FA9
:0B338A00900064EBF0A3EAF0A3E9F070
:10339500C291E4FD123684900067E0FFEDC39F50B3
:1033A5001A900064E0FBA3E0FAA3E0F98D8275832F
:0D33B50000121E6FFF1236840D80DCD291D5
:0133C20022E8
:10364100E4FEC290EF30E704D2808002C280EF2511
:10365100E0FFD290000EEEB408E843B10153B2FE90
:02366100C29015
:013663002244
:1036F200E4FFFEC290EF25E0FFD290308003440148
:08370200FF0EEEB408EDC290C9
:01370A00229C
:10377300C291001236411236F253B1FE43B2010038
:02378300D291E1
:013785002221
:0B340600900052EBF0A3EAF0A3E9F005
:10341100C291123641E4FD900055E0FFEDC39F508B
:103421001A1236F2900052E0FBA3E0FAA3E0F98D04
:1034310082758300EF121E9C0D80DC53B1FE43B2F6
:0334410001D29124
:013444002265
:0E37D9001237607D8E7F2012376400000022C0
:1035D400E4FEFD7FFC1237647D8F7F20123764E4A4
:1035E400FD7FFD123764E4FEFF000FBF00010EBE35
:0535F40013F7BF88F48D
:0135F90022AF
:0A3849007F07123773EF5470FF225F
:063895007F0912377322C7
:07388E007D707F2702376403
:0C382700E4FD7FE11237647FE2023764A9
:0E37E700AC07123760AF04AD077F25023764D0
:0633C300123849EF703CD6
:1033C900900051F0A3F0900067EDF07FA012338ACE
:1033D900E4FD7FFD123764E4900051F0A3F0009002
:1033E9000052E004F07006900051E004F0900051A2
:0C33F900E07004A3E064C870E5123760C7
:0134050022A4
:10355D00AC05123849EF30E61D123760900055EC7E
:10356D00F07F6112340612382712388EE4FD7FFD8C
:09357D001237647F01227F002255
:1026830078517C007D017BFF7A3579FA7E007F05E6
:10269300121E3078567C007D017BFF7A3579FF7EF0
:1026A300007F03121E3078597C007D017BFF7A3650
:1026B30079027E007F06121E30785F7C007D017BED
:1026C300FF7A3679087E007F01121E3078607C0025
:1026D3007D017BFF7A3679097E007F03121E30125B
:1026E30038B17D5A7F531237647DA57F5312376407
:1026F3007D207F3D1237641237607FE11237647F9C
:10270300E21237647D707F271237647D017F2212C6
:1027130037647D037F231237647D4E7F2512376430
:102723007D107F311237647B017A0079C79000678F
:102733007405F07F3012338A7B017A0079C79000E9
:10274300677405F07F2A12338A7A00795112338035
:102753007B017A0079599000677406F07F3A12334F
:102763008A7B017A00795F9000677401F07F3912E8
:10277300338A7B017A0079569000677403F07F3EB9
:1027830012338A7B017A0079609000677403F07FCB
:102793003B12338AE4FD7F3C1237647D3F7F261270
:0E27A3003764E4FD7F241237647F210237641F
:0529BD00900091EFF015
:1029C200E478927C007D017BFF7A36790CFE7F05EC
:1029D200121E3078977C007D017BFF7A3679117E5A
:1029E200007F03121E30789A7C007D017BFF7A36CD
:1029F20079147E007F06121E3078A07C007D017B58
:102A0200FF7A36791A7E007F01121E3078A17C008F
:102A12007D017BFF7A36791B7E007F03121E307D9B
:102A22005A7F531237647DA57F531237647D207F0E
:102A32003D123764123760E4FF000000000FEFB46C
:102A4200DCF7900091E0FD7F251237647D3F7F2601
:102A52001237647A0079921233807B017A00799A74
:102A62009000677406F07F3A12338A7B017A00790C
:102A7200A09000677401F07F3912338A7B017A00DB
:102A820079979000677403F07F3E12338A7B017A54
:0E2A92000079A19000677403F07F3B02338A45
:1032DF0053B1F743B20853B1EF43B21053B3FB43AB
:1032EF00B40443DE01A2AF9209C2AF75C7AA75C776
:1032FF005543910143C60875C7AA75C7555391FE2B
:10330F00A20992AF43DE2053DF3F43DF0153DFF9C2
:10331F0075D1FF75D9FFD2DFE4FBFAFDFCFFFE028A
:02332F00000E8E
:1034F800AD07AC06A2AF9209C2AF75C7AA75C7558A
:10350800439101A20992AFECF5C5EDF5CDA2AF92BA
:1035180009C2AF75C7AA75C7555391FEA20992AFE4
:03352800D2DE22CE
:0D37F500AD07AC06ECF5D5EDF5DDD2DE221A
:0D380200AD07AC06ECF5D2EDF5DAD2DE2212
:10000E008D828C831234F8AE83AF821237F5AE0236
:05001E00AF03023802EF
:09385D0053B3EF43B4100238A488
:0338A100D294229C
:0338A400C29422A9
:0338A700B29422B6
:06389B00A294E433FF22B9
:0A385300EF60030238A11238A4222E
:042E70004100C3005A
:0138B20022F3
:1024E200AB07AA06A9059000C4EFF0C3948050047C
:1024F200E4F080069000C47480F09000C1E4F0A380
:102502007480F09000C4E07C002400FEEC3AA3F05A
:10251200A3CEF09000C1E0FEA3E0FF7003EE6401E1
:1025220060369000C5E0FCA3E0F5828C83E4938FD3
:10253200828E83F09000C3E004F09000C2E004F0C9
:1025420070069000C1E004F09000C6E004F070C391
:102552009000C5E004F080BBAF039000C4EFF0C36D
:102562009480500FE02480FEE4339000C1F0A3CEAB
:10257200F0800D9000C4E0FF9000C1E4F0A3EFF002
:102582009000C1E0FCA3E0F5828C83E9F0AD038DFD
:10259200A6EAFFF5A775AEFFA2AF9209C2AF75C753
:1025A200AA75C755439F01A20992AFA2AF9209C271
:1025B200AF75C7AA75C75543A501A20992AF75AFFA
:1025C20022A2AF9209C2AF75C7AA75C75543A4012B
:1025D200A20992AF9000C4EDF0C394805004E4F0DD
:1025E20080069000C47480F09000C1E4F0A374806F
:1025F200F09000C4E0F5A68FA7A2AF9209C2AF7512
:10260200C7AA75C755439F01A20992AFA2AF92090B
:10261200C2AF75C7AA75C75543A501A20992AF7586
:10262200AF219000C1E0FEA3E0FFF44E602C8F8248
:102632008E83E0F5AEA2AF9209C2AF75C7AA75C785
:102642005543A401A20992AF05A69000C2E004F08E
:1026520070D09000C1E004F080C8A2AF9209C2AF6E
:1026620075C7AA75C75553A5FEA20992AFA2AF922C
:1026720009C2AF75C7AA75C755539FFEA20992AF8B
:012682002235
:043866008F828E833C
:03386A00E493FFE5
:01386D002238
:1034BD0053B1BF53B2BF53B17F53B27F75985043D1
:1034CD008920438780438E1053C4DFAB07AA06A91A
:1034DD0005A8047F407E427D0F7C00121FABEF04D8
:0B34ED00F404F58DD28ED299D2AC22EF
:102E75009000D012206153B1BF53B2BF53B17F53FD
:102E8500B27F75985043878053C4F843C42090009F
:102E9500D0E0F8A3E0F9A3E0FAA3E0FB7F407E428F
:102EA5007D0F7C00121FABC374FF9FFF74FF9EFE56
:102EB500E49DFDE49CFC780812204E8FC69000D05E
:102EC500E0F8A3E0F9A3E0FAA3E0FB7F407E427DB2
:102ED5000F7C00121FABC374FF9FFF8FC543C4084F
:032EE500D299225D
:07386E003098FDAF99C298EC
:013875002230
:08387600C2998F993099FD22DF
:102EE8009000D412206153B1FB53B2FB53B3BF53CC
:102EF800B4BF75F85075C40853C4DF9000D4E0F827
:102F0800A3E0F9A3E0FAA3E0FB7F407E427D0F7CBB
:102F180000121FABC374FF9FFF74FF9EFEE49DFD6C
:102F2800E49CFC780812204E8FC69000D4E0F8A3E9
:102F3800E0F9A3E0FAA3E0FB7F407E427D0F7C002E
:0E2F4800121FABC374FF9FFF8FC543C4082246
:07387E0030F8FDAF9AC2F81B
:013885002220
:08388600C2F98F9A30F9FD220E
:10312B009000D8122061538EF7438901D28CE4FFB3
:10313B00FEFDFC9000D8E0F8A3E0F9A3E0FAA3E0D1
:10314B00FBC312203D602F758A7E758CFF308DFD81
:10315B00C28D9000D8E0FCA3E0FDA3E0FEA3E02429
:10316B00FFFFEE34FFFEED34FFFDEC34FFFC90006F
:09317B00D812206180B8C28C2238
:103184009000DC122061538EF7438901D28CE4FF56
:10319400FEFDFC9000DCE0F8A3E0F9A3E0FAA3E074
:1031A400FBC312203D602F758ACA758CFA308DFDE1
:1031B400C28D9000DCE0FCA3E0FDA3E0FEA3E024CC
:1031C400FFFFEE34FFFEED34FFFDEC34FFFC900016
:0931D400DC12206180B8C28C22DB
:1031DD009000E0122061538EEF438910D28EE4FFF0
:1031ED00FEFDFC9000E0E0F8A3E0F9A3E0FAA3E017
:1031FD00FBC312203D602F758BEA758DCB308FFD93
:10320D00C28F9000E0E0FCA3E0FDA3E0FEA3E0246C
:10321D00FFFFEE34FFFEED34FFFDEC34FFFC9000BC
:09322D00E012206180B8C28E227B
:103019009000E412206153C9BF53C9DF43C910D2DC
:10302900CAE4FFFEFDFC9000E4E0F8A3E0F9A3E0A8
:10303900FAA3E0FBC312203D602F75CC3075CDF8A3
:1030490030CFFDC2CF9000E4E0FCA3E0FDA3E0FE99
:10305900A3E024FFFFEE34FFFEED34FFFDEC34FF67
:0C306900FC9000E412206180B8C2CA2272
:103075009000E812206175C40743C408E4FFFEFD13
:10308500FC9000E8E0F8A3E0F9A3E0FAA3E0FBC3B5
:1030950012203D603275C52C75C6CFE5C430E4FB02
:1030A50053C4EF9000E8E0FCA3E0FDA3E0FEA3E03D
:1030B50024FFFFEE34FFFEED34FFFDEC34FFFC9002
:0B30C50000E812206180B553C4F72220
:1030D0009000EC12206175C40743C408E4FFFEFDB4
:1030E000FC9000ECE0F8A3E0F9A3E0FAA3E0FBC356
:1030F00012203D603275C5D875C6FFE5C430E4FBCB
:1031000053C4EF9000ECE0FCA3E0FDA3E0FEA3E0DD
:1031100024FFFFEE34FFFEED34FFFDEC34FFFC90A6
:0B31200000EC12206180B553C4F722C0
:1027B1000A3D3D3D3D3D3D3D3D3D3D3D3D3D3D3D7B
:1027C1003D3D3D3D3D3D3D3D3D3D3D3D3D3D3D3D38
:1027D1003D3D3D3D3D3D3D3D3D3D3D3D3D3D3D3D28
:1027E1003D3D3D3D3D3D3D3D3D3D3D3D3D3D3D3D18
:1027F1003D3D3D3D3D000A2A2020436F70797269BD
:102801006768742863292032303135204E75766F20
:10281100746F6E20546563686E6F6C6F67792043C7
:102821006F72702E20416C6C20726967687473201E
:1028310072657365727665642E2020000A2A202055
:10284100436F6E7461637420452D4D61696C3A204C
:102851004D6963726F432D38626974406E75766F8E
:10286100746F6E2E636F6D20202020202020202089
:102871002020202020202020202020202020202057
:1028810020000A2A202044656D6F20566572736905
:102891006F6E20203A202532642E2532642E253297
:1028A10064000A2A202046696E69736865642044C1
:1028B100617465203A202532642E2532642E25323A
:0228C1006400B1
:102FBA007BFF7A2779B11221E87BFF7A2779F7120A
:102FCA0021E87BFF7A28793D1221E87BFF7A28796C
:102FDA008390002CE4F0A304F0E4A3F0A3F0A3F0A0
:102FEA00A3F01221E87BFF7A2879A390002C7407BA
:102FFA00F0A374DFF0A3E4F0A37405F0A3E4F0A354
:0F300A00741FF01221E87BFF7A2779B10221E8C9
:03000000022B557B
:102B5500787FE4F6D8FD9000007FFF7E03E4F0A3C4
:0A2B6500DFFCDEFA7581A3022BAA43
:102B6F00023445E493A3F8E493A34003F68001F203
:102B7F0008DFF48029E493A3F85407240CC8C33367
:102B8F00C4540F4420C8834004F456800146F6DF36
:102B9F00E4800B0102040810204080902DFDE47E9C
:102BAF00019360BCA3FF543F30E509541FFEE4932B
:102BBF00A360010ECF54C025E060A840B8E493A3F2
:102BCF00FAE493A3F8E493A3C8C582C8CAC583CA1D
:102BDF00F0A3C8C582C8CAC583CADFE9DEE780BED5
:012E7400005D
:101D6000E709F608DFFA8046E709F208DFFA803E65
:101D700088828C83E709F0A3DFFA8032E309F60852
:101D8000DFFA8078E309F208DFFA807088828C83BA
:101D9000E309F0A3DFFA806489828A83E0A3F6086E
:101DA000DFFA805889828A83E0A3F208DFFA804C48
:101DB00080D280FA80C680D4806980F2803380101F
:101DC00080A680EA809A80A880DA80E280CA803388
:101DD00089828A83ECFAE493A3C8C582C8CCC58300
:101DE000CCF0A3C8C582C8CCC583CCDFE9DEE780D0
:101DF0000D89828A83E493A3F608DFF9ECFAA9F04F
:101E0000EDFB2289828A83ECFAE0A3C8C582C8CCA4
:101E1000C583CCF0A3C8C582C8CCC583CCDFEADEBD
:101E2000E880DB89828A83E493A3F208DFF980CC1F
:101E300088F0EF60010E4E60C388F0ED2402B40418
:101E40000050B9F582EB2402B4040050AF232345BF
:061E50008223901DB07317
:101E5600BB010689828A83E0225002E722BBFE028A
:091E6600E32289828A83E49322BD
:101E6F00BB010CE58229F582E5833AF583E0225028
:101E7F0006E92582F8E622BBFE06E92582F8E22272
:0D1E8F00E58229F582E5833AF583E493228C
:101E9C00F8BB010DE58229F582E5833AF583E8F07C
:101EAC00225006E92582C8F622BBFE05E92582C828
:021EBC00F22210
:101EBE00C2D5EC30E709B2D5E4C39DFDE49CFCEE3F
:101ECE0030E715B2D5E4C39FFFE49EFE122108C38E
:101EDE00E49DFDE49CFC800312210830D507C3E489
:061EEE009FFFE49EFE22AE
:101EF400C5F0F8A3E028F0C5F0F8E5821582700279
:061F04001583E038F02215
:101F0A00A3F8E0C5F025F0F0E5821582700215838A
:061F1A00E0C838F0E822E7
:101F2000E88FF0A4CC8BF0A42CFCE98EF0A42CFC60
:101F30008AF0EDA42CFCEA8EF0A4CDA8F08BF0A4DE
:101F40002DCC3825F0FDE98FF0A42CCD35F0FCEB3D
:101F50008EF0A4FEA9F0EB8FF0A4CFC5F02ECD3902
:0F1F6000FEE43CFCEAA42DCE35F0FDE43CFC226F
:101F6F0075F008758200EF2FFFEE33FECD33CDCC29
:101F7F0033CCC58233C5829BED9AEC99E5829840AC
:101F8F000CF582EE9BFEED9AFDEC99FC0FD5F0D689
:101F9F00E4CEFBE4CDFAE4CCF9A88222B800C1B9B3
:101FAF000059BA002DEC8BF084CFCECDFCE5F0CBF1
:101FBF00F97818EF2FFFEE33FEED33FDEC33FCEB2A
:101FCF0033FB10D703994004EB99FB0FD8E5E4F9E5
:101FDF00FA227818EF2FFFEE33FEED33FDEC33FCD2
:101FEF00C933C910D7059BE99A4007EC9BFCE99AC6
:101FFF00F90FD8E0E4C9FAE4CCFB2275F010EF2F0B
:10200F00FFEE33FEED33FDCC33CCC833C810D7070A
:10201F009BEC9AE899400AED9BFDEC9AFCE899F845
:0E202F000FD5F0DAE4CDFBE4CCFAE4C8F922D8
:10203D00EB9FF5F0EA9E42F0E99D42F0E89C45F0F9
:01204D002270
:10204E00E8600FECC313FCED13FDEE13FEEF13FF70
:03205E00D8F12294
:0C206100ECF0A3EDF0A3EEF0A3EFF022F2
:10206D00A8828583F0D083D082122084122084121E
:10207D002084122084E473E493A3C583C5F0C58343
:10208D00C8C582C8F0A3C583C5F0C583C8C582C8BD
:01209D002220
:10209E00D083D082F8E4937012740193700DA3A3D1
:1020AE0093F8740193F5828883E4737402936860E5
:0620BE00EFA3A3A380DFE5
:0620C4008A838982E473A7
:10217D00E508242CF582E43400F583E0050822906F
:10218D00002930070390002CE475F00112215D0247
:10219D001E562000E97F2ED2008018EF540F249098
:1021AD00D43440D4FF30040BEF24BFB41A005003D5
:1021BD002461FFE50960021509050CE50C700205A7
:1021CD000B30070E900029E475F00112215DEF022E
:1021DD0020F60235AD7403D2078003E4C207F5087B
:1021ED00900029122174E4F509F50BF50CE5096051
:1021FD00077F201221C080F5750AFFC201C200C2FF
:10220D0002C203C205C206C20812218CFF700D3036
:10221D0007057F001221D1AF0CAE0B22B4255FC292
:10222D00D5C20412218CFF24D0B40A00501A75F0C7
:10223D000A780930D50508B6FF0106C6A426F62092
:10224D00D5047002D20380D924CFB41A00EF500404
:10225D00C2E5D2040223D2D20180C6D20080C0D200
:10226D000280BCD2D580BAD20580B47F201221C0A5
:10227D002002077401B5090040F112217DFF1221E2
:10228D00C00221FAD208D206809512217DFB1221BF
:10229D007DFA12217DF94A4B700679A37A247BFFD2
:1022AD0020022EE509602A7E008E82758300121EA3
:1022BD006F60060EEE650A70F0C2D5EBC0E0EAC0A5
:1022CD00E0E9C0E0EE122419D0E0F9D0E0FAD0E058
:1022DD00FB121E56FF60AAEBC0E0EAC0E0E9C0E0C9
:1022ED001221C0D0E02401F9D0E03400FAD0E0FB97
:1022FD00E50A0460DCD50AD980877BFF7A2479153D
:10230D00D202809C791080027908C206C20880082A
:10231D00D2D5790A8004790AC2D5E50A047002F58E
:10232D000AE4FAFDFEFF12217DFC7B082001131249
:10233D00217DFD7B1030000A12217DFE12217DFFD3
:10234D007B20EC3382D592D55013C3E43000069F29
:10235D00FFE49EFEE42001039DFDE49CFCE4CBF82C
:10236D00C201EC700CCFCECDCCE824F8F870F38020
:10237D0017C3EF33FFEE33FEED33FDEC33FCEB33E0
:10238D00FB994002FB0FD8E9EB300105F8D0E0C412
:10239D0048B201C0E00AEC4D4E4F78207B0070C270
:1023AD00EAB50A0040BCC0E012241BD0F0D0E020FA
:1023BD000104C4C0E0C4B201C0F01221A9D0F0D50F
:1023CD00F0EB0221FA12209E229753231158226816
:1023DD004C22644223154F231D44231D49227D4366
:0823ED002323552307462307B3
:1023F5004523074724C350226C2D22702E22932B90
:1024050022742322912024AC2A222C480000228BFE
:102415003F3F3F00790AA2D5200314300509B910C2
:10242500020404B9080104A2D520060250010420C3
:1024350002689202B509005034C0E07F20300319CC
:102445007F30A20272067205500F122472C202C2B8
:1024550006C205C2087F30800F300503E9C0E012CF
:1024650021C0300503D0E0F9D0E0B509CC3005171F
:102475007F30B9100C1221C07F583004077F788057
:1024850003B908031221C03002057F2D0221C07F48
:10249500202008F87F2B2006F322920280CF286E99
:1024A500756C6C2900D20112217D3001F8C20178CA
:1024B5000930D50108F602222C2D50434958122126
:1024C5007D2403B405004001E49024BE931221B19C
:0D24D500743A1221B1D203750904022311DB
:0C383300EE30E707C3E49FFFE49EFE2296
:1020CA00EF4E6012EF60010EEDBB010B89828A832D
:1020DA00F0A3DFFCDEFA2289F05007F709DFFCA93A
:0C20EA00F022BBFEFCF309DFFCA9F02291
:1020F600BB010689828A83F0225002F722BBFE01C9
:02210600F322C2
:10210800BC000BBE0029EF8DF084FFADF022E4CCBB
:10211800F875F008EF2FFFEE33FEEC33FCEE9DEC84
:10212800984005FCEE9DFE0FD5F0E9E4CEFD22EDCA
:10213800F8F5F0EE8420D21CFEADF075F008EF2F14
:10214800FFED33FD4007985006D5F0F222C398FD05
:052158000FD5F0EA22A2
:10215D00F8E0FBA3A3E0F925F0F0E582158270020B
:07216D001583E0FA38F022AF
:09217400EBF0A3EAF0A3E9F0226C
:1035AD00EFB40A07740D1235B8740A309811A89942
:1035BD00B8130CC2983098FDA899C298B811F6307E
:0735CD0099FDC299F5992256
:00000001FF
