:042FC500410226009F
:102CF70012000E123EDF123AD4123EDB123D0C12C6
:102D070034689001E6E06060E4F0900226E004F0A9
:102D17009000A4E0FFC394324027EF24CEFFE434B1
:102D2700FFFE7C007D03121E5AEF240AFFE43EFEDD
:102D3700900226E0D39FEE6480F874809840298043
:102D4700229000A4E0FFC374329FFFE49400FE7C4E
:102D5700007D06121E5AC3740A9FFF900226E0D315
:102D67009F4005E4F01214699001E8E06005E4F083
:102D7700123CBE9001EAE06008E4F012002612352A
:102D87006A9001ECE06002E4F09001EFE06002E499
:102D9700F0123C6B900192EFF07003022D09E024D2
:102DA700FC602524036003022D09900223E0FF3015
:102DB700E30954F7F0123CA3022D09900223E044E3
:0E2DC70008F0123D3C022D09123ED8022D09E3
:013EDB0022C4
:013EDC0022C3
:013EDD0022C2
:013EDE0022C1
:063EAE009001E0022187F3
:063EB4009001E3022187EA
:0E3DC6009001E0122167E94A60031221D62223
:0E3DD4009001E3122167E94A60031221D62212
:103A4700EF4E602D9001D6EEF0A3EFF0AF05A3EC9B
:103A5700F0A3EFF0AF03A3EAF0A3EFF0E4A3F0A322
:103A6700F0A3F0A3F09001D5F09001D404F0123D3B
:023A7700C62265
:103D5300E49001D4F0123DD47B007A007900123E46
:043D6300AE023EB4BA
:102DD5009001D4E07003022E899001D8E0FEA3E0B3
:102DE500FF4E7003022E899001D5E07035D3EF9424
:102DF50000EE94005003022E899001DCE475F00189
:102E0500121EE5FED39001D7E095F09001D6E09E25
:102E15005072123DD4E49001DCF0A3F09001D5048A
:102E2500F0229001D5E06401705A9001DC75F00143
:102E3500121EE5FED39001D9E095F09001D8E09EF1
:102E450050429001DAE0FEA3E0FF9400EE940040CA
:102E5500259001DEE475F001121EE5FCD3EF95F037
:102E6500EE9C5005E49001D4F09001D4E0700790F9
:102E750001D8F0A3F022E49001DCF0A3F09001D595
:052E8500F0123DC62221
:102FC90041015100500152000000000000000000C2
:102FD9000000000000000050014100000000000056
:102FE900000000000000000000004801620000002D
:052FF9000000000000D3
:103AD400E4900151F0FE7F10FD7B017A01795212CE
:103AE40021DC7E007F107D007B017A017941122167
:073AF400DC1226DA023B227E
:0A30CF0004F07B017A017941E0FD75
:0B30D90090019A12218790019DEDF0FC
:1030E400E4FFFE0000000FBF00010EEF64144E70F9
:1030F400F2123DE29001517401F0E4FEFF00000081
:10310400000FBF00010EEF64C84E70F190019A12D7
:10311400216774019001416B7008E965827003EACC
:10312400658360257E007F107D007B017A017941F3
:103134001221DC90019DE0FF7E0078417C017D013D
:0931440090019A122167121D8707
:01314D00225F
:060BEB0090019312218726
:100BF100E4900196F0A3F0A3F0A3F0121DAD64F20E
:100C01006003021468900193122167900001121D84
:100C1100C6D394104003021468E4900197F0900148
:100C210093122167900001121DC62401FFE433FED7
:100C3100900197E0FDC39FEE6480F8748098502383
:100C4100ED2401FFE433FE9001931221678F828E20
:100C510083121DC6FF900199E02FF0900197E004E7
:100C6100F080BB900193122167900001121DC6F51F
:100C710082758300A3A3121DC6FF900199E06F60E6
:100C8100030214687E007F107D007B017A017941A7
:100C91001221DCE4900198F09001931221679000F9
:100CA10002121DC61221B00D00010ECF020F7E03EC
:100CB1001163041165051167061169071178080DA3
:100CC100DA0911875011A55111C35211D25311F4F0
:100CD10054131E55132456134357135B58136E595F
:100CE10013745A137A5B13925C13985D13B05E11FF
:100CF100967011B471116373102DB90000145F90D7
:100D01000223E0FF20E00302119630E10854FDF0D8
:100D1100123D3C800A900223E04402F0123CA39071
:100D21000198E0FF04F074412FF582E43401F5836A
:100D310074F8F0900198E0FF04F074412FF582E41B
:100D41003401F583740AF0900198E0FF04F07441D6
:100D51002FF582E43401F5837401F0900222E0C39F
:100D610013A3E0135401FF900198E0FE04F07441D5
:100D71002EF582E43401F583EFF0900198E02441EF
:100D8100F9E43401FA7B017D08123A79900198E087
:100D91002408F0E4900197F0900142E02401FFE47F
:100DA10033FE900197E0FDC39FEE6480F874809854
:100DB100502474422DF582E43401F583E0FF900163
:100DC10098E02441F582E43401F583E02FF09001AD
:100DD10097E004F080C202131490019312216790EE
:100DE1000003121DC6B40105123ED2802690019364
:100DF100122167900003121DC6B40205123ED58070
:100E010012900193122167900003121DC6B40303CF
:100E1100123ED8900198E0FF04F074412FF582E46E
:100E21003401F58374F8F0900198E0FF04F0744107
:100E31002FF582E43401F5837402F09001931221BD
:100E410067900002121DC6FF900198E0FE04F07445
:100E5100412EF582E43401F583EFF0123EC0EF90AC
:100E610001986013E0FF04F074412FF582E434012E
:100E7100F5837401F08011E0FF04F074412FF582D5
:100E8100E43401F5837402F0E4900197F09001429B
:100E9100E02401FFE433FE900197E0FDC39FEE647F
:100EA10080F8748098400302145F74422DF582E447
:100EB1003401F583E0FF900198E02441F582E434A8
:100EC10001F583E02FF0900197E004F080BF9002DC
:100ED10023E0FF20E0030211A530E10302145F12B9
:100EE1003CD9900198E0FF04F074412FF582E4347D
:100EF10001F58374F8F0900198E0FF04F074412F3C
:100F0100F582E43401F5837409F0900198E0FF045F
:100F1100F074412FF582E43401F5837402F09001FD
:100F210098E02441F9E43401FA7B017D08123A7911
:100F3100900198E02408F0E4900197F0900142E0DC
:100F41002401FFE433FE900197E0FDC39FEE64802E
:100F5100F8748098502474422DF582E43401F583AD
:100F6100E0FF900198E02441F582E43401F583E04B
:100F71002FF0900197E004F080C202131490022335
:100F8100E0FF20E0030211D230E10302145F123DC1
:100F910024900198E0FF04F074412FF582E43401BC
:100FA100F58374F8F0900198E0FF04F074412FF597
:100FB10082E43401F5837409F0900198E0FF04F0B4
:100FC10074412FF582E43401F5837403F0900198A4
:100FD100E02441F9E43401FA7B017D08123A799069
:100FE1000198E02408F0E4900197F0900142E02498
:100FF10001FFE433FE900197E0FDC39FEE6480F8AA
:10100100748098502474422DF582E43401F583E014
:10101100FF900198E02441F582E43401F583E02F4B
:10102100F0900197E004F080C2021314900223E0D3
:1010310030E00554FEF08007900223E04401F09077
:101041000198E0FF04F074412FF582E43401F58347
:1010510074F8F0900198E0FF04F074412FF582E4F8
:101061003401F583740BF0900198E0FF04F07441B2
:101071002FF582E43401F58374B9F0900222E0FE89
:10108100A3E0FF5401FD900198E0FC04F074412CB1
:10109100F582E43401F583EDF0EEC313EF1354014F
:1010A100FF900198E0FE04F074412EF582E43401D2
:1010B100F583EFF0900198E02441F9E43401FA7BE3
:1010C100017D08123A79E4900197F0900197E0FFD1
:1010D100C394085040A3E0FE2441F582E43401F5B5
:1010E10083E5822FF582E43583F583E06003B4FF65
:1010F1001C900197E0FF74412EF582E43401F583E1
:10110100E5822FF582E43583F5837420F090019711
:10111100E004F080B6900198E02408F0E490019793
:10112100F0900142E02401FFE433FE900197E0FDDD
:10113100C39FEE6480F8748098502474422DF58228
:10114100E43401F583E0FF900198E02441F582E465
:101151003401F583E02FF0900197E004F080C202A2
:101161001314807C804D805A7B007A007900E490D2
:10117100019EF07F0780767B007A007900E4900180
:101181009EF07F0880677B007A007900E490019EE1
:10119100F07F0880587B007A007900E490019EF08E
:1011A1007F0180497B007A007900E490019EF07F05
:1011B10002803A7B007A007900E490019EF07F057D
:1011C100802B7B007A007900E490019EF07F0680FD
:1011D1001C7B007A007900E490019EF07F03800D72
:1011E1007B007A007900E490019EF07F04122A3599
:1011F10002145F900223E0FF30E10854FDF0123D3C
:101201003C800A900223E04402F0123CA390019832
:10121100E0FF04F074412FF582E43401F58374F8A2
:10122100F0900198E0FF04F074412FF582E434015D
:10123100F583740AF0900198E0FF04F074412FF5F2
:1012410082E43401F5837401F0900222E0C313A318
:10125100E0135401FF900198E0FE04F074412EF573
:1012610082E43401F583EFF0900198E02441F9E440
:101271003401FA7B017D08123A79E4900197F090EC
:101281000197E0FFC394085040A3E0FE2441F5829A
:10129100E43401F583E5822FF582E43583F583E0BB
:1012A1006003B4FF1C900197E0FF74412EF582E4C6
:1012B1003401F583E5822FF582E43583F5837420CB
:1012C100F0900197E004F080B6900198E02408F0D6
:1012D100E4900197F0900142E02401FFE433FE9095
:1012E1000197E0FDC39FEE6480F8748098502474E8
:1012F100422DF582E43401F583E0FF900198E0246A
:1013010041F582E43401F583E02FF0900197E00488
:10131100F080C2900198E01230CF02145F123D2498
:1013210002145F9000A4E0D39464400302145FE0D0
:10133100240AF0E0C39464500302145F7464F00261
:10134100145F900223E0FF30E20654FBF002145FC9
:10135100900223E04404F002145F9000A4E0C394DF
:101361000A500302145FE024F6F002145F1236EE15
:1013710002145F123CD902145F9000A3E0D394647D
:101381005022E0240AF0E0C3946440187464F080B1
:101391001312360702145F9000A3E0C3940A4004BD
:1013A100E024F6F09000A3E0FF123B6C02145F1200
:1013B1003ED8900198E0FF04F074412FF582E434A7
:1013C10001F58374F8F0900198E0FF04F074412F67
:1013D100F582E43401F5837402F0900198E0FF0492
:1013E100F074412FF582E43401F5837409F0123E63
:1013F100C0EF9001986013E0FF04F074412FF58273
:10140100E43401F5837401F08011E0FF04F07441CC
:101411002FF582E43401F5837402F0E4900197F032
:10142100900142E02401FFE433FE900197E0FDC307
:101431009FEE6480F8748098502474422DF582E404
:101441003401F583E0FF900198E02441F582E43412
:1014510001F583E02FF0900197E004F080C2900144
:0714610098E060031230CF98
:011468002261
:10356A00900151E06031123E5CEF24F0601824D0E3
:10357A00601224207016123E25123E99E4900151E1
:10358A00F0023B228000123E25023E997B017A011D
:10359A0079417D1002392C7B017A0179527D101212
:0F35AA003AABEF60097B017A017952120BEB22E9
:102FFE004101AA004101AB004101AF004101B00007
:10300E004201AC00004101AE005001B100000000D1
:0C301E00000000000000000000000000A6
:103D0C00E49001AAF0A3F09001AFF0FE7FA2FD7B3E
:083D1C00017A0079000221DCAC
:102A350090019B122187E49001AAF0E0FE04F07456
:102A4500B12EF582E43401F5837455F09001AAE0C6
:102A5500FE04F074B12EF582E43401F58374AAF016
:102A650090019EE004FE9001AAE0FD04F074B12DF2
:102A7500F582E43401F583EEF09001AAE0FE04F05E
:102A850074B12EF582E43401F583EFF0E49001AFE3
:102A9500F090019EE0FF9001AFE0FEC39F502A90A9
:102AA500019B1221678E82758300121DC6FE90015F
:102AB500AAE0FD04F074B12DF582E43401F583EE4E
:102AC500F09001AFE004F080C87B017A0179B1EFA5
:102AD5002404FD12340F9001AAE0FE04F074B12E17
:102AE500F582E43401F583EFF0E49001AFF0900155
:102AF5009EE02405FFE433FE9001AFE0FDC39FEEA9
:102B05006480F8748098501774B12DF582E434010F
:102B1500F583E0FF123E819001AFE004F080CF2203
:100026009000A2E07003020BEA14F09000A0E02416
:10003600A0FFE433FEA3E0FBFDC3EF9DFFEE9400BB
:10004600FE7C007DA0121E5AEDC3940440D27400BB
:100056002BF582E43400F583E064556003020BD689
:100066009000A1E07A002401FFEA33FE7C007DA027
:10007600121EAF74002DF58274003CF583E064AA6D
:100086006003020BD6EB2402FFEA33FE7C007DA060
:10009600121EAF74002DF58274003CF583E09001CA
:1000A600ABF09000A0E024A0FFE433CFC39BCF9A2F
:1000B600FE7C007DA0121EAF9001ABE02404FFE49D
:1000C60033FEC3ED9FEE6480F8EC64809850030223
:1000D6000BDC9000A1E0FF2400F9E43400FA7B0178
:1000E6009001ABE02403FD90019BEFF0A374A0F018
:1000F60012314EAB079001ABE0FF9000A1E02FFF5D
:10010600E433CF2403CF3400FE7C007DA0121EAF63
:1001160074002DF58274003CF583E06B6003020BDE
:10012600D6E49001AAF0FE7F10FD7B017A017941A9
:100136001221DC9000A1E0FB7A002403FFEA33FEE3
:100146007C007DA0121EAF74002DF58274003CF574
:1001560083E01221B0018F1203863104603308D286
:1001660034054A35062436070E3702AC3807F841FF
:1001760009C5540AAA570AC1620B26630B4C640BC5
:090186006E650B926600000BC0CF
:10018F00E4900193F0A3F0EB240CFFE43AFE7C0023
:10019F007DA0121EAF74002DF58274003CF583E034
:1001AF00FF7E00900193EEF0A3EFF0C39410EE9456
:1001BF00004003020BC0900193E07002A3E070288F
:1001CF009001AE7410F0E4A3F09001AEE0FFA3E055
:1001DF00FEC39F5013EE75F080A4FFAEF0123E48A1
:1001EF009001AFE004F080E19000A1E0240DFFE466
:1001FF0033FE7C007DA0121EAF74002DF5827400BB
:10020F003CF583E0540FFF9001ACE4F0A3EFF0E472
:10021F009001AFF09001ACE0FEA3E0FF7C007D0DFC
:10022F00121E48EF240AFFE43EFE9001AFE0FBC32D
:05023F009FEC9E504BF6
:10024400900193E0FEA3E0FF7D72121E48EBFD2FA8
:10025400FFEC3EFEA3F0A3EFF0C006C0079000A1A0
:10026400E02404FFE433CF2DCF3CFE7DA0121EAF6B
:1002740074002DF58274003CF583E0FDD007D006B0
:03028400123E52D5
:100287009001AFE004F08094900193A3E09001AE59
:10029700F07B017A0179AE90019E7401F07F121212
:0202A7002A35F6
:1002A900020BC09001AAE0FF04F074412FF582E42B
:1002B9003401F58374F8F09001ABE0FF9001AAE0F6
:1002C900FE04F074412EF582E43401F583EFF090D9
:1002D90001AAE0FF04F074412FF582E43401F583AB
:1002E9007438F0E49001AFF09001ABE014FF900195
:1002F900AFE0FEC39F50409000A1E02404FDE43329
:10030900FCEE7E002DFFEE3CFE7C007DA0121EAFB0
:1003190074002DF58274003CF583E0FF9001AAE09A
:10032900FE04F074412EF582E43401F583EFF09078
:1003390001AFE004F080B1E49001AFF0900142E038
:100349002401FFE433FE9001AFE0FDC39FEE64801A
:10035900F8748098502474422DF582E43401F583B1
:10036900E0FF9001AAE02441F582E43401F583E03D
:100379002FF09001AFE004F080C2020A969001AA22
:10038900E0FF04F074412FF582E43401F58374F839
:10039900F09001ABE0FF9001AAE0FE04F074412E59
:1003A900F582E43401F583EFF09001AAE0FF04F04F
:1003B90074412FF582E43401F5837431F0E490013E
:1003C900AFF09001ABE014FF9001AFE0FEC39F5086
:1003D900409000A1E02404FDE433FCEE7E002DFFF3
:1003E900EE3CFE7C007DA0121EAF74002DF58274D8
:1003F900003CF583E0FF9001AAE0FE04F074412E71
:10040900F582E43401F583EFF09001AFE004F08068
:10041900B1E49001AFF0900142E02401FFE433FE22
:100429009001AFE0FDC39FEE6480F874809850247A
:1004390074422DF582E43401F583E0FF9001AAE0CE
:100449002441F582E43401F583E02FF09001AFE017
:1004590004F080C2020A969001AAE0FF04F07441F8
:100469002FF582E43401F58374F8F09001ABE0FFD5
:100479009001AAE0FE04F074412EF582E43401F5FE
:1004890083EFF09001AAE0FF04F074412FF582E4B4
:100499003401F5837433F0E49001AFF09001ABE0DF
:1004A90014FF9001AFE0FEC39F50409000A1E024EB
:1004B90004FDE433FCEE7E002DFFEE3CFE7C007D66
:1004C900A0121EAF74002DF58274003CF583E0FF85
:1004D9009001AAE0FE04F074412EF582E43401F59E
:1004E90083EFF09001AFE004F080B1E49001AFF048
:1004F900900142E02401FFE433FE9001AFE0FDC327
:100509009FEE6480F8748098502474422DF582E43B
:100519003401F583E0FF9001AAE02441F582E43437
:1005290001F583E02FF09001AFE004F080C2900163
:10053900AAE004F0900223E030E003020BC00209B4
:10054900B99001AAE0FF04F074412FF582E4340167
:10055900F58374F8F09001ABE0FF9001AAE0FE0486
:10056900F074412EF582E43401F583EFF09001AA8D
:10057900E0FF04F074412FF582E43401F58374350A
:10058900F0E49001AFF09001ABE014FF9001AFE00F
:10059900FEC39F50409000A1E02404FDE433FCEE2B
:1005A9007E002DFFEE3CFE7C007DA0121EAF740084
:1005B9002DF58274003CF583E0FF9001AAE0FE046A
:1005C900F074412EF582E43401F583EFF09001AF28
:1005D900E004F080B1E49001AFF0900142E0240121
:1005E900FFE433FE9001AFE0FDC39FEE6480F87431
:1005F9008098502474422DF582E43401F583E0FF9C
:100609009001AAE02441F582E43401F583E02FF05A
:100619009001AFE004F080C2020A969001AAE0FFBF
:1006290004F074412FF582E43401F58374F8F090F5
:1006390001ABE0FF9001AAE0FE04F074412EF582BF
:10064900E43401F583EFF09001AAE0FF04F074416E
:100659002FF582E43401F5837436F0E49001AFF0AC
:100669009001ABE014FF9001AFE0FEC39F504090B2
:1006790000A1E02404FDE433FCEE7E002DFFEE3CF6
:10068900FE7C007DA0121EAF74002DF58274003C23
:10069900F583E0FF9001AAE0FE04F074412EF58293
:1006A900E43401F583EFF09001AFE004F080B1E4A8
:1006B9009001AFF0900142E02401FFE433FE900184
:1006C900AFE0FDC39FEE6480F874809850247442B3
:1006D9002DF582E43401F583E0FF9001AAE024417D
:1006E900F582E43401F583E02FF09001AFE004F0E6
:1006F90080C29001AAE004F0900223E030E00302F6
:100709000BC00209B99001AAE0FF04F074412FF56A
:1007190082E43401F58374F8F09001ABE0FF9001B5
:10072900AAE0FE04F074412EF582E43401F583EF6A
:10073900F09001AAE0FF04F074412FF582E434013E
:10074900F5837437F0E49001AFF09001ABE014FF4A
:100759009001AFE0FEC39F50409000A1E02404FD4A
:10076900E433FCEE7E002DFFEE3CFE7C007DA01202
:100779001EAF74002DF58274003CF583E0FF9001F3
:10078900AAE0FE04F074412EF582E43401F583EF0A
:10079900F09001AFE004F080B1E49001AFF0900176
:1007A90042E02401FFE433FE9001AFE0FDC39FEE78
:1007B9006480F8748098502474422DF582E43401E1
:1007C900F583E0FF9001AAE02441F582E43401F5C4
:1007D90083E02FF09001AFE004F080C29001AAE01D
:1007E90004F0900223E030E003020BC00209B99043
:1007F90001AAE0FF04F074412FF582E43401F58386
:1008090074F8F09001ABE0FF9001AAE0FE04F074E7
:10081900412EF582E43401F583EFF09001AAE0FF5F
:1008290004F074412FF582E43401F5837441F0E456
:100839009001AFF09001ABE014FF9001AFE0FEC36F
:100849009F50409000A1E02404FDE433FCEE7E00BB
:100859002DFFEE3CFE7C007DA0121EAF74002DF52D
:100869008274003CF583E0FF9001AAE0FE04F07475
:10087900412EF582E43401F583EFF09001AFE004F5
:10088900F080B1E49001AFF0900142E02401FFE46F
:1008990033FE9001AFE0FDC39FEE6480F874809849
:1008A900502474422DF582E43401F583E0FF900170
:1008B900AAE02441F582E43401F583E02FF09001A8
:1008C900AFE004F080C2020A969001AAE0FF04F0AA
:1008D90074412FF582E43401F58374F8F09001AB8B
:1008E900E0FF9001AAE0FE04F074412EF582E434A1
:1008F90001F583EFF09001AAE0FF04F074412FF5B0
:1009090082E43401F5837434F0E49001AFF090018E
:10091900ABE014FF9001AFE0FEC39F50409000A1EF
:10092900E02404FDE433FCEE7E002DFFEE3CFE7C6A
:10093900007DA0121EAF74002DF58274003CF58372
:10094900E0FF9001AAE0FE04F074412EF582E43440
:1009590001F583EFF09001AFE004F080B1E490017C
:10096900AFF0900142E02401FFE433FE9001AFE0D3
:10097900FDC39FEE6480F8748098502474422DF56D
:1009890082E43401F583E0FF9001AAE02441F58275
:10099900E43401F583E02FF09001AFE004F080C268
:1009A9009001AAE004F0900223E030E003020BC0BA
:1009B9007B017A0179419001AA020AA2900223E0FF
:1009C900FF30E10854FDF0123D3C800A900223E01B
:1009D9004402F0123CA39001AAE0FF04F074412FF5
:1009E900F582E43401F58374F8F09001AAE0FF047C
:1009F900F074412FF582E43401F583740AF0900113
:100A0900AAE0FF04F074412FF582E43401F5837400
:100A190001F0900222E0C313A3E0135401FF9001F7
:100A2900AAE0FE04F074412EF582E43401F583EF67
:100A3900F09001AAE02441F9E43401FA7B017D0830
:100A4900123A799001AAE02408F0E49001AFF090FD
:100A59000142E02401FFE433FE9001AFE0FDC39FB2
:100A6900EE6480F8748098502474422DF582E43441
:100A790001F583E0FF9001AAE02441F582E4340105
:100A8900F583E02FF09001AFE004F080C29001AA55
:100A9900E004F07B017A017941E0FD1230D9020BC3
:100AA900C0900223E030E20654FBF0020BC0900232
:100AB90023E04404F0020BC09000A1E0FB7A00247B
:100AC90004FFEA33FE7C007DA0121EAF74002DF5F1
:100AD9008274003CF583E0FFC007EB2405FFEA338D
:100AE900FE7C007DA0121EAF74002DF58274003CBF
:100AF900F583E0FDC0059000A1E02406FFE433FE84
:100B09007C007DA0121EAF74002DF58274003CF5A7
:100B190083E0FBD005D0071238A6020BC09000A1D4
:100B2900E02404FFE433FE7C007DA0121EAF7400B4
:100B39002DF58274003CF583E0FF9000A3F0123B91
:100B49006C80749000A1E02404FFE433FE7C007DF6
:100B5900A0121EAF74002DF58274003CF583E0905D
:100B690000A4F080529000A1E02404FFE433FE7C4D
:100B7900007DA0121EAF74002DF58274003CF58330
:090B8900E0FFE4FD122808802EB3
:100B92009000A1E02404FFE433FE7C007DA0121E3D
:100BA200AF74002DF58274003CF583E0900193F060
:0E0BB200E0FFC4540F7007EF540FFF123E66B1
:100BC0009001ABE02404FF9000A1E02FF0E075F06D
:100BD000A084E5F0F0229000A1E004F09000A1E0F4
:0B0BE00075F0A084E5F0F00200262272
:10340F0090019F122187AE05E4900224F0AF061EB3
:10341F00EF6040900224E0FF90019FE475F00112ED
:10342F002170121DAD6F900224F0E4A3F0900225DD
:10343F00E0C3940850D7900224E030E007C3136430
:10344F008CF08007900224E0C313F0900225E00473
:09345F00F080DA900224E0FF2263
:10314E00900197122187AE05E4900224F0AF061E7F
:10315E00EF6065900224E0FF900197E475F0011294
:10316E002170121DAD6F900224F090019BE004F0CF
:10317E00A3E0FF90019BE0C39F4012E4F0EFFDE45B
:10318E009DFDE494009001988DF0121EE5E49002EE
:10319E0025F0900225E0C3940850B2900224E0304E
:1031AE00E007C313648CF08007900224E0C313F091
:0E31BE00900225E004F080DA900224E0FF2267
:103BF700FFFFFF00FF000000FFFF000000FFFFFFC7
:0E3C070000FFFFFF0000FF800080FFFF800035
:0F302A004100AB004101240044012500000000DB
:103468009000AB7409F0900223E04408F07E007FDE
:10347800067D007B017A01791E1221DC7E007F0126
:103488007D007B017A0179361221DC7E007F727D16
:10349800007B017A0079AC1221DC7E007F087D0078
:1034A8007B017A0079A31221DC9000A37464F0A355
:0934B8007432F0E4FDFF02280863
:103607009000ABE0600414F080069000AB7409F002
:103617009000ABE0FE75F003A424F7F582E4343B99
:10362700F583E493FFEE75F003A424F8F582E43400
:103637003BF583E493FD9000ABE075F003A424F918
:0D364700F582E4343BF583E493FB0238A6E2
:1036EE009000ABE004F0E0C3940A4002E4F09000D6
:1036FE00ABE0FE75F003A424F7F582E4343BF583CA
:10370E00E493FFEE75F003A424F8F582E4343BF560
:10371E0083E493FD9000ABE075F003A424F9F582E9
:0B372E00E4343BF583E493FB0238A673
:103CD900900136E0600414F080069001367410F00B
:0A3CE900900136E0FF7D020228087A
:103D2400900136E004F0E0C394114002E4F0900105
:083D340036E0FF7D01022808C2
:103A790090019A122187EDD39408400C7B007A00BB
:103A8900790090019A022187AF057E0090019A1270
:103A99002167A801AC02AD037B017A0079AC121D44
:023AA900872272
:103D3C009000AB7409F0900223E04408F090013637
:073D4C00E0FFE4FD0228087E
:103CA300900223E054F7F0E4900130F0900134F0F7
:0B3CB300A3F0FBFAFDFCFFFE022B2536
:10335B00900198EFF02401FFE433FE9000B5E054A8
:10336B000FB50714E4B50610900198F0E075F00D59
:10337B00A424B6F97400800D900198E075F00DA4AB
:10338B0024C3F9740035F0FA7B0178297C017D01A7
:10339B007E007F0D121D8778377C017D017B017AC2
:0A33AB000079AC7E007F0A021D8746
:1028080090019BEDF090019AEFF0FBE490011EF02F
:10281800A312212D000000009001237432F0EBC3B5
:10282800941040089001367410F0800890019AE0E6
:10283800900136F090019BE0701A7B017A0079AC28
:1028480090019AE0FD1233B59000ACE0F460030209
:0C28580028E2806F90019BE06401703C5E
:10286400A3F0F07B017A0079AC90019AE0FD123379
:10287400B59000ACE0F4706690019AE07002804775
:1028840090019AE004F0E0C394114002E4F0900156
:0C2894009CE004F0E0C3941140C98042B5
:0828A00090019BE06402703A14
:1028A800A3F0F07B017A0079AC90019AE0FD123335
:1028B800B59000ACE0F4702290019AE0600414F046
:1028C800800CE4FBFAFDFCFFFE122B25800C900126
:0A28D8009CE004F0E0C3941140C935
:1028E20090019AE0900136F09000B4E0700D7B0107
:1028F2007A0079ACFD1233B5123CA378297C017DB4
:10290200017B017A0079B67E007F0D121D87783730
:102912007C017D017B017A0079AC7E007F0A021D79
:01292200872D
:1038EA00900197EFF0E490011EF0A312212D000041
:1038FA000000E4900123F0900223E030E2169001E8
:10390A0024E004F0E0D394035002800DE4900124F3
:10391A00F0023D24E4900124F0900197E0FF123375
:02392A005B221E
:1038A60090019AEFF0A3EDF0A3EBF0123CA3900188
:1038B6009AE09000A5F0A3E4F090019BE09000A7A9
:1038C600F0A3E4F090019CE07F009000A9F0FAA339
:1038D600EFF0FB9000A5E0FEA3E0FFA3E0FCA3E071
:0438E600FD022B258F
:10146900900123E0600314F022900130E0700D90A8
:101479000134E07002A3E07003021CB6900129E078
:10148900540F24FC700302184E147003021A3C24F2
:10149900026003021CB690011F122109EF2401FF0B
:1014A900E43EFEE43DFDE43CFC90011F1221219045
:1014B900012DE0FF90012AE0FEC39F5064EEFDC3B9
:1014C900EF9DFFE49400FE123E31EE3395E0FDFC02
:1014D900C004C005C006C007E4FF7E01FDFC900101
:1014E9001F122115121FC8D003D002D001D000123B
:1014F9001FC8C006C007900131E0FEA3E0FBAA06A1
:10150900E4F9F8D007D006122053A804A905AA06C1
:10151900AB0790012AE07F00FEE4FCFD121FAD80BD
:101529006890012AE0FF90012DE0C39FFFE4940039
:10153900FE123E31EE3395E0FDFCC004C005C00645
:10154900C007E4FF7E01FDFC90011F122115121F47
:10155900C8D003D002D001D000121FC8C006C007EE
:10156900900131E0FEA3E0FBAA06E4F9F8D007D028
:1015790006122053A804A905AA06AB0790012AE080
:101589007F00FEE4FCFD121FBA9001251221219073
:101599000133E0FFE4FCFDFE900125122115121F25
:1015A900C8E47B64FAF9F81220539001251221212D
:1015B9009001251221099000A5EEF0A3EFF090010A
:1015C9002EE0FF90012BE0FEC39F5064EEFDC3EFB8
:1015D9009DFFE49400FE123E31EE3395E0FDFCC020
:1015E90004C005C006C007E4FF7E01FDFC90011F91
:1015F900122115121FC8D003D002D001D000121F2A
:10160900C8C006C007900131E0FEA3E0FBAA06E4CA
:10161900F9F8D007D006122053A804A905AA06ABE9
:101629000790012BE07F00FEE4FCFD121FAD8068EE
:1016390090012BE0FF90012EE0C39FFFE49400FE90
:10164900123E31EE3395E0FDFCC004C005C006C072
:1016590007E4FF7E01FDFC90011F122115121FC82E
:10166900D003D002D001D000121FC8C006C0079015
:101679000131E0FEA3E0FBAA06E4F9F8D007D006A1
:10168900122053A804A905AA06AB0790012BE07FF5
:1016990000FEE4FCFD121FBA9001251221219001E0
:1016A90033E0FFE4FCFDFE900125122115121FC84D
:1016B900E47B64FAF9F81220539001251221219054
:1016C90001251221099000A7EEF0A3EFF090012F58
:1016D900E0FF90012CE0FEC39F5064EEFDC3EF9D37
:1016E900FFE49400FE123E31EE3395E0FDFCC004A8
:1016F900C005C006C007E4FF7E01FDFC90011F1272
:101709002115121FC8D003D002D001D000121FC862
:10171900C006C007900131E0FEA3E0FBAA06E4F988
:10172900F8D007D006122053A804A905AA06AB07CA
:1017390090012CE07F00FEE4FCFD121FAD80689053
:10174900012CE0FF90012FE0C39FFFE49400FE12FB
:101759003E31EE3395E0FDFCC004C005C006C0076C
:10176900E4FF7E01FDFC90011F122115121FC8D054
:1017790003D002D001D000121FC8C006C0079001D3
:1017890031E0FEA3E0FBAA06E4F9F8D007D006127F
:101799002053A804A905AA06AB0790012CE07F00F5
:1017A900FEE4FCFD121FBA9001251221219001339C
:1017B900E0FFE4FCFDFE900125122115121FC8E48B
:1017C9007B64FAF9F8122053900125122121900126
:1017D900251221099000A9EEF0FAA3EFF0FB900081
:1017E900A5E0FEA3E0FFA3E0FCA3E0FD122B2590FA
:1017F9000131E0FEA3E0FFE4FCFD90011F12211579
:10180900C31220E5401290011F12212D0000000093
:10181900900130E0600214F0900130E06003021C96
:10182900B6900134E07002A3E0600A90013474FFBD
:10183900F5F0121EE5900134E07002A3E0600302A6
:101849001CB6021CAB90011EE07012A3122109EF15
:101859002401FFE43EFEE43DFDE43C802190011FAC
:10186900122109EC4D4E4F601C90011F122109EF06
:1018790024FFFFEE34FFFEED34FFFDEC34FFFC9056
:10188900011F122121E47FFFFEFDFC90011F12219F
:1018990015121FC8A804A905AA06AB0790012AE0DA
:1018A900FFE4FCFDFE121FC8C006C007900131E02D
:1018B900FEA3E0FBAA06E4F9F8D007D006122053EC
:1018C900900125122121900133E0FFE4FCFDFE90F7
:1018D9000125122115121FC8E47B64FAF9F81220B8
:1018E900539001251221219001251221099000A56B
:1018F900EEF0A3EFF0E47FFFFEFDFC90011F122143
:1019090015121FC8A804A905AA06AB0790012BE068
:10191900FFE4FCFDFE121FC8C006C007900131E0BC
:10192900FEA3E0FBAA06E4F9F8D007D0061220537B
:10193900900125122121900133E0FFE4FCFDFE9086
:101949000125122115121FC8E47B64FAF9F8122047
:10195900539001251221219001251221099000A7F8
:10196900EEF0A3EFF0E47FFFFEFDFC90011F1221D2
:1019790015121FC8A804A905AA06AB0790012CE0F7
:10198900FFE4FCFDFE121FC8C006C007900131E04C
:10199900FEA3E0FBAA06E4F9F8D007D0061220530B
:1019A900900125122121900133E0FFE4FCFDFE9016
:1019B9000125122115121FC8E47B64FAF9F81220D7
:1019C900539001251221219001251221099000A986
:1019D900EEF0FAA3EFF0FB9000A5E0FEA3E0FFA371
:1019E900E0FCA3E0FD122B25900131E0FEA3E0FF0E
:1019F900E4FCFD90011F122115C31220E55011E4EA
:101A0900FFFEFDFC90011F122115C31220E570177E
:101A190090011EE0700404F0800DE490011EF09026
:101A29000130E0600214F0900130E06003021CB65E
:031A3900021CABE1
:101A3C0090019312212D000000FFE4FFFEFDFC90AD
:101A4C00011F122115C31220E56003021B36900101
:101A5C002AE0FFE4FCFDFE900193122115121FC831
:101A6C00A804A905AA06AB07900133E0FFE4FCFD2E
:101A7C00FE121FC8E47B64FAF9F81220539001257A
:101A8C001221219001251221099000A5EEF0A3EF5F
:101A9C00F090012BE0FFE4FCFDFE90019312211568
:101AAC00121FC8A804A905AA06AB07900133E0FFD2
:101ABC00E4FCFDFE121FC8E47B64FAF9F812205313
:101ACC009001251221219001251221099000A7EEE9
:101ADC00F0A3EFF090012CE0FFE4FCFDFE900193ED
:101AEC00122115121FC8A804A905AA06AB0790015C
:101AFC0033E0FFE4FCFDFE121FC8E47B64FAF9F846
:101B0C0012205390012512212190012512210990B8
:101B1C0000A9EEF0FAA3EFF0FB9000A5E0FEA3E025
:101B2C00FFA3E0FCA3E0FD122B25900131E0FEA306
:101B3C00E0FFE4FCFD9001251221219001251221EA
:101B4C000990011F122115C31220E56003021C38F5
:101B5C0090012DE0FFE4FCFDFE9001931221151283
:101B6C001FC8A804A905AA06AB07900133E0FFE43F
:101B7C00FCFDFE121FC8E47B64FAF9F812205390A6
:101B8C0001251221219001251221099000A5EEF0CA
:101B9C00A3EFF090012EE0FFE4FCFDFE9001931208
:101BAC002115121FC8A804A905AA06AB079001337A
:101BBC00E0FFE4FCFDFE121FC8E47B64FAF9F812A6
:101BCC00205390012512212190012512210990000A
:101BDC00A7EEF0A3EFF090012FE0FFE4FCFDFE90E8
:101BEC000193122115121FC8A804A905AA06AB0758
:101BFC00900133E0FFE4FCFDFE121FC8E47B64FAA5
:101C0C00F9F812205390012512212190012512215F
:101C1C00099000A9EEF0FAA3EFF0FB9000A5E0FE0E
:101C2C00A3E0FFA3E0FCA3E0FD122B2590011F1203
:101C3C002109EF2401FFE43EFEE43DFDE43CFC9071
:101C4C00011F12212190012512212D00000000906E
:101C5C000125122115900134E0FEA3E0FF90013222
:101C6C00E02FFF900131E03EFEE4FCFD121FAD9031
:101C7C00012512212190012512210990011F122109
:101C8C0015C31220E5401290011F12212D000000F7
:101C9C0000900130E0600214F0900130E0700B9085
:0A1CAC000129E0C4540FFF1238EACA
:011CB600220B
:013EDF0022C0
:0B33B50090019D1221879001A0EDF017
:1033C000E4A3F0AF05EFC39411E49001A1F09001E4
:1033D000A1E0FDC3947250369001A0E075F072A494
:1033E0002400FFE5F03440FE7C00EF2DFFEC3EFEB4
:1033F00012000390019D1221679001A1E0F58275F2
:0E3400008300EF121E269001A1E004F080C0B0
:01340E00229B
:0A3E4800E42FFFEE3440FE02386163
:0A3E5200E42FFFEE3440FE0231CCF5
:103DB400E42FFFEE3440FE9001F7E09001FDF002A5
:023DC4002E8A45
:013EE00022BF
:013EE10022BE
:10000E00123D7B123E70123EC6123518123BD712AD
:05001E003C15D2AF22E9
:043039004100A200B0
:103C1500E49000A2F0FE7FA2FD7B017A00790012FC
:0D3C250021DC7F007E4B7D007C00023239E7
:0300230002381A86
:10381A00C0E0C083C082C0D075D000C007309827EE
:10382A00C2989000A0E0FF04F074002FF582E434FF
:10383A0000F583E599F09000A0E0C394A04002E46B
:10384A00F09000A2E004F0309902C299D007D0D0DB
:07385A00D082D083D0E032E0
:08303D004101F0004101F10026
:103BD700123C4F5389F0438901538EF79001F074DB
:103BE700FAF0A374C4F0758CFAF58AD2A9D28C22A4
:103C4F00E49001E7F09001E9F09001EDF0A3F0901E
:0C3C5F0001E8F09001EAF09001EFF02283
:03000B0002304E72
:10304E00C0E0C0F0C083C082C0D075D000C000C048
:10305E00069001F0E0F58CA3E0F58A9001E674018C
:10306E00F0A3E004F0C3940A4005E4F0A304F0904A
:10307E0001E9E004F0C394644005E4F0A304F09089
:10308E0001EBE004F0C394F4748094814005E4F005
:10309E00A304F09001EDE475F001121EE5FEC3E508
:1030AE00F094E8EE9403400A9001EDE4F0A3F0A34F
:1030BE0004F0D006D000D0D0D082D083D0F0D0E0B3
:0130CE0032CF
:103B48000A6D679C46F6375D4521EFAC5A50010B6C
:103B5800DF020A6D679C46F6375D4521EFAC5A5087
:043B6800E10BDF028C
:083045004501FECCCCCCCCCC43
:103D7B0053B3FE43B40153B3FD43B40253B1FE43FB
:033D8B00B2012260
:013EE20022BD
:103C3200E4FEC290EF30E704D2808002C280EF251A
:0C3C4200E0FFD290000EEEB408E8C29043
:013C4E002253
:043D8E00E4FD7FFCD5
:0F3D9200C29100123C32AF05123C3200D2912296
:0A39A6007B019001A97405F07F3F3A
:0639B0009001A612218720
:1039B600C291E4FD123C329001A9E0FFEDC39F5095
:1039C600159001A61221678D82758300121DC6FF10
:0839D600123C320D80E1D29198
:0139DE0022C6
:103BB400E4FEC290EF30E704D2808002C280EF2599
:103BC400E0FFD290000EEEB408E843B10153B2FE18
:023BD400C2909D
:013BD60022CC
:103CF300E4FFFEC290EF25E0FFD290308003440141
:083D0300FF0EEEB408EDC290C2
:013D0B002295
:103DA100C29100123BB4123CF353B1FE43B2010085
:023DB100D291AD
:013DB30022ED
:0639DF0090019412218703
:1039E500C291123BB4E4FD900197E0FFEDC39F50F7
:1039F50015123CF39001941221678D82758300EFB7
:0E3A0500121E260D80E153B1FE43B201D29194
:013A13002290
:0E3DE200123D8E7D8E7F20123D920000002249
:103B2200E4FEFD7FFC123D927D8F7F20123D92E4E8
:103B3200FD7FFD123D92E4FEFF000FBF00010EBEAD
:053B420013F7BF88F439
:013B4700225B
:0A3E5C007F07123DA1EF5470FF2212
:063EBA007F09123DA12268
:073E99007D707F27023D92BE
:0C3E2500E4FD7FE1123D927FE2023D923D
:0E3DF000AC07123D8EAF04AD077F25023D9259
:06392C00123E5CEF703852
:10393200900193F0A3F09001A9EDF07FA01239B0AD
:10394200E4FD7FFD123D92E4900193F0A3F000901C
:103952000193E475F001121EE5900193E07004A357
:08396200E064C870E9123D8E1B
:01396A00223A
:103AAB00AC05123E5CEF30E61D123D8E900197EC9B
:103ABB00F07F611239DF123E25123E99E4FD7FFD46
:093ACB00123D927F01227F0022CE
:1026DA0078937C017D017BFF7A3B79487E007F05F8
:1026EA00121D8778987C017D017BFF7A3B794D7EAC
:1026FA00007F03121D87789B7C017D017BFF7A3B5B
:10270A0079507E007F06121D8778A17C017D017BAE
:10271A00FF7A3B79567E007F01121D8778A27C01E1
:10272A007D017BFF7A3B79577E007F03121D87125A
:10273A003EE27D5A7F53123D927DA57F53123D9210
:10274A007D207F3D123D92123D8E7FE1123D927FA8
:10275A00E2123D927D707F27123D927D017F221207
:10276A003D927D037F23123D927D4E7F25123D923D
:10277A007D107F31123D927B017A0179FE9001A989
:10278A007405F07F301239B07B017A0179FE90012D
:10279A00A97405F07F2A1239B07A0179931239A601
:1027AA007B017A01799B9001A97406F07F3A12396C
:1027BA00B07B017A0179A19001A97401F07F3912E5
:1027CA0039B07B017A0179989001A97403F07F3EB0
:1027DA001239B07B017A0179A29001A97403F07FC2
:1027EA003B1239B0E4FD7F3C123D927D3F7F2612B9
:0E27FA003D92E4FD7F24123D927F21023D922C
:052C14009001C1EFF08A
:102C1900E478C27C017D017BFF7A3B795AFE7F050E
:102C2900121D8778C77C017D017BFF7A3B795F7E26
:102C3900007F03121D8778CA7C017D017BFF7A3BE7
:102C490079627E007F06121D8778D07C017D017B29
:102C5900FF7A3B79687E007F01121D8778D17C015C
:102C69007D017BFF7A3B79697E007F03121D877D99
:102C79005A7F53123D927DA57F53123D927D207F4D
:102C89003D123D92123D8EE4FF000000000FEFB4AB
:102C9900DCF79001C1E0FD7F25123D927D3F7F2643
:102CA900123D927A0179C21239A67B017A0179CA59
:102CB9009001A97406F07F3A1239B07B017A017943
:102CC900D09001A97401F07F391239B07B017A01E2
:102CD90079C79001A97403F07F3E1239B07B017A5C
:0E2CE9000179D19001A97403F07F3B0239B04C
:1035180053B1F743B20853B1EF43B21053B3FB436F
:10352800B40443DE01A2AF9209C2AF75C7AA75C73A
:103538005543910143C60875C7AA75C7555391FEEF
:10354800A20992AF43DE2053DF3F43DF0153DFF987
:1035580075D1FF75D9FFD2DFE4FBFAFDFCFFFE024F
:023568002B2511
:103A1400AD07AC06A2AF9209C2AF75C7AA75C75568
:103A2400439101A20992AFECF5C5EDF5CDA2AF9299
:103A340009C2AF75C7AA75C7555391FEA20992AFC3
:033A4400D2DE22AD
:0D3DFE00AD07AC06ECF5D5EDF5DDD2DE220B
:0D3E0B00AD07AC06ECF5D2EDF5DAD2DE2203
:102B250090019DEEF0A3EFF0A3ECF0A3EDF0A3EA86
:042B3500F0A3EBF02E
:102B3900A312212D0000000090019DE0FEA3E0FFFB
:102B4900E4FCFD9001A31221219001A3122115900B
:102B590000A3E0FFE4FCFDFE121FC89001A31221AF
:102B6900219001A3122109E47B64FAF9F812205398
:102B79009001A31221219001A3122109123A149064
:102B8900019FE0FEA3E0FFE4FCFD9001A3122121D7
:102B99009001A31221159000A3E0FFE4FCFDFE12B1
:102BA9001FC89001A31221219001A3122109E47BDE
:102BB90064FAF9F81220539001A31221219001A37C
:102BC900122109123DFE9001A1E0FEA3E0FFE4FC01
:102BD900FDA31221219001A31221159000A3E0FF6A
:102BE900E4FCFDFE121FC89001A31221219001A34C
:102BF900122109E47B64FAF9F81220539001A31217
:0B2C090021219001A3122109023E0BC3
:103B6C009000A3EFF0C3940A5003740AF09000A5E0
:103B7C00E0FEA3E0FFA3E0FCA3E0FDA3E0FAA3E0DA
:043B8C00FB022B25E8
:093E700053B3EF43B410023ED538
:033ED200D2942265
:033ED500C2942272
:033ED800B294227F
:063EC000A294E433FF228E
:0A3E6600EF6003023ED2123ED522A7
:013EE30022BC
:1031CC00EFF5A6EEF5A7A2AF9209C2AF75C7AA7527
:1031DC00C755439F01A20992AFA2AF9209C2AF7526
:1031EC00C7AA75C75543A501A20992AF75AF21AF08
:1031FC00058FAEA2AF9209C2AF75C7AA75C755436A
:10320C00A401A20992AFA2AF9209C2AF75C7AA7569
:10321C00C75553A5FEA20992AFA2AF9209C2AF75D2
:0D322C00C7AA75C755539FFEA20992AF2295
:103861008FA6EEF5A775AEFFA2AF9209C2AF75C7DD
:10387100AA75C755439F01A20992AFA2AF9209C28F
:10388100AF75C7AA75C75543A501A20992AF75AF18
:1038910022A2AF9209C2AF75C7AA75C75543A40149
:0538A100A20992AF2214
:0C2E8A009001F8EEF0A3EFF0A3122187F6
:102E96009001F8E0FEA3E0F5A6EEF5A7A2AF920931
:102EA600C2AF75C7AA75C755439F01A20992AFA2C3
:102EB600AF9209C2AF75C7AA75C75543A501A20946
:102EC60092AF75AF21E4FEFF9001FDE0FDC3EF9DDB
:102ED600EE940050299001FA1221678F828E831298
:102EE6001DC6F5AEA2AF9209C2AF75C7AA75C75582
:102EF60043A401A20992AF0FBF00010E80CAA2AF80
:102F06009209C2AF75C7AA75C75553A5FEA2099205
:102F1600AFA2AF9209C2AF75C7AA75C755539FFE38
:042F2600A20992AFBB
:012F2A002284
:040003008F828E83D7
:03000700E493FF80
:01000A0022D3
:073EA000A2B0B3E433FF22DE
:073EA700A297B3E433FF22F0
:063EC6001234C1023E1897
:103D67007843E62438F8A607784306E6C3940A4062
:043D770002E4F6224A
:103C6B007842E6FE08667002FF2274382EF8E6FFF3
:0B3C7B00784206E6C3940A4002E4F61B
:013C8600221B
:103C87007844E6FE18667002FF2274382EF8E6FFC5
:0B3C9700784406E6C3940A4002E4F6FD
:013CA20022FF
:0B3E3D00EF75F00BA4242AF8E6FF222A
:103B9000EF75F00BA42428F8A60408A605AE03EFE1
:103BA00075F00BA4242BF8A606EF75F00BA4242CBB
:043BB000F8E4F6221D
:063ECC007843E618F6221F
:0D3E180043AC0153ADFE43B38053B37F2292
:1034C100E47842F608F608F6FFEF75F00BA424281D
:1034D100F87600087664EF75F00BA42425F87602DF
:1034E100EF75F00BA4242AF8E4F6EF75F00BA42491
:1034F1002BF8E4F6EF75F00BA4242CF8E4F60FEFAB
:10350100B402C67BFF7A3E79A0782212215E7A3E10
:0735110079A7782D02215E6D
:10259D00900194EFF0E075F00BA42422F9E4FAFB1E
:1025AD0090021F1221871221901221D6EF70030283
:1025BD00267C90021F122167900003121DC6FFC3D7
:1025CD009405500890000374050226D6EFC3940AB3
:1025DD0050089000037401021DF3900008121DC6EF
:1025ED00701490000804121E26900194E075F003FB
:1025FD00A404FF123D6790021F122167900006127E
:10260D001EFBFFAEF0D39400EE940050030226D9CA
:10261D00900004121EFBC39FE5F09E502390000412
:10262D00E475F001121F33FCE5F06F7002EC6E6083
:10263D00030226D9900194E075F003A42403802BA6
:10264D00900009121DC6FFD3940050030226D990A5
:10265D00000A7401121DF3C39F407190000AE41229
:10266D001E26900194E075F003A404FF023D6790CF
:10267D00021F122167900003121DC6FFD39405405F
:10268D000A9000037405121E26802BEF600A90003D
:10269D000374FF121DF3801E900008121DC6B401B5
:1026AD0015900008E4121E26900194E075F003A425
:1026BD002402FF123D6790021F122167900004E46F
:0D26CD00F5F0121F8090000AE4121E262274
:103CBE00E4900193F0900193E0FFC39402500B1235
:0A3CCE00259D900193E004F080EBC7
:013CD80022C9
:10396B0053B1BF53B2BF53B17F53B27F759850431E
:10397B008920438780438E1053C4DFAB07AA06A967
:10398B0005A8047F407E427D0F7C00122053EF047C
:0B399B00F404F58DD28ED299D2AC223C
:1032390090019312212153B1BF53B2BF53B17F53B0
:10324900B27F75985043878053C4F843C4209001D6
:10325900931221157F407E427D0F7C00122053C3BB
:1032690074FF9FFF74FF9EFEE49DFDE49CFC7808BB
:103279001220F68FC69001931221157F407E427D60
:103289000F7C00122053C374FF9FFF8FC543C408EE
:05329900D299D2AC2225
:073E79003098FDAF99C298DB
:013E8000221F
:083E8100C2998F993099FD22CE
:1032FD0090020312212153B1FB53B2FB53B3BF53C1
:10330D00B4BF75F85075C40853C4DF900203122181
:10331D00157F407E427D0F7C00122053C374FF9FAA
:10332D00FF74FF9EFEE49DFDE49CFC78081220F6E0
:10333D008FC69002031221157F407E427D0F7C00C7
:0E334D00122053C374FF9FFF8FC543C4082294
:073E890030F8FDAF9AC2F80A
:013E9000220F
:083E9100C2F98F9A30F9FD22FD
:10373900900207122121538EF7438901D28CE4FFAD
:10374900FEFDFC900207122115C31220E5602975C0
:103759008A7E758CFF308DFDC28D9002071221097A
:10376900EF24FFFFEE34FFFEED34FFFDEC34FFFCE8
:0B37790090020712212180C6C28C22A2
:1037840090020B122121538EF7438901D28CE4FF5E
:10379400FEFDFC90020B122115C31220E560297571
:1037A4008ACA758CFA308DFDC28D90020B122109E4
:1037B400EF24FFFFEE34FFFEED34FFFDEC34FFFC9D
:0B37C40090020B12212180C6C28C2253
:1037CF0090020F122121538EEF438910D28EE4FF06
:1037DF00FEFDFC90020F122115C31220E560297522
:1037EF008BEA758DCB308FFDC28F90020F1221099E
:1037FF00EF24FFFFEE34FFFEED34FFFDEC34FFFC52
:0B380F0090020F12212180C6C28E2201
:1035B90090021312212153C9BF53C9DF43C910D245
:1035C900CAE4FFFEFDFC900213122115C31220E587
:1035D900602975CC3075CDF830CFFDC2CF9002137C
:1035E900122109EF24FFFFEE34FFFEED34FFFDEC5D
:0E35F90034FFFC90021312212180C6C2CA22A8
:1036540090021712212175C40743C408E4FFFEFD3C
:10366400FC900217122115C31220E5602C75C52C9D
:1036740075C6CFE5C430E4FB53C4EF9002171221A2
:1036840009EF24FFFFEE34FFFEED34FFFDEC34FFC1
:0D369400FC90021712212180C353C4F722BD
:1036A10090021B12212175C40743C408E4FFFEFDEB
:1036B100FC90021B122115C31220E5602C75C5D8A0
:1036C10075C6FFE5C430E4FB53C4EF90021B122121
:1036D10009EF24FFFFEE34FFFEED34FFFDEC34FF74
:0D36E100FC90021B12212180C353C4F7226C
:102923000A3D3D3D3D3D3D3D3D3D3D3D3D3D3D3D07
:102933003D3D3D3D3D3D3D3D3D3D3D3D3D3D3D3DC4
:102943003D3D3D3D3D3D3D3D3D3D3D3D3D3D3D3DB4
:102953003D3D3D3D3D3D3D3D3D3D3D3D3D3D3D3DA4
:102963003D3D3D3D3D000A2A2020436F7079726949
:102973006768742863292032303135204E75766FAD
:10298300746F6E20546563686E6F6C6F6779204354
:102993006F72702E20416C6C2072696768747320AB
:1029A30072657365727665642E2020000A2A2020E2
:1029B300436F6E7461637420452D4D61696C3A20D9
:1029C3004D6963726F432D38626974406E75766F1B
:1029D300746F6E2E636F6D20202020202020202016
:1029E30020202020202020202020202020202020E4
:1029F30020000A2A202044656D6F20566572736992
:102A03006F6E20203A202532642E2532642E253223
:102A130064000A2A202046696E697368656420444D
:102A2300617465203A202532642E2532642E2532C6
:022A330064003D
:10329E007BFF7A2979231222A37BFF7A297969127F
:1032AE0022A37BFF7A2979AF1222A37BFF7A297999
:1032BE00F590016DE4F0A304F0E4A3F0A3F0A3F005
:1032CE00A3F01222A37BFF7A2A791590016D740761
:1032DE00F0A374DFF0A3E4F0A37405F0A3E4F0A36D
:0F32EE00741FF01222A37BFF7A2979230222A3F7
:03000000022F2BA1
:102F2B00787FE4F6D8FD9000007FFF7E03E4F0A3EA
:0A2F3B00DFFCDEFA758144022F80EE
:102F4500022CF7E493A3F8E493A34003F68001F27F
:102F550008DFF48029E493A3F85407240CC8C3338D
:102F6500C4540F4420C8834004F456800146F6DF5C
:102F7500E4800B0102040810204080902FC5E47EF8
:102F8500019360BCA3FF543F30E509541FFEE49351
:102F9500A360010ECF54C025E060A840B8E493A318
:102FA500FAE493A3F8E493A3C8C582C8CAC583CA43
:102FB500F0A3C8C582C8CAC583CADFE9DEE780BEFB
:01304D000082
:101CB700E709F608DFFA8046E709F208DFFA803E0F
:101CC70088828C83E709F0A3DFFA8032E309F608FC
:101CD700DFFA8078E309F208DFFA807088828C8364
:101CE700E309F0A3DFFA806489828A83E0A3F60818
:101CF700DFFA805889828A83E0A3F208DFFA804CF2
:101D070080D280FA80C680D4806980F280338010C8
:101D170080A680EA809A80A880DA80E280CA803331
:101D270089828A83ECFAE493A3C8C582C8CCC583A9
:101D3700CCF0A3C8C582C8CCC583CCDFE9DEE78079
:101D47000D89828A83E493A3F608DFF9ECFAA9F0F8
:101D5700EDFB2289828A83ECFAE0A3C8C582C8CC4E
:101D6700C583CCF0A3C8C582C8CCC583CCDFEADE67
:101D7700E880DB89828A83E493A3F208DFF980CCC9
:101D870088F0EF60010E4E60C388F0ED2402B404C2
:101D97000050B9F582EB2402B4040050AF23234569
:061DA7008223901D07736A
:101DAD00BB010689828A83E0225002E722BBFE0234
:091DBD00E32289828A83E4932267
:101DC600BB010CE58229F582E5833AF583E02250D2
:101DD60006E92582F8E622BBFE06E92582F8E2221C
:0D1DE600E58229F582E5833AF583E4932236
:101DF300BB010FF8E58229F582E5833AF583E028F4
:101E0300F0225009C58229F8E58226F622BBFE0995
:101E1300C58229F8E22582F222F8EA2583F583E9CF
:031E2300932822DF
:101E2600F8BB010DE58229F582E5833AF583E8F0F2
:101E3600225006E92582C8F622BBFE05E92582C89E
:021E4600F22286
:101E4800EF8DF0A4A8F0CF8CF0A428CE8DF0A42EAE
:021E5800FE2268
:101E5A00BC000BBE0029EF8DF084FFADF022E4CC6C
:101E6A00F875F008EF2FFFEE33FEEC33FCEE9DEC35
:101E7A00984005FCEE9DFE0FD5F0E9E4CEFD22ED7B
:101E8A00F8F5F0EE8420D21CFEADF075F008EF2FC5
:101E9A00FFED33FD4007985006D5F0F222C398FDB6
:051EAA000FD5F0EA2253
:101EAF00C2D5EC30E709B2D5E4C39DFDE49CFCEE4E
:101EBF0030E715B2D5E4C39FFFE49EFE121E5AC34E
:101ECF00E49DFDE49CFC8003121E5A30D507C3E449
:061EDF009FFFE49EFE22BD
:101EE500C5F0F8A3E028F0C5F0F8E5821582700288
:061EF5001583E038F02225
:101EFB00BB0110E58229F582E5833AF583E0F5F025
:101F0B00A3E0225009E92582F886F008E622BBFE01
:101F1B000AE92582F8E2F5F008E222E5832AF58347
:081F2B00E993F5F0A3E993220C
:101F3300BB010DC58229C582C5833AC583021EE54F
:101F43005011C58229F808E5F026F618F5F0E58268
:101F530036F622BBFE11C58229F808E225F0F5F01A
:101F6300F218E23582F222F8E58229F582E5832A26
:0D1F7300F58374019325F0F5F0E493382216
:101F8000F8BB0111E58229F582E5833AF583E8F093
:101F9000E5F0A3F0225009E92582C8F608A6F02250
:0D1FA000BBFE09E92582C8F2E5F008F22237
:0D1FAD00EF2BFFEE3AFEED39FDEC38FC2283
:0E1FBA00C3EF9BFFEE9AFEED99FDEC98FC2222
:101FC800E88FF0A4CC8BF0A42CFCE98EF0A42CFCB8
:101FD8008AF0EDA42CFCEA8EF0A4CDA8F08BF0A436
:101FE8002DCC3825F0FDE98FF0A42CCD35F0FCEB95
:101FF8008EF0A4FEA9F0EB8FF0A4CFC5F02ECD395A
:0F200800FEE43CFCEAA42DCE35F0FDE43CFC22C6
:1020170075F008758200EF2FFFEE33FECD33CDCC80
:1020270033CCC58233C5829BED9AEC99E582984003
:102037000CF582EE9BFEED9AFDEC99FC0FD5F0D6E0
:10204700E4CEFBE4CDFAE4CCF9A88222B800C1B90A
:102057000059BA002DEC8BF084CFCECDFCE5F0CB48
:10206700F97818EF2FFFEE33FEED33FDEC33FCEB81
:1020770033FB10D703994004EB99FB0FD8E5E4F93C
:10208700FA227818EF2FFFEE33FEED33FDEC33FC29
:10209700C933C910D7059BE99A4007EC9BFCE99A1D
:1020A700F90FD8E0E4C9FAE4CCFB2275F010EF2F62
:1020B700FFEE33FEED33FDCC33CCC833C810D70762
:1020C7009BEC9AE899400AED9BFDEC9AFCE899F89D
:0E20D7000FD5F0DAE4CDFBE4CCFAE4C8F92230
:1020E500EB9FF5F0EA9E42F0E99D42F0E89C45F051
:0120F50022C8
:1020F600E8600FECC313FCED13FDEE13FEEF13FFC8
:03210600D8F122EB
:0C210900E0FCA3E0FDA3E0FEA3E0FF2249
:0C211500E0F8A3E0F9A3E0FAA3E0FB224D
:0C212100ECF0A3EDF0A3EEF0A3EFF02231
:10212D00A8828583F0D083D08212214412214412DB
:10213D002144122144E473E493A3C583C5F0C58300
:10214D00C8C582C8F0A3C583C5F0C583C8C582C8FC
:01215D00225F
:09215E00EBF608EAF608E9F622A6
:09216700E0FBA3E0FAA3E0F92279
:10217000F8E0FBA3A3E0F925F0F0E58215827002F8
:072180001583E0FA38F0229C
:09218700EBF0A3EAF0A3E9F02259
:10219000BB010789828A830221675005E9F8022280
:1021A0001ABBFE05E9F802222389828A8302222CC7
:1021B000D083D082F8E4937012740193700DA3A3BE
:1021C00093F8740193F5828883E4737402936860D2
:0621D000EFA3A3A380DFD2
:0621D6008A838982E47394
:10223800E508246DF582E43401F583E00508229071
:10224800016A30070390016DE475F00112217002F4
:102258001DAD2000E97F2ED2008018EF540F249086
:10226800D43440D4FF30040BEF24BFB41A00500319
:102278002461FFE50960021509050CE50C700205EB
:102288000B30070E90016AE475F001122170EF021D
:102298002208023AFB7403D2078003E4C207F50858
:1022A80090016A122187E4F509F50BF50CE5096040
:1022B800077F2012227B80F5750AFFC201C200C287
:1022C80002C203C205C206C208122247FF700D30BF
:1022D80007057F0012228CAF0CAE0B22B4255FC21B
:1022E800D5C204122247FF24D0B40A00501A75F050
:1022F8000A780930D50508B6FF0106C6A426F620D7
:10230800D5047002D20380D924CFB41A00EF500448
:10231800C2E5D20402248DD20180C6D20080C0D288
:102328000280BCD2D580BAD20580B47F2012227B2D
:102338002002077401B5090040F1122238FF122269
:102348007B0222B5D208D2068095122238FB1222CF
:1023580038FA122238F94A4B7006795E7A257BFFE3
:1023680020022EE509602A7E008E82758300121DE8
:10237800C660060EEE650A70F0C2D5EBC0E0EAC092
:10238800E0E9C0E0EE1224D4D0E0F9D0E0FAD0E0E1
:10239800FB121DADFF60AAEBC0E0EAC0E0E9C0E0B7
:1023A80012227BD0E02401F9D0E03400FAD0E0FB1F
:1023B800E50A0460DCD50AD980877BFF7A2479D0C6
:1023C800D202809C791080027908C206C20880086F
:1023D800D2D5790A8004790AC2D5E50A047002F5D3
:1023E8000AE4FAFDFEFF122238FC7B0820011312D2
:1023F8002238FD7B1030000A122238FE122238FFE4
:102408007B20EC3382D592D55013C3E43000069F6D
:10241800FFE49EFEE42001039DFDE49CFCE4CBF870
:10242800C201EC700CCFCECDCCE824F8F870F38064
:1024380017C3EF33FFEE33FEED33FDEC33FCEB3324
:10244800FB994002FB0FD8E9EB300105F8D0E0C456
:1024580048B201C0E00AEC4D4E4F78207B0070C2B4
:10246800EAB50A0040BCC0E01224D6D0F0D0E02083
:102478000104C4C0E0C4B201C0F0122264D0F0D597
:10248800F0EB0222B51221B023525323CC58232358
:102498004C231F4223D04F23D84423D84923384301
:0824A80023DE5523C24623C2C6
:1024B0004523C247257E5023272D232B2E234E2B29
:1024C000232F23234C2025672A22E7480000234698
:1024D0003F3F3F00790AA2D5200314300509B91007
:1024E000020404B9080104A2D52006025001042008
:1024F00002689202B509005034C0E07F2030031911
:102500007F30A20272067205500F12252DC202C240
:1025100006C205C2087F30800F300503E9C0E01213
:10252000227B300503D0E0F9D0E0B509CC300517A7
:102530007F30B9100C12227B7F583004077F7880DF
:1025400003B9080312227B3002057F2D02227B7F14
:10255000202008F87F2B2006F322920280CF286EDD
:10256000756C6C2900D2011222383001F8C2017852
:102570000930D50108F60222E72D504349581222AE
:10258000382403B405004001E49025799312226CAD
:0D259000743A12226CD2037509040223CCA8
:0C3E3100EE30E707C3E49FFFE49EFE2292
:1021DC00EF4E6012EF60010EEDBB010B89828A831A
:1021EC00F0A3DFFCDEFA2289F05007F709DFFCA927
:0C21FC00F022BBFEFCF309DFFCA9F0227E
:10220800BB010689828A83F0225002F722BBFE01B5
:02221800F322AF
:09221A00E6FB08E6FA08E6F922E9
:09222300E2FB08E2FA08E2F922EC
:0C222C00E493FB740193FA740293F9220E
:103AFB00EFB40A07740D123B06740A309811A8999B
:103B0B00B8130CC2983098FDA899C298B811F6302A
:073B1B0099FDC299F5992202
:00000001FF
