:042F11004102260053
:102B570012000E123E22123A17123E1E123C4F125C
:102B670034AC9001E6E06060E4F0900226E004F007
:102B77009000A4E0FFC394324027EF24CEFFE43453
:102B8700FFFE7C007D03121DB5EF240AFFE43EFE25
:102B9700900226E0D39FEE6480F8748098402980E5
:102BA700229000A4E0FFC374329FFFE49400FE7CF0
:102BB700007D06121DB5C3740A9FFF900226E0D35D
:102BC7009F4005E4F0120C079001E8E06005E4F08F
:102BD700123C019001EAE06008E4F012002612348A
:102BE7005D9001ECE06002E4F09001EFE06002E448
:102BF700F0123BAE900192EFF07003022B69E024D4
:102C0700FC602E24036003022B69900223E0FF304F
:102C1700E30C54F7F054FBF0123BE6022B699002E9
:102C270023E04408F04404F0E4FDFF122875022B6A
:072C370069123E1B022B692C
:013E1E002281
:013E1F002280
:013E2000227F
:013E2100227E
:063DF1009001E00220E257
:063DF7009001E30220E24E
:0E3D09009001E01220C2E94A6003122131222B
:0E3D17009001E31220C2E94A6003122131221A
:10398A00EF4E602D9001D6EEF0A3EFF0AF05A3EC59
:10399A00F0A3EFF0AF03A3EAF0A3EFF0E4A3F0A3E0
:1039AA00F0A3F0A3F09001D5F09001D404F0123DF9
:0239BA000922E0
:103C9600E49001D4F0123D177B007A007900123DC2
:043CA600F1023DF7F3
:102D21009001D4E07003022DD59001D8E0FEA3E01C
:102D3100FF4E7003022DD59001D5E07035D3EF948D
:102D410000EE94005003022DD59001DCE475F001F2
:102D5100121E40FED39001D7E095F09001D6E09E7F
:102D61005072123D17E49001DCF0A3F09001D504FC
:102D7100F0229001D5E06401705A9001DC75F001F8
:102D8100121E40FED39001D9E095F09001D8E09E4B
:102D910050429001DAE0FEA3E0FF9400EE9400407F
:102DA100259001DEE475F001121E40FCD3EF95F091
:102DB100EE9C5005E49001D4F09001D4E0700790AE
:102DC10001D8F0A3F022E49001DCF0A3F09001D54A
:052DD100F0123D092293
:102F15004101510050015200000000000000000076
:102F2500000000000000005001410000000000000A
:102F350000000000000000000000480162000000E1
:052F4500000000000087
:103A1700E4900151F0FE7F10FD7B017A017952128B
:103A270021377E007F107D007B017A0179411221C9
:073A370037122635023A6543
:0A301B0004F07B017A017941E0FD29
:0B30250090019A1220E290019DEDF056
:10303000E4FFFE0000000FBF00010EEF64144E70AD
:10304000F2123D259001517401F0E4FEFF000000F2
:10305000000FBF00010EEF64C84E70F190019A128C
:1030600020C274019001416B7008E965827003EA27
:10307000658360257E007F107D007B017A017941A8
:1030800012213790019DE0FF7E0078417C017D0197
:0930900090019A1220C2121CE208
:013099002214
:061448009001931220E266
:10144E00E4900196F0A3F0A3F0A3F0121D0864F24D
:10145E006003021C119001931220C2900001121D14
:10146E0021D394104003021C11E4900197F09001D7
:10147E00931220C2900001121D212401FFE433FEBD
:10148E00900197E0FDC39FEE6480F874809850231E
:10149E00ED2401FFE433FE9001931220C28F828E61
:1014AE0083121D21FF900199E02FF0900197E00427
:1014BE00F080BB9001931220C2900001121D21F505
:1014CE0082758300A3A3121D21FF900199E06F6026
:1014DE0003021C117E007F107D007B017A01794191
:1014EE00122137E4900198F09001931220C29000DF
:1014FE0002121D2112210B155D011655021707034D
:10150E0018EF0418F10518F30618F5071904081555
:10151E006009191350193151194F52195E53198020
:10152E00541AB9551AC6561AE5571AFD581B1059B2
:10153E001B165A1B235B1B3B5C1B415D1B595E1923
:10154E00227019407118EF7317B9B900001C080208
:10155E0019229001931220C2900003121D21B40192
:10156E0005123E1580269001931220C290000312A0
:10157E001D21B40205123E1880129001931220C252
:10158E00900003121D21B40303123E1B900198E03C
:10159E00FF04F074412FF582E43401F58374F8F002
:1015AE00900198E0FF04F074412FF582E43401F5C8
:1015BE00837402F09001931220C2900002121D213A
:1015CE00FF900198E0FE04F074412EF582E43401A0
:1015DE00F583EFF0123E03EF9001986013E0FF04E5
:1015EE00F074412FF582E43401F5837401F080111B
:1015FE00E0FF04F074412FF582E43401F5837402A8
:10160E00F0E4900197F0900142E02401FFE433FEF4
:10161E00900197E0FDC39FEE6480F87480984003BC
:10162E00021C0874422DF582E43401F583E0FF902C
:10163E000198E02441F582E43401F583E02FF09027
:10164E000197E004F080BF900223E0FF20E0030248
:10165E00193154FBF030E103021C08123C1C9001BE
:10166E0098E0FF04F074412FF582E43401F58374A1
:10167E00F8F0900198E0FF04F074412FF582E43405
:10168E0001F5837409F0900198E0FF04F074412F86
:10169E00F582E43401F5837402F0900198E0244160
:1016AE00F9E43401FA7B017D081239BC900198E00F
:1016BE002408F0E4900197F0900142E02401FFE449
:1016CE0033FE900197E0FDC39FEE6480F87480981E
:1016DE00502474422DF582E43401F583E0FF90012D
:1016EE0098E02441F582E43401F583E02FF0900177
:1016FE0097E004F080C2021AAF900223E0FF20E0D0
:10170E000302195E54FBF030E103021C08123C6721
:10171E00900198E0FF04F074412FF582E43401F556
:10172E008374F8F0900198E0FF04F074412FF58275
:10173E00E43401F5837409F0900198E0FF04F0742D
:10174E00412FF582E43401F5837403F0900198E0A3
:10175E002441F9E43401FA7B017D081239BC900171
:10176E0098E02408F0E4900197F0900142E0240103
:10177E00FFE433FE900197E0FDC39FEE6480F874A2
:10178E008098502474422DF582E43401F583E0FFF5
:10179E00900198E02441F582E43401F583E02FF0C6
:1017AE00900197E004F080C2021AAF900223E0305D
:1017BE00E00554FEF08007900223E04401F0900112
:1017CE0098E0FF04F074412FF582E43401F5837440
:1017DE00F8F0900198E0FF04F074412FF582E434A4
:1017EE0001F583740BF0900198E0FF04F074412F23
:1017FE00F582E43401F58374B9F0900222E0FEA381
:10180E00E0FF5401FD900198E0FC04F074412CF5CA
:10181E0082E43401F583EDF0EEC313EF135401FFB0
:10182E00900198E0FE04F074412EF582E43401F547
:10183E0083EFF0900198E02441F9E43401FA7B0142
:10184E007D081239BCE4900197F0900197E0FFC338
:10185E0094085040A3E0FE2441F582E43401F58360
:10186E00E5822FF582E43583F583E06003B4FF1C37
:10187E00900197E0FF74412EF582E43401F583E583
:10188E00822FF582E43583F5837420F0900197E082
:10189E0004F080B6900198E02408F0E4900197F0EF
:1018AE00900142E02401FFE433FE900197E0FDC376
:1018BE009FEE6480F8748098502474422DF582E473
:1018CE003401F583E0FF900198E02441F582E43481
:1018DE0001F583E02FF0900197E004F080C2021A28
:1018EE00AF807C804D805A7B007A007900E49001B5
:1018FE009EF07F0780767B007A007900E490019E4F
:10190E00F07F0880677B007A007900E490019EF0FA
:10191E007F0880587B007A007900E490019EF07F6A
:10192E000180497B007A007900E490019EF07F02ED
:10193E00803A7B007A007900E490019EF07F05806A
:10194E002B7B007A007900E490019EF07F06801CCC
:10195E007B007A007900E490019EF07F03800D7B7E
:10196E00007A007900E490019EF07F04122978023B
:10197E001C08900223E0FF30E11154FDF04408F002
:10198E004404F0E4FDFF1228758010900223E05409
:10199E00F7F054FBF04402F0123BE6900198E0FFA2
:1019AE0004F074412FF582E43401F58374F8F0905D
:1019BE000198E0FF04F074412FF582E43401F583C1
:1019CE00740AF0900198E0FF04F074412FF582E460
:1019DE003401F5837401F0900222E0C313A3E013E7
:1019EE005401FF900198E0FE04F074412EF582E45C
:1019FE003401F583EFF0900198E02441F9E43401CD
:101A0E00FA7B017D081239BCE4900197F0900197A2
:101A1E00E0FFC394085040A3E0FE2441F582E43475
:101A2E0001F583E5822FF582E43583F583E06003CB
:101A3E00B4FF1C900197E0FF74412EF582E434014F
:101A4E00F583E5822FF582E43583F5837420F090DB
:101A5E000197E004F080B6900198E02408F0E4903D
:101A6E000197F0900142E02401FFE433FE900197CC
:101A7E00E0FDC39FEE6480F8748098502474422D6C
:101A8E00F582E43401F583E0FF900198E02441F5FE
:101A9E0082E43401F583E02FF0900197E004F080AA
:101AAE00C2900198E012301B021C08900223E054F1
:101ABE00FBF0123C67021C089000A4E0D394644033
:101ACE0003021C08E0240AF0E0C394645003021CD5
:101ADE00087464F0021C08900223E0FF30E2065402
:101AEE00FBF0021C08900223E04404F0021C089054
:101AFE0000A4E0C3940A5003021C08E024F6F0028E
:101B0E001C08123630021C08900223E054FBF0121F
:101B1E003C1C021C089000A3E0D394645022E024E5
:101B2E000AF0E0C3946440187464F08013123549CF
:101B3E00021C089000A3E0C3940A4004E024F6F0CF
:101B4E009000A3E0FF123AAF021C08123E1B900158
:101B5E0098E0FF04F074412FF582E43401F58374AC
:101B6E00F8F0900198E0FF04F074412FF582E43410
:101B7E0001F5837402F0900198E0FF04F074412F98
:101B8E00F582E43401F5837409F0123E03EF9001FF
:101B9E00986013E0FF04F074412FF582E43401F5F0
:101BAE00837401F08011E0FF04F074412FF582E49C
:101BBE003401F5837402F0E4900197F0900142E055
:101BCE002401FFE433FE900197E0FDC39FEE648095
:101BDE00F8748098502474422DF582E43401F58314
:101BEE00E0FF900198E02441F582E43401F583E0B2
:101BFE002FF0900197E004F080C2900198E060030E
:031C0E0012301B76
:011C110022B0
:10345D00900151E06031123D9FEF24F0601824D0AF
:10346D00601224207016123D68123DDCE49001516B
:10347D00F0023A658000123D68023DDC7B017A0165
:10348D0079417D1002386F7B017A0179527D1012DE
:0F349D0039EEEF60097B017A017952121448224F
:102F4A004101AA004101AB004101AF004101B000BB
:102F5A004201AC00004101AE005001B10000000086
:0C2F6A000000000000000000000000005B
:103C4F00E49001AAF0A3F09001AFF0FE7FA2FD7BFC
:083C5F00017A0079000221370F
:1029780090019B1220E2E49001AAF0E0FE04F074BA
:10298800B12EF582E43401F5837455F09001AAE084
:10299800FE04F074B12EF582E43401F58374AAF0D4
:1029A80090019EE004FE9001AAE0FD04F074B12DB0
:1029B800F582E43401F583EEF09001AAE0FE04F01C
:1029C80074B12EF582E43401F583EFF0E49001AFA1
:1029D800F090019EE0FF9001AFE0FEC39F502A9067
:1029E800019B1220C28E82758300121D21FE900168
:1029F800AAE0FD04F074B12DF582E43401F583EE0C
:102A0800F09001AFE004F080C87B017A0179B1EF62
:102A18002404FD12335B9001AAE0FE04F074B12E89
:102A2800F582E43401F583EFF0E49001AFF0900112
:102A38009EE02405FFE433FE9001AFE0FDC39FEE66
:102A48006480F8748098501774B12DF582E43401CD
:102A5800F583E0FF123DC49001AFE004F080CF227F
:100026009000A2E07003020C0614F09000A0E024F9
:10003600A0FFE433FEA3E0FBFDC3EF9DFFEE9400BB
:10004600FE7C007DA0121DB5EDC3940440D2740061
:100056002BF582E43400F583E064556003020BF26D
:100066009000A1E07A002401FFEA33FE7C007DA027
:10007600121E0A74002DF58274003CF583E064AA12
:100086006003020BF2EB2402FFEA33FE7C007DA044
:10009600121E0A74002DF58274003CF583E090016F
:1000A600ABF09000A0E024A0FFE433CFC39BCF9A2F
:1000B600FE7C007DA0121E0A9001ABE02404FFE442
:1000C60033FEC3ED9FEE6480F8EC64809850030223
:1000D6000BF89000A1E0FF2400F9E43400FA7B015C
:1000E6009001ABE02403FD90019BEFF0A374A0F018
:1000F60012309AAB079001ABE0FF9000A1E02FFF12
:10010600E433CF2403CF3400FE7C007DA0121E0A08
:1001160074002DF58274003CF583E06B6003020BDE
:10012600F2E49001AAF0FE7F10FD7B017A0179418D
:100136001221379000A1E0FB7A002403FFEA33FE88
:100146007C007DA0121E0A74002DF58274003CF519
:1001560083E012210B018F1203863104603308E21B
:1001660034054A35063436071E3702AC38080841CE
:1001760009D5540AC6570ADD620B42630B68640B45
:090186008A650BAE6600000BDC7B
:10018F00E4900193F0A3F0EB240CFFE43AFE7C0023
:10019F007DA0121E0A74002DF58274003CF583E0D9
:1001AF00FF7E00900193EEF0A3EFF0C39410EE9456
:1001BF00004003020BDC900193E07002A3E0702873
:1001CF009001AE7410F0E4A3F09001AEE0FFA3E055
:1001DF00FEC39F5013EE75F080A4FFAEF0123D8B5F
:1001EF009001AFE004F080E19000A1E0240DFFE466
:1001FF0033FE7C007DA0121E0A74002DF582740060
:10020F003CF583E0540FFF9001ACE4F0A3EFF0E472
:10021F009001AFF09001ACE0FEA3E0FF7C007D0DFC
:10022F00121DA3EF240AFFE43EFE9001AFE0FBC3D3
:05023F009FEC9E504BF6
:10024400900193E0FEA3E0FF7D72121DA3EBFD2F4E
:10025400FFEC3EFEA3F0A3EFF0C006C0079000A1A0
:10026400E02404FFE433CF2DCF3CFE7DA0121E0A10
:1002740074002DF58274003CF583E0FDD007D006B0
:03028400123D9593
:100287009001AFE004F08094900193A3E09001AE59
:10029700F07B017A0179AE90019E7401F07F121212
:0202A7002978B4
:1002A900020BDC9001AAE0FF04F074412FF582E40F
:1002B9003401F58374F8F09001ABE0FF9001AAE0F6
:1002C900FE04F074412EF582E43401F583EFF090D9
:1002D90001AAE0FF04F074412FF582E43401F583AB
:1002E9007438F0E49001AFF09001ABE014FF900195
:1002F900AFE0FEC39F50409000A1E02404FDE43329
:10030900FCEE7E002DFFEE3CFE7C007DA0121E0A55
:1003190074002DF58274003CF583E0FF9001AAE09A
:10032900FE04F074412EF582E43401F583EFF09078
:1003390001AFE004F080B1E49001AFF0900142E038
:100349002401FFE433FE9001AFE0FDC39FEE64801A
:10035900F8748098502474422DF582E43401F583B1
:10036900E0FF9001AAE02441F582E43401F583E03D
:100379002FF09001AFE004F080C2020AB29001AA06
:10038900E0FF04F074412FF582E43401F58374F839
:10039900F09001ABE0FF9001AAE0FE04F074412E59
:1003A900F582E43401F583EFF09001AAE0FF04F04F
:1003B90074412FF582E43401F5837431F0E490013E
:1003C900AFF09001ABE014FF9001AFE0FEC39F5086
:1003D900409000A1E02404FDE433FCEE7E002DFFF3
:1003E900EE3CFE7C007DA0121E0A74002DF582747D
:1003F900003CF583E0FF9001AAE0FE04F074412E71
:10040900F582E43401F583EFF09001AFE004F08068
:10041900B1E49001AFF0900142E02401FFE433FE22
:100429009001AFE0FDC39FEE6480F874809850247A
:1004390074422DF582E43401F583E0FF9001AAE0CE
:100449002441F582E43401F583E02FF09001AFE017
:1004590004F080C2020AB29001AAE0FF04F07441DC
:100469002FF582E43401F58374F8F09001ABE0FFD5
:100479009001AAE0FE04F074412EF582E43401F5FE
:1004890083EFF09001AAE0FF04F074412FF582E4B4
:100499003401F5837433F0E49001AFF09001ABE0DF
:1004A90014FF9001AFE0FEC39F50409000A1E024EB
:1004B90004FDE433FCEE7E002DFFEE3CFE7C007D66
:1004C900A0121E0A74002DF58274003CF583E0FF2A
:1004D9009001AAE0FE04F074412EF582E43401F59E
:1004E90083EFF09001AFE004F080B1E49001AFF048
:1004F900900142E02401FFE433FE9001AFE0FDC327
:100509009FEE6480F8748098502474422DF582E43B
:100519003401F583E0FF9001AAE02441F582E43437
:1005290001F583E02FF09001AFE004F080C2900163
:10053900AAE004F0900223E030E003020BDC020998
:10054900C99001AAE0FF04F074412FF582E4340157
:10055900F58374F8F09001ABE0FF9001AAE0FE0486
:10056900F074412EF582E43401F583EFF09001AA8D
:10057900E0FF04F074412FF582E43401F58374350A
:10058900F0E49001AFF09001ABE014FF9001AFE00F
:10059900FEC39F50409000A1E02404FDE433FCEE2B
:1005A9007E002DFFEE3CFE7C007DA0121E0A740029
:1005B9002DF58274003CF583E0FF9001AAE0FE046A
:1005C900F074412EF582E43401F583EFF09001AF28
:1005D900E004F080B1E49001AFF0900142E0240121
:1005E900FFE433FE9001AFE0FDC39FEE6480F87431
:1005F9008098502474422DF582E43401F583E0FF9C
:100609009001AAE02441F582E43401F583E02FF05A
:100619009001AFE004F080C29001AAE004F09002DA
:1006290023E030E003020BDC0209C99001AAE0FFD4
:1006390004F074412FF582E43401F58374F8F090E5
:1006490001ABE0FF9001AAE0FE04F074412EF582AF
:10065900E43401F583EFF09001AAE0FF04F074415E
:100669002FF582E43401F5837436F0E49001AFF09C
:100679009001ABE014FF9001AFE0FEC39F504090A2
:1006890000A1E02404FDE433FCEE7E002DFFEE3CE6
:10069900FE7C007DA0121E0A74002DF58274003CB8
:1006A900F583E0FF9001AAE0FE04F074412EF58283
:1006B900E43401F583EFF09001AFE004F080B1E498
:1006C9009001AFF0900142E02401FFE433FE900174
:1006D900AFE0FDC39FEE6480F874809850247442A3
:1006E9002DF582E43401F583E0FF9001AAE024416D
:1006F900F582E43401F583E02FF09001AFE004F0D6
:1007090080C29001AAE004F0900223E030E00302E5
:100719000BDC0209C99001AAE0FF04F074412FF52E
:1007290082E43401F58374F8F09001ABE0FF9001A5
:10073900AAE0FE04F074412EF582E43401F583EF5A
:10074900F09001AAE0FF04F074412FF582E434012E
:10075900F5837437F0E49001AFF09001ABE014FF3A
:100769009001AFE0FEC39F50409000A1E02404FD3A
:10077900E433FCEE7E002DFFEE3CFE7C007DA012F2
:100789001E0A74002DF58274003CF583E0FF900188
:10079900AAE0FE04F074412EF582E43401F583EFFA
:1007A900F09001AFE004F080B1E49001AFF0900166
:1007B90042E02401FFE433FE9001AFE0FDC39FEE68
:1007C9006480F8748098502474422DF582E43401D1
:1007D900F583E0FF9001AAE02441F582E43401F5B4
:1007E90083E02FF09001AFE004F080C29001AAE00D
:1007F90004F0900223E030E003020BDC0209C99007
:1008090001AAE0FF04F074412FF582E43401F58375
:1008190074F8F09001ABE0FF9001AAE0FE04F074D7
:10082900412EF582E43401F583EFF09001AAE0FF4F
:1008390004F074412FF582E43401F5837441F0E446
:100849009001AFF09001ABE014FF9001AFE0FEC35F
:100859009F50409000A1E02404FDE433FCEE7E00AB
:100869002DFFEE3CFE7C007DA0121E0A74002DF5C2
:100879008274003CF583E0FF9001AAE0FE04F07465
:10088900412EF582E43401F583EFF09001AFE004E5
:10089900F080B1E49001AFF0900142E02401FFE45F
:1008A90033FE9001AFE0FDC39FEE6480F874809839
:1008B900502474422DF582E43401F583E0FF900160
:1008C900AAE02441F582E43401F583E02FF0900198
:1008D900AFE004F080C2020AB29001AAE0FF04F07E
:1008E90074412FF582E43401F58374F8F09001AB7B
:1008F900E0FF9001AAE0FE04F074412EF582E43491
:1009090001F583EFF09001AAE0FF04F074412FF59F
:1009190082E43401F5837434F0E49001AFF090017E
:10092900ABE014FF9001AFE0FEC39F50409000A1DF
:10093900E02404FDE433FCEE7E002DFFEE3CFE7C5A
:10094900007DA0121E0A74002DF58274003CF58307
:10095900E0FF9001AAE0FE04F074412EF582E43430
:1009690001F583EFF09001AFE004F080B1E490016C
:10097900AFF0900142E02401FFE433FE9001AFE0C3
:10098900FDC39FEE6480F8748098502474422DF55D
:1009990082E43401F583E0FF9001AAE02441F58265
:1009A900E43401F583E02FF09001AFE004F080C258
:1009B9009001AAE004F0900223E030E003020BDC8E
:1009C9007B017A0179419001AA020ABE900223E0D3
:1009D900FF30E10E54FDF04408F04404F0123C7F6E
:1009E9008010900223E04402F054F7F054FBF01217
:1009F9003BE69001AAE0FF04F074412FF582E4344C
:100A090001F58374F8F09001AAE0FF04F074412F16
:100A1900F582E43401F583740AF09001AAE0FF0439
:100A2900F074412FF582E43401F5837401F09002EA
:100A390022E0C313A3E0135401FF9001AAE0FE04CE
:100A4900F074412EF582E43401F583EFF09001AAA8
:100A5900E02441F9E43401FA7B017D081239BC90A4
:100A690001AAE02408F0E49001AFF0900142E024EB
:100A790001FFE433FE9001AFE0FDC39FEE6480F80F
:100A8900748098502474422DF582E43401F583E092
:100A9900FF9001AAE02441F582E43401F583E02FB7
:100AA900F09001AFE004F080C29001AAE004F07B6D
:100AB900017A017941E0FD123025020BDC90022315
:100AC900E030E20654FBF0020BDC900223E0440420
:100AD900F0020BDC9000A1E0FB7A002404FFEA336A
:100AE900FE7C007DA0121E0A74002DF58274003C64
:100AF900F583E0FFC007EB2405FFEA33FE7C007DA8
:100B0900A0121E0A74002DF58274003CF583E0FDE5
:100B1900C0059000A1E02406FFE433FE7C007DA01F
:100B2900121E0A74002DF58274003CF583E0FBD097
:100B390005D0071237E8020BDC9000A1E02404FF7E
:100B4900E433FE7C007DA0121E0A74002DF5827428
:100B5900003CF583E0FF9000A3F0123AAF80749057
:100B690000A1E02404FFE433FE7C007DA0121E0AEC
:100B790074002DF58274003CF583E09000A4F080A8
:100B8900529000A1E02404FFE433FE7C007DA01212
:100B99001E0A74002DF58274003CF583E0FFE4FD24
:050BA900122875802EEA
:100BAE009000A1E02404FFE433FE7C007DA0121E21
:100BBE000A74002DF58274003CF583E0900193F0E9
:0E0BCE00E0FFC4540F7007EF540FFF123DA953
:100BDC009001ABE02404FF9000A1E02FF0E075F051
:100BEC00A084E5F0F0229000A1E004F09000A1E0D8
:0B0BFC0075F0A084E5F0F00200262256
:10335B0090019F1220E2AE05E4900224F0AF061E0E
:10336B00EF6040900224E0FF90019FE475F00112A2
:10337B0020CB121D086F900224F0E4A3F0900225DD
:10338B00E0C3940850D7900224E030E007C31364E5
:10339B008CF08007900224E0C313F0900225E00428
:0933AB00F080DA900224E0FF2218
:10309A009001971220E2AE05E4900224F0AF061EDA
:1030AA00EF6065900224E0FF900197E475F0011249
:1030BA0020CB121D086F900224F090019BE004F0CF
:1030CA00A3E0FF90019BE0C39F4012E4F0EFFDE410
:1030DA009DFDE494009001988DF0121E40E4900248
:1030EA0025F0900225E0C3940850B2900224E03003
:1030FA00E007C313648CF08007900224E0C313F046
:0E310A00900225E004F080DA900224E0FF221B
:103B3A00FFFFFF00FF000000FFFF000000FFFFFF84
:0E3B4A0000FFFFFF0000FF800080FFFF8000F3
:0F2F76004100AB00410124004401250000000090
:1034AC009000AB7409F07E007F067D007B017A01F1
:1034BC00791E1221377E007F017D007B017A017914
:1034CC00361221377E007F727D007B017A0079AC49
:1034DC001221377E007F087D007B017A0079A312D0
:0F34EC0021379000A37464F0A37432F0023BE622
:103549009000ABE0600414F080069000AB7409F0C1
:103559009000ABE0FE75F003A4243AF582E4343B15
:10356900F583E493FFEE75F003A4243BF582E4347C
:103579003BF583E493FD9000ABE075F003A4243C94
:0D358900F582E4343BF583E493FB0237E860
:103630009000ABE004F0E0C3940A4002E4F0900094
:10364000ABE0FE75F003A4243AF582E4343BF58345
:10365000E493FFEE75F003A4243BF582E4343BF5DC
:1036600083E493FD9000ABE075F003A4243CF58265
:0B367000E4343BF583E493FB0237E8F1
:103C1C00900136E0600414F080069001367410F0C8
:0A3C2C00900136E0FF7D02022875CA
:103C6700900136E004F0E0C394114002E4F09001C3
:083C770036E0FF7D0102287513
:1039BC0090019A1220E2EDD39408400C7B007A001F
:1039CC00790090019A0220E2AF057E0090019A12D4
:1039DC0020C2A801AC02AD037B017A0079AC121CA9
:0239EC00E222D5
:103C7F009000AB7409F0900223E04408F0900136F5
:073C8F00E0FFE4FD022875CF
:103BE600900223E054F7F0E4900130F0900134F0B5
:0B3BF600A3F0FBFAFDFCFFFE022A68B2
:1032A700900198EFF02401FFE433FE9000B5E0545D
:1032B7000FB50714E4B50610900198F0E075F00D0E
:1032C700A424B6F97400800D900198E075F00DA460
:1032D70024C3F9740035F0FA7B0178297C017D015C
:1032E7007E007F0D121CE278377C017D017B017A1D
:0A32F7000079AC7E007F0A021CE2A1
:1028750090019BEDF090019AEFF0FBE490011EF0C2
:10288500A312208800000000E4900123F0EBD3940C
:1028950010400C9001367410F090019AF080089069
:1028A500019AE0900136F090019BE0701A7B017A65
:1028B5000079AC90019AE0FD1233019000ACE0F490
:0F28C5006003022952806F90019BE06401703C18
:1028D400A3F0F07B017A0079AC90019AE0FD123309
:1028E400019000ACE0F4706690019AE070028047B9
:1028F40090019AE004F0E0C394114002E4F09001E6
:0C2904009CE004F0E0C3941140C9804244
:0829100090019BE06402703AA3
:10291800A3F0F07B017A0079AC90019AE0FD1233C4
:10292800019000ACE0F4702290019AE0600414F089
:10293800800CE4FBFAFDFCFFFE122A68800C900173
:0A2948009CE004F0E0C3941140C9C4
:1029520078297C017D017B017A0079B67E007F0DAA
:10296200121CE278377C017D017B017A0079AC7E12
:06297200007F0A021CE2D6
:10382C00900197EFF0E490011EF0A31220880000A5
:10383C0000009001237432F0900223E030E21690E5
:10384C000124E004F0E0D394045002800DE49001D4
:10385C0024F0023C67E4900124F0900197E0FF1201
:03386C0032A7225E
:1037E80090019AEFF0A3EDF0A3EBF0123BE6900105
:1037F8009AE09000A5F0A3E4F090019BE09000A768
:10380800F0A3E4F090019CE07F009000A9F0FAA3F7
:10381800EFF0FB9000A5E0FEA3E0FFA3E0FCA3E02F
:04382800FD022A680B
:100C0700900223E020E303021447900123E06003EE
:100C170014F022900130E0700D900134E07002A3CF
:100C2700E07003021447900129E0540F24FC70037D
:100C3700020FD51470030211C32402600302144784
:100C470090011F122064EF2401FFE43EFEE43DFD06
:100C5700E43CFC90011F12207C90012DE0FF9001E5
:100C67002AE0FEC39F5064EEFDC3EF9DFFE49400AE
:100C7700FE123D74EE3395E0FDFCC004C005C006CE
:100C8700C007E4FF7E01FDFC90011F122070121FB8
:100C970023D003D002D001D000121F23C006C00703
:100CA700900131E0FEA3E0FBAA06E4F9F8D007D0F3
:100CB70006121FAEA804A905AA06AB0790012AE0F1
:100CC7007F00FEE4FCFD121F08806890012AE0FF08
:100CD70090012DE0C39FFFE49400FE123D74EE33B4
:100CE70095E0FDFCC004C005C006C007E4FF7E0117
:100CF700FDFC90011F122070121F23D003D002D0D9
:100D070001D000121F23C006C007900131E0FEA3E7
:100D1700E0FBAA06E4F9F8D007D006121FAEA80434
:100D2700A905AA06AB0790012AE07F00FEE4FCFDB7
:100D3700121F1590012512207C900133E0FFE4FC7F
:100D4700FDFE900125122070121F23E47B64FAF93F
:100D5700F8121FAE90012512207C90012512206405
:100D67009000A5EEF0A3EFF090012EE0FF90012B8D
:100D7700E0FEC39F5064EEFDC3EF9DFFE49400FEC9
:100D8700123D74EE3395E0FDFCC004C005C006C0FB
:100D970007E4FF7E01FDFC90011F122070121F2344
:100DA700D003D002D001D000121F23C006C0079085
:100DB7000131E0FEA3E0FBAA06E4F9F8D007D0066C
:100DC700121FAEA804A905AA06AB0790012BE07F66
:100DD70000FEE4FCFD121F08806890012BE0FF90E5
:100DE700012EE0C39FFFE49400FE123D74EE33959D
:100DF700E0FDFCC004C005C006C007E4FF7E01FD9E
:100E0700FC90011F122070121F23D003D002D001C3
:100E1700D000121F23C006C007900131E0FEA3E0F7
:100E2700FBAA06E4F9F8D007D006121FAEA804A95A
:100E370005AA06AB0790012BE07F00FEE4FCFD123C
:100E47001F1590012512207C900133E0FFE4FCFD83
:100E5700FE900125122070121F23E47B64FAF9F833
:100E6700121FAE90012512207C900125122064905C
:100E770000A7EEF0A3EFF090012FE0FF90012CE028
:100E8700FEC39F5064EEFDC3EF9DFFE49400FE1286
:100E97003D74EE3395E0FDFCC004C005C006C007F5
:100EA700E4FF7E01FDFC90011F122070121F23D06A
:100EB70003D002D001D000121F23C006C007900143
:100EC70031E0FEA3E0FBAA06E4F9F8D007D006124A
:100ED7001FAEA804A905AA06AB0790012CE07F0066
:100EE700FEE4FCFD121F08806890012CE0FF9001D2
:100EF7002FE0C39FFFE49400FE123D74EE3395E0AC
:100F0700FDFCC004C005C006C007E4FF7E01FDFC70
:100F170090011F122070121F23D003D002D001D0DE
:100F270000121F23C006C007900131E0FEA3E0FBBB
:100F3700AA06E4F9F8D007D006121FAEA804A9053F
:100F4700AA06AB0790012CE07F00FEE4FCFD121F10
:100F57001590012512207C900133E0FFE4FCFDFE93
:100F6700900125122070121F23E47B64FAF9F8120E
:100F77001FAE90012512207C90012512206490005D
:100F8700A9EEF0FAA3EFF0FB9000A5E0FEA3E0FFC7
:100F9700A3E0FCA3E0FD122A68900131E0FEA3E084
:100FA700FFE4FCFD90011F122070C3122040401285
:100FB70090011F12208800000000900130E06002BD
:100FC70014F0900130E0600302144702143C9001D2
:100FD7001EE07012A3122064EF2401FFE43EFEE43A
:100FE7003DFDE43C802190011F122064EC4D4E4FE3
:100FF700601C90011F122064EF24FFFFEE34FFFEF8
:10100700ED34FFFDEC34FFFC90011F12207CE47FE0
:10101700FFFEFDFC90011F122070121F23A804A9D8
:1010270005AA06AB0790012AE0FFE4FCFDFE121FAC
:1010370023C006C007900131E0FEA3E0FBAA06E447
:10104700F9F8D007D006121FAE90012512207C9028
:101057000133E0FFE4FCFDFE900125122070121F12
:1010670023E47B64FAF9F8121FAE90012512207C65
:101077009001251220649000A5EEF0A3EFF0E47F25
:10108700FFFEFDFC90011F122070121F23A804A968
:1010970005AA06AB0790012BE0FFE4FCFDFE121F3B
:1010A70023C006C007900131E0FEA3E0FBAA06E4D7
:1010B700F9F8D007D006121FAE90012512207C90B8
:1010C7000133E0FFE4FCFDFE900125122070121FA2
:1010D70023E47B64FAF9F8121FAE90012512207CF5
:1010E7009001251220649000A7EEF0A3EFF0E47FB3
:1010F700FFFEFDFC90011F122070121F23A804A9F8
:1011070005AA06AB0790012CE0FFE4FCFDFE121FC9
:1011170023C006C007900131E0FEA3E0FBAA06E466
:10112700F9F8D007D006121FAE90012512207C9047
:101137000133E0FFE4FCFDFE900125122070121F31
:1011470023E47B64FAF9F8121FAE90012512207C84
:101157009001251220649000A9EEF0FAA3EFF0FBAE
:101167009000A5E0FEA3E0FFA3E0FCA3E0FD122AA8
:1011770068900131E0FEA3E0FFE4FCFD90011F123F
:101187002070C31220405011E4FFFEFDFC90011FA8
:10119700122070C3122040701790011EE0700404E3
:1011A700F0800DE490011EF0900130E0600214F031
:0C11B700900130E0600302144702143C79
:1011C300900193122088000000FFE4FFFEFDFC90D5
:1011D300011F122070C312204060030212BD900150
:1011E3002AE0FFE4FCFDFE900193122070121F23FE
:1011F300A804A905AA06AB07900133E0FFE4FCFDB0
:10120300FE121F23E47B64FAF9F8121FAE90012546
:1012130012207C9001251220649000A5EEF0A3EF2C
:10122300F090012BE0FFE4FCFDFE9001931220708F
:10123300121F23A804A905AA06AB07900133E0FFF8
:10124300E4FCFDFE121F23E47B64FAF9F8121FAEDF
:1012530090012512207C9001251220649000A7EEB6
:10126300F0A3EFF090012CE0FFE4FCFDFE9001936E
:10127300122070121F23A804A905AA06AB07900128
:1012830033E0FFE4FCFDFE121F23E47B64FAF9F86C
:10129300121FAE90012512207C900125122064902C
:1012A30000A9EEF0FAA3EFF0FB9000A5E0FEA3E0A7
:1012B300FFA3E0FCA3E0FD122A68900131E0FEA346
:1012C300E0FFE4FCFD90012512207C900125122013
:1012D3006490011F122070C312204060030213BFE9
:1012E30090012DE0FFE4FCFDFE90019312207012AB
:1012F3001F23A804A905AA06AB07900133E0FFE466
:10130300FCFDFE121F23E47B64FAF9F8121FAE9072
:10131300012512207C9001251220649000A5EEF097
:10132300A3EFF090012EE0FFE4FCFDFE9001931289
:101333002070121F23A804A905AA06AB0790013346
:10134300E0FFE4FCFDFE121F23E47B64FAF9F812CC
:101353001FAE90012512207C90012512206490007D
:10136300A7EEF0A3EFF090012FE0FFE4FCFDFE9069
:101373000193122070121F23A804A905AA06AB0724
:10138300900133E0FFE4FCFDFE121F23E47B64FACB
:10139300F9F8121FAE90012512207C90012512202E
:1013A300649000A9EEF0FAA3EFF0FB9000A5E0FE35
:1013B300A3E0FFA3E0FCA3E0FD122A6890011F1243
:1013C3002064EF2401FFE43EFEE43DFDE43CFC9099
:1013D300011F12207C90012512208800000000903C
:1013E3000131E0FEA3E0FFE4FCFD90012512207033
:1013F300121F08A804A905AA06AB07900134E0FE52
:10140300A3E0FFE4FCFD121F0890012512207C904D
:10141300012512206490011F122070C31220404046
:101423001290011F12208800000000900130E0603C
:101433000214F0900130E0700B900129E0C4540FC6
:04144300FF12382C30
:011447002282
:013E2200227D
:0B33010090019D1220E29001A0EDF071
:10330C00E4A3F0AF05EFC39411E49001A1F0900198
:10331C00A1E0FDC3947250369001A0E075F072A448
:10332C002400FFE5F03440FE7C00EF2DFFEC3EFE68
:10333C0012000390019D1220C29001A1E0F582754C
:0E334C008300EF121D819001A1E004F080C00B
:01335A002250
:0A3D8B00E42FFFEE3440FE0237A3E0
:0A3D9500E42FFFEE3440FE02311867
:103CF700E42FFFEE3440FE9001F7E09001FDF00263
:023D07002DD6B7
:013E2300227C
:013E2400227B
:10000E00123CBE123DB3123E0912340B123B1A12B1
:05001E003B58D2AF22A7
:042F85004100A20065
:103B5800E49000A2F0FE7FA2FD7B017A00790012BA
:0D3B680021377F007E4B7D007C00023185FF
:0300230002375C45
:10375C00C0E0C083C082C0D075D000C007309827AD
:10376C00C2989000A0E0FF04F074002FF582E434BE
:10377C0000F583E599F09000A0E0C394A04002E42A
:10378C00F09000A2E004F0309902C299D007D0D09A
:07379C00D082D083D0E0329F
:082F89004101F0004101F100DB
:103B1A00123B925389F0438901538EF79001F07456
:103B2A00FAF0A374C4F0758CFAF58AD2A9D28C2261
:103B9200E49001E7F09001E9F09001EDF0A3F090DC
:0C3BA20001E8F09001EAF09001EFF02241
:03000B00022F9A27
:102F9A00C0E0C0F0C083C082C0D075D000C000C0FD
:102FAA00069001F0E0F58CA3E0F58A9001E6740141
:102FBA00F0A3E004F0C3940A4005E4F0A304F090FF
:102FCA0001E9E004F0C394644005E4F0A304F0903E
:102FDA0001EBE004F0C394F4748094814005E4F0BA
:102FEA00A304F09001EDE475F001121E40FEC3E562
:102FFA00F094E8EE9403400A9001EDE4F0A3F0A304
:10300A0004F0D006D000D0D0D082D083D0F0D0E067
:01301A003283
:103A8B000A6D679C46F6375D4521EFAC5A50010B2A
:103A9B00DF020A6D679C46F6375D4521EFAC5A5045
:043AAB00E10BDF024A
:082F91004501FECCCCCCCCCCF8
:103CBE0053B3FE43B40153B3FD43B40253B1FE43B9
:033CCE00B201221E
:013E2500227A
:103B7500E4FEC290EF30E704D2808002C280EF25D8
:0C3B8500E0FFD290000EEEB408E8C29001
:013B91002211
:043CD100E4FD7FFC93
:0F3CD500C29100123B75AF05123B7500D29122D0
:0A38E9007B019001A97405F07F3FF8
:0638F3009001A61220E284
:1038F900C291E4FD123B759001A9E0FFEDC39F5011
:10390900159001A61220C28D82758300121D21FF18
:08391900123B750D80E1D29113
:013921002283
:103AF700E4FEC290EF30E704D2808002C280EF2557
:103B0700E0FFD290000EEEB408E843B10153B2FED5
:023B1700C2905A
:013B19002289
:103C3600E4FFFEC290EF25E0FFD2903080034401FE
:083C4600FF0EEEB408EDC29080
:013C4E002253
:103CE400C29100123AF7123C3653B1FE43B20100BE
:023CF400D2916B
:013CF60022AB
:063922009001941220E266
:10392800C291123AF7E4FD900197E0FFEDC39F5072
:1039380015123C369001941220C28D82758300EFD7
:0E394800121D810D80E153B1FE43B201D291F8
:01395600224E
:0E3D2500123CD17D8E7F20123CD50000002282
:103A6500E4FEFD7FFC123CD57D8F7F20123CD5E422
:103A7500FD7FFD123CD5E4FEFF000FBF00010EBE29
:053A850013F7BF88F4F7
:013A8A002219
:0A3D9F007F07123CE4EF5470FF228E
:063DFD007F09123CE422E4
:073DDC007D707F27023CD53A
:0C3D6800E4FD7FE1123CD57FE2023CD577
:0E3D3300AC07123CD1AF04AD077F25023CD592
:06386F00123D9FEF7038CE
:10387500900193F0A3F09001A9EDF07FA01238F329
:10388500E4FD7FFD123CD5E4900193F0A3F0009098
:103895000193E475F001121E40900193E07004A3BA
:0838A500E064C870E9123CD197
:0138AD0022F8
:1039EE00AC05123D9FEF30E61D123CD1900197ECD5
:1039FE00F07F61123922123D68123DDCE4FD7FFD3D
:093A0E00123CD57F01227F002249
:1026350078937C017D017BFF7A3A798B7E007F055B
:10264500121CE278987C017D017BFF7A3A79907EB5
:10265500007F03121CE2789B7C017D017BFF7A3AA7
:1026650079937E007F06121CE278A17C017D017BB7
:10267500FF7A3A79997E007F01121CE278A27C01EB
:102685007D017BFF7A3A799A7E007F03121CE21264
:102695003E257D5A7F53123CD57DA57F53123CD5EF
:1026A5007D207F3D123CD5123CD17FE1123CD57F88
:1026B500E2123CD57D707F27123CD57D017F221229
:1026C5003CD57D037F23123CD57D4E7F25123CD51D
:1026D5007D107F31123CD57B017A0179FE9001A9ED
:1026E5007405F07F301238F37B017A0179FE900191
:1026F500A97405F07F2A1238F37A0179931238E923
:102705007B017A01799B9001A97406F07F3A123812
:10271500F37B017A0179A19001A97401F07F391247
:1027250038F37B017A0179989001A97403F07F3E13
:102735001238F37B017A0179A29001A97403F07F25
:102745003B1238F3E4FD7F3C123CD57D3F7F2612DA
:0E2755003CD5E4FD7F24123CD57F21023CD50B
:052C3E009001C1EFF060
:102C4300E478C27C017D017BFF7A3A799DFE7F05A2
:102C5300121CE278C77C017D017BFF7A3A79A27E60
:102C6300007F03121CE278CA7C017D017BFF7A3A64
:102C730079A57E007F06121CE278D07C017D017B62
:102C8300FF7A3A79AB7E007F01121CE278D17C0196
:102C93007D017BFF7A3A79AC7E007F03121CE27DD3
:102CA3005A7F53123CD57DA57F53123CD57D207F9F
:102CB3003D123CD5123CD1E4FF000000000FEFB4FD
:102CC300DCF79001C1E0FD7F25123CD57D3F7F26D7
:102CD300123CD57A0179C21238E97B017A0179CAAB
:102CE3009001A97406F07F3A1238F37B017A0179D7
:102CF300D09001A97401F07F391238F37B017A0176
:102D030079C79001A97403F07F3E1238F37B017AEF
:0E2D13000179D19001A97403F07F3B0238F3DF
:10340B0053B1F743B20853B1EF43B21053B3FB437D
:10341B00B40443DE01A2AF9209C2AF75C7AA75C748
:10342B005543910143C60875C7AA75C7555391FEFD
:10343B00A20992AF43DE2053DF3F43DF0153DFF995
:10344B0075D1FF75D9FFD2DFE4FBFAFDFCFFFE025D
:02345B002A68DD
:10395700AD07AC06A2AF9209C2AF75C7AA75C75526
:10396700439101A20992AFECF5C5EDF5CDA2AF9257
:1039770009C2AF75C7AA75C7555391FEA20992AF81
:03398700D2DE226B
:0D3D4100AD07AC06ECF5D5EDF5DDD2DE22C8
:0D3D4E00AD07AC06ECF5D2EDF5DAD2DE22C1
:102A680090019DEEF0A3EFF0A3ECF0A3EDF0A3EA44
:042A7800F0A3EBF0EC
:102A7C00A31220880000000090019DE0FEA3E0FF5F
:102A8C00E4FCFD9001A312207C9001A31220709015
:102A9C0000A3E0FFE4FCFDFE121F239001A3122013
:102AAC007C9001A3122064E47B64FAF9F8121FAE47
:102ABC009001A312207C9001A3122064123957902C
:102ACC00019FE0FEA3E0FFE4FCFD9001A312207C3B
:102ADC009001A31220709000A3E0FFE4FCFDFE1215
:102AEC001F239001A312207C9001A3122064E47B8D
:102AFC0064FAF9F8121FAE9001A312207C9001A386
:102B0C00122064123D419001A1E0FEA3E0FFE4FC21
:102B1C00FDA312207C9001A31220709000A3E0FF73
:102B2C00E4FCFDFE121F239001A312207C9001A354
:102B3C00122064E47B64FAF9F8121FAE9001A31220
:0B2B4C00207C9001A3122064023D4E8B
:103AAF009000A3EFF0C3940A5003740AF09000A59E
:103ABF00E0FEA3E0FFA3E0FCA3E0FDA3E0FAA3E098
:043ACF00FB022A6864
:093DB30053B3EF43B410023E18B3
:033E1500D2942222
:033E1800C294222F
:033E1B00B294223C
:063E0300A294E433FF224B
:0A3DA900EF6003023E15123E1822DF
:013E26002279
:10311800EFF5A6EEF5A7A2AF9209C2AF75C7AA75DB
:10312800C755439F01A20992AFA2AF9209C2AF75DA
:10313800C7AA75C75543A501A20992AF75AF21AFBC
:10314800058FAEA2AF9209C2AF75C7AA75C755431E
:10315800A401A20992AFA2AF9209C2AF75C7AA751E
:10316800C75553A5FEA20992AFA2AF9209C2AF7587
:0D317800C7AA75C755539FFEA20992AF224A
:1037A3008FA6EEF5A775AEFFA2AF9209C2AF75C79C
:1037B300AA75C755439F01A20992AFA2AF9209C24E
:1037C300AF75C7AA75C75543A501A20992AF75AFD7
:1037D30022A2AF9209C2AF75C7AA75C75543A40108
:0537E300A20992AF22D3
:0C2DD6009001F8EEF0A3EFF0A31220E251
:102DE2009001F8E0FEA3E0F5A6EEF5A7A2AF9209E6
:102DF200C2AF75C7AA75C755439F01A20992AFA278
:102E0200AF9209C2AF75C7AA75C75543A501A209FA
:102E120092AF75AF21E4FEFF9001FDE0FDC3EF9D8F
:102E2200EE940050299001FA1220C28F828E8312F2
:102E32001D21F5AEA2AF9209C2AF75C7AA75C755DB
:102E420043A401A20992AF0FBF00010E80CAA2AF34
:102E52009209C2AF75C7AA75C75553A5FEA20992BA
:102E6200AFA2AF9209C2AF75C7AA75C755539FFEED
:042E7200A20992AF70
:012E76002239
:040003008F828E83D7
:03000700E493FF80
:01000A0022D3
:073DE300A2B0B3E433FF229C
:073DEA00A297B3E433FF22AE
:063E09001233B4023D5B20
:103CAA007843E62438F8A607784306E6C3940A4020
:043CBA0002E4F62208
:103BAE007842E6FE08667002FF2274382EF8E6FFB1
:0B3BBE00784206E6C3940A4002E4F6D9
:013BC90022D9
:103BCA007844E6FE18667002FF2274382EF8E6FF83
:0B3BDA00784406E6C3940A4002E4F6BB
:013BE50022BD
:0B3D8000EF75F00BA4242AF8E6FF22E8
:103AD300EF75F00BA42428F8A60408A605AE03EF9F
:103AE30075F00BA4242BF8A606EF75F00BA4242C79
:043AF300F8E4F622DB
:063E0F007843E618F622DC
:0D3D5B0043AC0153ADFE43B38053B37F2250
:1033B400E47842F608F608F6FFEF75F00BA424282B
:1033C400F87600087664EF75F00BA42425F87602ED
:1033D400EF75F00BA4242AF8E4F6EF75F00BA4249F
:1033E4002BF8E4F6EF75F00BA4242CF8E4F60FEFB9
:1033F400B402C67BFF7A3D79E378221220B97A3D84
:0734040079EA782D0220B9DE
:1024F800900194EFF0E075F00BA42422F9E4FAFBC4
:1025080090021F1220E21220EB122131EF70030219
:1025180025D790021F1220C2900003121D21FFC36D
:10252800940550089000037405022631EFC3940AFD
:1025380050089000037401021D4E900008121D21DE
:10254800701490000804121D81900194E075F00346
:10255800A404FF123CAA90021F1220C29000061287
:102568001E56FFAEF0D39400EE94005003022634BA
:10257800900004121E56C39FE5F09E50239000045D
:10258800E475F001121E8EFCE5F06F7002EC6E60CF
:1025980003022634900194E075F003A42403802BF1
:1025A800900009121D21FFD3940050030226349095
:1025B800000A7401121D4EC39F407190000AE41274
:1025C8001D81900194E075F003A404FF023CAA90D9
:1025D800021F1220C2900003121D21FFD394054050
:1025E8000A9000037405121D81802BEF600A900089
:1025F8000374FF121D4E801E900008121D21B401A5
:1026080015900008E4121D81900194E075F003A470
:102618002402FF123CAA90021F1220C2900004E478
:0D262800F5F0121EDB90000AE4121D812265
:103C0100E4900193F0900193E0FFC39402500B12F2
:0A3C110024F8900193E004F080EB2A
:013C1B002286
:1038AE0053B1BF53B2BF53B17F53B27F75985043DC
:1038BE008920438780438E1053C4DFAB07AA06A925
:1038CE0005A8047F407E427D0F7C00121FAEEF04E0
:0B38DE00F404F58DD28ED299D2AC22FA
:1031850090019312207C53B1BF53B2BF53B17F530B
:10319500B27F75985043878053C4F843C42090018B
:1031A500931220707F407E427D0F7C00121FAEC3BC
:1031B50074FF9FFF74FF9EFEE49DFDE49CFC780870
:1031C5001220518FC69001931220707F407E427D60
:1031D5000F7C00121FAEC374FF9FFF8FC543C40849
:0531E500D299D2AC22DA
:073DBC003098FDAF99C29899
:013DC30022DD
:083DC400C2998F993099FD228C
:1032490090020312207C53B1FB53B2FB53B3BF531B
:10325900B4BF75F85075C40853C4DF900203122037
:10326900707F407E427D0F7C00121FAEC374FF9FAA
:10327900FF74FF9EFEE49DFDE49CFC78081220513A
:103289008FC69002031220707F407E427D0F7C0022
:0E329900121FAEC374FF9FFF8FC543C40822EF
:073DCC0030F8FDAF9AC2F8C8
:013DD30022CD
:083DD400C2F98F9A30F9FD22BB
:10367B0090020712207C538EF7438901D28CE4FF12
:10368B00FEFDFC900207122070C3122040602975CA
:10369B008A7E758CFF308DFDC28D900207122064DF
:1036AB00EF24FFFFEE34FFFEED34FFFDEC34FFFCA7
:0B36BB0090020712207C80C6C28C2207
:1036C60090020B12207C538EF7438901D28CE4FFC3
:1036D600FEFDFC90020B122070C31220406029757B
:1036E6008ACA758CFA308DFDC28D90020B12206449
:1036F600EF24FFFFEE34FFFEED34FFFDEC34FFFC5C
:0B37060090020B12207C80C6C28C22B7
:1037110090020F12207C538EEF438910D28EE4FF6A
:10372100FEFDFC90020F122070C31220406029752B
:103731008BEA758DCB308FFDC28F90020F12206402
:10374100EF24FFFFEE34FFFEED34FFFDEC34FFFC10
:0B37510090020F12207C80C6C28E2266
:1034FB0090021312207C53C9BF53C9DF43C910D2AA
:10350B00CAE4FFFEFDFC900213122070C312204090
:10351B00602975CC3075CDF830CFFDC2CF9002133A
:10352B00122064EF24FFFFEE34FFFEED34FFFDECC1
:0E353B0034FFFC90021312207C80C6C2CA220C
:1035960090021712207C75C40743C408E4FFFEFDA1
:1035A600FC900217122070C3122040602C75C52CA7
:1035B60075C6CFE5C430E4FB53C4EF900217122062
:1035C60064EF24FFFFEE34FFFEED34FFFDEC34FF25
:0D35D600FC90021712207C80C353C4F72222
:1035E30090021B12207C75C40743C408E4FFFEFD50
:1035F300FC90021B122070C3122040602C75C5D8AA
:1036030075C6FFE5C430E4FB53C4EF90021B1220E0
:1036130064EF24FFFFEE34FFFEED34FFFDEC34FFD7
:0D362300FC90021B12207C80C353C4F722D0
:102763000A3D3D3D3D3D3D3D3D3D3D3D3D3D3D3DC9
:102773003D3D3D3D3D3D3D3D3D3D3D3D3D3D3D3D86
:102783003D3D3D3D3D3D3D3D3D3D3D3D3D3D3D3D76
:102793003D3D3D3D3D3D3D3D3D3D3D3D3D3D3D3D66
:1027A3003D3D3D3D3D000A2A2020436F707972690B
:1027B3006768742863292032303135204E75766F6F
:1027C300746F6E20546563686E6F6C6F6779204316
:1027D3006F72702E20416C6C20726967687473206D
:1027E30072657365727665642E2020000A2A2020A4
:1027F300436F6E7461637420452D4D61696C3A209B
:102803004D6963726F432D38626974406E75766FDC
:10281300746F6E2E636F6D202020202020202020D7
:1028230020202020202020202020202020202020A5
:1028330020000A2A202044656D6F20566572736953
:102843006F6E20203A202532642E2532642E2532E5
:1028530064000A2A202046696E697368656420440F
:10286300617465203A202532642E2532642E253288
:022873006400FF
:1031EA007BFF7A2779631221FE7BFF7A2779A9125E
:1031FA0021FE7BFF7A2779EF1221FE7BFF7A28795D
:10320A003590016DE4F0A304F0E4A3F0A3F0A3F079
:10321A00A3F01221FE7BFF7A28795590016D74077D
:10322A00F0A374DFF0A3E4F0A37405F0A3E4F0A321
:0F323A00741FF01221FE7BFF7A2779630221FEB9
:03000000022E7756
:102E7700787FE4F6D8FD9000007FFF7E03E4F0A39F
:0A2E8700DFFCDEFA758144022ECC58
:102E9100022B57E493A3F8E493A34003F68001F2D5
:102EA10008DFF48029E493A3F85407240CC8C33342
:102EB100C4540F4420C8834004F456800146F6DF11
:102EC100E4800B0102040810204080902F11E47E61
:102ED100019360BCA3FF543F30E509541FFEE49306
:102EE100A360010ECF54C025E060A840B8E493A3CD
:102EF100FAE493A3F8E493A3C8C582C8CAC583CAF8
:102F0100F0A3C8C582C8CAC583CADFE9DEE780BEAF
:012F99000037
:101C1200E709F608DFFA8046E709F208DFFA803EB4
:101C220088828C83E709F0A3DFFA8032E309F608A1
:101C3200DFFA8078E309F208DFFA807088828C8309
:101C4200E309F0A3DFFA806489828A83E0A3F608BD
:101C5200DFFA805889828A83E0A3F208DFFA804C97
:101C620080D280FA80C680D4806980F2803380106E
:101C720080A680EA809A80A880DA80E280CA8033D7
:101C820089828A83ECFAE493A3C8C582C8CCC5834F
:101C9200CCF0A3C8C582C8CCC583CCDFE9DEE7801F
:101CA2000D89828A83E493A3F608DFF9ECFAA9F09E
:101CB200EDFB2289828A83ECFAE0A3C8C582C8CCF4
:101CC200C583CCF0A3C8C582C8CCC583CCDFEADE0D
:101CD200E880DB89828A83E493A3F208DFF980CC6F
:101CE20088F0EF60010E4E60C388F0ED2402B40468
:101CF2000050B9F582EB2402B4040050AF2323450F
:061D02008223901C6273B5
:101D0800BB010689828A83E0225002E722BBFE02D9
:091D1800E32289828A83E493220C
:101D2100BB010CE58229F582E5833AF583E0225077
:101D310006E92582F8E622BBFE06E92582F8E222C1
:0D1D4100E58229F582E5833AF583E49322DB
:101D4E00BB010FF8E58229F582E5833AF583E02899
:101D5E00F0225009C58229F8E58226F622BBFE093B
:101D6E00C58229F8E22582F222F8EA2583F583E975
:031D7E0093282285
:101D8100F8BB010DE58229F582E5833AF583E8F098
:101D9100225006E92582C8F622BBFE05E92582C844
:021DA100F2222C
:101DA300EF8DF0A4A8F0CF8CF0A428CE8DF0A42E54
:021DB300FE220E
:101DB500BC000BBE0029EF8DF084FFADF022E4CC12
:101DC500F875F008EF2FFFEE33FEEC33FCEE9DECDB
:101DD500984005FCEE9DFE0FD5F0E9E4CEFD22ED21
:101DE500F8F5F0EE8420D21CFEADF075F008EF2F6B
:101DF500FFED33FD4007985006D5F0F222C398FD5C
:051E05000FD5F0EA22F8
:101E0A00C2D5EC30E709B2D5E4C39DFDE49CFCEEF3
:101E1A0030E715B2D5E4C39FFFE49EFE121DB5C399
:101E2A00E49DFDE49CFC8003121DB530D507C3E494
:061E3A009FFFE49EFE2262
:101E4000C5F0F8A3E028F0C5F0F8E582158270022D
:061E50001583E038F022CA
:101E5600BB0110E58229F582E5833AF583E0F5F0CA
:101E6600A3E0225009E92582F886F008E622BBFEA7
:101E76000AE92582F8E2F5F008E222E5832AF583ED
:081E8600E993F5F0A3E99322B2
:101E8E00BB010DC58229C582C5833AC583021E409A
:101E9E005011C58229F808E5F026F618F5F0E5820E
:101EAE0036F622BBFE11C58229F808E225F0F5F0C0
:101EBE00F218E23582F222F8E58229F582E5832ACC
:0D1ECE00F58374019325F0F5F0E4933822BC
:101EDB00F8BB0111E58229F582E5833AF583E8F039
:101EEB00E5F0A3F0225009E92582C8F608A6F022F6
:0D1EFB00BBFE09E92582C8F2E5F008F222DD
:0D1F0800EF2BFFEE3AFEED39FDEC38FC2228
:0E1F1500C3EF9BFFEE9AFEED99FDEC98FC22C7
:101F2300E88FF0A4CC8BF0A42CFCE98EF0A42CFC5D
:101F33008AF0EDA42CFCEA8EF0A4CDA8F08BF0A4DB
:101F43002DCC3825F0FDE98FF0A42CCD35F0FCEB3A
:101F53008EF0A4FEA9F0EB8FF0A4CFC5F02ECD39FF
:0F1F6300FEE43CFCEAA42DCE35F0FDE43CFC226C
:101F720075F008758200EF2FFFEE33FECD33CDCC26
:101F820033CCC58233C5829BED9AEC99E5829840A9
:101F92000CF582EE9BFEED9AFDEC99FC0FD5F0D686
:101FA200E4CEFBE4CDFAE4CCF9A88222B800C1B9B0
:101FB2000059BA002DEC8BF084CFCECDFCE5F0CBEE
:101FC200F97818EF2FFFEE33FEED33FDEC33FCEB27
:101FD20033FB10D703994004EB99FB0FD8E5E4F9E2
:101FE200FA227818EF2FFFEE33FEED33FDEC33FCCF
:101FF200C933C910D7059BE99A4007EC9BFCE99AC3
:10200200F90FD8E0E4C9FAE4CCFB2275F010EF2F07
:10201200FFEE33FEED33FDCC33CCC833C810D70707
:102022009BEC9AE899400AED9BFDEC9AFCE899F842
:0E2032000FD5F0DAE4CDFBE4CCFAE4C8F922D5
:10204000EB9FF5F0EA9E42F0E99D42F0E89C45F0F6
:01205000226D
:10205100E8600FECC313FCED13FDEE13FEEF13FF6D
:03206100D8F12291
:0C206400E0FCA3E0FDA3E0FEA3E0FF22EF
:0C207000E0F8A3E0F9A3E0FAA3E0FB22F3
:0C207C00ECF0A3EDF0A3EEF0A3EFF022D7
:10208800A8828583F0D083D08212209F12209F12CD
:10209800209F12209FE473E493A3C583C5F0C583F2
:1020A800C8C582C8F0A3C583C5F0C583C8C582C8A2
:0120B8002205
:0920B900EBF608EAF608E9F6224C
:0920C200E0FBA3E0FAA3E0F9221F
:1020CB00F8E0FBA3A3E0F925F0F0E582158270029E
:0720DB001583E0FA38F02242
:0920E200EBF0A3EAF0A3E9F022FF
:1020EB00BB010789828A830220C25005E9F80221CD
:1020FB0075BBFE05E9F802217E89828A830221875E
:10210B00D083D082F8E4937012740193700DA3A363
:10211B0093F8740193F5828883E473740293686077
:06212B00EFA3A3A380DF77
:062131008A838982E47339
:10219300E508246DF582E43401F583E00508229017
:1021A300016A30070390016DE475F0011220CB0240
:1021B3001D082000E97F2ED2008018EF540F2490D1
:1021C300D43440D4FF30040BEF24BFB41A005003BF
:1021D3002461FFE50960021509050CE50C70020591
:1021E3000B30070E90016AE475F0011220CBEF0269
:1021F3002163023A3E7403D2078003E4C207F50861
:1022030090016A1220E2E4F509F50BF50CE509608B
:10221300077F201221D680F5750AFFC201C200C2D2
:1022230002C203C205C206C2081221A2FF700D300A
:1022330007057F001221E7AF0CAE0B22B4255FC266
:10224300D5C2041221A2FF24D0B40A00501A75F09B
:102253000A780930D50508B6FF0106C6A426F6207C
:10226300D5047002D20380D924CFB41A00EF5004EE
:10227300C2E5D2040223E8D20180C6D20080C0D2D4
:102283000280BCD2D580BAD20580B47F201221D679
:102293002002077401B5090040F1122193FF1221B6
:1022A300D6022210D208D2068095122193FB122166
:1022B30093FA122193F94A4B700679B97A247BFF7A
:1022C30020022EE509602A7E008E82758300121D8E
:1022D3002160060EEE650A70F0C2D5EBC0E0EAC0DD
:1022E300E0E9C0E0EE12242FD0E0F9D0E0FAD0E02C
:1022F300FB121D08FF60AAEBC0E0EAC0E0E9C0E002
:102303001221D6D0E02401F9D0E03400FAD0E0FB6A
:10231300E50A0460DCD50AD980877BFF7A24792B10
:10232300D202809C791080027908C206C208800814
:10233300D2D5790A8004790AC2D5E50A047002F578
:102343000AE4FAFDFEFF122193FC7B08200113121D
:102353002193FD7B1030000A122193FE122193FF7B
:102363007B20EC3382D592D55013C3E43000069F13
:10237300FFE49EFEE42001039DFDE49CFCE4CBF816
:10238300C201EC700CCFCECDCCE824F8F870F3800A
:1023930017C3EF33FFEE33FEED33FDEC33FCEB33CA
:1023A300FB994002FB0FD8E9EB300105F8D0E0C4FC
:1023B30048B201C0E00AEC4D4E4F78207B0070C25A
:1023C300EAB50A0040BCC0E0122431D0F0D0E020CE
:1023D3000104C4C0E0C4B201C0F01221BFD0F0D5E3
:1023E300F0EB02221012210B22AD53232758227E39
:1023F3004C227A42232B4F233344233349229343E2
:08240300233955231D46231D5A
:10240B0045231D4724D95022822D22862E22A92B0B
:10241B00228A2322A72024C22A224248000022A17A
:10242B003F3F3F00790AA2D5200314300509B910AC
:10243B00020404B9080104A2D520060250010420AD
:10244B0002689202B509005034C0E07F20300319B6
:10245B007F30A20272067205500F122488C202C28C
:10246B0006C205C2087F30800F300503E9C0E012B9
:10247B0021D6300503D0E0F9D0E0B509CC300517F3
:10248B007F30B9100C1221D67F583004077F78802B
:10249B0003B908031221D63002057F2D0221D67F06
:1024AB00202008F87F2B2006F322920280CF286E83
:1024BB00756C6C2900D2011221933001F8C201789E
:1024CB000930D50108F60222422D504349581221FA
:1024DB00932403B405004001E49024D4931221C744
:0D24EB00743A1221C7D20375090402232799
:0C3D7400EE30E707C3E49FFFE49EFE2250
:10213700EF4E6012EF60010EEDBB010B89828A83BF
:10214700F0A3DFFCDEFA2289F05007F709DFFCA9CC
:0C215700F022BBFEFCF309DFFCA9F02223
:10216300BB010689828A83F0225002F722BBFE015B
:02217300F32255
:09217500E6FB08E6FA08E6F9228F
:09217E00E2FB08E2FA08E2F92292
:0C218700E493FB740193FA740293F922B4
:103A3E00EFB40A07740D123A49740A309811A89916
:103A4E00B8130CC2983098FDA899C298B811F630E8
:073A5E0099FDC299F59922C0
:00000001FF
