:1031010012345312356412323F1235601234EB120D
:1031110030819001DAE06005E4F0120A609001DC90
:10312100E06008E4F0120026122F659001DEE060F5
:0D31310002E4F09001E1E060D9E4F080D507
:013560002248
:013561002247
:013562002246
:013563002245
:0C34BB009001D3EBF0A3EAF0A3E9F022AB
:0C34C7009001D6EBF0A3EAF0A3E9F0229C
:103465009001D3A3E0FAA3E0F94A6003121D5422A8
:103475009001D6A3E0FAA3E0F94A6003121D542295
:1031E400EF4E602D9001C9EEF0A3EFF0AF05A3EC14
:1031F400F0A3EFF0AF03A3EAF0A3EFF0E4A3F0A38E
:10320400F0A3F0A3F09001C8F09001C704F01234C9
:02321400652231
:1033F200E49001C7F01234757B007A007900123430
:04340200BB0234C70E
:1026DB009001C7E0700302278F9001CBE0FEA3E0CF
:1026EB00FF4E700302278F9001C8E07035D3EF9433
:1026FB0000EE9400500302278F9001CFE475F00198
:10270B00121B84FED39001CAE095F09001C9E09EA4
:10271B005072123475E49001CFF0A3F09001C8040D
:10272B00F0229001C8E06401705A9001CF75F0015E
:10273B00121B84FED39001CCE095F09001CBE09E70
:10274B0050429001CDE0FEA3E0FF9400EE940040D8
:10275B00259001D1E475F001121B84FCD3EF95F0A9
:10276B00EE9C5005E49001C7F09001C7E070079014
:10277B0001CBF0A3F022E49001CFF0A3F09001C8BD
:05278B00F0123465228C
:102A95004101490050014A0000000000000000000B
:102AA5000000000000000050013900000000000097
:102AB5000000000000000000000048015A0000006E
:052AC50000000000000C
:10323F00E4900149F0FE7F10FD7B017A01794A127B
:10324F001D5A7E007F107D007B017A017939121D96
:07325F005A1222BE02328D5B
:0A29300004F07B017A017939E0FD23
:0E293A00900191EBF0A3EAF0A3E9F0A3EDF019
:10294800E4FF000FEFB40AFA1234859001497401CC
:10295800F0E4FF00000FEFB40AF9900191E0FBA347
:10296800E0FAA3E0F974019001396B7008E9658217
:102978007003EA6583602A7E007F107D007B017A00
:10298800017939121D5A900194E0FF7E0078397C54
:10299800017D01900191E0FBA3E0FAA3E0F9121A8E
:0129A8006BC3
:0129A900220B
:0B13F10090018AEBF0A3EAF0A3E9F002
:1013FC00E4A3F0A3F0A3F0A3F0121A9164F260033B
:10140C0002199A90018AE0FBA3E0FAA3E0F990009C
:10141C0001121AAAD39410400302199AE490018E77
:10142C00F090018AE0FBA3E0FAA3E0F9900001122E
:10143C001AAA2401FFE433FE90018EE0FDC39FEE57
:10144C006480F8748098501DED2401FFE433FE8F06
:10145C00828E83121AAAFF900190E02FF090018ED9
:10146C00E004F080BC90018AE0FBA3E0FAA3E0F971
:10147C00900001121AAAF582758300A3A3121AAA6E
:10148C00FF900190E06F600302199A7E007F107D3F
:10149C00007B017A017939121D5AE490018FF0908A
:1014AC00018AE0FBA3E0FAA3E0F9900002121AAA69
:1014BC002447700302186724B8B4090040030219CA
:1014CC00919014DB75F003A4C58325F0C5837302DA
:1014DC0014F60216E90217A802195402196302192C
:1014EC00720219910219810215E090020CE0FF20A2
:1014FC00E0030215D030E10854FDF0120003800A1D
:10150C0090020CE04402F012340690018FE0FF04CC
:10151C00F074392FF582E43401F58374F8F09001FE
:10152C008FE0FF04F074392FF582E43401F58374F5
:10153C000AF090018FE0FF04F074392FF582E43447
:10154C0001F5837401F090020BE0C313A3E0135474
:10155C0001FF90018FE0FE04F074392EF582E43423
:10156C0001F583EFF090018FE02439F9E43401FAAE
:10157C007B017D0812317990018FE02408F0E49012
:10158C00018EF090013AE02401FFE433FE90018ECD
:10159C00E0FDC39FEE6480F87480985024743A2D5B
:1015AC00F582E43401F583E0FF90018FE02439F5F6
:1015BC0082E43401F583E02FF090018EE004F0809A
:1015CC00C202194B7B007A007900E4900195F07F00
:1015DC000102198E90018AE0FBA3E0FAA3E0F990D6
:1015EC000003121AAAB40105123557803090018AF3
:1015FC00E0FBA3E0FAA3E0F9900003121AAAB402EC
:10160C000512355A801790018AE0FBA3E0FAA3E09B
:10161C00F9900003121AAAB4030312355D90018FDE
:10162C00E0FF04F074392FF582E43401F58374F88B
:10163C00F090018FE0FF04F074392FF582E434014F
:10164C00F5837402F090018AE0FBA3E0FAA3E0F9C1
:10165C00900002121AAAFF90018FE0FE04F0743978
:10166C002EF582E43401F583EFF0123551EF900141
:10167C008F6013E0FF04F074392FF582E43401F528
:10168C00837401F08011E0FF04F074392FF582E4CB
:10169C003401F5837402F0E490018EF090013AE08D
:1016AC002401FFE433FE90018EE0FDC39FEE6480C5
:1016BC00F87480984003021991743A2DF582E43441
:1016CC0001F583E0FF90018FE02439F582E43401C9
:1016DC00F583E02FF090018EE004F080BF90020CB7
:1016EC00E0FF20E00302179830E103021991123356
:1016FC00C490018FE0FF04F074392FF582E43401BB
:10170C00F58374F8F090018FE0FF04F074392FF535
:10171C0082E43401F5837409F090018FE0FF04F04A
:10172C0074392FF582E43401F5837402F090018F43
:10173C00E02439F9E43401FA7B017D081231799007
:10174C00018FE02408F0E490018EF090013AE0243F
:10175C0001FFE433FE90018EE0FDC39FEE6480F840
:10176C007480985024743A2DF582E43401F583E0AA
:10177C00FF90018FE02439F582E43401F583E02FEA
:10178C00F090018EE004F080C202194B7B007A00CD
:10179C007900E4900195F07F0202198E90020CE022
:1017AC00FF20E00302185730E1030219911233DCD9
:1017BC0090018FE0FF04F074392FF582E43401F5C9
:1017CC008374F8F090018FE0FF04F074392FF582E8
:1017DC00E43401F5837409F090018FE0FF04F07498
:1017EC00392FF582E43401F5837403F090018FE016
:1017FC002439F9E43401FA7B017D08123179900126
:10180C008FE02408F0E490018EF090013AE024017E
:10181C00FFE433FE90018EE0FDC39FEE6480F8740C
:10182C0080985024743A2DF582E43401F583E0FF5E
:10183C0090018FE02439F582E43401F583E02FF038
:10184C0090018EE004F080C202194B7B007A007983
:10185C0000E4900195F07F0302198E90020CE030A9
:10186C00E00554FEF0800790020CE04401F090017A
:10187C008FE0FF04F074392FF582E43401F58374A2
:10188C00F8F090018FE0FF04F074392FF582E43406
:10189C0001F583740BF090018FE0FF04F074392F85
:1018AC00F582E43401F58374B9F090020BE0FEA3E9
:1018BC00E0FF5401FD90018FE0FC04F074392CF52D
:1018CC0082E43401F583EDF0EEC313EF135401FF02
:1018DC0090018FE0FE04F074392EF582E43401F5AA
:1018EC0083EFF090018FE02439F9E43401FA7B01A5
:1018FC007D0812317990018FE02408F0E490018E7C
:10190C00F090013AE02401FFE433FE90018EE0FDFB
:10191C00C39FEE6480F87480985024743A2DF5823D
:10192C00E43401F583E0FF90018FE02439F582E483
:10193C003401F583E02FF090018EE004F080C2902A
:10194C00018FE0122930803D7B007A007900E49011
:10195C000195F07F04802B7B007A007900E49001E4
:10196C0095F07F05801C7B007A007900E49001954E
:10197C00F07F06800D7B007A007900E4900195F0F1
:0E198C007F081224FE90018FE06003122930C4
:01199A00222A
:102F6500900149E060311234FFEF24F0601824D05D
:102F75006012242070161234D3123544E4900149AE
:102F8500F002328D80001234D30235447B017A0180
:102F950079397D1002303E7B017A01794A7D101224
:0F2FA5003216EF60097B017A01794A1213F1228B
:102ACA004101A1004101A2004101A3005001A4005B
:0F2ADA00000000000000000000000000000000ED
:0A34EB00E49001A1F0A3F0A3F02289
:1024FE00900192EBF0A3EAF0A3E9F0E49001A1F0D1
:10250E00E0FE04F074A42EF582E43401F5837455D4
:10251E00F09001A1E0FE04F074A42EF582E43401E3
:10252E00F58374AAF0900195E004FE9001A1E0FD00
:10253E0004F074A42DF582E43401F583EEF09001DD
:10254E00A1E0FE04F074A42EF582E43401F583EFCD
:10255E00F0E49001A3F0900195E0FF9001A3E0FE5E
:10256E00C39F502F900192E0FBA3E0FAA3E0F98EF7
:10257E0082758300121AAAFE9001A1E0FD04F07488
:10258E00A42DF582E43401F583EEF09001A3E0046E
:10259E00F080C37B017A0179A4EF2404FD122B771E
:1025AE009001A1E0FE04F074A42EF582E43401F54E
:1025BE0083EFF0E49001A3F0900195E02405FFE491
:1025CE0033FE9001A3E0FDC39FEE6480F874809803
:1025DE00501774A42DF582E43401F583E0FF123513
:0A25EE002C9001A3E004F080CF223E
:100026009000A2E07003020A5F14F09000A0E024A2
:10003600A0FFE433FEA3E0FBFDC3EF9DFFEE9400BB
:10004600FE7C007DA0121AF9EDC3940440D2740020
:100056002BF582E43400F583E064556003020A4B15
:100066009000A1E07A002401FFEA33FE7C007DA027
:10007600121B4E74002DF58274003CF583E064AAD1
:100086006003020A4BEB2402FFEA33FE7C007DA0EC
:10009600121B4E74002DF58274003CF583E090012E
:1000A600A2F09000A0E024A0FFE433CFC39BCF9A38
:1000B600FE7C007DA0121B4E9001A2E02404FFE40A
:1000C60033FEC3ED9FEE6480F8EC64809850030223
:1000D6000A519000A1E0FF2400F9E43400FA7B0104
:1000E6009001A2E02403FD90018FEFF0A374A0F02D
:1000F60012282AAB079001A2E0FF9000A1E02FFF93
:10010600E433CF2403CF3400FE7C007DA0121B4EC7
:1001160074002DF58274003CF583E06B6003020ADF
:100126004BE49001A1F0FE7F10FD7B017A01793945
:10013600121D5A9000A1E0FB7A002403FFEA33FE69
:100146007C007DA0121B4E74002DF58274003CF5D8
:1001560083E0121D2E018612032B31040333087728
:100166003404EB3505C33606AB37025338079341E3
:10017600096D6209D16309F3640A156500000A3541
:10018600E490018AF0EB240CFFE43AFE7C007DA0AB
:10019600121B4E74002DF58274003CF583E090012D
:1001A6008AF0E0C394134003020A35E49001A3F0F9
:1001B60090018AE0FFC374139FFF9001A3E0C39FE1
:1001C6005026C374AD94A5FD74009400FC90018A7A
:1001D600E075F072A42DFFE5F03CFEE4FD1234F567
:1001E6009001A3E004F080C8E49001A3F09001A37D
:1001F600E0FDC39472504290018AE075F072A47CCF
:10020600002DFFEC35F0FEC006C0079000A1E024EB
:1002160004FFE433CF2DCF3CFE7DA0121B4E7400AD
:100226002DF58274003CF583E0FDD007D00612342C
:10023600F59001A3E004F080B47B017A01798A90FD
:0A02460001957401F07F121224FEEE
:10025000020A359001A1E0FF04F074392FF582E421
:100260003401F58374F8F09001A2E0FF9001A1E061
:10027000FE04F074392EF582E43401F583EFF0903A
:1002800001A1E0FF04F074392FF582E43401F58315
:100290007438F0E49001A3F09001A2E014FFA3E011
:1002A000FEC39F50409000A1E02404FDE433FCEE27
:1002B0007E002DFFEE3CFE7C007DA0121B4E7400E4
:1002C0002DF58274003CF583E0FF9001A1E0FE046F
:1002D000F074392EF582E43401F583EFF09001A338
:1002E000E004F080B3E49001A3F090013AE024012F
:1002F000FFE433FE9001A3E0FDC39FEE6480F87439
:1003000080985024743A2DF582E43401F583E0FF9F
:100310009001A1E02439F582E43401F583E02FF067
:100320009001A3E004F080C20208689001A1E0FF00
:1003300004F074392FF582E43401F58374F8F090F9
:1003400001A2E0FF9001A1E0FE04F074392EF582D5
:10035000E43401F583EFF09001A1E0FF04F074397B
:100360002FF582E43401F5837431F0E49001A3F0B9
:100370009001A2E014FFA3E0FEC39F50409000A1B3
:10038000E02404FDE433FCEE7E002DFFEE3CFE7C19
:10039000007DA0121B4E74002DF58274003CF58385
:1003A000E0FF9001A1E0FE04F074392EF582E43400
:1003B00001F583EFF09001A3E004F080B3E4900135
:1003C000A3F090013AE02401FFE433FE9001A3E0A2
:1003D000FDC39FEE6480F87480985024743A2DF524
:1003E00082E43401F583E0FF9001A1E02439F58235
:1003F000E43401F583E02FF09001A3E004F080C223
:100400000208689001A1E0FF04F074392FF582E43E
:100410003401F58374F8F09001A2E0FF9001A1E0AF
:10042000FE04F074392EF582E43401F583EFF09088
:1004300001A1E0FF04F074392FF582E43401F58363
:100440007433F0E49001A3F09001A2E014FFA3E064
:10045000FEC39F50409000A1E02404FDE433FCEE75
:100460007E002DFFEE3CFE7C007DA0121B4E740032
:100470002DF58274003CF583E0FF9001A1E0FE04BD
:10048000F074392EF582E43401F583EFF09001A386
:10049000E004F080B3E49001A3F090013AE024017D
:1004A000FFE433FE9001A3E0FDC39FEE6480F87487
:1004B00080985024743A2DF582E43401F583E0FFEE
:1004C0009001A1E02439F582E43401F583E02FF0B6
:1004D0009001A3E004F080C29001A1E004F090023A
:1004E0000CE030E003020A3502095C9001A1E0FF54
:1004F00004F074392FF582E43401F58374F8F09038
:1005000001A2E0FF9001A1E0FE04F074392EF58213
:10051000E43401F583EFF09001A1E0FF04F07439B9
:100520002FF582E43401F5837435F0E49001A3F0F3
:100530009001A2E014FFA3E0FEC39F50409000A1F1
:10054000E02404FDE433FCEE7E002DFFEE3CFE7C57
:10055000007DA0121B4E74002DF58274003CF583C3
:10056000E0FF9001A1E0FE04F074392EF582E4343E
:1005700001F583EFF09001A3E004F080B3E4900173
:10058000A3F090013AE02401FFE433FE9001A3E0E0
:10059000FDC39FEE6480F87480985024743A2DF562
:1005A00082E43401F583E0FF9001A1E02439F58273
:1005B000E43401F583E02FF09001A3E004F080C261
:1005C0000208689001A1E0FF04F074392FF582E47D
:1005D0003401F58374F8F09001A2E0FF9001A1E0EE
:1005E000FE04F074392EF582E43401F583EFF090C7
:1005F00001A1E0FF04F074392FF582E43401F583A2
:100600007436F0E49001A3F09001A2E014FFA3E09F
:10061000FEC39F50409000A1E02404FDE433FCEEB3
:100620007E002DFFEE3CFE7C007DA0121B4E740070
:100630002DF58274003CF583E0FF9001A1E0FE04FB
:10064000F074392EF582E43401F583EFF09001A3C4
:10065000E004F080B3E49001A3F090013AE02401BB
:10066000FFE433FE9001A3E0FDC39FEE6480F874C5
:1006700080985024743A2DF582E43401F583E0FF2C
:100680009001A1E02439F582E43401F583E02FF0F4
:100690009001A3E004F080C29001A1E004F0900278
:1006A0000CE030E003020A3502095C9001A1E0FF92
:1006B00004F074392FF582E43401F58374F8F09076
:1006C00001A2E0FF9001A1E0FE04F074392EF58252
:1006D000E43401F583EFF09001A1E0FF04F07439F8
:1006E0002FF582E43401F5837437F0E49001A3F030
:1006F0009001A2E014FFA3E0FEC39F50409000A130
:10070000E02404FDE433FCEE7E002DFFEE3CFE7C95
:10071000007DA0121B4E74002DF58274003CF58301
:10072000E0FF9001A1E0FE04F074392EF582E4347C
:1007300001F583EFF09001A3E004F080B3E49001B1
:10074000A3F090013AE02401FFE433FE9001A3E01E
:10075000FDC39FEE6480F87480985024743A2DF5A0
:1007600082E43401F583E0FF9001A1E02439F582B1
:10077000E43401F583E02FF09001A3E004F080C29F
:100780009001A1E004F090020CE030E003020A3591
:1007900002095C9001A1E0FF04F074392FF582E4B6
:1007A0003401F58374F8F09001A2E0FF9001A1E01C
:1007B000FE04F074392EF582E43401F583EFF090F5
:1007C00001A1E0FF04F074392FF582E43401F583D0
:1007D0007441F0E49001A3F09001A2E014FFA3E0C3
:1007E000FEC39F50409000A1E02404FDE433FCEEE2
:1007F0007E002DFFEE3CFE7C007DA0121B4E74009F
:100800002DF58274003CF583E0FF9001A1E0FE0429
:10081000F074392EF582E43401F583EFF09001A3F2
:10082000E004F080B3E49001A3F090013AE02401E9
:10083000FFE433FE9001A3E0FDC39FEE6480F874F3
:1008400080985024743A2DF582E43401F583E0FF5A
:100850009001A1E02439F582E43401F583E02FF022
:100860009001A3E004F080C29001A1E004F07B01BC
:100870007A0179390209659001A1E0FF04F0743929
:100880002FF582E43401F58374F8F09001A2E0FFC3
:100890009001A1E0FE04F074392EF582E43401F5F4
:1008A00083EFF09001A1E0FF04F074392FF582E4AA
:1008B0003401F5837434F0E49001A3F09001A2E0D8
:1008C00014FFA3E0FEC39F50409000A1E02404FD6C
:1008D000E433FCEE7E002DFFEE3CFE7C007DA0129A
:1008E0001B4E74002DF58274003CF583E0FF9001EF
:1008F000A1E0FE04F074392EF582E43401F583EFB3
:10090000F09001A3E004F080B3E49001A3F0900123
:100910003AE02401FFE433FE9001A3E0FDC39FEE23
:100920006480F87480985024743A2DF582E4340180
:10093000F583E0FF9001A1E02439F582E43401F56C
:1009400083E02FF09001A3E004F080C29001A1E0C9
:1009500004F090020CE030E003020A357B017A01DA
:1009600079399001A1E0FD12293A020A359000A1DF
:10097000E0FB7A002404FFEA33FE7C007DA0121B1A
:100980004E74002DF58274003CF583E0FFC007EB48
:100990002405FFEA33FE7C007DA0121B4E74002D5F
:1009A000F58274003CF583E0FDC0059000A1E024D1
:1009B00006FFE433FE7C007DA0121B4E74002DF573
:1009C0008274003CF583E0FBD005D0071232FA8038
:1009D000649000A1E02404FFE433FE7C007DA012BB
:1009E0001B4E74002DF58274003CF583E09000A34B
:1009F000F080429000A1E02404FFE433FE7C007DFF
:100A0000A0121B4E74002DF58274003CF583E0901B
:100A100000A4F080209000A1E02404FFE433FE7CD9
:100A2000007DA0121B4E74002DF58274003CF583EE
:100A3000E0FF1229AA9001A2E02404FF9000A1E0A7
:100A40002FF0E075F0A084E5F0F0229000A1E00422
:100A5000F09000A1E075F0A084E5F0F002002622FD
:102B7700900196EBF0A3EAF0A3E9F0AE05E490022A
:102B87000DF0AF061EEF604690020DE0FF90019634
:102B9700E0FBA3E475F001121B9AA9F0FA121A914F
:102BA7006F90020DF0E4A3F090020EE0C39408507A
:102BB700D190020DE030E007C313648CF0800790DA
:102BC700020DE0C313F090020EE004F080DA9002E9
:042BD7000DE0FF22EC
:10282A0090018BEBF0A3EAF0A3E9F0AE05E4900285
:10283A000DF0AF061EEF606B90020DE0FF90018B6A
:10284A00E0FBA3E475F001121B9AA9F0FA121A919F
:10285A006F90020DF090018FE004F0A3E0FF900169
:10286A008FE0C39F4012E4F0EFFDE49DFDE4940085
:10287A0090018C8DF0121B84E490020EF090020EEF
:10288A00E0C3940850AC90020DE030E007C3136433
:10289A008CF0800790020DE0C313F090020EE00462
:0928AA00F080DA90020DE0FF223B
:072AE90044011D0000000084
:103081007E007F067D007B017A017917121D5A7E31
:10309100007F017D007B017A01792E121D5A7E008D
:1030A1007F727D007B017A0079A5121D5A7E007F17
:1030B100027D007B017A0079A3121D5AE4FF0229E7
:0130C100AA64
:1033C40090012EE0600414F0800690012E7413F036
:0833D40090012EE0FF0229AA7E
:1033DC0090012EE004F0E0C394144002E4F090015C
:0633EC002EE0FF0229AAF9
:10317900900191EBF0A3EAF0A3E9F0EDD3940840B4
:103189000A900191E4F0A3F0A3F022AF057E00902C
:103199000191E0FBA3E0FAA3E0F8AC02AD037B01E7
:0831A9007A0079A5121A6B22CD
:0800030090012EE0FF0229AA82
:10340600E4900128F090012CF0A3F0FBFAFDFCFFFC
:04341600FE02000EA4
:102DAE0090018EEFF02401FFE433FE9000AEE0546C
:102DBE000FB50714E4B5061090018EF0E075F00D16
:102DCE00A424AFF97400800D90018EE075F00DA46F
:102DDE0024BCF9740035F0FA7B0178217C017D0169
:102DEE007E007F0D121A6B782F7C017D017B017A9C
:0A2DFE000079A57E007F0A021A6B1F
:1029AA00900191EFF0FBE4900117F0A3121CFD00D7
:1029BA0000000090011C7432F0EBC394134008909D
:1029CA00012E7413F08008900191E090012EF07BA3
:1029DA00017A0079A5900191E0FD122BDB9000AD00
:1029EA00E0700D7B017A0079A5FD122BDB1234060B
:1029FA0078217C017D017B017A0079AF7E007F0D11
:102A0A00121A6B782F7C017D017B017A0079A57EF1
:062A1A00007F0A021A6BA6
:10339200AB07E4900117F0A3121CFD00000000E44B
:0933A20090011CF0AF03022DAEF6
:1032FA0090018BEFF0A3EDF0A3EBF01234069001EE
:10330A008BE0FF7E00A3E0FD7C00A3E0FB7A0002D5
:02331A00000EA3
:100A600090011CE0600314F022900128E0700D90CA
:100A7000012CE07002A3E070030213F0900121E06A
:100A8000540F24FC7003020EEA14700302113F2479
:100A90000260030213F0900118E0FCA3E0FDA3E064
:100AA000FEA3E02401FFE43EFEE43DFDE43CFC90B7
:100AB0000118121CF1900125E0FF900122E0FEC315
:100AC0009F4003020B77EEFDC3EF9DFFE49400FE11
:100AD0001234DFEE3395E0FDFCC004C005C006C053
:100AE00007E4FF7E01FDFC900118E0F8A3E0F9A304
:100AF000E0FAA3E0FB121BB0D003D002D001D0007B
:100B0000121BB0C006C007900129E0FEA3E0FBAABB
:100B100006E4F9F8D007D006121C3BA804A905AAE0
:100B200006AB07900122E0FEE4FCFD2BFFEA3EFE4F
:100B3000ED39FDEC38FC90011D121CF190012BE009
:100B4000FFE4FCFDFE90011DE0F8A3E0F9A3E0FA4C
:100B5000A3E0FB121BB0E47B64FAF9F8121C3B9093
:100B6000011D121CF190011DE0FCA3E0FDA3E0FEBD
:100B7000A3E0FFE4020C25900122E0FF900125E0B4
:100B8000C39FFFE49400FE1234DFEE3395E0FDFCDA
:100B9000C004C005C006C007E4FF7E01FDFC900153
:100BA00018E0F8A3E0F9A3E0FAA3E0FB121BB0D031
:100BB00003D002D001D000121BB0C006C0079001C4
:100BC00029E0FEA3E0FBAA06E4F9F8D007D006125C
:100BD0001C3BA804A905AA06AB07900122E0FEE48D
:100BE000C39BFFEE9AFEE499FDE498FC90011D1270
:100BF0001CF190012BE0FFE4FCFDFE90011DE0F8EC
:100C0000A3E0F9A3E0FAA3E0FB121BB0E47B64FAD3
:100C1000F9F8121C3B90011D121CF190011DA3A3B9
:100C2000E0FEA3E0FF1231B1900126E0FF90012326
:100C3000E0FEC39F5071EEFDC3EF9DFFE49400FE04
:100C40001234DFEE3395E0FDFCC004C005C006C0E1
:100C500007E4FF7E01FDFC900118E0F8A3E0F9A392
:100C6000E0FAA3E0FB121BB0D003D002D001D00009
:100C7000121BB0C006C007900129E0FEA3E0FBAA4A
:100C800006E4F9F8D007D006121C3BA804A905AA6F
:100C900006AB07900123E0FEE4FCFD2BFFEA3EFEDD
:100CA000ED39FDEC388074900123E0FF900126E0DF
:100CB000C39FFFE49400FE1234DFEE3395E0FDFCA9
:100CC000C004C005C006C007E4FF7E01FDFC900122
:100CD00018E0F8A3E0F9A3E0FAA3E0FB121BB0D000
:100CE00003D002D001D000121BB0C006C007900193
:100CF00029E0FEA3E0FBAA06E4F9F8D007D006122B
:100D00001C3BA804A905AA06AB07900123E0FEE45A
:100D1000C39BFFEE9AFEE499FDE498FC90011D123E
:100D20001CF190012BE0FFE4FCFDFE90011DE0F8BA
:100D3000A3E0F9A3E0FAA3E0FB121BB0E47B64FAA2
:100D4000F9F8121C3B90011D121CF190011DA3A388
:100D5000E0FEA3E0FF1234A1900127E0FF90012400
:100D6000E0FEC39F5071EEFDC3EF9DFFE49400FED3
:100D70001234DFEE3395E0FDFCC004C005C006C0B0
:100D800007E4FF7E01FDFC900118E0F8A3E0F9A361
:100D9000E0FAA3E0FB121BB0D003D002D001D000D8
:100DA000121BB0C006C007900129E0FEA3E0FBAA19
:100DB00006E4F9F8D007D006121C3BA804A905AA3E
:100DC00006AB07900124E0FEE4FCFD2BFFEA3EFEAB
:100DD000ED39FDEC388074900124E0FF900127E0AC
:100DE000C39FFFE49400FE1234DFEE3395E0FDFC78
:100DF000C004C005C006C007E4FF7E01FDFC9001F1
:100E000018E0F8A3E0F9A3E0FAA3E0FB121BB0D0CE
:100E100003D002D001D000121BB0C006C007900161
:100E200029E0FEA3E0FBAA06E4F9F8D007D00612F9
:100E30001C3BA804A905AA06AB07900124E0FEE428
:100E4000C39BFFEE9AFEE499FDE498FC90011D120D
:100E50001CF190012BE0FFE4FCFDFE90011DE0F889
:100E6000A3E0F9A3E0FAA3E0FB121BB0E47B64FA71
:100E7000F9F8121C3B90011D121CF190011DA3A357
:100E8000E0FEA3E0FF1234AE900129E0FEA3E0FFF4
:100E9000E4FCFD900118E0F8A3E0F9A3E0FAA3E078
:100EA000FBC3121CCD4012900118121CFD00000063
:100EB00000900128E0600214F0900128E060030235
:100EC00013F090012CE07002A3E0600E90012DE081
:100ED00024FFF090012CE034FFF090012CE0700230
:100EE000A3E060030213F00213E5900117E070180D
:100EF000A3E0FCA3E0FDA3E0FEA3E02401FFE43EA9
:100F0000FEE43DFDE43C8029900118E0FCA3E0FDF7
:100F1000A3E0FEA3E0FFEC4D4E4F601C900118A330
:100F2000A3A3E024FFFFEE34FFFEED34FFFDEC341D
:100F3000FFFC900118121CF1E47FFFFEFDFC900104
:100F400018E0F8A3E0F9A3E0FAA3E0FB121BB0A8B5
:100F500004A905AA06AB07900122E0FFE4FCFDFE10
:100F6000121BB0C006C007900129E0FEA3E0FBAA57
:100F700006E4F9F8D007D006121C3B90011D121CA4
:100F8000F190012BE0FFE4FCFDFE90011DE0F8A3D1
:100F9000E0F9A3E0FAA3E0FB121BB0E47B64FAF9EA
:100FA000F8121C3B90011D121CF190011DE0FCA3E6
:100FB000E0FDA3E0FEA3E0FFE41231B1E47FFFFE19
:100FC000FDFC900118E0F8A3E0F9A3E0FAA3E0FB30
:100FD000121BB0A804A905AA06AB07900123E0FFE5
:100FE000E4FCFDFE121BB0C006C007900129E0FE24
:100FF000A3E0FBAA06E4F9F8D007D006121C3B9048
:10100000011D121CF190012BE0FFE4FCFDFE90019C
:101010001DE0F8A3E0F9A3E0FAA3E0FB121BB0E4A3
:101020007B64FAF9F8121C3B90011D121CF190012F
:101030001DE0FCA3E0FDA3E0FEA3E0FFE41234A169
:10104000E47FFFFEFDFC900118E0F8A3E0F9A3E0C7
:10105000FAA3E0FB121BB0A804A905AA06AB0790EF
:101060000124E0FFE4FCFDFE121BB0C006C00790A7
:101070000129E0FEA3E0FBAA06E4F9F8D007D006B8
:10108000121C3B90011D121CF190012BE0FFE4FCAF
:10109000FDFE90011DE0F8A3E0F9A3E0FAA3E0FB58
:1010A000121BB0E47B64FAF9F8121C3B90011D128C
:1010B0001CF190011DE0FCA3E0FDA3E0FEA3E0FF16
:1010C000E41234AE900129E0FEA3E0FFE4FCFD90C1
:1010D0000118E0F8A3E0F9A3E0FAA3E0FBC3121CB7
:1010E000CD5014E4FFFEFDFC900118E0F8A3A3A38B
:1010F000E0C3121CCD7017900117E0700404F0805B
:101100000DE4900117F0900128E0600214F09001C6
:1011100028E060030213F090012CE07002A3E0606D
:101120000E90012DE024FFF090012CE034FFF090B0
:0F113000012CE07002A3E060030213F00213E54C
:10113F0090018A121CFD000000FFE4FFFEFDFC90F1
:10114F000118E0F8A3E0F9A3E0FAA3E0FBC3121C37
:10115F00CD6003021252900122E0FFE4FCFDFE90ED
:10116F00018AE0F8A3E0F9A3E0FAA3E0FB121BB0B9
:10117F00A804A905AA06AB0790012BE0FFE4FCFD2C
:10118F00FE121BB0E47B64FAF9F8121C3B90011DB0
:10119F00121CF190011DE0FCA3E0FDA3E0FEA3E013
:1011AF00FFE41231B1900123E0FFE4FCFDFE90015A
:1011BF008AE0F8A3E0F9A3E0FAA3E0FB121BB0A8C2
:1011CF0004A905AA06AB0790012BE0FFE4FCFDFE86
:1011DF00121BB0E47B64FAF9F8121C3B90011D124C
:1011EF001CF190011DE0FCA3E0FDA3E0FEA3E0FFD6
:1011FF00E41234A1900124E0FFE4FCFDFE90018A8B
:10120F00E0F8A3E0F9A3E0FAA3E0FB121BB0A804F7
:10121F00A905AA06AB0790012BE0FFE4FCFDFE1227
:10122F001BB0E47B64FAF9F8121C3B90011D121CF1
:10123F00F190011DE0FCA3E0FDA3E0FEA3E0FFE4BD
:10124F001234AE900129E0FEA3E0FFE4FCFD900113
:10125F0018E0F8A3E0F9A3E0FAA3E0FBC3121CCD5A
:10126F006003021361900125E0FFE4FCFDFE900195
:10127F008AE0F8A3E0F9A3E0FAA3E0FB121BB0A801
:10128F0004A905AA06AB0790012BE0FFE4FCFDFEC5
:10129F00121BB0E47B64FAF9F8121C3B90011D128B
:1012AF001CF190011DE0FCA3E0FDA3E0FEA3E0FF15
:1012BF00E41231B1900126E0FFE4FCFDFE90018ABB
:1012CF00E0F8A3E0F9A3E0FAA3E0FB121BB0A80437
:1012DF00A905AA06AB0790012BE0FFE4FCFDFE1267
:1012EF001BB0E47B64FAF9F8121C3B90011D121C31
:1012FF00F190011DE0FCA3E0FDA3E0FEA3E0FFE4FD
:10130F001234A1900127E0FFE4FCFDFE90018AE07A
:10131F00F8A3E0F9A3E0FAA3E0FB121BB0A804A91D
:10132F0005AA06AB0790012BE0FFE4FCFDFE121BA4
:10133F00B0E47B64FAF9F8121C3B90011D121CF10A
:10134F0090011DE0FCA3E0FDA3E0FEA3E0FFE4128B
:10135F0034AE900118E0FCA3E0FDA3E0FEA3E0246F
:10136F0001FFE43EFEE43DFDE43CFC900118121C3D
:10137F00F190012CE0FEA3E0FF90012AE02FFF90F7
:10138F000129E03EFEE4FCFD900118E0F8A3E0F92E
:10139F00A3E0FAA3E0FBC3121CCD40129001181278
:1013AF001CFD00000000900128E0600214F0900185
:1013BF0028E0702D90012CE07002A3E0600E9001E8
:1013CF002DE024FFF090012CE034FFF090012CE091
:1013DF007002A3E0700B900121E0C4540FFF123391
:0113EF00926B
:0113F00022DA
:013564002244
:0E2BDB00900192EBF0A3EAF0A3E9F0A3EDF075
:102BE900E4A3F0AF05EFC39414E4900196F09001CB
:102BF90096E0FDC39472503B900195E075F072A484
:102C09002400FFE5F0343CFE7C00EF2DFFEC3EFE96
:102C190012351C900192E0FBA3E0FAA3E0F99001C0
:102C290096E0F582758300EF121AD7900196E004B9
:032C3900F080BB6D
:012C3C002275
:0A34F500E42FFFEE343CFE02211D1F
:013565002243
:013566002242
:1034530012341A123513122F1312331C12333CD2A7
:02346300AF2296
:042AF0004100A200FF
:10333C00E49000A2F0FE7FA2FD7B017A00790012DE
:0D334C001D5A7F007E4B7D007C00022A2070
:03002300022FB4F5
:102FB400C0E0C083C082C0D075D000C0073098275D
:102FC400C2989000A0E0FF04F074002FF582E4346E
:102FD40000F583E599F09000A0E0C394A04002E4DA
:102FE400F09000A2E004F0309902C299D007D0D04A
:072FF400D082D083D0E0324F
:082AF4004101E2004101E30091
:10331C001233765389F0438901538EF79001E2748E
:10332C00FAF0A374C4F0758CFAF58AD2A9D28C2267
:10337600E49001D9F09001DBF09001DFF0A3F0902A
:0C33860001DAF09001DCF09001E1F0228F
:03000B000228B315
:1028B300C0E0C0F0C083C082C0D075D000C000C0EB
:1028C300069001E2E0F58CA3E0F58A9001D9E004DB
:1028D300F0C3940A4005E4F0A304F09001DBE004A4
:1028E300F0C394644005E4F0A304F09001DDE00438
:1028F300F0C394F4748094814005E4F0A304F09051
:1029030001DFE475F001121B84FEC3E5F094E8EEE9
:102913009403400A9001DFE4F0A3F0A304F0D0068F
:0D292300D000D0D0D082D083D0F0D0E032F0
:1032B3000A6D679C46F6375D4521EFAC5A50010B0A
:1032C300DF020A6D679C46F6375D4521EFAC5A5025
:0432D300E10BDF022A
:082AFC004501EACCCCCCCCCCA6
:10341A0053B3FE43B40153B3FD43B40253B1FE4365
:03342A00B20122CA
:013567002241
:10335900E4FEC290EF30E704D2808002C280EF25FC
:0C336900E0FFD290000EEEB408E8C29025
:013375002235
:04342D00E4FD7FFC3F
:0F343100C29100123359AF0512335900D29122C4
:0A2FFB007B019001A07405F07F3FF8
:0B30050090019DEBF0A3EAF0A3E9F0BE
:10301000C291E4FD1233599001A0E0FFEDC39F502F
:103020001A90019DE0FBA3E0FAA3E0F98D8275837D
:0D30300000121AAAFF1233590D80DCD29154
:01303D002270
:1032D700E4FEC290EF30E704D2808002C280EF257F
:1032E700E0FFD290000EEEB408E843B10153B2FEFE
:0232F700C29083
:0132F90022B2
:1033AB00E4FFFEC290EF25E0FFD290308003440192
:0833BB00FF0EEEB408EDC29014
:0133C30022E7
:10344000C291001232D71233AB53B1FE43B2010026
:02345000D29117
:013452002257
:0B30C20090018BEBF0A3EAF0A3E9F013
:1030CD00C2911232D7E4FD90018EE0FFEDC39F5007
:1030DD001A1233AB90018BE0FBA3E0FAA3E0F98D5C
:1030ED0082758300EF121AD70D80DC53B1FE43B207
:0330FD0001D2916C
:0131000022AC
:0E34850012342D7D8E7F201234310000002283
:10328D00E4FEFD7FFC1234317D8F7F20123431E45A
:10329D00FD7FFD123431E4FEFF000FBF00010EBEB5
:0532AD0013F7BF88F4D7
:0132B20022F9
:0A34FF007F07123440EF5470FF22E3
:06354B007F09123440224A
:073544007D707F2702343186
:0C34D300E4FD7FE11234317FE20234316D
:0E349300AC0712342DAF04AD077F2502343193
:06303E001234FFEF703CAC
:1030440090018AF0A3F09001A0EDF07FA01230056A
:10305400E4FD7FFD123431E490018AF0A3F0009086
:10306400018BE004F0700690018AE004F090018A7C
:0C307400E07004A3E064C870E512342D85
:01308000222D
:10321600AC051234FFEF30E61D12342D90018EEC12
:10322600F07F611230C21234D3123544E4FD7FFDC3
:093236001234317F01227F0022D5
:1022BE00788A7C017D017BFF7A3279B37E007F05BF
:1022CE00121A6B788F7C017D017BFF7A3279B87E92
:1022DE00007F03121A6B78927C017D017BFF7A32AC
:1022EE0079BB7E007F06121A6B78987C017D017B8C
:1022FE00FF7A3279C17E007F01121A6B78997C01C8
:10230E007D017BFF7A3279C27E007F03121A6B1237
:10231E0035677D5A7F531234317DA57F5312343188
:10232E007D207F3D12343112342D7FE11234317F06
:10233E00E21234317D707F271234317D017F2212FB
:10234E0034317D037F231234317D4E7F251234319B
:10235E007D107F311234317B017A0179EA9001A030
:10236E007405F07F301230057B017A0179EA900115
:10237E00A07405F07F2A1230057A01798A122FFB9C
:10238E007B017A0179929001A07406F07F3A1230A7
:10239E00057B017A0179989001A07401F07F3912C2
:1023AE0030057B017A01798F9001A07403F07F3E96
:1023BE001230057B017A0179999001A07403F07FA8
:1023CE003B123005E4FD7F3C1234317D3F7F2612F7
:0E23DE003431E4FD7F241234317F210234318A
:0525F8009001B4EFF0BA
:1025FD00E478B57C017D017BFF7A3279C5FE7F05DC
:10260D00121A6B78BA7C017D017BFF7A3279CA7E12
:10261D00007F03121A6B78BD7C017D017BFF7A323E
:10262D0079CD7E007F06121A6B78C37C017D017B0C
:10263D00FF7A3279D37E007F01121A6B78C47C0148
:10264D007D017BFF7A3279D47E007F03121A6B7D78
:10265D005A7F531234317DA57F531234317D207F43
:10266D003D12343112342DE4FF000000000FEFB4A1
:10267D00DCF79001B4E0FD7F251234317D3F7F26DC
:10268D001234317A0179B5122FFB7B017A0179BDB4
:10269D009001A07406F07F3A1230057B017A017922
:1026AD00C39001A07401F07F391230057B017A01CE
:1026BD0079BA9001A07403F07F3E1230057B017A48
:0E26CD000179C49001A07403F07F3B02300538
:102F130053B1F743B20853B1EF43B21053B3FB437A
:102F2300B40443DE01A2AF9209C2AF75C7AA75C745
:102F33005543910143C60875C7AA75C7555391FEFA
:102F4300A20992AF43DE2053DF3F43DF0153DFF992
:102F530075D1FF75D9FFD2DFE4FBFAFDFCFFFE025A
:022F6300000E5E
:1031B100AD07AC06A2AF9209C2AF75C7AA75C755D4
:1031C100439101A20992AFECF5C5EDF5CDA2AF9205
:1031D10009C2AF75C7AA75C7555391FEA20992AF2F
:0331E100D2DE2219
:0D34A100AD07AC06ECF5D5EDF5DDD2DE2271
:0D34AE00AD07AC06ECF5D2EDF5DAD2DE226A
:10000E008D828C831231B1AE83AF821234A1AE02D7
:05001E00AF030234AE47
:0935130053B3EF43B41002355A22
:03355700D29422E9
:03355A00C29422F6
:03355D00B2942203
:06355100A294E433FF2206
:0A350900EF600302355712355A2215
:042B04004101E600A5
:013568002240
:10211D00AB07AA06A9059001E7EFF0C39480500420
:10212D00E4F080069001E77480F09001E4E4F0A300
:10213D007480F09001E7E07C002400FEEC3AA3F0FF
:10214D00A3CEF09001E4E0FEA3E0FF7003EE640186
:10215D0060369001E8E0FCA3E0F5828C83E4938F78
:10216D00828E83F09001E6E004F09001E5E004F04A
:10217D0070069001E4E004F09001E9E004F070C312
:10218D009001E8E004F080BBAF039001E7EFF0C3EE
:10219D009480500FE02480FEE4339001E4F0A3CE50
:1021AD00F0800D9001E7E0FF9001E4E4F0A3EFF083
:1021BD009001E4E0FCA3E0F5828C83E9F0AD038DA2
:1021CD00A6EAFFF5A775AEFFA2AF9209C2AF75C71C
:1021DD00AA75C755439F01A20992AFA2AF9209C23A
:1021ED00AF75C7AA75C75543A501A20992AF75AFC3
:1021FD0022A2AF9209C2AF75C7AA75C75543A401F4
:10220D00A20992AF9001E7EDF0C394805004E4F081
:10221D0080069001E77480F09001E4E4F0A37480EF
:10222D00F09001E7E0F5A68FA7A2AF9209C2AF75B6
:10223D00C7AA75C755439F01A20992AFA2AF9209D4
:10224D00C2AF75C7AA75C75543A501A20992AF754F
:10225D00AF219001E4E0FEA3E0FFF44E602C8F82ED
:10226D008E83E0F5AEA2AF9209C2AF75C7AA75C74E
:10227D005543A401A20992AF05A69001E5E004F033
:10228D0070D09001E4E004F080C8A2AF9209C2AF13
:10229D0075C7AA75C75553A5FEA20992AFA2AF92F5
:1022AD0009C2AF75C7AA75C755539FFEA20992AF54
:0122BD0022FE
:04351C008F828E8389
:03352000E493FF32
:013523002285
:10313E0053B1BF53B2BF53B17F53B27F7598504353
:10314E008920438780438E1053C4DFAB07AA06A99C
:10315E0005A8047F407E427D0F7C00121C3BEF04CD
:0B316E00F404F58DD28ED299D2AC2271
:102A200090018A121CF153B1BF53B2BF53B17F530F
:102A3000B27F75985043878053C4F843C4209001F7
:102A40008AE0F8A3E0F9A3E0FAA3E0FB7F407E422E
:102A50007D0F7C00121C3BC374FF9FFF74FF9EFE22
:102A6000E49DFDE49CFC7808121CDE8FC690018A70
:102A7000E0F8A3E0F9A3E0FAA3E0FB7F407E427D0B
:102A80000F7C00121C3BC374FF9FFF8FC543C4081B
:052A9000D299D2AC2236
:073524003098FDAF99C29839
:01352B00227D
:08352C00C2998F993099FD222C
:102B09009001EF121CF153B1FB53B2FB53B3BF5306
:102B1900B4BF75F85075C40853C4DF9001EFE0F8ED
:102B2900A3E0F9A3E0FAA3E0FB7F407E427D0F7C9E
:102B390000121C3BC374FF9FFF74FF9EFEE49DFDC2
:102B4900E49CFC7808121CDE8FC69001EFE0F8A324
:102B5900E0F9A3E0FAA3E0FB7F407E427D0F7C0011
:0E2B6900121C3BC374FF9FFF8FC543C408229C
:0735340030F8FDAF9AC2F868
:01353B00226D
:08353C00C2F98F9A30F9FD225B
:102E08009001F3121CF1538EF7438901D28CE4FF31
:102E1800FEFDFC9001F3E0F8A3E0F9A3E0FAA3E0DB
:102E2800FBC3121CCD602F758A7E758CFF308DFD1B
:102E3800C28D9001F3E0FCA3E0FDA3E0FEA3E02433
:102E4800FFFFEE34FFFEED34FFFDEC34FFFC900194
:092E5800F3121CF180B8C28C22B7
:102E61009001F7121CF1538EF7438901D28CE4FFD4
:102E7100FEFDFC9001F7E0F8A3E0F9A3E0FAA3E07E
:102E8100FBC3121CCD602F758ACA758CFA308DFD7B
:102E9100C28D9001F7E0FCA3E0FDA3E0FEA3E024D6
:102EA100FFFFEE34FFFEED34FFFDEC34FFFC90013B
:092EB100F7121CF180B8C28C225A
:102EBA009001FB121CF1538EEF438910D28EE4FF6E
:102ECA00FEFDFC9001FBE0F8A3E0F9A3E0FAA3E021
:102EDA00FBC3121CCD602F758BEA758DCB308FFD2D
:102EEA00C28F9001FBE0FCA3E0FDA3E0FEA3E02477
:102EFA00FFFFEE34FFFEED34FFFDEC34FFFC9001E2
:092F0A00FB121CF180B8C28E22FA
:102C9C009001FF121CF153C9BF53C9DF43C910D2B5
:102CAC00CAE4FFFEFDFC9001FFE0F8A3E0F9A3E00D
:102CBC00FAA3E0FBC3121CCD602F75CC3075CDF898
:102CCC0030CFFDC2CF9001FFE0FCA3E0FDA3E0FEFE
:102CDC00A3E024FFFFEE34FFFEED34FFFDEC34FFE8
:0C2CEC00FC9001FF121CF180B8C2CA224B
:102CF800900203121CF175C40743C408E4FFFEFDEB
:102D0800FC900203E0F8A3E0F9A3E0FAA3E0FBC318
:102D1800121CCD603275C52C75C6CFE5C430E4FBF6
:102D280053C4EF900203E0FCA3E0FDA3E0FEA3E0A0
:102D380024FFFFEE34FFFEED34FFFDEC34FFFC9082
:0B2D48000203121CF180B553C4F722F7
:102D5300900207121CF175C40743C408E4FFFEFD8B
:102D6300FC900207E0F8A3E0F9A3E0FAA3E0FBC3B9
:102D7300121CCD603275C5D875C6FFE5C430E4FBBF
:102D830053C4EF900207E0FCA3E0FDA3E0FEA3E041
:102D930024FFFFEE34FFFEED34FFFDEC34FFFC9027
:0B2DA3000207121CF180B553C4F72298
:1023EC000A3D3D3D3D3D3D3D3D3D3D3D3D3D3D3D44
:1023FC003D3D3D3D3D3D3D3D3D3D3D3D3D3D3D3D01
:10240C003D3D3D3D3D3D3D3D3D3D3D3D3D3D3D3DF0
:10241C003D3D3D3D3D3D3D3D3D3D3D3D3D3D3D3DE0
:10242C003D3D3D3D3D000A2A2020436F7079726985
:10243C006768742863292032303135204E75766FE9
:10244C00746F6E20546563686E6F6C6F6779204390
:10245C006F72702E20416C6C2072696768747320E7
:10246C0072657365727665642E2020000A2A20201E
:10247C00436F6E7461637420452D4D61696C3A2015
:10248C004D6963726F432D38626974406E75766F57
:10249C00746F6E2E636F6D20202020202020202052
:1024AC002020202020202020202020202020202020
:1024BC0020000A2A202044656D6F205665727369CE
:1024CC006F6E20203A202532642E2532642E253260
:1024DC0064000A2A202046696E697368656420448A
:1024EC00617465203A202532642E2532642E253203
:0224FC0064007A
:102C3D007BFF7A2379EC121E237BFF7A24793212E3
:102C4D001E237BFF7A247978121E237BFF7A247949
:102C5D00BE900165E4F0A304F0E4A3F0A3F0A3F0AB
:102C6D00A3F0121E237BFF7A2479DE900165740791
:102C7D00F0A374DFF0A3E4F0A37405F0A3E4F0A3D4
:0F2C8D00741FF0121E237BFF7A2379EC021E23A3
:0300000002279044
:10279000787FE4F6D8FD9000007FFF7E03E4F0A38D
:0A27A000DFFCDEFA7581210227E557
:1027AA00023101E493A3F8E493A34003F68001F213
:1027BA0008DFF48029E493A3F85407240CC8C33330
:1027CA00C4540F4420C8834004F456800146F6DFFF
:1027DA00E4800B0102040810204080902A95E47ED0
:1027EA00019360BCA3FF543F30E509541FFEE493F4
:1027FA00A360010ECF54C025E060A840B8E493A3BB
:10280A00FAE493A3F8E493A3C8C582C8CAC583CAE5
:10281A00F0A3C8C582C8CAC583CADFE9DEE780BE9D
:012B080000CC
:10199B00E709F608DFFA8046E709F208DFFA803E2E
:1019AB0088828C83E709F0A3DFFA8032E309F6081B
:1019BB00DFFA8078E309F208DFFA807088828C8383
:1019CB00E309F0A3DFFA806489828A83E0A3F60837
:1019DB00DFFA805889828A83E0A3F208DFFA804C11
:1019EB0080D280FA80C680D4806980F280338010E8
:1019FB0080A680EA809A80A880DA80E280CA803351
:101A0B0089828A83ECFAE493A3C8C582C8CCC583C8
:101A1B00CCF0A3C8C582C8CCC583CCDFE9DEE78098
:101A2B000D89828A83E493A3F608DFF9ECFAA9F017
:101A3B00EDFB2289828A83ECFAE0A3C8C582C8CC6D
:101A4B00C583CCF0A3C8C582C8CCC583CCDFEADE86
:101A5B00E880DB89828A83E493A3F208DFF980CCE8
:101A6B0088F0EF60010E4E60C388F0ED2402B404E1
:101A7B000050B9F582EB2402B4040050AF23234588
:061A8B0082239019EB73A9
:101A9100BB010689828A83E0225002E722BBFE0253
:091AA100E32289828A83E4932286
:101AAA00BB010CE58229F582E5833AF583E02250F1
:101ABA0006E92582F8E622BBFE06E92582F8E2223B
:0D1ACA00E58229F582E5833AF583E4932255
:101AD700F8BB010DE58229F582E5833AF583E8F045
:101AE700225006E92582C8F622BBFE05E92582C8F1
:021AF700F222D9
:101AF900BC000BBE0029EF8DF084FFADF022E4CCD1
:101B0900F875F008EF2FFFEE33FEEC33FCEE9DEC99
:101B1900984005FCEE9DFE0FD5F0E9E4CEFD22EDDF
:101B2900F8F5F0EE8420D21CFEADF075F008EF2F29
:101B3900FFED33FD4007985006D5F0F222C398FD1A
:051B49000FD5F0EA22B7
:101B4E00C2D5EC30E709B2D5E4C39DFDE49CFCEEB2
:101B5E0030E715B2D5E4C39FFFE49EFE121AF9C317
:101B6E00E49DFDE49CFC8003121AF930D507C3E412
:061B7E009FFFE49EFE2221
:101B8400C5F0F8A3E028F0C5F0F8E58215827002EC
:061B94001583E038F02289
:101B9A00A3F8E0C5F025F0F0E582158270021583FE
:061BAA00E0C838F0E8225B
:101BB000E88FF0A4CC8BF0A42CFCE98EF0A42CFCD4
:101BC0008AF0EDA42CFCEA8EF0A4CDA8F08BF0A452
:101BD0002DCC3825F0FDE98FF0A42CCD35F0FCEBB1
:101BE0008EF0A4FEA9F0EB8FF0A4CFC5F02ECD3976
:0F1BF000FEE43CFCEAA42DCE35F0FDE43CFC22E3
:101BFF0075F008758200EF2FFFEE33FECD33CDCC9D
:101C0F0033CCC58233C5829BED9AEC99E58298401F
:101C1F000CF582EE9BFEED9AFDEC99FC0FD5F0D6FC
:101C2F00E4CEFBE4CDFAE4CCF9A88222B800C1B926
:101C3F000059BA002DEC8BF084CFCECDFCE5F0CB64
:101C4F00F97818EF2FFFEE33FEED33FDEC33FCEB9D
:101C5F0033FB10D703994004EB99FB0FD8E5E4F958
:101C6F00FA227818EF2FFFEE33FEED33FDEC33FC45
:101C7F00C933C910D7059BE99A4007EC9BFCE99A39
:101C8F00F90FD8E0E4C9FAE4CCFB2275F010EF2F7E
:101C9F00FFEE33FEED33FDCC33CCC833C810D7077E
:101CAF009BEC9AE899400AED9BFDEC9AFCE899F8B9
:0E1CBF000FD5F0DAE4CDFBE4CCFAE4C8F9224C
:101CCD00EB9FF5F0EA9E42F0E99D42F0E89C45F06D
:011CDD0022E4
:101CDE00E8600FECC313FCED13FDEE13FEEF13FFE4
:031CEE00D8F12208
:0C1CF100ECF0A3EDF0A3EEF0A3EFF02266
:101CFD00A8828583F0D083D082121D14121D141278
:101D0D001D14121D14E473E493A3C583C5F0C5839C
:101D1D00C8C582C8F0A3C583C5F0C583C8C582C830
:011D2D002293
:101D2E00D083D082F8E4937012740193700DA3A344
:101D3E0093F8740193F5828883E473740293686058
:061D4E00EFA3A3A380DF58
:061D54008A838982E4731A
:101DB800E5082465F582E43401F583E005082290FE
:101DC8000162300703900165E475F001121D980265
:101DD8001A912000E97F2ED2008018EF540F24902A
:101DE800D43440D4FF30040BEF24BFB41A0050039E
:101DF8002461FFE50960021509050CE50C70020570
:101E08000B30070E900162E475F001121D98EF0285
:101E18001D860232667403D2078003E4C207F50800
:101E2800900162121DAFE4F509F50BF50CE50960A8
:101E3800077F20121DFB80F5750AFFC201C200C290
:101E480002C203C205C206C208121DC7FF700D30C8
:101E580007057F00121E0CAF0CAE0B22B4255FC223
:101E6800D5C204121DC7FF24D0B40A00501A75F059
:101E78000A780930D50508B6FF0106C6A426F6205B
:101E8800D5047002D20380D924CFB41A00EF5004CD
:101E9800C2E5D20402200DD20180C6D20080C0D291
:101EA8000280BCD2D580BAD20580B47F20121DFB37
:101EB8002002077401B5090040F1121DB8FF121D78
:101EC800FB021E35D208D2068095121DB8FB121DE2
:101ED800B8FA121DB8F94A4B700679DE7A207BFFF2
:101EE80020022EE509602A7E008E82758300121A70
:101EF800AA60060EEE650A70F0C2D5EBC0E0EAC033
:101F0800E0E9C0E0EE122054D0E0F9D0E0FAD0E0E9
:101F1800FB121A91FF60AAEBC0E0EAC0E0E9C0E05A
:101F2800121DFBD0E02401F9D0E03400FAD0E0FB28
:101F3800E50A0460DCD50AD980877BFF7A207950CE
:101F4800D202809C791080027908C206C2088008F3
:101F5800D2D5790A8004790AC2D5E50A047002F557
:101F68000AE4FAFDFEFF121DB8FC7B0820011312DB
:101F78001DB8FD7B1030000A121DB8FE121DB8FFF7
:101F88007B20EC3382D592D55013C3E43000069FF2
:101F9800FFE49EFEE42001039DFDE49CFCE4CBF8F5
:101FA800C201EC700CCFCECDCCE824F8F870F380E9
:101FB80017C3EF33FFEE33FEED33FDEC33FCEB33A9
:101FC800FB994002FB0FD8E9EB300105F8D0E0C4DB
:101FD80048B201C0E00AEC4D4E4F78207B0070C239
:101FE800EAB50A0040BCC0E0122056D0F0D0E0208C
:101FF8000104C4C0E0C4B201C0F0121DE4D0F0D5A1
:10200800F0EB021E35121D2E1ED2531F4C581EA374
:102018004C1E9F421F504F1F58441F58491EB8431B
:082028001F5E551F42461F42D6
:10203000451F424720FE501EA72D1EAB2E1ECE2B45
:102040001EAF231ECC2020E72A1E674800001EC6B4
:102050003F3F3F00790AA2D5200314300509B9108B
:10206000020404B9080104A2D5200602500104208C
:1020700002689202B509005034C0E07F2030031995
:102080007F30A20272067205500F1220ADC202C24A
:1020900006C205C2087F30800F300503E9C0E01298
:1020A0001DFB300503D0E0F9D0E0B509CC300517B1
:1020B0007F30B9100C121DFB7F583004077F7880E9
:1020C00003B90803121DFB3002057F2D021DFB7FA3
:1020D000202008F87F2B2006F322920280CF286E62
:1020E000756C6C2900D201121DB83001F8C201785C
:1020F0000930D50108F6021E672D50434958121DBC
:10210000B82403B405004001E49020F993121DECBB
:0D211000743A121DECD203750904021F4C35
:0C34DF00EE30E707C3E49FFFE49EFE22EE
:101D5A00EF4E6012EF60010EEDBB010B89828A83A0
:101D6A00F0A3DFFCDEFA2289F05007F709DFFCA9AD
:0C1D7A00F022BBFEFCF309DFFCA9F02204
:101D8600BB010689828A83F0225002F722BBFE013C
:021D9600F32236
:101D9800F8E0FBA3A3E0F925F0F0E58215827002D4
:071DA8001583E0FA38F02278
:091DAF00EBF0A3EAF0A3E9F02235
:10326600EFB40A07740D123271740A309811A899D6
:10327600B8130CC2983098FDA899C298B811F630C8
:0732860099FDC299F59922A0
:00000001FF
