:10309E001234DD1235D312327612002212355B1243
:1030AE002FCA9001D9E06002E4F09001DBE06005E8
:1030BE00E4F0120A609001DDE06008E4F0120026F0
:1030CE00122F7B9001DFE06002E4F09001E2E060FD
:0530DE00D1E4F080CDFB
:0100220022BB
:0135D00022D8
:0135D10022D7
:0135D20022D6
:0C352B009001D3EBF0A3EAF0A3E9F0223A
:0C3537009001D6EBF0A3EAF0A3E9F0222B
:1034EF009001D3A3E0FAA3E0F94A6003121D66220C
:1034FF009001D6A3E0FAA3E0F94A6003121D6622F9
:10321B00EF4E602D9001C9EEF0A3EFF0AF05A3ECDC
:10322B00F0A3EFF0AF03A3EAF0A3EFF0E4A3F0A356
:10323B00F0A3F0A3F09001C8F09001C704F0123492
:02324B00EF2270
:10000E00E49001C7F01234FF7B007A0079001235BC
:04001E002B02353745
:1026ED009001C7E070030227A19001CBE0FEA3E0AB
:1026FD00FF4E70030227A19001C8E07035D3EF940F
:10270D0000EE940050030227A19001CFE475F00173
:10271D00121B96FED39001CAE095F09001C9E09E80
:10272D0050721234FFE49001CFF0A3F09001C80471
:10273D00F0229001C8E06401705A9001CF75F0014C
:10274D00121B96FED39001CCE095F09001CBE09E4C
:10275D0050429001CDE0FEA3E0FF9400EE940040C6
:10276D00259001D1E475F001121B96FCD3EF95F085
:10277D00EE9C5005E49001C7F09001C7E070079002
:10278D0001CBF0A3F022E49001CFF0A3F09001C8AB
:05279D00F01234EF22F0
:102AAB004101490050014A000000000000000000F5
:102ABB000000000000000050013900000000000081
:102ACB000000000000000000000048015A00000058
:052ADB000000000000F6
:10327600E4900149F0FE7F10FD7B017A01794A1244
:103286001D6C7E007F107D007B017A017939121D4D
:073296006C1222D00232EBA2
:0A29460004F07B017A017939E0FD0D
:0E295000900191EBF0A3EAF0A3E9F0A3EDF003
:10295E00E4FF000FEFB40AFA12350F90014974012B
:10296E00F0E4FF00000FEFB40AF9900191E0FBA331
:10297E00E0FAA3E0F974019001396B7008E9658201
:10298E007003EA6583602A7E007F107D007B017AEA
:10299E00017939121D6C900194E0FF7E0078397C2C
:1029AE00017D01900191E0FBA3E0FAA3E0F9121A78
:0129BE006BAD
:0129BF0022F5
:0B13F10090018AEBF0A3EAF0A3E9F002
:1013FC00E4A3F0A3F0A3F0A3F0121A9164F260033B
:10140C0002199A90018AE0FBA3E0FAA3E0F990009C
:10141C0001121AAAD39410400302199AE490018E77
:10142C00F090018AE0FBA3E0FAA3E0F9900001122E
:10143C001AAA2401FFE433FE90018EE0FDC39FEE57
:10144C006480F8748098501DED2401FFE433FE8F06
:10145C00828E83121AAAFF900190E02FF090018ED9
:10146C00E004F080BC90018AE0FBA3E0FAA3E0F971
:10147C00900001121AAAF582758300A3A3121AAA6E
:10148C00FF900190E06F600302199A7E007F107D3F
:10149C00007B017A017939121D6CE490018FF09078
:1014AC00018AE0FBA3E0FAA3E0F9900002121AAA69
:1014BC002447700302186724B8B4090040030219CA
:1014CC00919014DB75F003A4C58325F0C5837302DA
:1014DC0014F60216E90217A802195402196302192C
:1014EC00720219910219810215E090020DE0FF20A1
:1014FC00E0030215D030E10854FDF0120003800A1D
:10150C0090020DE04402F012349090018FE0FF0441
:10151C00F074392FF582E43401F58374F8F09001FE
:10152C008FE0FF04F074392FF582E43401F58374F5
:10153C000AF090018FE0FF04F074392FF582E43447
:10154C0001F5837401F090020CE0C313A3E0135473
:10155C0001FF90018FE0FE04F074392EF582E43423
:10156C0001F583EFF090018FE02439F9E43401FAAE
:10157C007B017D081231E390018FE02408F0E490A8
:10158C00018EF090013AE02401FFE433FE90018ECD
:10159C00E0FDC39FEE6480F87480985024743A2D5B
:1015AC00F582E43401F583E0FF90018FE02439F5F6
:1015BC0082E43401F583E02FF090018EE004F0809A
:1015CC00C202194B7B007A007900E4900195F07F00
:1015DC000102198E90018AE0FBA3E0FAA3E0F990D6
:1015EC000003121AAAB401051235C7803090018A83
:1015FC00E0FBA3E0FAA3E0F9900003121AAAB402EC
:10160C00051235CA801790018AE0FBA3E0FAA3E02B
:10161C00F9900003121AAAB403031235CD90018F6E
:10162C00E0FF04F074392FF582E43401F58374F88B
:10163C00F090018FE0FF04F074392FF582E434014F
:10164C00F5837402F090018AE0FBA3E0FAA3E0F9C1
:10165C00900002121AAAFF90018FE0FE04F0743978
:10166C002EF582E43401F583EFF01235C1EF9001D1
:10167C008F6013E0FF04F074392FF582E43401F528
:10168C00837401F08011E0FF04F074392FF582E4CB
:10169C003401F5837402F0E490018EF090013AE08D
:1016AC002401FFE433FE90018EE0FDC39FEE6480C5
:1016BC00F87480984003021991743A2DF582E43441
:1016CC0001F583E0FF90018FE02439F582E43401C9
:1016DC00F583E02FF090018EE004F080BF90020DB6
:1016EC00E0FF20E00302179830E103021991123455
:1016FC006290018FE0FF04F074392FF582E434011D
:10170C00F58374F8F090018FE0FF04F074392FF535
:10171C0082E43401F5837409F090018FE0FF04F04A
:10172C0074392FF582E43401F5837402F090018F43
:10173C00E02439F9E43401FA7B017D081231E3909D
:10174C00018FE02408F0E490018EF090013AE0243F
:10175C0001FFE433FE90018EE0FDC39FEE6480F840
:10176C007480985024743A2DF582E43401F583E0AA
:10177C00FF90018FE02439F582E43401F583E02FEA
:10178C00F090018EE004F080C202194B7B007A00CD
:10179C007900E4900195F07F0202198E90020DE021
:1017AC00FF20E00302185730E10302199112347A3A
:1017BC0090018FE0FF04F074392FF582E43401F5C9
:1017CC008374F8F090018FE0FF04F074392FF582E8
:1017DC00E43401F5837409F090018FE0FF04F07498
:1017EC00392FF582E43401F5837403F090018FE016
:1017FC002439F9E43401FA7B017D081231E39001BC
:10180C008FE02408F0E490018EF090013AE024017E
:10181C00FFE433FE90018EE0FDC39FEE6480F8740C
:10182C0080985024743A2DF582E43401F583E0FF5E
:10183C0090018FE02439F582E43401F583E02FF038
:10184C0090018EE004F080C202194B7B007A007983
:10185C0000E4900195F07F0302198E90020DE030A8
:10186C00E00554FEF0800790020DE04401F0900179
:10187C008FE0FF04F074392FF582E43401F58374A2
:10188C00F8F090018FE0FF04F074392FF582E43406
:10189C0001F583740BF090018FE0FF04F074392F85
:1018AC00F582E43401F58374B9F090020CE0FEA3E8
:1018BC00E0FF5401FD90018FE0FC04F074392CF52D
:1018CC0082E43401F583EDF0EEC313EF135401FF02
:1018DC0090018FE0FE04F074392EF582E43401F5AA
:1018EC0083EFF090018FE02439F9E43401FA7B01A5
:1018FC007D081231E390018FE02408F0E490018E12
:10190C00F090013AE02401FFE433FE90018EE0FDFB
:10191C00C39FEE6480F87480985024743A2DF5823D
:10192C00E43401F583E0FF90018FE02439F582E483
:10193C003401F583E02FF090018EE004F080C2902A
:10194C00018FE0122946803D7B007A007900E490FB
:10195C000195F07F04802B7B007A007900E49001E4
:10196C0095F07F05801C7B007A007900E49001954E
:10197C00F07F06800D7B007A007900E4900195F0F1
:0E198C007F0812251090018FE060031229469B
:01199A00222A
:102F7B00900149E0603112356FEF24F0601824D0D6
:102F8B006012242070161235431235B4E4900149B7
:102F9B00F00232EB80001235430235B47B017A012B
:102FAB0079397D100231267B017A01794A7D101225
:0F2FBB00324DEF60097B017A01794A1213F1223E
:102AE0004101A1004101A2004101A3005001A40045
:0F2AF000000000000000000000000000000000D7
:0A355B00E49001A1F0A3F0A3F02218
:10251000900192EBF0A3EAF0A3E9F0E49001A1F0BE
:10252000E0FE04F074A42EF582E43401F5837455C2
:10253000F09001A1E0FE04F074A42EF582E43401D1
:10254000F58374AAF0900195E004FE9001A1E0FDEE
:1025500004F074A42DF582E43401F583EEF09001CB
:10256000A1E0FE04F074A42EF582E43401F583EFBB
:10257000F0E49001A3F0900195E0FF9001A3E0FE4C
:10258000C39F502F900192E0FBA3E0FAA3E0F98EE5
:1025900082758300121AAAFE9001A1E0FD04F07476
:1025A000A42DF582E43401F583EEF09001A3E0045C
:1025B000F080C37B017A0179A4EF2404FD122B8DF6
:1025C0009001A1E0FE04F074A42EF582E43401F53C
:1025D00083EFF0E49001A3F0900195E02405FFE47F
:1025E00033FE9001A3E0FDC39FEE6480F8748098F1
:1025F000501774A42DF582E43401F583E0FF123501
:0A2600009C9001A3E004F080CF22BB
:100026009000A2E07003020A5F14F09000A0E024A2
:10003600A0FFE433FEA3E0FBFDC3EF9DFFEE9400BB
:10004600FE7C007DA0121B0BEDC3940440D274000D
:100056002BF582E43400F583E064556003020A4B15
:100066009000A1E07A002401FFEA33FE7C007DA027
:10007600121B6074002DF58274003CF583E064AABF
:100086006003020A4BEB2402FFEA33FE7C007DA0EC
:10009600121B6074002DF58274003CF583E090011C
:1000A600A2F09000A0E024A0FFE433CFC39BCF9A38
:1000B600FE7C007DA0121B609001A2E02404FFE4F8
:1000C60033FEC3ED9FEE6480F8EC64809850030223
:1000D6000A519000A1E0FF2400F9E43400FA7B0104
:1000E6009001A2E02403FD90018FEFF0A374A0F02D
:1000F60012283CAB079001A2E0FF9000A1E02FFF81
:10010600E433CF2403CF3400FE7C007DA0121B60B5
:1001160074002DF58274003CF583E06B6003020ADF
:100126004BE49001A1F0FE7F10FD7B017A01793945
:10013600121D6C9000A1E0FB7A002403FFEA33FE57
:100146007C007DA0121B6074002DF58274003CF5C6
:1001560083E0121D40018612032B31040333087716
:100166003404EB3505C33606AB37025338079341E3
:10017600096D6209D16309F3640A156500000A3541
:10018600E490018AF0EB240CFFE43AFE7C007DA0AB
:10019600121B6074002DF58274003CF583E090011B
:1001A6008AF0E0C394134003020A35E49001A3F0F9
:1001B60090018AE0FFC374139FFF9001A3E0C39FE1
:1001C6005026C374AD94A5FD74009400FC90018A7A
:1001D600E075F072A42DFFE5F03CFEE4FD123565F6
:1001E6009001A3E004F080C8E49001A3F09001A37D
:1001F600E0FDC39472504290018AE075F072A47CCF
:10020600002DFFEC35F0FEC006C0079000A1E024EB
:1002160004FFE433CF2DCF3CFE7DA0121B6074009B
:100226002DF58274003CF583E0FDD007D00612352B
:10023600659001A3E004F080B47B017A01798A908D
:0A02460001957401F07F12122510DB
:10025000020A359001A1E0FF04F074392FF582E421
:100260003401F58374F8F09001A2E0FF9001A1E061
:10027000FE04F074392EF582E43401F583EFF0903A
:1002800001A1E0FF04F074392FF582E43401F58315
:100290007438F0E49001A3F09001A2E014FFA3E011
:1002A000FEC39F50409000A1E02404FDE433FCEE27
:1002B0007E002DFFEE3CFE7C007DA0121B607400D2
:1002C0002DF58274003CF583E0FF9001A1E0FE046F
:1002D000F074392EF582E43401F583EFF09001A338
:1002E000E004F080B3E49001A3F090013AE024012F
:1002F000FFE433FE9001A3E0FDC39FEE6480F87439
:1003000080985024743A2DF582E43401F583E0FF9F
:100310009001A1E02439F582E43401F583E02FF067
:100320009001A3E004F080C20208689001A1E0FF00
:1003300004F074392FF582E43401F58374F8F090F9
:1003400001A2E0FF9001A1E0FE04F074392EF582D5
:10035000E43401F583EFF09001A1E0FF04F074397B
:100360002FF582E43401F5837431F0E49001A3F0B9
:100370009001A2E014FFA3E0FEC39F50409000A1B3
:10038000E02404FDE433FCEE7E002DFFEE3CFE7C19
:10039000007DA0121B6074002DF58274003CF58373
:1003A000E0FF9001A1E0FE04F074392EF582E43400
:1003B00001F583EFF09001A3E004F080B3E4900135
:1003C000A3F090013AE02401FFE433FE9001A3E0A2
:1003D000FDC39FEE6480F87480985024743A2DF524
:1003E00082E43401F583E0FF9001A1E02439F58235
:1003F000E43401F583E02FF09001A3E004F080C223
:100400000208689001A1E0FF04F074392FF582E43E
:100410003401F58374F8F09001A2E0FF9001A1E0AF
:10042000FE04F074392EF582E43401F583EFF09088
:1004300001A1E0FF04F074392FF582E43401F58363
:100440007433F0E49001A3F09001A2E014FFA3E064
:10045000FEC39F50409000A1E02404FDE433FCEE75
:100460007E002DFFEE3CFE7C007DA0121B60740020
:100470002DF58274003CF583E0FF9001A1E0FE04BD
:10048000F074392EF582E43401F583EFF09001A386
:10049000E004F080B3E49001A3F090013AE024017D
:1004A000FFE433FE9001A3E0FDC39FEE6480F87487
:1004B00080985024743A2DF582E43401F583E0FFEE
:1004C0009001A1E02439F582E43401F583E02FF0B6
:1004D0009001A3E004F080C29001A1E004F090023A
:1004E0000DE030E003020A3502095C9001A1E0FF53
:1004F00004F074392FF582E43401F58374F8F09038
:1005000001A2E0FF9001A1E0FE04F074392EF58213
:10051000E43401F583EFF09001A1E0FF04F07439B9
:100520002FF582E43401F5837435F0E49001A3F0F3
:100530009001A2E014FFA3E0FEC39F50409000A1F1
:10054000E02404FDE433FCEE7E002DFFEE3CFE7C57
:10055000007DA0121B6074002DF58274003CF583B1
:10056000E0FF9001A1E0FE04F074392EF582E4343E
:1005700001F583EFF09001A3E004F080B3E4900173
:10058000A3F090013AE02401FFE433FE9001A3E0E0
:10059000FDC39FEE6480F87480985024743A2DF562
:1005A00082E43401F583E0FF9001A1E02439F58273
:1005B000E43401F583E02FF09001A3E004F080C261
:1005C0000208689001A1E0FF04F074392FF582E47D
:1005D0003401F58374F8F09001A2E0FF9001A1E0EE
:1005E000FE04F074392EF582E43401F583EFF090C7
:1005F00001A1E0FF04F074392FF582E43401F583A2
:100600007436F0E49001A3F09001A2E014FFA3E09F
:10061000FEC39F50409000A1E02404FDE433FCEEB3
:100620007E002DFFEE3CFE7C007DA0121B6074005E
:100630002DF58274003CF583E0FF9001A1E0FE04FB
:10064000F074392EF582E43401F583EFF09001A3C4
:10065000E004F080B3E49001A3F090013AE02401BB
:10066000FFE433FE9001A3E0FDC39FEE6480F874C5
:1006700080985024743A2DF582E43401F583E0FF2C
:100680009001A1E02439F582E43401F583E02FF0F4
:100690009001A3E004F080C29001A1E004F0900278
:1006A0000DE030E003020A3502095C9001A1E0FF91
:1006B00004F074392FF582E43401F58374F8F09076
:1006C00001A2E0FF9001A1E0FE04F074392EF58252
:1006D000E43401F583EFF09001A1E0FF04F07439F8
:1006E0002FF582E43401F5837437F0E49001A3F030
:1006F0009001A2E014FFA3E0FEC39F50409000A130
:10070000E02404FDE433FCEE7E002DFFEE3CFE7C95
:10071000007DA0121B6074002DF58274003CF583EF
:10072000E0FF9001A1E0FE04F074392EF582E4347C
:1007300001F583EFF09001A3E004F080B3E49001B1
:10074000A3F090013AE02401FFE433FE9001A3E01E
:10075000FDC39FEE6480F87480985024743A2DF5A0
:1007600082E43401F583E0FF9001A1E02439F582B1
:10077000E43401F583E02FF09001A3E004F080C29F
:100780009001A1E004F090020DE030E003020A3590
:1007900002095C9001A1E0FF04F074392FF582E4B6
:1007A0003401F58374F8F09001A2E0FF9001A1E01C
:1007B000FE04F074392EF582E43401F583EFF090F5
:1007C00001A1E0FF04F074392FF582E43401F583D0
:1007D0007441F0E49001A3F09001A2E014FFA3E0C3
:1007E000FEC39F50409000A1E02404FDE433FCEEE2
:1007F0007E002DFFEE3CFE7C007DA0121B6074008D
:100800002DF58274003CF583E0FF9001A1E0FE0429
:10081000F074392EF582E43401F583EFF09001A3F2
:10082000E004F080B3E49001A3F090013AE02401E9
:10083000FFE433FE9001A3E0FDC39FEE6480F874F3
:1008400080985024743A2DF582E43401F583E0FF5A
:100850009001A1E02439F582E43401F583E02FF022
:100860009001A3E004F080C29001A1E004F07B01BC
:100870007A0179390209659001A1E0FF04F0743929
:100880002FF582E43401F58374F8F09001A2E0FFC3
:100890009001A1E0FE04F074392EF582E43401F5F4
:1008A00083EFF09001A1E0FF04F074392FF582E4AA
:1008B0003401F5837434F0E49001A3F09001A2E0D8
:1008C00014FFA3E0FEC39F50409000A1E02404FD6C
:1008D000E433FCEE7E002DFFEE3CFE7C007DA0129A
:1008E0001B6074002DF58274003CF583E0FF9001DD
:1008F000A1E0FE04F074392EF582E43401F583EFB3
:10090000F09001A3E004F080B3E49001A3F0900123
:100910003AE02401FFE433FE9001A3E0FDC39FEE23
:100920006480F87480985024743A2DF582E4340180
:10093000F583E0FF9001A1E02439F582E43401F56C
:1009400083E02FF09001A3E004F080C29001A1E0C9
:1009500004F090020DE030E003020A357B017A01D9
:1009600079399001A1E0FD122950020A359000A1C9
:10097000E0FB7A002404FFEA33FE7C007DA0121B1A
:100980006074002DF58274003CF583E0FFC007EB36
:100990002405FFEA33FE7C007DA0121B6074002D4D
:1009A000F58274003CF583E0FDC0059000A1E024D1
:1009B00006FFE433FE7C007DA0121B6074002DF561
:1009C0008274003CF583E0FBD005D00712335880D9
:1009D000649000A1E02404FFE433FE7C007DA012BB
:1009E0001B6074002DF58274003CF583E09000A339
:1009F000F080429000A1E02404FFE433FE7C007DFF
:100A0000A0121B6074002DF58274003CF583E09009
:100A100000A4F080209000A1E02404FFE433FE7CD9
:100A2000007DA0121B6074002DF58274003CF583DC
:100A3000E0FF1229C09001A2E02404FF9000A1E091
:100A40002FF0E075F0A084E5F0F0229000A1E00422
:100A5000F09000A1E075F0A084E5F0F002002622FD
:102B8D00900196EBF0A3EAF0A3E9F0AE05E4900214
:102B9D000EF0AF061EEF604690020EE0FF9001961C
:102BAD00E0FBA3E475F001121BACA9F0FA121A9127
:102BBD006F90020EF0E4A3F090020FE0C394085062
:102BCD00D190020EE030E007C313648CF0800790C3
:102BDD00020EE0C313F090020FE004F080DA9002D1
:042BED000EE0FF22D5
:10283C0090018BEBF0A3EAF0A3E9F0AE05E4900273
:10284C000EF0AF061EEF606B90020EE0FF90018B56
:10285C00E0FBA3E475F001121BACA9F0FA121A917B
:10286C006F90020EF090018FE004F0A3E0FF900156
:10287C008FE0C39F4012E4F0EFFDE49DFDE4940073
:10288C0090018C8DF0121B96E490020FF090020FC9
:10289C00E0C3940850AC90020EE030E007C3136420
:1028AC008CF0800790020EE0C313F090020FE0044E
:0928BC00F080DA90020EE0FF2228
:072AFF0044011D000000006E
:102FCA007E007F067D007B017A017917121D6C7ED7
:102FDA00007F017D007B017A01792E121D6C7E0033
:102FEA007F727D007B017A0079A5121D6C7E007FBD
:102FFA00027D007B017A0079A3121D6C9000A374F4
:07300A003CF0E4FF0229C0C5
:1034620090012EE0600414F0800690012E7413F097
:0834720090012EE0FF0229C0C9
:10347A0090012EE004F0E0C394144002E4F09001BD
:06348A002EE0FF0229C044
:1031E300900191EBF0A3EAF0A3E9F0EDD39408404A
:1031F3000A900191E4F0A3F0A3F022AF057E0090C2
:103203000191E0FBA3E0FAA3E0F8AC02AD037B017C
:083213007A0079A5121A6B2262
:0800030090012EE0FF0229C06C
:10349000E4900128F090012CF0A3F0FBFAFDFCFF72
:0434A000FE02329D59
:102DC40090018EEFF02401FFE433FE9000AEE05456
:102DD4000FB50714E4B5061090018EF0E075F00D00
:102DE400A424AFF97400800D90018EE075F00DA459
:102DF40024BCF9740035F0FA7B0178217C017D0153
:102E04007E007F0D121A6B782F7C017D017B017A85
:0A2E14000079A57E007F0A021A6B08
:1029C000900191EFF0FBE4900117F0A3121D0F00AE
:1029D00000000090011C7432F0EBC3941340089087
:1029E000012E7413F08008900191E090012EF07B8D
:1029F000017A0079A5900191E0FD122BF19000ADD4
:102A0000E0700D7B017A0079A5FD122BF112349054
:102A100078217C017D017B017A0079AF7E007F0DFA
:102A2000121A6B782F7C017D017B017A0079A57EDB
:062A3000007F0A021A6B90
:10343000AB07E4900117F0A3121D0F00000000E499
:0934400090011CF0AF03022DC441
:1033580090018BEFF0A3EDF0A3EBF0123490900105
:103368008BE0FF7E00A3E0FD7C00A3E0FB7A000277
:02337800329D84
:100A600090011CE0600314F022900128E0700D90CA
:100A7000012CE07002A3E070030213F0900121E06A
:100A8000540F24FC7003020EEA14700302113F2479
:100A90000260030213F0900118E0FCA3E0FDA3E064
:100AA000FEA3E02401FFE43EFEE43DFDE43CFC90B7
:100AB0000118121D03900125E0FF900122E0FEC302
:100AC0009F4003020B77EEFDC3EF9DFFE49400FE11
:100AD00012354FEE3395E0FDFCC004C005C006C0E2
:100AE00007E4FF7E01FDFC900118E0F8A3E0F9A304
:100AF000E0FAA3E0FB121BC2D003D002D001D00069
:100B0000121BC2C006C007900129E0FEA3E0FBAAA9
:100B100006E4F9F8D007D006121C4DA804A905AACE
:100B200006AB07900122E0FEE4FCFD2BFFEA3EFE4F
:100B3000ED39FDEC38FC90011D121D0390012BE0F6
:100B4000FFE4FCFDFE90011DE0F8A3E0F9A3E0FA4C
:100B5000A3E0FB121BC2E47B64FAF9F8121C4D906F
:100B6000011D121D0390011DE0FCA3E0FDA3E0FEAA
:100B7000A3E0FFE4020C25900122E0FF900125E0B4
:100B8000C39FFFE49400FE12354FEE3395E0FDFC69
:100B9000C004C005C006C007E4FF7E01FDFC900153
:100BA00018E0F8A3E0F9A3E0FAA3E0FB121BC2D01F
:100BB00003D002D001D000121BC2C006C0079001B2
:100BC00029E0FEA3E0FBAA06E4F9F8D007D006125C
:100BD0001C4DA804A905AA06AB07900122E0FEE47B
:100BE000C39BFFEE9AFEE499FDE498FC90011D1270
:100BF0001D0390012BE0FFE4FCFDFE90011DE0F8D9
:100C0000A3E0F9A3E0FAA3E0FB121BC2E47B64FAC1
:100C1000F9F8121C4D90011D121D0390011DA3A394
:100C2000E0FEA3E0FF123058900126E0FF90012380
:100C3000E0FEC39F5071EEFDC3EF9DFFE49400FE04
:100C400012354FEE3395E0FDFCC004C005C006C070
:100C500007E4FF7E01FDFC900118E0F8A3E0F9A392
:100C6000E0FAA3E0FB121BC2D003D002D001D000F7
:100C7000121BC2C006C007900129E0FEA3E0FBAA38
:100C800006E4F9F8D007D006121C4DA804A905AA5D
:100C900006AB07900123E0FEE4FCFD2BFFEA3EFEDD
:100CA000ED39FDEC388074900123E0FF900126E0DF
:100CB000C39FFFE49400FE12354FEE3395E0FDFC38
:100CC000C004C005C006C007E4FF7E01FDFC900122
:100CD00018E0F8A3E0F9A3E0FAA3E0FB121BC2D0EE
:100CE00003D002D001D000121BC2C006C007900181
:100CF00029E0FEA3E0FBAA06E4F9F8D007D006122B
:100D00001C4DA804A905AA06AB07900123E0FEE448
:100D1000C39BFFEE9AFEE499FDE498FC90011D123E
:100D20001D0390012BE0FFE4FCFDFE90011DE0F8A7
:100D3000A3E0F9A3E0FAA3E0FB121BC2E47B64FA90
:100D4000F9F8121C4D90011D121D0390011DA3A363
:100D5000E0FEA3E0FF12339A900127E0FF90012408
:100D6000E0FEC39F5071EEFDC3EF9DFFE49400FED3
:100D700012354FEE3395E0FDFCC004C005C006C03F
:100D800007E4FF7E01FDFC900118E0F8A3E0F9A361
:100D9000E0FAA3E0FB121BC2D003D002D001D000C6
:100DA000121BC2C006C007900129E0FEA3E0FBAA07
:100DB00006E4F9F8D007D006121C4DA804A905AA2C
:100DC00006AB07900124E0FEE4FCFD2BFFEA3EFEAB
:100DD000ED39FDEC388074900124E0FF900127E0AC
:100DE000C39FFFE49400FE12354FEE3395E0FDFC07
:100DF000C004C005C006C007E4FF7E01FDFC9001F1
:100E000018E0F8A3E0F9A3E0FAA3E0FB121BC2D0BC
:100E100003D002D001D000121BC2C006C00790014F
:100E200029E0FEA3E0FBAA06E4F9F8D007D00612F9
:100E30001C4DA804A905AA06AB07900124E0FEE416
:100E4000C39BFFEE9AFEE499FDE498FC90011D120D
:100E50001D0390012BE0FFE4FCFDFE90011DE0F876
:100E6000A3E0F9A3E0FAA3E0FB121BC2E47B64FA5F
:100E7000F9F8121C4D90011D121D0390011DA3A332
:100E8000E0FEA3E0FF1233BA900129E0FEA3E0FFE9
:100E9000E4FCFD900118E0F8A3E0F9A3E0FAA3E078
:100EA000FBC3121CDF4012900118121D0F0000003E
:100EB00000900128E0600214F0900128E060030235
:100EC00013F090012CE07002A3E0600E90012DE081
:100ED00024FFF090012CE034FFF090012CE0700230
:100EE000A3E060030213F00213E5900117E070180D
:100EF000A3E0FCA3E0FDA3E0FEA3E02401FFE43EA9
:100F0000FEE43DFDE43C8029900118E0FCA3E0FDF7
:100F1000A3E0FEA3E0FFEC4D4E4F601C900118A330
:100F2000A3A3E024FFFFEE34FFFEED34FFFDEC341D
:100F3000FFFC900118121D03E47FFFFEFDFC9001F1
:100F400018E0F8A3E0F9A3E0FAA3E0FB121BC2A8A3
:100F500004A905AA06AB07900122E0FFE4FCFDFE10
:100F6000121BC2C006C007900129E0FEA3E0FBAA45
:100F700006E4F9F8D007D006121C4D90011D121D91
:100F80000390012BE0FFE4FCFDFE90011DE0F8A3BF
:100F9000E0F9A3E0FAA3E0FB121BC2E47B64FAF9D8
:100FA000F8121C4D90011D121D0390011DE0FCA3C1
:100FB000E0FDA3E0FEA3E0FFE4123058E47FFFFE73
:100FC000FDFC900118E0F8A3E0F9A3E0FAA3E0FB30
:100FD000121BC2A804A905AA06AB07900123E0FFD3
:100FE000E4FCFDFE121BC2C006C007900129E0FE12
:100FF000A3E0FBAA06E4F9F8D007D006121C4D9036
:10100000011D121D0390012BE0FFE4FCFDFE900189
:101010001DE0F8A3E0F9A3E0FAA3E0FB121BC2E491
:101020007B64FAF9F8121C4D90011D121D0390010A
:101030001DE0FCA3E0FDA3E0FEA3E0FFE412339A71
:10104000E47FFFFEFDFC900118E0F8A3E0F9A3E0C7
:10105000FAA3E0FB121BC2A804A905AA06AB0790DD
:101060000124E0FFE4FCFDFE121BC2C006C0079095
:101070000129E0FEA3E0FBAA06E4F9F8D007D006B8
:10108000121C4D90011D121D0390012BE0FFE4FC8A
:10109000FDFE90011DE0F8A3E0F9A3E0FAA3E0FB58
:1010A000121BC2E47B64FAF9F8121C4D90011D1268
:1010B0001D0390011DE0FCA3E0FDA3E0FEA3E0FF03
:1010C000E41233BA900129E0FEA3E0FFE4FCFD90B6
:1010D0000118E0F8A3E0F9A3E0FAA3E0FBC3121CB7
:1010E000DF5014E4FFFEFDFC900118E0F8A3A3A379
:1010F000E0C3121CDF7017900117E0700404F08049
:101100000DE4900117F0900128E0600214F09001C6
:1011100028E060030213F090012CE07002A3E0606D
:101120000E90012DE024FFF090012CE034FFF090B0
:0F113000012CE07002A3E060030213F00213E54C
:10113F0090018A121D0F000000FFE4FFFEFDFC90DE
:10114F000118E0F8A3E0F9A3E0FAA3E0FBC3121C37
:10115F00DF6003021252900122E0FFE4FCFDFE90DB
:10116F00018AE0F8A3E0F9A3E0FAA3E0FB121BC2A7
:10117F00A804A905AA06AB0790012BE0FFE4FCFD2C
:10118F00FE121BC2E47B64FAF9F8121C4D90011D8C
:10119F00121D0390011DE0FCA3E0FDA3E0FEA3E000
:1011AF00FFE4123058900123E0FFE4FCFDFE9001B4
:1011BF008AE0F8A3E0F9A3E0FAA3E0FB121BC2A8B0
:1011CF0004A905AA06AB0790012BE0FFE4FCFDFE86
:1011DF00121BC2E47B64FAF9F8121C4D90011D1228
:1011EF001D0390011DE0FCA3E0FDA3E0FEA3E0FFC3
:1011FF00E412339A900124E0FFE4FCFDFE90018A93
:10120F00E0F8A3E0F9A3E0FAA3E0FB121BC2A804E5
:10121F00A905AA06AB0790012BE0FFE4FCFDFE1227
:10122F001BC2E47B64FAF9F8121C4D90011D121DCC
:10123F000390011DE0FCA3E0FDA3E0FEA3E0FFE4AB
:10124F001233BA900129E0FEA3E0FFE4FCFD900108
:10125F0018E0F8A3E0F9A3E0FAA3E0FBC3121CDF48
:10126F006003021361900125E0FFE4FCFDFE900195
:10127F008AE0F8A3E0F9A3E0FAA3E0FB121BC2A8EF
:10128F0004A905AA06AB0790012BE0FFE4FCFDFEC5
:10129F00121BC2E47B64FAF9F8121C4D90011D1267
:1012AF001D0390011DE0FCA3E0FDA3E0FEA3E0FF02
:1012BF00E4123058900126E0FFE4FCFDFE90018A15
:1012CF00E0F8A3E0F9A3E0FAA3E0FB121BC2A80425
:1012DF00A905AA06AB0790012BE0FFE4FCFDFE1267
:1012EF001BC2E47B64FAF9F8121C4D90011D121D0C
:1012FF000390011DE0FCA3E0FDA3E0FEA3E0FFE4EB
:10130F0012339A900127E0FFE4FCFDFE90018AE082
:10131F00F8A3E0F9A3E0FAA3E0FB121BC2A804A90B
:10132F0005AA06AB0790012BE0FFE4FCFDFE121BA4
:10133F00C2E47B64FAF9F8121C4D90011D121D03D3
:10134F0090011DE0FCA3E0FDA3E0FEA3E0FFE4128B
:10135F0033BA900118E0FCA3E0FDA3E0FEA3E02464
:10136F0001FFE43EFEE43DFDE43CFC900118121D3C
:10137F000390012CE0FEA3E0FF90012AE02FFF90E5
:10138F000129E03EFEE4FCFD900118E0F8A3E0F92E
:10139F00A3E0FAA3E0FBC3121CDF40129001181266
:1013AF001D0F00000000900128E0600214F0900172
:1013BF0028E0702D90012CE07002A3E0600E9001E8
:1013CF002DE024FFF090012CE034FFF090012CE091
:1013DF007002A3E0700B900121E0C4540FFF123490
:0113EF0030CD
:0113F00022DA
:0135D30022D5
:0E2BF100900192EBF0A3EAF0A3E9F0A3EDF05F
:102BFF00E4A3F0AF05EFC39414E4900196F09001B5
:102C0F0096E0FDC39472503B900195E075F072A46D
:102C1F002400FFE5F0343CFE7C00EF2DFFEC3EFE80
:102C2F0012358C900192E0FBA3E0FAA3E0F990013A
:102C3F0096E0F582758300EF121AD7900196E004A3
:032C4F00F080BB57
:012C5200225F
:0A356500E42FFFEE343CFE02212F9C
:0135D40022D4
:0135D50022D3
:1034DD001234A4123583122F2912337A1233DAD211
:0234ED00AF220C
:042B06004100A200E8
:1033DA00E49000A2F0FE7FA2FD7B017A0079001240
:0D33EA001D6C7F007E4B7D007C00022A36AA
:0300230002301197
:10301100C0E0C083C082C0D075D000C007309827FF
:10302100C2989000A0E0FF04F074002FF582E43410
:1030310000F583E599F09000A0E0C394A04002E47C
:10304100F09000A2E004F0309902C299D007D0D0EC
:07305100D082D083D0E032F1
:082B0A004101E3004101E40078
:10337A001234145389F0438901538EF79001E37490
:10338A00FAF0A374C4F0758CFAF58AD2A9D28C2209
:10341400E49001DAF09001DCF09001E0F0A3F09088
:0C34240001DBF09001DDF09001E2F022ED
:03000B000228C503
:1028C500C0E0C0F0C083C082C0D075D000C000C0D9
:1028D500069001E3E0F58CA3E0F58A9001D9740137
:1028E500F0A3E004F0C3940A4005E4F0A304F090DB
:1028F50001DCE004F0C394644005E4F0A304F09027
:1029050001DEE004F0C394F4748094814005E4F0A2
:10291500A304F09001E0E475F001121B96FEC3E5F7
:10292500F094E8EE9403400A9001E0E4F0A3F0A3EC
:1029350004F0D006D000D0D0D082D083D0F0D0E043
:01294500325F
:103311000A6D679C46F6375D4521EFAC5A50010BAB
:10332100DF020A6D679C46F6375D4521EFAC5A50C6
:04333100E10BDF02CB
:082B12004501EBCCCCCCCCCC8E
:1034A40053B3FE43B40153B3FD43B40253B1FE43DB
:0334B400B2012240
:0135D60022D2
:1033F700E4FEC290EF30E704D2808002C280EF255E
:0C340700E0FFD290000EEEB408E8C29086
:013413002296
:0434B700E4FD7FFCB5
:0F34BB00C291001233F7AF051233F700D29122FE
:0A30E3007B019001A07405F07F3F0F
:0B30ED0090019DEBF0A3EAF0A3E9F0D6
:1030F800C291E4FD1233F79001A0E0FFEDC39F50A9
:103108001A90019DE0FBA3E0FAA3E0F98D82758394
:0D31180000121AAAFF1233F70D80DCD291CD
:013125002287
:10333500E4FEC290EF30E704D2808002C280EF2520
:10334500E0FFD290000EEEB408E843B10153B2FE9F
:02335500C29024
:013357002253
:10344900E4FFFEC290EF25E0FFD2903080034401F3
:08345900FF0EEEB408EDC29075
:013461002248
:1034CA00C2910012333512344953B1FE43B201009E
:0234DA00D2918D
:0134DC0022CD
:0B31690090018BEBF0A3EAF0A3E9F06B
:10317400C291123335E4FD90018EE0FFEDC39F5000
:103184001A12344990018BE0FBA3E0FAA3E0F98D15
:1031940082758300EF121AD70D80DC53B1FE43B25F
:0331A40001D291C4
:0131A7002205
:0E350F001234B77D8E7F201234BB00000022E4
:1032EB00E4FEFD7FFC1234BB7D8F7F201234BBE4E8
:1032FB00FD7FFD1234BBE4FEFF000FBF00010EBECD
:05330B0013F7BF88F478
:01331000229A
:0A356F007F071234CAEF5470FF22E8
:0635BB007F091234CA2250
:0735B4007D707F270234BB8C
:0C354300E4FD7FE11234BB7FE20234BBE8
:0E351D00AC071234B7AF04AD077F250234BBF4
:0631260012356FEF703C52
:10312C0090018AF0A3F09001A0EDF07FA01230ED99
:10313C00E4FD7FFD1234BBE490018AF0A3F0009013
:10314C00018BE004F0700690018AE004F090018A93
:0C315C00E07004A3E064C870E51234B712
:013168002244
:10324D00AC0512356FEF30E61D1234B790018EECE0
:10325D00F07F611231691235431235B4E4FD7FFD03
:09326D001234BB7F01227F002214
:1022D000788A7C017D017BFF7A3379117E007F054E
:1022E000121A6B788F7C017D017BFF7A3379167E21
:1022F000007F03121A6B78927C017D017BFF7A3399
:1023000079197E007F06121A6B78987C017D017B1B
:10231000FF7A33791F7E007F01121A6B78997C0156
:102320007D017BFF7A3379207E007F03121A6B12C6
:1023300035D67D5A7F531234BB7DA57F531234BBF3
:102340007D207F3D1234BB1234B77FE11234BB7F56
:10235000E21234BB7D707F271234BB7D017F2212D5
:1023600034BB7D037F231234BB7D4E7F251234BBEB
:102370007D107F311234BB7B017A0179EB9001A093
:102380007405F07F301230ED7B017A0179EB90011A
:10239000A07405F07F2A1230ED7A01798A1230E3B9
:1023A0007B017A0179929001A07406F07F3A123095
:1023B000ED7B017A0179989001A07401F07F3912C8
:1023C00030ED7B017A01798F9001A07403F07F3E9C
:1023D0001230ED7B017A0179999001A07403F07FAE
:1023E0003B1230EDE4FD7F3C1234BB7D3F7F261273
:0E23F00034BBE4FD7F241234BB7F210234BBDA
:05260A009001B4EFF0A7
:10260F00E478B57C017D017BFF7A337923FE7F056A
:10261F00121A6B78BA7C017D017BFF7A3379287EA1
:10262F00007F03121A6B78BD7C017D017BFF7A332B
:10263F00792B7E007F06121A6B78C37C017D017B9C
:10264F00FF7A3379317E007F01121A6B78C47C01D7
:10265F007D017BFF7A3379327E007F03121A6B7D07
:10266F005A7F531234BB7DA57F531234BB7D207F1D
:10267F003D1234BB1234B7E4FF000000000FEFB47B
:10268F00DCF79001B4E0FD7F251234BB7D3F7F2640
:10269F001234BB7A0179B51230E37B017A0179BD2F
:1026AF009001A07406F07F3A1230ED7B017A017928
:1026BF00C39001A07401F07F391230ED7B017A01D4
:1026CF0079BA9001A07403F07F3E1230ED7B017A4E
:0E26DF000179C49001A07403F07F3B0230ED3E
:102F290053B1F743B20853B1EF43B21053B3FB4364
:102F3900B40443DE01A2AF9209C2AF75C7AA75C72F
:102F49005543910143C60875C7AA75C7555391FEE4
:102F5900A20992AF43DE2053DF3F43DF0153DFF97C
:102F690075D1FF75D9FFD2DFE4FBFAFDFCFFFE0244
:022F7900329D87
:04305800AD07AC060E
:10305C009000A3E0FF7E00121AF97C007D64121B25
:10306C000BAA06A2AF9209C2AF75C7AA75C7554382
:10307C009101A20992AFEAF5C5EFF5CDA2AF920985
:10308C00C2AF75C7AA75C7555391FEA20992AFD2AC
:01309C00DE55
:01309D002210
:04339A00AD07AC06C9
:10339E009000A3E0FF7E00121AF97C007D64121BE0
:0B33AE000BAA06EAF5D5EFF5DDD2DE34
:0133B90022F1
:0433BA00AD07AC06A9
:1033BE009000A3E0FF7E00121AF97C007D64121BC0
:0B33CE000BAA06EAF5D2EFF5DAD2DE1A
:0133D90022D1
:10329D00900192ECF0A3EDF0A3EAF0A3EBF0123065
:1032AD0058900192E0FEA3E0FF12339A900194E052
:0732BD00FEA3E0FF0233BA9B
:0935830053B3EF43B4100235CA42
:0335C700D2942279
:0335CA00C2942286
:0335CD00B2942293
:0635C100A294E433FF2296
:0A357900EF60030235C71235CA22C5
:042B1A004101E7008E
:0135D70022D1
:10212F00AB07AA06A9059001E8EFF0C3948050040D
:10213F00E4F080069001E87480F09001E5E4F0A3EC
:10214F007480F09001E8E07C002400FEEC3AA3F0EC
:10215F00A3CEF09001E5E0FEA3E0FF7003EE640173
:10216F0060369001E9E0FCA3E0F5828C83E4938F65
:10217F00828E83F09001E7E004F09001E6E004F036
:10218F0070069001E5E004F09001EAE004F070C3FE
:10219F009001E9E004F080BBAF039001E8EFF0C3DA
:1021AF009480500FE02480FEE4339001E5F0A3CE3D
:1021BF00F0800D9001E8E0FF9001E5E4F0A3EFF06F
:1021CF009001E5E0FCA3E0F5828C83E9F0AD038D8F
:1021DF00A6EAFFF5A775AEFFA2AF9209C2AF75C70A
:1021EF00AA75C755439F01A20992AFA2AF9209C228
:1021FF00AF75C7AA75C75543A501A20992AF75AFB1
:10220F0022A2AF9209C2AF75C7AA75C75543A401E1
:10221F00A20992AF9001E8EDF0C394805004E4F06E
:10222F0080069001E87480F09001E5E4F0A37480DB
:10223F00F09001E8E0F5A68FA7A2AF9209C2AF75A3
:10224F00C7AA75C755439F01A20992AFA2AF9209C2
:10225F00C2AF75C7AA75C75543A501A20992AF753D
:10226F00AF219001E5E0FEA3E0FFF44E602C8F82DA
:10227F008E83E0F5AEA2AF9209C2AF75C7AA75C73C
:10228F005543A401A20992AF05A69001E6E004F020
:10229F0070D09001E5E004F080C8A2AF9209C2AF00
:1022AF0075C7AA75C75553A5FEA20992AFA2AF92E3
:1022BF0009C2AF75C7AA75C755539FFEA20992AF42
:0122CF0022EC
:04358C008F828E8319
:03359000E493FFC2
:013593002215
:1031A80053B1BF53B2BF53B17F53B27F75985043E9
:1031B8008920438780438E1053C4DFAB07AA06A932
:1031C80005A8047F407E427D0F7C00121C4DEF0451
:0B31D800F404F58DD28ED299D2AC2207
:102A360090018A121D0353B1BF53B2BF53B17F53E6
:102A4600B27F75985043878053C4F843C4209001E1
:102A56008AE0F8A3E0F9A3E0FAA3E0FB7F407E4218
:102A66007D0F7C00121C4DC374FF9FFF74FF9EFEFA
:102A7600E49DFDE49CFC7808121CF08FC690018A48
:102A8600E0F8A3E0F9A3E0FAA3E0FB7F407E427DF5
:102A96000F7C00121C4DC374FF9FFF8FC543C408F3
:052AA600D299D2AC2220
:073594003098FDAF99C298C9
:01359B00220D
:08359C00C2998F993099FD22BC
:102B1F009001F0121D0353B1FB53B2FB53B3BF53DC
:102B2F00B4BF75F85075C40853C4DF9001F0E0F8D6
:102B3F00A3E0F9A3E0FAA3E0FB7F407E427D0F7C88
:102B4F0000121C4DC374FF9FFF74FF9EFEE49DFD9A
:102B5F00E49CFC7808121CF08FC69001F0E0F8A3FB
:102B6F00E0F9A3E0FAA3E0FB7F407E427D0F7C00FB
:0E2B7F00121C4DC374FF9FFF8FC543C4082274
:0735A40030F8FDAF9AC2F8F8
:0135AB0022FD
:0835AC00C2F98F9A30F9FD22EB
:102E1E009001F4121D03538EF7438901D28CE4FF07
:102E2E00FEFDFC9001F4E0F8A3E0F9A3E0FAA3E0C4
:102E3E00FBC3121CDF602F758A7E758CFF308DFDF3
:102E4E00C28D9001F4E0FCA3E0FDA3E0FEA3E0241C
:102E5E00FFFFEE34FFFEED34FFFDEC34FFFC90017E
:092E6E00F4121D0380B8C28C228D
:102E77009001F8121D03538EF7438901D28CE4FFAA
:102E8700FEFDFC9001F8E0F8A3E0F9A3E0FAA3E067
:102E9700FBC3121CDF602F758ACA758CFA308DFD53
:102EA700C28D9001F8E0FCA3E0FDA3E0FEA3E024BF
:102EB700FFFFEE34FFFEED34FFFDEC34FFFC900125
:092EC700F8121D0380B8C28C2230
:102ED0009001FC121D03538EEF438910D28EE4FF44
:102EE000FEFDFC9001FCE0F8A3E0F9A3E0FAA3E00A
:102EF000FBC3121CDF602F758BEA758DCB308FFD05
:102F0000C28F9001FCE0FCA3E0FDA3E0FEA3E0245F
:102F1000FFFFEE34FFFEED34FFFDEC34FFFC9001CB
:092F2000FC121D0380B8C28E22D0
:102CB200900200121D0353C9BF53C9DF43C910D28A
:102CC200CAE4FFFEFDFC900200E0F8A3E0F9A3E0F5
:102CD200FAA3E0FBC3121CDF602F75CC3075CDF870
:102CE20030CFFDC2CF900200E0FCA3E0FDA3E0FEE6
:102CF200A3E024FFFFEE34FFFEED34FFFDEC34FFD2
:0C2D0200FC900200121D0380B8C2CA221F
:102D0E00900204121D0375C40743C408E4FFFEFDC0
:102D1E00FC900204E0F8A3E0F9A3E0FAA3E0FBC301
:102D2E00121CDF603275C52C75C6CFE5C430E4FBCE
:102D3E0053C4EF900204E0FCA3E0FDA3E0FEA3E089
:102D4E0024FFFFEE34FFFEED34FFFDEC34FFFC906C
:0B2D5E000204121D0380B553C4F722CD
:102D6900900208121D0375C40743C408E4FFFEFD61
:102D7900FC900208E0F8A3E0F9A3E0FAA3E0FBC3A2
:102D8900121CDF603275C5D875C6FFE5C430E4FB97
:102D990053C4EF900208E0FCA3E0FDA3E0FEA3E02A
:102DA90024FFFFEE34FFFEED34FFFDEC34FFFC9011
:0B2DB9000208121D0380B553C4F7226E
:1023FE000A3D3D3D3D3D3D3D3D3D3D3D3D3D3D3D32
:10240E003D3D3D3D3D3D3D3D3D3D3D3D3D3D3D3DEE
:10241E003D3D3D3D3D3D3D3D3D3D3D3D3D3D3D3DDE
:10242E003D3D3D3D3D3D3D3D3D3D3D3D3D3D3D3DCE
:10243E003D3D3D3D3D000A2A2020436F7079726973
:10244E006768742863292032303135204E75766FD7
:10245E00746F6E20546563686E6F6C6F677920437E
:10246E006F72702E20416C6C2072696768747320D5
:10247E0072657365727665642E2020000A2A20200C
:10248E00436F6E7461637420452D4D61696C3A2003
:10249E004D6963726F432D38626974406E75766F45
:1024AE00746F6E2E636F6D20202020202020202040
:1024BE00202020202020202020202020202020200E
:1024CE0020000A2A202044656D6F205665727369BC
:1024DE006F6E20203A202532642E2532642E25324E
:1024EE0064000A2A202046696E6973686564204478
:1024FE00617465203A202532642E2532642E2532F1
:02250E00640067
:102C53007BFF7A2379FE121E357BFF7A2479441297
:102C63001E357BFF7A24798A121E357BFF7A2479FD
:102C7300D0900165E4F0A304F0E4A3F0A3F0A3F083
:102C8300A3F0121E357BFF7A2479F0900165740757
:102C9300F0A374DFF0A3E4F0A37405F0A3E4F0A3BE
:0F2CA300741FF0121E357BFF7A2379FE021E3557
:030000000227A232
:1027A200787FE4F6D8FD9000007FFF7E03E4F0A37B
:0A27B200DFFCDEFA7581210227F733
:1027BC0002309EE493A3F8E493A34003F68001F265
:1027CC0008DFF48029E493A3F85407240CC8C3331E
:1027DC00C4540F4420C8834004F456800146F6DFED
:1027EC00E4800B0102040810204080902AABE47EA8
:1027FC00019360BCA3FF543F30E509541FFEE493E2
:10280C00A360010ECF54C025E060A840B8E493A3A8
:10281C00FAE493A3F8E493A3C8C582C8CAC583CAD3
:10282C00F0A3C8C582C8CAC583CADFE9DEE780BE8B
:012B1E0000B6
:10199B00E709F608DFFA8046E709F208DFFA803E2E
:1019AB0088828C83E709F0A3DFFA8032E309F6081B
:1019BB00DFFA8078E309F208DFFA807088828C8383
:1019CB00E309F0A3DFFA806489828A83E0A3F60837
:1019DB00DFFA805889828A83E0A3F208DFFA804C11
:1019EB0080D280FA80C680D4806980F280338010E8
:1019FB0080A680EA809A80A880DA80E280CA803351
:101A0B0089828A83ECFAE493A3C8C582C8CCC583C8
:101A1B00CCF0A3C8C582C8CCC583CCDFE9DEE78098
:101A2B000D89828A83E493A3F608DFF9ECFAA9F017
:101A3B00EDFB2289828A83ECFAE0A3C8C582C8CC6D
:101A4B00C583CCF0A3C8C582C8CCC583CCDFEADE86
:101A5B00E880DB89828A83E493A3F208DFF980CCE8
:101A6B0088F0EF60010E4E60C388F0ED2402B404E1
:101A7B000050B9F582EB2402B4040050AF23234588
:061A8B0082239019EB73A9
:101A9100BB010689828A83E0225002E722BBFE0253
:091AA100E32289828A83E4932286
:101AAA00BB010CE58229F582E5833AF583E02250F1
:101ABA0006E92582F8E622BBFE06E92582F8E2223B
:0D1ACA00E58229F582E5833AF583E4932255
:101AD700F8BB010DE58229F582E5833AF583E8F045
:101AE700225006E92582C8F622BBFE05E92582C8F1
:021AF700F222D9
:101AF900EF8DF0A4A8F0CF8CF0A428CE8DF0A42E01
:021B0900FE22BA
:101B0B00BC000BBE0029EF8DF084FFADF022E4CCBE
:101B1B00F875F008EF2FFFEE33FEEC33FCEE9DEC87
:101B2B00984005FCEE9DFE0FD5F0E9E4CEFD22EDCD
:101B3B00F8F5F0EE8420D21CFEADF075F008EF2F17
:101B4B00FFED33FD4007985006D5F0F222C398FD08
:051B5B000FD5F0EA22A5
:101B6000C2D5EC30E709B2D5E4C39DFDE49CFCEEA0
:101B700030E715B2D5E4C39FFFE49EFE121B0BC3F2
:101B8000E49DFDE49CFC8003121B0B30D507C3E4ED
:061B90009FFFE49EFE220F
:101B9600C5F0F8A3E028F0C5F0F8E58215827002DA
:061BA6001583E038F02277
:101BAC00A3F8E0C5F025F0F0E582158270021583EC
:061BBC00E0C838F0E82249
:101BC200E88FF0A4CC8BF0A42CFCE98EF0A42CFCC2
:101BD2008AF0EDA42CFCEA8EF0A4CDA8F08BF0A440
:101BE2002DCC3825F0FDE98FF0A42CCD35F0FCEB9F
:101BF2008EF0A4FEA9F0EB8FF0A4CFC5F02ECD3964
:0F1C0200FEE43CFCEAA42DCE35F0FDE43CFC22D0
:101C110075F008758200EF2FFFEE33FECD33CDCC8A
:101C210033CCC58233C5829BED9AEC99E58298400D
:101C31000CF582EE9BFEED9AFDEC99FC0FD5F0D6EA
:101C4100E4CEFBE4CDFAE4CCF9A88222B800C1B914
:101C51000059BA002DEC8BF084CFCECDFCE5F0CB52
:101C6100F97818EF2FFFEE33FEED33FDEC33FCEB8B
:101C710033FB10D703994004EB99FB0FD8E5E4F946
:101C8100FA227818EF2FFFEE33FEED33FDEC33FC33
:101C9100C933C910D7059BE99A4007EC9BFCE99A27
:101CA100F90FD8E0E4C9FAE4CCFB2275F010EF2F6C
:101CB100FFEE33FEED33FDCC33CCC833C810D7076C
:101CC1009BEC9AE899400AED9BFDEC9AFCE899F8A7
:0E1CD1000FD5F0DAE4CDFBE4CCFAE4C8F9223A
:101CDF00EB9FF5F0EA9E42F0E99D42F0E89C45F05B
:011CEF0022D2
:101CF000E8600FECC313FCED13FDEE13FEEF13FFD2
:031D0000D8F122F5
:0C1D0300ECF0A3EDF0A3EEF0A3EFF02253
:101D0F00A8828583F0D083D082121D26121D261241
:101D1F001D26121D26E473E493A3C583C5F0C58366
:101D2F00C8C582C8F0A3C583C5F0C583C8C582C81E
:011D3F002281
:101D4000D083D082F8E4937012740193700DA3A332
:101D500093F8740193F5828883E473740293686046
:061D6000EFA3A3A380DF46
:061D66008A838982E47308
:101DCA00E5082465F582E43401F583E005082290EC
:101DDA000162300703900165E475F001121DAA0241
:101DEA001A912000E97F2ED2008018EF540F249018
:101DFA00D43440D4FF30040BEF24BFB41A0050038C
:101E0A002461FFE50960021509050CE50C7002055D
:101E1A000B30070E900162E475F001121DAAEF0261
:101E2A001D980232C47403D2078003E4C207F5087E
:101E3A00900162121DC1E4F509F50BF50CE5096084
:101E4A00077F20121E0D80F5750AFFC201C200C26B
:101E5A0002C203C205C206C208121DD9FF700D30A4
:101E6A0007057F00121E1EAF0CAE0B22B4255FC2FF
:101E7A00D5C204121DD9FF24D0B40A00501A75F035
:101E8A000A780930D50508B6FF0106C6A426F62049
:101E9A00D5047002D20380D924CFB41A00EF5004BB
:101EAA00C2E5D20402201FD20180C6D20080C0D26D
:101EBA000280BCD2D580BAD20580B47F20121E0D12
:101ECA002002077401B5090040F1121DCAFF121E53
:101EDA000D021E47D208D2068095121DCAFB121D9A
:101EEA00CAFA121DCAF94A4B700679F07A207BFFAA
:101EFA0020022EE509602A7E008E82758300121A5E
:101F0A00AA60060EEE650A70F0C2D5EBC0E0EAC020
:101F1A00E0E9C0E0EE122066D0E0F9D0E0FAD0E0C5
:101F2A00FB121A91FF60AAEBC0E0EAC0E0E9C0E048
:101F3A00121E0DD0E02401F9D0E03400FAD0E0FB03
:101F4A00E50A0460DCD50AD980877BFF7A207962AA
:101F5A00D202809C791080027908C206C2088008E1
:101F6A00D2D5790A8004790AC2D5E50A047002F545
:101F7A000AE4FAFDFEFF121DCAFC7B0820011312B7
:101F8A001DCAFD7B1030000A121DCAFE121DCAFFAF
:101F9A007B20EC3382D592D55013C3E43000069FE0
:101FAA00FFE49EFEE42001039DFDE49CFCE4CBF8E3
:101FBA00C201EC700CCFCECDCCE824F8F870F380D7
:101FCA0017C3EF33FFEE33FEED33FDEC33FCEB3397
:101FDA00FB994002FB0FD8E9EB300105F8D0E0C4C9
:101FEA0048B201C0E00AEC4D4E4F78207B0070C227
:101FFA00EAB50A0040BCC0E0122068D0F0D0E02068
:10200A000104C4C0E0C4B201C0F0121DF6D0F0D57C
:10201A00F0EB021E47121D401EE4531F5E581EB508
:10202A004C1EB1421F624F1F6A441F6A491ECA43AF
:08203A001F70551F54461F548E
:10204200451F54472110501EB92D1EBD2E1EE02BD8
:102052001EC1231EDE2020F92A1E794800001ED848
:102062003F3F3F00790AA2D5200314300509B91079
:10207200020404B9080104A2D5200602500104207A
:1020820002689202B509005034C0E07F2030031983
:102092007F30A20272067205500F1220BFC202C226
:1020A20006C205C2087F30800F300503E9C0E01286
:1020B2001E0D300503D0E0F9D0E0B509CC3005178C
:1020C2007F30B9100C121E0D7F583004077F7880C4
:1020D20003B90803121E0D3002057F2D021E0D7F6B
:1020E200202008F87F2B2006F322920280CF286E50
:1020F200756C6C2900D201121DCA3001F8C2017838
:102102000930D50108F6021E792D50434958121D97
:10211200CA2403B405004001E490210B93121DFE72
:0D212200743A121DFED203750904021F5EFF
:0C354F00EE30E707C3E49FFFE49EFE227D
:101D6C00EF4E6012EF60010EEDBB010B89828A838E
:101D7C00F0A3DFFCDEFA2289F05007F709DFFCA99B
:0C1D8C00F022BBFEFCF309DFFCA9F022F2
:101D9800BB010689828A83F0225002F722BBFE012A
:021DA800F32224
:101DAA00F8E0FBA3A3E0F925F0F0E58215827002C2
:071DBA001583E0FA38F02266
:091DC100EBF0A3EAF0A3E9F02223
:1032C400EFB40A07740D1232CF740A309811A8991A
:1032D400B8130CC2983098FDA899C298B811F6306A
:0732E40099FDC299F5992242
:00000001FF
