:042EA30041022500C3
:102BD50012000E123D5E123985123D5A123B7D12CE
:102BE500340F9001E5E06060E4F0900225E004F028
:102BF5009000A5E0FFC394324027EF24CEFFE434D4
:102C0500FFFE7C007D05121E53EF240AFFE43EFE05
:102C1500900225E0D39FEE6480F874809840298067
:102C2500229000A5E0FFC374329FFFE49400FE7C70
:102C3500007D0A121E53C3740A9FFF900225E0D33C
:102C45009F4005E4F012144E9001E7E06005E4F0C2
:102C5500123B499001E9E06008E4F01200261234C5
:102C6500B39001EBE06002E4F09001EEE06002E475
:102C7500F0123AF6900191EFF07003022BE7E02491
:102C8500FC602524036003022BE7900222E0FF305D
:102C9500E30954F7F0123B2E022BE7900222E044A1
:0E2CA50008F0123C36022BE7123D57022BE7D7
:013D5A002246
:013D5B002245
:013D5C002244
:013D5D002243
:063D2D009001DF0221807D
:063D33009001E202218074
:0E3C45009001DF122160E94A60031221CF22B4
:0E3C53009001E2122160E94A60031221CF22A3
:1038F800EF4E602D9001D5EEF0A3EFF0AF05A3ECED
:10390800F0A3EFF0AF03A3EAF0A3EFF0E4A3F0A372
:10391800F0A3F0A3F09001D4F09001D304F0123C8E
:02392800452236
:103BC300E49001D3F0123C537B007A007900123D5C
:043BD3002D023D334F
:102CB3009001D3E07003022D679001D7E0FEA3E0FB
:102CC300FF4E7003022D679001D4E07035D3EF946B
:102CD30000EE94005003022D679001DBE475F001D0
:102CE300121EDEFED39001D6E095F09001D5E09E52
:102CF3005072123C53E49001DBF0A3F09001D40432
:102D0300F0229001D4E06401705A9001DB75F00168
:102D1300121EDEFED39001D8E095F09001D7E09E1D
:102D230050429001D9E0FEA3E0FF9400EE940040EE
:102D3300259001DDE475F001121EDEFCD3EF95F062
:102D4300EE9C5005E49001D3F09001D3E07007901E
:102D530001D7F0A3F022E49001DBF0A3F09001D4BB
:052D6300F0123C4522C6
:102EA70041015000500151000000000000000000E7
:102EB700000000000000005001400000000000007A
:102EC7000000000000000000000048016100000051
:052ED7000000000000F6
:10398500E4900150F0FE7F10FD7B017A0179511220
:1039950021D57E007F107D007B017A0179401221BF
:0739A500D51226D30239D32D
:0A2FA90004F07B017A017940E0FD9D
:0B2FB30090019912218090019CEDF02C
:102FBE00E4FFFE0000000FBF00010EEF64144E7020
:102FCE00F2123C619001507401F0E4FEFF0000002B
:102FDE00000FBF00010EEF64C84E70F19001991200
:102FEE00216074019001406B7008E965827003EAFC
:102FFE00658360257E007F107D007B017A0179401C
:10300E001221D590019CE0FF7E0078407C017D016D
:09301E00900199122160121D803D
:013027002286
:060BE90090019212218030
:100BEF00E4900195F0A3F0A3F0A3F0121DA664F218
:100BFF00600302144D900192122160900001121DAA
:100C0F00BFD39410400302144DE4900196F090016D
:100C1F0092122160900001121DBF2401FFE433FEE8
:100C2F00900196E0FDC39FEE6480F8748098502386
:100C3F00ED2401FFE433FE9001921221608F828E2A
:100C4F0083121DBFFF900198E02FF0900196E004F2
:100C5F00F080BB900192122160900001121DBFF530
:100C6F0082758300A3A3121DBFFF900198E06F60F0
:100C7F000302144D7E007F107D007B017A017940C5
:100C8F001221D5E4900197F090019212216090000B
:100C9F0002121DBF1221A90CF8010EC7020F760315
:100CAF00115B04115D05115F061161071170080DCD
:100CBF00D209117F50119D5111BB5211CA5311EC22
:100CCF0054131655131C56133757134F58135D5A99
:100CDF0013635B13825D13955E118E7011AC7111EE
:100CEF005B731025B900001444900222E0FF20E04E
:100CFF000302118E30E10854FDF0123C36800A9049
:100D0F000222E04402F0123B2E900197E0FF04F024
:100D1F0074402FF582E43401F58374F8F090019755
:100D2F00E0FF04F074402FF582E43401F583740A78
:100D3F00F0900197E0FF04F074402FF582E4340146
:100D4F00F5837401F0900221E0C313A3E013540163
:100D5F00FF900197E0FE04F074402EF582E4340119
:100D6F00F583EFF0900197E02440F9E43401FA7B2A
:100D7F00017D0812392A900197E02408F0E49001D0
:100D8F0096F0900141E02401FFE433FE900196E0DC
:100D9F00FDC39FEE6480F8748098502474412DF544
:100DAF0082E43401F583E0FF900197E02440F5825F
:100DBF00E43401F583E02FF0900196E004F080C257
:100DCF0002130C900192122160900003121DBFB408
:100DDF000105123D5180269001921221609000036F
:100DEF00121DBFB40205123D5480129001921221C0
:100DFF0060900003121DBFB40303123D579001977B
:100E0F00E0FF04F074402FF582E43401F58374F8A9
:100E1F00F0900197E0FF04F074402FF582E4340165
:100E2F00F5837402F0900192122160900002121D5E
:100E3F00BFFF900197E0FE04F074402EF582E4347A
:100E4F0001F583EFF0123D3FEF9001976013E0FF44
:100E5F0004F074402FF582E43401F5837401F080BF
:100E6F0011E0FF04F074402FF582E43401F5837430
:100E7F0002F0E4900196F0900141E02401FFE43389
:100E8F00FE900196E0FDC39FEE6480F87480984059
:100E9F000302144474412DF582E43401F583E0FF1D
:100EAF00900197E02440F582E43401F583E02FF0C0
:100EBF00900196E004F080BF900222E0FF20E00353
:100ECF0002119D30E103021444123B95900197E00B
:100EDF00FF04F074402FF582E43401F58374F8F0C9
:100EEF00900197E0FF04F074402FF582E43401F590
:100EFF00837409F0900197E0FF04F074402FF5829E
:100F0F00E43401F5837402F0900197E02440F9E492
:100F1F003401FA7B017D0812392A900197E02408E9
:100F2F00F0E4900196F0900141E02401FFE433FEDC
:100F3F00900196E0FDC39FEE6480F8748098502472
:100F4F0074412DF582E43401F583E0FF900197E0C1
:100F5F002440F582E43401F583E02FF0900196E010
:100F6F0004F080C202130C900222E0FF20E0030283
:100F7F0011CA30E103021444123BAD900197E0FF18
:100F8F0004F074402FF582E43401F58374F8F09087
:100F9F000197E0FF04F074402FF582E43401F583EC
:100FAF007409F0900197E0FF04F074402FF582E48C
:100FBF003401F5837403F0900197E02440F9E43491
:100FCF0001FA7B017D0812392A900197E02408F07D
:100FDF00E4900196F0900141E02401FFE433FE908C
:100FEF000196E0FDC39FEE6480F8748098502474DE
:100FFF00412DF582E43401F583E0FF900197E02461
:10100F0040F582E43401F583E02FF0900196E0047F
:10101F00F080C202130C900222E030E00554FEF083
:10102F008007900222E04401F0900197E0FF04F066
:10103F0074402FF582E43401F58374F8F090019732
:10104F00E0FF04F074402FF582E43401F583740B54
:10105F00F0900197E0FF04F074402FF582E4340123
:10106F00F58374B9F0900221E0FEA3E0FF5401FD77
:10107F00900197E0FC04F074402CF582E43401F504
:10108F0083EDF0EEC313EF135401FF900197E0FED1
:10109F0004F074402EF582E43401F583EFF09001F3
:1010AF0097E02440F9E43401FA7B017D0812392AD4
:1010BF00E4900196F0900196E0FFC394085040A38E
:1010CF00E0FE2440F582E43401F583E5822FF582BA
:1010DF00E43583F583E06003B4FF1C900196E0FFD5
:1010EF0074402EF582E43401F583E5822FF582E416
:1010FF003583F5837420F0900196E004F080B6906C
:10110F000197E02408F0E4900196F0900141E0246B
:10111F0001FFE433FE900196E0FDC39FEE6480F87B
:10112F00748098502474412DF582E43401F583E0E6
:10113F00FF900197E02440F582E43401F583E02F1E
:10114F00F0900196E004F080C202130C807C804D79
:10115F00805A7B007A007900E490019DF07F078030
:10116F00767B007A007900E490019DF07F0880671C
:10117F007B007A007900E490019DF07F0880587B16
:10118F00007A007900E490019DF07F0180497B0097
:10119F007A007900E490019DF07F02803A7B007A1B
:1011AF00007900E490019DF07F05802B7B007A0091
:1011BF007900E490019DF07F06801C7B007A007916
:1011CF0000E490019DF07F03800D7B007A00790091
:1011DF00E490019DF07F041229130214449002221F
:1011EF00E0FF30E10854FDF0123C36800A900222F5
:1011FF00E04402F0123B2E900197E0FF04F07440A0
:10120F002FF582E43401F58374F8F0900197E0FF35
:10121F0004F074402FF582E43401F583740AF090E2
:10122F000197E0FF04F074402FF582E43401F58359
:10123F007401F0900221E0C313A3E0135401FF9057
:10124F000197E0FE04F074402EF582E43401F5833B
:10125F00EFF0900197E02440F9E43401FA7B017D2F
:10126F000812392AE4900196F0900196E0FFC3949A
:10127F00085040A3E0FE2440F582E43401F583E5F5
:10128F00822FF582E43583F583E06003B4FF1C9071
:10129F000196E0FF74402EF582E43401F583E58278
:1012AF002FF582E43583F5837420F0900196E004E6
:1012BF00F080B6900197E02408F0E4900196F0904A
:1012CF000141E02401FFE433FE900196E0FDC39F4E
:1012DF00EE6480F8748098502474412DF582E434C4
:1012EF0001F583E0FF900197E02440F582E434019B
:1012FF00F583E02FF0900196E004F080C290019703
:10130F00E0122FA9021444123BAD0214449000A521
:10131F00E0D394644003021444E0240AF0E0C39441
:10132F006450030214448045900222E0FF30E2062D
:10133F0054FBF0021444900222E04404F0021444DF
:10134F009000A5E0C3940A50030214448031123B6D
:10135F00950214449000A4E0D39464400302144413
:10136F00E0240AF0E0C3946450030214447464F060
:10137F000214449000A4E0C3940A5003021444E002
:10138F0024F6F0021444123D57900197E0FF04F049
:10139F0074402FF582E43401F58374F8F0900197CF
:1013AF00E0FF04F074402FF582E43401F5837402FA
:1013BF00F0900197E0FF04F074402FF582E43401C0
:1013CF00F5837409F0123D3FEF9001976013E0FF32
:1013DF0004F074402FF582E43401F5837401F0803A
:1013EF0011E0FF04F074402FF582E43401F58374AB
:1013FF0002F0E4900196F0900141E02401FFE43304
:10140F00FE900196E0FDC39FEE6480F874809850C3
:10141F002474412DF582E43401F583E0FF900197A8
:10142F00E02440F582E43401F583E02FF09001963B
:0E143F00E004F080C2900197E06003122FA934
:01144D00227C
:1034B300900150E06031123CDBEF24F0601824D01F
:1034C300601224207016123CA4123D18E49001509F
:1034D300F00239D38000123CA4023D187B017A012B
:1034E30079407D100237DD7B017A0179517D10121D
:0F34F300395CEF60097B017A017951120BE922F4
:102EDC004101A9004101AA004101AE004101AF002E
:102EEC004201AB00004101AD005001B000000000F8
:0C2EFC00000000000000000000000000CA
:103B7D00E49001A9F0A3F09001AEF0FE7FA2FD7BD1
:083B8D00017A0079000221D544
:1029130090019A122180E49001A9F0E0FE04F07482
:10292300B02EF582E43401F5837455F09001A9E0EB
:10293300FE04F074B02EF582E43401F58374AAF03A
:1029430090019DE004FE9001A9E0FD04F074B02D18
:10295300F582E43401F583EEF09001A9E0FE04F082
:1029630074B02EF582E43401F583EFF0E49001AE08
:10297300F090019DE0FF9001AEE0FEC39F502A90CE
:10298300019A1221608E82758300121DBFFE900191
:10299300A9E0FD04F074B02DF582E43401F583EE73
:1029A300F09001AEE004F080C87B017A0179B0EFCA
:1029B3002404FD12335F9001A9E0FE04F074B02EED
:1029C300F582E43401F583EFF0E49001AEF0900179
:1029D3009DE02405FFE433FE9001AEE0FDC39FEECE
:1029E3006480F8748098501774B02DF582E4340134
:1029F300F583E0FF123D009001AEE004F080CF22AA
:100026009000A2E07003020BE814F09000A0E02418
:10003600A0FFE433FEA3E0FBFDC3EF9DFFEE9400BB
:10004600FE7C007DA0121E53EDC3940440D27400C2
:100056002BF582E43400F583E064556003020BD48B
:100066009000A1E07A002401FFEA33FE7C007DA027
:10007600121EA874002DF58274003CF583E064AA74
:100086006003020BD4EB2402FFEA33FE7C007DA062
:10009600121EA874002DF58274003CF583E09001D1
:1000A600AAF09000A0E024A0FFE433CFC39BCF9A30
:1000B600FE7C007DA0121EA89001AAE02404FFE4A5
:1000C60033FEC3ED9FEE6480F8EC64809850030223
:1000D6000BDA9000A1E0FF2400F9E43400FA7B017A
:1000E6009001AAE02403FD90019AEFF0A374A0F01A
:1000F600123028AB079001AAE0FF9000A1E02FFF85
:10010600E433CF2403CF3400FE7C007DA0121EA86A
:1001160074002DF58274003CF583E06B6003020BDE
:10012600D4E49001A9F0FE7F10FD7B017A017940AD
:100136001221D59000A1E0FB7A002403FFEA33FEEA
:100146007C007DA0121EA874002DF58274003CF57B
:1001560083E01221A9018F1203863104603308D28D
:1001660034054A35062436070E3702AC3807F841FF
:1001760009C5540AAA570AC1620B26630B4C640BC5
:090186006E650B906600000BBED3
:10018F00E4900192F0A3F0EB240CFFE43AFE7C0024
:10019F007DA0121EA874002DF58274003CF583E03B
:1001AF00FF7E00900192EEF0A3EFF0C39415EE9452
:1001BF00004003020BBE900192E07002A3E0702892
:1001CF009001AD7414F0E4A3F09001ADE0FFA3E053
:1001DF00FEC39F5013EE75F080A4FFAEF0123CC724
:1001EF009001AEE004F080E19000A1E0240DFFE467
:1001FF0033FE7C007DA0121EA874002DF5827400C2
:10020F003CF583E0540FFF9001ABE4F0A3EFF0E473
:10021F009001AEF09001ABE0FEA3E0FF7C007D0DFE
:10022F00121E41EF240AFFE43EFE9001AEE0FBC335
:05023F009FEC9E504BF6
:10024400900192E0FEA3E0FF7D72121E41EBFD2FB0
:10025400FFEC3EFEA3F0A3EFF0C006C0079000A1A0
:10026400E02404FFE433CF2DCF3CFE7DA0121EA872
:1002740074002DF58274003CF583E0FDD007D006B0
:03028400123CD158
:100287009001AEE004F08094900192A3E09001AD5C
:10029700F07B017A0179AD90019D7401F07F121214
:0202A700291319
:1002A900020BBE9001A9E0FF04F074402FF582E42F
:1002B9003401F58374F8F09001AAE0FF9001A9E0F8
:1002C900FE04F074402EF582E43401F583EFF090DA
:1002D90001A9E0FF04F074402FF582E43401F583AD
:1002E9007438F0E49001AEF09001AAE014FF900197
:1002F900AEE0FEC39F50409000A1E02404FDE4332A
:10030900FCEE7E002DFFEE3CFE7C007DA0121EA8B7
:1003190074002DF58274003CF583E0FF9001A9E09B
:10032900FE04F074402EF582E43401F583EFF09079
:1003390001AEE004F080B1E49001AEF0900141E03B
:100349002401FFE433FE9001AEE0FDC39FEE64801B
:10035900F8748098502474412DF582E43401F583B2
:10036900E0FF9001A9E02440F582E43401F583E03F
:100379002FF09001AEE004F080C2020A969001A924
:10038900E0FF04F074402FF582E43401F58374F83A
:10039900F09001AAE0FF9001A9E0FE04F074402E5C
:1003A900F582E43401F583EFF09001A9E0FF04F050
:1003B90074402FF582E43401F5837431F0E490013F
:1003C900AEF09001AAE014FF9001AEE0FEC39F5089
:1003D900409000A1E02404FDE433FCEE7E002DFFF3
:1003E900EE3CFE7C007DA0121EA874002DF58274DF
:1003F900003CF583E0FF9001A9E0FE04F074402E73
:10040900F582E43401F583EFF09001AEE004F08069
:10041900B1E49001AEF0900141E02401FFE433FE24
:100429009001AEE0FDC39FEE6480F874809850247B
:1004390074412DF582E43401F583E0FF9001A9E0D0
:100449002440F582E43401F583E02FF09001AEE019
:1004590004F080C2020A969001A9E0FF04F07440FA
:100469002FF582E43401F58374F8F09001AAE0FFD6
:100479009001A9E0FE04F074402EF582E43401F500
:1004890083EFF09001A9E0FF04F074402FF582E4B6
:100499003401F5837433F0E49001AEF09001AAE0E1
:1004A90014FF9001AEE0FEC39F50409000A1E024EC
:1004B90004FDE433FCEE7E002DFFEE3CFE7C007D66
:1004C900A0121EA874002DF58274003CF583E0FF8C
:1004D9009001A9E0FE04F074402EF582E43401F5A0
:1004E90083EFF09001AEE004F080B1E49001AEF04A
:1004F900900141E02401FFE433FE9001AEE0FDC329
:100509009FEE6480F8748098502474412DF582E43C
:100519003401F583E0FF9001A9E02440F582E43439
:1005290001F583E02FF09001AEE004F080C2900164
:10053900A9E004F0900222E030E003020BBE0209B8
:10054900B99001A9E0FF04F074402FF582E4340169
:10055900F58374F8F09001AAE0FF9001A9E0FE0488
:10056900F074402EF582E43401F583EFF09001A98F
:10057900E0FF04F074402FF582E43401F58374350B
:10058900F0E49001AEF09001AAE014FF9001AEE012
:10059900FEC39F50409000A1E02404FDE433FCEE2B
:1005A9007E002DFFEE3CFE7C007DA0121EA874008B
:1005B9002DF58274003CF583E0FF9001A9E0FE046B
:1005C900F074402EF582E43401F583EFF09001AE2A
:1005D900E004F080B1E49001AEF0900141E0240123
:1005E900FFE433FE9001AEE0FDC39FEE6480F87432
:1005F9008098502474412DF582E43401F583E0FF9D
:100609009001A9E02440F582E43401F583E02FF05C
:100619009001AEE004F080C2020A969001A9E0FFC1
:1006290004F074402FF582E43401F58374F8F090F6
:1006390001AAE0FF9001A9E0FE04F074402EF582C2
:10064900E43401F583EFF09001A9E0FF04F0744070
:100659002FF582E43401F5837436F0E49001AEF0AD
:100669009001AAE014FF9001AEE0FEC39F504090B4
:1006790000A1E02404FDE433FCEE7E002DFFEE3CF6
:10068900FE7C007DA0121EA874002DF58274003C2A
:10069900F583E0FF9001A9E0FE04F074402EF58295
:1006A900E43401F583EFF09001AEE004F080B1E4A9
:1006B9009001AEF0900141E02401FFE433FE900186
:1006C900AEE0FDC39FEE6480F874809850247441B5
:1006D9002DF582E43401F583E0FF9001A9E024407F
:1006E900F582E43401F583E02FF09001AEE004F0E7
:1006F90080C29001A9E004F0900222E030E00302F8
:100709000BBE0209B99001A9E0FF04F074402FF56E
:1007190082E43401F58374F8F09001AAE0FF9001B6
:10072900A9E0FE04F074402EF582E43401F583EF6C
:10073900F09001A9E0FF04F074402FF582E4340140
:10074900F5837437F0E49001AEF09001AAE014FF4C
:100759009001AEE0FEC39F50409000A1E02404FD4B
:10076900E433FCEE7E002DFFEE3CFE7C007DA01202
:100779001EA874002DF58274003CF583E0FF9001FA
:10078900A9E0FE04F074402EF582E43401F583EF0C
:10079900F09001AEE004F080B1E49001AEF0900178
:1007A90041E02401FFE433FE9001AEE0FDC39FEE7A
:1007B9006480F8748098502474412DF582E43401E2
:1007C900F583E0FF9001A9E02440F582E43401F5C6
:1007D90083E02FF09001AEE004F080C29001A9E01F
:1007E90004F0900222E030E003020BBE0209B99046
:1007F90001A9E0FF04F074402FF582E43401F58388
:1008090074F8F09001AAE0FF9001A9E0FE04F074E9
:10081900402EF582E43401F583EFF09001A9E0FF61
:1008290004F074402FF582E43401F5837441F0E457
:100839009001AEF09001AAE014FF9001AEE0FEC372
:100849009F50409000A1E02404FDE433FCEE7E00BB
:100859002DFFEE3CFE7C007DA0121EA874002DF534
:100869008274003CF583E0FF9001A9E0FE04F07476
:10087900402EF582E43401F583EFF09001AEE004F7
:10088900F080B1E49001AEF0900141E02401FFE471
:1008990033FE9001AEE0FDC39FEE6480F87480984A
:1008A900502474412DF582E43401F583E0FF900171
:1008B900A9E02440F582E43401F583E02FF09001AA
:1008C900AEE004F080C2020A969001A9E0FF04F0AC
:1008D90074402FF582E43401F58374F8F09001AA8D
:1008E900E0FF9001A9E0FE04F074402EF582E434A3
:1008F90001F583EFF09001A9E0FF04F074402FF5B2
:1009090082E43401F5837434F0E49001AEF090018F
:10091900AAE014FF9001AEE0FEC39F50409000A1F1
:10092900E02404FDE433FCEE7E002DFFEE3CFE7C6A
:10093900007DA0121EA874002DF58274003CF58379
:10094900E0FF9001A9E0FE04F074402EF582E43442
:1009590001F583EFF09001AEE004F080B1E490017D
:10096900AEF0900141E02401FFE433FE9001AEE0D6
:10097900FDC39FEE6480F8748098502474412DF56E
:1009890082E43401F583E0FF9001A9E02440F58277
:10099900E43401F583E02FF09001AEE004F080C269
:1009A9009001A9E004F0900222E030E003020BBEBE
:1009B9007B017A0179409001A9020AA2900222E002
:1009C900FF30E10854FDF0123C36800A900222E023
:1009D9004402F0123B2E9001A9E0FF04F074402F6D
:1009E900F582E43401F58374F8F09001A9E0FF047D
:1009F900F074402FF582E43401F583740AF0900114
:100A0900A9E0FF04F074402FF582E43401F5837402
:100A190001F0900221E0C313A3E0135401FF9001F8
:100A2900A9E0FE04F074402EF582E43401F583EF69
:100A3900F09001A9E02440F9E43401FA7B017D0832
:100A490012392A9001A9E02408F0E49001AEF0904F
:100A59000141E02401FFE433FE9001AEE0FDC39FB4
:100A6900EE6480F8748098502474412DF582E43442
:100A790001F583E0FF9001A9E02440F582E4340107
:100A8900F583E02FF09001AEE004F080C29001A957
:100A9900E004F07B017A017940E0FD122FB3020BEB
:100AA900BE900222E030E20654FBF0020BBE900237
:100AB90022E04404F0020BBE9000A1E0FB7A00247E
:100AC90004FFEA33FE7C007DA0121EA874002DF5F8
:100AD9008274003CF583E0FFC007EB2405FFEA338D
:100AE900FE7C007DA0121EA874002DF58274003CC6
:100AF900F583E0FDC0059000A1E02406FFE433FE84
:100B09007C007DA0121EA874002DF58274003CF5AE
:100B190083E0FBD005D007123757020BBE9000A126
:100B2900E02404FFE433FE7C007DA0121EA87400BB
:100B39002DF58274003CF583E0FF9000A4F0123A91
:100B4900DA80729000A1E02404FFE433FE7C007D8A
:100B5900A0121EA874002DF58274003CF583E09064
:100B690000A5F080509000A1E02404FFE433FE7C4E
:100B7900007DA0121EA874002DF58274003CF58337
:070B8900E0FF1230A6802EF0
:100B90009000A1E02404FFE433FE7C007DA0121E3F
:100BA000A874002DF58274003CF583E0900192F06A
:0E0BB000E0FFC4540F7007EF540FFF123CE536
:100BBE009001AAE02404FF9000A1E02FF0E075F070
:100BCE00A084E5F0F0229000A1E004F09000A1E0F6
:0B0BDE0075F0A084E5F0F00200262274
:10335F0090019E122180AE05E4900223F0AF061E6D
:10336F00EF6040900223E0FF90019EE475F00112A0
:10337F002169121DA66F900223F0E4A3F09002249E
:10338F00E0C3940850D7900223E030E007C31364E2
:10339F008CF08007900223E0C313F0900224E00426
:0933AF00F080DA900223E0FF2215
:10302800900196122180AE05E4900223F0AF061EAF
:10303800EF6065900223E0FF900196E475F00112BD
:103048002169121DA66F900223F090019AE004F006
:10305800A3E0FF90019AE0C39F4012E4F0EFFDE483
:103068009DFDE494009001978DF0121EDEE490021D
:1030780024F0900224E0C3940850B2900223E03078
:10308800E007C313648CF08007900223E0C313F0B9
:0E309800900224E004F080DA900223E0FF2290
:0B2F08004100A3004401240000000071
:10340F00900222E04408F07E007F067D007B017A67
:10341F0001791E1221D57E007F017D007B017A018B
:10342F0079351221D57E007F727D007B017A00797C
:10343F00AC1221D57E007F087D007B017A0079A434
:10344F001221D59000A47464F0A37432F0E4FF024B
:02345F0030A695
:103B9500900135E0600414F080069001357415F04D
:083BA500900135E0FF0230A69B
:103BAD00900135E004F0E0C394164002E4F090017A
:063BBD0035E0FF0230A616
:10392A00900199122180EDD39408400C7B007A0013
:10393A007900900199022180AF057E0090019912C9
:10394A002160A801AC02AD037B017A0079AC121D9B
:02395A008022C9
:0F3C3600900222E04408F0900135E0FF0230A632
:103B2E00900222E054F7F0E490012FF0900133F070
:0B3B3E00A3F0FBFAFDFCFFFE022A03CF
:1032AB00900197EFF02401FFE433FE9000B5E0545A
:1032BB000FB50714E4B50610900197F0E075F00D0B
:1032CB00A424B6F97400800D900197E075F00DA45D
:1032DB0024C3F9740035F0FA7B0178287C017D0159
:1032EB007E007F0D121D8078367C017D017B017A7B
:0A32FB000079AC7E007F0A021D80FE
:1030A600900199EFF0FBE490011EF0A31221260097
:1030B6000000009001237432F0EBC3941540089091
:1030C60001357415F08008900199E0900135F07B88
:1030D600017A0079AC900199E0FD1233059000B4B5
:1030E600E0700D7B017A0079ACFD123305123B2EA0
:1030F60078287C017D017B017A0079B67E007F0D00
:10310600121D8078367C017D017B017A0079AC7EC8
:06311600007F0A021D808B
:05379B00900196EFF023
:1037A000E490011EF0A312212600000000E4900125
:1037B00023F0900222E030E2169000A3E004F0E053
:1037C000D394035002800DE49000A3F0023BADE4DB
:0C37D0009000A3F0900196E0FF1232ABD5
:0137DC0022CA
:10375700900196EFF0A3EDF0A3EBF0123B2E900152
:1037670096E09000A6F0A3E4F0900197E09000A8FF
:10377700F0A3E4F0900198E07F009000AAF0FAA38C
:10378700EFF0FB9000A6E0FEA3E0FFA3E0FCA3E0C0
:04379700FD022A0302
:10144E00900123E0600314F02290012FE0700D90C4
:10145E000133E07002A3E07003021CAF900128E09C
:10146E00540F24FC7003021833147003021A422422
:10147E00026003021CAF90011F122102EF2401FF34
:10148E00E43EFEE43DFDE43CFC90011F12211A9067
:10149E00012CE0FF900129E0FEC39F5064EEFDC3D6
:1014AE00EF9DFFE49400FE123CB0EE3395E0FDFCA0
:1014BE00C004C005C006C007E4FF7E01FDFC90011C
:1014CE001F12210E121FC1D003D002D001D0001264
:1014DE001FC1C006C007900130E0FEA3E0FBAA06C4
:1014EE00E4F9F8D007D00612204CA804A905AA06E4
:1014FE00AB07900129E07F00FEE4FCFD121FA680E1
:10150E0068900129E0FF90012CE0C39FFFE4940056
:10151E00FE123CB0EE3395E0FDFCC004C005C006E3
:10152E00C007E4FF7E01FDFC90011F12210E121F69
:10153E00C1D003D002D001D000121FC1C006C00717
:10154E00900130E0FEA3E0FBAA06E4F9F8D007D044
:10155E000612204CA804A905AA06AB07900129E0A3
:10156E007F00FEE4FCFD121FB390012412211A909D
:10157E000132E0FFE4FCFDFE90012412210E121F49
:10158E00C1E47B64FAF9F812204C90012412211A5E
:10159E009001241221029000A6EEF0A3EFF090012C
:1015AE002DE0FF90012AE0FEC39F5064EEFDC3EFD5
:1015BE009DFFE49400FE123CB0EE3395E0FDFCC0BE
:1015CE0004C005C006C007E4FF7E01FDFC90011FAC
:1015DE0012210E121FC1D003D002D001D000121F53
:1015EE00C1C006C007900130E0FEA3E0FBAA06E4EE
:1015FE00F9F8D007D00612204CA804A905AA06AB0C
:10160E000790012AE07F00FEE4FCFD121FA6806811
:10161E0090012AE0FF90012DE0C39FFFE49400FEAD
:10162E00123CB0EE3395E0FDFCC004C005C006C010
:10163E0007E4FF7E01FDFC90011F12210E121FC157
:10164E00D003D002D001D000121FC1C006C0079037
:10165E000130E0FEA3E0FBAA06E4F9F8D007D006BD
:10166E0012204CA804A905AA06AB0790012AE07F18
:10167E0000FEE4FCFD121FB390012412211A90010A
:10168E0032E0FFE4FCFDFE90012412210E121FC178
:10169E00E47B64FAF9F812204C90012412211A907E
:1016AE0001241221029000A8EEF0A3EFF090012E7B
:1016BE00E0FF90012BE0FEC39F5064EEFDC3EF9D53
:1016CE00FFE49400FE123CB0EE3395E0FDFCC00446
:1016DE00C005C006C007E4FF7E01FDFC90011F128D
:1016EE00210E121FC1D003D002D001D000121FC193
:1016FE00C006C007900130E0FEA3E0FBAA06E4F9A5
:10170E00F8D007D00612204CA804A905AA06AB07EC
:10171E0090012BE07F00FEE4FCFD121FA680689076
:10172E00012BE0FF90012EE0C39FFFE49400FE1218
:10173E003CB0EE3395E0FDFCC004C005C006C0070A
:10174E00E4FF7E01FDFC90011F12210E121FC1D07D
:10175E0003D002D001D000121FC1C006C0079001F5
:10176E0030E0FEA3E0FBAA06E4F9F8D007D006129B
:10177E00204CA804A905AA06AB0790012BE07F0018
:10178E00FEE4FCFD121FB390012412211A900132C7
:10179E00E0FFE4FCFDFE90012412210E121FC1E4B5
:1017AE007B64FAF9F812204C90012412211A900150
:1017BE00241221029000AAEEF0FAA3EFF0FB9000A3
:1017CE00A6E0FEA3E0FFA3E0FCA3E0FD122A039037
:1017DE000130E0FEA3E0FFE4FCFD90011F12210E9C
:1017EE00C31220DE401290011F12212600000000BD
:1017FE0090012FE0600214F090012FE06003021CB4
:10180E00AF900133E07002A3E0600A90013374FFE1
:10181E00F5F0121EDE900133E07002A3E0600302C9
:10182E001CAF021CA490011EE07012A3122102EF45
:10183E002401FFE43EFEE43DFDE43C802190011FC7
:10184E00122102EC4D4E4F601C90011F122102EF2F
:10185E0024FFFFEE34FFFEED34FFFDEC34FFFC9071
:10186E00011F12211AE47FFFFEFDFC90011F1221C1
:10187E000E121FC1A804A905AA06AB07900129E004
:10188E00FFE4FCFDFE121FC1C006C007900130E050
:10189E00FEA3E0FBAA06E4F9F8D007D00612204C0E
:1018AE0090012412211A900132E0FFE4FCFDFE901B
:1018BE00012412210E121FC1E47B64FAF9F81220E2
:1018CE004C90012412211A9001241221029000A69C
:1018DE00EEF0A3EFF0E47FFFFEFDFC90011F12215E
:1018EE000E121FC1A804A905AA06AB0790012AE093
:1018FE00FFE4FCFDFE121FC1C006C007900130E0E0
:10190E00FEA3E0FBAA06E4F9F8D007D00612204C9D
:10191E0090012412211A900132E0FFE4FCFDFE90AA
:10192E00012412210E121FC1E47B64FAF9F8122071
:10193E004C90012412211A9001241221029000A829
:10194E00EEF0A3EFF0E47FFFFEFDFC90011F1221ED
:10195E000E121FC1A804A905AA06AB0790012BE021
:10196E00FFE4FCFDFE121FC1C006C007900130E06F
:10197E00FEA3E0FBAA06E4F9F8D007D00612204C2D
:10198E0090012412211A900132E0FFE4FCFDFE903A
:10199E00012412210E121FC1E47B64FAF9F8122001
:1019AE004C90012412211A9001241221029000AAB7
:1019BE00EEF0FAA3EFF0FB9000A6E0FEA3E0FFA38B
:1019CE00E0FCA3E0FD122A03900130E0FEA3E0FF4D
:1019DE00E4FCFD90011F12210EC31220DE5011E413
:1019EE00FFFEFDFC90011F12210EC31220DE7017A8
:1019FE0090011EE0700404F0800DE490011EF09042
:101A0E00012FE0600214F090012FE06003021CAF82
:101A1E00900133E07002A3E0600A90013374FFF589
:101A2E00F0121EDE900133E07002A3E06003021C90
:041A3E00AF021CA433
:101A4200900192122126000000FFE4FFFEFDFC90AF
:101A5200011F12210EC31220DE6003021B3C900103
:101A620029E0FFE4FCFDFE90019212210E121FC13B
:101A7200A804A905AA06AB07900132E0FFE4FCFD29
:101A8200FE121FC1E47B64FAF9F812204C90012483
:101A920012211A9001241221029000A6EEF0A3EF67
:101AA200F090012AE0FFE4FCFDFE90019212210E6B
:101AB200121FC1A804A905AA06AB07900132E0FFD4
:101AC200E4FCFDFE121FC1E47B64FAF9F812204C1B
:101AD20090012412211A9001241221029000A8EEF2
:101AE200F0A3EFF090012BE0FFE4FCFDFE900192E9
:101AF20012210E121FC1A804A905AA06AB07900164
:101B020032E0FFE4FCFDFE121FC1E47B64FAF9F847
:101B120012204C90012412211A90012412210290C9
:101B220000AAEEF0FAA3EFF0FB9000A6E0FEA3E01D
:101B3200FFA3E0FCA3E0FD122A03900130E0FEA324
:101B4200E0FFE4FCFD90011F12210EC31220DE60B3
:101B520003021C3290012CE0FFE4FCFDFE90019296
:101B620012210E121FC1A804A905AA06AB079001F3
:101B720032E0FFE4FCFDFE121FC1E47B64FAF9F8D7
:101B820012204C90012412211A9001241221029059
:101B920000A6EEF0A3EFF090012DE0FFE4FCFDFEC5
:101BA20090019212210E121FC1A804A905AA06AB28
:101BB20007900132E0FFE4FCFDFE121FC1E47B64EA
:101BC200FAF9F812204C90012412211A90012412E1
:101BD20021029000A8EEF0A3EFF090012EE0FFE4C6
:101BE200FCFDFE90019212210E121FC1A804A9054C
:101BF200AA06AB07900132E0FFE4FCFDFE121FC112
:101C0200E47B64FAF9F812204C90012412211A9014
:101C120001241221029000AAEEF0FAA3EFF0FB9049
:101C220000A6E0FEA3E0FFA3E0FCA3E0FD122A036E
:101C320090011F122102EF2401FFE43EFEE43DFD6C
:101C4200E43CFC90011F12211A900133E0FEA3E054
:101C5200FF900131E02FFF900130E03EFEE4FCFDF9
:101C620090011F12210EC31220DE401290011F129A
:101C720021260000000090012FE0600214F0900184
:101C82002FE07029900133E07002A3E0600A900116
:101C92003374FFF5F0121EDE900133E07002A3E010
:0D1CA200700B900128E0C4540FFF12379B17
:011CAF002212
:013D5E002242
:0B33050090019A12218090019DEDF0D4
:10331000E4A3F0AF05EFC39416E490019EF0900192
:103320009EE0FDC39472503690019DE075F072A44A
:103330002400FFE5F0343EFE7C00EF2DFFEC3EFE66
:1033400012000390019A12216090019EE0F58275AF
:0E3350008300EF121E1F90019EE004F080C06B
:01335E00224C
:0A3CC700E42FFFEE343EFE02371238
:0A3CD100E42FFFEE343EFE02311C2A
:103C2400E42FFFEE343EFE9001F6E09001FCF0023A
:023C34002D68F9
:013D5F002241
:013D60002240
:10000E00123BEB123CEF123D45123461123A641270
:05001E003A84D2AF227C
:042F13004100A200D7
:103A8400E49000A2F0FE7FA2FD7B017A007900128F
:0D3A940021D57F007E4B7D007C0002318932
:030023000236CBD7
:1036CB00C0E0C083C082C0D075D000C0073098273F
:1036DB00C2989000A0E0FF04F074002FF582E43450
:1036EB0000F583E599F09000A0E0C394A04002E4BC
:1036FB00F09000A2E004F0309902C299D007D0D02C
:07370B00D082D083D0E03230
:082F17004101EF004101F0004F
:103A6400123ABE5389F0438901538EF79001EF74E3
:103A7400FAF0A374C4F0758CFAF58AD2A9D28C2218
:103ABE00E49001E6F09001E8F09001ECF0A3F090B4
:0C3ACE0001E7F09001E9F09001EEF02219
:03000B00022F2899
:102F2800C0E0C0F0C083C082C0D075D000C000C06F
:102F3800069001EFE0F58CA3E0F58A9001E57401B5
:102F4800F0A3E004F0C3940A4005E4F0A304F09071
:102F580001E8E004F0C394644005E4F0A304F090B1
:102F680001EAE004F0C394F4748094814005E4F02D
:102F7800A304F09001ECE475F001121EDEFEC3E537
:102F8800F094E8EE9403400A9001ECE4F0A3F0A377
:102F980004F0D006D000D0D0D082D083D0F0D0E0DA
:012FA80032F6
:1039F9000A6D679C46F6375D4521EFAC5A50010BBD
:103A0900DF020A6D679C46F6375D4521EFAC5A50D7
:043A1900E10BDF02DC
:082F1F004501FDCCCCCCCCCC6B
:103BEB0053B3FE43B40153B3FD43B40253B1FE438D
:033BFB00B20122F2
:013D6100223F
:103AA100E4FEC290EF30E704D2808002C280EF25AD
:0C3AB100E0FFD290000EEEB408E8C290D6
:013ABD0022E6
:043BFE00E4FD7FFC67
:0F3C0200C29100123AA1AF05123AA100D291224D
:0A3857007B019001A87405F07F3F8B
:063861009001A512218078
:10386700C291E4FD123AA19001A8E0FFEDC39F5079
:10387700159001A51221608D82758300121DBFFF6F
:08388700123AA10D80E1D2917B
:01388F002216
:103A4100E4FEC290EF30E704D2808002C280EF250D
:103A5100E0FFD290000EEEB408E843B10153B2FE8C
:023A6100C29011
:013A63002240
:103B6400E4FFFEC290EF25E0FFD2903080034401D1
:083B7400FF0EEEB408EDC29053
:013B7C002226
:103C1100C29100123A41123B6453B1FE43B201001A
:023C2100D2913E
:013C2300227E
:063890009001931221805B
:10389600C291123A41E4FD900196E0FFEDC39F50BC
:1038A60015123B649001931221608D82758300EF9F
:0E38B600121E1F0D80E153B1FE43B201D291EC
:0138C40022E1
:0E3C6100123BFE7D8E7F20123C0200000022EE
:1039D300E4FEFD7FFC123C027D8F7F20123C02E45B
:1039E300FD7FFD123C02E4FEFF000FBF00010EBE8F
:0539F30013F7BF88F48A
:0139F80022AC
:0A3CDB007F07123C11EF5470FF2226
:063D39007F09123C11227B
:073D18007D707F27023C02D1
:0C3CA400E4FD7FE1123C027FE2023C02E2
:0E3C6F00AC07123BFEAF04AD077F25023C02FE
:0637DD00123CDBEF703826
:1037E300900192F0A3F09001A8EDF07FA012386150
:1037F300E4FD7FFD123C02E4900192F0A3F00090FF
:103803000192E475F001121EDE900192E07004A3B0
:08381300E064C870E9123BFEFD
:01381B00228A
:10395C00AC05123CDBEF30E61D123BFE900196EC01
:10396C00F07F61123890123CA4123D18E4FD7FFDEB
:09397C00123C027F01227F0022AF
:1026D30078927C017D017BFF7A3979F97E007F0551
:1026E300121D8078977C017D017BFF7A3979FE7E0C
:1026F300007F03121D80789A7C017D017BFF7A3A6B
:1027030079017E007F06121D8078A07C017D017B0C
:10271300FF7A3A79077E007F01121D8078A17C0140
:102723007D017BFF7A3A79087E007F03121D8012B8
:102733003D617D5A7F53123C027DA57F53123C02BB
:102743007D207F3D123C02123BFE7FE1123C027F63
:10275300E2123C027D707F27123C027D017F221230
:102763003C027D037F23123C027D4E7F25123C02F7
:102773007D107F31123C027B017A0179FD9001A823
:102783007405F07F301238617B017A0179FD900185
:10279300A87405F07F2A1238617A017992123857AA
:1027A3007B017A01799A9001A87406F07F3A123876
:1027B300617B017A0179A09001A87401F07F39123D
:1027C30038617B017A0179979001A87403F07F3E09
:1027D3001238617B017A0179A19001A87403F07F1B
:1027E3003B123861E4FD7F3C123C027D3F7F2612A1
:0E27F3003C02E4FD7F24123C027F21023C02E6
:052AF2009001C0EFF0AF
:102AF700E478C17C017D017BFF7A3A790BFE7F0583
:102B0700121D8078C67C017D017BFF7A3A79107EA1
:102B1700007F03121D8078C97C017D017BFF7A3A13
:102B270079137E007F06121D8078CF7C017D017BA3
:102B3700FF7A3A79197E007F01121D8078D07C01D7
:102B47007D017BFF7A3A791A7E007F03121D807D13
:102B57005A7F53123C027DA57F53123C027D207F92
:102B67003D123C02123BFEE4FF000000000FEFB4F1
:102B7700DCF79001C0E0FD7F25123C027D3F7F26F8
:102B8700123C027A0179C11238577B017A0179C95F
:102B97009001A87406F07F3A1238617B017A0179B7
:102BA700CF9001A87401F07F391238617B017A0157
:102BB70079C69001A87403F07F3E1238617B017AD1
:0E2BC7000179D09001A87403F07F3B023861C1
:1034610053B1F743B20853B1EF43B21053B3FB4327
:10347100B40443DE01A2AF9209C2AF75C7AA75C7F2
:103481005543910143C60875C7AA75C7555391FEA7
:10349100A20992AF43DE2053DF3F43DF0153DFF93F
:1034A10075D1FF75D9FFD2DFE4FBFAFDFCFFFE0207
:0234B1002A03EC
:1038C500AD07AC06A2AF9209C2AF75C7AA75C755B9
:1038D500439101A20992AFECF5C5EDF5CDA2AF92EA
:1038E50009C2AF75C7AA75C7555391FEA20992AF14
:0338F500D2DE22FE
:0D3C7D00AD07AC06ECF5D5EDF5DDD2DE228D
:0D3C8A00AD07AC06ECF5D2EDF5DAD2DE2286
:102A030090019AEEF0A3EFF0A3ECF0A3EDF0A3EAAC
:042A1300F0A3EBF051
:102A1700A31221260000000090019AE0FEA3E0FF28
:102A2700E4FCFD9001A012211A9001A012210E9042
:102A370000A4E0FFE4FCFDFE121FC19001A01221DB
:102A47001A9001A0122102E47B64FAF9F812204CD3
:102A57009001A012211A9001A01221021238C590EC
:102A6700019CE0FEA3E0FFE4FCFD9001A012211A07
:102A77009001A012210E9000A4E0FFE4FCFDFE12DD
:102A87001FC19001A012211A9001A0122102E47B1C
:102A970064FAF9F812204C9001A012211A9001A0B3
:102AA700122102123C7D90019EE0FEA3E0FFE4FCB0
:102AB700FDA312211A9001A012210E9000A4E0FF9D
:102AC700E4FCFDFE121FC19001A012211A9001A083
:102AD700122102E47B64FAF9F812204C9001A0124B
:0B2AE700211A9001A0122102023C8A7B
:103ADA009000A4EFF09000A6E0FEA3E0FFA3E0FCB4
:0C3AEA00A3E0FDA3E0FAA3E0FB022A0326
:093CEF0053B3EF43B410023D543D
:033D5100D29422E7
:033D5400C29422F4
:033D5700B2942201
:063D3F00A294E433FF2210
:0A3CE500EF6003023D51123D54222E
:013D6200223E
:10311C00EFF5A6EEF5A7A2AF9209C2AF75C7AA75D7
:10312C00C755439F01A20992AFA2AF9209C2AF75D6
:10313C00C7AA75C75543A501A20992AF75AF21AFB8
:10314C00058FAEA2AF9209C2AF75C7AA75C755431A
:10315C00A401A20992AFA2AF9209C2AF75C7AA751A
:10316C00C75553A5FEA20992AFA2AF9209C2AF7583
:0D317C00C7AA75C755539FFEA20992AF2246
:103712008FA6EEF5A775AEFFA2AF9209C2AF75C72D
:10372200AA75C755439F01A20992AFA2AF9209C2DF
:10373200AF75C7AA75C75543A501A20992AF75AF68
:1037420022A2AF9209C2AF75C7AA75C75543A40199
:05375200A20992AF2264
:0C2D68009001F7EEF0A3EFF0A312218021
:102D74009001F7E0FEA3E0F5A6EEF5A7A2AF920955
:102D8400C2AF75C7AA75C755439F01A20992AFA2E6
:102D9400AF9209C2AF75C7AA75C75543A501A20969
:102DA40092AF75AF21E4FEFF9001FCE0FDC3EF9DFF
:102DB400EE940050299001F91221608F828E8312C3
:102DC4001DBFF5AEA2AF9209C2AF75C7AA75C755AC
:102DD40043A401A20992AF0FBF00010E80CAA2AFA3
:102DE4009209C2AF75C7AA75C75553A5FEA2099229
:102DF400AFA2AF9209C2AF75C7AA75C755539FFE5C
:042E0400A20992AFDE
:012E080022A7
:040003008F828E83D7
:03000700E493FF80
:01000A0022D3
:073D1F00A2B0B3E433FF2260
:073D2600A297B3E433FF2272
:063D45001233B8023C97A6
:103BD7007843E62438F8A607784306E6C3940A40F4
:043BE70002E4F622DC
:103AF6007842E6FE08667002FF2274382EF8E6FF6A
:0B3B0600784206E6C3940A4002E4F691
:013B11002291
:103B12007844E6FE18667002FF2274382EF8E6FF3B
:0B3B2200784406E6C3940A4002E4F673
:013B2D002275
:0B3CBC00EF75F00BA4242AF8E6FF22AD
:103A1D00EF75F00BA42428F8A60408A605AE03EF55
:103A2D0075F00BA4242BF8A606EF75F00BA4242C2F
:043A3D00F8E4F62291
:063D4B007843E618F622A1
:0D3C970043AC0153ADFE43B38053B37F2215
:1033B800E47842F608F608F6FFEF75F00BA4242827
:1033C800F87600087664EF75F00BA42425F87602E9
:1033D800EF75F00BA4242AF8E4F6EF75F00BA4249B
:1033E8002BF8E4F6EF75F00BA4242CF8E4F60FEFB5
:1033F800B402C67BFF7A3D791F78221221577A3DA5
:073408007926782D022157FF
:10259600900193EFF0E075F00BA42422F9E4FAFB26
:1025A60090021E1221801221891221CFEF700302A0
:1025B600267590021E122160900003121DBFFFC3F4
:1025C6009405500890000374050226CFEFC3940AC1
:1025D60050089000037401021DEC900008121DBF04
:1025E600701490000804121E1F900193E075F0030A
:1025F600A404FF123BD790021E122160900006121F
:102606001EF4FFAEF0D39400EE940050030226D2DF
:10261600900004121EF4C39FE5F09E502390000420
:10262600E475F001121F2CFCE5F06F7002EC6E6091
:10263600030226D2900193E075F003A42403802BB5
:10264600900009121DBFFFD3940050030226D290BA
:10265600000A7401121DECC39F407190000AE41237
:102666001E1F900193E075F003A404FF023BD79070
:10267600021E122160900003121DBFFFD394054075
:102686000A9000037405121E1F802BEF600A90004B
:102696000374FF121DEC801E900008121DBFB401CA
:1026A60015900008E4121E1F900193E075F003A434
:1026B6002402FF123BD790021E122160900004E410
:0D26C600F5F0121F7990000AE4121E1F2289
:103B4900E4900192F0900192E0FFC39402500B12AD
:0A3B59002596900192E004F080EB45
:013B6300223F
:10381C0053B1BF53B2BF53B17F53B27F759850436E
:10382C008920438780438E1053C4DFAB07AA06A9B7
:10383C0005A8047F407E427D0F7C0012204CEF04D3
:0B384C00F404F58DD28ED299D2AC228C
:1031890090019212211A53B1BF53B2BF53B17F5369
:10319900B27F75985043878053C4F843C420900187
:1031A9009212210E7F407E427D0F7C0012204CC37B
:1031B90074FF9FFF74FF9EFEE49DFDE49CFC78086C
:1031C9001220EF8FC690019212210E7F407E427D20
:1031D9000F7C0012204CC374FF9FFF8FC543C408A6
:0531E900D299D2AC22D6
:073CF8003098FDAF99C2985E
:013CFF0022A2
:083D0000C2998F993099FD2250
:10324D0090020212211A53B1FB53B2FB53B3BF5379
:10325D00B4BF75F85075C40853C4DF900202122133
:10326D000E7F407E427D0F7C0012204CC374FF9F69
:10327D00FF74FF9EFEE49DFDE49CFC78081220EF98
:10328D008FC690020212210E7F407E427D0F7C0080
:0E329D0012204CC374FF9FFF8FC543C408224C
:073D080030F8FDAF9AC2F88C
:013D0F002291
:083D1000C2F98F9A30F9FD227F
:1035EA0090020612211A538EF7438901D28CE4FF06
:1035FA00FEFDFC90020612210EC31220DE60297520
:10360A008A7E758CFF308DFDC28D900206122102D2
:10361A00EF24FFFFEE34FFFEED34FFFDEC34FFFC38
:0B362A0090020612211A80C6C28C22FA
:1036350090020A12211A538EF7438901D28CE4FFB6
:10364500FEFDFC90020A12210EC31220DE602975D0
:103655008ACA758CFA308DFDC28D90020A1221023C
:10366500EF24FFFFEE34FFFEED34FFFDEC34FFFCED
:0B36750090020A12211A80C6C28C22AB
:1036800090020E12211A538EEF438910D28EE4FF5E
:10369000FEFDFC90020E12210EC31220DE60297581
:1036A0008BEA758DCB308FFDC28F90020E122102F6
:1036B000EF24FFFFEE34FFFEED34FFFDEC34FFFCA2
:0B36C00090020E12211A80C6C28E225A
:1035020090021212211A53C9BF53C9DF43C910D204
:10351200CAE4FFFEFDFC90021212210EC31220DE4D
:10352200602975CC3075CDF830CFFDC2CF90021234
:10353200122102EF24FFFFEE34FFFEED34FFFDEC1B
:0E35420034FFFC90021212211A80C6C2CA2267
:1035500090021612211A75C40743C408E4FFFEFD49
:10356000FC90021612210EC31220DE602C75C52CB1
:1035700075C6CFE5C430E4FB53C4EF9002161221A8
:1035800002EF24FFFFEE34FFFEED34FFFDEC34FFCD
:0D359000FC90021612211A80C353C4F722CA
:10359D0090021A12211A75C40743C408E4FFFEFDF8
:1035AD00FC90021A12210EC31220DE602C75C5D8B4
:1035BD0075C6FFE5C430E4FB53C4EF90021A122127
:1035CD0002EF24FFFFEE34FFFEED34FFFDEC34FF80
:0D35DD00FC90021A12211A80C353C4F72279
:102801000A3D3D3D3D3D3D3D3D3D3D3D3D3D3D3D2A
:102811003D3D3D3D3D3D3D3D3D3D3D3D3D3D3D3DE7
:102821003D3D3D3D3D3D3D3D3D3D3D3D3D3D3D3DD7
:102831003D3D3D3D3D3D3D3D3D3D3D3D3D3D3D3DC7
:102841003D3D3D3D3D000A2A2020436F707972696C
:102851006768742863292032303135204E75766FD0
:10286100746F6E20546563686E6F6C6F6779204377
:102871006F72702E20416C6C2072696768747320CE
:1028810072657365727665642E2020000A2A202005
:10289100436F6E7461637420452D4D61696C3A20FC
:1028A1004D6963726F432D38626974406E75766F3E
:1028B100746F6E2E636F6D20202020202020202039
:1028C1002020202020202020202020202020202007
:1028D10020000A2A202044656D6F205665727369B5
:1028E1006F6E20203A202532642E2532642E253247
:1028F10064000A2A202046696E6973686564204471
:10290100617465203A202532642E2532642E2532E9
:02291100640060
:1031EE007BFF7A28790112229C7BFF7A287947127D
:1031FE00229C7BFF7A28798D12229C7BFF7A28797C
:10320E00D390016CE4F0A304F0E4A3F0A3F0A3F0D8
:10321E00A3F012229C7BFF7A2879F390016C74073D
:10322E00F0A374DFF0A3E4F0A37405F0A3E4F0A31D
:0F323E00741FF012229C7BFF7A28790102229CD8
:03000000022E09C4
:102E0900787FE4F6D8FD9000007FFF7E03E4F0A30D
:0A2E1900DFFCDEFA758144022E5E34
:102E2300022BD5E493A3F8E493A34003F68001F2C5
:102E330008DFF48029E493A3F85407240CC8C333B0
:102E4300C4540F4420C8834004F456800146F6DF7F
:102E5300E4800B0102040810204080902EA3E47E3E
:102E6300019360BCA3FF543F30E509541FFEE49374
:102E7300A360010ECF54C025E060A840B8E493A33B
:102E8300FAE493A3F8E493A3C8C582C8CAC583CA66
:102E9300F0A3C8C582C8CAC583CADFE9DEE780BE1E
:012F270000A9
:101CB000E709F608DFFA8046E709F208DFFA803E16
:101CC00088828C83E709F0A3DFFA8032E309F60803
:101CD000DFFA8078E309F208DFFA807088828C836B
:101CE000E309F0A3DFFA806489828A83E0A3F6081F
:101CF000DFFA805889828A83E0A3F208DFFA804CF9
:101D000080D280FA80C680D4806980F280338010CF
:101D100080A680EA809A80A880DA80E280CA803338
:101D200089828A83ECFAE493A3C8C582C8CCC583B0
:101D3000CCF0A3C8C582C8CCC583CCDFE9DEE78080
:101D40000D89828A83E493A3F608DFF9ECFAA9F0FF
:101D5000EDFB2289828A83ECFAE0A3C8C582C8CC55
:101D6000C583CCF0A3C8C582C8CCC583CCDFEADE6E
:101D7000E880DB89828A83E493A3F208DFF980CCD0
:101D800088F0EF60010E4E60C388F0ED2402B404C9
:101D90000050B9F582EB2402B4040050AF23234570
:061DA0008223901D007378
:101DA600BB010689828A83E0225002E722BBFE023B
:091DB600E32289828A83E493226E
:101DBF00BB010CE58229F582E5833AF583E02250D9
:101DCF0006E92582F8E622BBFE06E92582F8E22223
:0D1DDF00E58229F582E5833AF583E493223D
:101DEC00BB010FF8E58229F582E5833AF583E028FB
:101DFC00F0225009C58229F8E58226F622BBFE099D
:101E0C00C58229F8E22582F222F8EA2583F583E9D6
:031E1C00932822E6
:101E1F00F8BB010DE58229F582E5833AF583E8F0F9
:101E2F00225006E92582C8F622BBFE05E92582C8A5
:021E3F00F2228D
:101E4100EF8DF0A4A8F0CF8CF0A428CE8DF0A42EB5
:021E5100FE226F
:101E5300BC000BBE0029EF8DF084FFADF022E4CC73
:101E6300F875F008EF2FFFEE33FEEC33FCEE9DEC3C
:101E7300984005FCEE9DFE0FD5F0E9E4CEFD22ED82
:101E8300F8F5F0EE8420D21CFEADF075F008EF2FCC
:101E9300FFED33FD4007985006D5F0F222C398FDBD
:051EA3000FD5F0EA225A
:101EA800C2D5EC30E709B2D5E4C39DFDE49CFCEE55
:101EB80030E715B2D5E4C39FFFE49EFE121E53C35C
:101EC800E49DFDE49CFC8003121E5330D507C3E457
:061ED8009FFFE49EFE22C4
:101EDE00C5F0F8A3E028F0C5F0F8E582158270028F
:061EEE001583E038F0222C
:101EF400BB0110E58229F582E5833AF583E0F5F02C
:101F0400A3E0225009E92582F886F008E622BBFE08
:101F14000AE92582F8E2F5F008E222E5832AF5834E
:081F2400E993F5F0A3E9932213
:101F2C00BB010DC58229C582C5833AC583021EDE5D
:101F3C005011C58229F808E5F026F618F5F0E5826F
:101F4C0036F622BBFE11C58229F808E225F0F5F021
:101F5C00F218E23582F222F8E58229F582E5832A2D
:0D1F6C00F58374019325F0F5F0E49338221D
:101F7900F8BB0111E58229F582E5833AF583E8F09A
:101F8900E5F0A3F0225009E92582C8F608A6F02257
:0D1F9900BBFE09E92582C8F2E5F008F2223E
:0D1FA600EF2BFFEE3AFEED39FDEC38FC228A
:0E1FB300C3EF9BFFEE9AFEED99FDEC98FC2229
:101FC100E88FF0A4CC8BF0A42CFCE98EF0A42CFCBF
:101FD1008AF0EDA42CFCEA8EF0A4CDA8F08BF0A43D
:101FE1002DCC3825F0FDE98FF0A42CCD35F0FCEB9C
:101FF1008EF0A4FEA9F0EB8FF0A4CFC5F02ECD3961
:0F200100FEE43CFCEAA42DCE35F0FDE43CFC22CD
:1020100075F008758200EF2FFFEE33FECD33CDCC87
:1020200033CCC58233C5829BED9AEC99E58298400A
:102030000CF582EE9BFEED9AFDEC99FC0FD5F0D6E7
:10204000E4CEFBE4CDFAE4CCF9A88222B800C1B911
:102050000059BA002DEC8BF084CFCECDFCE5F0CB4F
:10206000F97818EF2FFFEE33FEED33FDEC33FCEB88
:1020700033FB10D703994004EB99FB0FD8E5E4F943
:10208000FA227818EF2FFFEE33FEED33FDEC33FC30
:10209000C933C910D7059BE99A4007EC9BFCE99A24
:1020A000F90FD8E0E4C9FAE4CCFB2275F010EF2F69
:1020B000FFEE33FEED33FDCC33CCC833C810D70769
:1020C0009BEC9AE899400AED9BFDEC9AFCE899F8A4
:0E20D0000FD5F0DAE4CDFBE4CCFAE4C8F92237
:1020DE00EB9FF5F0EA9E42F0E99D42F0E89C45F058
:0120EE0022CF
:1020EF00E8600FECC313FCED13FDEE13FEEF13FFCF
:0320FF00D8F122F3
:0C210200E0FCA3E0FDA3E0FEA3E0FF2250
:0C210E00E0F8A3E0F9A3E0FAA3E0FB2254
:0C211A00ECF0A3EDF0A3EEF0A3EFF02238
:10212600A8828583F0D083D08212213D12213D12F0
:10213600213D12213DE473E493A3C583C5F0C58315
:10214600C8C582C8F0A3C583C5F0C583C8C582C803
:012156002266
:09215700EBF608EAF608E9F622AD
:09216000E0FBA3E0FAA3E0F92280
:10216900F8E0FBA3A3E0F925F0F0E58215827002FF
:072179001583E0FA38F022A3
:09218000EBF0A3EAF0A3E9F02260
:10218900BB010789828A830221605005E9F802228E
:1021990013BBFE05E9F802221C89828A83022225E3
:1021A900D083D082F8E4937012740193700DA3A3C5
:1021B90093F8740193F5828883E4737402936860D9
:0621C900EFA3A3A380DFD9
:0621CF008A838982E4739B
:10223100E508246CF582E43401F583E00508229079
:10224100016930070390016CE475F0011221690204
:102251001DA62000E97F2ED2008018EF540F249094
:10226100D43440D4FF30040BEF24BFB41A00500320
:102271002461FFE50960021509050CE50C700205F2
:102281000B30070E900169E475F001122169EF022C
:1022910022010239AC7403D2078003E4C207F508B6
:1022A100900169122180E4F509F50BF50CE509604F
:1022B100077F2012227480F5750AFFC201C200C295
:1022C10002C203C205C206C208122240FF700D30CD
:1022D10007057F00122285AF0CAE0B22B4255FC229
:1022E100D5C204122240FF24D0B40A00501A75F05E
:1022F1000A780930D50508B6FF0106C6A426F620DE
:10230100D5047002D20380D924CFB41A00EF50044F
:10231100C2E5D204022486D20180C6D20080C0D296
:102321000280BCD2D580BAD20580B47F201222743B
:102331002002077401B5090040F1122231FF122277
:10234100740222AED208D2068095122231FB1222EB
:1023510031FA122231F94A4B700679577A257BFFFF
:1023610020022EE509602A7E008E82758300121DEF
:10237100BF60060EEE650A70F0C2D5EBC0E0EAC0A0
:10238100E0E9C0E0EE1224CDD0E0F9D0E0FAD0E0EF
:10239100FB121DA6FF60AAEBC0E0EAC0E0E9C0E0C5
:1023A100122274D0E02401F9D0E03400FAD0E0FB2D
:1023B100E50A0460DCD50AD980877BFF7A2479C9D4
:1023C100D202809C791080027908C206C208800876
:1023D100D2D5790A8004790AC2D5E50A047002F5DA
:1023E1000AE4FAFDFEFF122231FC7B0820011312E0
:1023F1002231FD7B1030000A122231FE122231FF00
:102401007B20EC3382D592D55013C3E43000069F74
:10241100FFE49EFEE42001039DFDE49CFCE4CBF877
:10242100C201EC700CCFCECDCCE824F8F870F3806B
:1024310017C3EF33FFEE33FEED33FDEC33FCEB332B
:10244100FB994002FB0FD8E9EB300105F8D0E0C45D
:1024510048B201C0E00AEC4D4E4F78207B0070C2BB
:10246100EAB50A0040BCC0E01224CFD0F0D0E02091
:102471000104C4C0E0C4B201C0F012225DD0F0D5A5
:10248100F0EB0222AE1221A9234B5323C558231C82
:102491004C23184223C94F23D14423D1492331432B
:0824A10023D75523BB4623BBE2
:1024A9004523BB4725775023202D23242E23472B53
:1024B90023282323452025602A22E0480000233FC2
:1024C9003F3F3F00790AA2D5200314300509B9100E
:1024D900020404B9080104A2D5200602500104200F
:1024E90002689202B509005034C0E07F2030031918
:1024F9007F30A20272067205500F122526C202C24F
:1025090006C205C2087F30800F300503E9C0E0121A
:102519002274300503D0E0F9D0E0B509CC300517B5
:102529007F30B9100C1222747F583004077F7880ED
:1025390003B908031222743002057F2D0222747F29
:10254900202008F87F2B2006F322920280CF286EE4
:10255900756C6C2900D2011222313001F8C2017860
:102569000930D50108F60222E02D504349581222BC
:10257900312403B405004001E490257293122265C9
:0D258900743A122265D2037509040223C5BD
:0C3CB000EE30E707C3E49FFFE49EFE2215
:1021D500EF4E6012EF60010EEDBB010B89828A8321
:1021E500F0A3DFFCDEFA2289F05007F709DFFCA92E
:0C21F500F022BBFEFCF309DFFCA9F02285
:10220100BB010689828A83F0225002F722BBFE01BC
:02221100F322B6
:09221300E6FB08E6FA08E6F922F0
:09221C00E2FB08E2FA08E2F922F3
:0C222500E493FB740193FA740293F92215
:1039AC00EFB40A07740D1239B7740A309811A8993C
:1039BC00B8130CC2983098FDA899C298B811F6307B
:0739CC0099FDC299F5992253
:00000001FF
